{
  "_format": "hh-sol-artifact-1",
  "contractName": "ChampionSBT",
  "sourceName": "contracts/ChampionSBT.sol",
  "abi": [
    {
      "anonymous": false,
      "inputs": [
        {
          "indexed": false,
          "internalType": "address",
          "name": "previousAdmin",
          "type": "address"
        },
        {
          "indexed": false,
          "internalType": "address",
          "name": "newAdmin",
          "type": "address"
        }
      ],
      "name": "AdminChanged",
      "type": "event"
    },
    {
      "anonymous": false,
      "inputs": [
        {
          "indexed": true,
          "internalType": "address",
          "name": "owner",
          "type": "address"
        },
        {
          "indexed": true,
          "internalType": "address",
          "name": "approved",
          "type": "address"
        },
        {
          "indexed": true,
          "internalType": "uint256",
          "name": "tokenId",
          "type": "uint256"
        }
      ],
      "name": "Approval",
      "type": "event"
    },
    {
      "anonymous": false,
      "inputs": [
        {
          "indexed": true,
          "internalType": "address",
          "name": "owner",
          "type": "address"
        },
        {
          "indexed": true,
          "internalType": "address",
          "name": "operator",
          "type": "address"
        },
        {
          "indexed": false,
          "internalType": "bool",
          "name": "approved",
          "type": "bool"
        }
      ],
      "name": "ApprovalForAll",
      "type": "event"
    },
    {
      "anonymous": false,
      "inputs": [
        {
          "indexed": true,
          "internalType": "address",
          "name": "beacon",
          "type": "address"
        }
      ],
      "name": "BeaconUpgraded",
      "type": "event"
    },
    {
      "anonymous": false,
      "inputs": [
        {
          "indexed": false,
          "internalType": "uint8",
          "name": "version",
          "type": "uint8"
        }
      ],
      "name": "Initialized",
      "type": "event"
    },
    {
      "anonymous": false,
      "inputs": [
        {
          "indexed": true,
          "internalType": "bytes32",
          "name": "role",
          "type": "bytes32"
        },
        {
          "indexed": true,
          "internalType": "bytes32",
          "name": "previousAdminRole",
          "type": "bytes32"
        },
        {
          "indexed": true,
          "internalType": "bytes32",
          "name": "newAdminRole",
          "type": "bytes32"
        }
      ],
      "name": "RoleAdminChanged",
      "type": "event"
    },
    {
      "anonymous": false,
      "inputs": [
        {
          "indexed": true,
          "internalType": "bytes32",
          "name": "role",
          "type": "bytes32"
        },
        {
          "indexed": true,
          "internalType": "address",
          "name": "account",
          "type": "address"
        },
        {
          "indexed": true,
          "internalType": "address",
          "name": "sender",
          "type": "address"
        }
      ],
      "name": "RoleGranted",
      "type": "event"
    },
    {
      "anonymous": false,
      "inputs": [
        {
          "indexed": true,
          "internalType": "bytes32",
          "name": "role",
          "type": "bytes32"
        },
        {
          "indexed": true,
          "internalType": "address",
          "name": "account",
          "type": "address"
        },
        {
          "indexed": true,
          "internalType": "address",
          "name": "sender",
          "type": "address"
        }
      ],
      "name": "RoleRevoked",
      "type": "event"
    },
    {
      "anonymous": false,
      "inputs": [
        {
          "indexed": true,
          "internalType": "address",
          "name": "from",
          "type": "address"
        },
        {
          "indexed": true,
          "internalType": "address",
          "name": "to",
          "type": "address"
        },
        {
          "indexed": true,
          "internalType": "uint256",
          "name": "tokenId",
          "type": "uint256"
        }
      ],
      "name": "Transfer",
      "type": "event"
    },
    {
      "anonymous": false,
      "inputs": [
        {
          "indexed": true,
          "internalType": "address",
          "name": "implementation",
          "type": "address"
        }
      ],
      "name": "Upgraded",
      "type": "event"
    },
    {
      "inputs": [],
      "name": "DEFAULT_ADMIN_ROLE",
      "outputs": [
        {
          "internalType": "bytes32",
          "name": "",
          "type": "bytes32"
        }
      ],
      "stateMutability": "view",
      "type": "function"
    },
    {
      "inputs": [],
      "name": "DESIGNER_ROLE",
      "outputs": [
        {
          "internalType": "bytes32",
          "name": "",
          "type": "bytes32"
        }
      ],
      "stateMutability": "view",
      "type": "function"
    },
    {
      "inputs": [],
      "name": "UPGRADER_ROLE",
      "outputs": [
        {
          "internalType": "bytes32",
          "name": "",
          "type": "bytes32"
        }
      ],
      "stateMutability": "view",
      "type": "function"
    },
    {
      "inputs": [
        {
          "internalType": "address",
          "name": "to",
          "type": "address"
        },
        {
          "internalType": "uint256",
          "name": "tokenId",
          "type": "uint256"
        }
      ],
      "name": "approve",
      "outputs": [],
      "stateMutability": "nonpayable",
      "type": "function"
    },
    {
      "inputs": [
        {
          "internalType": "address",
          "name": "owner",
          "type": "address"
        }
      ],
      "name": "balanceOf",
      "outputs": [
        {
          "internalType": "uint256",
          "name": "",
          "type": "uint256"
        }
      ],
      "stateMutability": "view",
      "type": "function"
    },
    {
      "inputs": [
        {
          "internalType": "uint256",
          "name": "tokenId",
          "type": "uint256"
        }
      ],
      "name": "getApproved",
      "outputs": [
        {
          "internalType": "address",
          "name": "",
          "type": "address"
        }
      ],
      "stateMutability": "view",
      "type": "function"
    },
    {
      "inputs": [
        {
          "internalType": "bytes32",
          "name": "role",
          "type": "bytes32"
        }
      ],
      "name": "getRoleAdmin",
      "outputs": [
        {
          "internalType": "bytes32",
          "name": "",
          "type": "bytes32"
        }
      ],
      "stateMutability": "view",
      "type": "function"
    },
    {
      "inputs": [
        {
          "internalType": "bytes32",
          "name": "role",
          "type": "bytes32"
        },
        {
          "internalType": "address",
          "name": "account",
          "type": "address"
        }
      ],
      "name": "grantRole",
      "outputs": [],
      "stateMutability": "nonpayable",
      "type": "function"
    },
    {
      "inputs": [
        {
          "internalType": "bytes32",
          "name": "role",
          "type": "bytes32"
        },
        {
          "internalType": "address",
          "name": "account",
          "type": "address"
        }
      ],
      "name": "hasRole",
      "outputs": [
        {
          "internalType": "bool",
          "name": "",
          "type": "bool"
        }
      ],
      "stateMutability": "view",
      "type": "function"
    },
    {
      "inputs": [],
      "name": "initialize",
      "outputs": [],
      "stateMutability": "nonpayable",
      "type": "function"
    },
    {
      "inputs": [
        {
          "internalType": "address",
          "name": "owner",
          "type": "address"
        },
        {
          "internalType": "address",
          "name": "operator",
          "type": "address"
        }
      ],
      "name": "isApprovedForAll",
      "outputs": [
        {
          "internalType": "bool",
          "name": "",
          "type": "bool"
        }
      ],
      "stateMutability": "view",
      "type": "function"
    },
    {
      "inputs": [
        {
          "internalType": "address",
          "name": "recipient",
          "type": "address"
        },
        {
          "internalType": "string",
          "name": "_SBTname",
          "type": "string"
        }
      ],
      "name": "mintSBT",
      "outputs": [
        {
          "internalType": "uint256",
          "name": "",
          "type": "uint256"
        }
      ],
      "stateMutability": "nonpayable",
      "type": "function"
    },
    {
      "inputs": [],
      "name": "name",
      "outputs": [
        {
          "internalType": "string",
          "name": "",
          "type": "string"
        }
      ],
      "stateMutability": "view",
      "type": "function"
    },
    {
      "inputs": [
        {
          "internalType": "uint256",
          "name": "tokenId",
          "type": "uint256"
        }
      ],
      "name": "ownerOf",
      "outputs": [
        {
          "internalType": "address",
          "name": "",
          "type": "address"
        }
      ],
      "stateMutability": "view",
      "type": "function"
    },
    {
      "inputs": [],
      "name": "proxiableUUID",
      "outputs": [
        {
          "internalType": "bytes32",
          "name": "",
          "type": "bytes32"
        }
      ],
      "stateMutability": "view",
      "type": "function"
    },
    {
      "inputs": [
        {
          "internalType": "bytes32",
          "name": "role",
          "type": "bytes32"
        },
        {
          "internalType": "address",
          "name": "account",
          "type": "address"
        }
      ],
      "name": "renounceRole",
      "outputs": [],
      "stateMutability": "nonpayable",
      "type": "function"
    },
    {
      "inputs": [
        {
          "internalType": "bytes32",
          "name": "role",
          "type": "bytes32"
        },
        {
          "internalType": "address",
          "name": "account",
          "type": "address"
        }
      ],
      "name": "revokeRole",
      "outputs": [],
      "stateMutability": "nonpayable",
      "type": "function"
    },
    {
      "inputs": [
        {
          "internalType": "address",
          "name": "from",
          "type": "address"
        },
        {
          "internalType": "address",
          "name": "to",
          "type": "address"
        },
        {
          "internalType": "uint256",
          "name": "tokenId",
          "type": "uint256"
        }
      ],
      "name": "safeTransferFrom",
      "outputs": [],
      "stateMutability": "nonpayable",
      "type": "function"
    },
    {
      "inputs": [
        {
          "internalType": "address",
          "name": "from",
          "type": "address"
        },
        {
          "internalType": "address",
          "name": "to",
          "type": "address"
        },
        {
          "internalType": "uint256",
          "name": "tokenId",
          "type": "uint256"
        },
        {
          "internalType": "bytes",
          "name": "data",
          "type": "bytes"
        }
      ],
      "name": "safeTransferFrom",
      "outputs": [],
      "stateMutability": "nonpayable",
      "type": "function"
    },
    {
      "inputs": [
        {
          "internalType": "address",
          "name": "operator",
          "type": "address"
        },
        {
          "internalType": "bool",
          "name": "approved",
          "type": "bool"
        }
      ],
      "name": "setApprovalForAll",
      "outputs": [],
      "stateMutability": "nonpayable",
      "type": "function"
    },
    {
      "inputs": [
        {
          "internalType": "bytes4",
          "name": "interfaceId",
          "type": "bytes4"
        }
      ],
      "name": "supportsInterface",
      "outputs": [
        {
          "internalType": "bool",
          "name": "",
          "type": "bool"
        }
      ],
      "stateMutability": "view",
      "type": "function"
    },
    {
      "inputs": [],
      "name": "symbol",
      "outputs": [
        {
          "internalType": "string",
          "name": "",
          "type": "string"
        }
      ],
      "stateMutability": "view",
      "type": "function"
    },
    {
      "inputs": [
        {
          "internalType": "uint256",
          "name": "",
          "type": "uint256"
        }
      ],
      "name": "tokenNames",
      "outputs": [
        {
          "internalType": "string",
          "name": "",
          "type": "string"
        }
      ],
      "stateMutability": "view",
      "type": "function"
    },
    {
      "inputs": [
        {
          "internalType": "uint256",
          "name": "tokenId",
          "type": "uint256"
        }
      ],
      "name": "tokenURI",
      "outputs": [
        {
          "internalType": "string",
          "name": "",
          "type": "string"
        }
      ],
      "stateMutability": "view",
      "type": "function"
    },
    {
      "inputs": [
        {
          "internalType": "address",
          "name": "from",
          "type": "address"
        },
        {
          "internalType": "address",
          "name": "to",
          "type": "address"
        },
        {
          "internalType": "uint256",
          "name": "tokenId",
          "type": "uint256"
        }
      ],
      "name": "transferFrom",
      "outputs": [],
      "stateMutability": "nonpayable",
      "type": "function"
    },
    {
      "inputs": [
        {
          "internalType": "address",
          "name": "newImplementation",
          "type": "address"
        }
      ],
      "name": "upgradeTo",
      "outputs": [],
      "stateMutability": "nonpayable",
      "type": "function"
    },
    {
      "inputs": [
        {
          "internalType": "address",
          "name": "newImplementation",
          "type": "address"
        },
        {
          "internalType": "bytes",
          "name": "data",
          "type": "bytes"
        }
      ],
      "name": "upgradeToAndCall",
      "outputs": [],
      "stateMutability": "payable",
      "type": "function"
    }
  ],
  "bytecode": "0x60a06040523060805234801561001457600080fd5b50608051612e2061004c6000396000818161097b01528181610a1101528181610b3301528181610bc90152610cc00152612e206000f3fe6080604052600436106101ac5760003560e01c80636352211e116100ec578063a22cb4651161008a578063d547741f11610064578063d547741f146104cd578063df064ad8146104ed578063e985e9c514610521578063f72c0d8b1461056a57600080fd5b8063a22cb4651461046d578063b88d4fde1461048d578063c87b56dd146104ad57600080fd5b806391d14854116100c657806391d14854146103dd5780639373f9ac1461042357806395d89b4114610443578063a217fddf1461045857600080fd5b80636352211e1461038857806370a08231146103a85780638129fc1c146103c857600080fd5b80632f2ff15d116101595780633659cfe6116101335780633659cfe61461032057806342842e0e146103405780634f1ef2861461036057806352d1902d1461037357600080fd5b80632f2ff15d146102c0578063310495ab146102e057806336568abe1461030057600080fd5b8063095ea7b31161018a578063095ea7b31461024057806323b872dd14610262578063248a9ca31461028257600080fd5b806301ffc9a7146101b157806306fdde03146101e6578063081812fc14610208575b600080fd5b3480156101bd57600080fd5b506101d16101cc366004612756565b61059e565b60405190151581526020015b60405180910390f35b3480156101f257600080fd5b506101fb6105af565b6040516101dd91906127c3565b34801561021457600080fd5b506102286102233660046127d6565b610641565b6040516001600160a01b0390911681526020016101dd565b34801561024c57600080fd5b5061026061025b36600461280b565b610668565b005b34801561026e57600080fd5b5061026061027d366004612835565b61079e565b34801561028e57600080fd5b506102b261029d3660046127d6565b60009081526097602052604090206001015490565b6040519081526020016101dd565b3480156102cc57600080fd5b506102606102db366004612871565b610825565b3480156102ec57600080fd5b506101fb6102fb3660046127d6565b61084a565b34801561030c57600080fd5b5061026061031b366004612871565b6108e5565b34801561032c57600080fd5b5061026061033b36600461289d565b610971565b34801561034c57600080fd5b5061026061035b366004612835565b610b0e565b61026061036e366004612964565b610b29565b34801561037f57600080fd5b506102b2610cb3565b34801561039457600080fd5b506102286103a33660046127d6565b610d78565b3480156103b457600080fd5b506102b26103c336600461289d565b610ddd565b3480156103d457600080fd5b50610260610e77565b3480156103e957600080fd5b506101d16103f8366004612871565b60009182526097602090815260408084206001600160a01b0393909316845291905290205460ff1690565b34801561042f57600080fd5b506102b261043e3660046129b2565b611071565b34801561044f57600080fd5b506101fb6110e6565b34801561046457600080fd5b506102b2600081565b34801561047957600080fd5b50610260610488366004612a0a565b6110f5565b34801561049957600080fd5b506102606104a8366004612a46565b611100565b3480156104b957600080fd5b506101fb6104c83660046127d6565b61118e565b3480156104d957600080fd5b506102606104e8366004612871565b611202565b3480156104f957600080fd5b506102b27f22c69ab406805e70d07fb1a6502af760601d3b977beadb295a9d76d5852e16a381565b34801561052d57600080fd5b506101d161053c366004612aae565b6001600160a01b039182166000908152606a6020908152604080832093909416825291909152205460ff1690565b34801561057657600080fd5b506102b27f189ab7a9244df0848122154315af71fe140f3db0fe014031783b0946b8c9d2e381565b60006105a982611227565b92915050565b6060606580546105be90612ad8565b80601f01602080910402602001604051908101604052809291908181526020018280546105ea90612ad8565b80156106375780601f1061060c57610100808354040283529160200191610637565b820191906000526020600020905b81548152906001019060200180831161061a57829003601f168201915b5050505050905090565b600061064c8261127d565b506000908152606960205260409020546001600160a01b031690565b600061067382610d78565b9050806001600160a01b0316836001600160a01b0316036107015760405162461bcd60e51b815260206004820152602160248201527f4552433732313a20617070726f76616c20746f2063757272656e74206f776e6560448201527f720000000000000000000000000000000000000000000000000000000000000060648201526084015b60405180910390fd5b336001600160a01b038216148061071d575061071d813361053c565b61078f5760405162461bcd60e51b815260206004820152603d60248201527f4552433732313a20617070726f76652063616c6c6572206973206e6f7420746f60448201527f6b656e206f776e6572206f7220617070726f76656420666f7220616c6c00000060648201526084016106f8565b61079983836112e1565b505050565b6107a8338261135c565b61081a5760405162461bcd60e51b815260206004820152602d60248201527f4552433732313a2063616c6c6572206973206e6f7420746f6b656e206f776e6560448201527f72206f7220617070726f7665640000000000000000000000000000000000000060648201526084016106f8565b6107998383836113db565b6000828152609760205260409020600101546108408161161e565b6107998383611628565b61012e602052600090815260409020805461086490612ad8565b80601f016020809104026020016040519081016040528092919081815260200182805461089090612ad8565b80156108dd5780601f106108b2576101008083540402835291602001916108dd565b820191906000526020600020905b8154815290600101906020018083116108c057829003601f168201915b505050505081565b6001600160a01b03811633146109635760405162461bcd60e51b815260206004820152602f60248201527f416363657373436f6e74726f6c3a2063616e206f6e6c792072656e6f756e636560448201527f20726f6c657320666f722073656c66000000000000000000000000000000000060648201526084016106f8565b61096d82826116ca565b5050565b6001600160a01b037f0000000000000000000000000000000000000000000000000000000000000000163003610a0f5760405162461bcd60e51b815260206004820152602c60248201527f46756e6374696f6e206d7573742062652063616c6c6564207468726f7567682060448201527f64656c656761746563616c6c000000000000000000000000000000000000000060648201526084016106f8565b7f00000000000000000000000000000000000000000000000000000000000000006001600160a01b0316610a6a7f360894a13ba1a3210667c828492db98dca3e2076cc3735a920a3ca505d382bbc546001600160a01b031690565b6001600160a01b031614610ae65760405162461bcd60e51b815260206004820152602c60248201527f46756e6374696f6e206d7573742062652063616c6c6564207468726f7567682060448201527f6163746976652070726f7879000000000000000000000000000000000000000060648201526084016106f8565b610aef8161174d565b60408051600080825260208201909252610b0b91839190611777565b50565b61079983838360405180602001604052806000815250611100565b6001600160a01b037f0000000000000000000000000000000000000000000000000000000000000000163003610bc75760405162461bcd60e51b815260206004820152602c60248201527f46756e6374696f6e206d7573742062652063616c6c6564207468726f7567682060448201527f64656c656761746563616c6c000000000000000000000000000000000000000060648201526084016106f8565b7f00000000000000000000000000000000000000000000000000000000000000006001600160a01b0316610c227f360894a13ba1a3210667c828492db98dca3e2076cc3735a920a3ca505d382bbc546001600160a01b031690565b6001600160a01b031614610c9e5760405162461bcd60e51b815260206004820152602c60248201527f46756e6374696f6e206d7573742062652063616c6c6564207468726f7567682060448201527f6163746976652070726f7879000000000000000000000000000000000000000060648201526084016106f8565b610ca78261174d565b61096d82826001611777565b6000306001600160a01b037f00000000000000000000000000000000000000000000000000000000000000001614610d535760405162461bcd60e51b815260206004820152603860248201527f555550535570677261646561626c653a206d757374206e6f742062652063616c60448201527f6c6564207468726f7567682064656c656761746563616c6c000000000000000060648201526084016106f8565b507f360894a13ba1a3210667c828492db98dca3e2076cc3735a920a3ca505d382bbc90565b6000818152606760205260408120546001600160a01b0316806105a95760405162461bcd60e51b815260206004820152601860248201527f4552433732313a20696e76616c696420746f6b656e204944000000000000000060448201526064016106f8565b60006001600160a01b038216610e5b5760405162461bcd60e51b815260206004820152602960248201527f4552433732313a2061646472657373207a65726f206973206e6f74206120766160448201527f6c6964206f776e6572000000000000000000000000000000000000000000000060648201526084016106f8565b506001600160a01b031660009081526068602052604090205490565b600054610100900460ff1615808015610e975750600054600160ff909116105b80610eb15750303b158015610eb1575060005460ff166001145b610f235760405162461bcd60e51b815260206004820152602e60248201527f496e697469616c697a61626c653a20636f6e747261637420697320616c72656160448201527f647920696e697469616c697a656400000000000000000000000000000000000060648201526084016106f8565b6000805460ff191660011790558015610f46576000805461ff0019166101001790555b610fba6040518060400160405280601481526020017f426f6d622043727970746f204368616d70696f6e0000000000000000000000008152506040518060400160405280600381526020017f4243430000000000000000000000000000000000000000000000000000000000815250611917565b610fc261199e565b610fca61199e565b610fd5600033611628565b610fff7f189ab7a9244df0848122154315af71fe140f3db0fe014031783b0946b8c9d2e333611628565b6110297f22c69ab406805e70d07fb1a6502af760601d3b977beadb295a9d76d5852e16a333611628565b8015610b0b576000805461ff0019169055604051600181527f7f26b83ff96e1f2b6a682f133852f6798a09c465da95921460cefb38474024989060200160405180910390a150565b60007f22c69ab406805e70d07fb1a6502af760601d3b977beadb295a9d76d5852e16a361109d8161161e565b6110ac61012d80546001019055565b60006110b861012d5490565b90506110c48582611a1d565b600081815261012e602052604090206110dd8582612b62565b50949350505050565b6060606680546105be90612ad8565b61096d338383611bc3565b61110a338361135c565b61117c5760405162461bcd60e51b815260206004820152602d60248201527f4552433732313a2063616c6c6572206973206e6f7420746f6b656e206f776e6560448201527f72206f7220617070726f7665640000000000000000000000000000000000000060648201526084016106f8565b61118884848484611c91565b50505050565b60606111998261127d565b60006111b060408051602081019091526000815290565b905060008151116111d057604051806020016040528060008152506111fb565b806111da84611d1a565b6040516020016111eb929190612c22565b6040516020818303038152906040525b9392505050565b60008281526097602052604090206001015461121d8161161e565b61079983836116ca565b60007fffffffff0000000000000000000000000000000000000000000000000000000082167f7965db0b0000000000000000000000000000000000000000000000000000000014806105a957506105a982611dba565b6000818152606760205260409020546001600160a01b0316610b0b5760405162461bcd60e51b815260206004820152601860248201527f4552433732313a20696e76616c696420746f6b656e204944000000000000000060448201526064016106f8565b6000818152606960205260409020805473ffffffffffffffffffffffffffffffffffffffff19166001600160a01b038416908117909155819061132382610d78565b6001600160a01b03167f8c5be1e5ebec7d5bd14f71427d1e84f3dd0314c0f7b2291e5b200ac8c7c3b92560405160405180910390a45050565b60008061136883610d78565b9050806001600160a01b0316846001600160a01b031614806113af57506001600160a01b038082166000908152606a602090815260408083209388168352929052205460ff165b806113d35750836001600160a01b03166113c884610641565b6001600160a01b0316145b949350505050565b826001600160a01b03166113ee82610d78565b6001600160a01b03161461146a5760405162461bcd60e51b815260206004820152602560248201527f4552433732313a207472616e736665722066726f6d20696e636f72726563742060448201527f6f776e657200000000000000000000000000000000000000000000000000000060648201526084016106f8565b6001600160a01b0382166114e55760405162461bcd60e51b8152602060048201526024808201527f4552433732313a207472616e7366657220746f20746865207a65726f2061646460448201527f726573730000000000000000000000000000000000000000000000000000000060648201526084016106f8565b6114f28383836001611e9d565b826001600160a01b031661150582610d78565b6001600160a01b0316146115815760405162461bcd60e51b815260206004820152602560248201527f4552433732313a207472616e736665722066726f6d20696e636f72726563742060448201527f6f776e657200000000000000000000000000000000000000000000000000000060648201526084016106f8565b6000818152606960209081526040808320805473ffffffffffffffffffffffffffffffffffffffff199081169091556001600160a01b0387811680865260688552838620805460001901905590871680865283862080546001019055868652606790945282852080549092168417909155905184937fddf252ad1be2c89b69c2b068fc378daa952ba7f163c4a11628f55a4df523b3ef91a4505050565b610b0b8133611ef9565b60008281526097602090815260408083206001600160a01b038516845290915290205460ff1661096d5760008281526097602090815260408083206001600160a01b03851684529091529020805460ff191660011790556116863390565b6001600160a01b0316816001600160a01b0316837f2f8788117e7eff1d82e926ec794901d17c78024a50270940304540a733656f0d60405160405180910390a45050565b60008281526097602090815260408083206001600160a01b038516845290915290205460ff161561096d5760008281526097602090815260408083206001600160a01b0385168085529252808320805460ff1916905551339285917ff6391f5c32d9c69d2a47ea670b442974b53935d1edc7fd64eb21e047a839171b9190a45050565b7f189ab7a9244df0848122154315af71fe140f3db0fe014031783b0946b8c9d2e361096d8161161e565b7f4910fdfa16fed3260ed0e7147f7cc6da11a60208b5b9406d12a635614ffd91435460ff16156117aa5761079983611f6e565b826001600160a01b03166352d1902d6040518163ffffffff1660e01b8152600401602060405180830381865afa925050508015611804575060408051601f3d908101601f1916820190925261180191810190612c51565b60015b6118765760405162461bcd60e51b815260206004820152602e60248201527f45524331393637557067726164653a206e657720696d706c656d656e7461746960448201527f6f6e206973206e6f74205555505300000000000000000000000000000000000060648201526084016106f8565b7f360894a13ba1a3210667c828492db98dca3e2076cc3735a920a3ca505d382bbc811461190b5760405162461bcd60e51b815260206004820152602960248201527f45524331393637557067726164653a20756e737570706f727465642070726f7860448201527f6961626c6555554944000000000000000000000000000000000000000000000060648201526084016106f8565b50610799838383612039565b600054610100900460ff166119945760405162461bcd60e51b815260206004820152602b60248201527f496e697469616c697a61626c653a20636f6e7472616374206973206e6f74206960448201527f6e697469616c697a696e6700000000000000000000000000000000000000000060648201526084016106f8565b61096d828261205e565b600054610100900460ff16611a1b5760405162461bcd60e51b815260206004820152602b60248201527f496e697469616c697a61626c653a20636f6e7472616374206973206e6f74206960448201527f6e697469616c697a696e6700000000000000000000000000000000000000000060648201526084016106f8565b565b6001600160a01b038216611a735760405162461bcd60e51b815260206004820181905260248201527f4552433732313a206d696e7420746f20746865207a65726f206164647265737360448201526064016106f8565b6000818152606760205260409020546001600160a01b031615611ad85760405162461bcd60e51b815260206004820152601c60248201527f4552433732313a20746f6b656e20616c7265616479206d696e7465640000000060448201526064016106f8565b611ae6600083836001611e9d565b6000818152606760205260409020546001600160a01b031615611b4b5760405162461bcd60e51b815260206004820152601c60248201527f4552433732313a20746f6b656e20616c7265616479206d696e7465640000000060448201526064016106f8565b6001600160a01b0382166000818152606860209081526040808320805460010190558483526067909152808220805473ffffffffffffffffffffffffffffffffffffffff19168417905551839291907fddf252ad1be2c89b69c2b068fc378daa952ba7f163c4a11628f55a4df523b3ef908290a45050565b816001600160a01b0316836001600160a01b031603611c245760405162461bcd60e51b815260206004820152601960248201527f4552433732313a20617070726f766520746f2063616c6c65720000000000000060448201526064016106f8565b6001600160a01b038381166000818152606a6020908152604080832094871680845294825291829020805460ff191686151590811790915591519182527f17307eab39ab6107e8899845ad3d59bd9653f200f220920489ca2b5937696c31910160405180910390a3505050565b611c9c8484846113db565b611ca8848484846120f4565b6111885760405162461bcd60e51b815260206004820152603260248201527f4552433732313a207472616e7366657220746f206e6f6e20455243373231526560448201527f63656976657220696d706c656d656e746572000000000000000000000000000060648201526084016106f8565b60606000611d2783612295565b600101905060008167ffffffffffffffff811115611d4757611d476128b8565b6040519080825280601f01601f191660200182016040528015611d71576020820181803683370190505b5090508181016020015b600019017f3031323334353637383961626364656600000000000000000000000000000000600a86061a8153600a8504945084611d7b57509392505050565b60007fffffffff0000000000000000000000000000000000000000000000000000000082167f80ac58cd000000000000000000000000000000000000000000000000000000001480611e4d57507fffffffff0000000000000000000000000000000000000000000000000000000082167f5b5e139f00000000000000000000000000000000000000000000000000000000145b806105a957507f01ffc9a7000000000000000000000000000000000000000000000000000000007fffffffff000000000000000000000000000000000000000000000000000000008316146105a9565b6001600160a01b03841615611ef45760405162461bcd60e51b815260206004820152601960248201527f546f6b656e206973206e6f74207472616e7366657261626c650000000000000060448201526064016106f8565b611188565b60008281526097602090815260408083206001600160a01b038516845290915290205460ff1661096d57611f2c81612377565b611f37836020612389565b604051602001611f48929190612c6a565b60408051601f198184030181529082905262461bcd60e51b82526106f8916004016127c3565b6001600160a01b0381163b611feb5760405162461bcd60e51b815260206004820152602d60248201527f455243313936373a206e657720696d706c656d656e746174696f6e206973206e60448201527f6f74206120636f6e74726163740000000000000000000000000000000000000060648201526084016106f8565b7f360894a13ba1a3210667c828492db98dca3e2076cc3735a920a3ca505d382bbc805473ffffffffffffffffffffffffffffffffffffffff19166001600160a01b0392909216919091179055565b612042836125b2565b60008251118061204f5750805b156107995761118883836125f2565b600054610100900460ff166120db5760405162461bcd60e51b815260206004820152602b60248201527f496e697469616c697a61626c653a20636f6e7472616374206973206e6f74206960448201527f6e697469616c697a696e6700000000000000000000000000000000000000000060648201526084016106f8565b60656120e78382612b62565b5060666107998282612b62565b60006001600160a01b0384163b1561228a576040517f150b7a020000000000000000000000000000000000000000000000000000000081526001600160a01b0385169063150b7a0290612151903390899088908890600401612ceb565b6020604051808303816000875af192505050801561218c575060408051601f3d908101601f1916820190925261218991810190612d1d565b60015b61223f573d8080156121ba576040519150601f19603f3d011682016040523d82523d6000602084013e6121bf565b606091505b5080516000036122375760405162461bcd60e51b815260206004820152603260248201527f4552433732313a207472616e7366657220746f206e6f6e20455243373231526560448201527f63656976657220696d706c656d656e746572000000000000000000000000000060648201526084016106f8565b805181602001fd5b7fffffffff00000000000000000000000000000000000000000000000000000000167f150b7a02000000000000000000000000000000000000000000000000000000001490506113d3565b506001949350505050565b6000807a184f03e93ff9f4daa797ed6e38ed64bf6a1f01000000000000000083106122de577a184f03e93ff9f4daa797ed6e38ed64bf6a1f010000000000000000830492506040015b6d04ee2d6d415b85acef8100000000831061230a576d04ee2d6d415b85acef8100000000830492506020015b662386f26fc10000831061232857662386f26fc10000830492506010015b6305f5e1008310612340576305f5e100830492506008015b612710831061235457612710830492506004015b60648310612366576064830492506002015b600a83106105a95760010192915050565b60606105a96001600160a01b03831660145b60606000612398836002612d50565b6123a3906002612d67565b67ffffffffffffffff8111156123bb576123bb6128b8565b6040519080825280601f01601f1916602001820160405280156123e5576020820181803683370190505b5090507f30000000000000000000000000000000000000000000000000000000000000008160008151811061241c5761241c612d7a565b60200101907effffffffffffffffffffffffffffffffffffffffffffffffffffffffffffff1916908160001a9053507f78000000000000000000000000000000000000000000000000000000000000008160018151811061247f5761247f612d7a565b60200101907effffffffffffffffffffffffffffffffffffffffffffffffffffffffffffff1916908160001a90535060006124bb846002612d50565b6124c6906001612d67565b90505b6001811115612563577f303132333435363738396162636465660000000000000000000000000000000085600f166010811061250757612507612d7a565b1a60f81b82828151811061251d5761251d612d7a565b60200101907effffffffffffffffffffffffffffffffffffffffffffffffffffffffffffff1916908160001a90535060049490941c9361255c81612d90565b90506124c9565b5083156111fb5760405162461bcd60e51b815260206004820181905260248201527f537472696e67733a20686578206c656e67746820696e73756666696369656e7460448201526064016106f8565b6125bb81611f6e565b6040516001600160a01b038216907fbc7cd75a20ee27fd9adebab32041f755214dbc6bffa90cc0225b39da2e5c2d3b90600090a250565b60606111fb8383604051806060016040528060278152602001612dc4602791396060600080856001600160a01b03168560405161262f9190612da7565b600060405180830381855af49150503d806000811461266a576040519150601f19603f3d011682016040523d82523d6000602084013e61266f565b606091505b50915091506126808683838761268a565b9695505050505050565b606083156126f95782516000036126f2576001600160a01b0385163b6126f25760405162461bcd60e51b815260206004820152601d60248201527f416464726573733a2063616c6c20746f206e6f6e2d636f6e747261637400000060448201526064016106f8565b50816113d3565b6113d3838381511561270e5781518083602001fd5b8060405162461bcd60e51b81526004016106f891906127c3565b7fffffffff0000000000000000000000000000000000000000000000000000000081168114610b0b57600080fd5b60006020828403121561276857600080fd5b81356111fb81612728565b60005b8381101561278e578181015183820152602001612776565b50506000910152565b600081518084526127af816020860160208601612773565b601f01601f19169290920160200192915050565b6020815260006111fb6020830184612797565b6000602082840312156127e857600080fd5b5035919050565b80356001600160a01b038116811461280657600080fd5b919050565b6000806040838503121561281e57600080fd5b612827836127ef565b946020939093013593505050565b60008060006060848603121561284a57600080fd5b612853846127ef565b9250612861602085016127ef565b9150604084013590509250925092565b6000806040838503121561288457600080fd5b82359150612894602084016127ef565b90509250929050565b6000602082840312156128af57600080fd5b6111fb826127ef565b634e487b7160e01b600052604160045260246000fd5b600067ffffffffffffffff808411156128e9576128e96128b8565b604051601f8501601f19908116603f01168101908282118183101715612911576129116128b8565b8160405280935085815286868601111561292a57600080fd5b858560208301376000602087830101525050509392505050565b600082601f83011261295557600080fd5b6111fb838335602085016128ce565b6000806040838503121561297757600080fd5b612980836127ef565b9150602083013567ffffffffffffffff81111561299c57600080fd5b6129a885828601612944565b9150509250929050565b600080604083850312156129c557600080fd5b6129ce836127ef565b9150602083013567ffffffffffffffff8111156129ea57600080fd5b8301601f810185136129fb57600080fd5b6129a8858235602084016128ce565b60008060408385031215612a1d57600080fd5b612a26836127ef565b915060208301358015158114612a3b57600080fd5b809150509250929050565b60008060008060808587031215612a5c57600080fd5b612a65856127ef565b9350612a73602086016127ef565b925060408501359150606085013567ffffffffffffffff811115612a9657600080fd5b612aa287828801612944565b91505092959194509250565b60008060408385031215612ac157600080fd5b612aca836127ef565b9150612894602084016127ef565b600181811c90821680612aec57607f821691505b602082108103612b0c57634e487b7160e01b600052602260045260246000fd5b50919050565b601f821115610799576000816000526020600020601f850160051c81016020861015612b3b5750805b601f850160051c820191505b81811015612b5a57828155600101612b47565b505050505050565b815167ffffffffffffffff811115612b7c57612b7c6128b8565b612b9081612b8a8454612ad8565b84612b12565b602080601f831160018114612bc55760008415612bad5750858301515b600019600386901b1c1916600185901b178555612b5a565b600085815260208120601f198616915b82811015612bf457888601518255948401946001909101908401612bd5565b5085821015612c125787850151600019600388901b60f8161c191681555b5050505050600190811b01905550565b60008351612c34818460208801612773565b835190830190612c48818360208801612773565b01949350505050565b600060208284031215612c6357600080fd5b5051919050565b7f416363657373436f6e74726f6c3a206163636f756e7420000000000000000000815260008351612ca2816017850160208801612773565b7f206973206d697373696e6720726f6c65200000000000000000000000000000006017918401918201528351612cdf816028840160208801612773565b01602801949350505050565b60006001600160a01b038087168352808616602084015250836040830152608060608301526126806080830184612797565b600060208284031215612d2f57600080fd5b81516111fb81612728565b634e487b7160e01b600052601160045260246000fd5b80820281158282048414176105a9576105a9612d3a565b808201808211156105a9576105a9612d3a565b634e487b7160e01b600052603260045260246000fd5b600081612d9f57612d9f612d3a565b506000190190565b60008251612db9818460208701612773565b919091019291505056fe416464726573733a206c6f772d6c6576656c2064656c65676174652063616c6c206661696c6564a2646970667358221220fdab18ec864e2b7c9ec1a1f033e81089106b6bb93cf9f51658d2d62f6d121f3d64736f6c63430008180033",
  "linkReferences": {},
  "deployedLinkReferences": {}
}