{
  "address": "0x09bB864e41aE7F097B7B91363d0408391eB48586",
  "abi": [
    {
      "inputs": [],
      "stateMutability": "nonpayable",
      "type": "constructor"
    },
    {
      "inputs": [
        {
          "internalType": "address",
          "name": "target",
          "type": "address"
        }
      ],
      "name": "AddressEmptyCode",
      "type": "error"
    },
    {
      "inputs": [
        {
          "internalType": "address",
          "name": "implementation",
          "type": "address"
        }
      ],
      "name": "ERC1967InvalidImplementation",
      "type": "error"
    },
    {
      "inputs": [],
      "name": "ERC1967NonPayable",
      "type": "error"
    },
    {
      "inputs": [],
      "name": "FailedCall",
      "type": "error"
    },
    {
      "inputs": [],
      "name": "InvalidInitialization",
      "type": "error"
    },
    {
      "inputs": [],
      "name": "NotInitializing",
      "type": "error"
    },
    {
      "inputs": [
        {
          "internalType": "address",
          "name": "owner",
          "type": "address"
        }
      ],
      "name": "OwnableInvalidOwner",
      "type": "error"
    },
    {
      "inputs": [
        {
          "internalType": "address",
          "name": "account",
          "type": "address"
        }
      ],
      "name": "OwnableUnauthorizedAccount",
      "type": "error"
    },
    {
      "inputs": [],
      "name": "UUPSUnauthorizedCallContext",
      "type": "error"
    },
    {
      "inputs": [
        {
          "internalType": "bytes32",
          "name": "slot",
          "type": "bytes32"
        }
      ],
      "name": "UUPSUnsupportedProxiableUUID",
      "type": "error"
    },
    {
      "anonymous": false,
      "inputs": [
        {
          "indexed": true,
          "internalType": "address",
          "name": "from",
          "type": "address"
        },
        {
          "indexed": false,
          "internalType": "uint256",
          "name": "amount",
          "type": "uint256"
        },
        {
          "indexed": false,
          "internalType": "string",
          "name": "invoice",
          "type": "string"
        }
      ],
      "name": "Deposited",
      "type": "event"
    },
    {
      "anonymous": false,
      "inputs": [
        {
          "indexed": false,
          "internalType": "uint64",
          "name": "version",
          "type": "uint64"
        }
      ],
      "name": "Initialized",
      "type": "event"
    },
    {
      "anonymous": false,
      "inputs": [
        {
          "indexed": true,
          "internalType": "address",
          "name": "previousOwner",
          "type": "address"
        },
        {
          "indexed": true,
          "internalType": "address",
          "name": "newOwner",
          "type": "address"
        }
      ],
      "name": "OwnershipTransferred",
      "type": "event"
    },
    {
      "anonymous": false,
      "inputs": [
        {
          "indexed": true,
          "internalType": "address",
          "name": "implementation",
          "type": "address"
        }
      ],
      "name": "Upgraded",
      "type": "event"
    },
    {
      "inputs": [],
      "name": "UPGRADE_INTERFACE_VERSION",
      "outputs": [
        {
          "internalType": "string",
          "name": "",
          "type": "string"
        }
      ],
      "stateMutability": "view",
      "type": "function"
    },
    {
      "inputs": [
        {
          "internalType": "string",
          "name": "invoice",
          "type": "string"
        }
      ],
      "name": "deposit",
      "outputs": [],
      "stateMutability": "payable",
      "type": "function"
    },
    {
      "inputs": [],
      "name": "initialize",
      "outputs": [],
      "stateMutability": "nonpayable",
      "type": "function"
    },
    {
      "inputs": [],
      "name": "owner",
      "outputs": [
        {
          "internalType": "address",
          "name": "",
          "type": "address"
        }
      ],
      "stateMutability": "view",
      "type": "function"
    },
    {
      "inputs": [],
      "name": "proxiableUUID",
      "outputs": [
        {
          "internalType": "bytes32",
          "name": "",
          "type": "bytes32"
        }
      ],
      "stateMutability": "view",
      "type": "function"
    },
    {
      "inputs": [],
      "name": "renounceOwnership",
      "outputs": [],
      "stateMutability": "nonpayable",
      "type": "function"
    },
    {
      "inputs": [
        {
          "internalType": "address",
          "name": "newOwner",
          "type": "address"
        }
      ],
      "name": "transferOwnership",
      "outputs": [],
      "stateMutability": "nonpayable",
      "type": "function"
    },
    {
      "inputs": [
        {
          "internalType": "address",
          "name": "newImplementation",
          "type": "address"
        },
        {
          "internalType": "bytes",
          "name": "data",
          "type": "bytes"
        }
      ],
      "name": "upgradeToAndCall",
      "outputs": [],
      "stateMutability": "payable",
      "type": "function"
    },
    {
      "inputs": [],
      "name": "withdraw",
      "outputs": [],
      "stateMutability": "nonpayable",
      "type": "function"
    },
    {
      "stateMutability": "payable",
      "type": "receive"
    }
  ],
  "transactionHash": "0x2b0f661f88f7175df3f1fe662493ffef8643c2de8bb9c8d57f44238e1c3db618",
  "args": [],
  "numDeployments": 5,
  "solcInputHash": "13c571726569aa111c7278ae5c2016f2",
  "bytecode": "0x60a06040523060805234801561001457600080fd5b5061001d610022565b6100d4565b7ff0c57e16840df040f15088dc2f81fe391c3923bec73e23a9662efc9c229c6a00805468010000000000000000900460ff16156100725760405163f92ee8a960e01b815260040160405180910390fd5b80546001600160401b03908116146100d15780546001600160401b0319166001600160401b0390811782556040519081527fc7f505b2f371ae2175ee4913f4499e1f2633a7b5936321eed1cdaeb6115181d29060200160405180910390a15b50565b608051610c8d6100fd60003960008181610594015281816105bd01526107030152610c8d6000f3fe60806040526004361061008a5760003560e01c80638129fc1c116100595780638129fc1c1461013f5780638da5cb5b14610154578063a26e118614610181578063ad3cb1cc14610194578063f2fde38b146101d257600080fd5b80633ccfd60b146100d85780634f1ef286146100ef57806352d1902d14610102578063715018a61461012a57600080fd5b366100d35760405162461bcd60e51b81526020600482015260146024820152732ab9b2903232b837b9b4ba10333ab731ba34b7b760611b60448201526064015b60405180910390fd5b600080fd5b3480156100e457600080fd5b506100ed6101f2565b005b6100ed6100fd366004610a26565b6102e1565b34801561010e57600080fd5b506101176102fc565b6040519081526020015b60405180910390f35b34801561013657600080fd5b506100ed610319565b34801561014b57600080fd5b506100ed61032d565b34801561016057600080fd5b50610169610444565b6040516001600160a01b039091168152602001610121565b6100ed61018f366004610ae8565b610472565b3480156101a057600080fd5b506101c5604051806040016040528060058152602001640352e302e360dc1b81525081565b6040516101219190610b7e565b3480156101de57600080fd5b506100ed6101ed366004610bb1565b610519565b6101fa610557565b478061023f5760405162461bcd60e51b81526020600482015260146024820152734e6f2066756e647320746f20776974686472617760601b60448201526064016100ca565b6000610249610444565b6001600160a01b03168260405160006040518083038185875af1925050503d8060008114610293576040519150601f19603f3d011682016040523d82523d6000602084013e610298565b606091505b50509050806102dd5760405162461bcd60e51b815260206004820152601160248201527015da5d1a191c985dd85b0819985a5b1959607a1b60448201526064016100ca565b5050565b6102e9610589565b6102f28261062e565b6102dd8282610636565b60006103066106f8565b50600080516020610c3883398151915290565b610321610557565b61032b6000610741565b565b7ff0c57e16840df040f15088dc2f81fe391c3923bec73e23a9662efc9c229c6a008054600160401b810460ff16159067ffffffffffffffff166000811580156103735750825b905060008267ffffffffffffffff1660011480156103905750303b155b90508115801561039e575080155b156103bc5760405163f92ee8a960e01b815260040160405180910390fd5b845467ffffffffffffffff1916600117855583156103e657845460ff60401b1916600160401b1785555b6103ef336107b2565b6103f76107c3565b831561043d57845460ff60401b19168555604051600181527fc7f505b2f371ae2175ee4913f4499e1f2633a7b5936321eed1cdaeb6115181d29060200160405180910390a15b5050505050565b7f9016d09d72d40fdae2fd8ceac6b6234c7706214fd39c1cd1e609a0528c199300546001600160a01b031690565b600034116104d05760405162461bcd60e51b815260206004820152602560248201527f4465706f73697420616d6f756e74206d75737420626520677265617465722074604482015264068616e20360dc1b60648201526084016100ca565b336001600160a01b03167f6f85d9948d6ca3dd6ce6ce7d175da22b4e865827ae6fcd530ec7edac1240f92834848460405161050d93929190610bcc565b60405180910390a25050565b610521610557565b6001600160a01b03811661054b57604051631e4fbdf760e01b8152600060048201526024016100ca565b61055481610741565b50565b33610560610444565b6001600160a01b03161461032b5760405163118cdaa760e01b81523360048201526024016100ca565b306001600160a01b037f000000000000000000000000000000000000000000000000000000000000000016148061061057507f00000000000000000000000000000000000000000000000000000000000000006001600160a01b0316610604600080516020610c38833981519152546001600160a01b031690565b6001600160a01b031614155b1561032b5760405163703e46dd60e11b815260040160405180910390fd5b610554610557565b816001600160a01b03166352d1902d6040518163ffffffff1660e01b8152600401602060405180830381865afa925050508015610690575060408051601f3d908101601f1916820190925261068d91810190610c02565b60015b6106b857604051634c9c8ce360e01b81526001600160a01b03831660048201526024016100ca565b600080516020610c3883398151915281146106e957604051632a87526960e21b8152600481018290526024016100ca565b6106f383836107cb565b505050565b306001600160a01b037f0000000000000000000000000000000000000000000000000000000000000000161461032b5760405163703e46dd60e11b815260040160405180910390fd5b7f9016d09d72d40fdae2fd8ceac6b6234c7706214fd39c1cd1e609a0528c19930080546001600160a01b031981166001600160a01b03848116918217845560405192169182907f8be0079c531659141344cd1fd0a4f28419497f9722a3daafe3b4186f6b6457e090600090a3505050565b6107ba610821565b6105548161086a565b61032b610821565b6107d482610872565b6040516001600160a01b038316907fbc7cd75a20ee27fd9adebab32041f755214dbc6bffa90cc0225b39da2e5c2d3b90600090a2805115610819576106f382826108d7565b6102dd61094d565b7ff0c57e16840df040f15088dc2f81fe391c3923bec73e23a9662efc9c229c6a0054600160401b900460ff1661032b57604051631afcd79f60e31b815260040160405180910390fd5b610521610821565b806001600160a01b03163b6000036108a857604051634c9c8ce360e01b81526001600160a01b03821660048201526024016100ca565b600080516020610c3883398151915280546001600160a01b0319166001600160a01b0392909216919091179055565b6060600080846001600160a01b0316846040516108f49190610c1b565b600060405180830381855af49150503d806000811461092f576040519150601f19603f3d011682016040523d82523d6000602084013e610934565b606091505b509150915061094485838361096c565b95945050505050565b341561032b5760405163b398979f60e01b815260040160405180910390fd5b6060826109815761097c826109cb565b6109c4565b815115801561099857506001600160a01b0384163b155b156109c157604051639996b31560e01b81526001600160a01b03851660048201526024016100ca565b50805b9392505050565b8051156109db5780518082602001fd5b60405163d6bda27560e01b815260040160405180910390fd5b80356001600160a01b0381168114610a0b57600080fd5b919050565b634e487b7160e01b600052604160045260246000fd5b60008060408385031215610a3957600080fd5b610a42836109f4565b9150602083013567ffffffffffffffff80821115610a5f57600080fd5b818501915085601f830112610a7357600080fd5b813581811115610a8557610a85610a10565b604051601f8201601f19908116603f01168101908382118183101715610aad57610aad610a10565b81604052828152886020848701011115610ac657600080fd5b8260208601602083013760006020848301015280955050505050509250929050565b60008060208385031215610afb57600080fd5b823567ffffffffffffffff80821115610b1357600080fd5b818501915085601f830112610b2757600080fd5b813581811115610b3657600080fd5b866020828501011115610b4857600080fd5b60209290920196919550909350505050565b60005b83811015610b75578181015183820152602001610b5d565b50506000910152565b6020815260008251806020840152610b9d816040850160208701610b5a565b601f01601f19169190910160400192915050565b600060208284031215610bc357600080fd5b6109c4826109f4565b83815260406020820152816040820152818360608301376000818301606090810191909152601f909201601f1916010192915050565b600060208284031215610c1457600080fd5b5051919050565b60008251610c2d818460208701610b5a565b919091019291505056fe360894a13ba1a3210667c828492db98dca3e2076cc3735a920a3ca505d382bbca264697066735822122058c4c897f8552a8da4d0eaf3ee98dd684037aafbd9e24f84220c565e5c1138d564736f6c63430008180033",
  "devdoc": {
    "errors": {
      "AddressEmptyCode(address)": [
        {
          "details": "There's no code at `target` (it is not a contract)."
        }
      ],
      "ERC1967InvalidImplementation(address)": [
        {
          "details": "The `implementation` of the proxy is invalid."
        }
      ],
      "ERC1967NonPayable()": [
        {
          "details": "An upgrade function sees `msg.value > 0` that may be lost."
        }
      ],
      "FailedCall()": [
        {
          "details": "A call to an address target failed. The target may have reverted."
        }
      ],
      "InvalidInitialization()": [
        {
          "details": "The contract is already initialized."
        }
      ],
      "NotInitializing()": [
        {
          "details": "The contract is not initializing."
        }
      ],
      "OwnableInvalidOwner(address)": [
        {
          "details": "The owner is not a valid owner account. (eg. `address(0)`)"
        }
      ],
      "OwnableUnauthorizedAccount(address)": [
        {
          "details": "The caller account is not authorized to perform an operation."
        }
      ],
      "UUPSUnauthorizedCallContext()": [
        {
          "details": "The call is from an unauthorized context."
        }
      ],
      "UUPSUnsupportedProxiableUUID(bytes32)": [
        {
          "details": "The storage `slot` is unsupported as a UUID."
        }
      ]
    },
    "events": {
      "Initialized(uint64)": {
        "details": "Triggered when the contract has been initialized or reinitialized."
      },
      "Upgraded(address)": {
        "details": "Emitted when the implementation is upgraded."
      }
    },
    "kind": "dev",
    "methods": {
      "constructor": {
        "custom:oz-upgrades-unsafe-allow": "constructor"
      },
      "owner()": {
        "details": "Returns the address of the current owner."
      },
      "proxiableUUID()": {
        "details": "Implementation of the ERC-1822 {proxiableUUID} function. This returns the storage slot used by the implementation. It is used to validate the implementation's compatibility when performing an upgrade. IMPORTANT: A proxy pointing at a proxiable contract should not be considered proxiable itself, because this risks bricking a proxy that upgrades to it, by delegating to itself until out of gas. Thus it is critical that this function revert if invoked through a proxy. This is guaranteed by the `notDelegated` modifier."
      },
      "renounceOwnership()": {
        "details": "Leaves the contract without owner. It will not be possible to call `onlyOwner` functions. Can only be called by the current owner. NOTE: Renouncing ownership will leave the contract without an owner, thereby disabling any functionality that is only available to the owner."
      },
      "transferOwnership(address)": {
        "details": "Transfers ownership of the contract to a new account (`newOwner`). Can only be called by the current owner."
      },
      "upgradeToAndCall(address,bytes)": {
        "custom:oz-upgrades-unsafe-allow-reachable": "delegatecall",
        "details": "Upgrade the implementation of the proxy to `newImplementation`, and subsequently execute the function call encoded in `data`. Calls {_authorizeUpgrade}. Emits an {Upgraded} event."
      }
    },
    "version": 1
  },
  "userdoc": {
    "kind": "user",
    "methods": {},
    "version": 1
  },
  "storageLayout": {
    "storage": [],
    "types": null
  }
}