{
  "_format": "hh-sol-artifact-1",
  "contractName": "BHeroClaim",
  "sourceName": "contracts/BHeroClaim.sol",
  "abi": [
    {
      "anonymous": false,
      "inputs": [
        {
          "indexed": false,
          "internalType": "address",
          "name": "previousAdmin",
          "type": "address"
        },
        {
          "indexed": false,
          "internalType": "address",
          "name": "newAdmin",
          "type": "address"
        }
      ],
      "name": "AdminChanged",
      "type": "event"
    },
    {
      "anonymous": false,
      "inputs": [
        {
          "indexed": true,
          "internalType": "address",
          "name": "beacon",
          "type": "address"
        }
      ],
      "name": "BeaconUpgraded",
      "type": "event"
    },
    {
      "anonymous": false,
      "inputs": [
        {
          "indexed": false,
          "internalType": "uint8",
          "name": "version",
          "type": "uint8"
        }
      ],
      "name": "Initialized",
      "type": "event"
    },
    {
      "anonymous": false,
      "inputs": [
        {
          "indexed": false,
          "internalType": "address",
          "name": "account",
          "type": "address"
        }
      ],
      "name": "Paused",
      "type": "event"
    },
    {
      "anonymous": false,
      "inputs": [
        {
          "indexed": true,
          "internalType": "bytes32",
          "name": "role",
          "type": "bytes32"
        },
        {
          "indexed": true,
          "internalType": "bytes32",
          "name": "previousAdminRole",
          "type": "bytes32"
        },
        {
          "indexed": true,
          "internalType": "bytes32",
          "name": "newAdminRole",
          "type": "bytes32"
        }
      ],
      "name": "RoleAdminChanged",
      "type": "event"
    },
    {
      "anonymous": false,
      "inputs": [
        {
          "indexed": true,
          "internalType": "bytes32",
          "name": "role",
          "type": "bytes32"
        },
        {
          "indexed": true,
          "internalType": "address",
          "name": "account",
          "type": "address"
        },
        {
          "indexed": true,
          "internalType": "address",
          "name": "sender",
          "type": "address"
        }
      ],
      "name": "RoleGranted",
      "type": "event"
    },
    {
      "anonymous": false,
      "inputs": [
        {
          "indexed": true,
          "internalType": "bytes32",
          "name": "role",
          "type": "bytes32"
        },
        {
          "indexed": true,
          "internalType": "address",
          "name": "account",
          "type": "address"
        },
        {
          "indexed": true,
          "internalType": "address",
          "name": "sender",
          "type": "address"
        }
      ],
      "name": "RoleRevoked",
      "type": "event"
    },
    {
      "anonymous": false,
      "inputs": [
        {
          "indexed": false,
          "internalType": "address",
          "name": "account",
          "type": "address"
        }
      ],
      "name": "Unpaused",
      "type": "event"
    },
    {
      "anonymous": false,
      "inputs": [
        {
          "indexed": true,
          "internalType": "address",
          "name": "implementation",
          "type": "address"
        }
      ],
      "name": "Upgraded",
      "type": "event"
    },
    {
      "inputs": [],
      "name": "DEFAULT_ADMIN_ROLE",
      "outputs": [
        {
          "internalType": "bytes32",
          "name": "",
          "type": "bytes32"
        }
      ],
      "stateMutability": "view",
      "type": "function"
    },
    {
      "inputs": [],
      "name": "MINTER_ROLE",
      "outputs": [
        {
          "internalType": "bytes32",
          "name": "",
          "type": "bytes32"
        }
      ],
      "stateMutability": "view",
      "type": "function"
    },
    {
      "inputs": [],
      "name": "PAUSER_ROLE",
      "outputs": [
        {
          "internalType": "bytes32",
          "name": "",
          "type": "bytes32"
        }
      ],
      "stateMutability": "view",
      "type": "function"
    },
    {
      "inputs": [],
      "name": "UPGRADER_ROLE",
      "outputs": [
        {
          "internalType": "bytes32",
          "name": "",
          "type": "bytes32"
        }
      ],
      "stateMutability": "view",
      "type": "function"
    },
    {
      "inputs": [
        {
          "internalType": "address",
          "name": "to",
          "type": "address"
        },
        {
          "internalType": "uint256",
          "name": "count",
          "type": "uint256"
        },
        {
          "internalType": "uint256",
          "name": "rarity",
          "type": "uint256"
        },
        {
          "internalType": "uint256",
          "name": "category",
          "type": "uint256"
        },
        {
          "internalType": "uint256",
          "name": "isHeroS",
          "type": "uint256"
        },
        {
          "internalType": "uint256[]",
          "name": "dropRates",
          "type": "uint256[]"
        },
        {
          "internalType": "uint256",
          "name": "skin",
          "type": "uint256"
        }
      ],
      "name": "addClaimRequests",
      "outputs": [],
      "stateMutability": "nonpayable",
      "type": "function"
    },
    {
      "inputs": [
        {
          "internalType": "address[]",
          "name": "users",
          "type": "address[]"
        },
        {
          "internalType": "uint256[]",
          "name": "skins",
          "type": "uint256[]"
        }
      ],
      "name": "addHeroesEvent",
      "outputs": [],
      "stateMutability": "nonpayable",
      "type": "function"
    },
    {
      "inputs": [],
      "name": "claim",
      "outputs": [],
      "stateMutability": "nonpayable",
      "type": "function"
    },
    {
      "inputs": [
        {
          "internalType": "address",
          "name": "to",
          "type": "address"
        }
      ],
      "name": "getClaimableTokens",
      "outputs": [
        {
          "internalType": "uint256",
          "name": "",
          "type": "uint256"
        }
      ],
      "stateMutability": "view",
      "type": "function"
    },
    {
      "inputs": [
        {
          "internalType": "bytes32",
          "name": "role",
          "type": "bytes32"
        }
      ],
      "name": "getRoleAdmin",
      "outputs": [
        {
          "internalType": "bytes32",
          "name": "",
          "type": "bytes32"
        }
      ],
      "stateMutability": "view",
      "type": "function"
    },
    {
      "inputs": [
        {
          "internalType": "bytes32",
          "name": "role",
          "type": "bytes32"
        },
        {
          "internalType": "address",
          "name": "account",
          "type": "address"
        }
      ],
      "name": "grantRole",
      "outputs": [],
      "stateMutability": "nonpayable",
      "type": "function"
    },
    {
      "inputs": [
        {
          "internalType": "bytes32",
          "name": "role",
          "type": "bytes32"
        },
        {
          "internalType": "address",
          "name": "account",
          "type": "address"
        }
      ],
      "name": "hasRole",
      "outputs": [
        {
          "internalType": "bool",
          "name": "",
          "type": "bool"
        }
      ],
      "stateMutability": "view",
      "type": "function"
    },
    {
      "inputs": [],
      "name": "heroToken",
      "outputs": [
        {
          "internalType": "contract IBHeroToken",
          "name": "",
          "type": "address"
        }
      ],
      "stateMutability": "view",
      "type": "function"
    },
    {
      "inputs": [
        {
          "internalType": "contract IBHeroToken",
          "name": "heroToken_",
          "type": "address"
        }
      ],
      "name": "initialize",
      "outputs": [],
      "stateMutability": "nonpayable",
      "type": "function"
    },
    {
      "inputs": [],
      "name": "pause",
      "outputs": [],
      "stateMutability": "nonpayable",
      "type": "function"
    },
    {
      "inputs": [],
      "name": "paused",
      "outputs": [
        {
          "internalType": "bool",
          "name": "",
          "type": "bool"
        }
      ],
      "stateMutability": "view",
      "type": "function"
    },
    {
      "inputs": [],
      "name": "proxiableUUID",
      "outputs": [
        {
          "internalType": "bytes32",
          "name": "",
          "type": "bytes32"
        }
      ],
      "stateMutability": "view",
      "type": "function"
    },
    {
      "inputs": [
        {
          "internalType": "bytes32",
          "name": "role",
          "type": "bytes32"
        },
        {
          "internalType": "address",
          "name": "account",
          "type": "address"
        }
      ],
      "name": "renounceRole",
      "outputs": [],
      "stateMutability": "nonpayable",
      "type": "function"
    },
    {
      "inputs": [
        {
          "internalType": "address",
          "name": "",
          "type": "address"
        },
        {
          "internalType": "uint256",
          "name": "",
          "type": "uint256"
        }
      ],
      "name": "requestDetails",
      "outputs": [
        {
          "internalType": "uint256",
          "name": "",
          "type": "uint256"
        }
      ],
      "stateMutability": "view",
      "type": "function"
    },
    {
      "inputs": [
        {
          "internalType": "bytes32",
          "name": "role",
          "type": "bytes32"
        },
        {
          "internalType": "address",
          "name": "account",
          "type": "address"
        }
      ],
      "name": "revokeRole",
      "outputs": [],
      "stateMutability": "nonpayable",
      "type": "function"
    },
    {
      "inputs": [
        {
          "internalType": "bytes4",
          "name": "interfaceId",
          "type": "bytes4"
        }
      ],
      "name": "supportsInterface",
      "outputs": [
        {
          "internalType": "bool",
          "name": "",
          "type": "bool"
        }
      ],
      "stateMutability": "view",
      "type": "function"
    },
    {
      "inputs": [],
      "name": "unpause",
      "outputs": [],
      "stateMutability": "nonpayable",
      "type": "function"
    },
    {
      "inputs": [
        {
          "internalType": "address",
          "name": "newImplementation",
          "type": "address"
        }
      ],
      "name": "upgradeTo",
      "outputs": [],
      "stateMutability": "nonpayable",
      "type": "function"
    },
    {
      "inputs": [
        {
          "internalType": "address",
          "name": "newImplementation",
          "type": "address"
        },
        {
          "internalType": "bytes",
          "name": "data",
          "type": "bytes"
        }
      ],
      "name": "upgradeToAndCall",
      "outputs": [],
      "stateMutability": "payable",
      "type": "function"
    }
  ],
  "bytecode": "0x60a06040523060805234801561001457600080fd5b5060805161260961004c60003960008181610849015281816108df01528181610d4201528181610dd80152610ecf01526126096000f3fe6080604052600436106101805760003560e01c80635c975abb116100d6578063bbca57151161007f578063d547741f11610059578063d547741f14610441578063e63ab1e914610461578063f72c0d8b1461049557600080fd5b8063bbca5715146103b4578063c4d66de8146103ed578063d53913931461040d57600080fd5b80639751be2c116100b05780639751be2c1461035f578063a217fddf1461037f578063b89079a81461039457600080fd5b80635c975abb146102ec5780638456cb591461030457806391d148541461031957600080fd5b806336568abe116101385780634e71d92d116101125780634e71d92d146102af5780634f1ef286146102c457806352d1902d146102d757600080fd5b806336568abe1461025a5780633659cfe61461027a5780633f4ba83a1461029a57600080fd5b80631b831ead116101695780631b831ead146101dc578063248a9ca31461020a5780632f2ff15d1461023a57600080fd5b806301ffc9a7146101855780630e951375146101ba575b600080fd5b34801561019157600080fd5b506101a56101a0366004611fab565b6104c9565b60405190151581526020015b60405180910390f35b3480156101c657600080fd5b506101da6101d5366004612039565b6104da565b005b3480156101e857600080fd5b506101fc6101f73660046120ba565b610708565b6040519081526020016101b1565b34801561021657600080fd5b506101fc6102253660046120d7565b60009081526065602052604090206001015490565b34801561024657600080fd5b506101da6102553660046120f0565b610789565b34801561026657600080fd5b506101da6102753660046120f0565b6107b3565b34801561028657600080fd5b506101da6102953660046120ba565b61083f565b3480156102a657600080fd5b506101da6109dc565b3480156102bb57600080fd5b506101da610a0e565b6101da6102d2366004612167565b610d38565b3480156102e357600080fd5b506101fc610ec2565b3480156102f857600080fd5b5060975460ff166101a5565b34801561031057600080fd5b506101da610f87565b34801561032557600080fd5b506101a56103343660046120f0565b60009182526065602090815260408084206001600160a01b0393909316845291905290205460ff1690565b34801561036b57600080fd5b506101da61037a36600461220f565b610fb9565b34801561038b57600080fd5b506101fc600081565b3480156103a057600080fd5b506101fc6103af366004612293565b61119f565b3480156103c057600080fd5b5061012d546103d5906001600160a01b031681565b6040516001600160a01b0390911681526020016101b1565b3480156103f957600080fd5b506101da6104083660046120ba565b6111d1565b34801561041957600080fd5b506101fc7f9f2df0fed2c77648de5860a4cc508cd0818c85b8b8a1ab4ceeef8d981c8956a681565b34801561044d57600080fd5b506101da61045c3660046120f0565b6113be565b34801561046d57600080fd5b506101fc7f65d7a28e3265b37a6474929f336521b332c1681b933f6cb9f3376673440d862a81565b3480156104a157600080fd5b506101fc7f189ab7a9244df0848122154315af71fe140f3db0fe014031783b0946b8c9d2e381565b60006104d4826113e3565b92915050565b7f9f2df0fed2c77648de5860a4cc508cd0818c85b8b8a1ab4ceeef8d981c8956a66105048161147a565b61012d54604080517f93f5020600000000000000000000000000000000000000000000000000000000815290516000926001600160a01b0316916393f502069160048083019260209291908290030181865afa158015610568573d6000803e3d6000fd5b505050506040513d601f19601f8201168201806040525081019061058c91906122bf565b6001600160a01b03166368cdbe366040518163ffffffff1660e01b8152600401600060405180830381865afa1580156105c9573d6000803e3d6000fd5b505050506040513d6000823e601f3d908101601f191682016040526105f191908101906122dc565b90508483146106475760405162461bcd60e51b815260206004820152600c60248201527f57726f6e67206c656e677468000000000000000000000000000000000000000060448201526064015b60405180910390fd5b60005b858110156106ff5730639751be2c88888481811061066a5761066a612382565b905060200201602081019061067f91906120ba565b60016000806001888c8c8a81811061069957610699612382565b905060200201356040518863ffffffff1660e01b81526004016106c29796959493929190612398565b600060405180830381600087803b1580156106dc57600080fd5b505af11580156106f0573d6000803e3d6000fd5b5050505080600101905061064a565b50505050505050565b60008060005b6001600160a01b038416600090815261012e6020526040902054811015610782576001600160a01b038416600090815261012e6020526040812080548390811061075a5761075a612382565b90600052602060002001546103ff1690508083610777919061242d565b92505060010161070e565b5092915050565b6000828152606560205260409020600101546107a48161147a565b6107ae8383611484565b505050565b6001600160a01b03811633146108315760405162461bcd60e51b815260206004820152602f60248201527f416363657373436f6e74726f6c3a2063616e206f6e6c792072656e6f756e636560448201527f20726f6c657320666f722073656c660000000000000000000000000000000000606482015260840161063e565b61083b8282611526565b5050565b6001600160a01b037f00000000000000000000000000000000000000000000000000000000000000001630036108dd5760405162461bcd60e51b815260206004820152602c60248201527f46756e6374696f6e206d7573742062652063616c6c6564207468726f7567682060448201527f64656c656761746563616c6c0000000000000000000000000000000000000000606482015260840161063e565b7f00000000000000000000000000000000000000000000000000000000000000006001600160a01b03166109387f360894a13ba1a3210667c828492db98dca3e2076cc3735a920a3ca505d382bbc546001600160a01b031690565b6001600160a01b0316146109b45760405162461bcd60e51b815260206004820152602c60248201527f46756e6374696f6e206d7573742062652063616c6c6564207468726f7567682060448201527f6163746976652070726f78790000000000000000000000000000000000000000606482015260840161063e565b6109bd816115a9565b604080516000808252602082019092526109d9918391906115d3565b50565b7f65d7a28e3265b37a6474929f336521b332c1681b933f6cb9f3376673440d862a610a068161147a565b6109d9611773565b61012d546040517f4dc72eff0000000000000000000000000000000000000000000000000000000081523360048201819052916000916001600160a01b0390911690634dc72eff90602401602060405180830381865afa158015610a76573d6000803e3d6000fd5b505050506040513d601f19601f82011682018060405250810190610a9a9190612440565b9050600061012d60009054906101000a90046001600160a01b03166001600160a01b03166393f502066040518163ffffffff1660e01b8152600401602060405180830381865afa158015610af2573d6000803e3d6000fd5b505050506040513d601f19601f82011682018060405250810190610b1691906122bf565b6001600160a01b031663284855866040518163ffffffff1660e01b8152600401602060405180830381865afa158015610b53573d6000803e3d6000fd5b505050506040513d601f19601f82011682018060405250810190610b779190612440565b9050808210610bc85760405162461bcd60e51b815260206004820152601260248201527f55736572206c696d697420726561636865640000000000000000000000000000604482015260640161063e565b60005b6001600160a01b038416600090815261012e6020526040902054811015610d15576001600160a01b038416600090815261012e60205260408120805483908110610c1757610c17612382565b600091825260208220015491506103ff821690601f600a84901c1690610c3e43600561242d565b90506000610c5b60016d4000000000000000000000000000612459565b61012d546040517ff96bd2890000000000000000000000000000000000000000000000000000000081526001600160a01b038c81166004830152602482018890526044820187905260648201869052600f89901c93909316601e81901b861760848301819052909450929091169063f96bd2899060a401600060405180830381600087803b158015610cec57600080fd5b505af1158015610d00573d6000803e3d6000fd5b50505050505050505050806001019050610bcb565b506001600160a01b038316600090815261012e602052604081206107ae91611f79565b6001600160a01b037f0000000000000000000000000000000000000000000000000000000000000000163003610dd65760405162461bcd60e51b815260206004820152602c60248201527f46756e6374696f6e206d7573742062652063616c6c6564207468726f7567682060448201527f64656c656761746563616c6c0000000000000000000000000000000000000000606482015260840161063e565b7f00000000000000000000000000000000000000000000000000000000000000006001600160a01b0316610e317f360894a13ba1a3210667c828492db98dca3e2076cc3735a920a3ca505d382bbc546001600160a01b031690565b6001600160a01b031614610ead5760405162461bcd60e51b815260206004820152602c60248201527f46756e6374696f6e206d7573742062652063616c6c6564207468726f7567682060448201527f6163746976652070726f78790000000000000000000000000000000000000000606482015260840161063e565b610eb6826115a9565b61083b828260016115d3565b6000306001600160a01b037f00000000000000000000000000000000000000000000000000000000000000001614610f625760405162461bcd60e51b815260206004820152603860248201527f555550535570677261646561626c653a206d757374206e6f742062652063616c60448201527f6c6564207468726f7567682064656c656761746563616c6c0000000000000000606482015260840161063e565b507f360894a13ba1a3210667c828492db98dca3e2076cc3735a920a3ca505d382bbc90565b7f65d7a28e3265b37a6474929f336521b332c1681b933f6cb9f3376673440d862a610fb18161147a565b6109d96117c5565b7f9f2df0fed2c77648de5860a4cc508cd0818c85b8b8a1ab4ceeef8d981c8956a6610fe38161147a565b60068711156110345760405162461bcd60e51b815260206004820152600e60248201527f496e76616c696420726172697479000000000000000000000000000000000000604482015260640161063e565b601983901b601486901b600f88901b600a8a901b8b171717176000805b858110156110bc5761106481600f61246c565b61106f90601e61242d565b87878381811061108157611081612382565b90506020020135901b831792508686828181106110a0576110a0612382565b90506020020135826110b2919061242d565b9150600101611051565b50607884901b82179150600081116111165760405162461bcd60e51b815260206004820152601a60248201527f44726f702072617465206d75737420626520706f736974697665000000000000604482015260640161063e565b600685146111665760405162461bcd60e51b815260206004820152601660248201527f496e76616c69642064726f7020726174652073697a6500000000000000000000604482015260640161063e565b506001600160a01b03909916600090815261012e6020908152604082208054600181018255908352912001989098555050505050505050565b61012e60205281600052604060002081815481106111bc57600080fd5b90600052602060002001600091509150505481565b600054610100900460ff16158080156111f15750600054600160ff909116105b8061120b5750303b15801561120b575060005460ff166001145b61127d5760405162461bcd60e51b815260206004820152602e60248201527f496e697469616c697a61626c653a20636f6e747261637420697320616c72656160448201527f647920696e697469616c697a6564000000000000000000000000000000000000606482015260840161063e565b6000805460ff1916600117905580156112a0576000805461ff0019166101001790555b6112a8611802565b6112b0611881565b6112b8611802565b61012d80547fffffffffffffffffffffffff0000000000000000000000000000000000000000166001600160a01b0384161790556112f7600033611906565b6113217f65d7a28e3265b37a6474929f336521b332c1681b933f6cb9f3376673440d862a33611906565b61134b7f189ab7a9244df0848122154315af71fe140f3db0fe014031783b0946b8c9d2e333611906565b6113757f9f2df0fed2c77648de5860a4cc508cd0818c85b8b8a1ab4ceeef8d981c8956a633611906565b801561083b576000805461ff0019169055604051600181527f7f26b83ff96e1f2b6a682f133852f6798a09c465da95921460cefb38474024989060200160405180910390a15050565b6000828152606560205260409020600101546113d98161147a565b6107ae8383611526565b60007fffffffff0000000000000000000000000000000000000000000000000000000082167f7965db0b0000000000000000000000000000000000000000000000000000000014806104d457507f01ffc9a7000000000000000000000000000000000000000000000000000000007fffffffff000000000000000000000000000000000000000000000000000000008316146104d4565b6109d98133611910565b60008281526065602090815260408083206001600160a01b038516845290915290205460ff1661083b5760008281526065602090815260408083206001600160a01b03851684529091529020805460ff191660011790556114e23390565b6001600160a01b0316816001600160a01b0316837f2f8788117e7eff1d82e926ec794901d17c78024a50270940304540a733656f0d60405160405180910390a45050565b60008281526065602090815260408083206001600160a01b038516845290915290205460ff161561083b5760008281526065602090815260408083206001600160a01b0385168085529252808320805460ff1916905551339285917ff6391f5c32d9c69d2a47ea670b442974b53935d1edc7fd64eb21e047a839171b9190a45050565b7f189ab7a9244df0848122154315af71fe140f3db0fe014031783b0946b8c9d2e361083b8161147a565b7f4910fdfa16fed3260ed0e7147f7cc6da11a60208b5b9406d12a635614ffd91435460ff1615611606576107ae83611985565b826001600160a01b03166352d1902d6040518163ffffffff1660e01b8152600401602060405180830381865afa925050508015611660575060408051601f3d908101601f1916820190925261165d91810190612440565b60015b6116d25760405162461bcd60e51b815260206004820152602e60248201527f45524331393637557067726164653a206e657720696d706c656d656e7461746960448201527f6f6e206973206e6f742055555053000000000000000000000000000000000000606482015260840161063e565b7f360894a13ba1a3210667c828492db98dca3e2076cc3735a920a3ca505d382bbc81146117675760405162461bcd60e51b815260206004820152602960248201527f45524331393637557067726164653a20756e737570706f727465642070726f7860448201527f6961626c65555549440000000000000000000000000000000000000000000000606482015260840161063e565b506107ae838383611a5b565b61177b611a86565b6097805460ff191690557f5db9ee0a495bf2e6ff9c91a7834c1ba4fdd244a5e8aa4e537bd38aeae4b073aa335b6040516001600160a01b03909116815260200160405180910390a1565b6117cd611ad8565b6097805460ff191660011790557f62e78cea01bee320cd4e420270b5ea74000d11b0c9f74754ebdbfc544b05a2586117a83390565b600054610100900460ff1661187f5760405162461bcd60e51b815260206004820152602b60248201527f496e697469616c697a61626c653a20636f6e7472616374206973206e6f74206960448201527f6e697469616c697a696e67000000000000000000000000000000000000000000606482015260840161063e565b565b600054610100900460ff166118fe5760405162461bcd60e51b815260206004820152602b60248201527f496e697469616c697a61626c653a20636f6e7472616374206973206e6f74206960448201527f6e697469616c697a696e67000000000000000000000000000000000000000000606482015260840161063e565b61187f611b2b565b61083b8282611484565b60008281526065602090815260408083206001600160a01b038516845290915290205460ff1661083b5761194381611bb4565b61194e836020611bc6565b60405160200161195f9291906124a7565b60408051601f198184030181529082905262461bcd60e51b825261063e91600401612528565b6001600160a01b0381163b611a025760405162461bcd60e51b815260206004820152602d60248201527f455243313936373a206e657720696d706c656d656e746174696f6e206973206e60448201527f6f74206120636f6e747261637400000000000000000000000000000000000000606482015260840161063e565b7f360894a13ba1a3210667c828492db98dca3e2076cc3735a920a3ca505d382bbc80547fffffffffffffffffffffffff0000000000000000000000000000000000000000166001600160a01b0392909216919091179055565b611a6483611df6565b600082511180611a715750805b156107ae57611a808383611e36565b50505050565b60975460ff1661187f5760405162461bcd60e51b815260206004820152601460248201527f5061757361626c653a206e6f7420706175736564000000000000000000000000604482015260640161063e565b60975460ff161561187f5760405162461bcd60e51b815260206004820152601060248201527f5061757361626c653a2070617573656400000000000000000000000000000000604482015260640161063e565b600054610100900460ff16611ba85760405162461bcd60e51b815260206004820152602b60248201527f496e697469616c697a61626c653a20636f6e7472616374206973206e6f74206960448201527f6e697469616c697a696e67000000000000000000000000000000000000000000606482015260840161063e565b6097805460ff19169055565b60606104d46001600160a01b03831660145b60606000611bd583600261246c565b611be090600261242d565b67ffffffffffffffff811115611bf857611bf8612120565b6040519080825280601f01601f191660200182016040528015611c22576020820181803683370190505b5090507f300000000000000000000000000000000000000000000000000000000000000081600081518110611c5957611c59612382565b60200101907effffffffffffffffffffffffffffffffffffffffffffffffffffffffffffff1916908160001a9053507f780000000000000000000000000000000000000000000000000000000000000081600181518110611cbc57611cbc612382565b60200101907effffffffffffffffffffffffffffffffffffffffffffffffffffffffffffff1916908160001a9053506000611cf884600261246c565b611d0390600161242d565b90505b6001811115611da0577f303132333435363738396162636465660000000000000000000000000000000085600f1660108110611d4457611d44612382565b1a60f81b828281518110611d5a57611d5a612382565b60200101907effffffffffffffffffffffffffffffffffffffffffffffffffffffffffffff1916908160001a90535060049490941c93611d998161255b565b9050611d06565b508315611def5760405162461bcd60e51b815260206004820181905260248201527f537472696e67733a20686578206c656e67746820696e73756666696369656e74604482015260640161063e565b9392505050565b611dff81611985565b6040516001600160a01b038216907fbc7cd75a20ee27fd9adebab32041f755214dbc6bffa90cc0225b39da2e5c2d3b90600090a250565b6060611def83836040518060600160405280602781526020016125ad602791396060600080856001600160a01b031685604051611e739190612590565b600060405180830381855af49150503d8060008114611eae576040519150601f19603f3d011682016040523d82523d6000602084013e611eb3565b606091505b5091509150611ec486838387611ece565b9695505050505050565b60608315611f3d578251600003611f36576001600160a01b0385163b611f365760405162461bcd60e51b815260206004820152601d60248201527f416464726573733a2063616c6c20746f206e6f6e2d636f6e7472616374000000604482015260640161063e565b5081611f47565b611f478383611f4f565b949350505050565b815115611f5f5781518083602001fd5b8060405162461bcd60e51b815260040161063e9190612528565b50805460008255906000526020600020908101906109d991905b80821115611fa75760008155600101611f93565b5090565b600060208284031215611fbd57600080fd5b81357fffffffff0000000000000000000000000000000000000000000000000000000081168114611def57600080fd5b60008083601f840112611fff57600080fd5b50813567ffffffffffffffff81111561201757600080fd5b6020830191508360208260051b850101111561203257600080fd5b9250929050565b6000806000806040858703121561204f57600080fd5b843567ffffffffffffffff8082111561206757600080fd5b61207388838901611fed565b9096509450602087013591508082111561208c57600080fd5b5061209987828801611fed565b95989497509550505050565b6001600160a01b03811681146109d957600080fd5b6000602082840312156120cc57600080fd5b8135611def816120a5565b6000602082840312156120e957600080fd5b5035919050565b6000806040838503121561210357600080fd5b823591506020830135612115816120a5565b809150509250929050565b634e487b7160e01b600052604160045260246000fd5b604051601f8201601f1916810167ffffffffffffffff8111828210171561215f5761215f612120565b604052919050565b6000806040838503121561217a57600080fd5b8235612185816120a5565b915060208381013567ffffffffffffffff808211156121a357600080fd5b818601915086601f8301126121b757600080fd5b8135818111156121c9576121c9612120565b6121db84601f19601f84011601612136565b915080825287848285010111156121f157600080fd5b80848401858401376000848284010152508093505050509250929050565b60008060008060008060008060e0898b03121561222b57600080fd5b8835612236816120a5565b97506020890135965060408901359550606089013594506080890135935060a089013567ffffffffffffffff81111561226e57600080fd5b61227a8b828c01611fed565b999c989b50969995989497949560c00135949350505050565b600080604083850312156122a657600080fd5b82356122b1816120a5565b946020939093013593505050565b6000602082840312156122d157600080fd5b8151611def816120a5565b600060208083850312156122ef57600080fd5b825167ffffffffffffffff8082111561230757600080fd5b818501915085601f83011261231b57600080fd5b81518181111561232d5761232d612120565b8060051b915061233e848301612136565b818152918301840191848101908884111561235857600080fd5b938501935b838510156123765784518252938501939085019061235d565b98975050505050505050565b634e487b7160e01b600052603260045260246000fd5b600060e082016001600160a01b038a168352602089602085015288604085015287606085015286608085015260e060a08501528186518084526101008601915060208801935060005b818110156123fd578451835293830193918301916001016123e1565b50508093505050508260c083015298975050505050505050565b634e487b7160e01b600052601160045260246000fd5b808201808211156104d4576104d4612417565b60006020828403121561245257600080fd5b5051919050565b818103818111156104d4576104d4612417565b80820281158282048414176104d4576104d4612417565b60005b8381101561249e578181015183820152602001612486565b50506000910152565b7f416363657373436f6e74726f6c3a206163636f756e74200000000000000000008152600083516124df816017850160208801612483565b7f206973206d697373696e6720726f6c6520000000000000000000000000000000601791840191820152835161251c816028840160208801612483565b01602801949350505050565b6020815260008251806020840152612547816040850160208701612483565b601f01601f19169190910160400192915050565b60008161256a5761256a612417565b507fffffffffffffffffffffffffffffffffffffffffffffffffffffffffffffffff0190565b600082516125a2818460208701612483565b919091019291505056fe416464726573733a206c6f772d6c6576656c2064656c65676174652063616c6c206661696c6564a2646970667358221220353a23e8ac1da0b32719e177b13ccb22370d582c907433a3f7061405ebc5d4ed64736f6c63430008180033",
  "linkReferences": {},
  "deployedLinkReferences": {}
}