{
  "_format": "hh-sol-artifact-1",
  "contractName": "BCoinStake2024",
  "sourceName": "contracts/BCoinStake2024.sol",
  "abi": [
    {
      "anonymous": false,
      "inputs": [
        {
          "indexed": false,
          "internalType": "address",
          "name": "previousAdmin",
          "type": "address"
        },
        {
          "indexed": false,
          "internalType": "address",
          "name": "newAdmin",
          "type": "address"
        }
      ],
      "name": "AdminChanged",
      "type": "event"
    },
    {
      "anonymous": false,
      "inputs": [
        {
          "indexed": true,
          "internalType": "address",
          "name": "beacon",
          "type": "address"
        }
      ],
      "name": "BeaconUpgraded",
      "type": "event"
    },
    {
      "anonymous": false,
      "inputs": [
        {
          "indexed": true,
          "internalType": "address",
          "name": "user",
          "type": "address"
        },
        {
          "indexed": false,
          "internalType": "uint256",
          "name": "reward",
          "type": "uint256"
        }
      ],
      "name": "GetReward",
      "type": "event"
    },
    {
      "anonymous": false,
      "inputs": [
        {
          "indexed": false,
          "internalType": "uint8",
          "name": "version",
          "type": "uint8"
        }
      ],
      "name": "Initialized",
      "type": "event"
    },
    {
      "anonymous": false,
      "inputs": [
        {
          "indexed": true,
          "internalType": "address",
          "name": "user",
          "type": "address"
        },
        {
          "indexed": false,
          "internalType": "uint256",
          "name": "reward",
          "type": "uint256"
        }
      ],
      "name": "RestakeReward",
      "type": "event"
    },
    {
      "anonymous": false,
      "inputs": [
        {
          "indexed": true,
          "internalType": "bytes32",
          "name": "role",
          "type": "bytes32"
        },
        {
          "indexed": true,
          "internalType": "bytes32",
          "name": "previousAdminRole",
          "type": "bytes32"
        },
        {
          "indexed": true,
          "internalType": "bytes32",
          "name": "newAdminRole",
          "type": "bytes32"
        }
      ],
      "name": "RoleAdminChanged",
      "type": "event"
    },
    {
      "anonymous": false,
      "inputs": [
        {
          "indexed": true,
          "internalType": "bytes32",
          "name": "role",
          "type": "bytes32"
        },
        {
          "indexed": true,
          "internalType": "address",
          "name": "account",
          "type": "address"
        },
        {
          "indexed": true,
          "internalType": "address",
          "name": "sender",
          "type": "address"
        }
      ],
      "name": "RoleGranted",
      "type": "event"
    },
    {
      "anonymous": false,
      "inputs": [
        {
          "indexed": true,
          "internalType": "bytes32",
          "name": "role",
          "type": "bytes32"
        },
        {
          "indexed": true,
          "internalType": "address",
          "name": "account",
          "type": "address"
        },
        {
          "indexed": true,
          "internalType": "address",
          "name": "sender",
          "type": "address"
        }
      ],
      "name": "RoleRevoked",
      "type": "event"
    },
    {
      "anonymous": false,
      "inputs": [
        {
          "indexed": true,
          "internalType": "address",
          "name": "user",
          "type": "address"
        },
        {
          "indexed": false,
          "internalType": "uint256",
          "name": "amount",
          "type": "uint256"
        }
      ],
      "name": "Stake",
      "type": "event"
    },
    {
      "anonymous": false,
      "inputs": [
        {
          "indexed": true,
          "internalType": "address",
          "name": "user",
          "type": "address"
        },
        {
          "indexed": false,
          "internalType": "uint256",
          "name": "amount",
          "type": "uint256"
        }
      ],
      "name": "Unstake",
      "type": "event"
    },
    {
      "anonymous": false,
      "inputs": [
        {
          "indexed": true,
          "internalType": "address",
          "name": "implementation",
          "type": "address"
        }
      ],
      "name": "Upgraded",
      "type": "event"
    },
    {
      "anonymous": false,
      "inputs": [
        {
          "indexed": true,
          "internalType": "address",
          "name": "user",
          "type": "address"
        },
        {
          "indexed": false,
          "internalType": "uint256",
          "name": "amount",
          "type": "uint256"
        }
      ],
      "name": "Withdraw",
      "type": "event"
    },
    {
      "inputs": [],
      "name": "DEFAULT_ADMIN_ROLE",
      "outputs": [
        {
          "internalType": "bytes32",
          "name": "",
          "type": "bytes32"
        }
      ],
      "stateMutability": "view",
      "type": "function"
    },
    {
      "inputs": [],
      "name": "UPGRADER_ROLE",
      "outputs": [
        {
          "internalType": "bytes32",
          "name": "",
          "type": "bytes32"
        }
      ],
      "stateMutability": "view",
      "type": "function"
    },
    {
      "inputs": [
        {
          "internalType": "address",
          "name": "_account",
          "type": "address"
        }
      ],
      "name": "earned",
      "outputs": [
        {
          "internalType": "uint256",
          "name": "",
          "type": "uint256"
        }
      ],
      "stateMutability": "view",
      "type": "function"
    },
    {
      "inputs": [],
      "name": "getDailyRewards",
      "outputs": [
        {
          "internalType": "uint256",
          "name": "",
          "type": "uint256"
        }
      ],
      "stateMutability": "view",
      "type": "function"
    },
    {
      "inputs": [
        {
          "internalType": "address",
          "name": "_account",
          "type": "address"
        }
      ],
      "name": "getMyFee",
      "outputs": [
        {
          "internalType": "uint256",
          "name": "",
          "type": "uint256"
        }
      ],
      "stateMutability": "view",
      "type": "function"
    },
    {
      "inputs": [
        {
          "internalType": "address",
          "name": "_account",
          "type": "address"
        }
      ],
      "name": "getMyProfit",
      "outputs": [
        {
          "internalType": "uint256",
          "name": "",
          "type": "uint256"
        }
      ],
      "stateMutability": "view",
      "type": "function"
    },
    {
      "inputs": [
        {
          "internalType": "address",
          "name": "_account",
          "type": "address"
        }
      ],
      "name": "getMyStaked",
      "outputs": [
        {
          "internalType": "uint256",
          "name": "",
          "type": "uint256"
        }
      ],
      "stateMutability": "view",
      "type": "function"
    },
    {
      "inputs": [
        {
          "internalType": "address",
          "name": "_account",
          "type": "address"
        }
      ],
      "name": "getMyTimeStake",
      "outputs": [
        {
          "internalType": "uint256",
          "name": "",
          "type": "uint256"
        }
      ],
      "stateMutability": "view",
      "type": "function"
    },
    {
      "inputs": [],
      "name": "getPercentAPR",
      "outputs": [
        {
          "internalType": "uint256",
          "name": "",
          "type": "uint256"
        }
      ],
      "stateMutability": "view",
      "type": "function"
    },
    {
      "inputs": [],
      "name": "getReward",
      "outputs": [],
      "stateMutability": "nonpayable",
      "type": "function"
    },
    {
      "inputs": [
        {
          "internalType": "bytes32",
          "name": "role",
          "type": "bytes32"
        }
      ],
      "name": "getRoleAdmin",
      "outputs": [
        {
          "internalType": "bytes32",
          "name": "",
          "type": "bytes32"
        }
      ],
      "stateMutability": "view",
      "type": "function"
    },
    {
      "inputs": [],
      "name": "getTokenUnlock",
      "outputs": [
        {
          "internalType": "uint256",
          "name": "",
          "type": "uint256"
        }
      ],
      "stateMutability": "view",
      "type": "function"
    },
    {
      "inputs": [],
      "name": "getTotalStaked",
      "outputs": [
        {
          "internalType": "uint256",
          "name": "",
          "type": "uint256"
        }
      ],
      "stateMutability": "view",
      "type": "function"
    },
    {
      "inputs": [
        {
          "internalType": "address",
          "name": "_account",
          "type": "address"
        }
      ],
      "name": "getWithdrawFeeByUser",
      "outputs": [
        {
          "internalType": "uint256",
          "name": "",
          "type": "uint256"
        }
      ],
      "stateMutability": "view",
      "type": "function"
    },
    {
      "inputs": [
        {
          "internalType": "bytes32",
          "name": "role",
          "type": "bytes32"
        },
        {
          "internalType": "address",
          "name": "account",
          "type": "address"
        }
      ],
      "name": "grantRole",
      "outputs": [],
      "stateMutability": "nonpayable",
      "type": "function"
    },
    {
      "inputs": [
        {
          "internalType": "bytes32",
          "name": "role",
          "type": "bytes32"
        },
        {
          "internalType": "address",
          "name": "account",
          "type": "address"
        }
      ],
      "name": "hasRole",
      "outputs": [
        {
          "internalType": "bool",
          "name": "",
          "type": "bool"
        }
      ],
      "stateMutability": "view",
      "type": "function"
    },
    {
      "inputs": [
        {
          "internalType": "contract IBEP20",
          "name": "_stakingToken",
          "type": "address"
        },
        {
          "internalType": "contract IBEP20",
          "name": "_rewardsToken",
          "type": "address"
        }
      ],
      "name": "initialize",
      "outputs": [],
      "stateMutability": "nonpayable",
      "type": "function"
    },
    {
      "inputs": [],
      "name": "lastUpdateTime",
      "outputs": [
        {
          "internalType": "uint256",
          "name": "",
          "type": "uint256"
        }
      ],
      "stateMutability": "view",
      "type": "function"
    },
    {
      "inputs": [],
      "name": "proxiableUUID",
      "outputs": [
        {
          "internalType": "bytes32",
          "name": "",
          "type": "bytes32"
        }
      ],
      "stateMutability": "view",
      "type": "function"
    },
    {
      "inputs": [
        {
          "internalType": "bytes32",
          "name": "role",
          "type": "bytes32"
        },
        {
          "internalType": "address",
          "name": "account",
          "type": "address"
        }
      ],
      "name": "renounceRole",
      "outputs": [],
      "stateMutability": "nonpayable",
      "type": "function"
    },
    {
      "inputs": [],
      "name": "restakeReward",
      "outputs": [],
      "stateMutability": "nonpayable",
      "type": "function"
    },
    {
      "inputs": [
        {
          "internalType": "bytes32",
          "name": "role",
          "type": "bytes32"
        },
        {
          "internalType": "address",
          "name": "account",
          "type": "address"
        }
      ],
      "name": "revokeRole",
      "outputs": [],
      "stateMutability": "nonpayable",
      "type": "function"
    },
    {
      "inputs": [],
      "name": "rewardPerToken",
      "outputs": [
        {
          "internalType": "uint256",
          "name": "",
          "type": "uint256"
        }
      ],
      "stateMutability": "view",
      "type": "function"
    },
    {
      "inputs": [],
      "name": "rewardPerTokenByDay",
      "outputs": [
        {
          "internalType": "uint256",
          "name": "",
          "type": "uint256"
        }
      ],
      "stateMutability": "view",
      "type": "function"
    },
    {
      "inputs": [],
      "name": "rewardPerTokenBySecond",
      "outputs": [
        {
          "internalType": "uint256",
          "name": "",
          "type": "uint256"
        }
      ],
      "stateMutability": "view",
      "type": "function"
    },
    {
      "inputs": [],
      "name": "rewardPerTokenStored",
      "outputs": [
        {
          "internalType": "uint256",
          "name": "",
          "type": "uint256"
        }
      ],
      "stateMutability": "view",
      "type": "function"
    },
    {
      "inputs": [],
      "name": "rewardsToken",
      "outputs": [
        {
          "internalType": "contract IBEP20",
          "name": "",
          "type": "address"
        }
      ],
      "stateMutability": "view",
      "type": "function"
    },
    {
      "inputs": [
        {
          "internalType": "uint256",
          "name": "_amount",
          "type": "uint256"
        }
      ],
      "name": "stake",
      "outputs": [],
      "stateMutability": "nonpayable",
      "type": "function"
    },
    {
      "inputs": [],
      "name": "stakingToken",
      "outputs": [
        {
          "internalType": "contract IBEP20",
          "name": "",
          "type": "address"
        }
      ],
      "stateMutability": "view",
      "type": "function"
    },
    {
      "inputs": [
        {
          "internalType": "bytes4",
          "name": "interfaceId",
          "type": "bytes4"
        }
      ],
      "name": "supportsInterface",
      "outputs": [
        {
          "internalType": "bool",
          "name": "",
          "type": "bool"
        }
      ],
      "stateMutability": "view",
      "type": "function"
    },
    {
      "inputs": [],
      "name": "unstake",
      "outputs": [],
      "stateMutability": "nonpayable",
      "type": "function"
    },
    {
      "inputs": [
        {
          "internalType": "address",
          "name": "newImplementation",
          "type": "address"
        }
      ],
      "name": "upgradeTo",
      "outputs": [],
      "stateMutability": "nonpayable",
      "type": "function"
    },
    {
      "inputs": [
        {
          "internalType": "address",
          "name": "newImplementation",
          "type": "address"
        },
        {
          "internalType": "bytes",
          "name": "data",
          "type": "bytes"
        }
      ],
      "name": "upgradeToAndCall",
      "outputs": [],
      "stateMutability": "payable",
      "type": "function"
    },
    {
      "inputs": [
        {
          "internalType": "uint256",
          "name": "_amount",
          "type": "uint256"
        }
      ],
      "name": "withdraw",
      "outputs": [],
      "stateMutability": "nonpayable",
      "type": "function"
    },
    {
      "inputs": [],
      "name": "withdrawToken",
      "outputs": [],
      "stateMutability": "nonpayable",
      "type": "function"
    }
  ],
  "bytecode": "0x60a06040523060805234801561001457600080fd5b50608051612bf061004c60003960008181610e4d01528181610ee301528181611444015281816114da01526115d10152612bf06000f3fe6080604052600436106102335760003560e01c806372f702f311610138578063c8f33c91116100b0578063d547741f1161007f578063f72c0d8b11610064578063f72c0d8b14610615578063fe45583e14610649578063ff28b8271461068357600080fd5b8063d547741f146105df578063df136d65146105ff57600080fd5b8063c8f33c911461057f578063ca628c7814610595578063cd3daf9d146105aa578063d1af0c7d146105bf57600080fd5b8063a217fddf11610107578063a694fc3a116100ec578063a694fc3a14610535578063b45a426914610555578063b54e386c1461056a57600080fd5b8063a217fddf1461050b578063a32f0dfa1461052057600080fd5b806372f702f31461044d57806378e88c3c1461048557806391d14854146104a5578063a2103bd0146104eb57600080fd5b80632f2ff15d116101cb5780633d18b9121161019a5780634f1ef2861161017f5780634f1ef2861461041057806352d1902d14610423578063685270081461043857600080fd5b80633d18b912146103db578063485cc955146103f057600080fd5b80632f2ff15d1461034157806331fae2691461036157806336568abe1461039b5780633659cfe6146103bb57600080fd5b8063248a9ca311610207578063248a9ca3146102c55780632abc5190146102f55780632def66201461030a5780632e1a7d4d1461032157600080fd5b80628cc2621461023857806301ffc9a71461026b5780630715a8b91461029b5780630917e776146102b0575b600080fd5b34801561024457600080fd5b506102586102533660046127f4565b6106a3565b6040519081526020015b60405180910390f35b34801561027757600080fd5b5061028b610286366004612811565b610721565b6040519015158152602001610262565b3480156102a757600080fd5b506102586107b8565b3480156102bc57600080fd5b5060fd54610258565b3480156102d157600080fd5b506102586102e0366004612853565b60009081526065602052604090206001015490565b34801561030157600080fd5b506102586107de565b34801561031657600080fd5b5061031f61083c565b005b34801561032d57600080fd5b5061031f61033c366004612853565b610ac3565b34801561034d57600080fd5b5061031f61035c36600461286c565b610d8d565b34801561036d57600080fd5b5061025861037c3660046127f4565b6001600160a01b03166000908152610100602052604090206002015490565b3480156103a757600080fd5b5061031f6103b636600461286c565b610db7565b3480156103c757600080fd5b5061031f6103d63660046127f4565b610e43565b3480156103e757600080fd5b5061031f610fe0565b3480156103fc57600080fd5b5061031f61040b36600461289c565b61112b565b61031f61041e3660046128e0565b61143a565b34801561042f57600080fd5b506102586115c4565b34801561044457600080fd5b50610258611689565b34801561045957600080fd5b5060fc5461046d906001600160a01b031681565b6040516001600160a01b039091168152602001610262565b34801561049157600080fd5b506102586104a03660046127f4565b6116a9565b3480156104b157600080fd5b5061028b6104c036600461286c565b60009182526065602090815260408084206001600160a01b0393909316845291905290205460ff1690565b3480156104f757600080fd5b506102586105063660046127f4565b6116f6565b34801561051757600080fd5b50610258600081565b34801561052c57600080fd5b5061025861173a565b34801561054157600080fd5b5061031f610550366004612853565b61176b565b34801561056157600080fd5b50610258611b3f565b34801561057657600080fd5b5061031f611bd0565b34801561058b57600080fd5b5061025860fe5481565b3480156105a157600080fd5b5061031f611c8a565b3480156105b657600080fd5b50610258611d92565b3480156105cb57600080fd5b5060fb5461046d906001600160a01b031681565b3480156105eb57600080fd5b5061031f6105fa36600461286c565b611dd1565b34801561060b57600080fd5b5061025860ff5481565b34801561062157600080fd5b506102587f189ab7a9244df0848122154315af71fe140f3db0fe014031783b0946b8c9d2e381565b34801561065557600080fd5b506102586106643660046127f4565b6001600160a01b03166000908152610100602052604090206001015490565b34801561068f57600080fd5b5061025861069e3660046127f4565b611df6565b6001600160a01b0381166000908152610100602052604081208054600390910154670de0b6b3a7640000906106d6611d92565b6106e091906129ba565b6001600160a01b0385166000908152610100602052604090206001015461070791906129cd565b61071191906129e4565b61071b9190612a06565b92915050565b60007fffffffff0000000000000000000000000000000000000000000000000000000082167f7965db0b00000000000000000000000000000000000000000000000000000000148061071b57507f01ffc9a7000000000000000000000000000000000000000000000000000000007fffffffff0000000000000000000000000000000000000000000000000000000083161461071b565b60006107c261173a565b6107ce9061016d6129cd565b6107d99060646129cd565b905090565b600060fd546000036107f05750600090565b610e106018601e60fd54610802611b3f565b61081490670de0b6b3a76400006129cd565b61081e91906129e4565b61082891906129e4565b61083291906129e4565b6107d991906129e4565b33610845611d92565b60ff554260fe55610855816106a3565b6001600160a01b03821660009081526101006020526040812091825560ff54600390920191909155610886336116a9565b3360009081526101006020526040812080546001909101549293509182906108af9085906129ba565b6108b99190612a06565b60fc546040516370a0823160e01b81523060048201529192506001600160a01b0316906370a0823190602401602060405180830381865afa158015610902573d6000803e3d6000fd5b505050506040513d601f19601f820116820180604052508101906109269190612a19565b81111561097a5760405162461bcd60e51b815260206004820181905260248201527f4e6f7420656e6f75676820746f6b656e7320696e20746865207265736572766560448201526064015b60405180910390fd5b336000908152610100602052604081206001015460fd8054919290916109a19084906129ba565b9091555050336000818152610100602052604080822082815560010182905560fc54905163a9059cbb60e01b815260048101939093526024830184905290916001600160a01b039091169063a9059cbb906044016020604051808303816000875af1158015610a14573d6000803e3d6000fd5b505050506040513d601f19601f82011682018060405250810190610a389190612a32565b905080610a875760405162461bcd60e51b815260206004820152601260248201527f4661696c656420746f207472616e7366657200000000000000000000000000006044820152606401610971565b60405182815233907f85082129d87b2fe11527cb1b3b7a520aeb5aa6913f88a3d8757fe40d1db02fdd9060200160405180910390a25050505050565b33610acc611d92565b60ff554260fe55610adc816106a3565b6001600160a01b0382166000908152610100602052604080822092835560ff546003909301929092553381522060010154821115610b5c5760405162461bcd60e51b815260206004820152601160248201527f416d6f756e74203c3d2062616c616e63650000000000000000000000000000006044820152606401610971565b60fc546040516370a0823160e01b81523060048201526001600160a01b03909116906370a0823190602401602060405180830381865afa158015610ba4573d6000803e3d6000fd5b505050506040513d601f19601f82011682018060405250810190610bc89190612a19565b821115610c175760405162461bcd60e51b815260206004820181905260248201527f4e6f7420656e6f75676820746f6b656e7320696e2074686520726573657276656044820152606401610971565b6000610c2233611df6565b905060006064610c3283866129cd565b610c3c91906129e4565b90506000610c4a82866129ba565b90508460fd6000828254610c5e91906129ba565b9091555050336000908152610100602052604081206001018054879290610c869084906129ba565b909155505060fc5460405163a9059cbb60e01b8152336004820152602481018390526000916001600160a01b03169063a9059cbb906044016020604051808303816000875af1158015610cdd573d6000803e3d6000fd5b505050506040513d601f19601f82011682018060405250810190610d019190612a32565b905080610d505760405162461bcd60e51b815260206004820152601260248201527f4661696c656420746f207472616e7366657200000000000000000000000000006044820152606401610971565b60405186815233907f884edad9ce6fa2440d8a54cc123490eb96d2768479d49ff9c7366125a94243649060200160405180910390a2505050505050565b600082815260656020526040902060010154610da881611e93565b610db28383611e9d565b505050565b6001600160a01b0381163314610e355760405162461bcd60e51b815260206004820152602f60248201527f416363657373436f6e74726f6c3a2063616e206f6e6c792072656e6f756e636560448201527f20726f6c657320666f722073656c6600000000000000000000000000000000006064820152608401610971565b610e3f8282611f3f565b5050565b6001600160a01b037f0000000000000000000000000000000000000000000000000000000000000000163003610ee15760405162461bcd60e51b815260206004820152602c60248201527f46756e6374696f6e206d7573742062652063616c6c6564207468726f7567682060448201527f64656c656761746563616c6c00000000000000000000000000000000000000006064820152608401610971565b7f00000000000000000000000000000000000000000000000000000000000000006001600160a01b0316610f3c7f360894a13ba1a3210667c828492db98dca3e2076cc3735a920a3ca505d382bbc546001600160a01b031690565b6001600160a01b031614610fb85760405162461bcd60e51b815260206004820152602c60248201527f46756e6374696f6e206d7573742062652063616c6c6564207468726f7567682060448201527f6163746976652070726f787900000000000000000000000000000000000000006064820152608401610971565b610fc181611fc2565b60408051600080825260208201909252610fdd91839190611fec565b50565b33610fe9611d92565b60ff554260fe55610ff9816106a3565b6001600160a01b038281166000908152610100602052604080822093845560ff546003909401939093553380825283822080549083905560fb54945163a9059cbb60e01b8152600481019290925260248201819052939192919091169063a9059cbb906044016020604051808303816000875af115801561107e573d6000803e3d6000fd5b505050506040513d601f19601f820116820180604052508101906110a29190612a32565b9050806110f15760405162461bcd60e51b815260206004820152601260248201527f4661696c656420746f207472616e7366657200000000000000000000000000006044820152606401610971565b60405182815233907f25c30c62c42b51e4f667b70ef60f1f683c376f6ace28312ed45a40665e01af379060200160405180910390a2505050565b600054610100900460ff161580801561114b5750600054600160ff909116105b806111655750303b158015611165575060005460ff166001145b6111d75760405162461bcd60e51b815260206004820152602e60248201527f496e697469616c697a61626c653a20636f6e747261637420697320616c72656160448201527f647920696e697469616c697a65640000000000000000000000000000000000006064820152608401610971565b6000805460ff1916600117905580156111fa576000805461ff0019166101001790555b61120261218c565b61120a61218c565b611215600033611e9d565b61123f7f189ab7a9244df0848122154315af71fe140f3db0fe014031783b0946b8c9d2e333611e9d565b60fc80546001600160a01b038086167fffffffffffffffffffffffff00000000000000000000000000000000000000009283161790925560fb80549285169290911691909117905542610101556040805161030081018252614e2080825260208201819052918101829052606081018290526080810182905260a0810182905260c0810182905260e08101829052610100810182905261012081018290526101408101829052610160810182905261018081018290526101a081018290526101c081018290526101e08101829052610200810182905261022081018290526102408101829052610260810182905261028081018290526102a081018290526102c081018290526102e081019190915261135d90610102906018612739565b506040805161020081018252600f8152600e6020820152600d91810191909152600c6060820152600b6080820152600a60a0820152600960c0820152600860e08201526007610100820152600661012082015260056101408201526004610160820152600361018082015260026101a082015260016101c082015260006101e08201526113ef9061010390601061278a565b508015610db2576000805461ff0019169055604051600181527f7f26b83ff96e1f2b6a682f133852f6798a09c465da95921460cefb38474024989060200160405180910390a1505050565b6001600160a01b037f00000000000000000000000000000000000000000000000000000000000000001630036114d85760405162461bcd60e51b815260206004820152602c60248201527f46756e6374696f6e206d7573742062652063616c6c6564207468726f7567682060448201527f64656c656761746563616c6c00000000000000000000000000000000000000006064820152608401610971565b7f00000000000000000000000000000000000000000000000000000000000000006001600160a01b03166115337f360894a13ba1a3210667c828492db98dca3e2076cc3735a920a3ca505d382bbc546001600160a01b031690565b6001600160a01b0316146115af5760405162461bcd60e51b815260206004820152602c60248201527f46756e6374696f6e206d7573742062652063616c6c6564207468726f7567682060448201527f6163746976652070726f787900000000000000000000000000000000000000006064820152608401610971565b6115b882611fc2565b610e3f82826001611fec565b6000306001600160a01b037f000000000000000000000000000000000000000000000000000000000000000016146116645760405162461bcd60e51b815260206004820152603860248201527f555550535570677261646561626c653a206d757374206e6f742062652063616c60448201527f6c6564207468726f7567682064656c656761746563616c6c00000000000000006064820152608401610971565b507f360894a13ba1a3210667c828492db98dca3e2076cc3735a920a3ca505d382bbc90565b6000670de0b6b3a764000060fd5461169f61173a565b61083291906129cd565b6000806116b583611df6565b6001600160a01b03841660009081526101006020526040812060010154919250906064906116e49084906129cd565b6116ee91906129e4565b949350505050565b6000670de0b6b3a764000061170961173a565b6001600160a01b0384166000908152610100602052604090206001015461173091906129cd565b61071b91906129e4565b600060fd5460000361174c5750600090565b601e60fd54611759611b3f565b61082890670de0b6b3a76400006129cd565b33611774611d92565b60ff554260fe55611784816106a3565b6001600160a01b0382166000908152610100602052604080822092835560ff5460039093019290925533815290812060010154900361181657680ad78ebc5ac62000008210156118165760405162461bcd60e51b815260206004820152600c60248201527f416d6f756e74203c2032303000000000000000000000000000000000000000006044820152606401610971565b60fc546040516370a0823160e01b81523360048201526001600160a01b03909116906370a0823190602401602060405180830381865afa15801561185e573d6000803e3d6000fd5b505050506040513d601f19601f820116820180604052508101906118829190612a19565b8211156118d15760405162461bcd60e51b815260206004820152600e60248201527f496e76616c696420616d6f756e740000000000000000000000000000000000006044820152606401610971565b60fc546040517fdd62ed3e0000000000000000000000000000000000000000000000000000000081523360048201523060248201526000916001600160a01b03169063dd62ed3e90604401602060405180830381865afa158015611939573d6000803e3d6000fd5b505050506040513d601f19601f8201168201806040525081019061195d9190612a19565b9050828110156119af5760405162461bcd60e51b815260206004820152601960248201527f436865636b2074686520746f6b656e20616c6c6f77616e6365000000000000006044820152606401610971565b336000908152610100602052604081206001015490036119e15733600090815261010060205260409020426002909101555b8260fd60008282546119f39190612a06565b9091555050336000908152610100602052604081206001018054859290611a1b908490612a06565b909155505060fc546040517f23b872dd000000000000000000000000000000000000000000000000000000008152336004820152306024820152604481018590526000916001600160a01b0316906323b872dd906064016020604051808303816000875af1158015611a91573d6000803e3d6000fd5b505050506040513d601f19601f82011682018060405250810190611ab59190612a32565b905080611b045760405162461bcd60e51b815260206004820152601660248201527f4661696c656420746f207472616e7366657246726f6d000000000000000000006044820152606401610971565b60405184815233907febedb8b3c678666e7f36970bc8f57abf6d8fa2e828c0da91ea5b75bf68ed101a9060200160405180910390a250505050565b60008042905060006018610e106101015484611b5b91906129ba565b611b6591906129e4565b611b6f91906129e4565b90506000611b7e601e836129e4565b61010254909150811015611bc6576101028181548110611ba057611ba0612a54565b9060005260206000200154670de0b6b3a7640000611bbe91906129cd565b935050505090565b6000935050505090565b33611bd9611d92565b60ff554260fe55611be9816106a3565b6001600160a01b0382166000908152610100602052604080822092835560ff5460039093019290925533815290812080548282556001909101805491928392611c33908490612a06565b925050819055508060fd6000828254611c4c9190612a06565b909155505060405181815233907f0579d728f0590feccc4760da42b3628fd0489e8dcb741007ec4d0b9bb427cf099060200160405180910390a25050565b6000611c9581611e93565b60fc546040516370a0823160e01b81523060048201526001600160a01b039091169063a9059cbb90339083906370a0823190602401602060405180830381865afa158015611ce7573d6000803e3d6000fd5b505050506040513d601f19601f82011682018060405250810190611d0b9190612a19565b6040517fffffffff0000000000000000000000000000000000000000000000000000000060e085901b1681526001600160a01b03909216600483015260248201526044016020604051808303816000875af1158015611d6e573d6000803e3d6000fd5b505050506040513d601f19601f82011682018060405250810190610e3f9190612a32565b600060fd54600003611da5575060ff5490565b611dad6107de565b60fe54611dba90426129ba565b611dc491906129cd565b60ff546107d99190612a06565b600082815260656020526040902060010154611dec81611e93565b610db28383611f3f565b6001600160a01b0381166000908152610100602052604081206002015442908290601890610e1090611e2890856129ba565b611e3291906129e4565b611e3c91906129e4565b905060008115611e5457611e516001836129ba565b90505b61010354811015611e88576101038181548110611e7357611e73612a54565b90600052602060002001549350505050919050565b506000949350505050565b610fdd813361220b565b60008281526065602090815260408083206001600160a01b038516845290915290205460ff16610e3f5760008281526065602090815260408083206001600160a01b03851684529091529020805460ff19166001179055611efb3390565b6001600160a01b0316816001600160a01b0316837f2f8788117e7eff1d82e926ec794901d17c78024a50270940304540a733656f0d60405160405180910390a45050565b60008281526065602090815260408083206001600160a01b038516845290915290205460ff1615610e3f5760008281526065602090815260408083206001600160a01b0385168085529252808320805460ff1916905551339285917ff6391f5c32d9c69d2a47ea670b442974b53935d1edc7fd64eb21e047a839171b9190a45050565b7f189ab7a9244df0848122154315af71fe140f3db0fe014031783b0946b8c9d2e3610e3f81611e93565b7f4910fdfa16fed3260ed0e7147f7cc6da11a60208b5b9406d12a635614ffd91435460ff161561201f57610db283612280565b826001600160a01b03166352d1902d6040518163ffffffff1660e01b8152600401602060405180830381865afa925050508015612079575060408051601f3d908101601f1916820190925261207691810190612a19565b60015b6120eb5760405162461bcd60e51b815260206004820152602e60248201527f45524331393637557067726164653a206e657720696d706c656d656e7461746960448201527f6f6e206973206e6f7420555550530000000000000000000000000000000000006064820152608401610971565b7f360894a13ba1a3210667c828492db98dca3e2076cc3735a920a3ca505d382bbc81146121805760405162461bcd60e51b815260206004820152602960248201527f45524331393637557067726164653a20756e737570706f727465642070726f7860448201527f6961626c655555494400000000000000000000000000000000000000000000006064820152608401610971565b50610db2838383612356565b600054610100900460ff166122095760405162461bcd60e51b815260206004820152602b60248201527f496e697469616c697a61626c653a20636f6e7472616374206973206e6f74206960448201527f6e697469616c697a696e670000000000000000000000000000000000000000006064820152608401610971565b565b60008281526065602090815260408083206001600160a01b038516845290915290205460ff16610e3f5761223e81612381565b612249836020612393565b60405160200161225a929190612a8e565b60408051601f198184030181529082905262461bcd60e51b825261097191600401612b0f565b6001600160a01b0381163b6122fd5760405162461bcd60e51b815260206004820152602d60248201527f455243313936373a206e657720696d706c656d656e746174696f6e206973206e60448201527f6f74206120636f6e7472616374000000000000000000000000000000000000006064820152608401610971565b7f360894a13ba1a3210667c828492db98dca3e2076cc3735a920a3ca505d382bbc80547fffffffffffffffffffffffff0000000000000000000000000000000000000000166001600160a01b0392909216919091179055565b61235f836125c3565b60008251118061236c5750805b15610db25761237b8383612603565b50505050565b606061071b6001600160a01b03831660145b606060006123a28360026129cd565b6123ad906002612a06565b67ffffffffffffffff8111156123c5576123c56128ca565b6040519080825280601f01601f1916602001820160405280156123ef576020820181803683370190505b5090507f30000000000000000000000000000000000000000000000000000000000000008160008151811061242657612426612a54565b60200101907effffffffffffffffffffffffffffffffffffffffffffffffffffffffffffff1916908160001a9053507f78000000000000000000000000000000000000000000000000000000000000008160018151811061248957612489612a54565b60200101907effffffffffffffffffffffffffffffffffffffffffffffffffffffffffffff1916908160001a90535060006124c58460026129cd565b6124d0906001612a06565b90505b600181111561256d577f303132333435363738396162636465660000000000000000000000000000000085600f166010811061251157612511612a54565b1a60f81b82828151811061252757612527612a54565b60200101907effffffffffffffffffffffffffffffffffffffffffffffffffffffffffffff1916908160001a90535060049490941c9361256681612b42565b90506124d3565b5083156125bc5760405162461bcd60e51b815260206004820181905260248201527f537472696e67733a20686578206c656e67746820696e73756666696369656e746044820152606401610971565b9392505050565b6125cc81612280565b6040516001600160a01b038216907fbc7cd75a20ee27fd9adebab32041f755214dbc6bffa90cc0225b39da2e5c2d3b90600090a250565b60606125bc8383604051806060016040528060278152602001612b94602791396060600080856001600160a01b0316856040516126409190612b77565b600060405180830381855af49150503d806000811461267b576040519150601f19603f3d011682016040523d82523d6000602084013e612680565b606091505b50915091506126918683838761269b565b9695505050505050565b6060831561270a578251600003612703576001600160a01b0385163b6127035760405162461bcd60e51b815260206004820152601d60248201527f416464726573733a2063616c6c20746f206e6f6e2d636f6e74726163740000006044820152606401610971565b50816116ee565b6116ee838381511561271f5781518083602001fd5b8060405162461bcd60e51b81526004016109719190612b0f565b82805482825590600052602060002090810192821561277a579160200282015b8281111561277a578251829061ffff16905591602001919060010190612759565b506127869291506127ca565b5090565b82805482825590600052602060002090810192821561277a579160200282015b8281111561277a578251829060ff169055916020019190600101906127aa565b5b8082111561278657600081556001016127cb565b6001600160a01b0381168114610fdd57600080fd5b60006020828403121561280657600080fd5b81356125bc816127df565b60006020828403121561282357600080fd5b81357fffffffff00000000000000000000000000000000000000000000000000000000811681146125bc57600080fd5b60006020828403121561286557600080fd5b5035919050565b6000806040838503121561287f57600080fd5b823591506020830135612891816127df565b809150509250929050565b600080604083850312156128af57600080fd5b82356128ba816127df565b91506020830135612891816127df565b634e487b7160e01b600052604160045260246000fd5b600080604083850312156128f357600080fd5b82356128fe816127df565b9150602083013567ffffffffffffffff8082111561291b57600080fd5b818501915085601f83011261292f57600080fd5b813581811115612941576129416128ca565b604051601f8201601f19908116603f01168101908382118183101715612969576129696128ca565b8160405282815288602084870101111561298257600080fd5b8260208601602083013760006020848301015280955050505050509250929050565b634e487b7160e01b600052601160045260246000fd5b8181038181111561071b5761071b6129a4565b808202811582820484141761071b5761071b6129a4565b600082612a0157634e487b7160e01b600052601260045260246000fd5b500490565b8082018082111561071b5761071b6129a4565b600060208284031215612a2b57600080fd5b5051919050565b600060208284031215612a4457600080fd5b815180151581146125bc57600080fd5b634e487b7160e01b600052603260045260246000fd5b60005b83811015612a85578181015183820152602001612a6d565b50506000910152565b7f416363657373436f6e74726f6c3a206163636f756e7420000000000000000000815260008351612ac6816017850160208801612a6a565b7f206973206d697373696e6720726f6c65200000000000000000000000000000006017918401918201528351612b03816028840160208801612a6a565b01602801949350505050565b6020815260008251806020840152612b2e816040850160208701612a6a565b601f01601f19169190910160400192915050565b600081612b5157612b516129a4565b507fffffffffffffffffffffffffffffffffffffffffffffffffffffffffffffffff0190565b60008251612b89818460208701612a6a565b919091019291505056fe416464726573733a206c6f772d6c6576656c2064656c65676174652063616c6c206661696c6564a264697066735822122022f5f5e5388e7e14d6035887d605622cf0746bb0144a5dcb58835d3a6a11219964736f6c63430008180033",
  "linkReferences": {},
  "deployedLinkReferences": {}
}