{
  "_format": "hh-sol-artifact-1",
  "contractName": "BHeroDetails",
  "sourceName": "contracts/BHeroDetails.sol",
  "abi": [
    {
      "inputs": [],
      "name": "ALL_RARITY",
      "outputs": [
        {
          "internalType": "uint256",
          "name": "",
          "type": "uint256"
        }
      ],
      "stateMutability": "view",
      "type": "function"
    },
    {
      "inputs": [],
      "name": "ALL_SKIN",
      "outputs": [
        {
          "internalType": "uint256",
          "name": "",
          "type": "uint256"
        }
      ],
      "stateMutability": "view",
      "type": "function"
    }
  ],
  "bytecode": "0x6091610038600b82828239805160001a607314602b57634e487b7160e01b600052600060045260246000fd5b30600052607381538281f3fe7300000000000000000000000000000000000000003014608060405260043610603d5760003560e01c806387670b23146042578063896f592e146042575b600080fd5b6049600081565b60405190815260200160405180910390f3fea26469706673582212206e52d7f1c72d956f9a1d4ae6a0aea01650727f9127848f140bdbbda67da4af5c64736f6c63430008180033",
  "linkReferences": {},
  "deployedLinkReferences": {}
}