{
  "_format": "hh-sol-artifact-1",
  "contractName": "SenPolygonPresale",
  "sourceName": "contracts/SenPolygonPresale.sol",
  "abi": [
    {
      "anonymous": false,
      "inputs": [
        {
          "indexed": false,
          "internalType": "address",
          "name": "previousAdmin",
          "type": "address"
        },
        {
          "indexed": false,
          "internalType": "address",
          "name": "newAdmin",
          "type": "address"
        }
      ],
      "name": "AdminChanged",
      "type": "event"
    },
    {
      "anonymous": false,
      "inputs": [
        {
          "indexed": true,
          "internalType": "address",
          "name": "beacon",
          "type": "address"
        }
      ],
      "name": "BeaconUpgraded",
      "type": "event"
    },
    {
      "anonymous": false,
      "inputs": [
        {
          "indexed": false,
          "internalType": "uint8",
          "name": "version",
          "type": "uint8"
        }
      ],
      "name": "Initialized",
      "type": "event"
    },
    {
      "anonymous": false,
      "inputs": [
        {
          "indexed": true,
          "internalType": "bytes32",
          "name": "role",
          "type": "bytes32"
        },
        {
          "indexed": true,
          "internalType": "bytes32",
          "name": "previousAdminRole",
          "type": "bytes32"
        },
        {
          "indexed": true,
          "internalType": "bytes32",
          "name": "newAdminRole",
          "type": "bytes32"
        }
      ],
      "name": "RoleAdminChanged",
      "type": "event"
    },
    {
      "anonymous": false,
      "inputs": [
        {
          "indexed": true,
          "internalType": "bytes32",
          "name": "role",
          "type": "bytes32"
        },
        {
          "indexed": true,
          "internalType": "address",
          "name": "account",
          "type": "address"
        },
        {
          "indexed": true,
          "internalType": "address",
          "name": "sender",
          "type": "address"
        }
      ],
      "name": "RoleGranted",
      "type": "event"
    },
    {
      "anonymous": false,
      "inputs": [
        {
          "indexed": true,
          "internalType": "bytes32",
          "name": "role",
          "type": "bytes32"
        },
        {
          "indexed": true,
          "internalType": "address",
          "name": "account",
          "type": "address"
        },
        {
          "indexed": true,
          "internalType": "address",
          "name": "sender",
          "type": "address"
        }
      ],
      "name": "RoleRevoked",
      "type": "event"
    },
    {
      "anonymous": false,
      "inputs": [
        {
          "indexed": true,
          "internalType": "address",
          "name": "implementation",
          "type": "address"
        }
      ],
      "name": "Upgraded",
      "type": "event"
    },
    {
      "inputs": [],
      "name": "DEFAULT_ADMIN_ROLE",
      "outputs": [
        {
          "internalType": "bytes32",
          "name": "",
          "type": "bytes32"
        }
      ],
      "stateMutability": "view",
      "type": "function"
    },
    {
      "inputs": [],
      "name": "DESIGNER_ROLE",
      "outputs": [
        {
          "internalType": "bytes32",
          "name": "",
          "type": "bytes32"
        }
      ],
      "stateMutability": "view",
      "type": "function"
    },
    {
      "inputs": [],
      "name": "UPGRADER_ROLE",
      "outputs": [
        {
          "internalType": "bytes32",
          "name": "",
          "type": "bytes32"
        }
      ],
      "stateMutability": "view",
      "type": "function"
    },
    {
      "inputs": [],
      "name": "WITHDRAWER_ROLE",
      "outputs": [
        {
          "internalType": "bytes32",
          "name": "",
          "type": "bytes32"
        }
      ],
      "stateMutability": "view",
      "type": "function"
    },
    {
      "inputs": [
        {
          "internalType": "address",
          "name": "receiver",
          "type": "address"
        },
        {
          "internalType": "uint256",
          "name": "amount",
          "type": "uint256"
        }
      ],
      "name": "adminWithdraw",
      "outputs": [],
      "stateMutability": "nonpayable",
      "type": "function"
    },
    {
      "inputs": [],
      "name": "amountBcoinDeposit",
      "outputs": [
        {
          "internalType": "uint256",
          "name": "",
          "type": "uint256"
        }
      ],
      "stateMutability": "view",
      "type": "function"
    },
    {
      "inputs": [],
      "name": "amountSenDeposit",
      "outputs": [
        {
          "internalType": "uint256",
          "name": "",
          "type": "uint256"
        }
      ],
      "stateMutability": "view",
      "type": "function"
    },
    {
      "inputs": [
        {
          "internalType": "address",
          "name": "",
          "type": "address"
        }
      ],
      "name": "bcoinBalances",
      "outputs": [
        {
          "internalType": "uint256",
          "name": "",
          "type": "uint256"
        }
      ],
      "stateMutability": "view",
      "type": "function"
    },
    {
      "inputs": [],
      "name": "bcoinToken",
      "outputs": [
        {
          "internalType": "contract IERC20",
          "name": "",
          "type": "address"
        }
      ],
      "stateMutability": "view",
      "type": "function"
    },
    {
      "inputs": [
        {
          "internalType": "uint256",
          "name": "amount",
          "type": "uint256"
        }
      ],
      "name": "depositBcoin",
      "outputs": [],
      "stateMutability": "nonpayable",
      "type": "function"
    },
    {
      "inputs": [
        {
          "internalType": "uint256",
          "name": "amount",
          "type": "uint256"
        }
      ],
      "name": "depositSen",
      "outputs": [],
      "stateMutability": "nonpayable",
      "type": "function"
    },
    {
      "inputs": [
        {
          "internalType": "bytes32",
          "name": "role",
          "type": "bytes32"
        }
      ],
      "name": "getRoleAdmin",
      "outputs": [
        {
          "internalType": "bytes32",
          "name": "",
          "type": "bytes32"
        }
      ],
      "stateMutability": "view",
      "type": "function"
    },
    {
      "inputs": [
        {
          "internalType": "bytes32",
          "name": "role",
          "type": "bytes32"
        },
        {
          "internalType": "address",
          "name": "account",
          "type": "address"
        }
      ],
      "name": "grantRole",
      "outputs": [],
      "stateMutability": "nonpayable",
      "type": "function"
    },
    {
      "inputs": [
        {
          "internalType": "bytes32",
          "name": "role",
          "type": "bytes32"
        },
        {
          "internalType": "address",
          "name": "account",
          "type": "address"
        }
      ],
      "name": "hasRole",
      "outputs": [
        {
          "internalType": "bool",
          "name": "",
          "type": "bool"
        }
      ],
      "stateMutability": "view",
      "type": "function"
    },
    {
      "inputs": [
        {
          "internalType": "contract IERC20",
          "name": "bcoinToken_",
          "type": "address"
        },
        {
          "internalType": "contract IERC20",
          "name": "senToken_",
          "type": "address"
        },
        {
          "internalType": "contract IERC20",
          "name": "usdtToken_",
          "type": "address"
        }
      ],
      "name": "initialize",
      "outputs": [],
      "stateMutability": "nonpayable",
      "type": "function"
    },
    {
      "inputs": [],
      "name": "isPause",
      "outputs": [
        {
          "internalType": "bool",
          "name": "",
          "type": "bool"
        }
      ],
      "stateMutability": "view",
      "type": "function"
    },
    {
      "inputs": [],
      "name": "isUserWithdraw",
      "outputs": [
        {
          "internalType": "bool",
          "name": "",
          "type": "bool"
        }
      ],
      "stateMutability": "view",
      "type": "function"
    },
    {
      "inputs": [],
      "name": "maxUSDT",
      "outputs": [
        {
          "internalType": "uint256",
          "name": "",
          "type": "uint256"
        }
      ],
      "stateMutability": "view",
      "type": "function"
    },
    {
      "inputs": [],
      "name": "minUSDT",
      "outputs": [
        {
          "internalType": "uint256",
          "name": "",
          "type": "uint256"
        }
      ],
      "stateMutability": "view",
      "type": "function"
    },
    {
      "inputs": [],
      "name": "proxiableUUID",
      "outputs": [
        {
          "internalType": "bytes32",
          "name": "",
          "type": "bytes32"
        }
      ],
      "stateMutability": "view",
      "type": "function"
    },
    {
      "inputs": [
        {
          "internalType": "bytes32",
          "name": "role",
          "type": "bytes32"
        },
        {
          "internalType": "address",
          "name": "account",
          "type": "address"
        }
      ],
      "name": "renounceRole",
      "outputs": [],
      "stateMutability": "nonpayable",
      "type": "function"
    },
    {
      "inputs": [
        {
          "internalType": "bytes32",
          "name": "role",
          "type": "bytes32"
        },
        {
          "internalType": "address",
          "name": "account",
          "type": "address"
        }
      ],
      "name": "revokeRole",
      "outputs": [],
      "stateMutability": "nonpayable",
      "type": "function"
    },
    {
      "inputs": [
        {
          "internalType": "address",
          "name": "",
          "type": "address"
        }
      ],
      "name": "senBalances",
      "outputs": [
        {
          "internalType": "uint256",
          "name": "",
          "type": "uint256"
        }
      ],
      "stateMutability": "view",
      "type": "function"
    },
    {
      "inputs": [],
      "name": "senToken",
      "outputs": [
        {
          "internalType": "contract IERC20",
          "name": "",
          "type": "address"
        }
      ],
      "stateMutability": "view",
      "type": "function"
    },
    {
      "inputs": [
        {
          "internalType": "uint256",
          "name": "amountBcoinDeposit_",
          "type": "uint256"
        }
      ],
      "name": "setAmountBcoinDeposit",
      "outputs": [],
      "stateMutability": "nonpayable",
      "type": "function"
    },
    {
      "inputs": [
        {
          "internalType": "uint256",
          "name": "amountSenDeposit_",
          "type": "uint256"
        }
      ],
      "name": "setAmountSenDeposit",
      "outputs": [],
      "stateMutability": "nonpayable",
      "type": "function"
    },
    {
      "inputs": [
        {
          "internalType": "contract IERC20",
          "name": "bcoinToken_",
          "type": "address"
        }
      ],
      "name": "setBcoinAddr",
      "outputs": [],
      "stateMutability": "nonpayable",
      "type": "function"
    },
    {
      "inputs": [
        {
          "internalType": "bool",
          "name": "isPause_",
          "type": "bool"
        }
      ],
      "name": "setIsPause",
      "outputs": [],
      "stateMutability": "nonpayable",
      "type": "function"
    },
    {
      "inputs": [
        {
          "internalType": "bool",
          "name": "isUserWithdraw_",
          "type": "bool"
        }
      ],
      "name": "setIsUserWithdraw",
      "outputs": [],
      "stateMutability": "nonpayable",
      "type": "function"
    },
    {
      "inputs": [
        {
          "internalType": "uint256",
          "name": "max_",
          "type": "uint256"
        }
      ],
      "name": "setMaxUSDT",
      "outputs": [],
      "stateMutability": "nonpayable",
      "type": "function"
    },
    {
      "inputs": [
        {
          "internalType": "uint256",
          "name": "min_",
          "type": "uint256"
        }
      ],
      "name": "setMinUSDT",
      "outputs": [],
      "stateMutability": "nonpayable",
      "type": "function"
    },
    {
      "inputs": [
        {
          "internalType": "contract IERC20",
          "name": "senToken_",
          "type": "address"
        }
      ],
      "name": "setSenAddr",
      "outputs": [],
      "stateMutability": "nonpayable",
      "type": "function"
    },
    {
      "inputs": [
        {
          "internalType": "contract IERC20",
          "name": "usdtToken_",
          "type": "address"
        }
      ],
      "name": "setUsdtAddr",
      "outputs": [],
      "stateMutability": "nonpayable",
      "type": "function"
    },
    {
      "inputs": [
        {
          "internalType": "bytes4",
          "name": "interfaceId",
          "type": "bytes4"
        }
      ],
      "name": "supportsInterface",
      "outputs": [
        {
          "internalType": "bool",
          "name": "",
          "type": "bool"
        }
      ],
      "stateMutability": "view",
      "type": "function"
    },
    {
      "inputs": [
        {
          "internalType": "address",
          "name": "newImplementation",
          "type": "address"
        }
      ],
      "name": "upgradeTo",
      "outputs": [],
      "stateMutability": "nonpayable",
      "type": "function"
    },
    {
      "inputs": [
        {
          "internalType": "address",
          "name": "newImplementation",
          "type": "address"
        },
        {
          "internalType": "bytes",
          "name": "data",
          "type": "bytes"
        }
      ],
      "name": "upgradeToAndCall",
      "outputs": [],
      "stateMutability": "payable",
      "type": "function"
    },
    {
      "inputs": [
        {
          "internalType": "address",
          "name": "",
          "type": "address"
        }
      ],
      "name": "usdtBalances",
      "outputs": [
        {
          "internalType": "uint256",
          "name": "",
          "type": "uint256"
        }
      ],
      "stateMutability": "view",
      "type": "function"
    },
    {
      "inputs": [],
      "name": "usdtToken",
      "outputs": [
        {
          "internalType": "contract IERC20",
          "name": "",
          "type": "address"
        }
      ],
      "stateMutability": "view",
      "type": "function"
    },
    {
      "inputs": [],
      "name": "withdraw",
      "outputs": [],
      "stateMutability": "nonpayable",
      "type": "function"
    }
  ],
  "bytecode": "0x60a06040523060805234801561001457600080fd5b5060805161279361004c60003960008181610a2301528181610ab901528181610efc01528181610f92015261108901526127936000f3fe6080604052600436106102a05760003560e01c806364fbaeaf1161016e578063a217fddf116100cb578063de7d69a81161007f578063f72c0d8b11610064578063f72c0d8b146107b1578063fc275f39146107e5578063ff0938a7146107fc57600080fd5b8063de7d69a81461075d578063df064ad81461077d57600080fd5b8063c0c53b8b116100b0578063c0c53b8b146106ef578063cc53a3001461070f578063d547741f1461073d57600080fd5b8063a217fddf146106ba578063a98ad46c146106cf57600080fd5b80638a5db17d116101225780638bfbc40c116101075780638bfbc40c1461062257806391d1485414610654578063993368051461069a57600080fd5b80638a5db17d146105e25780638bcb4b3f1461060257600080fd5b8063785cbd2b11610153578063785cbd2b1461056057806383d2e4121461058e57806385f438c1146105ae57600080fd5b806364fbaeaf146105295780636efce0861461054057600080fd5b806336568abe1161021c5780634f1ef286116101d0578063582489cb116101b5578063582489cb146104bb5780635b29a06f146104e95780635ccebb361461050957600080fd5b80634f1ef2861461049357806352d1902d146104a657600080fd5b80633ccfd60b116102015780633ccfd60b14610448578063401d44821461045d57806340dc51a41461047d57600080fd5b806336568abe146104085780633659cfe61461042857600080fd5b8063248a9ca3116102735780632f2ff15d116102585780632f2ff15d1461039a5780632fc11f8b146103ba5780633612cf5b146103d057600080fd5b8063248a9ca31461033c5780632cb08a621461037a57600080fd5b806301ffc9a7146102a557806302cef8b0146102da57806303a12fcf146102fc57806310bb162a1461031c575b600080fd5b3480156102b157600080fd5b506102c56102c0366004612348565b61081d565b60405190151581526020015b60405180910390f35b3480156102e657600080fd5b506102fa6102f5366004612398565b61082e565b005b34801561030857600080fd5b506102fa6103173660046123b5565b6108a3565b34801561032857600080fd5b506102fa6103373660046123e3565b6108d4565b34801561034857600080fd5b5061036c6103573660046123b5565b60009081526065602052604090206001015490565b6040519081526020016102d1565b34801561038657600080fd5b506102fa6103953660046123b5565b61092e565b3480156103a657600080fd5b506102fa6103b5366004612400565b61095e565b3480156103c657600080fd5b5061036c60ff5481565b3480156103dc57600080fd5b5060fc546103f0906001600160a01b031681565b6040516001600160a01b0390911681526020016102d1565b34801561041457600080fd5b506102fa610423366004612400565b610988565b34801561043457600080fd5b506102fa6104433660046123e3565b610a19565b34801561045457600080fd5b506102fa610bb6565b34801561046957600080fd5b506102fa610478366004612430565b610dfb565b34801561048957600080fd5b5061036c60fe5481565b6102fa6104a1366004612472565b610ef2565b3480156104b257600080fd5b5061036c61107c565b3480156104c757600080fd5b5061036c6104d63660046123e3565b6101026020526000908152604090205481565b3480156104f557600080fd5b506102fa610504366004612398565b611141565b34801561051557600080fd5b506102fa6105243660046123b5565b6111a5565b34801561053557600080fd5b5061036c6101045481565b34801561054c57600080fd5b506102fa61055b3660046123b5565b61140f565b34801561056c57600080fd5b5061036c61057b3660046123e3565b6101006020526000908152604090205481565b34801561059a57600080fd5b506102fa6105a93660046123b5565b611440565b3480156105ba57600080fd5b5061036c7f10dac8c06a04bec0b551627dad28bc00d6516b0caacd1c7b345fcdb5211334e481565b3480156105ee57600080fd5b5060fb546103f0906001600160a01b031681565b34801561060e57600080fd5b506102fa61061d3660046123b5565b611470565b34801561062e57600080fd5b5060fd546102c59074010000000000000000000000000000000000000000900460ff1681565b34801561066057600080fd5b506102c561066f366004612400565b60009182526065602090815260408084206001600160a01b0393909316845291905290205460ff1690565b3480156106a657600080fd5b506102fa6106b53660046123e3565b6116da565b3480156106c657600080fd5b5061036c600081565b3480156106db57600080fd5b5060fd546103f0906001600160a01b031681565b3480156106fb57600080fd5b506102fa61070a366004612536565b611734565b34801561071b57600080fd5b5061036c61072a3660046123e3565b6101016020526000908152604090205481565b34801561074957600080fd5b506102fa610758366004612400565b611988565b34801561076957600080fd5b506102fa6107783660046123e3565b6119ad565b34801561078957600080fd5b5061036c7f22c69ab406805e70d07fb1a6502af760601d3b977beadb295a9d76d5852e16a381565b3480156107bd57600080fd5b5061036c7f189ab7a9244df0848122154315af71fe140f3db0fe014031783b0946b8c9d2e381565b3480156107f157600080fd5b5061036c6101035481565b34801561080857600080fd5b5060fd546102c590600160a81b900460ff1681565b600061082882611a07565b92915050565b7f22c69ab406805e70d07fb1a6502af760601d3b977beadb295a9d76d5852e16a361085881611a9e565b5060fd805491151574010000000000000000000000000000000000000000027fffffffffffffffffffffff00ffffffffffffffffffffffffffffffffffffffff909216919091179055565b7f22c69ab406805e70d07fb1a6502af760601d3b977beadb295a9d76d5852e16a36108cd81611a9e565b5061010455565b7f22c69ab406805e70d07fb1a6502af760601d3b977beadb295a9d76d5852e16a36108fe81611a9e565b5060fc805473ffffffffffffffffffffffffffffffffffffffff19166001600160a01b0392909216919091179055565b7f22c69ab406805e70d07fb1a6502af760601d3b977beadb295a9d76d5852e16a361095881611a9e565b5060ff55565b60008281526065602052604090206001015461097981611a9e565b6109838383611aa8565b505050565b6001600160a01b0381163314610a0b5760405162461bcd60e51b815260206004820152602f60248201527f416363657373436f6e74726f6c3a2063616e206f6e6c792072656e6f756e636560448201527f20726f6c657320666f722073656c66000000000000000000000000000000000060648201526084015b60405180910390fd5b610a158282611b4a565b5050565b6001600160a01b037f0000000000000000000000000000000000000000000000000000000000000000163003610ab75760405162461bcd60e51b815260206004820152602c60248201527f46756e6374696f6e206d7573742062652063616c6c6564207468726f7567682060448201527f64656c656761746563616c6c00000000000000000000000000000000000000006064820152608401610a02565b7f00000000000000000000000000000000000000000000000000000000000000006001600160a01b0316610b127f360894a13ba1a3210667c828492db98dca3e2076cc3735a920a3ca505d382bbc546001600160a01b031690565b6001600160a01b031614610b8e5760405162461bcd60e51b815260206004820152602c60248201527f46756e6374696f6e206d7573742062652063616c6c6564207468726f7567682060448201527f6163746976652070726f787900000000000000000000000000000000000000006064820152608401610a02565b610b9781611bcd565b60408051600080825260208201909252610bb391839190611bf7565b50565b60fd5474010000000000000000000000000000000000000000900460ff16610c205760405162461bcd60e51b815260206004820152600e60248201527f416c6c6f772077697468647261770000000000000000000000000000000000006044820152606401610a02565b3360009081526101006020526040902054151580610c4d5750336000908152610101602052604090205415155b610c995760405162461bcd60e51b815260206004820152601860248201527f62616c616e6365735b6d73672e73656e6465725d203e203000000000000000006044820152606401610a02565b336000908152610100602052604090205415610d495760fb5433600081815261010060205260409081902054905163a9059cbb60e01b8152600481019290925260248201526001600160a01b039091169063a9059cbb906044016020604051808303816000875af1158015610d12573d6000803e3d6000fd5b505050506040513d601f19601f82011682018060405250810190610d369190612581565b5033600090815261010060205260408120555b336000908152610101602052604090205415610df95760fc5433600081815261010160205260409081902054905163a9059cbb60e01b8152600481019290925260248201526001600160a01b039091169063a9059cbb906044016020604051808303816000875af1158015610dc2573d6000803e3d6000fd5b505050506040513d601f19601f82011682018060405250810190610de69190612581565b5033600090815261010160205260408120555b565b7f10dac8c06a04bec0b551627dad28bc00d6516b0caacd1c7b345fcdb5211334e4610e2581611a9e565b60008211610e755760405162461bcd60e51b815260206004820152601d60248201527f416d6f756e74206d7573742062652067726561746572207468616e20300000006044820152606401610a02565b60fd5460405163a9059cbb60e01b81526001600160a01b038581166004830152602482018590529091169063a9059cbb906044016020604051808303816000875af1158015610ec8573d6000803e3d6000fd5b505050506040513d601f19601f82011682018060405250810190610eec9190612581565b50505050565b6001600160a01b037f0000000000000000000000000000000000000000000000000000000000000000163003610f905760405162461bcd60e51b815260206004820152602c60248201527f46756e6374696f6e206d7573742062652063616c6c6564207468726f7567682060448201527f64656c656761746563616c6c00000000000000000000000000000000000000006064820152608401610a02565b7f00000000000000000000000000000000000000000000000000000000000000006001600160a01b0316610feb7f360894a13ba1a3210667c828492db98dca3e2076cc3735a920a3ca505d382bbc546001600160a01b031690565b6001600160a01b0316146110675760405162461bcd60e51b815260206004820152602c60248201527f46756e6374696f6e206d7573742062652063616c6c6564207468726f7567682060448201527f6163746976652070726f787900000000000000000000000000000000000000006064820152608401610a02565b61107082611bcd565b610a1582826001611bf7565b6000306001600160a01b037f0000000000000000000000000000000000000000000000000000000000000000161461111c5760405162461bcd60e51b815260206004820152603860248201527f555550535570677261646561626c653a206d757374206e6f742062652063616c60448201527f6c6564207468726f7567682064656c656761746563616c6c00000000000000006064820152608401610a02565b507f360894a13ba1a3210667c828492db98dca3e2076cc3735a920a3ca505d382bbc90565b7f22c69ab406805e70d07fb1a6502af760601d3b977beadb295a9d76d5852e16a361116b81611a9e565b5060fd8054911515600160a81b027fffffffffffffffffffff00ffffffffffffffffffffffffffffffffffffffffff909216919091179055565b60fd54600160a81b900460ff16156111ff5760405162461bcd60e51b815260206004820152600960248201527f4e6f7420506175736500000000000000000000000000000000000000000000006044820152606401610a02565b610103548110156112525760405162461bcd60e51b815260206004820152601e60248201527f416d6f756e74206d7573742062652067726561746572207468616e20323000006044820152606401610a02565b6101045433600090815261010260205260409020546112729083906125b4565b11156112c05760405162461bcd60e51b815260206004820152601b60248201527f546f74616c206d757374206265206c657373207468616e2032303000000000006044820152606401610a02565b60fd546040516323b872dd60e01b8152336004820152306024820152604481018390526001600160a01b03909116906323b872dd906064016020604051808303816000875af1158015611317573d6000803e3d6000fd5b505050506040513d601f19601f8201168201806040525081019061133b9190612581565b5033600090815261010260205260408120805483929061135c9084906125b4565b909155505033600090815261010060205260408120549003610bb35760fb5460fe546040516323b872dd60e01b815233600482015230602482015260448101919091526001600160a01b03909116906323b872dd906064016020604051808303816000875af11580156113d3573d6000803e3d6000fd5b505050506040513d601f19601f820116820180604052508101906113f79190612581565b5060fe54336000908152610100602052604090205550565b7f22c69ab406805e70d07fb1a6502af760601d3b977beadb295a9d76d5852e16a361143981611a9e565b5061010355565b7f22c69ab406805e70d07fb1a6502af760601d3b977beadb295a9d76d5852e16a361146a81611a9e565b5060fe55565b60fd54600160a81b900460ff16156114ca5760405162461bcd60e51b815260206004820152600960248201527f4e6f7420506175736500000000000000000000000000000000000000000000006044820152606401610a02565b6101035481101561151d5760405162461bcd60e51b815260206004820152601e60248201527f416d6f756e74206d7573742062652067726561746572207468616e20323000006044820152606401610a02565b61010454336000908152610102602052604090205461153d9083906125b4565b111561158b5760405162461bcd60e51b815260206004820152601b60248201527f546f74616c206d757374206265206c657373207468616e2032303000000000006044820152606401610a02565b60fd546040516323b872dd60e01b8152336004820152306024820152604481018390526001600160a01b03909116906323b872dd906064016020604051808303816000875af11580156115e2573d6000803e3d6000fd5b505050506040513d601f19601f820116820180604052508101906116069190612581565b503360009081526101026020526040812080548392906116279084906125b4565b909155505033600090815261010160205260408120549003610bb35760fc5460ff546040516323b872dd60e01b815233600482015230602482015260448101919091526001600160a01b03909116906323b872dd906064016020604051808303816000875af115801561169e573d6000803e3d6000fd5b505050506040513d601f19601f820116820180604052508101906116c29190612581565b5060ff54336000908152610101602052604090205550565b7f22c69ab406805e70d07fb1a6502af760601d3b977beadb295a9d76d5852e16a361170481611a9e565b5060fb805473ffffffffffffffffffffffffffffffffffffffff19166001600160a01b0392909216919091179055565b600054610100900460ff16158080156117545750600054600160ff909116105b8061176e5750303b15801561176e575060005460ff166001145b6117e05760405162461bcd60e51b815260206004820152602e60248201527f496e697469616c697a61626c653a20636f6e747261637420697320616c72656160448201527f647920696e697469616c697a65640000000000000000000000000000000000006064820152608401610a02565b6000805460ff191660011790558015611803576000805461ff0019166101001790555b61180b611d97565b611813611d97565b60fb80546001600160a01b0380871673ffffffffffffffffffffffffffffffffffffffff199283161790925560fc8054868416921691909117905560fd80547fffffffffffffffffffff0000000000000000000000000000000000000000000016918416919091179055685150ae84a8cdf0000060fe5569010f0cf064dd5920000060ff556118a3600033611e14565b6118cd7f189ab7a9244df0848122154315af71fe140f3db0fe014031783b0946b8c9d2e333611e14565b6118f77f22c69ab406805e70d07fb1a6502af760601d3b977beadb295a9d76d5852e16a333611e14565b6119217f10dac8c06a04bec0b551627dad28bc00d6516b0caacd1c7b345fcdb5211334e433611e14565b6801158e460913d0000061010355680ad78ebc5ac6200000610104558015610eec576000805461ff0019169055604051600181527f7f26b83ff96e1f2b6a682f133852f6798a09c465da95921460cefb38474024989060200160405180910390a150505050565b6000828152606560205260409020600101546119a381611a9e565b6109838383611b4a565b7f22c69ab406805e70d07fb1a6502af760601d3b977beadb295a9d76d5852e16a36119d781611a9e565b5060fd805473ffffffffffffffffffffffffffffffffffffffff19166001600160a01b0392909216919091179055565b60007fffffffff0000000000000000000000000000000000000000000000000000000082167f7965db0b00000000000000000000000000000000000000000000000000000000148061082857507f01ffc9a7000000000000000000000000000000000000000000000000000000007fffffffff00000000000000000000000000000000000000000000000000000000831614610828565b610bb38133611e1e565b60008281526065602090815260408083206001600160a01b038516845290915290205460ff16610a155760008281526065602090815260408083206001600160a01b03851684529091529020805460ff19166001179055611b063390565b6001600160a01b0316816001600160a01b0316837f2f8788117e7eff1d82e926ec794901d17c78024a50270940304540a733656f0d60405160405180910390a45050565b60008281526065602090815260408083206001600160a01b038516845290915290205460ff1615610a155760008281526065602090815260408083206001600160a01b0385168085529252808320805460ff1916905551339285917ff6391f5c32d9c69d2a47ea670b442974b53935d1edc7fd64eb21e047a839171b9190a45050565b7f189ab7a9244df0848122154315af71fe140f3db0fe014031783b0946b8c9d2e3610a1581611a9e565b7f4910fdfa16fed3260ed0e7147f7cc6da11a60208b5b9406d12a635614ffd91435460ff1615611c2a5761098383611e93565b826001600160a01b03166352d1902d6040518163ffffffff1660e01b8152600401602060405180830381865afa925050508015611c84575060408051601f3d908101601f19168201909252611c81918101906125c7565b60015b611cf65760405162461bcd60e51b815260206004820152602e60248201527f45524331393637557067726164653a206e657720696d706c656d656e7461746960448201527f6f6e206973206e6f7420555550530000000000000000000000000000000000006064820152608401610a02565b7f360894a13ba1a3210667c828492db98dca3e2076cc3735a920a3ca505d382bbc8114611d8b5760405162461bcd60e51b815260206004820152602960248201527f45524331393637557067726164653a20756e737570706f727465642070726f7860448201527f6961626c655555494400000000000000000000000000000000000000000000006064820152608401610a02565b50610983838383611f5e565b600054610100900460ff16610df95760405162461bcd60e51b815260206004820152602b60248201527f496e697469616c697a61626c653a20636f6e7472616374206973206e6f74206960448201527f6e697469616c697a696e670000000000000000000000000000000000000000006064820152608401610a02565b610a158282611aa8565b60008281526065602090815260408083206001600160a01b038516845290915290205460ff16610a1557611e5181611f83565b611e5c836020611f95565b604051602001611e6d929190612604565b60408051601f198184030181529082905262461bcd60e51b8252610a0291600401612685565b6001600160a01b0381163b611f105760405162461bcd60e51b815260206004820152602d60248201527f455243313936373a206e657720696d706c656d656e746174696f6e206973206e60448201527f6f74206120636f6e7472616374000000000000000000000000000000000000006064820152608401610a02565b7f360894a13ba1a3210667c828492db98dca3e2076cc3735a920a3ca505d382bbc805473ffffffffffffffffffffffffffffffffffffffff19166001600160a01b0392909216919091179055565b611f67836121c5565b600082511180611f745750805b1561098357610eec8383612205565b60606108286001600160a01b03831660145b60606000611fa48360026126b8565b611faf9060026125b4565b67ffffffffffffffff811115611fc757611fc761245c565b6040519080825280601f01601f191660200182016040528015611ff1576020820181803683370190505b5090507f300000000000000000000000000000000000000000000000000000000000000081600081518110612028576120286126cf565b60200101907effffffffffffffffffffffffffffffffffffffffffffffffffffffffffffff1916908160001a9053507f78000000000000000000000000000000000000000000000000000000000000008160018151811061208b5761208b6126cf565b60200101907effffffffffffffffffffffffffffffffffffffffffffffffffffffffffffff1916908160001a90535060006120c78460026126b8565b6120d29060016125b4565b90505b600181111561216f577f303132333435363738396162636465660000000000000000000000000000000085600f1660108110612113576121136126cf565b1a60f81b828281518110612129576121296126cf565b60200101907effffffffffffffffffffffffffffffffffffffffffffffffffffffffffffff1916908160001a90535060049490941c93612168816126e5565b90506120d5565b5083156121be5760405162461bcd60e51b815260206004820181905260248201527f537472696e67733a20686578206c656e67746820696e73756666696369656e746044820152606401610a02565b9392505050565b6121ce81611e93565b6040516001600160a01b038216907fbc7cd75a20ee27fd9adebab32041f755214dbc6bffa90cc0225b39da2e5c2d3b90600090a250565b60606121be8383604051806060016040528060278152602001612737602791396060600080856001600160a01b031685604051612242919061271a565b600060405180830381855af49150503d806000811461227d576040519150601f19603f3d011682016040523d82523d6000602084013e612282565b606091505b50915091506122938683838761229d565b9695505050505050565b6060831561230c578251600003612305576001600160a01b0385163b6123055760405162461bcd60e51b815260206004820152601d60248201527f416464726573733a2063616c6c20746f206e6f6e2d636f6e74726163740000006044820152606401610a02565b5081612316565b612316838361231e565b949350505050565b81511561232e5781518083602001fd5b8060405162461bcd60e51b8152600401610a029190612685565b60006020828403121561235a57600080fd5b81357fffffffff00000000000000000000000000000000000000000000000000000000811681146121be57600080fd5b8015158114610bb357600080fd5b6000602082840312156123aa57600080fd5b81356121be8161238a565b6000602082840312156123c757600080fd5b5035919050565b6001600160a01b0381168114610bb357600080fd5b6000602082840312156123f557600080fd5b81356121be816123ce565b6000806040838503121561241357600080fd5b823591506020830135612425816123ce565b809150509250929050565b6000806040838503121561244357600080fd5b823561244e816123ce565b946020939093013593505050565b634e487b7160e01b600052604160045260246000fd5b6000806040838503121561248557600080fd5b8235612490816123ce565b9150602083013567ffffffffffffffff808211156124ad57600080fd5b818501915085601f8301126124c157600080fd5b8135818111156124d3576124d361245c565b604051601f8201601f19908116603f011681019083821181831017156124fb576124fb61245c565b8160405282815288602084870101111561251457600080fd5b8260208601602083013760006020848301015280955050505050509250929050565b60008060006060848603121561254b57600080fd5b8335612556816123ce565b92506020840135612566816123ce565b91506040840135612576816123ce565b809150509250925092565b60006020828403121561259357600080fd5b81516121be8161238a565b634e487b7160e01b600052601160045260246000fd5b808201808211156108285761082861259e565b6000602082840312156125d957600080fd5b5051919050565b60005b838110156125fb5781810151838201526020016125e3565b50506000910152565b7f416363657373436f6e74726f6c3a206163636f756e742000000000000000000081526000835161263c8160178501602088016125e0565b7f206973206d697373696e6720726f6c652000000000000000000000000000000060179184019182015283516126798160288401602088016125e0565b01602801949350505050565b60208152600082518060208401526126a48160408501602087016125e0565b601f01601f19169190910160400192915050565b80820281158282048414176108285761082861259e565b634e487b7160e01b600052603260045260246000fd5b6000816126f4576126f461259e565b507fffffffffffffffffffffffffffffffffffffffffffffffffffffffffffffffff0190565b6000825161272c8184602087016125e0565b919091019291505056fe416464726573733a206c6f772d6c6576656c2064656c65676174652063616c6c206661696c6564a2646970667358221220cfabf426b521023bd318d7099bc0ccf216a32f0caa65c1de4478aa6a3d6a379664736f6c63430008180033",
  "linkReferences": {},
  "deployedLinkReferences": {}
}