{
  "_format": "hh-sol-artifact-1",
  "contractName": "SensparkToken",
  "sourceName": "contracts/SensparkToken.sol",
  "abi": [
    {
      "anonymous": false,
      "inputs": [
        {
          "indexed": false,
          "internalType": "address",
          "name": "previousAdmin",
          "type": "address"
        },
        {
          "indexed": false,
          "internalType": "address",
          "name": "newAdmin",
          "type": "address"
        }
      ],
      "name": "AdminChanged",
      "type": "event"
    },
    {
      "anonymous": false,
      "inputs": [
        {
          "indexed": true,
          "internalType": "address",
          "name": "owner",
          "type": "address"
        },
        {
          "indexed": true,
          "internalType": "address",
          "name": "spender",
          "type": "address"
        },
        {
          "indexed": false,
          "internalType": "uint256",
          "name": "value",
          "type": "uint256"
        }
      ],
      "name": "Approval",
      "type": "event"
    },
    {
      "anonymous": false,
      "inputs": [
        {
          "indexed": true,
          "internalType": "address",
          "name": "beacon",
          "type": "address"
        }
      ],
      "name": "BeaconUpgraded",
      "type": "event"
    },
    {
      "anonymous": false,
      "inputs": [
        {
          "indexed": false,
          "internalType": "uint8",
          "name": "version",
          "type": "uint8"
        }
      ],
      "name": "Initialized",
      "type": "event"
    },
    {
      "anonymous": false,
      "inputs": [
        {
          "indexed": false,
          "internalType": "address",
          "name": "account",
          "type": "address"
        }
      ],
      "name": "Paused",
      "type": "event"
    },
    {
      "anonymous": false,
      "inputs": [
        {
          "indexed": true,
          "internalType": "bytes32",
          "name": "role",
          "type": "bytes32"
        },
        {
          "indexed": true,
          "internalType": "bytes32",
          "name": "previousAdminRole",
          "type": "bytes32"
        },
        {
          "indexed": true,
          "internalType": "bytes32",
          "name": "newAdminRole",
          "type": "bytes32"
        }
      ],
      "name": "RoleAdminChanged",
      "type": "event"
    },
    {
      "anonymous": false,
      "inputs": [
        {
          "indexed": true,
          "internalType": "bytes32",
          "name": "role",
          "type": "bytes32"
        },
        {
          "indexed": true,
          "internalType": "address",
          "name": "account",
          "type": "address"
        },
        {
          "indexed": true,
          "internalType": "address",
          "name": "sender",
          "type": "address"
        }
      ],
      "name": "RoleGranted",
      "type": "event"
    },
    {
      "anonymous": false,
      "inputs": [
        {
          "indexed": true,
          "internalType": "bytes32",
          "name": "role",
          "type": "bytes32"
        },
        {
          "indexed": true,
          "internalType": "address",
          "name": "account",
          "type": "address"
        },
        {
          "indexed": true,
          "internalType": "address",
          "name": "sender",
          "type": "address"
        }
      ],
      "name": "RoleRevoked",
      "type": "event"
    },
    {
      "anonymous": false,
      "inputs": [
        {
          "indexed": true,
          "internalType": "address",
          "name": "from",
          "type": "address"
        },
        {
          "indexed": true,
          "internalType": "address",
          "name": "to",
          "type": "address"
        },
        {
          "indexed": false,
          "internalType": "uint256",
          "name": "value",
          "type": "uint256"
        }
      ],
      "name": "Transfer",
      "type": "event"
    },
    {
      "anonymous": false,
      "inputs": [
        {
          "indexed": false,
          "internalType": "address",
          "name": "account",
          "type": "address"
        }
      ],
      "name": "Unpaused",
      "type": "event"
    },
    {
      "anonymous": false,
      "inputs": [
        {
          "indexed": true,
          "internalType": "address",
          "name": "implementation",
          "type": "address"
        }
      ],
      "name": "Upgraded",
      "type": "event"
    },
    {
      "inputs": [],
      "name": "DEFAULT_ADMIN_ROLE",
      "outputs": [
        {
          "internalType": "bytes32",
          "name": "",
          "type": "bytes32"
        }
      ],
      "stateMutability": "view",
      "type": "function"
    },
    {
      "inputs": [],
      "name": "MINTER_ROLE",
      "outputs": [
        {
          "internalType": "bytes32",
          "name": "",
          "type": "bytes32"
        }
      ],
      "stateMutability": "view",
      "type": "function"
    },
    {
      "inputs": [],
      "name": "PAUSER_ROLE",
      "outputs": [
        {
          "internalType": "bytes32",
          "name": "",
          "type": "bytes32"
        }
      ],
      "stateMutability": "view",
      "type": "function"
    },
    {
      "inputs": [],
      "name": "UPGRADER_ROLE",
      "outputs": [
        {
          "internalType": "bytes32",
          "name": "",
          "type": "bytes32"
        }
      ],
      "stateMutability": "view",
      "type": "function"
    },
    {
      "inputs": [
        {
          "internalType": "address",
          "name": "owner",
          "type": "address"
        },
        {
          "internalType": "address",
          "name": "spender",
          "type": "address"
        }
      ],
      "name": "allowance",
      "outputs": [
        {
          "internalType": "uint256",
          "name": "",
          "type": "uint256"
        }
      ],
      "stateMutability": "view",
      "type": "function"
    },
    {
      "inputs": [
        {
          "internalType": "address",
          "name": "spender",
          "type": "address"
        },
        {
          "internalType": "uint256",
          "name": "amount",
          "type": "uint256"
        }
      ],
      "name": "approve",
      "outputs": [
        {
          "internalType": "bool",
          "name": "",
          "type": "bool"
        }
      ],
      "stateMutability": "nonpayable",
      "type": "function"
    },
    {
      "inputs": [
        {
          "internalType": "address",
          "name": "account",
          "type": "address"
        }
      ],
      "name": "balanceOf",
      "outputs": [
        {
          "internalType": "uint256",
          "name": "",
          "type": "uint256"
        }
      ],
      "stateMutability": "view",
      "type": "function"
    },
    {
      "inputs": [
        {
          "internalType": "uint256",
          "name": "amount",
          "type": "uint256"
        }
      ],
      "name": "burn",
      "outputs": [],
      "stateMutability": "nonpayable",
      "type": "function"
    },
    {
      "inputs": [
        {
          "internalType": "address",
          "name": "account",
          "type": "address"
        },
        {
          "internalType": "uint256",
          "name": "amount",
          "type": "uint256"
        }
      ],
      "name": "burnFrom",
      "outputs": [],
      "stateMutability": "nonpayable",
      "type": "function"
    },
    {
      "inputs": [],
      "name": "decimals",
      "outputs": [
        {
          "internalType": "uint8",
          "name": "",
          "type": "uint8"
        }
      ],
      "stateMutability": "view",
      "type": "function"
    },
    {
      "inputs": [
        {
          "internalType": "address",
          "name": "spender",
          "type": "address"
        },
        {
          "internalType": "uint256",
          "name": "subtractedValue",
          "type": "uint256"
        }
      ],
      "name": "decreaseAllowance",
      "outputs": [
        {
          "internalType": "bool",
          "name": "",
          "type": "bool"
        }
      ],
      "stateMutability": "nonpayable",
      "type": "function"
    },
    {
      "inputs": [
        {
          "internalType": "bytes32",
          "name": "role",
          "type": "bytes32"
        }
      ],
      "name": "getRoleAdmin",
      "outputs": [
        {
          "internalType": "bytes32",
          "name": "",
          "type": "bytes32"
        }
      ],
      "stateMutability": "view",
      "type": "function"
    },
    {
      "inputs": [
        {
          "internalType": "bytes32",
          "name": "role",
          "type": "bytes32"
        },
        {
          "internalType": "address",
          "name": "account",
          "type": "address"
        }
      ],
      "name": "grantRole",
      "outputs": [],
      "stateMutability": "nonpayable",
      "type": "function"
    },
    {
      "inputs": [
        {
          "internalType": "bytes32",
          "name": "role",
          "type": "bytes32"
        },
        {
          "internalType": "address",
          "name": "account",
          "type": "address"
        }
      ],
      "name": "hasRole",
      "outputs": [
        {
          "internalType": "bool",
          "name": "",
          "type": "bool"
        }
      ],
      "stateMutability": "view",
      "type": "function"
    },
    {
      "inputs": [
        {
          "internalType": "address",
          "name": "spender",
          "type": "address"
        },
        {
          "internalType": "uint256",
          "name": "addedValue",
          "type": "uint256"
        }
      ],
      "name": "increaseAllowance",
      "outputs": [
        {
          "internalType": "bool",
          "name": "",
          "type": "bool"
        }
      ],
      "stateMutability": "nonpayable",
      "type": "function"
    },
    {
      "inputs": [],
      "name": "initialize",
      "outputs": [],
      "stateMutability": "nonpayable",
      "type": "function"
    },
    {
      "inputs": [
        {
          "internalType": "address",
          "name": "to",
          "type": "address"
        },
        {
          "internalType": "uint256",
          "name": "amount",
          "type": "uint256"
        }
      ],
      "name": "mint",
      "outputs": [],
      "stateMutability": "nonpayable",
      "type": "function"
    },
    {
      "inputs": [],
      "name": "name",
      "outputs": [
        {
          "internalType": "string",
          "name": "",
          "type": "string"
        }
      ],
      "stateMutability": "view",
      "type": "function"
    },
    {
      "inputs": [],
      "name": "pause",
      "outputs": [],
      "stateMutability": "nonpayable",
      "type": "function"
    },
    {
      "inputs": [],
      "name": "paused",
      "outputs": [
        {
          "internalType": "bool",
          "name": "",
          "type": "bool"
        }
      ],
      "stateMutability": "view",
      "type": "function"
    },
    {
      "inputs": [],
      "name": "proxiableUUID",
      "outputs": [
        {
          "internalType": "bytes32",
          "name": "",
          "type": "bytes32"
        }
      ],
      "stateMutability": "view",
      "type": "function"
    },
    {
      "inputs": [
        {
          "internalType": "bytes32",
          "name": "role",
          "type": "bytes32"
        },
        {
          "internalType": "address",
          "name": "account",
          "type": "address"
        }
      ],
      "name": "renounceRole",
      "outputs": [],
      "stateMutability": "nonpayable",
      "type": "function"
    },
    {
      "inputs": [
        {
          "internalType": "bytes32",
          "name": "role",
          "type": "bytes32"
        },
        {
          "internalType": "address",
          "name": "account",
          "type": "address"
        }
      ],
      "name": "revokeRole",
      "outputs": [],
      "stateMutability": "nonpayable",
      "type": "function"
    },
    {
      "inputs": [
        {
          "internalType": "bytes32",
          "name": "role",
          "type": "bytes32"
        },
        {
          "internalType": "bytes32",
          "name": "adminRole",
          "type": "bytes32"
        }
      ],
      "name": "setRoleAdmin",
      "outputs": [],
      "stateMutability": "nonpayable",
      "type": "function"
    },
    {
      "inputs": [
        {
          "internalType": "bytes4",
          "name": "interfaceId",
          "type": "bytes4"
        }
      ],
      "name": "supportsInterface",
      "outputs": [
        {
          "internalType": "bool",
          "name": "",
          "type": "bool"
        }
      ],
      "stateMutability": "view",
      "type": "function"
    },
    {
      "inputs": [],
      "name": "symbol",
      "outputs": [
        {
          "internalType": "string",
          "name": "",
          "type": "string"
        }
      ],
      "stateMutability": "view",
      "type": "function"
    },
    {
      "inputs": [],
      "name": "totalSupply",
      "outputs": [
        {
          "internalType": "uint256",
          "name": "",
          "type": "uint256"
        }
      ],
      "stateMutability": "view",
      "type": "function"
    },
    {
      "inputs": [
        {
          "internalType": "address",
          "name": "to",
          "type": "address"
        },
        {
          "internalType": "uint256",
          "name": "amount",
          "type": "uint256"
        }
      ],
      "name": "transfer",
      "outputs": [
        {
          "internalType": "bool",
          "name": "",
          "type": "bool"
        }
      ],
      "stateMutability": "nonpayable",
      "type": "function"
    },
    {
      "inputs": [
        {
          "internalType": "address",
          "name": "from",
          "type": "address"
        },
        {
          "internalType": "address",
          "name": "to",
          "type": "address"
        },
        {
          "internalType": "uint256",
          "name": "amount",
          "type": "uint256"
        }
      ],
      "name": "transferFrom",
      "outputs": [
        {
          "internalType": "bool",
          "name": "",
          "type": "bool"
        }
      ],
      "stateMutability": "nonpayable",
      "type": "function"
    },
    {
      "inputs": [],
      "name": "unpause",
      "outputs": [],
      "stateMutability": "nonpayable",
      "type": "function"
    },
    {
      "inputs": [
        {
          "internalType": "address",
          "name": "newImplementation",
          "type": "address"
        }
      ],
      "name": "upgradeTo",
      "outputs": [],
      "stateMutability": "nonpayable",
      "type": "function"
    },
    {
      "inputs": [
        {
          "internalType": "address",
          "name": "newImplementation",
          "type": "address"
        },
        {
          "internalType": "bytes",
          "name": "data",
          "type": "bytes"
        }
      ],
      "name": "upgradeToAndCall",
      "outputs": [],
      "stateMutability": "payable",
      "type": "function"
    }
  ],
  "bytecode": "0x60a06040523060805234801561001457600080fd5b5060805161283761004c600039600081816108a40152818161093a01528181610af001528181610b860152610c7d01526128376000f3fe6080604052600436106101e35760003560e01c806352d1902d11610102578063a217fddf11610095578063d547741f11610064578063d547741f14610585578063dd62ed3e146105a5578063e63ab1e9146105eb578063f72c0d8b1461061f57600080fd5b8063a217fddf146104fc578063a457c2d714610511578063a9059cbb14610531578063d53913931461055157600080fd5b80638129fc1c116100d15780638129fc1c146104775780638456cb591461048c57806391d14854146104a157806395d89b41146104e757600080fd5b806352d1902d146103f45780635c975abb1461040957806370a082311461042157806379cc67901461045757600080fd5b8063313ce5671161017a5780633f4ba83a116101495780633f4ba83a1461038c57806340c10f19146103a157806342966c68146103c15780634f1ef286146103e157600080fd5b8063313ce5671461031057806336568abe1461032c5780633659cfe61461034c578063395093511461036c57600080fd5b80631e4e0091116101b65780631e4e00911461027e57806323b872dd146102a0578063248a9ca3146102c05780632f2ff15d146102f057600080fd5b806301ffc9a7146101e857806306fdde031461021d578063095ea7b31461023f57806318160ddd1461025f575b600080fd5b3480156101f457600080fd5b506102086102033660046122ce565b610653565b60405190151581526020015b60405180910390f35b34801561022957600080fd5b506102326106ec565b6040516102149190612334565b34801561024b57600080fd5b5061020861025a366004612383565b61077e565b34801561026b57600080fd5b506035545b604051908152602001610214565b34801561028a57600080fd5b5061029e6102993660046123ad565b610796565b005b3480156102ac57600080fd5b506102086102bb3660046123cf565b6107c0565b3480156102cc57600080fd5b506102706102db36600461240b565b600090815260c9602052604090206001015490565b3480156102fc57600080fd5b5061029e61030b366004612424565b6107e4565b34801561031c57600080fd5b5060405160128152602001610214565b34801561033857600080fd5b5061029e610347366004612424565b610809565b34801561035857600080fd5b5061029e610367366004612450565b61089a565b34801561037857600080fd5b50610208610387366004612383565b610a37565b34801561039857600080fd5b5061029e610a76565b3480156103ad57600080fd5b5061029e6103bc366004612383565b610aa8565b3480156103cd57600080fd5b5061029e6103dc36600461240b565b610adc565b61029e6103ef366004612481565b610ae6565b34801561040057600080fd5b50610270610c70565b34801561041557600080fd5b5060fb5460ff16610208565b34801561042d57600080fd5b5061027061043c366004612450565b6001600160a01b031660009081526033602052604090205490565b34801561046357600080fd5b5061029e610472366004612383565b610d35565b34801561048357600080fd5b5061029e610d4a565b34801561049857600080fd5b5061029e610f7e565b3480156104ad57600080fd5b506102086104bc366004612424565b600091825260c9602090815260408084206001600160a01b0393909316845291905290205460ff1690565b3480156104f357600080fd5b50610232610fb0565b34801561050857600080fd5b50610270600081565b34801561051d57600080fd5b5061020861052c366004612383565b610fbf565b34801561053d57600080fd5b5061020861054c366004612383565b611069565b34801561055d57600080fd5b506102707f9f2df0fed2c77648de5860a4cc508cd0818c85b8b8a1ab4ceeef8d981c8956a681565b34801561059157600080fd5b5061029e6105a0366004612424565b611077565b3480156105b157600080fd5b506102706105c0366004612543565b6001600160a01b03918216600090815260346020908152604080832093909416825291909152205490565b3480156105f757600080fd5b506102707f65d7a28e3265b37a6474929f336521b332c1681b933f6cb9f3376673440d862a81565b34801561062b57600080fd5b506102707f189ab7a9244df0848122154315af71fe140f3db0fe014031783b0946b8c9d2e381565b60007fffffffff0000000000000000000000000000000000000000000000000000000082167f7965db0b0000000000000000000000000000000000000000000000000000000014806106e657507f01ffc9a7000000000000000000000000000000000000000000000000000000007fffffffff000000000000000000000000000000000000000000000000000000008316145b92915050565b6060603680546106fb9061256d565b80601f01602080910402602001604051908101604052809291908181526020018280546107279061256d565b80156107745780601f1061074957610100808354040283529160200191610774565b820191906000526020600020905b81548152906001019060200180831161075757829003601f168201915b5050505050905090565b60003361078c81858561109c565b5060019392505050565b600082815260c960205260409020600101546107b1816111f4565b6107bb83836111fe565b505050565b6000336107ce858285611249565b6107d98585856112db565b506001949350505050565b600082815260c960205260409020600101546107ff816111f4565b6107bb83836114da565b6001600160a01b038116331461088c5760405162461bcd60e51b815260206004820152602f60248201527f416363657373436f6e74726f6c3a2063616e206f6e6c792072656e6f756e636560448201527f20726f6c657320666f722073656c66000000000000000000000000000000000060648201526084015b60405180910390fd5b610896828261157c565b5050565b6001600160a01b037f00000000000000000000000000000000000000000000000000000000000000001630036109385760405162461bcd60e51b815260206004820152602c60248201527f46756e6374696f6e206d7573742062652063616c6c6564207468726f7567682060448201527f64656c656761746563616c6c00000000000000000000000000000000000000006064820152608401610883565b7f00000000000000000000000000000000000000000000000000000000000000006001600160a01b03166109937f360894a13ba1a3210667c828492db98dca3e2076cc3735a920a3ca505d382bbc546001600160a01b031690565b6001600160a01b031614610a0f5760405162461bcd60e51b815260206004820152602c60248201527f46756e6374696f6e206d7573742062652063616c6c6564207468726f7567682060448201527f6163746976652070726f787900000000000000000000000000000000000000006064820152608401610883565b610a18816115ff565b60408051600080825260208201909252610a3491839190611629565b50565b3360008181526034602090815260408083206001600160a01b038716845290915281205490919061078c9082908690610a719087906125bd565b61109c565b7f65d7a28e3265b37a6474929f336521b332c1681b933f6cb9f3376673440d862a610aa0816111f4565b610a346117c9565b7f9f2df0fed2c77648de5860a4cc508cd0818c85b8b8a1ab4ceeef8d981c8956a6610ad2816111f4565b6107bb838361181b565b610a3433826118e8565b6001600160a01b037f0000000000000000000000000000000000000000000000000000000000000000163003610b845760405162461bcd60e51b815260206004820152602c60248201527f46756e6374696f6e206d7573742062652063616c6c6564207468726f7567682060448201527f64656c656761746563616c6c00000000000000000000000000000000000000006064820152608401610883565b7f00000000000000000000000000000000000000000000000000000000000000006001600160a01b0316610bdf7f360894a13ba1a3210667c828492db98dca3e2076cc3735a920a3ca505d382bbc546001600160a01b031690565b6001600160a01b031614610c5b5760405162461bcd60e51b815260206004820152602c60248201527f46756e6374696f6e206d7573742062652063616c6c6564207468726f7567682060448201527f6163746976652070726f787900000000000000000000000000000000000000006064820152608401610883565b610c64826115ff565b61089682826001611629565b6000306001600160a01b037f00000000000000000000000000000000000000000000000000000000000000001614610d105760405162461bcd60e51b815260206004820152603860248201527f555550535570677261646561626c653a206d757374206e6f742062652063616c60448201527f6c6564207468726f7567682064656c656761746563616c6c00000000000000006064820152608401610883565b507f360894a13ba1a3210667c828492db98dca3e2076cc3735a920a3ca505d382bbc90565b610d40823383611249565b61089682826118e8565b600054610100900460ff1615808015610d6a5750600054600160ff909116105b80610d845750303b158015610d84575060005460ff166001145b610df65760405162461bcd60e51b815260206004820152602e60248201527f496e697469616c697a61626c653a20636f6e747261637420697320616c72656160448201527f647920696e697469616c697a65640000000000000000000000000000000000006064820152608401610883565b6000805460ff191660011790558015610e19576000805461ff0019166101001790555b610e8d6040518060400160405280600881526020017f53656e737061726b0000000000000000000000000000000000000000000000008152506040518060400160405280600381526020017f53454e0000000000000000000000000000000000000000000000000000000000815250611a5f565b610e95611ad4565b610e9d611b41565b610ea5611ad4565b610ead611ad4565b610eb86000336114da565b610ee27f65d7a28e3265b37a6474929f336521b332c1681b933f6cb9f3376673440d862a336114da565b610f0c7f9f2df0fed2c77648de5860a4cc508cd0818c85b8b8a1ab4ceeef8d981c8956a6336114da565b610f367f189ab7a9244df0848122154315af71fe140f3db0fe014031783b0946b8c9d2e3336114da565b8015610a34576000805461ff0019169055604051600181527f7f26b83ff96e1f2b6a682f133852f6798a09c465da95921460cefb38474024989060200160405180910390a150565b7f65d7a28e3265b37a6474929f336521b332c1681b933f6cb9f3376673440d862a610fa8816111f4565b610a34611bb4565b6060603780546106fb9061256d565b3360008181526034602090815260408083206001600160a01b03871684529091528120549091908381101561105c5760405162461bcd60e51b815260206004820152602560248201527f45524332303a2064656372656173656420616c6c6f77616e63652062656c6f7760448201527f207a65726f0000000000000000000000000000000000000000000000000000006064820152608401610883565b6107d9828686840361109c565b60003361078c8185856112db565b600082815260c96020526040902060010154611092816111f4565b6107bb838361157c565b6001600160a01b0383166111175760405162461bcd60e51b8152602060048201526024808201527f45524332303a20617070726f76652066726f6d20746865207a65726f2061646460448201527f72657373000000000000000000000000000000000000000000000000000000006064820152608401610883565b6001600160a01b0382166111935760405162461bcd60e51b815260206004820152602260248201527f45524332303a20617070726f766520746f20746865207a65726f20616464726560448201527f73730000000000000000000000000000000000000000000000000000000000006064820152608401610883565b6001600160a01b0383811660008181526034602090815260408083209487168084529482529182902085905590518481527f8c5be1e5ebec7d5bd14f71427d1e84f3dd0314c0f7b2291e5b200ac8c7c3b925910160405180910390a3505050565b610a348133611bf1565b600082815260c96020526040808220600101805490849055905190918391839186917fbd79b86ffe0ab8e8776151514217cd7cacd52c909f66475c3af44e129f0b00ff9190a4505050565b6001600160a01b0383811660009081526034602090815260408083209386168352929052205460001981146112d557818110156112c85760405162461bcd60e51b815260206004820152601d60248201527f45524332303a20696e73756666696369656e7420616c6c6f77616e63650000006044820152606401610883565b6112d5848484840361109c565b50505050565b6001600160a01b0383166113575760405162461bcd60e51b815260206004820152602560248201527f45524332303a207472616e736665722066726f6d20746865207a65726f20616460448201527f64726573730000000000000000000000000000000000000000000000000000006064820152608401610883565b6001600160a01b0382166113d35760405162461bcd60e51b815260206004820152602360248201527f45524332303a207472616e7366657220746f20746865207a65726f206164647260448201527f65737300000000000000000000000000000000000000000000000000000000006064820152608401610883565b6113de838383611c66565b6001600160a01b0383166000908152603360205260409020548181101561146d5760405162461bcd60e51b815260206004820152602660248201527f45524332303a207472616e7366657220616d6f756e742065786365656473206260448201527f616c616e636500000000000000000000000000000000000000000000000000006064820152608401610883565b6001600160a01b0380851660008181526033602052604080822086860390559286168082529083902080548601905591517fddf252ad1be2c89b69c2b068fc378daa952ba7f163c4a11628f55a4df523b3ef906114cd9086815260200190565b60405180910390a36112d5565b600082815260c9602090815260408083206001600160a01b038516845290915290205460ff1661089657600082815260c9602090815260408083206001600160a01b03851684529091529020805460ff191660011790556115383390565b6001600160a01b0316816001600160a01b0316837f2f8788117e7eff1d82e926ec794901d17c78024a50270940304540a733656f0d60405160405180910390a45050565b600082815260c9602090815260408083206001600160a01b038516845290915290205460ff161561089657600082815260c9602090815260408083206001600160a01b0385168085529252808320805460ff1916905551339285917ff6391f5c32d9c69d2a47ea670b442974b53935d1edc7fd64eb21e047a839171b9190a45050565b7f189ab7a9244df0848122154315af71fe140f3db0fe014031783b0946b8c9d2e3610896816111f4565b7f4910fdfa16fed3260ed0e7147f7cc6da11a60208b5b9406d12a635614ffd91435460ff161561165c576107bb83611c6e565b826001600160a01b03166352d1902d6040518163ffffffff1660e01b8152600401602060405180830381865afa9250505080156116b6575060408051601f3d908101601f191682019092526116b3918101906125d0565b60015b6117285760405162461bcd60e51b815260206004820152602e60248201527f45524331393637557067726164653a206e657720696d706c656d656e7461746960448201527f6f6e206973206e6f7420555550530000000000000000000000000000000000006064820152608401610883565b7f360894a13ba1a3210667c828492db98dca3e2076cc3735a920a3ca505d382bbc81146117bd5760405162461bcd60e51b815260206004820152602960248201527f45524331393637557067726164653a20756e737570706f727465642070726f7860448201527f6961626c655555494400000000000000000000000000000000000000000000006064820152608401610883565b506107bb838383611d44565b6117d1611d69565b60fb805460ff191690557f5db9ee0a495bf2e6ff9c91a7834c1ba4fdd244a5e8aa4e537bd38aeae4b073aa335b6040516001600160a01b03909116815260200160405180910390a1565b6001600160a01b0382166118715760405162461bcd60e51b815260206004820152601f60248201527f45524332303a206d696e7420746f20746865207a65726f2061646472657373006044820152606401610883565b61187d60008383611c66565b806035600082825461188f91906125bd565b90915550506001600160a01b0382166000818152603360209081526040808320805486019055518481527fddf252ad1be2c89b69c2b068fc378daa952ba7f163c4a11628f55a4df523b3ef910160405180910390a35050565b6001600160a01b0382166119645760405162461bcd60e51b815260206004820152602160248201527f45524332303a206275726e2066726f6d20746865207a65726f2061646472657360448201527f73000000000000000000000000000000000000000000000000000000000000006064820152608401610883565b61197082600083611c66565b6001600160a01b038216600090815260336020526040902054818110156119ff5760405162461bcd60e51b815260206004820152602260248201527f45524332303a206275726e20616d6f756e7420657863656564732062616c616e60448201527f63650000000000000000000000000000000000000000000000000000000000006064820152608401610883565b6001600160a01b03831660008181526033602090815260408083208686039055603580548790039055518581529192917fddf252ad1be2c89b69c2b068fc378daa952ba7f163c4a11628f55a4df523b3ef910160405180910390a3505050565b600054610100900460ff16611aca5760405162461bcd60e51b815260206004820152602b60248201527f496e697469616c697a61626c653a20636f6e7472616374206973206e6f74206960448201526a6e697469616c697a696e6760a81b6064820152608401610883565b6108968282611dbb565b600054610100900460ff16611b3f5760405162461bcd60e51b815260206004820152602b60248201527f496e697469616c697a61626c653a20636f6e7472616374206973206e6f74206960448201526a6e697469616c697a696e6760a81b6064820152608401610883565b565b600054610100900460ff16611bac5760405162461bcd60e51b815260206004820152602b60248201527f496e697469616c697a61626c653a20636f6e7472616374206973206e6f74206960448201526a6e697469616c697a696e6760a81b6064820152608401610883565b611b3f611e3f565b611bbc611eb6565b60fb805460ff191660011790557f62e78cea01bee320cd4e420270b5ea74000d11b0c9f74754ebdbfc544b05a2586117fe3390565b600082815260c9602090815260408083206001600160a01b038516845290915290205460ff1661089657611c2481611f09565b611c2f836020611f1b565b604051602001611c409291906125e9565b60408051601f198184030181529082905262461bcd60e51b825261088391600401612334565b6107bb611eb6565b6001600160a01b0381163b611ceb5760405162461bcd60e51b815260206004820152602d60248201527f455243313936373a206e657720696d706c656d656e746174696f6e206973206e60448201527f6f74206120636f6e7472616374000000000000000000000000000000000000006064820152608401610883565b7f360894a13ba1a3210667c828492db98dca3e2076cc3735a920a3ca505d382bbc80547fffffffffffffffffffffffff0000000000000000000000000000000000000000166001600160a01b0392909216919091179055565b611d4d8361214b565b600082511180611d5a5750805b156107bb576112d5838361218b565b60fb5460ff16611b3f5760405162461bcd60e51b815260206004820152601460248201527f5061757361626c653a206e6f74207061757365640000000000000000000000006044820152606401610883565b600054610100900460ff16611e265760405162461bcd60e51b815260206004820152602b60248201527f496e697469616c697a61626c653a20636f6e7472616374206973206e6f74206960448201526a6e697469616c697a696e6760a81b6064820152608401610883565b6036611e3283826126ba565b5060376107bb82826126ba565b600054610100900460ff16611eaa5760405162461bcd60e51b815260206004820152602b60248201527f496e697469616c697a61626c653a20636f6e7472616374206973206e6f74206960448201526a6e697469616c697a696e6760a81b6064820152608401610883565b60fb805460ff19169055565b60fb5460ff1615611b3f5760405162461bcd60e51b815260206004820152601060248201527f5061757361626c653a20706175736564000000000000000000000000000000006044820152606401610883565b60606106e66001600160a01b03831660145b60606000611f2a83600261277a565b611f359060026125bd565b67ffffffffffffffff811115611f4d57611f4d61246b565b6040519080825280601f01601f191660200182016040528015611f77576020820181803683370190505b5090507f300000000000000000000000000000000000000000000000000000000000000081600081518110611fae57611fae612791565b60200101907effffffffffffffffffffffffffffffffffffffffffffffffffffffffffffff1916908160001a9053507f78000000000000000000000000000000000000000000000000000000000000008160018151811061201157612011612791565b60200101907effffffffffffffffffffffffffffffffffffffffffffffffffffffffffffff1916908160001a905350600061204d84600261277a565b6120589060016125bd565b90505b60018111156120f5577f303132333435363738396162636465660000000000000000000000000000000085600f166010811061209957612099612791565b1a60f81b8282815181106120af576120af612791565b60200101907effffffffffffffffffffffffffffffffffffffffffffffffffffffffffffff1916908160001a90535060049490941c936120ee816127a7565b905061205b565b5083156121445760405162461bcd60e51b815260206004820181905260248201527f537472696e67733a20686578206c656e67746820696e73756666696369656e746044820152606401610883565b9392505050565b61215481611c6e565b6040516001600160a01b038216907fbc7cd75a20ee27fd9adebab32041f755214dbc6bffa90cc0225b39da2e5c2d3b90600090a250565b606061214483836040518060600160405280602781526020016127db602791396060600080856001600160a01b0316856040516121c891906127be565b600060405180830381855af49150503d8060008114612203576040519150601f19603f3d011682016040523d82523d6000602084013e612208565b606091505b509150915061221986838387612223565b9695505050505050565b6060831561229257825160000361228b576001600160a01b0385163b61228b5760405162461bcd60e51b815260206004820152601d60248201527f416464726573733a2063616c6c20746f206e6f6e2d636f6e74726163740000006044820152606401610883565b508161229c565b61229c83836122a4565b949350505050565b8151156122b45781518083602001fd5b8060405162461bcd60e51b81526004016108839190612334565b6000602082840312156122e057600080fd5b81357fffffffff000000000000000000000000000000000000000000000000000000008116811461214457600080fd5b60005b8381101561232b578181015183820152602001612313565b50506000910152565b6020815260008251806020840152612353816040850160208701612310565b601f01601f19169190910160400192915050565b80356001600160a01b038116811461237e57600080fd5b919050565b6000806040838503121561239657600080fd5b61239f83612367565b946020939093013593505050565b600080604083850312156123c057600080fd5b50508035926020909101359150565b6000806000606084860312156123e457600080fd5b6123ed84612367565b92506123fb60208501612367565b9150604084013590509250925092565b60006020828403121561241d57600080fd5b5035919050565b6000806040838503121561243757600080fd5b8235915061244760208401612367565b90509250929050565b60006020828403121561246257600080fd5b61214482612367565b634e487b7160e01b600052604160045260246000fd5b6000806040838503121561249457600080fd5b61249d83612367565b9150602083013567ffffffffffffffff808211156124ba57600080fd5b818501915085601f8301126124ce57600080fd5b8135818111156124e0576124e061246b565b604051601f8201601f19908116603f011681019083821181831017156125085761250861246b565b8160405282815288602084870101111561252157600080fd5b8260208601602083013760006020848301015280955050505050509250929050565b6000806040838503121561255657600080fd5b61255f83612367565b915061244760208401612367565b600181811c9082168061258157607f821691505b6020821081036125a157634e487b7160e01b600052602260045260246000fd5b50919050565b634e487b7160e01b600052601160045260246000fd5b808201808211156106e6576106e66125a7565b6000602082840312156125e257600080fd5b5051919050565b7f416363657373436f6e74726f6c3a206163636f756e7420000000000000000000815260008351612621816017850160208801612310565b7f206973206d697373696e6720726f6c6520000000000000000000000000000000601791840191820152835161265e816028840160208801612310565b01602801949350505050565b601f8211156107bb576000816000526020600020601f850160051c810160208610156126935750805b601f850160051c820191505b818110156126b25782815560010161269f565b505050505050565b815167ffffffffffffffff8111156126d4576126d461246b565b6126e8816126e2845461256d565b8461266a565b602080601f83116001811461271d57600084156127055750858301515b600019600386901b1c1916600185901b1785556126b2565b600085815260208120601f198616915b8281101561274c5788860151825594840194600190910190840161272d565b508582101561276a5787850151600019600388901b60f8161c191681555b5050505050600190811b01905550565b80820281158282048414176106e6576106e66125a7565b634e487b7160e01b600052603260045260246000fd5b6000816127b6576127b66125a7565b506000190190565b600082516127d0818460208701612310565b919091019291505056fe416464726573733a206c6f772d6c6576656c2064656c65676174652063616c6c206661696c6564a26469706673582212207d16f493ec9a31128332810f42a6e89dc92960d2bc4221ed4e519514d1be8bfe64736f6c63430008180033",
  "linkReferences": {},
  "deployedLinkReferences": {}
}