{
  "_format": "hh-sol-artifact-1",
  "contractName": "Deposit",
  "sourceName": "contracts/Deposit.sol",
  "abi": [
    {
      "anonymous": false,
      "inputs": [
        {
          "indexed": false,
          "internalType": "address",
          "name": "previousAdmin",
          "type": "address"
        },
        {
          "indexed": false,
          "internalType": "address",
          "name": "newAdmin",
          "type": "address"
        }
      ],
      "name": "AdminChanged",
      "type": "event"
    },
    {
      "anonymous": false,
      "inputs": [
        {
          "indexed": true,
          "internalType": "address",
          "name": "beacon",
          "type": "address"
        }
      ],
      "name": "BeaconUpgraded",
      "type": "event"
    },
    {
      "anonymous": false,
      "inputs": [
        {
          "indexed": false,
          "internalType": "address",
          "name": "to",
          "type": "address"
        },
        {
          "indexed": false,
          "internalType": "uint256",
          "name": "amount",
          "type": "uint256"
        }
      ],
      "name": "Deposited",
      "type": "event"
    },
    {
      "anonymous": false,
      "inputs": [
        {
          "indexed": false,
          "internalType": "address",
          "name": "to",
          "type": "address"
        },
        {
          "indexed": false,
          "internalType": "address",
          "name": "token",
          "type": "address"
        },
        {
          "indexed": false,
          "internalType": "uint256",
          "name": "amount",
          "type": "uint256"
        }
      ],
      "name": "DepositedToken",
      "type": "event"
    },
    {
      "anonymous": false,
      "inputs": [
        {
          "indexed": false,
          "internalType": "uint8",
          "name": "version",
          "type": "uint8"
        }
      ],
      "name": "Initialized",
      "type": "event"
    },
    {
      "anonymous": false,
      "inputs": [
        {
          "indexed": false,
          "internalType": "address",
          "name": "account",
          "type": "address"
        }
      ],
      "name": "Paused",
      "type": "event"
    },
    {
      "anonymous": false,
      "inputs": [
        {
          "indexed": true,
          "internalType": "bytes32",
          "name": "role",
          "type": "bytes32"
        },
        {
          "indexed": true,
          "internalType": "bytes32",
          "name": "previousAdminRole",
          "type": "bytes32"
        },
        {
          "indexed": true,
          "internalType": "bytes32",
          "name": "newAdminRole",
          "type": "bytes32"
        }
      ],
      "name": "RoleAdminChanged",
      "type": "event"
    },
    {
      "anonymous": false,
      "inputs": [
        {
          "indexed": true,
          "internalType": "bytes32",
          "name": "role",
          "type": "bytes32"
        },
        {
          "indexed": true,
          "internalType": "address",
          "name": "account",
          "type": "address"
        },
        {
          "indexed": true,
          "internalType": "address",
          "name": "sender",
          "type": "address"
        }
      ],
      "name": "RoleGranted",
      "type": "event"
    },
    {
      "anonymous": false,
      "inputs": [
        {
          "indexed": true,
          "internalType": "bytes32",
          "name": "role",
          "type": "bytes32"
        },
        {
          "indexed": true,
          "internalType": "address",
          "name": "account",
          "type": "address"
        },
        {
          "indexed": true,
          "internalType": "address",
          "name": "sender",
          "type": "address"
        }
      ],
      "name": "RoleRevoked",
      "type": "event"
    },
    {
      "anonymous": false,
      "inputs": [
        {
          "indexed": false,
          "internalType": "address",
          "name": "account",
          "type": "address"
        }
      ],
      "name": "Unpaused",
      "type": "event"
    },
    {
      "anonymous": false,
      "inputs": [
        {
          "indexed": true,
          "internalType": "address",
          "name": "implementation",
          "type": "address"
        }
      ],
      "name": "Upgraded",
      "type": "event"
    },
    {
      "inputs": [],
      "name": "DEFAULT_ADMIN_ROLE",
      "outputs": [
        {
          "internalType": "bytes32",
          "name": "",
          "type": "bytes32"
        }
      ],
      "stateMutability": "view",
      "type": "function"
    },
    {
      "inputs": [],
      "name": "PAUSER_ROLE",
      "outputs": [
        {
          "internalType": "bytes32",
          "name": "",
          "type": "bytes32"
        }
      ],
      "stateMutability": "view",
      "type": "function"
    },
    {
      "inputs": [],
      "name": "UPGRADER_ROLE",
      "outputs": [
        {
          "internalType": "bytes32",
          "name": "",
          "type": "bytes32"
        }
      ],
      "stateMutability": "view",
      "type": "function"
    },
    {
      "inputs": [],
      "name": "WITHDRAWER_ROLE",
      "outputs": [
        {
          "internalType": "bytes32",
          "name": "",
          "type": "bytes32"
        }
      ],
      "stateMutability": "view",
      "type": "function"
    },
    {
      "inputs": [],
      "name": "coinToken",
      "outputs": [
        {
          "internalType": "contract IERC20",
          "name": "",
          "type": "address"
        }
      ],
      "stateMutability": "view",
      "type": "function"
    },
    {
      "inputs": [
        {
          "internalType": "uint256",
          "name": "amount",
          "type": "uint256"
        }
      ],
      "name": "deposit",
      "outputs": [],
      "stateMutability": "nonpayable",
      "type": "function"
    },
    {
      "inputs": [
        {
          "internalType": "uint256",
          "name": "amount",
          "type": "uint256"
        },
        {
          "internalType": "address",
          "name": "token",
          "type": "address"
        }
      ],
      "name": "depositV2",
      "outputs": [],
      "stateMutability": "nonpayable",
      "type": "function"
    },
    {
      "inputs": [
        {
          "internalType": "uint256",
          "name": "amount",
          "type": "uint256"
        },
        {
          "internalType": "address",
          "name": "token",
          "type": "address"
        }
      ],
      "name": "depositV3",
      "outputs": [],
      "stateMutability": "nonpayable",
      "type": "function"
    },
    {
      "inputs": [
        {
          "internalType": "address",
          "name": "",
          "type": "address"
        }
      ],
      "name": "depositedAmounts",
      "outputs": [
        {
          "internalType": "uint256",
          "name": "",
          "type": "uint256"
        }
      ],
      "stateMutability": "view",
      "type": "function"
    },
    {
      "inputs": [
        {
          "internalType": "address",
          "name": "",
          "type": "address"
        },
        {
          "internalType": "address",
          "name": "",
          "type": "address"
        }
      ],
      "name": "depositedTokenAmounts",
      "outputs": [
        {
          "internalType": "uint256",
          "name": "",
          "type": "uint256"
        }
      ],
      "stateMutability": "view",
      "type": "function"
    },
    {
      "inputs": [
        {
          "internalType": "address",
          "name": "",
          "type": "address"
        },
        {
          "internalType": "address",
          "name": "",
          "type": "address"
        }
      ],
      "name": "depositedTokenAmountsV3",
      "outputs": [
        {
          "internalType": "uint256",
          "name": "",
          "type": "uint256"
        }
      ],
      "stateMutability": "view",
      "type": "function"
    },
    {
      "inputs": [
        {
          "internalType": "address",
          "name": "to",
          "type": "address"
        }
      ],
      "name": "getDeposited",
      "outputs": [
        {
          "internalType": "uint256",
          "name": "",
          "type": "uint256"
        }
      ],
      "stateMutability": "view",
      "type": "function"
    },
    {
      "inputs": [
        {
          "internalType": "address",
          "name": "to",
          "type": "address"
        }
      ],
      "name": "getDepositedV2",
      "outputs": [
        {
          "internalType": "uint256[]",
          "name": "",
          "type": "uint256[]"
        }
      ],
      "stateMutability": "view",
      "type": "function"
    },
    {
      "inputs": [
        {
          "internalType": "address",
          "name": "to",
          "type": "address"
        }
      ],
      "name": "getDepositedV3",
      "outputs": [
        {
          "internalType": "uint256[]",
          "name": "",
          "type": "uint256[]"
        }
      ],
      "stateMutability": "view",
      "type": "function"
    },
    {
      "inputs": [
        {
          "internalType": "bytes32",
          "name": "role",
          "type": "bytes32"
        }
      ],
      "name": "getRoleAdmin",
      "outputs": [
        {
          "internalType": "bytes32",
          "name": "",
          "type": "bytes32"
        }
      ],
      "stateMutability": "view",
      "type": "function"
    },
    {
      "inputs": [],
      "name": "getTokenList",
      "outputs": [
        {
          "internalType": "address[]",
          "name": "",
          "type": "address[]"
        }
      ],
      "stateMutability": "view",
      "type": "function"
    },
    {
      "inputs": [
        {
          "internalType": "bytes32",
          "name": "role",
          "type": "bytes32"
        },
        {
          "internalType": "address",
          "name": "account",
          "type": "address"
        }
      ],
      "name": "grantRole",
      "outputs": [],
      "stateMutability": "nonpayable",
      "type": "function"
    },
    {
      "inputs": [
        {
          "internalType": "bytes32",
          "name": "role",
          "type": "bytes32"
        },
        {
          "internalType": "address",
          "name": "account",
          "type": "address"
        }
      ],
      "name": "hasRole",
      "outputs": [
        {
          "internalType": "bool",
          "name": "",
          "type": "bool"
        }
      ],
      "stateMutability": "view",
      "type": "function"
    },
    {
      "inputs": [
        {
          "internalType": "contract IERC20",
          "name": "coinToken_",
          "type": "address"
        }
      ],
      "name": "initialize",
      "outputs": [],
      "stateMutability": "nonpayable",
      "type": "function"
    },
    {
      "inputs": [],
      "name": "pause",
      "outputs": [],
      "stateMutability": "nonpayable",
      "type": "function"
    },
    {
      "inputs": [],
      "name": "paused",
      "outputs": [
        {
          "internalType": "bool",
          "name": "",
          "type": "bool"
        }
      ],
      "stateMutability": "view",
      "type": "function"
    },
    {
      "inputs": [],
      "name": "proxiableUUID",
      "outputs": [
        {
          "internalType": "bytes32",
          "name": "",
          "type": "bytes32"
        }
      ],
      "stateMutability": "view",
      "type": "function"
    },
    {
      "inputs": [
        {
          "internalType": "bytes32",
          "name": "role",
          "type": "bytes32"
        },
        {
          "internalType": "address",
          "name": "account",
          "type": "address"
        }
      ],
      "name": "renounceRole",
      "outputs": [],
      "stateMutability": "nonpayable",
      "type": "function"
    },
    {
      "inputs": [
        {
          "internalType": "bytes32",
          "name": "role",
          "type": "bytes32"
        },
        {
          "internalType": "address",
          "name": "account",
          "type": "address"
        }
      ],
      "name": "revokeRole",
      "outputs": [],
      "stateMutability": "nonpayable",
      "type": "function"
    },
    {
      "inputs": [
        {
          "internalType": "address[]",
          "name": "tokens",
          "type": "address[]"
        }
      ],
      "name": "setTokenList",
      "outputs": [],
      "stateMutability": "nonpayable",
      "type": "function"
    },
    {
      "inputs": [
        {
          "internalType": "bytes4",
          "name": "interfaceId",
          "type": "bytes4"
        }
      ],
      "name": "supportsInterface",
      "outputs": [
        {
          "internalType": "bool",
          "name": "",
          "type": "bool"
        }
      ],
      "stateMutability": "view",
      "type": "function"
    },
    {
      "inputs": [
        {
          "internalType": "uint256",
          "name": "",
          "type": "uint256"
        }
      ],
      "name": "tokenList",
      "outputs": [
        {
          "internalType": "address",
          "name": "",
          "type": "address"
        }
      ],
      "stateMutability": "view",
      "type": "function"
    },
    {
      "inputs": [],
      "name": "unpause",
      "outputs": [],
      "stateMutability": "nonpayable",
      "type": "function"
    },
    {
      "inputs": [
        {
          "internalType": "address",
          "name": "newImplementation",
          "type": "address"
        }
      ],
      "name": "upgradeTo",
      "outputs": [],
      "stateMutability": "nonpayable",
      "type": "function"
    },
    {
      "inputs": [
        {
          "internalType": "address",
          "name": "newImplementation",
          "type": "address"
        },
        {
          "internalType": "bytes",
          "name": "data",
          "type": "bytes"
        }
      ],
      "name": "upgradeToAndCall",
      "outputs": [],
      "stateMutability": "payable",
      "type": "function"
    },
    {
      "inputs": [],
      "name": "withdraw",
      "outputs": [],
      "stateMutability": "nonpayable",
      "type": "function"
    }
  ],
  "bytecode": "0x60a06040523060805234801561001457600080fd5b506080516125f561004c600039600081816108d60152818161096c01528181610c2201528181610cb80152610daf01526125f56000f3fe6080604052600436106101d85760003560e01c80638456cb5911610102578063b87d303611610095578063d547741f11610064578063d547741f146105df578063da7d638c146105ff578063e63ab1e91461061f578063f72c0d8b1461065357600080fd5b8063b87d303614610538578063bcb0ec8914610571578063c4d66de814610591578063d4b73972146105b157600080fd5b80639ead7222116100d15780639ead7222146104c3578063a217fddf146104e3578063b094a5b3146104f8578063b6b55f251461051857600080fd5b80638456cb59146103fb57806385f438c11461041057806391d148541461044457806392c5c94c1461048a57600080fd5b80633659cfe61161017a5780634f1ef286116101495780634f1ef2861461038257806352d1902d1461039557806358797cb6146103aa5780635c975abb146103e357600080fd5b80633659cfe6146103015780633ccfd60b146103215780633f4ba83a14610336578063466bb3121461034b57600080fd5b8063273cbaa0116101b6578063273cbaa01461027d5780632f2ff15d1461029f578063342b7e71146102c157806336568abe146102e157600080fd5b806301ffc9a7146101dd5780630e2579de14610212578063248a9ca31461023f575b600080fd5b3480156101e957600080fd5b506101fd6101f83660046120cd565b610687565b60405190151581526020015b60405180910390f35b34801561021e57600080fd5b5061023261022d366004612124565b610698565b6040516102099190612141565b34801561024b57600080fd5b5061026f61025a366004612185565b60009081526065602052604090206001015490565b604051908152602001610209565b34801561028957600080fd5b50610292610770565b604051610209919061219e565b3480156102ab57600080fd5b506102bf6102ba3660046121df565b6107d3565b005b3480156102cd57600080fd5b506102bf6102dc366004612256565b6107fd565b3480156102ed57600080fd5b506102bf6102fc3660046121df565b61083b565b34801561030d57600080fd5b506102bf61031c366004612124565b6108cc565b34801561032d57600080fd5b506102bf610a69565b34801561034257600080fd5b506102bf610be6565b34801561035757600080fd5b5061026f610366366004612124565b6001600160a01b0316600090815261012e602052604090205490565b6102bf610390366004612308565b610c18565b3480156103a157600080fd5b5061026f610da2565b3480156103b657600080fd5b5061012d546103cb906001600160a01b031681565b6040516001600160a01b039091168152602001610209565b3480156103ef57600080fd5b5060975460ff166101fd565b34801561040757600080fd5b506102bf610e67565b34801561041c57600080fd5b5061026f7f10dac8c06a04bec0b551627dad28bc00d6516b0caacd1c7b345fcdb5211334e481565b34801561045057600080fd5b506101fd61045f3660046121df565b60009182526065602090815260408084206001600160a01b0393909316845291905290205460ff1690565b34801561049657600080fd5b5061026f6104a53660046123b0565b61012f60209081526000928352604080842090915290825290205481565b3480156104cf57600080fd5b506103cb6104de366004612185565b610e99565b3480156104ef57600080fd5b5061026f600081565b34801561050457600080fd5b506102bf6105133660046121df565b610ec4565b34801561052457600080fd5b506102bf610533366004612185565b610fcc565b34801561054457600080fd5b5061026f6105533660046123b0565b61013160209081526000928352604080842090915290825290205481565b34801561057d57600080fd5b5061023261058c366004612124565b6110bf565b34801561059d57600080fd5b506102bf6105ac366004612124565b611208565b3480156105bd57600080fd5b5061026f6105cc366004612124565b61012e6020526000908152604090205481565b3480156105eb57600080fd5b506102bf6105fa3660046121df565b6113e3565b34801561060b57600080fd5b506102bf61061a3660046121df565b611408565b34801561062b57600080fd5b5061026f7f65d7a28e3265b37a6474929f336521b332c1681b933f6cb9f3376673440d862a81565b34801561065f57600080fd5b5061026f7f189ab7a9244df0848122154315af71fe140f3db0fe014031783b0946b8c9d2e381565b6000610692826114bb565b92915050565b6101305460609060009067ffffffffffffffff8111156106ba576106ba61220f565b6040519080825280602002602001820160405280156106e3578160200160208202803683370190505b50905060005b61013054811015610769576000610130828154811061070a5761070a6123de565b60009182526020808320909101546001600160a01b0390811680845261013183526040808520928a1685529190925290912054845191925090849084908110610755576107556123de565b6020908102919091010152506001016106e9565b5092915050565b60606101308054806020026020016040519081016040528092919081815260200182805480156107c957602002820191906000526020600020905b81546001600160a01b031681526001909101906020018083116107ab575b5050505050905090565b6000828152606560205260409020600101546107ee81611552565b6107f8838361155c565b505050565b7f189ab7a9244df0848122154315af71fe140f3db0fe014031783b0946b8c9d2e361082781611552565b81516107f890610130906020850190612046565b6001600160a01b03811633146108be5760405162461bcd60e51b815260206004820152602f60248201527f416363657373436f6e74726f6c3a2063616e206f6e6c792072656e6f756e636560448201527f20726f6c657320666f722073656c66000000000000000000000000000000000060648201526084015b60405180910390fd5b6108c882826115fe565b5050565b6001600160a01b037f000000000000000000000000000000000000000000000000000000000000000016300361096a5760405162461bcd60e51b815260206004820152602c60248201527f46756e6374696f6e206d7573742062652063616c6c6564207468726f7567682060448201527f64656c656761746563616c6c000000000000000000000000000000000000000060648201526084016108b5565b7f00000000000000000000000000000000000000000000000000000000000000006001600160a01b03166109c57f360894a13ba1a3210667c828492db98dca3e2076cc3735a920a3ca505d382bbc546001600160a01b031690565b6001600160a01b031614610a415760405162461bcd60e51b815260206004820152602c60248201527f46756e6374696f6e206d7573742062652063616c6c6564207468726f7567682060448201527f6163746976652070726f7879000000000000000000000000000000000000000060648201526084016108b5565b610a4a81611681565b60408051600080825260208201909252610a66918391906116ab565b50565b7f10dac8c06a04bec0b551627dad28bc00d6516b0caacd1c7b345fcdb5211334e4610a9381611552565b60005b610130548110156108c85760006101308281548110610ab757610ab76123de565b6000918252602090912001546040517f70a082310000000000000000000000000000000000000000000000000000000081523060048201526001600160a01b0390911691508190819063a9059cbb90339083906370a0823190602401602060405180830381865afa158015610b30573d6000803e3d6000fd5b505050506040513d601f19601f82011682018060405250810190610b5491906123f4565b6040517fffffffff0000000000000000000000000000000000000000000000000000000060e085901b1681526001600160a01b03909216600483015260248201526044016020604051808303816000875af1158015610bb7573d6000803e3d6000fd5b505050506040513d601f19601f82011682018060405250810190610bdb919061240d565b505050600101610a96565b7f65d7a28e3265b37a6474929f336521b332c1681b933f6cb9f3376673440d862a610c1081611552565b610a6661184b565b6001600160a01b037f0000000000000000000000000000000000000000000000000000000000000000163003610cb65760405162461bcd60e51b815260206004820152602c60248201527f46756e6374696f6e206d7573742062652063616c6c6564207468726f7567682060448201527f64656c656761746563616c6c000000000000000000000000000000000000000060648201526084016108b5565b7f00000000000000000000000000000000000000000000000000000000000000006001600160a01b0316610d117f360894a13ba1a3210667c828492db98dca3e2076cc3735a920a3ca505d382bbc546001600160a01b031690565b6001600160a01b031614610d8d5760405162461bcd60e51b815260206004820152602c60248201527f46756e6374696f6e206d7573742062652063616c6c6564207468726f7567682060448201527f6163746976652070726f7879000000000000000000000000000000000000000060648201526084016108b5565b610d9682611681565b6108c8828260016116ab565b6000306001600160a01b037f00000000000000000000000000000000000000000000000000000000000000001614610e425760405162461bcd60e51b815260206004820152603860248201527f555550535570677261646561626c653a206d757374206e6f742062652063616c60448201527f6c6564207468726f7567682064656c656761746563616c6c000000000000000060648201526084016108b5565b507f360894a13ba1a3210667c828492db98dca3e2076cc3735a920a3ca505d382bbc90565b7f65d7a28e3265b37a6474929f336521b332c1681b933f6cb9f3376673440d862a610e9181611552565b610a6661189d565b6101308181548110610eaa57600080fd5b6000918252602090912001546001600160a01b0316905081565b6040516323b872dd60e01b8152336004820181905230602483015260448201849052906001600160a01b038316906323b872dd906064016020604051808303816000875af1158015610f1a573d6000803e3d6000fd5b505050506040513d601f19601f82011682018060405250810190610f3e919061240d565b506001600160a01b0380831660009081526101316020908152604080832093851683529290529081208054859290610f77908490612445565b9091555050604080516001600160a01b038084168252841660208201529081018490527f7a43fc511e5571803e978d5d53bbfb35b899d0c8acdc2039769bfbc77082fa339060600160405180910390a1505050565b61012d546040516323b872dd60e01b8152336004820181905230602483015260448201849052916001600160a01b0316906323b872dd906064016020604051808303816000875af1158015611025573d6000803e3d6000fd5b505050506040513d601f19601f82011682018060405250810190611049919061240d565b506001600160a01b038116600090815261012e602052604081208054849290611073908490612445565b9091555050604080516001600160a01b0383168152602081018490527f2da466a7b24304f47e87fa2e1e5a81b9831ce54fec19055ce277ca2f39ba42c491015b60405180910390a15050565b6101305460609060009067ffffffffffffffff8111156110e1576110e161220f565b60405190808252806020026020018201604052801561110a578160200160208202803683370190505b50905060005b610130548110156107695760006101308281548110611131576111316123de565b60009182526020909120015461012d546001600160a01b0391821692501681036111b7576001600160a01b03808616600081815261012e6020908152604080832054948616835261012f82528083209383529290522054611193908290612445565b8484815181106111a5576111a56123de565b602002602001018181525050506111ff565b6001600160a01b03808216600090815261012f602090815260408083209389168352929052205483518490849081106111f2576111f26123de565b6020026020010181815250505b50600101611110565b600054610100900460ff16158080156112285750600054600160ff909116105b806112425750303b158015611242575060005460ff166001145b6112b45760405162461bcd60e51b815260206004820152602e60248201527f496e697469616c697a61626c653a20636f6e747261637420697320616c72656160448201527f647920696e697469616c697a656400000000000000000000000000000000000060648201526084016108b5565b6000805460ff1916600117905580156112d7576000805461ff0019166101001790555b6112df6118da565b6112e7611959565b6112ef6118da565b61012d805473ffffffffffffffffffffffffffffffffffffffff19166001600160a01b0384161790556113236000336119de565b61134d7f65d7a28e3265b37a6474929f336521b332c1681b933f6cb9f3376673440d862a336119de565b6113777f10dac8c06a04bec0b551627dad28bc00d6516b0caacd1c7b345fcdb5211334e4336119de565b6113a17f189ab7a9244df0848122154315af71fe140f3db0fe014031783b0946b8c9d2e3336119de565b80156108c8576000805461ff0019169055604051600181527f7f26b83ff96e1f2b6a682f133852f6798a09c465da95921460cefb3847402498906020016110b3565b6000828152606560205260409020600101546113fe81611552565b6107f883836115fe565b6040516323b872dd60e01b8152336004820181905230602483015260448201849052906001600160a01b038316906323b872dd906064016020604051808303816000875af115801561145e573d6000803e3d6000fd5b505050506040513d601f19601f82011682018060405250810190611482919061240d565b506001600160a01b03808316600090815261012f6020908152604080832093851683529290529081208054859290610f77908490612445565b60007fffffffff0000000000000000000000000000000000000000000000000000000082167f7965db0b00000000000000000000000000000000000000000000000000000000148061069257507f01ffc9a7000000000000000000000000000000000000000000000000000000007fffffffff00000000000000000000000000000000000000000000000000000000831614610692565b610a6681336119e8565b60008281526065602090815260408083206001600160a01b038516845290915290205460ff166108c85760008281526065602090815260408083206001600160a01b03851684529091529020805460ff191660011790556115ba3390565b6001600160a01b0316816001600160a01b0316837f2f8788117e7eff1d82e926ec794901d17c78024a50270940304540a733656f0d60405160405180910390a45050565b60008281526065602090815260408083206001600160a01b038516845290915290205460ff16156108c85760008281526065602090815260408083206001600160a01b0385168085529252808320805460ff1916905551339285917ff6391f5c32d9c69d2a47ea670b442974b53935d1edc7fd64eb21e047a839171b9190a45050565b7f189ab7a9244df0848122154315af71fe140f3db0fe014031783b0946b8c9d2e36108c881611552565b7f4910fdfa16fed3260ed0e7147f7cc6da11a60208b5b9406d12a635614ffd91435460ff16156116de576107f883611a5d565b826001600160a01b03166352d1902d6040518163ffffffff1660e01b8152600401602060405180830381865afa925050508015611738575060408051601f3d908101601f19168201909252611735918101906123f4565b60015b6117aa5760405162461bcd60e51b815260206004820152602e60248201527f45524331393637557067726164653a206e657720696d706c656d656e7461746960448201527f6f6e206973206e6f74205555505300000000000000000000000000000000000060648201526084016108b5565b7f360894a13ba1a3210667c828492db98dca3e2076cc3735a920a3ca505d382bbc811461183f5760405162461bcd60e51b815260206004820152602960248201527f45524331393637557067726164653a20756e737570706f727465642070726f7860448201527f6961626c6555554944000000000000000000000000000000000000000000000060648201526084016108b5565b506107f8838383611b28565b611853611b53565b6097805460ff191690557f5db9ee0a495bf2e6ff9c91a7834c1ba4fdd244a5e8aa4e537bd38aeae4b073aa335b6040516001600160a01b03909116815260200160405180910390a1565b6118a5611ba5565b6097805460ff191660011790557f62e78cea01bee320cd4e420270b5ea74000d11b0c9f74754ebdbfc544b05a2586118803390565b600054610100900460ff166119575760405162461bcd60e51b815260206004820152602b60248201527f496e697469616c697a61626c653a20636f6e7472616374206973206e6f74206960448201527f6e697469616c697a696e6700000000000000000000000000000000000000000060648201526084016108b5565b565b600054610100900460ff166119d65760405162461bcd60e51b815260206004820152602b60248201527f496e697469616c697a61626c653a20636f6e7472616374206973206e6f74206960448201527f6e697469616c697a696e6700000000000000000000000000000000000000000060648201526084016108b5565b611957611bf8565b6108c8828261155c565b60008281526065602090815260408083206001600160a01b038516845290915290205460ff166108c857611a1b81611c81565b611a26836020611c93565b604051602001611a3792919061247c565b60408051601f198184030181529082905262461bcd60e51b82526108b5916004016124fd565b6001600160a01b0381163b611ada5760405162461bcd60e51b815260206004820152602d60248201527f455243313936373a206e657720696d706c656d656e746174696f6e206973206e60448201527f6f74206120636f6e74726163740000000000000000000000000000000000000060648201526084016108b5565b7f360894a13ba1a3210667c828492db98dca3e2076cc3735a920a3ca505d382bbc805473ffffffffffffffffffffffffffffffffffffffff19166001600160a01b0392909216919091179055565b611b3183611ec3565b600082511180611b3e5750805b156107f857611b4d8383611f03565b50505050565b60975460ff166119575760405162461bcd60e51b815260206004820152601460248201527f5061757361626c653a206e6f742070617573656400000000000000000000000060448201526064016108b5565b60975460ff16156119575760405162461bcd60e51b815260206004820152601060248201527f5061757361626c653a207061757365640000000000000000000000000000000060448201526064016108b5565b600054610100900460ff16611c755760405162461bcd60e51b815260206004820152602b60248201527f496e697469616c697a61626c653a20636f6e7472616374206973206e6f74206960448201527f6e697469616c697a696e6700000000000000000000000000000000000000000060648201526084016108b5565b6097805460ff19169055565b60606106926001600160a01b03831660145b60606000611ca2836002612530565b611cad906002612445565b67ffffffffffffffff811115611cc557611cc561220f565b6040519080825280601f01601f191660200182016040528015611cef576020820181803683370190505b5090507f300000000000000000000000000000000000000000000000000000000000000081600081518110611d2657611d266123de565b60200101907effffffffffffffffffffffffffffffffffffffffffffffffffffffffffffff1916908160001a9053507f780000000000000000000000000000000000000000000000000000000000000081600181518110611d8957611d896123de565b60200101907effffffffffffffffffffffffffffffffffffffffffffffffffffffffffffff1916908160001a9053506000611dc5846002612530565b611dd0906001612445565b90505b6001811115611e6d577f303132333435363738396162636465660000000000000000000000000000000085600f1660108110611e1157611e116123de565b1a60f81b828281518110611e2757611e276123de565b60200101907effffffffffffffffffffffffffffffffffffffffffffffffffffffffffffff1916908160001a90535060049490941c93611e6681612547565b9050611dd3565b508315611ebc5760405162461bcd60e51b815260206004820181905260248201527f537472696e67733a20686578206c656e67746820696e73756666696369656e7460448201526064016108b5565b9392505050565b611ecc81611a5d565b6040516001600160a01b038216907fbc7cd75a20ee27fd9adebab32041f755214dbc6bffa90cc0225b39da2e5c2d3b90600090a250565b6060611ebc8383604051806060016040528060278152602001612599602791396060600080856001600160a01b031685604051611f40919061257c565b600060405180830381855af49150503d8060008114611f7b576040519150601f19603f3d011682016040523d82523d6000602084013e611f80565b606091505b5091509150611f9186838387611f9b565b9695505050505050565b6060831561200a578251600003612003576001600160a01b0385163b6120035760405162461bcd60e51b815260206004820152601d60248201527f416464726573733a2063616c6c20746f206e6f6e2d636f6e747261637400000060448201526064016108b5565b5081612014565b612014838361201c565b949350505050565b81511561202c5781518083602001fd5b8060405162461bcd60e51b81526004016108b591906124fd565b8280548282559060005260206000209081019282156120a8579160200282015b828111156120a8578251825473ffffffffffffffffffffffffffffffffffffffff19166001600160a01b03909116178255602090920191600190910190612066565b506120b49291506120b8565b5090565b5b808211156120b457600081556001016120b9565b6000602082840312156120df57600080fd5b81357fffffffff0000000000000000000000000000000000000000000000000000000081168114611ebc57600080fd5b6001600160a01b0381168114610a6657600080fd5b60006020828403121561213657600080fd5b8135611ebc8161210f565b6020808252825182820181905260009190848201906040850190845b818110156121795783518352928401929184019160010161215d565b50909695505050505050565b60006020828403121561219757600080fd5b5035919050565b6020808252825182820181905260009190848201906040850190845b818110156121795783516001600160a01b0316835292840192918401916001016121ba565b600080604083850312156121f257600080fd5b8235915060208301356122048161210f565b809150509250929050565b634e487b7160e01b600052604160045260246000fd5b604051601f8201601f1916810167ffffffffffffffff8111828210171561224e5761224e61220f565b604052919050565b6000602080838503121561226957600080fd5b823567ffffffffffffffff8082111561228157600080fd5b818501915085601f83011261229557600080fd5b8135818111156122a7576122a761220f565b8060051b91506122b8848301612225565b81815291830184019184810190888411156122d257600080fd5b938501935b838510156122fc57843592506122ec8361210f565b82825293850193908501906122d7565b98975050505050505050565b6000806040838503121561231b57600080fd5b82356123268161210f565b915060208381013567ffffffffffffffff8082111561234457600080fd5b818601915086601f83011261235857600080fd5b81358181111561236a5761236a61220f565b61237c84601f19601f84011601612225565b9150808252878482850101111561239257600080fd5b80848401858401376000848284010152508093505050509250929050565b600080604083850312156123c357600080fd5b82356123ce8161210f565b915060208301356122048161210f565b634e487b7160e01b600052603260045260246000fd5b60006020828403121561240657600080fd5b5051919050565b60006020828403121561241f57600080fd5b81518015158114611ebc57600080fd5b634e487b7160e01b600052601160045260246000fd5b808201808211156106925761069261242f565b60005b8381101561247357818101518382015260200161245b565b50506000910152565b7f416363657373436f6e74726f6c3a206163636f756e74200000000000000000008152600083516124b4816017850160208801612458565b7f206973206d697373696e6720726f6c652000000000000000000000000000000060179184019182015283516124f1816028840160208801612458565b01602801949350505050565b602081526000825180602084015261251c816040850160208701612458565b601f01601f19169190910160400192915050565b80820281158282048414176106925761069261242f565b6000816125565761255661242f565b507fffffffffffffffffffffffffffffffffffffffffffffffffffffffffffffffff0190565b6000825161258e818460208701612458565b919091019291505056fe416464726573733a206c6f772d6c6576656c2064656c65676174652063616c6c206661696c6564a2646970667358221220fdcfe220c840f24fbb91388abbfab4aafbf104dda03e6014f0d3a0fa2a30262564736f6c63430008180033",
  "linkReferences": {},
  "deployedLinkReferences": {}
}