{
  "_format": "hh-sol-artifact-1",
  "contractName": "ClaimManage",
  "sourceName": "contracts/ClaimManage.sol",
  "abi": [
    {
      "inputs": [
        {
          "internalType": "uint256",
          "name": "tokenType",
          "type": "uint256"
        }
      ],
      "name": "ClaimOutOfTokentype",
      "type": "error"
    },
    {
      "anonymous": false,
      "inputs": [
        {
          "indexed": false,
          "internalType": "address",
          "name": "previousAdmin",
          "type": "address"
        },
        {
          "indexed": false,
          "internalType": "address",
          "name": "newAdmin",
          "type": "address"
        }
      ],
      "name": "AdminChanged",
      "type": "event"
    },
    {
      "anonymous": false,
      "inputs": [
        {
          "indexed": true,
          "internalType": "address",
          "name": "beacon",
          "type": "address"
        }
      ],
      "name": "BeaconUpgraded",
      "type": "event"
    },
    {
      "anonymous": false,
      "inputs": [
        {
          "indexed": false,
          "internalType": "uint256",
          "name": "voucherType",
          "type": "uint256"
        },
        {
          "indexed": true,
          "internalType": "address",
          "name": "user",
          "type": "address"
        },
        {
          "indexed": false,
          "internalType": "uint256",
          "name": "heroQuantity",
          "type": "uint256"
        },
        {
          "indexed": false,
          "internalType": "uint256",
          "name": "amount",
          "type": "uint256"
        },
        {
          "indexed": false,
          "internalType": "uint256",
          "name": "nonce",
          "type": "uint256"
        }
      ],
      "name": "BuyHeroViaVoucher",
      "type": "event"
    },
    {
      "anonymous": false,
      "inputs": [
        {
          "indexed": false,
          "internalType": "uint256",
          "name": "tokenType",
          "type": "uint256"
        },
        {
          "indexed": true,
          "internalType": "address",
          "name": "user",
          "type": "address"
        },
        {
          "indexed": false,
          "internalType": "uint256",
          "name": "reward",
          "type": "uint256"
        }
      ],
      "name": "ClaimToken",
      "type": "event"
    },
    {
      "anonymous": false,
      "inputs": [
        {
          "indexed": false,
          "internalType": "uint256",
          "name": "tokenType",
          "type": "uint256"
        },
        {
          "indexed": true,
          "internalType": "address",
          "name": "user",
          "type": "address"
        },
        {
          "indexed": false,
          "internalType": "uint256",
          "name": "amount",
          "type": "uint256"
        },
        {
          "indexed": false,
          "internalType": "uint256",
          "name": "nonce",
          "type": "uint256"
        },
        {
          "indexed": false,
          "internalType": "uint256[]",
          "name": "details",
          "type": "uint256[]"
        }
      ],
      "name": "ClaimTokens",
      "type": "event"
    },
    {
      "anonymous": false,
      "inputs": [
        {
          "indexed": false,
          "internalType": "uint8",
          "name": "version",
          "type": "uint8"
        }
      ],
      "name": "Initialized",
      "type": "event"
    },
    {
      "anonymous": false,
      "inputs": [
        {
          "indexed": true,
          "internalType": "bytes32",
          "name": "role",
          "type": "bytes32"
        },
        {
          "indexed": true,
          "internalType": "bytes32",
          "name": "previousAdminRole",
          "type": "bytes32"
        },
        {
          "indexed": true,
          "internalType": "bytes32",
          "name": "newAdminRole",
          "type": "bytes32"
        }
      ],
      "name": "RoleAdminChanged",
      "type": "event"
    },
    {
      "anonymous": false,
      "inputs": [
        {
          "indexed": true,
          "internalType": "bytes32",
          "name": "role",
          "type": "bytes32"
        },
        {
          "indexed": true,
          "internalType": "address",
          "name": "account",
          "type": "address"
        },
        {
          "indexed": true,
          "internalType": "address",
          "name": "sender",
          "type": "address"
        }
      ],
      "name": "RoleGranted",
      "type": "event"
    },
    {
      "anonymous": false,
      "inputs": [
        {
          "indexed": true,
          "internalType": "bytes32",
          "name": "role",
          "type": "bytes32"
        },
        {
          "indexed": true,
          "internalType": "address",
          "name": "account",
          "type": "address"
        },
        {
          "indexed": true,
          "internalType": "address",
          "name": "sender",
          "type": "address"
        }
      ],
      "name": "RoleRevoked",
      "type": "event"
    },
    {
      "anonymous": false,
      "inputs": [
        {
          "indexed": true,
          "internalType": "address",
          "name": "implementation",
          "type": "address"
        }
      ],
      "name": "Upgraded",
      "type": "event"
    },
    {
      "inputs": [],
      "name": "DEFAULT_ADMIN_ROLE",
      "outputs": [
        {
          "internalType": "bytes32",
          "name": "",
          "type": "bytes32"
        }
      ],
      "stateMutability": "view",
      "type": "function"
    },
    {
      "inputs": [],
      "name": "MANAGER_ROLE",
      "outputs": [
        {
          "internalType": "bytes32",
          "name": "",
          "type": "bytes32"
        }
      ],
      "stateMutability": "view",
      "type": "function"
    },
    {
      "inputs": [],
      "name": "UPGRADER_ROLE",
      "outputs": [
        {
          "internalType": "bytes32",
          "name": "",
          "type": "bytes32"
        }
      ],
      "stateMutability": "view",
      "type": "function"
    },
    {
      "inputs": [],
      "name": "WITHDRAWER_ROLE",
      "outputs": [
        {
          "internalType": "bytes32",
          "name": "",
          "type": "bytes32"
        }
      ],
      "stateMutability": "view",
      "type": "function"
    },
    {
      "inputs": [
        {
          "internalType": "bytes32",
          "name": "message",
          "type": "bytes32"
        },
        {
          "internalType": "bytes",
          "name": "signature",
          "type": "bytes"
        }
      ],
      "name": "_verify",
      "outputs": [
        {
          "internalType": "bool",
          "name": "",
          "type": "bool"
        }
      ],
      "stateMutability": "view",
      "type": "function"
    },
    {
      "inputs": [],
      "name": "adminTool",
      "outputs": [
        {
          "internalType": "contract IAdminTool",
          "name": "",
          "type": "address"
        }
      ],
      "stateMutability": "view",
      "type": "function"
    },
    {
      "inputs": [],
      "name": "assetHolder",
      "outputs": [
        {
          "internalType": "address",
          "name": "",
          "type": "address"
        }
      ],
      "stateMutability": "view",
      "type": "function"
    },
    {
      "inputs": [],
      "name": "bHeroToken",
      "outputs": [
        {
          "internalType": "contract IBHeroToken",
          "name": "",
          "type": "address"
        }
      ],
      "stateMutability": "view",
      "type": "function"
    },
    {
      "inputs": [
        {
          "internalType": "address",
          "name": "tokenPay",
          "type": "address"
        },
        {
          "internalType": "uint256",
          "name": "voucherType",
          "type": "uint256"
        },
        {
          "internalType": "uint256",
          "name": "heroQuantity",
          "type": "uint256"
        },
        {
          "internalType": "uint256",
          "name": "amount",
          "type": "uint256"
        },
        {
          "internalType": "uint256",
          "name": "nonce",
          "type": "uint256"
        },
        {
          "internalType": "bytes",
          "name": "signature",
          "type": "bytes"
        }
      ],
      "name": "buyHeroUseVoucher",
      "outputs": [],
      "stateMutability": "nonpayable",
      "type": "function"
    },
    {
      "inputs": [
        {
          "internalType": "uint256",
          "name": "tokenType",
          "type": "uint256"
        },
        {
          "internalType": "uint256",
          "name": "amount",
          "type": "uint256"
        },
        {
          "internalType": "uint256",
          "name": "nonce",
          "type": "uint256"
        },
        {
          "internalType": "uint256[]",
          "name": "details",
          "type": "uint256[]"
        },
        {
          "internalType": "bytes",
          "name": "signature",
          "type": "bytes"
        }
      ],
      "name": "claimTokens",
      "outputs": [],
      "stateMutability": "nonpayable",
      "type": "function"
    },
    {
      "inputs": [
        {
          "internalType": "address",
          "name": "",
          "type": "address"
        },
        {
          "internalType": "uint256",
          "name": "",
          "type": "uint256"
        }
      ],
      "name": "claimedInfo",
      "outputs": [
        {
          "internalType": "uint256",
          "name": "totalClaim",
          "type": "uint256"
        }
      ],
      "stateMutability": "view",
      "type": "function"
    },
    {
      "inputs": [],
      "name": "dummyDeploy2",
      "outputs": [
        {
          "internalType": "uint256",
          "name": "",
          "type": "uint256"
        }
      ],
      "stateMutability": "view",
      "type": "function"
    },
    {
      "inputs": [
        {
          "internalType": "bytes32",
          "name": "role",
          "type": "bytes32"
        }
      ],
      "name": "getRoleAdmin",
      "outputs": [
        {
          "internalType": "bytes32",
          "name": "",
          "type": "bytes32"
        }
      ],
      "stateMutability": "view",
      "type": "function"
    },
    {
      "inputs": [
        {
          "internalType": "address",
          "name": "user",
          "type": "address"
        },
        {
          "internalType": "uint256",
          "name": "tokenType",
          "type": "uint256"
        }
      ],
      "name": "getTotalClaim",
      "outputs": [
        {
          "internalType": "uint256",
          "name": "",
          "type": "uint256"
        }
      ],
      "stateMutability": "view",
      "type": "function"
    },
    {
      "inputs": [
        {
          "internalType": "bytes32",
          "name": "role",
          "type": "bytes32"
        },
        {
          "internalType": "address",
          "name": "account",
          "type": "address"
        }
      ],
      "name": "grantRole",
      "outputs": [],
      "stateMutability": "nonpayable",
      "type": "function"
    },
    {
      "inputs": [
        {
          "internalType": "bytes32",
          "name": "role",
          "type": "bytes32"
        },
        {
          "internalType": "address",
          "name": "account",
          "type": "address"
        }
      ],
      "name": "hasRole",
      "outputs": [
        {
          "internalType": "bool",
          "name": "",
          "type": "bool"
        }
      ],
      "stateMutability": "view",
      "type": "function"
    },
    {
      "inputs": [],
      "name": "initialize",
      "outputs": [],
      "stateMutability": "nonpayable",
      "type": "function"
    },
    {
      "inputs": [],
      "name": "proxiableUUID",
      "outputs": [
        {
          "internalType": "bytes32",
          "name": "",
          "type": "bytes32"
        }
      ],
      "stateMutability": "view",
      "type": "function"
    },
    {
      "inputs": [
        {
          "internalType": "bytes32",
          "name": "role",
          "type": "bytes32"
        },
        {
          "internalType": "address",
          "name": "account",
          "type": "address"
        }
      ],
      "name": "renounceRole",
      "outputs": [],
      "stateMutability": "nonpayable",
      "type": "function"
    },
    {
      "inputs": [
        {
          "internalType": "address",
          "name": "user",
          "type": "address"
        },
        {
          "internalType": "uint256",
          "name": "voucherType",
          "type": "uint256"
        }
      ],
      "name": "resetUserVoucher",
      "outputs": [],
      "stateMutability": "nonpayable",
      "type": "function"
    },
    {
      "inputs": [
        {
          "internalType": "bytes32",
          "name": "role",
          "type": "bytes32"
        },
        {
          "internalType": "address",
          "name": "account",
          "type": "address"
        }
      ],
      "name": "revokeRole",
      "outputs": [],
      "stateMutability": "nonpayable",
      "type": "function"
    },
    {
      "inputs": [
        {
          "internalType": "address",
          "name": "_adminTool",
          "type": "address"
        }
      ],
      "name": "setAdminTool",
      "outputs": [],
      "stateMutability": "nonpayable",
      "type": "function"
    },
    {
      "inputs": [
        {
          "internalType": "address",
          "name": "_assetHolder",
          "type": "address"
        }
      ],
      "name": "setAssetHolder",
      "outputs": [],
      "stateMutability": "nonpayable",
      "type": "function"
    },
    {
      "inputs": [
        {
          "internalType": "uint256",
          "name": "tokenType",
          "type": "uint256"
        },
        {
          "internalType": "address",
          "name": "_contract",
          "type": "address"
        },
        {
          "internalType": "uint256",
          "name": "_stdToken",
          "type": "uint256"
        }
      ],
      "name": "setTokenContract",
      "outputs": [],
      "stateMutability": "nonpayable",
      "type": "function"
    },
    {
      "inputs": [
        {
          "internalType": "uint256",
          "name": "voucherType",
          "type": "uint256"
        },
        {
          "components": [
            {
              "internalType": "bool",
              "name": "isOneTime",
              "type": "bool"
            },
            {
              "internalType": "uint256",
              "name": "maxEachUser",
              "type": "uint256"
            },
            {
              "internalType": "uint256",
              "name": "timeEnd",
              "type": "uint256"
            },
            {
              "internalType": "uint256",
              "name": "remaining",
              "type": "uint256"
            }
          ],
          "internalType": "struct ClaimManage.VoucherInfo",
          "name": "vInfo",
          "type": "tuple"
        }
      ],
      "name": "setVoucherInfo",
      "outputs": [],
      "stateMutability": "nonpayable",
      "type": "function"
    },
    {
      "inputs": [
        {
          "internalType": "bytes4",
          "name": "interfaceId",
          "type": "bytes4"
        }
      ],
      "name": "supportsInterface",
      "outputs": [
        {
          "internalType": "bool",
          "name": "",
          "type": "bool"
        }
      ],
      "stateMutability": "view",
      "type": "function"
    },
    {
      "inputs": [
        {
          "internalType": "uint256",
          "name": "",
          "type": "uint256"
        }
      ],
      "name": "tokenContracts",
      "outputs": [
        {
          "internalType": "address",
          "name": "",
          "type": "address"
        }
      ],
      "stateMutability": "view",
      "type": "function"
    },
    {
      "inputs": [
        {
          "internalType": "address",
          "name": "newImplementation",
          "type": "address"
        }
      ],
      "name": "upgradeTo",
      "outputs": [],
      "stateMutability": "nonpayable",
      "type": "function"
    },
    {
      "inputs": [
        {
          "internalType": "address",
          "name": "newImplementation",
          "type": "address"
        },
        {
          "internalType": "bytes",
          "name": "data",
          "type": "bytes"
        }
      ],
      "name": "upgradeToAndCall",
      "outputs": [],
      "stateMutability": "payable",
      "type": "function"
    },
    {
      "inputs": [
        {
          "internalType": "address",
          "name": "",
          "type": "address"
        },
        {
          "internalType": "uint256",
          "name": "",
          "type": "uint256"
        }
      ],
      "name": "usedNonces",
      "outputs": [
        {
          "internalType": "bool",
          "name": "",
          "type": "bool"
        }
      ],
      "stateMutability": "view",
      "type": "function"
    },
    {
      "inputs": [
        {
          "internalType": "uint256",
          "name": "voucherType",
          "type": "uint256"
        },
        {
          "internalType": "address",
          "name": "user",
          "type": "address"
        }
      ],
      "name": "userCanUseVoucher",
      "outputs": [
        {
          "internalType": "bool",
          "name": "",
          "type": "bool"
        }
      ],
      "stateMutability": "view",
      "type": "function"
    },
    {
      "inputs": [
        {
          "internalType": "address",
          "name": "",
          "type": "address"
        },
        {
          "internalType": "uint256",
          "name": "",
          "type": "uint256"
        }
      ],
      "name": "userUsedVoucher",
      "outputs": [
        {
          "internalType": "uint256",
          "name": "",
          "type": "uint256"
        }
      ],
      "stateMutability": "view",
      "type": "function"
    },
    {
      "inputs": [
        {
          "internalType": "uint256",
          "name": "",
          "type": "uint256"
        }
      ],
      "name": "voucherInfo",
      "outputs": [
        {
          "internalType": "bool",
          "name": "isOneTime",
          "type": "bool"
        },
        {
          "internalType": "uint256",
          "name": "maxEachUser",
          "type": "uint256"
        },
        {
          "internalType": "uint256",
          "name": "timeEnd",
          "type": "uint256"
        },
        {
          "internalType": "uint256",
          "name": "remaining",
          "type": "uint256"
        }
      ],
      "stateMutability": "view",
      "type": "function"
    },
    {
      "inputs": [
        {
          "internalType": "uint256",
          "name": "",
          "type": "uint256"
        }
      ],
      "name": "whoAmI",
      "outputs": [
        {
          "internalType": "uint256",
          "name": "",
          "type": "uint256"
        }
      ],
      "stateMutability": "view",
      "type": "function"
    },
    {
      "inputs": [
        {
          "internalType": "address",
          "name": "tokenAddress",
          "type": "address"
        }
      ],
      "name": "withdraw",
      "outputs": [],
      "stateMutability": "nonpayable",
      "type": "function"
    }
  ],
  "bytecode": "0x60a06040523060805234801561001457600080fd5b5060805161358761004c60003960008181610e7001528181610f060152818161109e01528181611134015261136f01526135876000f3fe6080604052600436106102345760003560e01c80636a8a689411610138578063990f412f116100b0578063c53e4e8d1161007f578063d547741f11610064578063d547741f14610763578063ec87621c14610783578063f72c0d8b146107b757600080fd5b8063c53e4e8d14610723578063cfa8ba4f1461074357600080fd5b8063990f412f146106ad5780639bb3fbfd146106cd578063a217fddf146106ed578063a7922af71461070257600080fd5b8063808841b71161010757806385f438c1116100ec57806385f438c1146106135780639072094a1461064757806391d148541461066757600080fd5b8063808841b7146105ea5780638129fc1c146105fe57600080fd5b80636a8a6894146104e35780637540c9551461051e5780637841ee9c1461053e5780637d177cad146105a757600080fd5b80632f2ff15d116101cb5780634c5b53d11161019a57806351cff8d91161017f57806351cff8d91461048e57806352d1902d146104ae5780636055f47f146104c357600080fd5b80634c5b53d1146104435780634f1ef2861461047b57600080fd5b80632f2ff15d146103c357806336568abe146103e35780633659cfe61461040357806349010dfa1461042357600080fd5b806315a7f07a1161020757806315a7f07a146103035780631d9fb3091461032557806321e215e614610373578063248a9ca31461039357600080fd5b806301ffc9a714610239578063034278171461026e57806308cc0dba146102b55780630cca8b48146102e3575b600080fd5b34801561024557600080fd5b50610259610254366004612dd8565b6107eb565b60405190151581526020015b60405180910390f35b34801561027a57600080fd5b506102a7610289366004612e2f565b61010260209081526000928352604080842090915290825290205481565b604051908152602001610265565b3480156102c157600080fd5b506102a76102d0366004612e5b565b6101036020526000908152604090205481565b3480156102ef57600080fd5b506102596102fe366004612e74565b6107fc565b34801561030f57600080fd5b5061032361031e366004612f47565b6108c6565b005b34801561033157600080fd5b5061035b610340366004612e5b565b60fc602052600090815260409020546001600160a01b031681565b6040516001600160a01b039091168152602001610265565b34801561037f57600080fd5b5060ff5461035b906001600160a01b031681565b34801561039f57600080fd5b506102a76103ae366004612e5b565b60009081526065602052604090206001015490565b3480156103cf57600080fd5b506103236103de366004612e74565b610db0565b3480156103ef57600080fd5b506103236103fe366004612e74565b610dda565b34801561040f57600080fd5b5061032361041e366004612fbc565b610e66565b34801561042f57600080fd5b5061032361043e366004612fe7565b611003565b34801561044f57600080fd5b506102a761045e366004612e2f565b60fd60209081526000928352604080842090915290825290205481565b610323610489366004613073565b611094565b34801561049a57600080fd5b506103236104a9366004612fbc565b61121e565b3480156104ba57600080fd5b506102a7611362565b3480156104cf57600080fd5b506103236104de366004612e2f565b611427565b3480156104ef57600080fd5b506102596104fe366004612e2f565b60fe60209081526000928352604080842090915290825290205460ff1681565b34801561052a57600080fd5b5060fb5461035b906001600160a01b031681565b34801561054a57600080fd5b50610585610559366004612e5b565b61010160205260009081526040902080546001820154600283015460039093015460ff90921692909184565b6040805194151585526020850193909352918301526060820152608001610265565b3480156105b357600080fd5b506102a76105c2366004612e2f565b6001600160a01b0391909116600090815260fd60209081526040808320938352929052205490565b3480156105f657600080fd5b5060006102a7565b34801561060a57600080fd5b5061032361147b565b34801561061f57600080fd5b506102a77f10dac8c06a04bec0b551627dad28bc00d6516b0caacd1c7b345fcdb5211334e481565b34801561065357600080fd5b50610323610662366004612fbc565b61162b565b34801561067357600080fd5b50610259610682366004612e74565b60009182526065602090815260408084206001600160a01b0393909316845291905290205460ff1690565b3480156106b957600080fd5b506103236106c8366004612fbc565b611686565b3480156106d957600080fd5b506103236106e83660046130c3565b6116e0565b3480156106f957600080fd5b506102a7600081565b34801561070e57600080fd5b506101005461035b906001600160a01b031681565b34801561072f57600080fd5b5061032361073e3660046130fb565b611752565b34801561074f57600080fd5b5061025961075e3660046131a4565b611a93565b34801561076f57600080fd5b5061032361077e366004612e74565b611ae3565b34801561078f57600080fd5b506102a77f241ecf16d79d0f8dbfb92cbc07fe17840425976cf0667f022fe9877caa831b0881565b3480156107c357600080fd5b506102a77f189ab7a9244df0848122154315af71fe140f3db0fe014031783b0946b8c9d2e381565b60006107f682611b08565b92915050565b6000828152610101602090815260408083208151608081018352815460ff161580158252600183015494820194909452600282015492810192909252600301546060820152906108735750506001600160a01b038116600090815261010260209081526040808320858452909152902054156107f6565b6020808201516001600160a01b03851660009081526101028352604080822088835290935291909120541080156108ae575060008160600151115b80156108be575042816040015110155b949350505050565b600085815261010160209081526040918290208251608081018452815460ff1615158152600182015492810192909252600281015492820183905260030154606082015233918791904211156109635760405162461bcd60e51b815260206004820152600f60248201527f566f75636865722065787069726564000000000000000000000000000000000060448201526064015b60405180910390fd5b60008160600151116109b75760405162461bcd60e51b815260206004820152600e60248201527f566f756368657220657863656564000000000000000000000000000000000000604482015260640161095a565b805115610a35576001600160a01b03831660009081526101026020908152604080832085845290915290205415610a305760405162461bcd60e51b815260206004820152601060248201527f566f756368657220697320757365642100000000000000000000000000000000604482015260640161095a565b610aac565b6020808201516001600160a01b038516600090815261010283526040808220868352909352919091205410610aac5760405162461bcd60e51b815260206004820152601760248201527f566f75636865722065786365656420666f722075736572000000000000000000604482015260640161095a565b33600081815260fe6020908152604080832089845290915290205460ff1615610b175760405162461bcd60e51b815260206004820152600e60248201527f4e6f6e6365206861732075736564000000000000000000000000000000000000604482015260640161095a565b6001600160a01b038116600090815260fe6020908152604080832089845282528083208054600160ff1990911617905580516bffffffffffffffffffffffff19606086811b8216838601528f811b82166034840152604883018f9052606883018e9052608883018d905260a883018c905230901b1660c8820152815160bc81830301815260dc909101909152805191012090610bb282611b9f565b9050610bbe8188611a93565b610c0a5760405162461bcd60e51b815260206004820152601560248201527f4d6573736167652069736e277420636f72726563740000000000000000000000604482015260640161095a565b610c148b84611c00565b6040517f23b872dd0000000000000000000000000000000000000000000000000000000081526001600160a01b038481166004830152306024830152604482018b90528d16906323b872dd906064016020604051808303816000875af1158015610c82573d6000803e3d6000fd5b505050506040513d601f19601f82011682018060405250810190610ca691906131d5565b50600160005260fc6020527f052c125922528b736c304beeb5beaa759f4f3176083166414db66e733d1f6a93546040517fa2e84674000000000000000000000000000000000000000000000000000000008152600481018c90526001600160a01b0385811660248301529091169063a2e8467490604401600060405180830381600087803b158015610d3757600080fd5b505af1158015610d4b573d6000803e3d6000fd5b5050604080518e8152602081018e90529081018c9052606081018b90526001600160a01b03861692507fad169f90caa86c4f3956b5eb44734b3dea9cc8387af874678058ec24273741c7915060800160405180910390a2505050505050505050505050565b600082815260656020526040902060010154610dcb81611c71565b610dd58383611c7b565b505050565b6001600160a01b0381163314610e585760405162461bcd60e51b815260206004820152602f60248201527f416363657373436f6e74726f6c3a2063616e206f6e6c792072656e6f756e636560448201527f20726f6c657320666f722073656c660000000000000000000000000000000000606482015260840161095a565b610e628282611d1d565b5050565b6001600160a01b037f0000000000000000000000000000000000000000000000000000000000000000163003610f045760405162461bcd60e51b815260206004820152602c60248201527f46756e6374696f6e206d7573742062652063616c6c6564207468726f7567682060448201527f64656c656761746563616c6c0000000000000000000000000000000000000000606482015260840161095a565b7f00000000000000000000000000000000000000000000000000000000000000006001600160a01b0316610f5f7f360894a13ba1a3210667c828492db98dca3e2076cc3735a920a3ca505d382bbc546001600160a01b031690565b6001600160a01b031614610fdb5760405162461bcd60e51b815260206004820152602c60248201527f46756e6374696f6e206d7573742062652063616c6c6564207468726f7567682060448201527f6163746976652070726f78790000000000000000000000000000000000000000606482015260840161095a565b610fe481611da0565b6040805160008082526020820190925261100091839190611dca565b50565b7f241ecf16d79d0f8dbfb92cbc07fe17840425976cf0667f022fe9877caa831b0861102d81611c71565b5060408051608081018252825115158152602080840151818301908152848401518385019081526060958601519584019586526000968752610101909252929094209051815460ff1916901515178155905160018201559151600283015551600390910155565b6001600160a01b037f00000000000000000000000000000000000000000000000000000000000000001630036111325760405162461bcd60e51b815260206004820152602c60248201527f46756e6374696f6e206d7573742062652063616c6c6564207468726f7567682060448201527f64656c656761746563616c6c0000000000000000000000000000000000000000606482015260840161095a565b7f00000000000000000000000000000000000000000000000000000000000000006001600160a01b031661118d7f360894a13ba1a3210667c828492db98dca3e2076cc3735a920a3ca505d382bbc546001600160a01b031690565b6001600160a01b0316146112095760405162461bcd60e51b815260206004820152602c60248201527f46756e6374696f6e206d7573742062652063616c6c6564207468726f7567682060448201527f6163746976652070726f78790000000000000000000000000000000000000000606482015260840161095a565b61121282611da0565b610e6282826001611dca565b7f10dac8c06a04bec0b551627dad28bc00d6516b0caacd1c7b345fcdb5211334e461124881611c71565b6040517f70a0823100000000000000000000000000000000000000000000000000000000815230600482015282906001600160a01b0382169063a9059cbb90339083906370a0823190602401602060405180830381865afa1580156112b1573d6000803e3d6000fd5b505050506040513d601f19601f820116820180604052508101906112d591906131f2565b6040517fffffffff0000000000000000000000000000000000000000000000000000000060e085901b1681526001600160a01b03909216600483015260248201526044016020604051808303816000875af1158015611338573d6000803e3d6000fd5b505050506040513d601f19601f8201168201806040525081019061135c91906131d5565b50505050565b6000306001600160a01b037f000000000000000000000000000000000000000000000000000000000000000016146114025760405162461bcd60e51b815260206004820152603860248201527f555550535570677261646561626c653a206d757374206e6f742062652063616c60448201527f6c6564207468726f7567682064656c656761746563616c6c0000000000000000606482015260840161095a565b507f360894a13ba1a3210667c828492db98dca3e2076cc3735a920a3ca505d382bbc90565b7f241ecf16d79d0f8dbfb92cbc07fe17840425976cf0667f022fe9877caa831b0861145181611c71565b506001600160a01b0390911660009081526101026020908152604080832093835292905290812055565b600054610100900460ff161580801561149b5750600054600160ff909116105b806114b55750303b1580156114b5575060005460ff166001145b6115275760405162461bcd60e51b815260206004820152602e60248201527f496e697469616c697a61626c653a20636f6e747261637420697320616c72656160448201527f647920696e697469616c697a6564000000000000000000000000000000000000606482015260840161095a565b6000805460ff19166001179055801561154a576000805461ff0019166101001790555b611552611f6a565b61155a611f6a565b611565600033611c7b565b61158f7f189ab7a9244df0848122154315af71fe140f3db0fe014031783b0946b8c9d2e333611c7b565b6115b97f241ecf16d79d0f8dbfb92cbc07fe17840425976cf0667f022fe9877caa831b0833611c7b565b6115e37f10dac8c06a04bec0b551627dad28bc00d6516b0caacd1c7b345fcdb5211334e433611c7b565b8015611000576000805461ff0019169055604051600181527f7f26b83ff96e1f2b6a682f133852f6798a09c465da95921460cefb38474024989060200160405180910390a150565b7f241ecf16d79d0f8dbfb92cbc07fe17840425976cf0667f022fe9877caa831b0861165581611c71565b50610100805473ffffffffffffffffffffffffffffffffffffffff19166001600160a01b0392909216919091179055565b7f241ecf16d79d0f8dbfb92cbc07fe17840425976cf0667f022fe9877caa831b086116b081611c71565b5060fb805473ffffffffffffffffffffffffffffffffffffffff19166001600160a01b0392909216919091179055565b7f241ecf16d79d0f8dbfb92cbc07fe17840425976cf0667f022fe9877caa831b0861170a81611c71565b50600092835260fc60209081526040808520805473ffffffffffffffffffffffffffffffffffffffff19166001600160a01b0395909516949094179093556101039052912055565b600086815260fc60205260409020546001600160a01b03166117b65760405162461bcd60e51b815260206004820152601460248201527f436f6e7472616374206e6f742065786973746564000000000000000000000000604482015260640161095a565b33600090815260fe6020908152604080832087845290915290205460ff16156118215760405162461bcd60e51b815260206004820152600e60248201527f4e6f6e6365206861732075736564000000000000000000000000000000000000604482015260640161095a565b33600081815260fe602090815260408083208884528252808320805460ff1916600117905592825260fd81528282208983529052908120906118638585611fe9565b82546040519192506000916118869133918c918c918c918891309060200161322f565b60405160208183030381529060405280519060200120905060006118a982611b9f565b90506118b58186611a93565b6119015760405162461bcd60e51b815260206004820152601560248201527f4d6573736167652069736e277420636f72726563740000000000000000000000604482015260640161095a565b89600087900361191a57611915818b61206b565b611a3d565b6000805b888110156119a15789898281811061193857611938613290565b905060200201356000036119585781611950816132bc565b925050611999565b600061197c8b8b8481811061196f5761196f613290565b905060200201358561232c565b90508088600001600082825461199291906132d6565b9091555050505b60010161191e565b5080156119d3576119d3828288600001546119bc91906132d6565b6119ce90670de0b6b3a76400006132e9565b61206b565b60006119e7670de0b6b3a76400008d613300565b87549091508114611a3a5760405162461bcd60e51b815260206004820152600f60248201527f436c61696d656420696e76616c69640000000000000000000000000000000000604482015260640161095a565b50505b336001600160a01b03167f92bb64d760fe566a2e34124e86f2d9e082f4a0ceb4edc92b36fd066207454da28c8c8c8c8c604051611a7e959493929190613322565b60405180910390a25050505050505050505050565b600080611aa084846123f1565b6001600160a01b03811660009081527fffdfc1249c027f9191656349feb0761381bb32c9f557e01f419fd08754bf5a1b602052604090205490915060ff166108be565b600082815260656020526040902060010154611afe81611c71565b610dd58383611d1d565b60007fffffffff0000000000000000000000000000000000000000000000000000000082167f7965db0b0000000000000000000000000000000000000000000000000000000014806107f657507f01ffc9a7000000000000000000000000000000000000000000000000000000007fffffffff000000000000000000000000000000000000000000000000000000008316146107f6565b60008082604051602001611bb591815260200190565b6040516020818303038152906040529050611bd0815161247c565b81604051602001611be2929190613389565b60405160208183030381529060405280519060200120915050919050565b6001600160a01b0381166000908152610102602090815260408083208584529091528120805460019290611c359084906132d6565b9091555050600082815261010160205260409020805460ff16610dd5576001816003016000828254611c6791906133e4565b9091555050505050565b611000813361251c565b60008281526065602090815260408083206001600160a01b038516845290915290205460ff16610e625760008281526065602090815260408083206001600160a01b03851684529091529020805460ff19166001179055611cd93390565b6001600160a01b0316816001600160a01b0316837f2f8788117e7eff1d82e926ec794901d17c78024a50270940304540a733656f0d60405160405180910390a45050565b60008281526065602090815260408083206001600160a01b038516845290915290205460ff1615610e625760008281526065602090815260408083206001600160a01b0385168085529252808320805460ff1916905551339285917ff6391f5c32d9c69d2a47ea670b442974b53935d1edc7fd64eb21e047a839171b9190a45050565b7f189ab7a9244df0848122154315af71fe140f3db0fe014031783b0946b8c9d2e3610e6281611c71565b7f4910fdfa16fed3260ed0e7147f7cc6da11a60208b5b9406d12a635614ffd91435460ff1615611dfd57610dd583612591565b826001600160a01b03166352d1902d6040518163ffffffff1660e01b8152600401602060405180830381865afa925050508015611e57575060408051601f3d908101601f19168201909252611e54918101906131f2565b60015b611ec95760405162461bcd60e51b815260206004820152602e60248201527f45524331393637557067726164653a206e657720696d706c656d656e7461746960448201527f6f6e206973206e6f742055555053000000000000000000000000000000000000606482015260840161095a565b7f360894a13ba1a3210667c828492db98dca3e2076cc3735a920a3ca505d382bbc8114611f5e5760405162461bcd60e51b815260206004820152602960248201527f45524331393637557067726164653a20756e737570706f727465642070726f7860448201527f6961626c65555549440000000000000000000000000000000000000000000000606482015260840161095a565b50610dd583838361265c565b600054610100900460ff16611fe75760405162461bcd60e51b815260206004820152602b60248201527f496e697469616c697a61626c653a20636f6e7472616374206973206e6f74206960448201527f6e697469616c697a696e67000000000000000000000000000000000000000000606482015260840161095a565b565b6060600082900361200957506040805160208101909152600081526107f6565b606060005b83811015612063578161203886868481811061202c5761202c613290565b9050602002013561247c565b6040516020016120499291906133f7565b60408051601f19818403018152919052915060010161200e565b509392505050565b33600090815260fd60209081526040808320858452825280832061010390925282205490919060140361219457815483116120e85760405162461bcd60e51b815260206004820152601360248201527f55736572206578636565642062616c616e636500000000000000000000000000604482015260640161095a565b81546120f5908490612681565b83835561010054600086815260fc6020526040908190205490517f660b8cfd0000000000000000000000000000000000000000000000000000000081526001600160a01b03918216600482015233602482015260448101849052929350169063660b8cfd90606401600060405180830381600087803b15801561217757600080fd5b505af115801561218b573d6000803e3d6000fd5b505050506122eb565b600084815261010360205260409020546102d1036122b65760006121c084670de0b6b3a7640000612694565b9050808360000154106122155760405162461bcd60e51b815260206004820152601360248201527f55736572206578636565642062616c616e636500000000000000000000000000604482015260640161095a565b8254612222908290612681565b818455600086815260fc6020526040908190205490517fa2e84674000000000000000000000000000000000000000000000000000000008152600481018390523360248201529193506001600160a01b03169063a2e8467490604401600060405180830381600087803b15801561229857600080fd5b505af11580156122ac573d6000803e3d6000fd5b50505050506122eb565b6040517f33be886c0000000000000000000000000000000000000000000000000000000081526004810185905260240161095a565b604080518581526020810183905233917f16867e3fdd97eec2557075df08ee40b1f3c7e1e3f1cac722e5f46526c09a97b4910160405180910390a250505050565b600080600080600061233e87876126a0565b60008a815260fc6020526040908190205490517ff96bd2890000000000000000000000000000000000000000000000000000000081523360048201526024810186905260448101859052606481018490526084810183905294985092965090945092506001600160a01b03169063f96bd2899060a401600060405180830381600087803b1580156123ce57600080fd5b505af11580156123e2573d6000803e3d6000fd5b50959998505050505050505050565b600080600080612400856128d3565b925092509250600060018785858560405160008152602001604052604051612444949392919093845260ff9290921660208401526040830152606082015260800190565b6020604051602081039080840390855afa158015612466573d6000803e3d6000fd5b5050604051601f19015198975050505050505050565b6060600061248983612945565b600101905060008167ffffffffffffffff8111156124a9576124a9612ea4565b6040519080825280601f01601f1916602001820160405280156124d3576020820181803683370190505b5090508181016020015b600019017f3031323334353637383961626364656600000000000000000000000000000000600a86061a8153600a85049450846124dd57509392505050565b60008281526065602090815260408083206001600160a01b038516845290915290205460ff16610e625761254f81612a27565b61255a836020612a39565b60405160200161256b929190613426565b60408051601f198184030181529082905262461bcd60e51b825261095a916004016134a7565b6001600160a01b0381163b61260e5760405162461bcd60e51b815260206004820152602d60248201527f455243313936373a206e657720696d706c656d656e746174696f6e206973206e60448201527f6f74206120636f6e747261637400000000000000000000000000000000000000606482015260840161095a565b7f360894a13ba1a3210667c828492db98dca3e2076cc3735a920a3ca505d382bbc805473ffffffffffffffffffffffffffffffffffffffff19166001600160a01b0392909216919091179055565b61266583612c62565b6000825111806126725750805b15610dd55761135c8383612ca2565b600061268d82846133e4565b9392505050565b600061268d8284613300565b600081815260fc60205260408082205490517f4dc72eff00000000000000000000000000000000000000000000000000000000815233600482015282918291829182916001600160a01b0390911690634dc72eff90602401602060405180830381865afa158015612715573d6000803e3d6000fd5b505050506040513d601f19601f8201168201806040525081019061273991906131f2565b600087815260fc602090815260408083205481517f93f50206000000000000000000000000000000000000000000000000000000008152915194955092936001600160a01b03909316926393f50206926004808401939192918290030181865afa1580156127ab573d6000803e3d6000fd5b505050506040513d601f19601f820116820180604052508101906127cf91906134da565b6001600160a01b031663284855866040518163ffffffff1660e01b8152600401602060405180830381865afa15801561280c573d6000803e3d6000fd5b505050506040513d601f19601f8201168201806040525081019061283091906131f2565b90508082106128815760405162461bcd60e51b815260206004820152601260248201527f55736572206c696d697420726561636865640000000000000000000000000000604482015260640161095a565b6103ff88169550601f600a89901c16945061289d4360056132d6565b935060006128ba60016d40000000000000000000000000006133e4565b9699959894975050505050600f1c909116601e1b821790565b600080600083516041146129295760405162461bcd60e51b815260206004820152601860248201527f5369676e61747572652069736e27742076616c69646174650000000000000000604482015260640161095a565b5050506020810151604082015160609092015160001a92909190565b6000807a184f03e93ff9f4daa797ed6e38ed64bf6a1f010000000000000000831061298e577a184f03e93ff9f4daa797ed6e38ed64bf6a1f010000000000000000830492506040015b6d04ee2d6d415b85acef810000000083106129ba576d04ee2d6d415b85acef8100000000830492506020015b662386f26fc1000083106129d857662386f26fc10000830492506010015b6305f5e10083106129f0576305f5e100830492506008015b6127108310612a0457612710830492506004015b60648310612a16576064830492506002015b600a83106107f65760010192915050565b60606107f66001600160a01b03831660145b60606000612a488360026132e9565b612a539060026132d6565b67ffffffffffffffff811115612a6b57612a6b612ea4565b6040519080825280601f01601f191660200182016040528015612a95576020820181803683370190505b5090507f300000000000000000000000000000000000000000000000000000000000000081600081518110612acc57612acc613290565b60200101907effffffffffffffffffffffffffffffffffffffffffffffffffffffffffffff1916908160001a9053507f780000000000000000000000000000000000000000000000000000000000000081600181518110612b2f57612b2f613290565b60200101907effffffffffffffffffffffffffffffffffffffffffffffffffffffffffffff1916908160001a9053506000612b6b8460026132e9565b612b769060016132d6565b90505b6001811115612c13577f303132333435363738396162636465660000000000000000000000000000000085600f1660108110612bb757612bb7613290565b1a60f81b828281518110612bcd57612bcd613290565b60200101907effffffffffffffffffffffffffffffffffffffffffffffffffffffffffffff1916908160001a90535060049490941c93612c0c816134f7565b9050612b79565b50831561268d5760405162461bcd60e51b815260206004820181905260248201527f537472696e67733a20686578206c656e67746820696e73756666696369656e74604482015260640161095a565b612c6b81612591565b6040516001600160a01b038216907fbc7cd75a20ee27fd9adebab32041f755214dbc6bffa90cc0225b39da2e5c2d3b90600090a250565b606061268d838360405180606001604052806027815260200161352b602791396060600080856001600160a01b031685604051612cdf919061350e565b600060405180830381855af49150503d8060008114612d1a576040519150601f19603f3d011682016040523d82523d6000602084013e612d1f565b606091505b5091509150612d3086838387612d3a565b9695505050505050565b60608315612da9578251600003612da2576001600160a01b0385163b612da25760405162461bcd60e51b815260206004820152601d60248201527f416464726573733a2063616c6c20746f206e6f6e2d636f6e7472616374000000604482015260640161095a565b50816108be565b6108be8383815115612dbe5781518083602001fd5b8060405162461bcd60e51b815260040161095a91906134a7565b600060208284031215612dea57600080fd5b81357fffffffff000000000000000000000000000000000000000000000000000000008116811461268d57600080fd5b6001600160a01b038116811461100057600080fd5b60008060408385031215612e4257600080fd5b8235612e4d81612e1a565b946020939093013593505050565b600060208284031215612e6d57600080fd5b5035919050565b60008060408385031215612e8757600080fd5b823591506020830135612e9981612e1a565b809150509250929050565b634e487b7160e01b600052604160045260246000fd5b600082601f830112612ecb57600080fd5b813567ffffffffffffffff80821115612ee657612ee6612ea4565b604051601f8301601f19908116603f01168101908282118183101715612f0e57612f0e612ea4565b81604052838152866020858801011115612f2757600080fd5b836020870160208301376000602085830101528094505050505092915050565b60008060008060008060c08789031215612f6057600080fd5b8635612f6b81612e1a565b95506020870135945060408701359350606087013592506080870135915060a087013567ffffffffffffffff811115612fa357600080fd5b612faf89828a01612eba565b9150509295509295509295565b600060208284031215612fce57600080fd5b813561268d81612e1a565b801515811461100057600080fd5b60008082840360a0811215612ffb57600080fd5b833592506080601f198201121561301157600080fd5b506040516080810181811067ffffffffffffffff8211171561303557613035612ea4565b604052602084013561304681612fd9565b80825250604084013560208201526060840135604082015260808401356060820152809150509250929050565b6000806040838503121561308657600080fd5b823561309181612e1a565b9150602083013567ffffffffffffffff8111156130ad57600080fd5b6130b985828601612eba565b9150509250929050565b6000806000606084860312156130d857600080fd5b8335925060208401356130ea81612e1a565b929592945050506040919091013590565b60008060008060008060a0878903121561311457600080fd5b863595506020870135945060408701359350606087013567ffffffffffffffff8082111561314157600080fd5b818901915089601f83011261315557600080fd5b81358181111561316457600080fd5b8a60208260051b850101111561317957600080fd5b60208301955080945050608089013591508082111561319757600080fd5b50612faf89828a01612eba565b600080604083850312156131b757600080fd5b82359150602083013567ffffffffffffffff8111156130ad57600080fd5b6000602082840312156131e757600080fd5b815161268d81612fd9565b60006020828403121561320457600080fd5b5051919050565b60005b8381101561322657818101518382015260200161320e565b50506000910152565b60006bffffffffffffffffffffffff19808a60601b168352886014840152876034840152866054840152855161326c816074860160208a0161320b565b90920160748101949094525060609190911b16609482015260a80195945050505050565b634e487b7160e01b600052603260045260246000fd5b634e487b7160e01b600052601160045260246000fd5b600060001982036132cf576132cf6132a6565b5060010190565b808201808211156107f6576107f66132a6565b80820281158282048414176107f6576107f66132a6565b60008261331d57634e487b7160e01b600052601260045260246000fd5b500490565b8581528460208201528360408201526080606082015281608082015260007f07ffffffffffffffffffffffffffffffffffffffffffffffffffffffffffffff83111561336d57600080fd5b8260051b808560a08501379190910160a0019695505050505050565b7f19457468657265756d205369676e6564204d6573736167653a0a0000000000008152600083516133c181601a85016020880161320b565b8351908301906133d881601a84016020880161320b565b01601a01949350505050565b818103818111156107f6576107f66132a6565b6000835161340981846020880161320b565b83519083019061341d81836020880161320b565b01949350505050565b7f416363657373436f6e74726f6c3a206163636f756e742000000000000000000081526000835161345e81601785016020880161320b565b7f206973206d697373696e6720726f6c6520000000000000000000000000000000601791840191820152835161349b81602884016020880161320b565b01602801949350505050565b60208152600082518060208401526134c681604085016020870161320b565b601f01601f19169190910160400192915050565b6000602082840312156134ec57600080fd5b815161268d81612e1a565b600081613506576135066132a6565b506000190190565b6000825161352081846020870161320b565b919091019291505056fe416464726573733a206c6f772d6c6576656c2064656c65676174652063616c6c206661696c6564a26469706673582212200436cba824488f73d605517a125117e51b5ada85867cd26654b36e326659d47764736f6c63430008180033",
  "linkReferences": {},
  "deployedLinkReferences": {}
}