{
  "_format": "hh-sol-artifact-1",
  "contractName": "BHouseToken",
  "sourceName": "contracts/BHouseToken.sol",
  "abi": [
    {
      "anonymous": false,
      "inputs": [
        {
          "indexed": false,
          "internalType": "address",
          "name": "previousAdmin",
          "type": "address"
        },
        {
          "indexed": false,
          "internalType": "address",
          "name": "newAdmin",
          "type": "address"
        }
      ],
      "name": "AdminChanged",
      "type": "event"
    },
    {
      "anonymous": false,
      "inputs": [
        {
          "indexed": true,
          "internalType": "address",
          "name": "owner",
          "type": "address"
        },
        {
          "indexed": true,
          "internalType": "address",
          "name": "approved",
          "type": "address"
        },
        {
          "indexed": true,
          "internalType": "uint256",
          "name": "tokenId",
          "type": "uint256"
        }
      ],
      "name": "Approval",
      "type": "event"
    },
    {
      "anonymous": false,
      "inputs": [
        {
          "indexed": true,
          "internalType": "address",
          "name": "owner",
          "type": "address"
        },
        {
          "indexed": true,
          "internalType": "address",
          "name": "operator",
          "type": "address"
        },
        {
          "indexed": false,
          "internalType": "bool",
          "name": "approved",
          "type": "bool"
        }
      ],
      "name": "ApprovalForAll",
      "type": "event"
    },
    {
      "anonymous": false,
      "inputs": [
        {
          "indexed": true,
          "internalType": "address",
          "name": "beacon",
          "type": "address"
        }
      ],
      "name": "BeaconUpgraded",
      "type": "event"
    },
    {
      "anonymous": false,
      "inputs": [
        {
          "indexed": false,
          "internalType": "uint8",
          "name": "version",
          "type": "uint8"
        }
      ],
      "name": "Initialized",
      "type": "event"
    },
    {
      "anonymous": false,
      "inputs": [
        {
          "indexed": false,
          "internalType": "address",
          "name": "account",
          "type": "address"
        }
      ],
      "name": "Paused",
      "type": "event"
    },
    {
      "anonymous": false,
      "inputs": [
        {
          "indexed": true,
          "internalType": "bytes32",
          "name": "role",
          "type": "bytes32"
        },
        {
          "indexed": true,
          "internalType": "bytes32",
          "name": "previousAdminRole",
          "type": "bytes32"
        },
        {
          "indexed": true,
          "internalType": "bytes32",
          "name": "newAdminRole",
          "type": "bytes32"
        }
      ],
      "name": "RoleAdminChanged",
      "type": "event"
    },
    {
      "anonymous": false,
      "inputs": [
        {
          "indexed": true,
          "internalType": "bytes32",
          "name": "role",
          "type": "bytes32"
        },
        {
          "indexed": true,
          "internalType": "address",
          "name": "account",
          "type": "address"
        },
        {
          "indexed": true,
          "internalType": "address",
          "name": "sender",
          "type": "address"
        }
      ],
      "name": "RoleGranted",
      "type": "event"
    },
    {
      "anonymous": false,
      "inputs": [
        {
          "indexed": true,
          "internalType": "bytes32",
          "name": "role",
          "type": "bytes32"
        },
        {
          "indexed": true,
          "internalType": "address",
          "name": "account",
          "type": "address"
        },
        {
          "indexed": true,
          "internalType": "address",
          "name": "sender",
          "type": "address"
        }
      ],
      "name": "RoleRevoked",
      "type": "event"
    },
    {
      "anonymous": false,
      "inputs": [
        {
          "indexed": true,
          "internalType": "address",
          "name": "from",
          "type": "address"
        },
        {
          "indexed": true,
          "internalType": "address",
          "name": "to",
          "type": "address"
        },
        {
          "indexed": true,
          "internalType": "uint256",
          "name": "tokenId",
          "type": "uint256"
        }
      ],
      "name": "Transfer",
      "type": "event"
    },
    {
      "anonymous": false,
      "inputs": [
        {
          "indexed": false,
          "internalType": "address",
          "name": "account",
          "type": "address"
        }
      ],
      "name": "Unpaused",
      "type": "event"
    },
    {
      "anonymous": false,
      "inputs": [
        {
          "indexed": true,
          "internalType": "address",
          "name": "implementation",
          "type": "address"
        }
      ],
      "name": "Upgraded",
      "type": "event"
    },
    {
      "inputs": [],
      "name": "BURNER_ROLE",
      "outputs": [
        {
          "internalType": "bytes32",
          "name": "",
          "type": "bytes32"
        }
      ],
      "stateMutability": "view",
      "type": "function"
    },
    {
      "inputs": [],
      "name": "DEFAULT_ADMIN_ROLE",
      "outputs": [
        {
          "internalType": "bytes32",
          "name": "",
          "type": "bytes32"
        }
      ],
      "stateMutability": "view",
      "type": "function"
    },
    {
      "inputs": [],
      "name": "DESIGNER_ROLE",
      "outputs": [
        {
          "internalType": "bytes32",
          "name": "",
          "type": "bytes32"
        }
      ],
      "stateMutability": "view",
      "type": "function"
    },
    {
      "inputs": [],
      "name": "PAUSER_ROLE",
      "outputs": [
        {
          "internalType": "bytes32",
          "name": "",
          "type": "bytes32"
        }
      ],
      "stateMutability": "view",
      "type": "function"
    },
    {
      "inputs": [],
      "name": "TRADER_ROLE",
      "outputs": [
        {
          "internalType": "bytes32",
          "name": "",
          "type": "bytes32"
        }
      ],
      "stateMutability": "view",
      "type": "function"
    },
    {
      "inputs": [],
      "name": "UPGRADER_ROLE",
      "outputs": [
        {
          "internalType": "bytes32",
          "name": "",
          "type": "bytes32"
        }
      ],
      "stateMutability": "view",
      "type": "function"
    },
    {
      "inputs": [],
      "name": "WITHDRAWER_ROLE",
      "outputs": [
        {
          "internalType": "bytes32",
          "name": "",
          "type": "bytes32"
        }
      ],
      "stateMutability": "view",
      "type": "function"
    },
    {
      "inputs": [
        {
          "internalType": "uint256",
          "name": "",
          "type": "uint256"
        }
      ],
      "name": "allowTransferInNetwork",
      "outputs": [
        {
          "internalType": "bool",
          "name": "",
          "type": "bool"
        }
      ],
      "stateMutability": "view",
      "type": "function"
    },
    {
      "inputs": [
        {
          "internalType": "address",
          "name": "to",
          "type": "address"
        },
        {
          "internalType": "uint256",
          "name": "tokenId",
          "type": "uint256"
        }
      ],
      "name": "approve",
      "outputs": [],
      "stateMutability": "nonpayable",
      "type": "function"
    },
    {
      "inputs": [
        {
          "internalType": "address",
          "name": "owner",
          "type": "address"
        }
      ],
      "name": "balanceOf",
      "outputs": [
        {
          "internalType": "uint256",
          "name": "",
          "type": "uint256"
        }
      ],
      "stateMutability": "view",
      "type": "function"
    },
    {
      "inputs": [
        {
          "internalType": "uint256[]",
          "name": "ids",
          "type": "uint256[]"
        }
      ],
      "name": "burn",
      "outputs": [],
      "stateMutability": "nonpayable",
      "type": "function"
    },
    {
      "inputs": [
        {
          "internalType": "address",
          "name": "wallet",
          "type": "address"
        }
      ],
      "name": "burnWallet",
      "outputs": [],
      "stateMutability": "nonpayable",
      "type": "function"
    },
    {
      "inputs": [],
      "name": "coinToken",
      "outputs": [
        {
          "internalType": "contract IERC20",
          "name": "",
          "type": "address"
        }
      ],
      "stateMutability": "view",
      "type": "function"
    },
    {
      "inputs": [],
      "name": "design",
      "outputs": [
        {
          "internalType": "contract IBHouseDesign",
          "name": "",
          "type": "address"
        }
      ],
      "stateMutability": "view",
      "type": "function"
    },
    {
      "inputs": [
        {
          "internalType": "uint256",
          "name": "dummy",
          "type": "uint256"
        }
      ],
      "name": "dummyDeploy",
      "outputs": [
        {
          "internalType": "uint256",
          "name": "",
          "type": "uint256"
        }
      ],
      "stateMutability": "view",
      "type": "function"
    },
    {
      "inputs": [],
      "name": "dummyDeploy5",
      "outputs": [
        {
          "internalType": "uint256",
          "name": "",
          "type": "uint256"
        }
      ],
      "stateMutability": "view",
      "type": "function"
    },
    {
      "inputs": [
        {
          "internalType": "uint256",
          "name": "id",
          "type": "uint256"
        },
        {
          "internalType": "address",
          "name": "newOwner",
          "type": "address"
        }
      ],
      "name": "fixMint",
      "outputs": [],
      "stateMutability": "nonpayable",
      "type": "function"
    },
    {
      "inputs": [
        {
          "internalType": "uint256",
          "name": "id",
          "type": "uint256"
        },
        {
          "internalType": "address",
          "name": "newOwner",
          "type": "address"
        },
        {
          "internalType": "address",
          "name": "oldOwner",
          "type": "address"
        }
      ],
      "name": "fixTransfer",
      "outputs": [],
      "stateMutability": "nonpayable",
      "type": "function"
    },
    {
      "inputs": [
        {
          "internalType": "uint256",
          "name": "tokenId",
          "type": "uint256"
        }
      ],
      "name": "getApproved",
      "outputs": [
        {
          "internalType": "address",
          "name": "",
          "type": "address"
        }
      ],
      "stateMutability": "view",
      "type": "function"
    },
    {
      "inputs": [],
      "name": "getMintAvailable",
      "outputs": [
        {
          "internalType": "uint256[]",
          "name": "",
          "type": "uint256[]"
        }
      ],
      "stateMutability": "view",
      "type": "function"
    },
    {
      "inputs": [
        {
          "internalType": "bytes32",
          "name": "role",
          "type": "bytes32"
        }
      ],
      "name": "getRoleAdmin",
      "outputs": [
        {
          "internalType": "bytes32",
          "name": "",
          "type": "bytes32"
        }
      ],
      "stateMutability": "view",
      "type": "function"
    },
    {
      "inputs": [
        {
          "internalType": "address",
          "name": "to",
          "type": "address"
        }
      ],
      "name": "getTokenDetailsByOwner",
      "outputs": [
        {
          "internalType": "uint256[]",
          "name": "",
          "type": "uint256[]"
        }
      ],
      "stateMutability": "view",
      "type": "function"
    },
    {
      "inputs": [
        {
          "internalType": "bytes32",
          "name": "role",
          "type": "bytes32"
        },
        {
          "internalType": "address",
          "name": "account",
          "type": "address"
        }
      ],
      "name": "grantRole",
      "outputs": [],
      "stateMutability": "nonpayable",
      "type": "function"
    },
    {
      "inputs": [
        {
          "internalType": "bytes32",
          "name": "role",
          "type": "bytes32"
        },
        {
          "internalType": "address",
          "name": "account",
          "type": "address"
        }
      ],
      "name": "hasRole",
      "outputs": [
        {
          "internalType": "bool",
          "name": "",
          "type": "bool"
        }
      ],
      "stateMutability": "view",
      "type": "function"
    },
    {
      "inputs": [
        {
          "internalType": "contract IERC20",
          "name": "coinToken_",
          "type": "address"
        }
      ],
      "name": "initialize",
      "outputs": [],
      "stateMutability": "nonpayable",
      "type": "function"
    },
    {
      "inputs": [
        {
          "internalType": "address",
          "name": "owner",
          "type": "address"
        },
        {
          "internalType": "address",
          "name": "operator",
          "type": "address"
        }
      ],
      "name": "isApprovedForAll",
      "outputs": [
        {
          "internalType": "bool",
          "name": "",
          "type": "bool"
        }
      ],
      "stateMutability": "view",
      "type": "function"
    },
    {
      "inputs": [
        {
          "internalType": "uint256",
          "name": "rarity",
          "type": "uint256"
        }
      ],
      "name": "mint",
      "outputs": [],
      "stateMutability": "nonpayable",
      "type": "function"
    },
    {
      "inputs": [],
      "name": "name",
      "outputs": [
        {
          "internalType": "string",
          "name": "",
          "type": "string"
        }
      ],
      "stateMutability": "view",
      "type": "function"
    },
    {
      "inputs": [
        {
          "internalType": "uint256",
          "name": "tokenId",
          "type": "uint256"
        }
      ],
      "name": "ownerOf",
      "outputs": [
        {
          "internalType": "address",
          "name": "",
          "type": "address"
        }
      ],
      "stateMutability": "view",
      "type": "function"
    },
    {
      "inputs": [],
      "name": "pause",
      "outputs": [],
      "stateMutability": "nonpayable",
      "type": "function"
    },
    {
      "inputs": [],
      "name": "paused",
      "outputs": [
        {
          "internalType": "bool",
          "name": "",
          "type": "bool"
        }
      ],
      "stateMutability": "view",
      "type": "function"
    },
    {
      "inputs": [],
      "name": "proxiableUUID",
      "outputs": [
        {
          "internalType": "bytes32",
          "name": "",
          "type": "bytes32"
        }
      ],
      "stateMutability": "view",
      "type": "function"
    },
    {
      "inputs": [
        {
          "internalType": "uint256",
          "name": "id",
          "type": "uint256"
        },
        {
          "internalType": "address",
          "name": "oldOwner",
          "type": "address"
        }
      ],
      "name": "removeIdFromOldOwner",
      "outputs": [],
      "stateMutability": "nonpayable",
      "type": "function"
    },
    {
      "inputs": [
        {
          "internalType": "bytes32",
          "name": "role",
          "type": "bytes32"
        },
        {
          "internalType": "address",
          "name": "account",
          "type": "address"
        }
      ],
      "name": "renounceRole",
      "outputs": [],
      "stateMutability": "nonpayable",
      "type": "function"
    },
    {
      "inputs": [
        {
          "internalType": "bytes32",
          "name": "role",
          "type": "bytes32"
        },
        {
          "internalType": "address",
          "name": "account",
          "type": "address"
        }
      ],
      "name": "revokeRole",
      "outputs": [],
      "stateMutability": "nonpayable",
      "type": "function"
    },
    {
      "inputs": [
        {
          "internalType": "address",
          "name": "from",
          "type": "address"
        },
        {
          "internalType": "address",
          "name": "to",
          "type": "address"
        },
        {
          "internalType": "uint256",
          "name": "tokenId",
          "type": "uint256"
        }
      ],
      "name": "safeTransferFrom",
      "outputs": [],
      "stateMutability": "nonpayable",
      "type": "function"
    },
    {
      "inputs": [
        {
          "internalType": "address",
          "name": "from",
          "type": "address"
        },
        {
          "internalType": "address",
          "name": "to",
          "type": "address"
        },
        {
          "internalType": "uint256",
          "name": "tokenId",
          "type": "uint256"
        },
        {
          "internalType": "bytes",
          "name": "data",
          "type": "bytes"
        }
      ],
      "name": "safeTransferFrom",
      "outputs": [],
      "stateMutability": "nonpayable",
      "type": "function"
    },
    {
      "inputs": [
        {
          "internalType": "address",
          "name": "operator",
          "type": "address"
        },
        {
          "internalType": "bool",
          "name": "approved",
          "type": "bool"
        }
      ],
      "name": "setApprovalForAll",
      "outputs": [],
      "stateMutability": "nonpayable",
      "type": "function"
    },
    {
      "inputs": [
        {
          "internalType": "address",
          "name": "contractAddress",
          "type": "address"
        }
      ],
      "name": "setDesign",
      "outputs": [],
      "stateMutability": "nonpayable",
      "type": "function"
    },
    {
      "inputs": [
        {
          "internalType": "bytes4",
          "name": "interfaceId",
          "type": "bytes4"
        }
      ],
      "name": "supportsInterface",
      "outputs": [
        {
          "internalType": "bool",
          "name": "",
          "type": "bool"
        }
      ],
      "stateMutability": "view",
      "type": "function"
    },
    {
      "inputs": [],
      "name": "symbol",
      "outputs": [
        {
          "internalType": "string",
          "name": "",
          "type": "string"
        }
      ],
      "stateMutability": "view",
      "type": "function"
    },
    {
      "inputs": [
        {
          "internalType": "uint256",
          "name": "",
          "type": "uint256"
        }
      ],
      "name": "tokenByRarity",
      "outputs": [
        {
          "internalType": "uint256",
          "name": "",
          "type": "uint256"
        }
      ],
      "stateMutability": "view",
      "type": "function"
    },
    {
      "inputs": [
        {
          "internalType": "uint256",
          "name": "",
          "type": "uint256"
        }
      ],
      "name": "tokenDetails",
      "outputs": [
        {
          "internalType": "uint256",
          "name": "",
          "type": "uint256"
        }
      ],
      "stateMutability": "view",
      "type": "function"
    },
    {
      "inputs": [],
      "name": "tokenIdCounter",
      "outputs": [
        {
          "internalType": "uint256",
          "name": "_value",
          "type": "uint256"
        }
      ],
      "stateMutability": "view",
      "type": "function"
    },
    {
      "inputs": [
        {
          "internalType": "address",
          "name": "",
          "type": "address"
        },
        {
          "internalType": "uint256",
          "name": "",
          "type": "uint256"
        }
      ],
      "name": "tokenIds",
      "outputs": [
        {
          "internalType": "uint256",
          "name": "",
          "type": "uint256"
        }
      ],
      "stateMutability": "view",
      "type": "function"
    },
    {
      "inputs": [
        {
          "internalType": "uint256",
          "name": "tokenId",
          "type": "uint256"
        }
      ],
      "name": "tokenURI",
      "outputs": [
        {
          "internalType": "string",
          "name": "",
          "type": "string"
        }
      ],
      "stateMutability": "view",
      "type": "function"
    },
    {
      "inputs": [
        {
          "internalType": "address",
          "name": "from",
          "type": "address"
        },
        {
          "internalType": "address",
          "name": "to",
          "type": "address"
        },
        {
          "internalType": "uint256",
          "name": "tokenId",
          "type": "uint256"
        }
      ],
      "name": "transferFrom",
      "outputs": [],
      "stateMutability": "nonpayable",
      "type": "function"
    },
    {
      "inputs": [],
      "name": "unpause",
      "outputs": [],
      "stateMutability": "nonpayable",
      "type": "function"
    },
    {
      "inputs": [
        {
          "internalType": "address",
          "name": "newImplementation",
          "type": "address"
        }
      ],
      "name": "upgradeTo",
      "outputs": [],
      "stateMutability": "nonpayable",
      "type": "function"
    },
    {
      "inputs": [
        {
          "internalType": "address",
          "name": "newImplementation",
          "type": "address"
        },
        {
          "internalType": "bytes",
          "name": "data",
          "type": "bytes"
        }
      ],
      "name": "upgradeToAndCall",
      "outputs": [],
      "stateMutability": "payable",
      "type": "function"
    },
    {
      "inputs": [],
      "name": "withdraw",
      "outputs": [],
      "stateMutability": "nonpayable",
      "type": "function"
    }
  ],
  "bytecode": "0x60a06040523060805234801561001457600080fd5b5060805161489961004c60003960008181610f4701528181610fdd0152818161141c015281816114b201526115a901526148996000f3fe6080604052600436106103345760003560e01c806370a08231116101b0578063a22cb465116100ec578063d547741f11610095578063e985e9c51161006f578063e985e9c514610997578063f0a56fc8146109e0578063f72c0d8b14610a14578063fc314e3114610a4857600080fd5b8063d547741f1461090f578063df064ad81461092f578063e63ab1e91461096357600080fd5b8063c4d66de8116100c6578063c4d66de81461089e578063c87b56dd146108be578063cab44e17146108de57600080fd5b8063a22cb4651461083e578063b80f55c91461085e578063b88d4fde1461087e57600080fd5b806393f502061161015957806398bdf6f51161013357806398bdf6f5146107d15780639ab72f94146107e9578063a0712d6814610809578063a217fddf1461082957600080fd5b806393f502061461077b57806395d89b411461079c57806396f9f5ca146107b157600080fd5b8063878ace191161018a578063878ace19146106f257806391d1485414610713578063923cceb71461075957600080fd5b806370a08231146106895780638456cb59146106a957806385f438c1146106be57600080fd5b80633659cfe61161027f5780634f1ef286116102285780635c975abb116102025780635c975abb1461061d5780636352211e146106355780636af64cb0146106555780636f26c9f21461066957600080fd5b80634f1ef286146105d457806352d1902d146105e757806358797cb6146105fc57600080fd5b80633f4ba83a116102595780633f4ba83a1461057f57806342842e0e14610594578063482796cb146105b457600080fd5b80633659cfe61461052a5780633ccfd60b1461054a5780633de419e91461055f57600080fd5b80632474ca0c116102e15780632b2ce6c6116102bb5780632b2ce6c6146104ca5780632f2ff15d146104ea57806336568abe1461050a57600080fd5b80632474ca0c14610446578063248a9ca314610466578063282c51f31461049657600080fd5b8063095ea7b311610312578063095ea7b3146103c85780630e7132cc146103ea57806323b872dd1461042657600080fd5b806301ffc9a71461033957806306fdde031461036e578063081812fc14610390575b600080fd5b34801561034557600080fd5b50610359610354366004613fee565b610a76565b60405190151581526020015b60405180910390f35b34801561037a57600080fd5b50610383610a87565b604051610365919061405b565b34801561039c57600080fd5b506103b06103ab36600461406e565b610b19565b6040516001600160a01b039091168152602001610365565b3480156103d457600080fd5b506103e86103e336600461409c565b610b40565b005b3480156103f657600080fd5b5061041861040536600461406e565b6101636020526000908152604090205481565b604051908152602001610365565b34801561043257600080fd5b506103e86104413660046140c8565b610c76565b34801561045257600080fd5b506103e8610461366004614109565b610cfd565b34801561047257600080fd5b5061041861048136600461406e565b60009081526097602052604090206001015490565b3480156104a257600080fd5b506104187f3c11d16cbaffd01df69ce1c404f6340ee057498f5f00246190ea54220576a84881565b3480156104d657600080fd5b506103e86104e5366004614109565b610d58565b3480156104f657600080fd5b506103e8610505366004614126565b610e8c565b34801561051657600080fd5b506103e8610525366004614126565b610eb1565b34801561053657600080fd5b506103e8610545366004614109565b610f3d565b34801561055657600080fd5b506103e86110da565b34801561056b57600080fd5b5061041861057a36600461409c565b611203565b34801561058b57600080fd5b506103e8611235565b3480156105a057600080fd5b506103e86105af3660046140c8565b611267565b3480156105c057600080fd5b506103e86105cf366004614126565b611282565b6103e86105e236600461420d565b611412565b3480156105f357600080fd5b5061041861159c565b34801561060857600080fd5b5061015f546103b0906001600160a01b031681565b34801561062957600080fd5b5060c95460ff16610359565b34801561064157600080fd5b506103b061065036600461406e565b611661565b34801561066157600080fd5b506000610418565b34801561067557600080fd5b506103e8610684366004614126565b6116c6565b34801561069557600080fd5b506104186106a4366004614109565b6117d7565b3480156106b557600080fd5b506103e8611871565b3480156106ca57600080fd5b506104187f10dac8c06a04bec0b551627dad28bc00d6516b0caacd1c7b345fcdb5211334e481565b3480156106fe57600080fd5b5061041861070d36600461406e565b50600090565b34801561071f57600080fd5b5061035961072e366004614126565b60009182526097602090815260408084206001600160a01b0393909316845291905290205460ff1690565b34801561076557600080fd5b5061076e6118a3565b604051610365919061425d565b34801561078757600080fd5b50610164546103b0906001600160a01b031681565b3480156107a857600080fd5b506103836119db565b3480156107bd57600080fd5b5061076e6107cc366004614109565b6119ea565b3480156107dd57600080fd5b50610160546104189081565b3480156107f557600080fd5b506103e86108043660046142a1565b611ab7565b34801561081557600080fd5b506103e861082436600461406e565b611e62565b34801561083557600080fd5b50610418600081565b34801561084a57600080fd5b506103e86108593660046142f1565b612191565b34801561086a57600080fd5b506103e8610879366004614343565b61219c565b34801561088a57600080fd5b506103e86108993660046143d9565b6121ef565b3480156108aa57600080fd5b506103e86108b9366004614109565b612277565b3480156108ca57600080fd5b506103836108d936600461406e565b61254b565b3480156108ea57600080fd5b506103596108f936600461406e565b6101656020526000908152604090205460ff1681565b34801561091b57600080fd5b506103e861092a366004614126565b6125bf565b34801561093b57600080fd5b506104187f22c69ab406805e70d07fb1a6502af760601d3b977beadb295a9d76d5852e16a381565b34801561096f57600080fd5b506104187f65d7a28e3265b37a6474929f336521b332c1681b933f6cb9f3376673440d862a81565b3480156109a357600080fd5b506103596109b2366004614445565b6001600160a01b039182166000908152606a6020908152604080832093909416825291909152205460ff1690565b3480156109ec57600080fd5b506104187ffacaf2747a7486cf5730e9265973fb54447d3ace6e7e4711f6360826b073194181565b348015610a2057600080fd5b506104187f189ab7a9244df0848122154315af71fe140f3db0fe014031783b0946b8c9d2e381565b348015610a5457600080fd5b50610418610a6336600461406e565b6101626020526000908152604090205481565b6000610a81826125e4565b92915050565b606060658054610a9690614473565b80601f0160208091040260200160405190810160405280929190818152602001828054610ac290614473565b8015610b0f5780601f10610ae457610100808354040283529160200191610b0f565b820191906000526020600020905b815481529060010190602001808311610af257829003601f168201915b5050505050905090565b6000610b2482612622565b506000908152606960205260409020546001600160a01b031690565b6000610b4b82611661565b9050806001600160a01b0316836001600160a01b031603610bd95760405162461bcd60e51b815260206004820152602160248201527f4552433732313a20617070726f76616c20746f2063757272656e74206f776e6560448201527f720000000000000000000000000000000000000000000000000000000000000060648201526084015b60405180910390fd5b336001600160a01b0382161480610bf55750610bf581336109b2565b610c675760405162461bcd60e51b815260206004820152603d60248201527f4552433732313a20617070726f76652063616c6c6572206973206e6f7420746f60448201527f6b656e206f776e6572206f7220617070726f76656420666f7220616c6c0000006064820152608401610bd0565b610c718383612686565b505050565b610c803382612701565b610cf25760405162461bcd60e51b815260206004820152602d60248201527f4552433732313a2063616c6c6572206973206e6f7420746f6b656e206f776e6560448201527f72206f7220617070726f766564000000000000000000000000000000000000006064820152608401610bd0565b610c71838383612780565b7f22c69ab406805e70d07fb1a6502af760601d3b977beadb295a9d76d5852e16a3610d278161278b565b50610164805473ffffffffffffffffffffffffffffffffffffffff19166001600160a01b0392909216919091179055565b7f3c11d16cbaffd01df69ce1c404f6340ee057498f5f00246190ea54220576a848610d828161278b565b6001600160a01b03821660009081526101616020526040902054610de85760405162461bcd60e51b815260206004820152601060248201527f4e656564206f776e206120686f757365000000000000000000000000000000006044820152606401610bd0565b6001600160a01b03821660009081526101616020908152604080832080548251818502810185019093528083529192909190830182828015610e4957602002820191906000526020600020905b815481526020019060010190808311610e35575b5050505050905060005b8151811015610e8657610e7e828281518110610e7157610e716144ad565b6020026020010151612795565b600101610e53565b50505050565b600082815260976020526040902060010154610ea78161278b565b610c718383612845565b6001600160a01b0381163314610f2f5760405162461bcd60e51b815260206004820152602f60248201527f416363657373436f6e74726f6c3a2063616e206f6e6c792072656e6f756e636560448201527f20726f6c657320666f722073656c6600000000000000000000000000000000006064820152608401610bd0565b610f3982826128e7565b5050565b6001600160a01b037f0000000000000000000000000000000000000000000000000000000000000000163003610fdb5760405162461bcd60e51b815260206004820152602c60248201527f46756e6374696f6e206d7573742062652063616c6c6564207468726f7567682060448201527f64656c656761746563616c6c00000000000000000000000000000000000000006064820152608401610bd0565b7f00000000000000000000000000000000000000000000000000000000000000006001600160a01b03166110367f360894a13ba1a3210667c828492db98dca3e2076cc3735a920a3ca505d382bbc546001600160a01b031690565b6001600160a01b0316146110b25760405162461bcd60e51b815260206004820152602c60248201527f46756e6374696f6e206d7573742062652063616c6c6564207468726f7567682060448201527f6163746976652070726f787900000000000000000000000000000000000000006064820152608401610bd0565b6110bb8161296a565b604080516000808252602082019092526110d791839190612994565b50565b7f10dac8c06a04bec0b551627dad28bc00d6516b0caacd1c7b345fcdb5211334e46111048161278b565b61015f546040517f70a082310000000000000000000000000000000000000000000000000000000081523060048201526001600160a01b039091169063a9059cbb90339083906370a0823190602401602060405180830381865afa158015611170573d6000803e3d6000fd5b505050506040513d601f19601f8201168201806040525081019061119491906144c3565b6040516001600160e01b031960e085901b1681526001600160a01b03909216600483015260248201526044016020604051808303816000875af11580156111df573d6000803e3d6000fd5b505050506040513d601f19601f82011682018060405250810190610f3991906144dc565b610161602052816000526040600020818154811061122057600080fd5b90600052602060002001600091509150505481565b7f65d7a28e3265b37a6474929f336521b332c1681b933f6cb9f3376673440d862a61125f8161278b565b6110d7612b34565b610c71838383604051806020016040528060008152506121ef565b7f22c69ab406805e70d07fb1a6502af760601d3b977beadb295a9d76d5852e16a36112ac8161278b565b6001600160a01b038216600090815261016160205260408120815b8154811015611304578181815481106112e2576112e26144ad565b906000526020600020015486036112fc5760019250611304565b6001016112c7565b50816113525760405162461bcd60e51b815260206004820152600f60248201527f4f6c64206f776e65722077726f6e6700000000000000000000000000000000006044820152606401610bd0565b60008581526101626020526040812054601e1c6103ff1690506000826001848054905061137f919061450f565b8154811061138f5761138f6144ad565b90600052602060002001549050808383815481106113af576113af6144ad565b9060005260206000200181905550828054806113cd576113cd614522565b60008281526020808220600019908401810183905590920190925591815261016290915260409020805464ffc00000001916601e9290921b9190911790555050505050565b6001600160a01b037f00000000000000000000000000000000000000000000000000000000000000001630036114b05760405162461bcd60e51b815260206004820152602c60248201527f46756e6374696f6e206d7573742062652063616c6c6564207468726f7567682060448201527f64656c656761746563616c6c00000000000000000000000000000000000000006064820152608401610bd0565b7f00000000000000000000000000000000000000000000000000000000000000006001600160a01b031661150b7f360894a13ba1a3210667c828492db98dca3e2076cc3735a920a3ca505d382bbc546001600160a01b031690565b6001600160a01b0316146115875760405162461bcd60e51b815260206004820152602c60248201527f46756e6374696f6e206d7573742062652063616c6c6564207468726f7567682060448201527f6163746976652070726f787900000000000000000000000000000000000000006064820152608401610bd0565b6115908261296a565b610f3982826001612994565b6000306001600160a01b037f0000000000000000000000000000000000000000000000000000000000000000161461163c5760405162461bcd60e51b815260206004820152603860248201527f555550535570677261646561626c653a206d757374206e6f742062652063616c60448201527f6c6564207468726f7567682064656c656761746563616c6c00000000000000006064820152608401610bd0565b507f360894a13ba1a3210667c828492db98dca3e2076cc3735a920a3ca505d382bbc90565b6000818152606760205260408120546001600160a01b031680610a815760405162461bcd60e51b815260206004820152601860248201527f4552433732313a20696e76616c696420746f6b656e20494400000000000000006044820152606401610bd0565b7f22c69ab406805e70d07fb1a6502af760601d3b977beadb295a9d76d5852e16a36116f08161278b565b6001600160a01b038216600090815261016160205260408120815b815481101561174857818181548110611726576117266144ad565b906000526020600020015486036117405760019250611748565b60010161170b565b5081156117975760405162461bcd60e51b815260206004820152600d60248201527f416c7265616479206f776e6572000000000000000000000000000000000000006044820152606401610bd0565b805460018101825560009182526020808320820187905595825261016290955260409020805464ffc00000001916601e9590951b94909417909355505050565b60006001600160a01b0382166118555760405162461bcd60e51b815260206004820152602960248201527f4552433732313a2061646472657373207a65726f206973206e6f74206120766160448201527f6c6964206f776e657200000000000000000000000000000000000000000000006064820152608401610bd0565b506001600160a01b031660009081526068602052604090205490565b7f65d7a28e3265b37a6474929f336521b332c1681b933f6cb9f3376673440d862a61189b8161278b565b6110d7612b86565b6060600061016460009054906101000a90046001600160a01b03166001600160a01b031663502c9fdd6040518163ffffffff1660e01b8152600401600060405180830381865afa1580156118fb573d6000803e3d6000fd5b505050506040513d6000823e601f3d908101601f191682016040526119239190810190614538565b90506000815167ffffffffffffffff81111561194157611941614156565b60405190808252806020026020018201604052801561196a578160200160208202803683370190505b50905060005b82518110156119d45760008181526101636020526040902054835184908390811061199d5761199d6144ad565b60200260200101516119af919061450f565b8282815181106119c1576119c16144ad565b6020908102919091010152600101611970565b5092915050565b606060668054610a9690614473565b6001600160a01b03811660009081526101616020526040812080546060929067ffffffffffffffff811115611a2157611a21614156565b604051908082528060200260200182016040528015611a4a578160200160208202803683370190505b50905060005b8254811015611aaf576101626000848381548110611a7057611a706144ad565b9060005260206000200154815260200190815260200160002054828281518110611a9c57611a9c6144ad565b6020908102919091010152600101611a50565b509392505050565b33611ac184611661565b6001600160a01b03161480611b0457503360009081527fbe2095f0d483b67dd5567786c39b8d435101e5fe8b673cffd2082ed797f233da602052604090205460ff165b611b505760405162461bcd60e51b815260206004820152601a60248201527f4f776e6572206f6620686f757365206964206f722041646d696e0000000000006044820152606401610bd0565b806001600160a01b0316826001600160a01b031603611bb15760405162461bcd60e51b815260206004820152601760248201527f4f6c64206f776e6572206e65656420213d206f776e65720000000000000000006044820152606401610bd0565b33611bbb84611661565b6001600160a01b031603611c21576001600160a01b0382163314611c215760405162461bcd60e51b815260206004820181905260248201527f4e6577206f776e6572206e6565647320746f206265206d73672073656e6465726044820152606401610bd0565b6001600160a01b038116600090815261016160205260408120815b8154811015611c7957818181548110611c5757611c576144ad565b90600052602060002001548603611c715760019250611c79565b600101611c3c565b5081611cc75760405162461bcd60e51b815260206004820152600f60248201527f4f6c64206f776e65722077726f6e6700000000000000000000000000000000006044820152606401610bd0565b60008581526101626020526040812054601e1c6103ff16905060008260018480549050611cf4919061450f565b81548110611d0457611d046144ad565b9060005260206000200154905080838381548110611d2457611d246144ad565b906000526020600020018190555082805480611d4257611d42614522565b60008281526020808220600019908401810183905590920190925582825261016281526040808320805464ffc00000001916601e87901b1790556001600160a01b03891683526101619091528120815b8154811015611dcf57818181548110611dad57611dad6144ad565b90600052602060002001548a03611dc75760019250611dcf565b600101611d92565b508115611e1e5760405162461bcd60e51b815260206004820152600d60248201527f416c7265616479206f776e6572000000000000000000000000000000000000006044820152606401610bd0565b80546001810182556000918252602080832082018b905599825261016290995260409020805464ffc00000001916601e9990991b9890981790975550505050505050565b61016454604080517f502c9fdd00000000000000000000000000000000000000000000000000000000815290516000926001600160a01b03169163502c9fdd91600480830192869291908290030181865afa158015611ec5573d6000803e3d6000fd5b505050506040513d6000823e601f3d908101601f19168201604052611eed9190810190614538565b905080518210611f3f5760405162461bcd60e51b815260206004820152600e60248201527f496e76616c6964207261726974790000000000000000000000000000000000006044820152606401610bd0565b808281518110611f5157611f516144ad565b602002602001015161016360008481526020019081526020016000205410611fbb5760405162461bcd60e51b815260206004820152601460248201527f476c6f62616c206c696d697420726561636865640000000000000000000000006044820152606401610bd0565b61015f54610164546040517f0c5094360000000000000000000000000000000000000000000000000000000081526004810185905233926001600160a01b03908116926323b872dd92859230921690630c50943690602401602060405180830381865afa158015612030573d6000803e3d6000fd5b505050506040513d601f19601f8201168201806040525081019061205491906144c3565b6040516001600160e01b031960e086901b1681526001600160a01b03938416600482015292909116602483015260448201526064016020604051808303816000875af11580156120a8573d6000803e3d6000fd5b505050506040513d601f19601f820116820180604052508101906120cc91906144dc565b5060006120d96101605490565b610164546040517f2a80506900000000000000000000000000000000000000000000000000000000815260048101839052602481018790529192506001600160a01b031690632a80506990604401602060405180830381865afa158015612144573d6000803e3d6000fd5b505050506040513d601f19601f8201168201806040525081019061216891906144c3565b6000828152610162602052604090205561218761016080546001019055565b610e868282612bc3565b610f39338383612bdd565b7f3c11d16cbaffd01df69ce1c404f6340ee057498f5f00246190ea54220576a8486121c68161278b565b60005b8251811015610c71576121e7838281518110610e7157610e716144ad565b6001016121c9565b6121f93383612701565b61226b5760405162461bcd60e51b815260206004820152602d60248201527f4552433732313a2063616c6c6572206973206e6f7420746f6b656e206f776e6560448201527f72206f7220617070726f766564000000000000000000000000000000000000006064820152608401610bd0565b610e8684848484612cab565b600054610100900460ff16158080156122975750600054600160ff909116105b806122b15750303b1580156122b1575060005460ff166001145b6123235760405162461bcd60e51b815260206004820152602e60248201527f496e697469616c697a61626c653a20636f6e747261637420697320616c72656160448201527f647920696e697469616c697a65640000000000000000000000000000000000006064820152608401610bd0565b6000805460ff191660011790558015612346576000805461ff0019166101001790555b6123ba6040518060400160405280601181526020017f426f6d622043727970746f20486f7573650000000000000000000000000000008152506040518060400160405280600681526020017f42484f5553450000000000000000000000000000000000000000000000000000815250612d34565b6123c2612da9565b6123ca612e16565b6123d2612da9565b61015f805473ffffffffffffffffffffffffffffffffffffffff19166001600160a01b038416179055612406600033612e89565b6124307f65d7a28e3265b37a6474929f336521b332c1681b933f6cb9f3376673440d862a33612e89565b61245a7f189ab7a9244df0848122154315af71fe140f3db0fe014031783b0946b8c9d2e333612e89565b6124847f22c69ab406805e70d07fb1a6502af760601d3b977beadb295a9d76d5852e16a333612e89565b6124ae7f3c11d16cbaffd01df69ce1c404f6340ee057498f5f00246190ea54220576a84833612e89565b6124d87ffacaf2747a7486cf5730e9265973fb54447d3ace6e7e4711f6360826b073194133612e89565b6125027f10dac8c06a04bec0b551627dad28bc00d6516b0caacd1c7b345fcdb5211334e433612e89565b8015610f39576000805461ff0019169055604051600181527f7f26b83ff96e1f2b6a682f133852f6798a09c465da95921460cefb38474024989060200160405180910390a15050565b606061255682612622565b600061256d60408051602081019091526000815290565b9050600081511161258d57604051806020016040528060008152506125b8565b8061259784612e93565b6040516020016125a89291906145be565b6040516020818303038152906040525b9392505050565b6000828152609760205260409020600101546125da8161278b565b610c7183836128e7565b60006001600160e01b031982167f7965db0b000000000000000000000000000000000000000000000000000000001480610a815750610a8182612f33565b6000818152606760205260409020546001600160a01b03166110d75760405162461bcd60e51b815260206004820152601860248201527f4552433732313a20696e76616c696420746f6b656e20494400000000000000006044820152606401610bd0565b6000818152606960205260409020805473ffffffffffffffffffffffffffffffffffffffff19166001600160a01b03841690811790915581906126c882611661565b6001600160a01b03167f8c5be1e5ebec7d5bd14f71427d1e84f3dd0314c0f7b2291e5b200ac8c7c3b92560405160405180910390a45050565b60008061270d83611661565b9050806001600160a01b0316846001600160a01b0316148061275457506001600160a01b038082166000908152606a602090815260408083209388168352929052205460ff165b806127785750836001600160a01b031661276d84610b19565b6001600160a01b0316145b949350505050565b610c71838383612fce565b6110d78133613211565b60006127a082611661565b90506127b0816000846001613286565b6127b982611661565b6000838152606960209081526040808320805473ffffffffffffffffffffffffffffffffffffffff199081169091556001600160a01b0385168085526068845282852080546000190190558785526067909352818420805490911690555192935084927fddf252ad1be2c89b69c2b068fc378daa952ba7f163c4a11628f55a4df523b3ef908390a45050565b60008281526097602090815260408083206001600160a01b038516845290915290205460ff16610f395760008281526097602090815260408083206001600160a01b03851684529091529020805460ff191660011790556128a33390565b6001600160a01b0316816001600160a01b0316837f2f8788117e7eff1d82e926ec794901d17c78024a50270940304540a733656f0d60405160405180910390a45050565b60008281526097602090815260408083206001600160a01b038516845290915290205460ff1615610f395760008281526097602090815260408083206001600160a01b0385168085529252808320805460ff1916905551339285917ff6391f5c32d9c69d2a47ea670b442974b53935d1edc7fd64eb21e047a839171b9190a45050565b7f189ab7a9244df0848122154315af71fe140f3db0fe014031783b0946b8c9d2e3610f398161278b565b7f4910fdfa16fed3260ed0e7147f7cc6da11a60208b5b9406d12a635614ffd91435460ff16156129c757610c71836134f8565b826001600160a01b03166352d1902d6040518163ffffffff1660e01b8152600401602060405180830381865afa925050508015612a21575060408051601f3d908101601f19168201909252612a1e918101906144c3565b60015b612a935760405162461bcd60e51b815260206004820152602e60248201527f45524331393637557067726164653a206e657720696d706c656d656e7461746960448201527f6f6e206973206e6f7420555550530000000000000000000000000000000000006064820152608401610bd0565b7f360894a13ba1a3210667c828492db98dca3e2076cc3735a920a3ca505d382bbc8114612b285760405162461bcd60e51b815260206004820152602960248201527f45524331393637557067726164653a20756e737570706f727465642070726f7860448201527f6961626c655555494400000000000000000000000000000000000000000000006064820152608401610bd0565b50610c718383836135c3565b612b3c6135e8565b60c9805460ff191690557f5db9ee0a495bf2e6ff9c91a7834c1ba4fdd244a5e8aa4e537bd38aeae4b073aa335b6040516001600160a01b03909116815260200160405180910390a1565b612b8e61363a565b60c9805460ff191660011790557f62e78cea01bee320cd4e420270b5ea74000d11b0c9f74754ebdbfc544b05a258612b693390565b610f3982826040518060200160405280600081525061368d565b816001600160a01b0316836001600160a01b031603612c3e5760405162461bcd60e51b815260206004820152601960248201527f4552433732313a20617070726f766520746f2063616c6c6572000000000000006044820152606401610bd0565b6001600160a01b038381166000818152606a6020908152604080832094871680845294825291829020805460ff191686151590811790915591519182527f17307eab39ab6107e8899845ad3d59bd9653f200f220920489ca2b5937696c31910160405180910390a3505050565b612cb6848484612780565b612cc284848484613716565b610e865760405162461bcd60e51b815260206004820152603260248201527f4552433732313a207472616e7366657220746f206e6f6e20455243373231526560448201527f63656976657220696d706c656d656e74657200000000000000000000000000006064820152608401610bd0565b600054610100900460ff16612d9f5760405162461bcd60e51b815260206004820152602b60248201527f496e697469616c697a61626c653a20636f6e7472616374206973206e6f74206960448201526a6e697469616c697a696e6760a81b6064820152608401610bd0565b610f39828261389f565b600054610100900460ff16612e145760405162461bcd60e51b815260206004820152602b60248201527f496e697469616c697a61626c653a20636f6e7472616374206973206e6f74206960448201526a6e697469616c697a696e6760a81b6064820152608401610bd0565b565b600054610100900460ff16612e815760405162461bcd60e51b815260206004820152602b60248201527f496e697469616c697a61626c653a20636f6e7472616374206973206e6f74206960448201526a6e697469616c697a696e6760a81b6064820152608401610bd0565b612e14613923565b610f398282612845565b60606000612ea08361399a565b600101905060008167ffffffffffffffff811115612ec057612ec0614156565b6040519080825280601f01601f191660200182016040528015612eea576020820181803683370190505b5090508181016020015b600019017f3031323334353637383961626364656600000000000000000000000000000000600a86061a8153600a8504945084612ef457509392505050565b60006001600160e01b031982167f80ac58cd000000000000000000000000000000000000000000000000000000001480612f9657506001600160e01b031982167f5b5e139f00000000000000000000000000000000000000000000000000000000145b80610a8157507f01ffc9a7000000000000000000000000000000000000000000000000000000006001600160e01b0319831614610a81565b826001600160a01b0316612fe182611661565b6001600160a01b03161461305d5760405162461bcd60e51b815260206004820152602560248201527f4552433732313a207472616e736665722066726f6d20696e636f72726563742060448201527f6f776e65720000000000000000000000000000000000000000000000000000006064820152608401610bd0565b6001600160a01b0382166130d85760405162461bcd60e51b8152602060048201526024808201527f4552433732313a207472616e7366657220746f20746865207a65726f2061646460448201527f72657373000000000000000000000000000000000000000000000000000000006064820152608401610bd0565b6130e58383836001613286565b826001600160a01b03166130f882611661565b6001600160a01b0316146131745760405162461bcd60e51b815260206004820152602560248201527f4552433732313a207472616e736665722066726f6d20696e636f72726563742060448201527f6f776e65720000000000000000000000000000000000000000000000000000006064820152608401610bd0565b6000818152606960209081526040808320805473ffffffffffffffffffffffffffffffffffffffff199081169091556001600160a01b0387811680865260688552838620805460001901905590871680865283862080546001019055868652606790945282852080549092168417909155905184937fddf252ad1be2c89b69c2b068fc378daa952ba7f163c4a11628f55a4df523b3ef91a4505050565b60008281526097602090815260408083206001600160a01b038516845290915290205460ff16610f395761324481613a7c565b61324f836020613a8e565b6040516020016132609291906145ed565b60408051601f198184030181529082905262461bcd60e51b8252610bd09160040161405b565b6001600160a01b0384166132d757600082815261016260205260408120549061016390602883901c601f168152602001908152602001600020600081546132cc9061466e565b909155506133ad9050565b6001600160a01b038416600090815261016160209081526040808320858452610162909252822054909190601e1c6103ff1690506000826001848054905061331f919061450f565b8154811061332f5761332f6144ad565b906000526020600020015490508083838154811061334f5761334f6144ad565b90600052602060002001819055508280548061336d5761336d614522565b60008281526020808220600019908401810183905590920190925591815261016290915260409020805464ffc00000001916601e9290921b919091179055505b6001600160a01b0383166133d05760008281526101626020526040812055610e86565b6001600160a01b0383811660009081526101616020908152604080832080546001810182558185528385208101889055878552610162845293829020805464ffc00000001916601e86901b1790556101645482517f28485586000000000000000000000000000000000000000000000000000000008152925191951692632848558692600480820193918290030181865afa158015613473573d6000803e3d6000fd5b505050506040513d601f19601f8201168201806040525081019061349791906144c3565b6134a2826001614688565b11156134f05760405162461bcd60e51b815260206004820152601260248201527f55736572206c696d6974207265616368656400000000000000000000000000006044820152606401610bd0565b505050505050565b6001600160a01b0381163b6135755760405162461bcd60e51b815260206004820152602d60248201527f455243313936373a206e657720696d706c656d656e746174696f6e206973206e60448201527f6f74206120636f6e7472616374000000000000000000000000000000000000006064820152608401610bd0565b7f360894a13ba1a3210667c828492db98dca3e2076cc3735a920a3ca505d382bbc805473ffffffffffffffffffffffffffffffffffffffff19166001600160a01b0392909216919091179055565b6135cc83613cb7565b6000825111806135d95750805b15610c7157610e868383613cf7565b60c95460ff16612e145760405162461bcd60e51b815260206004820152601460248201527f5061757361626c653a206e6f74207061757365640000000000000000000000006044820152606401610bd0565b60c95460ff1615612e145760405162461bcd60e51b815260206004820152601060248201527f5061757361626c653a20706175736564000000000000000000000000000000006044820152606401610bd0565b6136978383613d1c565b6136a46000848484613716565b610c715760405162461bcd60e51b815260206004820152603260248201527f4552433732313a207472616e7366657220746f206e6f6e20455243373231526560448201527f63656976657220696d706c656d656e74657200000000000000000000000000006064820152608401610bd0565b60006001600160a01b0384163b15613894576040517f150b7a020000000000000000000000000000000000000000000000000000000081526001600160a01b0385169063150b7a029061377390339089908890889060040161469b565b6020604051808303816000875af19250505080156137ae575060408051601f3d908101601f191682019092526137ab918101906146cd565b60015b613861573d8080156137dc576040519150601f19603f3d011682016040523d82523d6000602084013e6137e1565b606091505b5080516000036138595760405162461bcd60e51b815260206004820152603260248201527f4552433732313a207472616e7366657220746f206e6f6e20455243373231526560448201527f63656976657220696d706c656d656e74657200000000000000000000000000006064820152608401610bd0565b805181602001fd5b6001600160e01b0319167f150b7a0200000000000000000000000000000000000000000000000000000000149050612778565b506001949350505050565b600054610100900460ff1661390a5760405162461bcd60e51b815260206004820152602b60248201527f496e697469616c697a61626c653a20636f6e7472616374206973206e6f74206960448201526a6e697469616c697a696e6760a81b6064820152608401610bd0565b60656139168382614732565b506066610c718282614732565b600054610100900460ff1661398e5760405162461bcd60e51b815260206004820152602b60248201527f496e697469616c697a61626c653a20636f6e7472616374206973206e6f74206960448201526a6e697469616c697a696e6760a81b6064820152608401610bd0565b60c9805460ff19169055565b6000807a184f03e93ff9f4daa797ed6e38ed64bf6a1f01000000000000000083106139e3577a184f03e93ff9f4daa797ed6e38ed64bf6a1f010000000000000000830492506040015b6d04ee2d6d415b85acef81000000008310613a0f576d04ee2d6d415b85acef8100000000830492506020015b662386f26fc100008310613a2d57662386f26fc10000830492506010015b6305f5e1008310613a45576305f5e100830492506008015b6127108310613a5957612710830492506004015b60648310613a6b576064830492506002015b600a8310610a815760010192915050565b6060610a816001600160a01b03831660145b60606000613a9d8360026147f2565b613aa8906002614688565b67ffffffffffffffff811115613ac057613ac0614156565b6040519080825280601f01601f191660200182016040528015613aea576020820181803683370190505b5090507f300000000000000000000000000000000000000000000000000000000000000081600081518110613b2157613b216144ad565b60200101907effffffffffffffffffffffffffffffffffffffffffffffffffffffffffffff1916908160001a9053507f780000000000000000000000000000000000000000000000000000000000000081600181518110613b8457613b846144ad565b60200101907effffffffffffffffffffffffffffffffffffffffffffffffffffffffffffff1916908160001a9053506000613bc08460026147f2565b613bcb906001614688565b90505b6001811115613c68577f303132333435363738396162636465660000000000000000000000000000000085600f1660108110613c0c57613c0c6144ad565b1a60f81b828281518110613c2257613c226144ad565b60200101907effffffffffffffffffffffffffffffffffffffffffffffffffffffffffffff1916908160001a90535060049490941c93613c6181614809565b9050613bce565b5083156125b85760405162461bcd60e51b815260206004820181905260248201527f537472696e67733a20686578206c656e67746820696e73756666696369656e746044820152606401610bd0565b613cc0816134f8565b6040516001600160a01b038216907fbc7cd75a20ee27fd9adebab32041f755214dbc6bffa90cc0225b39da2e5c2d3b90600090a250565b60606125b8838360405180606001604052806027815260200161483d60279139613ec2565b6001600160a01b038216613d725760405162461bcd60e51b815260206004820181905260248201527f4552433732313a206d696e7420746f20746865207a65726f20616464726573736044820152606401610bd0565b6000818152606760205260409020546001600160a01b031615613dd75760405162461bcd60e51b815260206004820152601c60248201527f4552433732313a20746f6b656e20616c7265616479206d696e746564000000006044820152606401610bd0565b613de5600083836001613286565b6000818152606760205260409020546001600160a01b031615613e4a5760405162461bcd60e51b815260206004820152601c60248201527f4552433732313a20746f6b656e20616c7265616479206d696e746564000000006044820152606401610bd0565b6001600160a01b0382166000818152606860209081526040808320805460010190558483526067909152808220805473ffffffffffffffffffffffffffffffffffffffff19168417905551839291907fddf252ad1be2c89b69c2b068fc378daa952ba7f163c4a11628f55a4df523b3ef908290a45050565b6060600080856001600160a01b031685604051613edf9190614820565b600060405180830381855af49150503d8060008114613f1a576040519150601f19603f3d011682016040523d82523d6000602084013e613f1f565b606091505b5091509150613f3086838387613f3a565b9695505050505050565b60608315613fa9578251600003613fa2576001600160a01b0385163b613fa25760405162461bcd60e51b815260206004820152601d60248201527f416464726573733a2063616c6c20746f206e6f6e2d636f6e74726163740000006044820152606401610bd0565b5081612778565b6127788383815115613fbe5781518083602001fd5b8060405162461bcd60e51b8152600401610bd0919061405b565b6001600160e01b0319811681146110d757600080fd5b60006020828403121561400057600080fd5b81356125b881613fd8565b60005b8381101561402657818101518382015260200161400e565b50506000910152565b6000815180845261404781602086016020860161400b565b601f01601f19169290920160200192915050565b6020815260006125b8602083018461402f565b60006020828403121561408057600080fd5b5035919050565b6001600160a01b03811681146110d757600080fd5b600080604083850312156140af57600080fd5b82356140ba81614087565b946020939093013593505050565b6000806000606084860312156140dd57600080fd5b83356140e881614087565b925060208401356140f881614087565b929592945050506040919091013590565b60006020828403121561411b57600080fd5b81356125b881614087565b6000806040838503121561413957600080fd5b82359150602083013561414b81614087565b809150509250929050565b634e487b7160e01b600052604160045260246000fd5b604051601f8201601f1916810167ffffffffffffffff8111828210171561419557614195614156565b604052919050565b600082601f8301126141ae57600080fd5b813567ffffffffffffffff8111156141c8576141c8614156565b6141db6020601f19601f8401160161416c565b8181528460208386010111156141f057600080fd5b816020850160208301376000918101602001919091529392505050565b6000806040838503121561422057600080fd5b823561422b81614087565b9150602083013567ffffffffffffffff81111561424757600080fd5b6142538582860161419d565b9150509250929050565b6020808252825182820181905260009190848201906040850190845b8181101561429557835183529284019291840191600101614279565b50909695505050505050565b6000806000606084860312156142b657600080fd5b8335925060208401356142c881614087565b915060408401356142d881614087565b809150509250925092565b80151581146110d757600080fd5b6000806040838503121561430457600080fd5b823561430f81614087565b9150602083013561414b816142e3565b600067ffffffffffffffff82111561433957614339614156565b5060051b60200190565b6000602080838503121561435657600080fd5b823567ffffffffffffffff81111561436d57600080fd5b8301601f8101851361437e57600080fd5b803561439161438c8261431f565b61416c565b81815260059190911b820183019083810190878311156143b057600080fd5b928401925b828410156143ce578335825292840192908401906143b5565b979650505050505050565b600080600080608085870312156143ef57600080fd5b84356143fa81614087565b9350602085013561440a81614087565b925060408501359150606085013567ffffffffffffffff81111561442d57600080fd5b6144398782880161419d565b91505092959194509250565b6000806040838503121561445857600080fd5b823561446381614087565b9150602083013561414b81614087565b600181811c9082168061448757607f821691505b6020821081036144a757634e487b7160e01b600052602260045260246000fd5b50919050565b634e487b7160e01b600052603260045260246000fd5b6000602082840312156144d557600080fd5b5051919050565b6000602082840312156144ee57600080fd5b81516125b8816142e3565b634e487b7160e01b600052601160045260246000fd5b81810381811115610a8157610a816144f9565b634e487b7160e01b600052603160045260246000fd5b6000602080838503121561454b57600080fd5b825167ffffffffffffffff81111561456257600080fd5b8301601f8101851361457357600080fd5b805161458161438c8261431f565b81815260059190911b820183019083810190878311156145a057600080fd5b928401925b828410156143ce578351825292840192908401906145a5565b600083516145d081846020880161400b565b8351908301906145e481836020880161400b565b01949350505050565b7f416363657373436f6e74726f6c3a206163636f756e742000000000000000000081526000835161462581601785016020880161400b565b7f206973206d697373696e6720726f6c6520000000000000000000000000000000601791840191820152835161466281602884016020880161400b565b01602801949350505050565b60006000198203614681576146816144f9565b5060010190565b80820180821115610a8157610a816144f9565b60006001600160a01b03808716835280861660208401525083604083015260806060830152613f30608083018461402f565b6000602082840312156146df57600080fd5b81516125b881613fd8565b601f821115610c71576000816000526020600020601f850160051c810160208610156147135750805b601f850160051c820191505b818110156134f05782815560010161471f565b815167ffffffffffffffff81111561474c5761474c614156565b6147608161475a8454614473565b846146ea565b602080601f831160018114614795576000841561477d5750858301515b600019600386901b1c1916600185901b1785556134f0565b600085815260208120601f198616915b828110156147c4578886015182559484019460019091019084016147a5565b50858210156147e25787850151600019600388901b60f8161c191681555b5050505050600190811b01905550565b8082028115828204841417610a8157610a816144f9565b600081614818576148186144f9565b506000190190565b6000825161483281846020870161400b565b919091019291505056fe416464726573733a206c6f772d6c6576656c2064656c65676174652063616c6c206661696c6564a26469706673582212204517dbafa1558510f34a5539a2789fb130f6269b1e1110ae56d81610f636a5d564736f6c63430008180033",
  "linkReferences": {},
  "deployedLinkReferences": {}
}