{
  "_format": "hh-sol-artifact-1",
  "contractName": "BHeroStake",
  "sourceName": "contracts/BHeroStake.sol",
  "abi": [
    {
      "anonymous": false,
      "inputs": [
        {
          "indexed": false,
          "internalType": "address",
          "name": "previousAdmin",
          "type": "address"
        },
        {
          "indexed": false,
          "internalType": "address",
          "name": "newAdmin",
          "type": "address"
        }
      ],
      "name": "AdminChanged",
      "type": "event"
    },
    {
      "anonymous": false,
      "inputs": [
        {
          "indexed": false,
          "internalType": "address",
          "name": "token",
          "type": "address"
        },
        {
          "indexed": false,
          "internalType": "uint256",
          "name": "id",
          "type": "uint256"
        },
        {
          "indexed": false,
          "internalType": "uint256",
          "name": "amount",
          "type": "uint256"
        }
      ],
      "name": "BalanceChanged",
      "type": "event"
    },
    {
      "anonymous": false,
      "inputs": [
        {
          "indexed": true,
          "internalType": "address",
          "name": "beacon",
          "type": "address"
        }
      ],
      "name": "BeaconUpgraded",
      "type": "event"
    },
    {
      "anonymous": false,
      "inputs": [
        {
          "indexed": false,
          "internalType": "uint8",
          "name": "version",
          "type": "uint8"
        }
      ],
      "name": "Initialized",
      "type": "event"
    },
    {
      "anonymous": false,
      "inputs": [
        {
          "indexed": true,
          "internalType": "bytes32",
          "name": "role",
          "type": "bytes32"
        },
        {
          "indexed": true,
          "internalType": "bytes32",
          "name": "previousAdminRole",
          "type": "bytes32"
        },
        {
          "indexed": true,
          "internalType": "bytes32",
          "name": "newAdminRole",
          "type": "bytes32"
        }
      ],
      "name": "RoleAdminChanged",
      "type": "event"
    },
    {
      "anonymous": false,
      "inputs": [
        {
          "indexed": true,
          "internalType": "bytes32",
          "name": "role",
          "type": "bytes32"
        },
        {
          "indexed": true,
          "internalType": "address",
          "name": "account",
          "type": "address"
        },
        {
          "indexed": true,
          "internalType": "address",
          "name": "sender",
          "type": "address"
        }
      ],
      "name": "RoleGranted",
      "type": "event"
    },
    {
      "anonymous": false,
      "inputs": [
        {
          "indexed": true,
          "internalType": "bytes32",
          "name": "role",
          "type": "bytes32"
        },
        {
          "indexed": true,
          "internalType": "address",
          "name": "account",
          "type": "address"
        },
        {
          "indexed": true,
          "internalType": "address",
          "name": "sender",
          "type": "address"
        }
      ],
      "name": "RoleRevoked",
      "type": "event"
    },
    {
      "anonymous": false,
      "inputs": [
        {
          "indexed": true,
          "internalType": "address",
          "name": "implementation",
          "type": "address"
        }
      ],
      "name": "Upgraded",
      "type": "event"
    },
    {
      "inputs": [],
      "name": "DEFAULT_ADMIN_ROLE",
      "outputs": [
        {
          "internalType": "bytes32",
          "name": "",
          "type": "bytes32"
        }
      ],
      "stateMutability": "view",
      "type": "function"
    },
    {
      "inputs": [],
      "name": "DESIGNER_ROLE",
      "outputs": [
        {
          "internalType": "bytes32",
          "name": "",
          "type": "bytes32"
        }
      ],
      "stateMutability": "view",
      "type": "function"
    },
    {
      "inputs": [],
      "name": "UPGRADER_ROLE",
      "outputs": [
        {
          "internalType": "bytes32",
          "name": "",
          "type": "bytes32"
        }
      ],
      "stateMutability": "view",
      "type": "function"
    },
    {
      "inputs": [],
      "name": "WITHDRAWER_ROLE",
      "outputs": [
        {
          "internalType": "bytes32",
          "name": "",
          "type": "bytes32"
        }
      ],
      "stateMutability": "view",
      "type": "function"
    },
    {
      "inputs": [],
      "name": "coinToken",
      "outputs": [
        {
          "internalType": "contract IERC20",
          "name": "",
          "type": "address"
        }
      ],
      "stateMutability": "view",
      "type": "function"
    },
    {
      "inputs": [
        {
          "internalType": "uint256",
          "name": "id",
          "type": "uint256"
        },
        {
          "internalType": "uint256",
          "name": "amount",
          "type": "uint256"
        }
      ],
      "name": "depositCoinIntoHeroId",
      "outputs": [],
      "stateMutability": "nonpayable",
      "type": "function"
    },
    {
      "inputs": [
        {
          "internalType": "address",
          "name": "token",
          "type": "address"
        },
        {
          "internalType": "uint256",
          "name": "id",
          "type": "uint256"
        },
        {
          "internalType": "uint256",
          "name": "amount",
          "type": "uint256"
        }
      ],
      "name": "depositV2",
      "outputs": [],
      "stateMutability": "nonpayable",
      "type": "function"
    },
    {
      "inputs": [],
      "name": "dummyDeploy",
      "outputs": [
        {
          "internalType": "uint256",
          "name": "",
          "type": "uint256"
        }
      ],
      "stateMutability": "view",
      "type": "function"
    },
    {
      "inputs": [
        {
          "internalType": "address",
          "name": "token",
          "type": "address"
        },
        {
          "internalType": "uint256",
          "name": "id",
          "type": "uint256"
        }
      ],
      "name": "getCoinBalanceV2",
      "outputs": [
        {
          "internalType": "uint256",
          "name": "",
          "type": "uint256"
        }
      ],
      "stateMutability": "view",
      "type": "function"
    },
    {
      "inputs": [
        {
          "internalType": "uint256",
          "name": "id",
          "type": "uint256"
        }
      ],
      "name": "getCoinBalancesByHeroId",
      "outputs": [
        {
          "internalType": "uint256",
          "name": "",
          "type": "uint256"
        }
      ],
      "stateMutability": "view",
      "type": "function"
    },
    {
      "inputs": [
        {
          "internalType": "bytes32",
          "name": "role",
          "type": "bytes32"
        }
      ],
      "name": "getRoleAdmin",
      "outputs": [
        {
          "internalType": "bytes32",
          "name": "",
          "type": "bytes32"
        }
      ],
      "stateMutability": "view",
      "type": "function"
    },
    {
      "inputs": [
        {
          "internalType": "address",
          "name": "token",
          "type": "address"
        },
        {
          "internalType": "uint256",
          "name": "id",
          "type": "uint256"
        }
      ],
      "name": "getTimeStakeV2",
      "outputs": [
        {
          "internalType": "uint256",
          "name": "",
          "type": "uint256"
        }
      ],
      "stateMutability": "view",
      "type": "function"
    },
    {
      "inputs": [
        {
          "internalType": "uint256",
          "name": "id",
          "type": "uint256"
        }
      ],
      "name": "getWithdrawFeeByHeroId",
      "outputs": [
        {
          "internalType": "uint256",
          "name": "",
          "type": "uint256"
        }
      ],
      "stateMutability": "view",
      "type": "function"
    },
    {
      "inputs": [
        {
          "internalType": "address",
          "name": "token",
          "type": "address"
        },
        {
          "internalType": "uint256",
          "name": "id",
          "type": "uint256"
        }
      ],
      "name": "getWithdrawFeeV2",
      "outputs": [
        {
          "internalType": "uint256",
          "name": "",
          "type": "uint256"
        }
      ],
      "stateMutability": "view",
      "type": "function"
    },
    {
      "inputs": [
        {
          "internalType": "bytes32",
          "name": "role",
          "type": "bytes32"
        },
        {
          "internalType": "address",
          "name": "account",
          "type": "address"
        }
      ],
      "name": "grantRole",
      "outputs": [],
      "stateMutability": "nonpayable",
      "type": "function"
    },
    {
      "inputs": [
        {
          "internalType": "bytes32",
          "name": "role",
          "type": "bytes32"
        },
        {
          "internalType": "address",
          "name": "account",
          "type": "address"
        }
      ],
      "name": "hasRole",
      "outputs": [
        {
          "internalType": "bool",
          "name": "",
          "type": "bool"
        }
      ],
      "stateMutability": "view",
      "type": "function"
    },
    {
      "inputs": [
        {
          "internalType": "uint256",
          "name": "",
          "type": "uint256"
        }
      ],
      "name": "heroStake",
      "outputs": [
        {
          "internalType": "uint256",
          "name": "balance",
          "type": "uint256"
        },
        {
          "internalType": "uint256",
          "name": "timeStake",
          "type": "uint256"
        }
      ],
      "stateMutability": "view",
      "type": "function"
    },
    {
      "inputs": [
        {
          "internalType": "address",
          "name": "",
          "type": "address"
        },
        {
          "internalType": "uint256",
          "name": "",
          "type": "uint256"
        }
      ],
      "name": "heroStakeV2",
      "outputs": [
        {
          "internalType": "uint256",
          "name": "balance",
          "type": "uint256"
        },
        {
          "internalType": "uint256",
          "name": "timeStake",
          "type": "uint256"
        }
      ],
      "stateMutability": "view",
      "type": "function"
    },
    {
      "inputs": [
        {
          "internalType": "contract IERC20",
          "name": "coinToken_",
          "type": "address"
        },
        {
          "internalType": "contract ERC721Upgradeable",
          "name": "nftToken_",
          "type": "address"
        }
      ],
      "name": "initialize",
      "outputs": [],
      "stateMutability": "nonpayable",
      "type": "function"
    },
    {
      "inputs": [],
      "name": "nftToken",
      "outputs": [
        {
          "internalType": "contract ERC721Upgradeable",
          "name": "",
          "type": "address"
        }
      ],
      "stateMutability": "view",
      "type": "function"
    },
    {
      "inputs": [],
      "name": "proxiableUUID",
      "outputs": [
        {
          "internalType": "bytes32",
          "name": "",
          "type": "bytes32"
        }
      ],
      "stateMutability": "view",
      "type": "function"
    },
    {
      "inputs": [
        {
          "internalType": "bytes32",
          "name": "role",
          "type": "bytes32"
        },
        {
          "internalType": "address",
          "name": "account",
          "type": "address"
        }
      ],
      "name": "renounceRole",
      "outputs": [],
      "stateMutability": "nonpayable",
      "type": "function"
    },
    {
      "inputs": [
        {
          "internalType": "bytes32",
          "name": "role",
          "type": "bytes32"
        },
        {
          "internalType": "address",
          "name": "account",
          "type": "address"
        }
      ],
      "name": "revokeRole",
      "outputs": [],
      "stateMutability": "nonpayable",
      "type": "function"
    },
    {
      "inputs": [
        {
          "internalType": "address",
          "name": "value",
          "type": "address"
        }
      ],
      "name": "setCoinToken",
      "outputs": [],
      "stateMutability": "nonpayable",
      "type": "function"
    },
    {
      "inputs": [
        {
          "internalType": "address",
          "name": "value",
          "type": "address"
        }
      ],
      "name": "setNFTToken",
      "outputs": [],
      "stateMutability": "nonpayable",
      "type": "function"
    },
    {
      "inputs": [
        {
          "internalType": "uint256[]",
          "name": "_withdrawFee",
          "type": "uint256[]"
        }
      ],
      "name": "setWithdrawFee",
      "outputs": [],
      "stateMutability": "nonpayable",
      "type": "function"
    },
    {
      "inputs": [
        {
          "internalType": "bytes4",
          "name": "interfaceId",
          "type": "bytes4"
        }
      ],
      "name": "supportsInterface",
      "outputs": [
        {
          "internalType": "bool",
          "name": "",
          "type": "bool"
        }
      ],
      "stateMutability": "view",
      "type": "function"
    },
    {
      "inputs": [
        {
          "internalType": "address",
          "name": "newImplementation",
          "type": "address"
        }
      ],
      "name": "upgradeTo",
      "outputs": [],
      "stateMutability": "nonpayable",
      "type": "function"
    },
    {
      "inputs": [
        {
          "internalType": "address",
          "name": "newImplementation",
          "type": "address"
        },
        {
          "internalType": "bytes",
          "name": "data",
          "type": "bytes"
        }
      ],
      "name": "upgradeToAndCall",
      "outputs": [],
      "stateMutability": "payable",
      "type": "function"
    },
    {
      "inputs": [
        {
          "internalType": "uint256",
          "name": "id",
          "type": "uint256"
        },
        {
          "internalType": "uint256",
          "name": "amount",
          "type": "uint256"
        }
      ],
      "name": "withdrawCoinFromHeroId",
      "outputs": [],
      "stateMutability": "nonpayable",
      "type": "function"
    },
    {
      "inputs": [
        {
          "internalType": "uint256",
          "name": "",
          "type": "uint256"
        }
      ],
      "name": "withdrawFee",
      "outputs": [
        {
          "internalType": "uint256",
          "name": "",
          "type": "uint256"
        }
      ],
      "stateMutability": "view",
      "type": "function"
    },
    {
      "inputs": [],
      "name": "withdrawFeeAmount",
      "outputs": [
        {
          "internalType": "uint256",
          "name": "",
          "type": "uint256"
        }
      ],
      "stateMutability": "view",
      "type": "function"
    },
    {
      "inputs": [
        {
          "internalType": "address",
          "name": "",
          "type": "address"
        }
      ],
      "name": "withdrawFeeAmountsV2",
      "outputs": [
        {
          "internalType": "uint256",
          "name": "",
          "type": "uint256"
        }
      ],
      "stateMutability": "view",
      "type": "function"
    },
    {
      "inputs": [
        {
          "internalType": "address",
          "name": "receiver",
          "type": "address"
        },
        {
          "internalType": "uint256",
          "name": "amount",
          "type": "uint256"
        }
      ],
      "name": "withdrawUnstakeFee",
      "outputs": [],
      "stateMutability": "nonpayable",
      "type": "function"
    },
    {
      "inputs": [
        {
          "internalType": "address",
          "name": "token",
          "type": "address"
        },
        {
          "internalType": "address",
          "name": "receiver",
          "type": "address"
        },
        {
          "internalType": "uint256",
          "name": "amount",
          "type": "uint256"
        }
      ],
      "name": "withdrawUnstakeFeeV2",
      "outputs": [],
      "stateMutability": "nonpayable",
      "type": "function"
    },
    {
      "inputs": [
        {
          "internalType": "address",
          "name": "token",
          "type": "address"
        },
        {
          "internalType": "uint256",
          "name": "id",
          "type": "uint256"
        },
        {
          "internalType": "uint256",
          "name": "amount",
          "type": "uint256"
        }
      ],
      "name": "withdrawV2",
      "outputs": [],
      "stateMutability": "nonpayable",
      "type": "function"
    }
  ],
  "bytecode": "0x60a06040523060805234801561001457600080fd5b506080516130f561004c60003960008181610d4701528181610ddd0152818161123c015281816112d201526113c901526130f56000f3fe60806040526004361061024f5760003560e01c80637328e38e11610138578063c4858477116100b0578063df064ad81161007f578063f4bee3f511610064578063f4bee3f514610744578063f72c0d8b14610764578063fac9b99c1461079857600080fd5b8063df064ad8146106f0578063eee03ef01461072457600080fd5b8063c485847714610670578063caacf34d14610690578063d06fcba8146106b0578063d547741f146106d057600080fd5b806391d1485411610107578063acc77a8b116100ec578063acc77a8b14610610578063ba70917214610630578063be3576161461065057600080fd5b806391d14854146105b5578063a217fddf146105fb57600080fd5b80637328e38e1461051f578063757aa1811461054d5780638100c3471461056157806385f438c11461058157600080fd5b806349d19648116101cb578063561732ae1161019a57806364dbf95d1161017f57806364dbf95d1461049257806367cc1915146104b257806369add5dd146104f257600080fd5b8063561732ae1461043a57806358797cb61461045a57600080fd5b806349d19648146103a95780634f1ef286146103c957806352d1902d146103dc57806352dadb97146103f157600080fd5b8063270a78811161022257806336568abe1161020757806336568abe146103495780633659cfe614610369578063485cc9551461038957600080fd5b8063270a7881146103095780632f2ff15d1461032957600080fd5b806301ffc9a71461025457806310e71a0214610289578063195be1b1146102ab578063248a9ca3146102cb575b600080fd5b34801561026057600080fd5b5061027461026f366004612b48565b6107ae565b60405190151581526020015b60405180910390f35b34801561029557600080fd5b506102a96102a4366004612b9f565b6107bf565b005b3480156102b757600080fd5b506102a96102c6366004612bbc565b610819565b3480156102d757600080fd5b506102fb6102e6366004612bf1565b60009081526065602052604090206001015490565b604051908152602001610280565b34801561031557600080fd5b506102a9610324366004612c0a565b610b65565b34801561033557600080fd5b506102a9610344366004612c4b565b610c87565b34801561035557600080fd5b506102a9610364366004612c4b565b610cb1565b34801561037557600080fd5b506102a9610384366004612b9f565b610d3d565b34801561039557600080fd5b506102a96103a4366004612c7b565b610eda565b3480156103b557600080fd5b506102a96103c4366004612b9f565b6111d8565b6102a96103d7366004612cf0565b611232565b3480156103e857600080fd5b506102fb6113bc565b3480156103fd57600080fd5b5061042561040c366004612bf1565b60fd602052600090815260409020805460019091015482565b60408051928352602083019190915201610280565b34801561044657600080fd5b506102fb610455366004612bf1565b611481565b34801561046657600080fd5b5060fb5461047a906001600160a01b031681565b6040516001600160a01b039091168152602001610280565b34801561049e57600080fd5b506102fb6104ad366004612d98565b611511565b3480156104be57600080fd5b506104256104cd366004612d98565b6101006020908152600092835260408084209091529082529020805460019091015482565b3480156104fe57600080fd5b506102fb61050d366004612bf1565b600090815260fd602052604090205490565b34801561052b57600080fd5b506102fb61053a366004612b9f565b6101016020526000908152604090205481565b34801561055957600080fd5b5060006102fb565b34801561056d57600080fd5b506102fb61057c366004612d98565b611593565b34801561058d57600080fd5b506102fb7f10dac8c06a04bec0b551627dad28bc00d6516b0caacd1c7b345fcdb5211334e481565b3480156105c157600080fd5b506102746105d0366004612c4b565b60009182526065602090815260408084206001600160a01b0393909316845291905290205460ff1690565b34801561060757600080fd5b506102fb600081565b34801561061c57600080fd5b506102a961062b366004612dc4565b61160b565b34801561063c57600080fd5b506102a961064b366004612dc4565b611880565b34801561065c57600080fd5b506102fb61066b366004612bf1565b611a92565b34801561067c57600080fd5b506102a961068b366004612d98565b611ab3565b34801561069c57600080fd5b506102a96106ab366004612bbc565b611bc1565b3480156106bc57600080fd5b5060fc5461047a906001600160a01b031681565b3480156106dc57600080fd5b506102a96106eb366004612c4b565b611fb9565b3480156106fc57600080fd5b506102fb7f22c69ab406805e70d07fb1a6502af760601d3b977beadb295a9d76d5852e16a381565b34801561073057600080fd5b506102a961073f366004612de6565b611fde565b34801561075057600080fd5b506102fb61075f366004612d98565b61201b565b34801561077057600080fd5b506102fb7f189ab7a9244df0848122154315af71fe140f3db0fe014031783b0946b8c9d2e381565b3480156107a457600080fd5b506102fb60ff5481565b60006107b982612133565b92915050565b7f22c69ab406805e70d07fb1a6502af760601d3b977beadb295a9d76d5852e16a36107e9816121ca565b5060fc805473ffffffffffffffffffffffffffffffffffffffff19166001600160a01b0392909216919091179055565b60fc546040516331a9108f60e11b81526004810184905233916001600160a01b031690636352211e90602401602060405180830381865afa158015610862573d6000803e3d6000fd5b505050506040513d601f19601f820116820180604052508101906108869190612e8c565b6001600160a01b0316146108e15760405162461bcd60e51b815260206004820152601560248201527f4d757374206265206f776e6572206f66206865726f000000000000000000000060448201526064015b60405180910390fd5b6000811161091e5760405162461bcd60e51b815260206004820152600a6024820152690416d6f756e74203e20360b41b60448201526064016108d8565b60fb546001600160a01b0384811691161480156109485750600082815260fd602052604090205415155b1561098d57600082815260fd6020908152604080832080546001600160a01b038816855261010084528285208786529093529083209182559182556001918201549101555b6001600160a01b038316600090815261010060209081526040808320858452909152902054811115610a015760405162461bcd60e51b815260206004820152601b60248201527f416d6f756e74203c3d206865726f5374616b652062616c616e6365000000000060448201526064016108d8565b6000610a0d848461201b565b905060006064610a1d8385612ebf565b610a279190612ed6565b90506000610a358285612ef8565b6001600160a01b03871660009081526101016020526040812080549293508492909190610a63908490612f0b565b909155505060405163a9059cbb60e01b8152336004820152602481018290526001600160a01b0387169063a9059cbb906044016020604051808303816000875af1158015610ab5573d6000803e3d6000fd5b505050506040513d601f19601f82011682018060405250810190610ad99190612f1e565b506001600160a01b03861660009081526101006020908152604080832088845290915281208054869290610b0e908490612ef8565b9091555050604080516001600160a01b0388168152602081018790529081018590527faeeb0cb16f299136e7e5467ea84217150fe83008833064528f360cde7b7b54c39060600160405180910390a1505050505050565b7f10dac8c06a04bec0b551627dad28bc00d6516b0caacd1c7b345fcdb5211334e4610b8f816121ca565b60008211610bdf5760405162461bcd60e51b815260206004820152601d60248201527f416d6f756e74206d7573742062652067726561746572207468616e203000000060448201526064016108d8565b6001600160a01b0384166000908152610101602052604081208054849290610c08908490612ef8565b909155505060405163a9059cbb60e01b81526001600160a01b0384811660048301526024820184905285169063a9059cbb906044016020604051808303816000875af1158015610c5c573d6000803e3d6000fd5b505050506040513d601f19601f82011682018060405250810190610c809190612f1e565b5050505050565b600082815260656020526040902060010154610ca2816121ca565b610cac83836121d4565b505050565b6001600160a01b0381163314610d2f5760405162461bcd60e51b815260206004820152602f60248201527f416363657373436f6e74726f6c3a2063616e206f6e6c792072656e6f756e636560448201527f20726f6c657320666f722073656c66000000000000000000000000000000000060648201526084016108d8565b610d398282612276565b5050565b6001600160a01b037f0000000000000000000000000000000000000000000000000000000000000000163003610ddb5760405162461bcd60e51b815260206004820152602c60248201527f46756e6374696f6e206d7573742062652063616c6c6564207468726f7567682060448201527f64656c656761746563616c6c000000000000000000000000000000000000000060648201526084016108d8565b7f00000000000000000000000000000000000000000000000000000000000000006001600160a01b0316610e367f360894a13ba1a3210667c828492db98dca3e2076cc3735a920a3ca505d382bbc546001600160a01b031690565b6001600160a01b031614610eb25760405162461bcd60e51b815260206004820152602c60248201527f46756e6374696f6e206d7573742062652063616c6c6564207468726f7567682060448201527f6163746976652070726f7879000000000000000000000000000000000000000060648201526084016108d8565b610ebb816122f9565b60408051600080825260208201909252610ed791839190612323565b50565b600054610100900460ff1615808015610efa5750600054600160ff909116105b80610f145750303b158015610f14575060005460ff166001145b610f865760405162461bcd60e51b815260206004820152602e60248201527f496e697469616c697a61626c653a20636f6e747261637420697320616c72656160448201527f647920696e697469616c697a656400000000000000000000000000000000000060648201526084016108d8565b6000805460ff191660011790558015610fa9576000805461ff0019166101001790555b610fb16124c3565b610fb96124c3565b60fb80546001600160a01b0380861673ffffffffffffffffffffffffffffffffffffffff199283161790925560fc805492851692909116919091179055611001600033612542565b61102b7f189ab7a9244df0848122154315af71fe140f3db0fe014031783b0946b8c9d2e333612542565b6110557f22c69ab406805e70d07fb1a6502af760601d3b977beadb295a9d76d5852e16a333612542565b61107f7f10dac8c06a04bec0b551627dad28bc00d6516b0caacd1c7b345fcdb5211334e433612542565b604080516103e081018252601e8152601d6020820152601c91810191909152601b6060820152601a6080820152601960a0820152601860c0820152601760e08201526016610100820152601561012082015260146101408201526013610160820152601261018082015260116101a082015260106101c0820152600f6101e0820152600e610200820152600d610220820152600c610240820152600b610260820152600a61028082015260096102a082015260086102c082015260076102e08201526006610300820152600561032082015260046103408201526003610360820152600261038082015260016103a082015260006103c08201526111879060fe90601f612aa8565b50600060ff558015610cac576000805461ff0019169055604051600181527f7f26b83ff96e1f2b6a682f133852f6798a09c465da95921460cefb3847402498906020015b60405180910390a1505050565b7f22c69ab406805e70d07fb1a6502af760601d3b977beadb295a9d76d5852e16a3611202816121ca565b5060fb805473ffffffffffffffffffffffffffffffffffffffff19166001600160a01b0392909216919091179055565b6001600160a01b037f00000000000000000000000000000000000000000000000000000000000000001630036112d05760405162461bcd60e51b815260206004820152602c60248201527f46756e6374696f6e206d7573742062652063616c6c6564207468726f7567682060448201527f64656c656761746563616c6c000000000000000000000000000000000000000060648201526084016108d8565b7f00000000000000000000000000000000000000000000000000000000000000006001600160a01b031661132b7f360894a13ba1a3210667c828492db98dca3e2076cc3735a920a3ca505d382bbc546001600160a01b031690565b6001600160a01b0316146113a75760405162461bcd60e51b815260206004820152602c60248201527f46756e6374696f6e206d7573742062652063616c6c6564207468726f7567682060448201527f6163746976652070726f7879000000000000000000000000000000000000000060648201526084016108d8565b6113b0826122f9565b610d3982826001612323565b6000306001600160a01b037f0000000000000000000000000000000000000000000000000000000000000000161461145c5760405162461bcd60e51b815260206004820152603860248201527f555550535570677261646561626c653a206d757374206e6f742062652063616c60448201527f6c6564207468726f7567682064656c656761746563616c6c000000000000000060648201526084016108d8565b507f360894a13ba1a3210667c828492db98dca3e2076cc3735a920a3ca505d382bbc90565b600081815260fd602052604081206001015442908290601890610e10906114a89085612ef8565b6114b29190612ed6565b6114bc9190612ed6565b9050600081156114d4576114d1600183612ef8565b90505b60fe548110156115065760fe81815481106114f1576114f1612f40565b90600052602060002001549350505050919050565b506000949350505050565b60fb546000906001600160a01b0390811690841603611569576001600160a01b03831660009081526101006020908152604080832085845282528083205460fd909252909120546115629190612f0b565b90506107b9565b506001600160a01b0391909116600090815261010060209081526040808320938352929052205490565b60fb546000906001600160a01b0384811691161480156115c05750600082815260fd602052604090205415155b156115dd5750600081815260fd60205260409020600101546107b9565b506001600160a01b0382166000908152610100602090815260408083208484529091529020600101546107b9565b7f22c69ab406805e70d07fb1a6502af760601d3b977beadb295a9d76d5852e16a3611635816121ca565b60fc546040516331a9108f60e11b81526004810185905233916001600160a01b031690636352211e90602401602060405180830381865afa15801561167e573d6000803e3d6000fd5b505050506040513d601f19601f820116820180604052508101906116a29190612e8c565b6001600160a01b0316146116f85760405162461bcd60e51b815260206004820152601560248201527f4d757374206265206f776e6572206f66206865726f000000000000000000000060448201526064016108d8565b600082116117355760405162461bcd60e51b815260206004820152600a6024820152690416d6f756e74203e20360b41b60448201526064016108d8565b600083815260fd60205260409020548211156117935760405162461bcd60e51b815260206004820152601f60248201527f416d6f756e74203c3d206865726f5374616b655b69645d2e62616c616e63650060448201526064016108d8565b600061179e84611481565b9050600060646117ae8386612ebf565b6117b89190612ed6565b905060006117c68286612ef8565b90508160ff60008282546117da9190612f0b565b909155505060fb5460405163a9059cbb60e01b8152336004820152602481018390526001600160a01b039091169063a9059cbb906044016020604051808303816000875af1158015611830573d6000803e3d6000fd5b505050506040513d601f19601f820116820180604052508101906118549190612f1e565b50600086815260fd602052604081208054879290611873908490612ef8565b9091555050505050505050565b7f22c69ab406805e70d07fb1a6502af760601d3b977beadb295a9d76d5852e16a36118aa816121ca565b60fc546040516331a9108f60e11b81526004810185905233916001600160a01b031690636352211e90602401602060405180830381865afa1580156118f3573d6000803e3d6000fd5b505050506040513d601f19601f820116820180604052508101906119179190612e8c565b6001600160a01b03161461196d5760405162461bcd60e51b815260206004820152601560248201527f4d757374206265206f776e6572206f66206865726f000000000000000000000060448201526064016108d8565b600082116119aa5760405162461bcd60e51b815260206004820152600a6024820152690416d6f756e74203e20360b41b60448201526064016108d8565b60fb546040517f23b872dd000000000000000000000000000000000000000000000000000000008152336004820152306024820152604481018490526001600160a01b03909116906323b872dd906064016020604051808303816000875af1158015611a1a573d6000803e3d6000fd5b505050506040513d601f19601f82011682018060405250810190611a3e9190612f1e565b50600083815260fd60205260408120549003611a6a57600083815260fd60205260409020426001909101555b600083815260fd602052604081208054849290611a88908490612f0b565b9091555050505050565b60fe8181548110611aa257600080fd5b600091825260209091200154905081565b7f10dac8c06a04bec0b551627dad28bc00d6516b0caacd1c7b345fcdb5211334e4611add816121ca565b60008211611b2d5760405162461bcd60e51b815260206004820152601d60248201527f416d6f756e74206d7573742062652067726561746572207468616e203000000060448201526064016108d8565b8160ff6000828254611b3f9190612ef8565b909155505060fb5460405163a9059cbb60e01b81526001600160a01b038581166004830152602482018590529091169063a9059cbb906044016020604051808303816000875af1158015611b97573d6000803e3d6000fd5b505050506040513d601f19601f82011682018060405250810190611bbb9190612f1e565b50505050565b60fc546040516331a9108f60e11b81526004810184905233916001600160a01b031690636352211e90602401602060405180830381865afa158015611c0a573d6000803e3d6000fd5b505050506040513d601f19601f82011682018060405250810190611c2e9190612e8c565b6001600160a01b031614611c845760405162461bcd60e51b815260206004820152601560248201527f4d757374206265206f776e6572206f66206865726f000000000000000000000060448201526064016108d8565b60008111611cc15760405162461bcd60e51b815260206004820152600a6024820152690416d6f756e74203e20360b41b60448201526064016108d8565b6040517f23b872dd000000000000000000000000000000000000000000000000000000008152336004820152306024820152604481018290526001600160a01b038416906323b872dd906064016020604051808303816000875af1158015611d2d573d6000803e3d6000fd5b505050506040513d601f19601f82011682018060405250810190611d519190612f1e565b5060fb546001600160a01b03848116911614801590611d9257506001600160a01b038316600090815261010060209081526040808320858452909152902054155b80611def575060fb546001600160a01b038481169116148015611dd757506001600160a01b038316600090815261010060209081526040808320858452909152902054155b8015611def5750600082815260fd6020526040902054155b15611e24576001600160a01b038316600090815261010060209081526040808320858452909152902042600190910155611f39565b60fb546001600160a01b038481169116148015611e4e5750600082815260fd602052604090205415155b15611e9357600082815260fd6020908152604080832080546001600160a01b038816855261010084528285208786529093529083209182559182556001918201549101555b6001600160a01b038316600090815261010060209081526040808320858452909152812060010154429190611ec89083612ef8565b6001600160a01b0386166000908152610100602090815260408083208884529091528120549192508481611efe8585838561254c565b9050611f0a8187612ef8565b6001600160a01b038a166000908152610100602090815260408083208c84529091529020600101555050505050505b6001600160a01b03831660009081526101006020908152604080832085845290915281208054839290611f6d908490612f0b565b9091555050604080516001600160a01b0385168152602081018490529081018290527faeeb0cb16f299136e7e5467ea84217150fe83008833064528f360cde7b7b54c3906060016111cb565b600082815260656020526040902060010154611fd4816121ca565b610cac8383612276565b7f22c69ab406805e70d07fb1a6502af760601d3b977beadb295a9d76d5852e16a3612008816121ca565b8151610cac9060fe906020850190612af8565b60fb54600090429082906001600160a01b03868116911614801561204c5750600084815260fd602052604090205415155b1561208f57600084815260fd6020526040902060010154601890610e10906120749085612ef8565b61207e9190612ed6565b6120889190612ed6565b90506120df565b6001600160a01b038516600090815261010060209081526040808320878452909152902060010154601890610e10906120c89085612ef8565b6120d29190612ed6565b6120dc9190612ed6565b90505b600081156120f5576120f2600183612ef8565b90505b60fe548110156121275760fe818154811061211257612112612f40565b906000526020600020015493505050506107b9565b50600095945050505050565b60007fffffffff0000000000000000000000000000000000000000000000000000000082167f7965db0b0000000000000000000000000000000000000000000000000000000014806107b957507f01ffc9a7000000000000000000000000000000000000000000000000000000007fffffffff000000000000000000000000000000000000000000000000000000008316146107b9565b610ed7813361258b565b60008281526065602090815260408083206001600160a01b038516845290915290205460ff16610d395760008281526065602090815260408083206001600160a01b03851684529091529020805460ff191660011790556122323390565b6001600160a01b0316816001600160a01b0316837f2f8788117e7eff1d82e926ec794901d17c78024a50270940304540a733656f0d60405160405180910390a45050565b60008281526065602090815260408083206001600160a01b038516845290915290205460ff1615610d395760008281526065602090815260408083206001600160a01b0385168085529252808320805460ff1916905551339285917ff6391f5c32d9c69d2a47ea670b442974b53935d1edc7fd64eb21e047a839171b9190a45050565b7f189ab7a9244df0848122154315af71fe140f3db0fe014031783b0946b8c9d2e3610d39816121ca565b7f4910fdfa16fed3260ed0e7147f7cc6da11a60208b5b9406d12a635614ffd91435460ff161561235657610cac83612600565b826001600160a01b03166352d1902d6040518163ffffffff1660e01b8152600401602060405180830381865afa9250505080156123b0575060408051601f3d908101601f191682019092526123ad91810190612f56565b60015b6124225760405162461bcd60e51b815260206004820152602e60248201527f45524331393637557067726164653a206e657720696d706c656d656e7461746960448201527f6f6e206973206e6f74205555505300000000000000000000000000000000000060648201526084016108d8565b7f360894a13ba1a3210667c828492db98dca3e2076cc3735a920a3ca505d382bbc81146124b75760405162461bcd60e51b815260206004820152602960248201527f45524331393637557067726164653a20756e737570706f727465642070726f7860448201527f6961626c6555554944000000000000000000000000000000000000000000000060648201526084016108d8565b50610cac8383836126cb565b600054610100900460ff166125405760405162461bcd60e51b815260206004820152602b60248201527f496e697469616c697a61626c653a20636f6e7472616374206973206e6f74206960448201527f6e697469616c697a696e6700000000000000000000000000000000000000000060648201526084016108d8565b565b610d3982826121d4565b60006125588285612f0b565b6125628385612ebf565b61256c8688612ebf565b6125769190612f0b565b6125809190612ed6565b90505b949350505050565b60008281526065602090815260408083206001600160a01b038516845290915290205460ff16610d39576125be816126f0565b6125c9836020612702565b6040516020016125da929190612f93565b60408051601f198184030181529082905262461bcd60e51b82526108d891600401613014565b6001600160a01b0381163b61267d5760405162461bcd60e51b815260206004820152602d60248201527f455243313936373a206e657720696d706c656d656e746174696f6e206973206e60448201527f6f74206120636f6e74726163740000000000000000000000000000000000000060648201526084016108d8565b7f360894a13ba1a3210667c828492db98dca3e2076cc3735a920a3ca505d382bbc805473ffffffffffffffffffffffffffffffffffffffff19166001600160a01b0392909216919091179055565b6126d483612932565b6000825111806126e15750805b15610cac57611bbb8383612972565b60606107b96001600160a01b03831660145b60606000612711836002612ebf565b61271c906002612f0b565b67ffffffffffffffff81111561273457612734612ca9565b6040519080825280601f01601f19166020018201604052801561275e576020820181803683370190505b5090507f30000000000000000000000000000000000000000000000000000000000000008160008151811061279557612795612f40565b60200101907effffffffffffffffffffffffffffffffffffffffffffffffffffffffffffff1916908160001a9053507f7800000000000000000000000000000000000000000000000000000000000000816001815181106127f8576127f8612f40565b60200101907effffffffffffffffffffffffffffffffffffffffffffffffffffffffffffff1916908160001a9053506000612834846002612ebf565b61283f906001612f0b565b90505b60018111156128dc577f303132333435363738396162636465660000000000000000000000000000000085600f166010811061288057612880612f40565b1a60f81b82828151811061289657612896612f40565b60200101907effffffffffffffffffffffffffffffffffffffffffffffffffffffffffffff1916908160001a90535060049490941c936128d581613047565b9050612842565b50831561292b5760405162461bcd60e51b815260206004820181905260248201527f537472696e67733a20686578206c656e67746820696e73756666696369656e7460448201526064016108d8565b9392505050565b61293b81612600565b6040516001600160a01b038216907fbc7cd75a20ee27fd9adebab32041f755214dbc6bffa90cc0225b39da2e5c2d3b90600090a250565b606061292b8383604051806060016040528060278152602001613099602791396060600080856001600160a01b0316856040516129af919061307c565b600060405180830381855af49150503d80600081146129ea576040519150601f19603f3d011682016040523d82523d6000602084013e6129ef565b606091505b5091509150612a0086838387612a0a565b9695505050505050565b60608315612a79578251600003612a72576001600160a01b0385163b612a725760405162461bcd60e51b815260206004820152601d60248201527f416464726573733a2063616c6c20746f206e6f6e2d636f6e747261637400000060448201526064016108d8565b5081612583565b6125838383815115612a8e5781518083602001fd5b8060405162461bcd60e51b81526004016108d89190613014565b828054828255906000526020600020908101928215612ae8579160200282015b82811115612ae8578251829060ff16905591602001919060010190612ac8565b50612af4929150612b33565b5090565b828054828255906000526020600020908101928215612ae8579160200282015b82811115612ae8578251825591602001919060010190612b18565b5b80821115612af45760008155600101612b34565b600060208284031215612b5a57600080fd5b81357fffffffff000000000000000000000000000000000000000000000000000000008116811461292b57600080fd5b6001600160a01b0381168114610ed757600080fd5b600060208284031215612bb157600080fd5b813561292b81612b8a565b600080600060608486031215612bd157600080fd5b8335612bdc81612b8a565b95602085013595506040909401359392505050565b600060208284031215612c0357600080fd5b5035919050565b600080600060608486031215612c1f57600080fd5b8335612c2a81612b8a565b92506020840135612c3a81612b8a565b929592945050506040919091013590565b60008060408385031215612c5e57600080fd5b823591506020830135612c7081612b8a565b809150509250929050565b60008060408385031215612c8e57600080fd5b8235612c9981612b8a565b91506020830135612c7081612b8a565b634e487b7160e01b600052604160045260246000fd5b604051601f8201601f1916810167ffffffffffffffff81118282101715612ce857612ce8612ca9565b604052919050565b60008060408385031215612d0357600080fd5b8235612d0e81612b8a565b915060208381013567ffffffffffffffff80821115612d2c57600080fd5b818601915086601f830112612d4057600080fd5b813581811115612d5257612d52612ca9565b612d6484601f19601f84011601612cbf565b91508082528784828501011115612d7a57600080fd5b80848401858401376000848284010152508093505050509250929050565b60008060408385031215612dab57600080fd5b8235612db681612b8a565b946020939093013593505050565b60008060408385031215612dd757600080fd5b50508035926020909101359150565b60006020808385031215612df957600080fd5b823567ffffffffffffffff80821115612e1157600080fd5b818501915085601f830112612e2557600080fd5b813581811115612e3757612e37612ca9565b8060051b9150612e48848301612cbf565b8181529183018401918481019088841115612e6257600080fd5b938501935b83851015612e8057843582529385019390850190612e67565b98975050505050505050565b600060208284031215612e9e57600080fd5b815161292b81612b8a565b634e487b7160e01b600052601160045260246000fd5b80820281158282048414176107b9576107b9612ea9565b600082612ef357634e487b7160e01b600052601260045260246000fd5b500490565b818103818111156107b9576107b9612ea9565b808201808211156107b9576107b9612ea9565b600060208284031215612f3057600080fd5b8151801515811461292b57600080fd5b634e487b7160e01b600052603260045260246000fd5b600060208284031215612f6857600080fd5b5051919050565b60005b83811015612f8a578181015183820152602001612f72565b50506000910152565b7f416363657373436f6e74726f6c3a206163636f756e7420000000000000000000815260008351612fcb816017850160208801612f6f565b7f206973206d697373696e6720726f6c65200000000000000000000000000000006017918401918201528351613008816028840160208801612f6f565b01602801949350505050565b6020815260008251806020840152613033816040850160208701612f6f565b601f01601f19169190910160400192915050565b60008161305657613056612ea9565b507fffffffffffffffffffffffffffffffffffffffffffffffffffffffffffffffff0190565b6000825161308e818460208701612f6f565b919091019291505056fe416464726573733a206c6f772d6c6576656c2064656c65676174652063616c6c206661696c6564a2646970667358221220e2232169a23062904464ff799bd1daa9bb20887e38f2d0112c14624a7cb95a2664736f6c63430008180033",
  "linkReferences": {},
  "deployedLinkReferences": {}
}