{"contracts/BHeroDesign.sol":{"BHeroDesign":{"abi":[{"anonymous":false,"inputs":[{"indexed":false,"internalType":"address","name":"previousAdmin","type":"address"},{"indexed":false,"internalType":"address","name":"newAdmin","type":"address"}],"name":"AdminChanged","type":"event"},{"anonymous":false,"inputs":[{"indexed":true,"internalType":"address","name":"beacon","type":"address"}],"name":"BeaconUpgraded","type":"event"},{"anonymous":false,"inputs":[{"indexed":false,"internalType":"uint8","name":"version","type":"uint8"}],"name":"Initialized","type":"event"},{"anonymous":false,"inputs":[{"indexed":true,"internalType":"bytes32","name":"role","type":"bytes32"},{"indexed":true,"internalType":"bytes32","name":"previousAdminRole","type":"bytes32"},{"indexed":true,"internalType":"bytes32","name":"newAdminRole","type":"bytes32"}],"name":"RoleAdminChanged","type":"event"},{"anonymous":false,"inputs":[{"indexed":true,"internalType":"bytes32","name":"role","type":"bytes32"},{"indexed":true,"internalType":"address","name":"account","type":"address"},{"indexed":true,"internalType":"address","name":"sender","type":"address"}],"name":"RoleGranted","type":"event"},{"anonymous":false,"inputs":[{"indexed":true,"internalType":"bytes32","name":"role","type":"bytes32"},{"indexed":true,"internalType":"address","name":"account","type":"address"},{"indexed":true,"internalType":"address","name":"sender","type":"address"}],"name":"RoleRevoked","type":"event"},{"anonymous":false,"inputs":[{"indexed":true,"internalType":"address","name":"implementation","type":"address"}],"name":"Upgraded","type":"event"},{"inputs":[],"name":"DEFAULT_ADMIN_ROLE","outputs":[{"internalType":"bytes32","name":"","type":"bytes32"}],"stateMutability":"view","type":"function"},{"inputs":[],"name":"DESIGNER_ROLE","outputs":[{"internalType":"bytes32","name":"","type":"bytes32"}],"stateMutability":"view","type":"function"},{"inputs":[],"name":"UPGRADER_ROLE","outputs":[{"internalType":"bytes32","name":"","type":"bytes32"}],"stateMutability":"view","type":"function"},{"inputs":[{"internalType":"uint256","name":"tokenId","type":"uint256"},{"internalType":"uint256","name":"count","type":"uint256"},{"internalType":"uint256","name":"details","type":"uint256"}],"name":"createTokens","outputs":[{"internalType":"uint256[]","name":"tokenDetails","type":"uint256[]"}],"stateMutability":"view","type":"function"},{"inputs":[],"name":"getAbilityDesigns","outputs":[{"components":[{"internalType":"uint256","name":"minCost","type":"uint256"},{"internalType":"uint256","name":"maxCost","type":"uint256"},{"internalType":"uint256","name":"incrementalCost","type":"uint256"}],"internalType":"struct BHeroDesign.AbilityDesign[]","name":"","type":"tuple[]"}],"stateMutability":"view","type":"function"},{"inputs":[],"name":"getAbilityRate","outputs":[{"internalType":"uint256[]","name":"","type":"uint256[]"}],"stateMutability":"view","type":"function"},{"inputs":[],"name":"getDropRate","outputs":[{"internalType":"uint256[]","name":"","type":"uint256[]"}],"stateMutability":"view","type":"function"},{"inputs":[],"name":"getDropRateHeroS","outputs":[{"internalType":"uint256[]","name":"","type":"uint256[]"}],"stateMutability":"view","type":"function"},{"inputs":[],"name":"getMaxLevel","outputs":[{"internalType":"uint256","name":"","type":"uint256"}],"stateMutability":"view","type":"function"},{"inputs":[],"name":"getMintCost","outputs":[{"internalType":"uint256","name":"","type":"uint256"}],"stateMutability":"view","type":"function"},{"inputs":[],"name":"getMintCostHeroS","outputs":[{"internalType":"uint256","name":"","type":"uint256"}],"stateMutability":"view","type":"function"},{"inputs":[],"name":"getMintCostHeroV2","outputs":[{"internalType":"uint256","name":"","type":"uint256"},{"internalType":"uint256","name":"","type":"uint256"}],"stateMutability":"view","type":"function"},{"inputs":[{"internalType":"uint256","name":"rarity","type":"uint256"},{"internalType":"uint256","name":"times","type":"uint256"}],"name":"getRandomizeAbilityCost","outputs":[{"internalType":"uint256","name":"","type":"uint256"}],"stateMutability":"view","type":"function"},{"inputs":[],"name":"getRarityStats","outputs":[{"components":[{"components":[{"internalType":"uint256","name":"min","type":"uint256"},{"internalType":"uint256","name":"max","type":"uint256"}],"internalType":"struct BHeroDesign.StatsRange","name":"stamina","type":"tuple"},{"components":[{"internalType":"uint256","name":"min","type":"uint256"},{"internalType":"uint256","name":"max","type":"uint256"}],"internalType":"struct BHeroDesign.StatsRange","name":"speed","type":"tuple"},{"internalType":"uint256","name":"bombCount","type":"uint256"},{"components":[{"internalType":"uint256","name":"min","type":"uint256"},{"internalType":"uint256","name":"max","type":"uint256"}],"internalType":"struct BHeroDesign.StatsRange","name":"bombPower","type":"tuple"},{"internalType":"uint256","name":"bombRange","type":"uint256"},{"internalType":"uint256","name":"ability","type":"uint256"}],"internalType":"struct BHeroDesign.Stats[]","name":"","type":"tuple[]"}],"stateMutability":"view","type":"function"},{"inputs":[{"internalType":"uint256","name":"rarity","type":"uint256"},{"internalType":"uint256","name":"level","type":"uint256"}],"name":"getRockUpgradeShieldLevel","outputs":[{"internalType":"uint256","name":"","type":"uint256"}],"stateMutability":"view","type":"function"},{"inputs":[{"internalType":"bytes32","name":"role","type":"bytes32"}],"name":"getRoleAdmin","outputs":[{"internalType":"bytes32","name":"","type":"bytes32"}],"stateMutability":"view","type":"function"},{"inputs":[],"name":"getSenMintCost","outputs":[{"internalType":"uint256","name":"","type":"uint256"}],"stateMutability":"view","type":"function"},{"inputs":[],"name":"getSenMintCostHeroS","outputs":[{"internalType":"uint256","name":"","type":"uint256"}],"stateMutability":"view","type":"function"},{"inputs":[],"name":"getSuperBoxDropRate","outputs":[{"internalType":"uint256[]","name":"","type":"uint256[]"}],"stateMutability":"view","type":"function"},{"inputs":[],"name":"getSuperBoxMintCost","outputs":[{"internalType":"uint256","name":"","type":"uint256"}],"stateMutability":"view","type":"function"},{"inputs":[],"name":"getTokenLimit","outputs":[{"internalType":"uint256","name":"","type":"uint256"}],"stateMutability":"view","type":"function"},{"inputs":[{"internalType":"uint256","name":"rarity","type":"uint256"},{"internalType":"uint256","name":"level","type":"uint256"}],"name":"getUpgradeCost","outputs":[{"internalType":"uint256","name":"","type":"uint256"}],"stateMutability":"view","type":"function"},{"inputs":[],"name":"getUpgradeCosts","outputs":[{"internalType":"uint256[][]","name":"","type":"uint256[][]"}],"stateMutability":"view","type":"function"},{"inputs":[{"internalType":"bytes32","name":"role","type":"bytes32"},{"internalType":"address","name":"account","type":"address"}],"name":"grantRole","outputs":[],"stateMutability":"nonpayable","type":"function"},{"inputs":[{"internalType":"bytes32","name":"role","type":"bytes32"},{"internalType":"address","name":"account","type":"address"}],"name":"hasRole","outputs":[{"internalType":"bool","name":"","type":"bool"}],"stateMutability":"view","type":"function"},{"inputs":[],"name":"initialize","outputs":[],"stateMutability":"nonpayable","type":"function"},{"inputs":[],"name":"proxiableUUID","outputs":[{"internalType":"bytes32","name":"","type":"bytes32"}],"stateMutability":"view","type":"function"},{"inputs":[{"internalType":"uint256","name":"seed","type":"uint256"},{"internalType":"uint256","name":"_details","type":"uint256"}],"name":"randomizeAbilities","outputs":[{"internalType":"uint256","name":"nextSeed","type":"uint256"},{"internalType":"uint256","name":"encodedDetails","type":"uint256"}],"stateMutability":"view","type":"function"},{"inputs":[{"internalType":"bytes32","name":"role","type":"bytes32"},{"internalType":"address","name":"account","type":"address"}],"name":"renounceRole","outputs":[],"stateMutability":"nonpayable","type":"function"},{"inputs":[{"internalType":"bytes32","name":"role","type":"bytes32"},{"internalType":"address","name":"account","type":"address"}],"name":"revokeRole","outputs":[],"stateMutability":"nonpayable","type":"function"},{"inputs":[{"internalType":"uint256[]","name":"value","type":"uint256[]"}],"name":"setAbilityRate","outputs":[],"stateMutability":"nonpayable","type":"function"},{"inputs":[{"internalType":"uint256","name":"value","type":"uint256"}],"name":"setBcoinMintCostV2","outputs":[],"stateMutability":"nonpayable","type":"function"},{"inputs":[{"internalType":"uint256[]","name":"value","type":"uint256[]"}],"name":"setDropRate","outputs":[],"stateMutability":"nonpayable","type":"function"},{"inputs":[{"internalType":"uint256[]","name":"value","type":"uint256[]"}],"name":"setDropRateHeroS","outputs":[],"stateMutability":"nonpayable","type":"function"},{"inputs":[{"internalType":"uint256","name":"value","type":"uint256"}],"name":"setMaxLevel","outputs":[],"stateMutability":"nonpayable","type":"function"},{"inputs":[{"internalType":"uint256","name":"value","type":"uint256"}],"name":"setMintCost","outputs":[],"stateMutability":"nonpayable","type":"function"},{"inputs":[{"internalType":"uint256","name":"value","type":"uint256"}],"name":"setMintCostHeroS","outputs":[],"stateMutability":"nonpayable","type":"function"},{"inputs":[{"internalType":"uint256","name":"level","type":"uint256"},{"internalType":"uint256[6]","name":"value","type":"uint256[6]"}],"name":"setNumRockUpgradeShieldLevel","outputs":[],"stateMutability":"nonpayable","type":"function"},{"inputs":[{"internalType":"uint256","name":"rarity","type":"uint256"},{"internalType":"uint256","name":"minCost","type":"uint256"},{"internalType":"uint256","name":"maxCost","type":"uint256"},{"internalType":"uint256","name":"incrementalCost","type":"uint256"}],"name":"setRandomizeAbilityCost","outputs":[],"stateMutability":"nonpayable","type":"function"},{"inputs":[{"internalType":"uint256","name":"rarity","type":"uint256"},{"components":[{"components":[{"internalType":"uint256","name":"min","type":"uint256"},{"internalType":"uint256","name":"max","type":"uint256"}],"internalType":"struct BHeroDesign.StatsRange","name":"stamina","type":"tuple"},{"components":[{"internalType":"uint256","name":"min","type":"uint256"},{"internalType":"uint256","name":"max","type":"uint256"}],"internalType":"struct BHeroDesign.StatsRange","name":"speed","type":"tuple"},{"internalType":"uint256","name":"bombCount","type":"uint256"},{"components":[{"internalType":"uint256","name":"min","type":"uint256"},{"internalType":"uint256","name":"max","type":"uint256"}],"internalType":"struct BHeroDesign.StatsRange","name":"bombPower","type":"tuple"},{"internalType":"uint256","name":"bombRange","type":"uint256"},{"internalType":"uint256","name":"ability","type":"uint256"}],"internalType":"struct BHeroDesign.Stats","name":"stats","type":"tuple"}],"name":"setRarityStats","outputs":[],"stateMutability":"nonpayable","type":"function"},{"inputs":[{"internalType":"uint256","name":"value","type":"uint256"}],"name":"setSenMintCost","outputs":[],"stateMutability":"nonpayable","type":"function"},{"inputs":[{"internalType":"uint256","name":"value","type":"uint256"}],"name":"setSenMintCostHeroS","outputs":[],"stateMutability":"nonpayable","type":"function"},{"inputs":[{"internalType":"uint256","name":"value","type":"uint256"}],"name":"setSenMintCostV2","outputs":[],"stateMutability":"nonpayable","type":"function"},{"inputs":[{"internalType":"uint256[]","name":"value","type":"uint256[]"}],"name":"setSkinVal","outputs":[],"stateMutability":"nonpayable","type":"function"},{"inputs":[{"internalType":"uint256[]","name":"value","type":"uint256[]"}],"name":"setSuperBoxDropRate","outputs":[],"stateMutability":"nonpayable","type":"function"},{"inputs":[{"internalType":"uint256","name":"value","type":"uint256"}],"name":"setSuperBoxMintCost","outputs":[],"stateMutability":"nonpayable","type":"function"},{"inputs":[{"internalType":"uint256","name":"value","type":"uint256"}],"name":"setTokenLimit","outputs":[],"stateMutability":"nonpayable","type":"function"},{"inputs":[{"internalType":"uint256[][]","name":"value","type":"uint256[][]"}],"name":"setUpgradeCosts","outputs":[],"stateMutability":"nonpayable","type":"function"},{"inputs":[{"internalType":"bytes4","name":"interfaceId","type":"bytes4"}],"name":"supportsInterface","outputs":[{"internalType":"bool","name":"","type":"bool"}],"stateMutability":"view","type":"function"},{"inputs":[{"internalType":"address","name":"newImplementation","type":"address"}],"name":"upgradeTo","outputs":[],"stateMutability":"nonpayable","type":"function"},{"inputs":[{"internalType":"address","name":"newImplementation","type":"address"},{"internalType":"bytes","name":"data","type":"bytes"}],"name":"upgradeToAndCall","outputs":[],"stateMutability":"payable","type":"function"}],"evm":{"bytecode":{"linkReferences":{},"object":"60a06040523060805234801561001457600080fd5b50608051614bdf61004c60003960008181610e8701528181610f1d015281816110b201528181611148015261123f0152614bdf6000f3fe6080604052600436106103335760003560e01c8063745f418f116101b0578063c133cf54116100ec578063df064ad811610095578063f50576521161006f578063f505765214610910578063f72c0d8b14610926578063f988c0d21461095a578063fa3a515f1461096f57600080fd5b8063df064ad8146108ae578063dfe3daa3146108d0578063efb947f1146108f057600080fd5b8063da1e6ba4116100c6578063da1e6ba41461084e578063da6a074c1461086e578063deed88971461088e57600080fd5b8063c133cf54146107ee578063d547741f1461080e578063d55921b81461082e57600080fd5b80639010200a11610159578063a217fddf11610133578063a217fddf14610779578063b05b7b581461078e578063bc0dfa09146107ae578063c0e68fec146107ce57600080fd5b80639010200a146106f157806391d14854146107135780639a3563271461075957600080fd5b80638545f4ea1161018a5780638545f4ea1461068f5780638859c89d146106af5780638b3c88b4146106cf57600080fd5b8063745f418f146106395780637fb749b01461064f5780638129fc1c1461067a57600080fd5b806336568abe1161027f5780634f1ef28611610228578063607b63fd11610202578063607b63fd146105d9578063648abe57146105f957806368cdbe361461060f5780636da46a671461062457600080fd5b80634f1ef2861461059157806352d1902d146105a45780635603b519146105b957600080fd5b80633cead5a9116102595780633cead5a9146105315780633ee4f036146105515780634830dfa51461057157600080fd5b806336568abe146104db5780633659cfe6146104fb5780633798fe561461051b57600080fd5b806328485586116102e157806331ad3579116102bb57806331ad357914610486578063344f1ba51461049b57806335a66484146104bb57600080fd5b80632848558614610431578063294b3db5146104465780632f2ff15d1461046657600080fd5b806316b0f8e61161031257806316b0f8e6146103b25780631fe40312146103df578063248a9ca31461040157600080fd5b8062736cf31461033857806301ffc9a71461036357806313c738f014610393575b600080fd5b34801561034457600080fd5b5061034d610985565b60405161035a919061429a565b60405180910390f35b34801561036f57600080fd5b5061038361037e366004614342565b610a1f565b604051901515815260200161035a565b34801561039f57600080fd5b5060ff545b60405190815260200161035a565b3480156103be57600080fd5b506103d26103cd366004614384565b610a30565b60405161035a91906143b0565b3480156103eb57600080fd5b506103ff6103fa3660046143f4565b610ca6565b005b34801561040d57600080fd5b506103a461041c3660046143f4565b60009081526065602052604090206001015490565b34801561043d57600080fd5b5060fd546103a4565b34801561045257600080fd5b506103a461046136600461440d565b610cc5565b34801561047257600080fd5b506103ff61048136600461444b565b610d23565b34801561049257600080fd5b506103d2610d4d565b3480156104a757600080fd5b506103ff6104b63660046143f4565b610da6565b3480156104c757600080fd5b506103ff6104d6366004614571565b610dc5565b3480156104e757600080fd5b506103ff6104f636600461444b565b610df1565b34801561050757600080fd5b506103ff6105163660046145a6565b610e7d565b34801561052757600080fd5b50610100546103a4565b34801561053d57600080fd5b506103ff61054c3660046143f4565b61101a565b34801561055d57600080fd5b506103ff61056c366004614571565b611039565b34801561057d57600080fd5b506103a461058c36600461440d565b611064565b6103ff61059f3660046145c1565b6110a8565b3480156105b057600080fd5b506103a4611232565b3480156105c557600080fd5b506103ff6105d43660046143f4565b6112f7565b3480156105e557600080fd5b506103a46105f436600461440d565b611316565b34801561060557600080fd5b50610107546103a4565b34801561061b57600080fd5b506103d261133e565b34801561063057600080fd5b506103d2611395565b34801561064557600080fd5b50610109546103a4565b34801561065b57600080fd5b5061011354610112545b6040805192835260208301919091520161035a565b34801561068657600080fd5b506103ff6113ec565b34801561069b57600080fd5b506103ff6106aa3660046143f4565b6124f6565b3480156106bb57600080fd5b506103ff6106ca366004614571565b612514565b3480156106db57600080fd5b506106e4612540565b60405161035a9190614667565b3480156106fd57600080fd5b50610706612662565b60405161035a919061471c565b34801561071f57600080fd5b5061038361072e36600461444b565b60009182526065602090815260408084206001600160a01b0393909316845291905290205460ff1690565b34801561076557600080fd5b5061066561077436600461440d565b6126d7565b34801561078557600080fd5b506103a4600081565b34801561079a57600080fd5b506103ff6107a9366004614768565b612713565b3480156107ba57600080fd5b506103ff6107c9366004614571565b612870565b3480156107da57600080fd5b506103ff6107e93660046143f4565b61289c565b3480156107fa57600080fd5b506103ff6108093660046147e9565b6128ba565b34801561081a57600080fd5b506103ff61082936600461444b565b612938565b34801561083a57600080fd5b506103ff610849366004614878565b61295d565b34801561085a57600080fd5b506103ff6108693660046143f4565b61299e565b34801561087a57600080fd5b506103ff6108893660046148e4565b6129bd565b34801561089a57600080fd5b506103ff6108a93660046143f4565b6129e9565b3480156108ba57600080fd5b506103a4600080516020614b6383398151915281565b3480156108dc57600080fd5b506103ff6108eb366004614571565b612a08565b3480156108fc57600080fd5b506103ff61090b3660046143f4565b612a34565b34801561091c57600080fd5b50610108546103a4565b34801561093257600080fd5b506103a47f189ab7a9244df0848122154315af71fe140f3db0fe014031783b0946b8c9d2e381565b34801561096657600080fd5b506103d2612a53565b34801561097b57600080fd5b50610106546103a4565b6060610101805480602002602001604051908101604052809291908181526020016000905b82821015610a1657600084815260209081902083018054604080518285028101850190915281815292830182828015610a0257602002820191906000526020600020905b8154815260200190600101908083116109ee575b5050505050815260200190600101906109aa565b50505050905090565b6000610a2a82612aa9565b92915050565b60608267ffffffffffffffff811115610a4b57610a4b61446e565b604051908082528060200260200182016040528015610a74578160200160208202803683370190505b5090506000633fffffff8316601f602885901c16828167ffffffffffffffff811115610aa257610aa261446e565b604051908082528060200260200182016040528015610acb578160200160208202803683370190505b50905060005b82811015610b1b57610ae481600f6149ab565b610aef90602d6149c2565b87901c617fff16828281518110610b0857610b086149d5565b6020908102919091010152600101610ad1565b50824311610b705760405162461bcd60e51b815260206004820152601860248201527f54617267657420626c6f636b206e6f742061727269766564000000000000000060448201526064015b60405180910390fd5b82406000819003610c055784610bd8578215610bd35760005b83811015610bcd576000838281518110610ba557610ba56149d5565b60200260200101511115610bc557610bbe8160016149c2565b9550610bcd565b600101610b89565b50610bd8565b600194505b610be960ff85164360ff19166149c2565b9350438410610c0157610bfe610100856149eb565b93505b5082405b60005b88811015610c99576000610c1c828c6149c2565b905060008382604051602001610c3c929190918252602082015260400190565b6040516020818303038152906040528051906020012060001c90506000610c6682848b8e8a612b40565b905080915050808a8581518110610c7f57610c7f6149d5565b602002602001018181525050505050806001019050610c08565b5050505050509392505050565b600080516020614b63833981519152610cbe81612f07565b5061011255565b6000806101038481548110610cdc57610cdc6149d5565b906000526020600020906003020190506000838260020154610cfe91906149ab565b8254610d0a91906149c2565b9050610d1a818360010154612f11565b95945050505050565b600082815260656020526040902060010154610d3e81612f07565b610d488383612f29565b505050565b6060610102805480602002602001604051908101604052809291908181526020018280548015610d9c57602002820191906000526020600020905b815481526020019060010190808311610d88575b5050505050905090565b600080516020614b63833981519152610dbe81612f07565b5061010055565b600080516020614b63833981519152610ddd81612f07565b8151610d4890610105906020850190614018565b6001600160a01b0381163314610e6f5760405162461bcd60e51b815260206004820152602f60248201527f416363657373436f6e74726f6c3a2063616e206f6e6c792072656e6f756e636560448201527f20726f6c657320666f722073656c6600000000000000000000000000000000006064820152608401610b67565b610e798282612fcb565b5050565b6001600160a01b037f0000000000000000000000000000000000000000000000000000000000000000163003610f1b5760405162461bcd60e51b815260206004820152602c60248201527f46756e6374696f6e206d7573742062652063616c6c6564207468726f7567682060448201527f64656c656761746563616c6c00000000000000000000000000000000000000006064820152608401610b67565b7f00000000000000000000000000000000000000000000000000000000000000006001600160a01b0316610f767f360894a13ba1a3210667c828492db98dca3e2076cc3735a920a3ca505d382bbc546001600160a01b031690565b6001600160a01b031614610ff25760405162461bcd60e51b815260206004820152602c60248201527f46756e6374696f6e206d7573742062652063616c6c6564207468726f7567682060448201527f6163746976652070726f787900000000000000000000000000000000000000006064820152608401610b67565b610ffb8161304e565b6040805160008082526020820190925261101791839190613078565b50565b600080516020614b6383398151915261103281612f07565b5061011355565b600080516020614b6383398151915261105181612f07565b8151610d489060fe906020850190614018565b6000610101838154811061107a5761107a6149d5565b906000526020600020018281548110611095576110956149d5565b9060005260206000200154905092915050565b6001600160a01b037f00000000000000000000000000000000000000000000000000000000000000001630036111465760405162461bcd60e51b815260206004820152602c60248201527f46756e6374696f6e206d7573742062652063616c6c6564207468726f7567682060448201527f64656c656761746563616c6c00000000000000000000000000000000000000006064820152608401610b67565b7f00000000000000000000000000000000000000000000000000000000000000006001600160a01b03166111a17f360894a13ba1a3210667c828492db98dca3e2076cc3735a920a3ca505d382bbc546001600160a01b031690565b6001600160a01b03161461121d5760405162461bcd60e51b815260206004820152602c60248201527f46756e6374696f6e206d7573742062652063616c6c6564207468726f7567682060448201527f6163746976652070726f787900000000000000000000000000000000000000006064820152608401610b67565b6112268261304e565b610e7982826001613078565b6000306001600160a01b037f000000000000000000000000000000000000000000000000000000000000000016146112d25760405162461bcd60e51b815260206004820152603860248201527f555550535570677261646561626c653a206d757374206e6f742062652063616c60448201527f6c6564207468726f7567682064656c656761746563616c6c00000000000000006064820152608401610b67565b507f360894a13ba1a3210667c828492db98dca3e2076cc3735a920a3ca505d382bbc90565b600080516020614b6383398151915261130f81612f07565b5061010855565b600061010b826006811061132c5761132c6149d5565b018381548110611095576110956149d5565b606061010a805480602002602001604051908101604052809291908181526020018280548015610d9c5760200282019190600052602060002090815481526020019060010190808311610d88575050505050905090565b6060610105805480602002602001604051908101604052809291908181526020018280548015610d9c5760200282019190600052602060002090815481526020019060010190808311610d88575050505050905090565b600054610100900460ff161580801561140c5750600054600160ff909116105b806114265750303b158015611426575060005460ff166001145b6114985760405162461bcd60e51b815260206004820152602e60248201527f496e697469616c697a61626c653a20636f6e747261637420697320616c72656160448201527f647920696e697469616c697a65640000000000000000000000000000000000006064820152608401610b67565b6000805460ff1916600117905580156114bb576000805461ff0019166101001790555b6114c3613218565b6114cb613218565b6114d6600033613297565b6115007f189ab7a9244df0848122154315af71fe140f3db0fe014031783b0946b8c9d2e333613297565b611518600080516020614b6383398151915233613297565b6040518060c001604052806040518060400160405280600181526020016003815250815260200160405180604001604052806001815260200160038152508152602001600181526020016040518060400160405280600181526020016003815250815260200160018152602001600181525060fb6000808152602001908152602001600020600082015181600001600082015181600001556020820151816001015550506020820151816002016000820151816000015560208201518160010155505060408201518160040155606082015181600501600082015181600001556020820151816001015550506080820151816007015560a082015181600801559050506040518060c001604052806040518060400160405280600381526020016006815250815260200160405180604001604052806003815260200160068152508152602001600281526020016040518060400160405280600381526020016006815250815260200160028152602001600281525060fb600060018152602001908152602001600020600082015181600001600082015181600001556020820151816001015550506020820151816002016000820151816000015560208201518160010155505060408201518160040155606082015181600501600082015181600001556020820151816001015550506080820151816007015560a082015181600801559050506040518060c001604052806040518060400160405280600681526020016009815250815260200160405180604001604052806006815260200160098152508152602001600381526020016040518060400160405280600681526020016009815250815260200160038152602001600381525060fb600060028152602001908152602001600020600082015181600001600082015181600001556020820151816001015550506020820151816002016000820151816000015560208201518160010155505060408201518160040155606082015181600501600082015181600001556020820151816001015550506080820151816007015560a082015181600801559050506040518060c00160405280604051806040016040528060098152602001600c8152508152602001604051806040016040528060098152602001600c815250815260200160048152602001604051806040016040528060098152602001600c815250815260200160048152602001600481525060fb600060038152602001908152602001600020600082015181600001600082015181600001556020820151816001015550506020820151816002016000820151816000015560208201518160010155505060408201518160040155606082015181600501600082015181600001556020820151816001015550506080820151816007015560a082015181600801559050506040518060c001604052806040518060400160405280600c8152602001600f81525081526020016040518060400160405280600c8152602001600f8152508152602001600581526020016040518060400160405280600c8152602001600f815250815260200160058152602001600581525060fb600060048152602001908152602001600020600082015181600001600082015181600001556020820151816001015550506020820151816002016000820151816000015560208201518160010155505060408201518160040155606082015181600501600082015181600001556020820151816001015550506080820151816007015560a082015181600801559050506040518060c001604052806040518060400160405280600f8152602001601281525081526020016040518060400160405280600f815260200160128152508152602001600681526020016040518060400160405280600f81526020016012815250815260200160068152602001600681525060fb600060058152602001908152602001600020600082015181600001600082015181600001556020820151816001015550506020820151816002016000820151816000015560208201518160010155505060408201518160040155606082015181600501600082015181600001556020820151816001015550506080820151816007015560a082015181600801559050506040518060e00160405280600160ff168152602001600260ff168152602001600360ff168152602001600460ff168152602001600560ff168152602001600660ff168152602001600760ff1681525060fc906007611b8e929190614063565b506040805160e081018252600180825260026020830181905292820181905260608201819052608082015260a0810182905260c0810191909152611bd790610102906007614063565b506101f460fd556040805160c08101825261205f815261040c6020820152610206918101919091526068606082015260346080820152600460a0820152611c229060fe9060066140a3565b50678ac7230489e8000060ff55674563918244f400006101075560056101005560408051608081018252670de0b6b3a76400008152671bc16d674ec800006020820152673782dace9d90000091810191909152676124fee993bc000060608201526101018054600181018255600091909152611cc4917f109ea3cebb188b9c1b9fc5bb3920be60dfdc8699098dff92f3d80daaca7476899091019060046140e4565b5060408051608081018252671bc16d674ec800008152673782dace9d9000006020820152674563918244f4000091810191909152677ce66c50e284000060608201526101018054600181018255600091909152611d47917f109ea3cebb188b9c1b9fc5bb3920be60dfdc8699098dff92f3d80daaca7476899091019060046140e4565b5060408051608081018252671bc16d674ec800008152673782dace9d9000006020820152674563918244f4000091810191909152678ac7230489e8000060608201526101018054600181018255600091909152611dca917f109ea3cebb188b9c1b9fc5bb3920be60dfdc8699098dff92f3d80daaca7476899091019060046140e4565b50604080516080810182526729a2241af62c00008152676124fee993bc000060208201526798a7d9b8314c0000918101919091526801314fb3706298000060608201526101018054600181018255600091909152611e4e917f109ea3cebb188b9c1b9fc5bb3920be60dfdc8699098dff92f3d80daaca74768990910190600461412b565b5060408051608081018252676124fee993bc0000815267f9ccd8a1c5080000602082015268022b1c8c1227a00000918101919091526807ea2832757708000060608201526101018054600181018255600091909152611ed3917f109ea3cebb188b9c1b9fc5bb3920be60dfdc8699098dff92f3d80daaca74768990910190600461412b565b5060408051608081018252677ce66c50e2840000815268015af1d78b58c40000602082015268030927f74c9de0000091810191909152680ac9ae05a71ebc000060608201526101018054600181018255600091909152611f59917f109ea3cebb188b9c1b9fc5bb3920be60dfdc8699098dff92f3d80daaca74768990910190600461412b565b506101036040518060600160405280671bc16d674ec800008152602001671bc16d674ec8000081526020016000815250908060018154018082558091505060019003906000526020600020906003020160009091909190915060008201518160000155602082015181600101556040820151816002015550506101036040518060600160405280674563918244f400008152602001678ac7230489e800008152602001670de0b6b3a7640000815250908060018154018082558091505060019003906000526020600020906003020160009091909190915060008201518160000155602082015181600101556040820151816002015550506101036040518060600160405280678ac7230489e8000081526020016801158e460913d000008152602001671bc16d674ec800008152509080600181540180825580915050600190039060005260206000209060030201600090919091909150600082015181600001556020820151816001015560408201518160020155505061010360405180606001604052806801158e460913d00000815260200168022b1c8c1227a000008152602001673782dace9d9000008152509080600181540180825580915050600190039060005260206000209060030201600090919091909150600082015181600001556020820151816001015560408201518160020155505061010360405180606001604052806801e5b8fa8fe2ac00008152602001680340aad21b3b7000008152602001674563918244f400008152509080600181540180825580915050600190039060005260206000209060030201600090919091909150600082015181600001556020820151816001015560408201518160020155505061010360405180606001604052806802b5e3af16b188000081526020016804563918244f40000081526020016753444835ec58000081525090806001815401808255809150506001900390600052602060002090600302016000909190919091506000820151816000015560208201518160010155604082015181600201555050600a610104819055506040518060c001604052806120e861ffff16815260200161040c61ffff1681526020016101a261ffff168152602001603361ffff168152602001601561ffff168152602001603261ffff168152506101059060066122bc9291906140a3565b506802b5e3af16b1880000610106819055610108819055610109556040805160c08101825261205f815261040c6020820152610206918101919091526068606082015260346080820152600460a082015261231c9061010a9060066140a3565b506040805160c081018252600080825260208201819052918101829052606081018290526080810182905260a081019190915261235e9061010b906006614063565b506040805160c081018252600181526002602082015260049181019190915260066060820181905260086080830152600a60a08301526123a19161010c91614063565b506040805160c081018252600181526002602082015260049181019190915260066060820181905260086080830152600a60a08301526123e49161010d91614063565b506040805160c081018252600181526002602082015260049181019190915260066060820181905260086080830152600a60a08301526124279161010e91614063565b50604080516101a08101825260018152600260208201526003918101919091526004606082015260056080820152600660a0820152600760c0820152600860e08201526009610100820152600a610120820152600e610140820152600f61016082015260106101808201526124a19061011190600d614063565b50602d61011255600a610113558015611017576000805461ff0019169055604051600181527f7f26b83ff96e1f2b6a682f133852f6798a09c465da95921460cefb38474024989060200160405180910390a150565b600080516020614b6383398151915261250e81612f07565b5060ff55565b600080516020614b6383398151915261252c81612f07565b8151610d4890610111906020850190614018565b60fe5460609060008167ffffffffffffffff8111156125615761256161446e565b60405190808252806020026020018201604052801561259a57816020015b612587614173565b81526020019060019003908161257f5790505b50905060005b8281101561265b57600081815260fb6020908152604091829020825161010081018452815460c08201908152600183015460e0830152815283518085018552600283015481526003830154818501528184015260048201548185015283518085019094526005820154845260068201549284019290925260608201929092526007820154608082015260089091015460a08201528251839083908110612648576126486149d5565b60209081029190910101526001016125a0565b5092915050565b6060610103805480602002602001604051908101604052809291908181526020016000905b82821015610a165783829060005260206000209060030201604051806060016040529081600082015481526020016001820154815260200160028201548152505081526020019060010190612687565b60008060006126e5846132a1565b90506126f585826040015161354c565b610180830152945084925061270981613600565b9150509250929050565b600080516020614b6383398151915261272b81612f07565b61010354851015612772576000610103868154811061274c5761274c6149d5565b600091825260209091206003909102018581556001810185905560020183905550612869565b6101035485146127c45760405162461bcd60e51b815260206004820152600e60248201527f496e76616c6964207261726974790000000000000000000000000000000000006044820152606401610b67565b6040805160608101825285815260208101858152918101848152610103805460018101825560009190915291517f02c297ab74aad0aede3a1895c857b1f2c71e6a203feb727bec95ac752998cb7860039093029283015591517f02c297ab74aad0aede3a1895c857b1f2c71e6a203feb727bec95ac752998cb7982015590517f02c297ab74aad0aede3a1895c857b1f2c71e6a203feb727bec95ac752998cb7a909101555b5050505050565b600080516020614b6383398151915261288881612f07565b8151610d489061010a906020850190614018565b600080516020614b638339815191526128b481612f07565b5060fd55565b600080516020614b638339815191526128d281612f07565b50600091825260fb6020908152604092839020825180518255820151600182015581830151805160028301558201516003820155928201516004840155606082015180516005850155015160068301556080810151600783015560a00151600890910155565b60008281526065602052604090206001015461295381612f07565b610d488383612fcb565b600080516020614b6383398151915261297581612f07565b8161010b846006811061298a5761298a6149d5565b612998929101906006614018565b50505050565b600080516020614b638339815191526129b681612f07565b5061010955565b600080516020614b638339815191526129d581612f07565b8151610d48906101019060208501906141f1565b600080516020614b63833981519152612a0181612f07565b5061010755565b600080516020614b63833981519152612a2081612f07565b8151610d4890610102906020850190614018565b600080516020614b63833981519152612a4c81612f07565b5061010655565b606060fe805480602002602001604051908101604052809291908181526020018280548015610d9c5760200282019190600052602060002090815481526020019060010190808311610d88575050505050905090565b60007fffffffff0000000000000000000000000000000000000000000000000000000082167f7965db0b000000000000000000000000000000000000000000000000000000001480610a2a57507f01ffc9a7000000000000000000000000000000000000000000000000000000007fffffffff00000000000000000000000000000000000000000000000000000000831614610a2a565b600080612bd16040518061024001604052806000815260200160008152602001600081526020016000815260200160008152602001600081526020016000815260200160008152602001600081526020016000815260200160008152602001600081526020016060815260200160008152602001600081526020016060815260200160008152602001600081525090565b86815287601f601e87901c8116906001602389901c811681149160878a901c1690600384149084148315612c485760408051600180825281830190925260009160208083019080368337019050509050600181600081518110612c3657612c366149d5565b60209081029190910101526101e08801525b8b612d1c57612d108682612cbb5760008c5111612cb55760fe805480602002602001604051908101604052809291908181526020018280548015612cab57602002820191906000526020600020905b815481526020019060010190808311612c97575b50505050506137a1565b8b6137a1565b610105805480602002602001604051908101604052809291908181526020018280548015612cab5760200282019190600052602060002090815481526020019060010190808311612c975750505050506137a1565b60408901529550612d2d565b612d2760018d6149eb565b60408801525b8115612daf5760008060005b8c51811015612d8b578c8181518110612d5457612d546149d5565b6020026020010151821015612d83578c8181518110612d7557612d756149d5565b602002602001015191508092505b600101612d39565b5088604001518214612dac578760009a509a50505050505050505050612efd565b50505b600160608801819052604080890151600090815260fb6020522060048101546101208a015260078101546101608a015290612ded90889060056138aa565b60808a0152965083612e5357610111546000908190612e0e906001906149eb565b905088612e1d816000846138aa565b809450819b5050506101118381548110612e3957612e396149d5565b60009182526020909120015460a08c015250612e5b915050565b60a088018490525b80546001820154612e6d9189916138aa565b60c08a015260028201546003830154919850612e8b918991906138aa565b60e08a01529650612e9f87600160146138aa565b6101008a015260058201546006830154919850612ebe918991906138aa565b6101408a01526040890151909750612ed790889061354c565b6101808a0152436101a08a01529950899650612ef288613600565b985050505050505050505b9550959350505050565b61101781336138ce565b6000818310612f205781612f22565b825b9392505050565b60008281526065602090815260408083206001600160a01b038516845290915290205460ff16610e795760008281526065602090815260408083206001600160a01b03851684529091529020805460ff19166001179055612f873390565b6001600160a01b0316816001600160a01b0316837f2f8788117e7eff1d82e926ec794901d17c78024a50270940304540a733656f0d60405160405180910390a45050565b60008281526065602090815260408083206001600160a01b038516845290915290205460ff1615610e795760008281526065602090815260408083206001600160a01b0385168085529252808320805460ff1916905551339285917ff6391f5c32d9c69d2a47ea670b442974b53935d1edc7fd64eb21e047a839171b9190a45050565b7f189ab7a9244df0848122154315af71fe140f3db0fe014031783b0946b8c9d2e3610e7981612f07565b7f4910fdfa16fed3260ed0e7147f7cc6da11a60208b5b9406d12a635614ffd91435460ff16156130ab57610d4883613943565b826001600160a01b03166352d1902d6040518163ffffffff1660e01b8152600401602060405180830381865afa925050508015613105575060408051601f3d908101601f19168201909252613102918101906149fe565b60015b6131775760405162461bcd60e51b815260206004820152602e60248201527f45524331393637557067726164653a206e657720696d706c656d656e7461746960448201527f6f6e206973206e6f7420555550530000000000000000000000000000000000006064820152608401610b67565b7f360894a13ba1a3210667c828492db98dca3e2076cc3735a920a3ca505d382bbc811461320c5760405162461bcd60e51b815260206004820152602960248201527f45524331393637557067726164653a20756e737570706f727465642070726f7860448201527f6961626c655555494400000000000000000000000000000000000000000000006064820152608401610b67565b50610d48838383613a19565b600054610100900460ff166132955760405162461bcd60e51b815260206004820152602b60248201527f496e697469616c697a61626c653a20636f6e7472616374206973206e6f74206960448201527f6e697469616c697a696e670000000000000000000000000000000000000000006064820152608401610b67565b565b610e798282612f29565b61332f6040518061024001604052806000815260200160008152602001600081526020016000815260200160008152602001600081526020016000815260200160008152602001600081526020016000815260200160008152602001600081526020016060815260200160008152602001600081526020016060815260200160008152602001600081525090565b633fffffff82168152601e82901c6103ff166020820152602882901c601f166040820152602d82901c601f166060820152601f603283901c81166080830152603783901c811660a0830152603c83901c811660c0830152604183901c811660e0830152604683901c8116610100830152604b83901c8116610120830152605083901c8116610140830152605583901c8116610160830152605a83901c168067ffffffffffffffff8111156133e5576133e561446e565b60405190808252806020026020018201604052801561340e578160200160208202803683370190505b5061018083015260005b818110156134665761342b8160056149ab565b61343690605f6149c2565b84901c601f168361018001518281518110613453576134536149d5565b6020908102919091010152600101613418565b50609183901c633fffffff166101a083015260af83901c601f166101c0830152601f60b484901c168067ffffffffffffffff8111156134a7576134a761446e565b6040519080825280602002602001820160405280156134d0578160200160208202803683370190505b506101e084015260005b81811015613528576134ed8160056149ab565b6134f89060b96149c2565b85901c601f16846101e001518281518110613515576135156149d5565b60209081029190910101526001016134da565b50505060eb82901c601f1661022082015260f09190911c6103ff1661020082015290565b60006060600061010280548060200260200160405190810160405280929190818152602001828054801561359f57602002820191906000526020600020905b81548152602001906001019080831161358b575b50505050509050836000036135d0576000816002815181106135c3576135c36149d5565b6020026020010181815250505b600084815260fb6020526040902060088101546135f390879060fc908590613a3e565b9097909650945050505050565b8051602082015160408301516060840151608085015160a086015160c087015160e08801516101008901516101208a01516101408b01516101608c01516101808d01515160009c605a9190911b60559290921b60509390931b604b9490941b60469590951b60419690961b603c9790971b60379890981b60329990991b602d9a909a1b60289b909b1b601e9c909c1b179a909a1798909817969096179490941792909217171717171717815b83610180015151811015613700576136c58160056149ab565b6136d090605f6149c2565b84610180015182815181106136e7576136e76149d5565b6020026020010151901b821791508060010190506136ac565b506101a08301516101c08401516101e08501515160b41b60af9190911b60919290921b92909217171760005b836101e0015151811015613780576137458160056149ab565b6137509060b96149c2565b846101e001518281518110613767576137676149d5565b6020026020010151901b8217915080600101905061372c565b506102208301516102009093015160f01b60eb9390931b1791909117919050565b60008060008351116137f55760405162461bcd60e51b815260206004820152601460248201527f4172726179206d757374206e6f7420656d7074790000000000000000000000006044820152606401610b67565b6000805b845181101561383157848181518110613814576138146149d5565b60200260200101518261382791906149c2565b91506001016137f9565b50600061384086600084613b68565b90965090506000805b865181101561389757868181518110613864576138646149d5565b60200260200101518261387791906149c2565b91508183101561388f5787955093506138a392505050565b600101613849565b50866000945094505050505b9250929050565b6000806138c285856138bd8660016149c2565b613b68565b91509150935093915050565b60008281526065602090815260408083206001600160a01b038516845290915290205460ff16610e795761390181613be6565b61390c836020613bf8565b60405160200161391d929190614a3b565b60408051601f198184030181529082905262461bcd60e51b8252610b6791600401614abc565b6001600160a01b0381163b6139c05760405162461bcd60e51b815260206004820152602d60248201527f455243313936373a206e657720696d706c656d656e746174696f6e206973206e60448201527f6f74206120636f6e7472616374000000000000000000000000000000000000006064820152608401610b67565b7f360894a13ba1a3210667c828492db98dca3e2076cc3735a920a3ca505d382bbc80547fffffffffffffffffffffffff0000000000000000000000000000000000000000166001600160a01b0392909216919091179055565b613a2283613e21565b600082511180613a2f5750805b15610d48576129988383613e61565b600060608285805490501015613a965760405162461bcd60e51b815260206004820152601560248201527f496e76616c69642073616d706c696e672073697a6500000000000000000000006044820152606401610b67565b8267ffffffffffffffff811115613aaf57613aaf61446e565b604051908082528060200260200182016040528015613ad8578160200160208202803683370190505b5090506000805b84811015613b5b57613af188876137a1565b80935081995050506000868381518110613b0d57613b0d6149d5565b602002602001018181525050868281548110613b2b57613b2b6149d5565b9060005260206000200154838281518110613b4857613b486149d5565b6020908102919091010152600101613adf565b5095969095509350505050565b600080828410613bba5760405162461bcd60e51b815260206004820152601460248201527f496e76616c69642072616e646f6d2072616e67650000000000000000000000006044820152606401610b67565b613bcd85613bc886866149eb565b613e86565b9092509050613bdc84826149c2565b9050935093915050565b6060610a2a6001600160a01b03831660145b60606000613c078360026149ab565b613c129060026149c2565b67ffffffffffffffff811115613c2a57613c2a61446e565b6040519080825280601f01601f191660200182016040528015613c54576020820181803683370190505b5090507f300000000000000000000000000000000000000000000000000000000000000081600081518110613c8b57613c8b6149d5565b60200101907effffffffffffffffffffffffffffffffffffffffffffffffffffffffffffff1916908160001a9053507f780000000000000000000000000000000000000000000000000000000000000081600181518110613cee57613cee6149d5565b60200101907effffffffffffffffffffffffffffffffffffffffffffffffffffffffffffff1916908160001a9053506000613d2a8460026149ab565b613d359060016149c2565b90505b6001811115613dd2577f303132333435363738396162636465660000000000000000000000000000000085600f1660108110613d7657613d766149d5565b1a60f81b828281518110613d8c57613d8c6149d5565b60200101907effffffffffffffffffffffffffffffffffffffffffffffffffffffffffffff1916908160001a90535060049490941c93613dcb81614aef565b9050613d38565b508315612f225760405162461bcd60e51b815260206004820181905260248201527f537472696e67733a20686578206c656e67746820696e73756666696369656e746044820152606401610b67565b613e2a81613943565b6040516001600160a01b038216907fbc7cd75a20ee27fd9adebab32041f755214dbc6bffa90cc0225b39da2e5c2d3b90600090a250565b6060612f228383604051806060016040528060278152602001614b8360279139613ea7565b600080613e9284613f1f565b9150613e9e8383614b24565b90509250929050565b6060600080856001600160a01b031685604051613ec49190614b46565b600060405180830381855af49150503d8060008114613eff576040519150601f19603f3d011682016040523d82523d6000602084013e613f04565b606091505b5091509150613f1586838387613f6d565b9695505050505050565b600042613f2d6001436149eb565b6040805160208101939093529040908201524460608201526080810183905260a00160408051601f19818403018152919052805160209091012092915050565b60608315613fdc578251600003613fd5576001600160a01b0385163b613fd55760405162461bcd60e51b815260206004820152601d60248201527f416464726573733a2063616c6c20746f206e6f6e2d636f6e74726163740000006044820152606401610b67565b5081613fe6565b613fe68383613fee565b949350505050565b815115613ffe5781518083602001fd5b8060405162461bcd60e51b8152600401610b679190614abc565b828054828255906000526020600020908101928215614053579160200282015b82811115614053578251825591602001919060010190614038565b5061405f92915061424a565b5090565b828054828255906000526020600020908101928215614053579160200282015b82811115614053578251829060ff16905591602001919060010190614083565b828054828255906000526020600020908101928215614053579160200282015b82811115614053578251829061ffff169055916020019190600101906140c3565b828054828255906000526020600020908101928215614053579160200282015b82811115614053578251829067ffffffffffffffff16905591602001919060010190614104565b828054828255906000526020600020908101928215614053579160200282015b82811115614053578251829068ffffffffffffffffff1690559160200191906001019061414b565b604080516101008101909152600060c0820181815260e0830191909152819081526020016141b4604051806040016040528060008152602001600081525090565b8152602001600081526020016141dd604051806040016040528060008152602001600081525090565b815260200160008152602001600081525090565b82805482825590600052602060002090810192821561423e579160200282015b8281111561423e578251805161422e918491602090910190614018565b5091602001919060010190614211565b5061405f92915061425f565b5b8082111561405f576000815560010161424b565b8082111561405f576000614273828261427c565b5060010161425f565b5080546000825590600052602060002090810190611017919061424a565b6000602080830181845280855180835260408601915060408160051b87010192508387016000805b83811015614334578886037fffffffffffffffffffffffffffffffffffffffffffffffffffffffffffffffc0018552825180518088529088019088880190845b8181101561431e5783518352928a0192918a0191600101614302565b50909750505093860193918601916001016142c2565b509398975050505050505050565b60006020828403121561435457600080fd5b81357fffffffff0000000000000000000000000000000000000000000000000000000081168114612f2257600080fd5b60008060006060848603121561439957600080fd5b505081359360208301359350604090920135919050565b6020808252825182820181905260009190848201906040850190845b818110156143e8578351835292840192918401916001016143cc565b50909695505050505050565b60006020828403121561440657600080fd5b5035919050565b6000806040838503121561442057600080fd5b50508035926020909101359150565b80356001600160a01b038116811461444657600080fd5b919050565b6000806040838503121561445e57600080fd5b82359150613e9e6020840161442f565b634e487b7160e01b600052604160045260246000fd5b60405160c0810167ffffffffffffffff811182821017156144a7576144a761446e565b60405290565b604051601f8201601f1916810167ffffffffffffffff811182821017156144d6576144d661446e565b604052919050565b600067ffffffffffffffff8211156144f8576144f861446e565b5060051b60200190565b600082601f83011261451357600080fd5b81356020614528614523836144de565b6144ad565b8083825260208201915060208460051b87010193508684111561454a57600080fd5b602086015b84811015614566578035835291830191830161454f565b509695505050505050565b60006020828403121561458357600080fd5b813567ffffffffffffffff81111561459a57600080fd5b613fe684828501614502565b6000602082840312156145b857600080fd5b612f228261442f565b600080604083850312156145d457600080fd5b6145dd8361442f565b915060208084013567ffffffffffffffff808211156145fb57600080fd5b818601915086601f83011261460f57600080fd5b8135818111156146215761462161446e565b61463384601f19601f840116016144ad565b9150808252878482850101111561464957600080fd5b80848401858401376000848284010152508093505050509250929050565b602080825282518282018190526000919060409081850190868401855b8281101561470f5781516146a385825180518252602090810151910152565b868101516146bd8787018280518252602090810151910152565b5085810151608081818801526060830151915060a06146e88189018480518252602090810151910152565b9083015160e088015290910151610100860152506101209093019290850190600101614684565b5091979650505050505050565b602080825282518282018190526000919060409081850190868401855b8281101561470f5781518051855286810151878601528501518585015260609093019290850190600101614739565b6000806000806080858703121561477e57600080fd5b5050823594602084013594506040840135936060013592509050565b6000604082840312156147ac57600080fd5b6040516040810181811067ffffffffffffffff821117156147cf576147cf61446e565b604052823581526020928301359281019290925250919050565b6000808284036101408112156147fe57600080fd5b8335925061012080601f198301121561481657600080fd5b61481e614484565b915061482d866020870161479a565b825261483c866060870161479a565b602083015260a085013560408301526148588660c0870161479a565b606083015261010085013560808301529093013560a08401525092909150565b60008060e0838503121561488b57600080fd5b82359150602084603f8501126148a057600080fd5b6148a8614484565b8060e08601878111156148ba57600080fd5b602087015b818110156148d657803584529284019284016148bf565b509497909650945050505050565b600060208083850312156148f757600080fd5b823567ffffffffffffffff8082111561490f57600080fd5b818501915085601f83011261492357600080fd5b8135614931614523826144de565b81815260059190911b8301840190848101908883111561495057600080fd5b8585015b838110156149885780358581111561496c5760008081fd5b61497a8b89838a0101614502565b845250918601918601614954565b5098975050505050505050565b634e487b7160e01b600052601160045260246000fd5b8082028115828204841417610a2a57610a2a614995565b80820180821115610a2a57610a2a614995565b634e487b7160e01b600052603260045260246000fd5b81810381811115610a2a57610a2a614995565b600060208284031215614a1057600080fd5b5051919050565b60005b83811015614a32578181015183820152602001614a1a565b50506000910152565b7f416363657373436f6e74726f6c3a206163636f756e7420000000000000000000815260008351614a73816017850160208801614a17565b7f206973206d697373696e6720726f6c65200000000000000000000000000000006017918401918201528351614ab0816028840160208801614a17565b01602801949350505050565b6020815260008251806020840152614adb816040850160208701614a17565b601f01601f19169190910160400192915050565b600081614afe57614afe614995565b507fffffffffffffffffffffffffffffffffffffffffffffffffffffffffffffffff0190565b600082614b4157634e487b7160e01b600052601260045260246000fd5b500690565b60008251614b58818460208701614a17565b919091019291505056fe22c69ab406805e70d07fb1a6502af760601d3b977beadb295a9d76d5852e16a3416464726573733a206c6f772d6c6576656c2064656c65676174652063616c6c206661696c6564a2646970667358221220cb905b3eaaa91bb986cc3d5678f6484068c3d122eff52de69f09abccf54afcfc64736f6c63430008180033","opcodes":"PUSH1 0xA0 PUSH1 0x40 MSTORE ADDRESS PUSH1 0x80 MSTORE CALLVALUE DUP1 ISZERO PUSH2 0x14 JUMPI PUSH1 0x0 DUP1 REVERT JUMPDEST POP PUSH1 0x80 MLOAD PUSH2 0x4BDF PUSH2 0x4C PUSH1 0x0 CODECOPY PUSH1 0x0 DUP2 DUP2 PUSH2 0xE87 ADD MSTORE DUP2 DUP2 PUSH2 0xF1D ADD MSTORE DUP2 DUP2 PUSH2 0x10B2 ADD MSTORE DUP2 DUP2 PUSH2 0x1148 ADD MSTORE PUSH2 0x123F ADD MSTORE PUSH2 0x4BDF PUSH1 0x0 RETURN INVALID PUSH1 0x80 PUSH1 0x40 MSTORE PUSH1 0x4 CALLDATASIZE LT PUSH2 0x333 JUMPI PUSH1 0x0 CALLDATALOAD PUSH1 0xE0 SHR DUP1 PUSH4 0x745F418F GT PUSH2 0x1B0 JUMPI DUP1 PUSH4 0xC133CF54 GT PUSH2 0xEC JUMPI DUP1 PUSH4 0xDF064AD8 GT PUSH2 0x95 JUMPI DUP1 PUSH4 0xF5057652 GT PUSH2 0x6F JUMPI DUP1 PUSH4 0xF5057652 EQ PUSH2 0x910 JUMPI DUP1 PUSH4 0xF72C0D8B EQ PUSH2 0x926 JUMPI DUP1 PUSH4 0xF988C0D2 EQ PUSH2 0x95A JUMPI DUP1 PUSH4 0xFA3A515F EQ PUSH2 0x96F JUMPI PUSH1 0x0 DUP1 REVERT JUMPDEST DUP1 PUSH4 0xDF064AD8 EQ PUSH2 0x8AE JUMPI DUP1 PUSH4 0xDFE3DAA3 EQ PUSH2 0x8D0 JUMPI DUP1 PUSH4 0xEFB947F1 EQ PUSH2 0x8F0 JUMPI PUSH1 0x0 DUP1 REVERT JUMPDEST DUP1 PUSH4 0xDA1E6BA4 GT PUSH2 0xC6 JUMPI DUP1 PUSH4 0xDA1E6BA4 EQ PUSH2 0x84E JUMPI DUP1 PUSH4 0xDA6A074C EQ PUSH2 0x86E JUMPI DUP1 PUSH4 0xDEED8897 EQ PUSH2 0x88E JUMPI PUSH1 0x0 DUP1 REVERT JUMPDEST DUP1 PUSH4 0xC133CF54 EQ PUSH2 0x7EE JUMPI DUP1 PUSH4 0xD547741F EQ PUSH2 0x80E JUMPI DUP1 PUSH4 0xD55921B8 EQ PUSH2 0x82E JUMPI PUSH1 0x0 DUP1 REVERT JUMPDEST DUP1 PUSH4 0x9010200A GT PUSH2 0x159 JUMPI DUP1 PUSH4 0xA217FDDF GT PUSH2 0x133 JUMPI DUP1 PUSH4 0xA217FDDF EQ PUSH2 0x779 JUMPI DUP1 PUSH4 0xB05B7B58 EQ PUSH2 0x78E JUMPI DUP1 PUSH4 0xBC0DFA09 EQ PUSH2 0x7AE JUMPI DUP1 PUSH4 0xC0E68FEC EQ PUSH2 0x7CE JUMPI PUSH1 0x0 DUP1 REVERT JUMPDEST DUP1 PUSH4 0x9010200A EQ PUSH2 0x6F1 JUMPI DUP1 PUSH4 0x91D14854 EQ PUSH2 0x713 JUMPI DUP1 PUSH4 0x9A356327 EQ PUSH2 0x759 JUMPI PUSH1 0x0 DUP1 REVERT JUMPDEST DUP1 PUSH4 0x8545F4EA GT PUSH2 0x18A JUMPI DUP1 PUSH4 0x8545F4EA EQ PUSH2 0x68F JUMPI DUP1 PUSH4 0x8859C89D EQ PUSH2 0x6AF JUMPI DUP1 PUSH4 0x8B3C88B4 EQ PUSH2 0x6CF JUMPI PUSH1 0x0 DUP1 REVERT JUMPDEST DUP1 PUSH4 0x745F418F EQ PUSH2 0x639 JUMPI DUP1 PUSH4 0x7FB749B0 EQ PUSH2 0x64F JUMPI DUP1 PUSH4 0x8129FC1C EQ PUSH2 0x67A JUMPI PUSH1 0x0 DUP1 REVERT JUMPDEST DUP1 PUSH4 0x36568ABE GT PUSH2 0x27F JUMPI DUP1 PUSH4 0x4F1EF286 GT PUSH2 0x228 JUMPI DUP1 PUSH4 0x607B63FD GT PUSH2 0x202 JUMPI DUP1 PUSH4 0x607B63FD EQ PUSH2 0x5D9 JUMPI DUP1 PUSH4 0x648ABE57 EQ PUSH2 0x5F9 JUMPI DUP1 PUSH4 0x68CDBE36 EQ PUSH2 0x60F JUMPI DUP1 PUSH4 0x6DA46A67 EQ PUSH2 0x624 JUMPI PUSH1 0x0 DUP1 REVERT JUMPDEST DUP1 PUSH4 0x4F1EF286 EQ PUSH2 0x591 JUMPI DUP1 PUSH4 0x52D1902D EQ PUSH2 0x5A4 JUMPI DUP1 PUSH4 0x5603B519 EQ PUSH2 0x5B9 JUMPI PUSH1 0x0 DUP1 REVERT JUMPDEST DUP1 PUSH4 0x3CEAD5A9 GT PUSH2 0x259 JUMPI DUP1 PUSH4 0x3CEAD5A9 EQ PUSH2 0x531 JUMPI DUP1 PUSH4 0x3EE4F036 EQ PUSH2 0x551 JUMPI DUP1 PUSH4 0x4830DFA5 EQ PUSH2 0x571 JUMPI PUSH1 0x0 DUP1 REVERT JUMPDEST DUP1 PUSH4 0x36568ABE EQ PUSH2 0x4DB JUMPI DUP1 PUSH4 0x3659CFE6 EQ PUSH2 0x4FB JUMPI DUP1 PUSH4 0x3798FE56 EQ PUSH2 0x51B JUMPI PUSH1 0x0 DUP1 REVERT JUMPDEST DUP1 PUSH4 0x28485586 GT PUSH2 0x2E1 JUMPI DUP1 PUSH4 0x31AD3579 GT PUSH2 0x2BB JUMPI DUP1 PUSH4 0x31AD3579 EQ PUSH2 0x486 JUMPI DUP1 PUSH4 0x344F1BA5 EQ PUSH2 0x49B JUMPI DUP1 PUSH4 0x35A66484 EQ PUSH2 0x4BB JUMPI PUSH1 0x0 DUP1 REVERT JUMPDEST DUP1 PUSH4 0x28485586 EQ PUSH2 0x431 JUMPI DUP1 PUSH4 0x294B3DB5 EQ PUSH2 0x446 JUMPI DUP1 PUSH4 0x2F2FF15D EQ PUSH2 0x466 JUMPI PUSH1 0x0 DUP1 REVERT JUMPDEST DUP1 PUSH4 0x16B0F8E6 GT PUSH2 0x312 JUMPI DUP1 PUSH4 0x16B0F8E6 EQ PUSH2 0x3B2 JUMPI DUP1 PUSH4 0x1FE40312 EQ PUSH2 0x3DF JUMPI DUP1 PUSH4 0x248A9CA3 EQ PUSH2 0x401 JUMPI PUSH1 0x0 DUP1 REVERT JUMPDEST DUP1 PUSH3 0x736CF3 EQ PUSH2 0x338 JUMPI DUP1 PUSH4 0x1FFC9A7 EQ PUSH2 0x363 JUMPI DUP1 PUSH4 0x13C738F0 EQ PUSH2 0x393 JUMPI JUMPDEST PUSH1 0x0 DUP1 REVERT JUMPDEST CALLVALUE DUP1 ISZERO PUSH2 0x344 JUMPI PUSH1 0x0 DUP1 REVERT JUMPDEST POP PUSH2 0x34D PUSH2 0x985 JUMP JUMPDEST PUSH1 0x40 MLOAD PUSH2 0x35A SWAP2 SWAP1 PUSH2 0x429A JUMP JUMPDEST PUSH1 0x40 MLOAD DUP1 SWAP2 SUB SWAP1 RETURN JUMPDEST CALLVALUE DUP1 ISZERO PUSH2 0x36F JUMPI PUSH1 0x0 DUP1 REVERT JUMPDEST POP PUSH2 0x383 PUSH2 0x37E CALLDATASIZE PUSH1 0x4 PUSH2 0x4342 JUMP JUMPDEST PUSH2 0xA1F JUMP JUMPDEST PUSH1 0x40 MLOAD SWAP1 ISZERO ISZERO DUP2 MSTORE PUSH1 0x20 ADD PUSH2 0x35A JUMP JUMPDEST CALLVALUE DUP1 ISZERO PUSH2 0x39F JUMPI PUSH1 0x0 DUP1 REVERT JUMPDEST POP PUSH1 0xFF SLOAD JUMPDEST PUSH1 0x40 MLOAD SWAP1 DUP2 MSTORE PUSH1 0x20 ADD PUSH2 0x35A JUMP JUMPDEST CALLVALUE DUP1 ISZERO PUSH2 0x3BE JUMPI PUSH1 0x0 DUP1 REVERT JUMPDEST POP PUSH2 0x3D2 PUSH2 0x3CD CALLDATASIZE PUSH1 0x4 PUSH2 0x4384 JUMP JUMPDEST PUSH2 0xA30 JUMP JUMPDEST PUSH1 0x40 MLOAD PUSH2 0x35A SWAP2 SWAP1 PUSH2 0x43B0 JUMP JUMPDEST CALLVALUE DUP1 ISZERO PUSH2 0x3EB JUMPI PUSH1 0x0 DUP1 REVERT JUMPDEST POP PUSH2 0x3FF PUSH2 0x3FA CALLDATASIZE PUSH1 0x4 PUSH2 0x43F4 JUMP JUMPDEST PUSH2 0xCA6 JUMP JUMPDEST STOP JUMPDEST CALLVALUE DUP1 ISZERO PUSH2 0x40D JUMPI PUSH1 0x0 DUP1 REVERT JUMPDEST POP PUSH2 0x3A4 PUSH2 0x41C CALLDATASIZE PUSH1 0x4 PUSH2 0x43F4 JUMP JUMPDEST PUSH1 0x0 SWAP1 DUP2 MSTORE PUSH1 0x65 PUSH1 0x20 MSTORE PUSH1 0x40 SWAP1 KECCAK256 PUSH1 0x1 ADD SLOAD SWAP1 JUMP JUMPDEST CALLVALUE DUP1 ISZERO PUSH2 0x43D JUMPI PUSH1 0x0 DUP1 REVERT JUMPDEST POP PUSH1 0xFD SLOAD PUSH2 0x3A4 JUMP JUMPDEST CALLVALUE DUP1 ISZERO PUSH2 0x452 JUMPI PUSH1 0x0 DUP1 REVERT JUMPDEST POP PUSH2 0x3A4 PUSH2 0x461 CALLDATASIZE PUSH1 0x4 PUSH2 0x440D JUMP JUMPDEST PUSH2 0xCC5 JUMP JUMPDEST CALLVALUE DUP1 ISZERO PUSH2 0x472 JUMPI PUSH1 0x0 DUP1 REVERT JUMPDEST POP PUSH2 0x3FF PUSH2 0x481 CALLDATASIZE PUSH1 0x4 PUSH2 0x444B JUMP JUMPDEST PUSH2 0xD23 JUMP JUMPDEST CALLVALUE DUP1 ISZERO PUSH2 0x492 JUMPI PUSH1 0x0 DUP1 REVERT JUMPDEST POP PUSH2 0x3D2 PUSH2 0xD4D JUMP JUMPDEST CALLVALUE DUP1 ISZERO PUSH2 0x4A7 JUMPI PUSH1 0x0 DUP1 REVERT JUMPDEST POP PUSH2 0x3FF PUSH2 0x4B6 CALLDATASIZE PUSH1 0x4 PUSH2 0x43F4 JUMP JUMPDEST PUSH2 0xDA6 JUMP JUMPDEST CALLVALUE DUP1 ISZERO PUSH2 0x4C7 JUMPI PUSH1 0x0 DUP1 REVERT JUMPDEST POP PUSH2 0x3FF PUSH2 0x4D6 CALLDATASIZE PUSH1 0x4 PUSH2 0x4571 JUMP JUMPDEST PUSH2 0xDC5 JUMP JUMPDEST CALLVALUE DUP1 ISZERO PUSH2 0x4E7 JUMPI PUSH1 0x0 DUP1 REVERT JUMPDEST POP PUSH2 0x3FF PUSH2 0x4F6 CALLDATASIZE PUSH1 0x4 PUSH2 0x444B JUMP JUMPDEST PUSH2 0xDF1 JUMP JUMPDEST CALLVALUE DUP1 ISZERO PUSH2 0x507 JUMPI PUSH1 0x0 DUP1 REVERT JUMPDEST POP PUSH2 0x3FF PUSH2 0x516 CALLDATASIZE PUSH1 0x4 PUSH2 0x45A6 JUMP JUMPDEST PUSH2 0xE7D JUMP JUMPDEST CALLVALUE DUP1 ISZERO PUSH2 0x527 JUMPI PUSH1 0x0 DUP1 REVERT JUMPDEST POP PUSH2 0x100 SLOAD PUSH2 0x3A4 JUMP JUMPDEST CALLVALUE DUP1 ISZERO PUSH2 0x53D JUMPI PUSH1 0x0 DUP1 REVERT JUMPDEST POP PUSH2 0x3FF PUSH2 0x54C CALLDATASIZE PUSH1 0x4 PUSH2 0x43F4 JUMP JUMPDEST PUSH2 0x101A JUMP JUMPDEST CALLVALUE DUP1 ISZERO PUSH2 0x55D JUMPI PUSH1 0x0 DUP1 REVERT JUMPDEST POP PUSH2 0x3FF PUSH2 0x56C CALLDATASIZE PUSH1 0x4 PUSH2 0x4571 JUMP JUMPDEST PUSH2 0x1039 JUMP JUMPDEST CALLVALUE DUP1 ISZERO PUSH2 0x57D JUMPI PUSH1 0x0 DUP1 REVERT JUMPDEST POP PUSH2 0x3A4 PUSH2 0x58C CALLDATASIZE PUSH1 0x4 PUSH2 0x440D JUMP JUMPDEST PUSH2 0x1064 JUMP JUMPDEST PUSH2 0x3FF PUSH2 0x59F CALLDATASIZE PUSH1 0x4 PUSH2 0x45C1 JUMP JUMPDEST PUSH2 0x10A8 JUMP JUMPDEST CALLVALUE DUP1 ISZERO PUSH2 0x5B0 JUMPI PUSH1 0x0 DUP1 REVERT JUMPDEST POP PUSH2 0x3A4 PUSH2 0x1232 JUMP JUMPDEST CALLVALUE DUP1 ISZERO PUSH2 0x5C5 JUMPI PUSH1 0x0 DUP1 REVERT JUMPDEST POP PUSH2 0x3FF PUSH2 0x5D4 CALLDATASIZE PUSH1 0x4 PUSH2 0x43F4 JUMP JUMPDEST PUSH2 0x12F7 JUMP JUMPDEST CALLVALUE DUP1 ISZERO PUSH2 0x5E5 JUMPI PUSH1 0x0 DUP1 REVERT JUMPDEST POP PUSH2 0x3A4 PUSH2 0x5F4 CALLDATASIZE PUSH1 0x4 PUSH2 0x440D JUMP JUMPDEST PUSH2 0x1316 JUMP JUMPDEST CALLVALUE DUP1 ISZERO PUSH2 0x605 JUMPI PUSH1 0x0 DUP1 REVERT JUMPDEST POP PUSH2 0x107 SLOAD PUSH2 0x3A4 JUMP JUMPDEST CALLVALUE DUP1 ISZERO PUSH2 0x61B JUMPI PUSH1 0x0 DUP1 REVERT JUMPDEST POP PUSH2 0x3D2 PUSH2 0x133E JUMP JUMPDEST CALLVALUE DUP1 ISZERO PUSH2 0x630 JUMPI PUSH1 0x0 DUP1 REVERT JUMPDEST POP PUSH2 0x3D2 PUSH2 0x1395 JUMP JUMPDEST CALLVALUE DUP1 ISZERO PUSH2 0x645 JUMPI PUSH1 0x0 DUP1 REVERT JUMPDEST POP PUSH2 0x109 SLOAD PUSH2 0x3A4 JUMP JUMPDEST CALLVALUE DUP1 ISZERO PUSH2 0x65B JUMPI PUSH1 0x0 DUP1 REVERT JUMPDEST POP PUSH2 0x113 SLOAD PUSH2 0x112 SLOAD JUMPDEST PUSH1 0x40 DUP1 MLOAD SWAP3 DUP4 MSTORE PUSH1 0x20 DUP4 ADD SWAP2 SWAP1 SWAP2 MSTORE ADD PUSH2 0x35A JUMP JUMPDEST CALLVALUE DUP1 ISZERO PUSH2 0x686 JUMPI PUSH1 0x0 DUP1 REVERT JUMPDEST POP PUSH2 0x3FF PUSH2 0x13EC JUMP JUMPDEST CALLVALUE DUP1 ISZERO PUSH2 0x69B JUMPI PUSH1 0x0 DUP1 REVERT JUMPDEST POP PUSH2 0x3FF PUSH2 0x6AA CALLDATASIZE PUSH1 0x4 PUSH2 0x43F4 JUMP JUMPDEST PUSH2 0x24F6 JUMP JUMPDEST CALLVALUE DUP1 ISZERO PUSH2 0x6BB JUMPI PUSH1 0x0 DUP1 REVERT JUMPDEST POP PUSH2 0x3FF PUSH2 0x6CA CALLDATASIZE PUSH1 0x4 PUSH2 0x4571 JUMP JUMPDEST PUSH2 0x2514 JUMP JUMPDEST CALLVALUE DUP1 ISZERO PUSH2 0x6DB JUMPI PUSH1 0x0 DUP1 REVERT JUMPDEST POP PUSH2 0x6E4 PUSH2 0x2540 JUMP JUMPDEST PUSH1 0x40 MLOAD PUSH2 0x35A SWAP2 SWAP1 PUSH2 0x4667 JUMP JUMPDEST CALLVALUE DUP1 ISZERO PUSH2 0x6FD JUMPI PUSH1 0x0 DUP1 REVERT JUMPDEST POP PUSH2 0x706 PUSH2 0x2662 JUMP JUMPDEST PUSH1 0x40 MLOAD PUSH2 0x35A SWAP2 SWAP1 PUSH2 0x471C JUMP JUMPDEST CALLVALUE DUP1 ISZERO PUSH2 0x71F JUMPI PUSH1 0x0 DUP1 REVERT JUMPDEST POP PUSH2 0x383 PUSH2 0x72E CALLDATASIZE PUSH1 0x4 PUSH2 0x444B JUMP JUMPDEST PUSH1 0x0 SWAP2 DUP3 MSTORE PUSH1 0x65 PUSH1 0x20 SWAP1 DUP2 MSTORE PUSH1 0x40 DUP1 DUP5 KECCAK256 PUSH1 0x1 PUSH1 0x1 PUSH1 0xA0 SHL SUB SWAP4 SWAP1 SWAP4 AND DUP5 MSTORE SWAP2 SWAP1 MSTORE SWAP1 KECCAK256 SLOAD PUSH1 0xFF AND SWAP1 JUMP JUMPDEST CALLVALUE DUP1 ISZERO PUSH2 0x765 JUMPI PUSH1 0x0 DUP1 REVERT JUMPDEST POP PUSH2 0x665 PUSH2 0x774 CALLDATASIZE PUSH1 0x4 PUSH2 0x440D JUMP JUMPDEST PUSH2 0x26D7 JUMP JUMPDEST CALLVALUE DUP1 ISZERO PUSH2 0x785 JUMPI PUSH1 0x0 DUP1 REVERT JUMPDEST POP PUSH2 0x3A4 PUSH1 0x0 DUP2 JUMP JUMPDEST CALLVALUE DUP1 ISZERO PUSH2 0x79A JUMPI PUSH1 0x0 DUP1 REVERT JUMPDEST POP PUSH2 0x3FF PUSH2 0x7A9 CALLDATASIZE PUSH1 0x4 PUSH2 0x4768 JUMP JUMPDEST PUSH2 0x2713 JUMP JUMPDEST CALLVALUE DUP1 ISZERO PUSH2 0x7BA JUMPI PUSH1 0x0 DUP1 REVERT JUMPDEST POP PUSH2 0x3FF PUSH2 0x7C9 CALLDATASIZE PUSH1 0x4 PUSH2 0x4571 JUMP JUMPDEST PUSH2 0x2870 JUMP JUMPDEST CALLVALUE DUP1 ISZERO PUSH2 0x7DA JUMPI PUSH1 0x0 DUP1 REVERT JUMPDEST POP PUSH2 0x3FF PUSH2 0x7E9 CALLDATASIZE PUSH1 0x4 PUSH2 0x43F4 JUMP JUMPDEST PUSH2 0x289C JUMP JUMPDEST CALLVALUE DUP1 ISZERO PUSH2 0x7FA JUMPI PUSH1 0x0 DUP1 REVERT JUMPDEST POP PUSH2 0x3FF PUSH2 0x809 CALLDATASIZE PUSH1 0x4 PUSH2 0x47E9 JUMP JUMPDEST PUSH2 0x28BA JUMP JUMPDEST CALLVALUE DUP1 ISZERO PUSH2 0x81A JUMPI PUSH1 0x0 DUP1 REVERT JUMPDEST POP PUSH2 0x3FF PUSH2 0x829 CALLDATASIZE PUSH1 0x4 PUSH2 0x444B JUMP JUMPDEST PUSH2 0x2938 JUMP JUMPDEST CALLVALUE DUP1 ISZERO PUSH2 0x83A JUMPI PUSH1 0x0 DUP1 REVERT JUMPDEST POP PUSH2 0x3FF PUSH2 0x849 CALLDATASIZE PUSH1 0x4 PUSH2 0x4878 JUMP JUMPDEST PUSH2 0x295D JUMP JUMPDEST CALLVALUE DUP1 ISZERO PUSH2 0x85A JUMPI PUSH1 0x0 DUP1 REVERT JUMPDEST POP PUSH2 0x3FF PUSH2 0x869 CALLDATASIZE PUSH1 0x4 PUSH2 0x43F4 JUMP JUMPDEST PUSH2 0x299E JUMP JUMPDEST CALLVALUE DUP1 ISZERO PUSH2 0x87A JUMPI PUSH1 0x0 DUP1 REVERT JUMPDEST POP PUSH2 0x3FF PUSH2 0x889 CALLDATASIZE PUSH1 0x4 PUSH2 0x48E4 JUMP JUMPDEST PUSH2 0x29BD JUMP JUMPDEST CALLVALUE DUP1 ISZERO PUSH2 0x89A JUMPI PUSH1 0x0 DUP1 REVERT JUMPDEST POP PUSH2 0x3FF PUSH2 0x8A9 CALLDATASIZE PUSH1 0x4 PUSH2 0x43F4 JUMP JUMPDEST PUSH2 0x29E9 JUMP JUMPDEST CALLVALUE DUP1 ISZERO PUSH2 0x8BA JUMPI PUSH1 0x0 DUP1 REVERT JUMPDEST POP PUSH2 0x3A4 PUSH1 0x0 DUP1 MLOAD PUSH1 0x20 PUSH2 0x4B63 DUP4 CODECOPY DUP2 MLOAD SWAP2 MSTORE DUP2 JUMP JUMPDEST CALLVALUE DUP1 ISZERO PUSH2 0x8DC JUMPI PUSH1 0x0 DUP1 REVERT JUMPDEST POP PUSH2 0x3FF PUSH2 0x8EB CALLDATASIZE PUSH1 0x4 PUSH2 0x4571 JUMP JUMPDEST PUSH2 0x2A08 JUMP JUMPDEST CALLVALUE DUP1 ISZERO PUSH2 0x8FC JUMPI PUSH1 0x0 DUP1 REVERT JUMPDEST POP PUSH2 0x3FF PUSH2 0x90B CALLDATASIZE PUSH1 0x4 PUSH2 0x43F4 JUMP JUMPDEST PUSH2 0x2A34 JUMP JUMPDEST CALLVALUE DUP1 ISZERO PUSH2 0x91C JUMPI PUSH1 0x0 DUP1 REVERT JUMPDEST POP PUSH2 0x108 SLOAD PUSH2 0x3A4 JUMP JUMPDEST CALLVALUE DUP1 ISZERO PUSH2 0x932 JUMPI PUSH1 0x0 DUP1 REVERT JUMPDEST POP PUSH2 0x3A4 PUSH32 0x189AB7A9244DF0848122154315AF71FE140F3DB0FE014031783B0946B8C9D2E3 DUP2 JUMP JUMPDEST CALLVALUE DUP1 ISZERO PUSH2 0x966 JUMPI PUSH1 0x0 DUP1 REVERT JUMPDEST POP PUSH2 0x3D2 PUSH2 0x2A53 JUMP JUMPDEST CALLVALUE DUP1 ISZERO PUSH2 0x97B JUMPI PUSH1 0x0 DUP1 REVERT JUMPDEST POP PUSH2 0x106 SLOAD PUSH2 0x3A4 JUMP JUMPDEST PUSH1 0x60 PUSH2 0x101 DUP1 SLOAD DUP1 PUSH1 0x20 MUL PUSH1 0x20 ADD PUSH1 0x40 MLOAD SWAP1 DUP2 ADD PUSH1 0x40 MSTORE DUP1 SWAP3 SWAP2 SWAP1 DUP2 DUP2 MSTORE PUSH1 0x20 ADD PUSH1 0x0 SWAP1 JUMPDEST DUP3 DUP3 LT ISZERO PUSH2 0xA16 JUMPI PUSH1 0x0 DUP5 DUP2 MSTORE PUSH1 0x20 SWAP1 DUP2 SWAP1 KECCAK256 DUP4 ADD DUP1 SLOAD PUSH1 0x40 DUP1 MLOAD DUP3 DUP6 MUL DUP2 ADD DUP6 ADD SWAP1 SWAP2 MSTORE DUP2 DUP2 MSTORE SWAP3 DUP4 ADD DUP3 DUP3 DUP1 ISZERO PUSH2 0xA02 JUMPI PUSH1 0x20 MUL DUP3 ADD SWAP2 SWAP1 PUSH1 0x0 MSTORE PUSH1 0x20 PUSH1 0x0 KECCAK256 SWAP1 JUMPDEST DUP2 SLOAD DUP2 MSTORE PUSH1 0x20 ADD SWAP1 PUSH1 0x1 ADD SWAP1 DUP1 DUP4 GT PUSH2 0x9EE JUMPI JUMPDEST POP POP POP POP POP DUP2 MSTORE PUSH1 0x20 ADD SWAP1 PUSH1 0x1 ADD SWAP1 PUSH2 0x9AA JUMP JUMPDEST POP POP POP POP SWAP1 POP SWAP1 JUMP JUMPDEST PUSH1 0x0 PUSH2 0xA2A DUP3 PUSH2 0x2AA9 JUMP JUMPDEST SWAP3 SWAP2 POP POP JUMP JUMPDEST PUSH1 0x60 DUP3 PUSH8 0xFFFFFFFFFFFFFFFF DUP2 GT ISZERO PUSH2 0xA4B JUMPI PUSH2 0xA4B PUSH2 0x446E JUMP JUMPDEST PUSH1 0x40 MLOAD SWAP1 DUP1 DUP3 MSTORE DUP1 PUSH1 0x20 MUL PUSH1 0x20 ADD DUP3 ADD PUSH1 0x40 MSTORE DUP1 ISZERO PUSH2 0xA74 JUMPI DUP2 PUSH1 0x20 ADD PUSH1 0x20 DUP3 MUL DUP1 CALLDATASIZE DUP4 CALLDATACOPY ADD SWAP1 POP JUMPDEST POP SWAP1 POP PUSH1 0x0 PUSH4 0x3FFFFFFF DUP4 AND PUSH1 0x1F PUSH1 0x28 DUP6 SWAP1 SHR AND DUP3 DUP2 PUSH8 0xFFFFFFFFFFFFFFFF DUP2 GT ISZERO PUSH2 0xAA2 JUMPI PUSH2 0xAA2 PUSH2 0x446E JUMP JUMPDEST PUSH1 0x40 MLOAD SWAP1 DUP1 DUP3 MSTORE DUP1 PUSH1 0x20 MUL PUSH1 0x20 ADD DUP3 ADD PUSH1 0x40 MSTORE DUP1 ISZERO PUSH2 0xACB JUMPI DUP2 PUSH1 0x20 ADD PUSH1 0x20 DUP3 MUL DUP1 CALLDATASIZE DUP4 CALLDATACOPY ADD SWAP1 POP JUMPDEST POP SWAP1 POP PUSH1 0x0 JUMPDEST DUP3 DUP2 LT ISZERO PUSH2 0xB1B JUMPI PUSH2 0xAE4 DUP2 PUSH1 0xF PUSH2 0x49AB JUMP JUMPDEST PUSH2 0xAEF SWAP1 PUSH1 0x2D PUSH2 0x49C2 JUMP JUMPDEST DUP8 SWAP1 SHR PUSH2 0x7FFF AND DUP3 DUP3 DUP2 MLOAD DUP2 LT PUSH2 0xB08 JUMPI PUSH2 0xB08 PUSH2 0x49D5 JUMP JUMPDEST PUSH1 0x20 SWAP1 DUP2 MUL SWAP2 SWAP1 SWAP2 ADD ADD MSTORE PUSH1 0x1 ADD PUSH2 0xAD1 JUMP JUMPDEST POP DUP3 NUMBER GT PUSH2 0xB70 JUMPI PUSH1 0x40 MLOAD PUSH3 0x461BCD PUSH1 0xE5 SHL DUP2 MSTORE PUSH1 0x20 PUSH1 0x4 DUP3 ADD MSTORE PUSH1 0x18 PUSH1 0x24 DUP3 ADD MSTORE PUSH32 0x54617267657420626C6F636B206E6F7420617272697665640000000000000000 PUSH1 0x44 DUP3 ADD MSTORE PUSH1 0x64 ADD JUMPDEST PUSH1 0x40 MLOAD DUP1 SWAP2 SUB SWAP1 REVERT JUMPDEST DUP3 BLOCKHASH PUSH1 0x0 DUP2 SWAP1 SUB PUSH2 0xC05 JUMPI DUP5 PUSH2 0xBD8 JUMPI DUP3 ISZERO PUSH2 0xBD3 JUMPI PUSH1 0x0 JUMPDEST DUP4 DUP2 LT ISZERO PUSH2 0xBCD JUMPI PUSH1 0x0 DUP4 DUP3 DUP2 MLOAD DUP2 LT PUSH2 0xBA5 JUMPI PUSH2 0xBA5 PUSH2 0x49D5 JUMP JUMPDEST PUSH1 0x20 MUL PUSH1 0x20 ADD ADD MLOAD GT ISZERO PUSH2 0xBC5 JUMPI PUSH2 0xBBE DUP2 PUSH1 0x1 PUSH2 0x49C2 JUMP JUMPDEST SWAP6 POP PUSH2 0xBCD JUMP JUMPDEST PUSH1 0x1 ADD PUSH2 0xB89 JUMP JUMPDEST POP PUSH2 0xBD8 JUMP JUMPDEST PUSH1 0x1 SWAP5 POP JUMPDEST PUSH2 0xBE9 PUSH1 0xFF DUP6 AND NUMBER PUSH1 0xFF NOT AND PUSH2 0x49C2 JUMP JUMPDEST SWAP4 POP NUMBER DUP5 LT PUSH2 0xC01 JUMPI PUSH2 0xBFE PUSH2 0x100 DUP6 PUSH2 0x49EB JUMP JUMPDEST SWAP4 POP JUMPDEST POP DUP3 BLOCKHASH JUMPDEST PUSH1 0x0 JUMPDEST DUP9 DUP2 LT ISZERO PUSH2 0xC99 JUMPI PUSH1 0x0 PUSH2 0xC1C DUP3 DUP13 PUSH2 0x49C2 JUMP JUMPDEST SWAP1 POP PUSH1 0x0 DUP4 DUP3 PUSH1 0x40 MLOAD PUSH1 0x20 ADD PUSH2 0xC3C SWAP3 SWAP2 SWAP1 SWAP2 DUP3 MSTORE PUSH1 0x20 DUP3 ADD MSTORE PUSH1 0x40 ADD SWAP1 JUMP JUMPDEST PUSH1 0x40 MLOAD PUSH1 0x20 DUP2 DUP4 SUB SUB DUP2 MSTORE SWAP1 PUSH1 0x40 MSTORE DUP1 MLOAD SWAP1 PUSH1 0x20 ADD KECCAK256 PUSH1 0x0 SHR SWAP1 POP PUSH1 0x0 PUSH2 0xC66 DUP3 DUP5 DUP12 DUP15 DUP11 PUSH2 0x2B40 JUMP JUMPDEST SWAP1 POP DUP1 SWAP2 POP POP DUP1 DUP11 DUP6 DUP2 MLOAD DUP2 LT PUSH2 0xC7F JUMPI PUSH2 0xC7F PUSH2 0x49D5 JUMP JUMPDEST PUSH1 0x20 MUL PUSH1 0x20 ADD ADD DUP2 DUP2 MSTORE POP POP POP POP POP DUP1 PUSH1 0x1 ADD SWAP1 POP PUSH2 0xC08 JUMP JUMPDEST POP POP POP POP POP POP SWAP4 SWAP3 POP POP POP JUMP JUMPDEST PUSH1 0x0 DUP1 MLOAD PUSH1 0x20 PUSH2 0x4B63 DUP4 CODECOPY DUP2 MLOAD SWAP2 MSTORE PUSH2 0xCBE DUP2 PUSH2 0x2F07 JUMP JUMPDEST POP PUSH2 0x112 SSTORE JUMP JUMPDEST PUSH1 0x0 DUP1 PUSH2 0x103 DUP5 DUP2 SLOAD DUP2 LT PUSH2 0xCDC JUMPI PUSH2 0xCDC PUSH2 0x49D5 JUMP JUMPDEST SWAP1 PUSH1 0x0 MSTORE PUSH1 0x20 PUSH1 0x0 KECCAK256 SWAP1 PUSH1 0x3 MUL ADD SWAP1 POP PUSH1 0x0 DUP4 DUP3 PUSH1 0x2 ADD SLOAD PUSH2 0xCFE SWAP2 SWAP1 PUSH2 0x49AB JUMP JUMPDEST DUP3 SLOAD PUSH2 0xD0A SWAP2 SWAP1 PUSH2 0x49C2 JUMP JUMPDEST SWAP1 POP PUSH2 0xD1A DUP2 DUP4 PUSH1 0x1 ADD SLOAD PUSH2 0x2F11 JUMP JUMPDEST SWAP6 SWAP5 POP POP POP POP POP JUMP JUMPDEST PUSH1 0x0 DUP3 DUP2 MSTORE PUSH1 0x65 PUSH1 0x20 MSTORE PUSH1 0x40 SWAP1 KECCAK256 PUSH1 0x1 ADD SLOAD PUSH2 0xD3E DUP2 PUSH2 0x2F07 JUMP JUMPDEST PUSH2 0xD48 DUP4 DUP4 PUSH2 0x2F29 JUMP JUMPDEST POP POP POP JUMP JUMPDEST PUSH1 0x60 PUSH2 0x102 DUP1 SLOAD DUP1 PUSH1 0x20 MUL PUSH1 0x20 ADD PUSH1 0x40 MLOAD SWAP1 DUP2 ADD PUSH1 0x40 MSTORE DUP1 SWAP3 SWAP2 SWAP1 DUP2 DUP2 MSTORE PUSH1 0x20 ADD DUP3 DUP1 SLOAD DUP1 ISZERO PUSH2 0xD9C JUMPI PUSH1 0x20 MUL DUP3 ADD SWAP2 SWAP1 PUSH1 0x0 MSTORE PUSH1 0x20 PUSH1 0x0 KECCAK256 SWAP1 JUMPDEST DUP2 SLOAD DUP2 MSTORE PUSH1 0x20 ADD SWAP1 PUSH1 0x1 ADD SWAP1 DUP1 DUP4 GT PUSH2 0xD88 JUMPI JUMPDEST POP POP POP POP POP SWAP1 POP SWAP1 JUMP JUMPDEST PUSH1 0x0 DUP1 MLOAD PUSH1 0x20 PUSH2 0x4B63 DUP4 CODECOPY DUP2 MLOAD SWAP2 MSTORE PUSH2 0xDBE DUP2 PUSH2 0x2F07 JUMP JUMPDEST POP PUSH2 0x100 SSTORE JUMP JUMPDEST PUSH1 0x0 DUP1 MLOAD PUSH1 0x20 PUSH2 0x4B63 DUP4 CODECOPY DUP2 MLOAD SWAP2 MSTORE PUSH2 0xDDD DUP2 PUSH2 0x2F07 JUMP JUMPDEST DUP2 MLOAD PUSH2 0xD48 SWAP1 PUSH2 0x105 SWAP1 PUSH1 0x20 DUP6 ADD SWAP1 PUSH2 0x4018 JUMP JUMPDEST PUSH1 0x1 PUSH1 0x1 PUSH1 0xA0 SHL SUB DUP2 AND CALLER EQ PUSH2 0xE6F JUMPI PUSH1 0x40 MLOAD PUSH3 0x461BCD PUSH1 0xE5 SHL DUP2 MSTORE PUSH1 0x20 PUSH1 0x4 DUP3 ADD MSTORE PUSH1 0x2F PUSH1 0x24 DUP3 ADD MSTORE PUSH32 0x416363657373436F6E74726F6C3A2063616E206F6E6C792072656E6F756E6365 PUSH1 0x44 DUP3 ADD MSTORE PUSH32 0x20726F6C657320666F722073656C660000000000000000000000000000000000 PUSH1 0x64 DUP3 ADD MSTORE PUSH1 0x84 ADD PUSH2 0xB67 JUMP JUMPDEST PUSH2 0xE79 DUP3 DUP3 PUSH2 0x2FCB JUMP JUMPDEST POP POP JUMP JUMPDEST PUSH1 0x1 PUSH1 0x1 PUSH1 0xA0 SHL SUB PUSH32 0x0 AND ADDRESS SUB PUSH2 0xF1B JUMPI PUSH1 0x40 MLOAD PUSH3 0x461BCD PUSH1 0xE5 SHL DUP2 MSTORE PUSH1 0x20 PUSH1 0x4 DUP3 ADD MSTORE PUSH1 0x2C PUSH1 0x24 DUP3 ADD MSTORE PUSH32 0x46756E6374696F6E206D7573742062652063616C6C6564207468726F75676820 PUSH1 0x44 DUP3 ADD MSTORE PUSH32 0x64656C656761746563616C6C0000000000000000000000000000000000000000 PUSH1 0x64 DUP3 ADD MSTORE PUSH1 0x84 ADD PUSH2 0xB67 JUMP JUMPDEST PUSH32 0x0 PUSH1 0x1 PUSH1 0x1 PUSH1 0xA0 SHL SUB AND PUSH2 0xF76 PUSH32 0x360894A13BA1A3210667C828492DB98DCA3E2076CC3735A920A3CA505D382BBC SLOAD PUSH1 0x1 PUSH1 0x1 PUSH1 0xA0 SHL SUB AND SWAP1 JUMP JUMPDEST PUSH1 0x1 PUSH1 0x1 PUSH1 0xA0 SHL SUB AND EQ PUSH2 0xFF2 JUMPI PUSH1 0x40 MLOAD PUSH3 0x461BCD PUSH1 0xE5 SHL DUP2 MSTORE PUSH1 0x20 PUSH1 0x4 DUP3 ADD MSTORE PUSH1 0x2C PUSH1 0x24 DUP3 ADD MSTORE PUSH32 0x46756E6374696F6E206D7573742062652063616C6C6564207468726F75676820 PUSH1 0x44 DUP3 ADD MSTORE PUSH32 0x6163746976652070726F78790000000000000000000000000000000000000000 PUSH1 0x64 DUP3 ADD MSTORE PUSH1 0x84 ADD PUSH2 0xB67 JUMP JUMPDEST PUSH2 0xFFB DUP2 PUSH2 0x304E JUMP JUMPDEST PUSH1 0x40 DUP1 MLOAD PUSH1 0x0 DUP1 DUP3 MSTORE PUSH1 0x20 DUP3 ADD SWAP1 SWAP3 MSTORE PUSH2 0x1017 SWAP2 DUP4 SWAP2 SWAP1 PUSH2 0x3078 JUMP JUMPDEST POP JUMP JUMPDEST PUSH1 0x0 DUP1 MLOAD PUSH1 0x20 PUSH2 0x4B63 DUP4 CODECOPY DUP2 MLOAD SWAP2 MSTORE PUSH2 0x1032 DUP2 PUSH2 0x2F07 JUMP JUMPDEST POP PUSH2 0x113 SSTORE JUMP JUMPDEST PUSH1 0x0 DUP1 MLOAD PUSH1 0x20 PUSH2 0x4B63 DUP4 CODECOPY DUP2 MLOAD SWAP2 MSTORE PUSH2 0x1051 DUP2 PUSH2 0x2F07 JUMP JUMPDEST DUP2 MLOAD PUSH2 0xD48 SWAP1 PUSH1 0xFE SWAP1 PUSH1 0x20 DUP6 ADD SWAP1 PUSH2 0x4018 JUMP JUMPDEST PUSH1 0x0 PUSH2 0x101 DUP4 DUP2 SLOAD DUP2 LT PUSH2 0x107A JUMPI PUSH2 0x107A PUSH2 0x49D5 JUMP JUMPDEST SWAP1 PUSH1 0x0 MSTORE PUSH1 0x20 PUSH1 0x0 KECCAK256 ADD DUP3 DUP2 SLOAD DUP2 LT PUSH2 0x1095 JUMPI PUSH2 0x1095 PUSH2 0x49D5 JUMP JUMPDEST SWAP1 PUSH1 0x0 MSTORE PUSH1 0x20 PUSH1 0x0 KECCAK256 ADD SLOAD SWAP1 POP SWAP3 SWAP2 POP POP JUMP JUMPDEST PUSH1 0x1 PUSH1 0x1 PUSH1 0xA0 SHL SUB PUSH32 0x0 AND ADDRESS SUB PUSH2 0x1146 JUMPI PUSH1 0x40 MLOAD PUSH3 0x461BCD PUSH1 0xE5 SHL DUP2 MSTORE PUSH1 0x20 PUSH1 0x4 DUP3 ADD MSTORE PUSH1 0x2C PUSH1 0x24 DUP3 ADD MSTORE PUSH32 0x46756E6374696F6E206D7573742062652063616C6C6564207468726F75676820 PUSH1 0x44 DUP3 ADD MSTORE PUSH32 0x64656C656761746563616C6C0000000000000000000000000000000000000000 PUSH1 0x64 DUP3 ADD MSTORE PUSH1 0x84 ADD PUSH2 0xB67 JUMP JUMPDEST PUSH32 0x0 PUSH1 0x1 PUSH1 0x1 PUSH1 0xA0 SHL SUB AND PUSH2 0x11A1 PUSH32 0x360894A13BA1A3210667C828492DB98DCA3E2076CC3735A920A3CA505D382BBC SLOAD PUSH1 0x1 PUSH1 0x1 PUSH1 0xA0 SHL SUB AND SWAP1 JUMP JUMPDEST PUSH1 0x1 PUSH1 0x1 PUSH1 0xA0 SHL SUB AND EQ PUSH2 0x121D JUMPI PUSH1 0x40 MLOAD PUSH3 0x461BCD PUSH1 0xE5 SHL DUP2 MSTORE PUSH1 0x20 PUSH1 0x4 DUP3 ADD MSTORE PUSH1 0x2C PUSH1 0x24 DUP3 ADD MSTORE PUSH32 0x46756E6374696F6E206D7573742062652063616C6C6564207468726F75676820 PUSH1 0x44 DUP3 ADD MSTORE PUSH32 0x6163746976652070726F78790000000000000000000000000000000000000000 PUSH1 0x64 DUP3 ADD MSTORE PUSH1 0x84 ADD PUSH2 0xB67 JUMP JUMPDEST PUSH2 0x1226 DUP3 PUSH2 0x304E JUMP JUMPDEST PUSH2 0xE79 DUP3 DUP3 PUSH1 0x1 PUSH2 0x3078 JUMP JUMPDEST PUSH1 0x0 ADDRESS PUSH1 0x1 PUSH1 0x1 PUSH1 0xA0 SHL SUB PUSH32 0x0 AND EQ PUSH2 0x12D2 JUMPI PUSH1 0x40 MLOAD PUSH3 0x461BCD PUSH1 0xE5 SHL DUP2 MSTORE PUSH1 0x20 PUSH1 0x4 DUP3 ADD MSTORE PUSH1 0x38 PUSH1 0x24 DUP3 ADD MSTORE PUSH32 0x555550535570677261646561626C653A206D757374206E6F742062652063616C PUSH1 0x44 DUP3 ADD MSTORE PUSH32 0x6C6564207468726F7567682064656C656761746563616C6C0000000000000000 PUSH1 0x64 DUP3 ADD MSTORE PUSH1 0x84 ADD PUSH2 0xB67 JUMP JUMPDEST POP PUSH32 0x360894A13BA1A3210667C828492DB98DCA3E2076CC3735A920A3CA505D382BBC SWAP1 JUMP JUMPDEST PUSH1 0x0 DUP1 MLOAD PUSH1 0x20 PUSH2 0x4B63 DUP4 CODECOPY DUP2 MLOAD SWAP2 MSTORE PUSH2 0x130F DUP2 PUSH2 0x2F07 JUMP JUMPDEST POP PUSH2 0x108 SSTORE JUMP JUMPDEST PUSH1 0x0 PUSH2 0x10B DUP3 PUSH1 0x6 DUP2 LT PUSH2 0x132C JUMPI PUSH2 0x132C PUSH2 0x49D5 JUMP JUMPDEST ADD DUP4 DUP2 SLOAD DUP2 LT PUSH2 0x1095 JUMPI PUSH2 0x1095 PUSH2 0x49D5 JUMP JUMPDEST PUSH1 0x60 PUSH2 0x10A DUP1 SLOAD DUP1 PUSH1 0x20 MUL PUSH1 0x20 ADD PUSH1 0x40 MLOAD SWAP1 DUP2 ADD PUSH1 0x40 MSTORE DUP1 SWAP3 SWAP2 SWAP1 DUP2 DUP2 MSTORE PUSH1 0x20 ADD DUP3 DUP1 SLOAD DUP1 ISZERO PUSH2 0xD9C JUMPI PUSH1 0x20 MUL DUP3 ADD SWAP2 SWAP1 PUSH1 0x0 MSTORE PUSH1 0x20 PUSH1 0x0 KECCAK256 SWAP1 DUP2 SLOAD DUP2 MSTORE PUSH1 0x20 ADD SWAP1 PUSH1 0x1 ADD SWAP1 DUP1 DUP4 GT PUSH2 0xD88 JUMPI POP POP POP POP POP SWAP1 POP SWAP1 JUMP JUMPDEST PUSH1 0x60 PUSH2 0x105 DUP1 SLOAD DUP1 PUSH1 0x20 MUL PUSH1 0x20 ADD PUSH1 0x40 MLOAD SWAP1 DUP2 ADD PUSH1 0x40 MSTORE DUP1 SWAP3 SWAP2 SWAP1 DUP2 DUP2 MSTORE PUSH1 0x20 ADD DUP3 DUP1 SLOAD DUP1 ISZERO PUSH2 0xD9C JUMPI PUSH1 0x20 MUL DUP3 ADD SWAP2 SWAP1 PUSH1 0x0 MSTORE PUSH1 0x20 PUSH1 0x0 KECCAK256 SWAP1 DUP2 SLOAD DUP2 MSTORE PUSH1 0x20 ADD SWAP1 PUSH1 0x1 ADD SWAP1 DUP1 DUP4 GT PUSH2 0xD88 JUMPI POP POP POP POP POP SWAP1 POP SWAP1 JUMP JUMPDEST PUSH1 0x0 SLOAD PUSH2 0x100 SWAP1 DIV PUSH1 0xFF AND ISZERO DUP1 DUP1 ISZERO PUSH2 0x140C JUMPI POP PUSH1 0x0 SLOAD PUSH1 0x1 PUSH1 0xFF SWAP1 SWAP2 AND LT JUMPDEST DUP1 PUSH2 0x1426 JUMPI POP ADDRESS EXTCODESIZE ISZERO DUP1 ISZERO PUSH2 0x1426 JUMPI POP PUSH1 0x0 SLOAD PUSH1 0xFF AND PUSH1 0x1 EQ JUMPDEST PUSH2 0x1498 JUMPI PUSH1 0x40 MLOAD PUSH3 0x461BCD PUSH1 0xE5 SHL DUP2 MSTORE PUSH1 0x20 PUSH1 0x4 DUP3 ADD MSTORE PUSH1 0x2E PUSH1 0x24 DUP3 ADD MSTORE PUSH32 0x496E697469616C697A61626C653A20636F6E747261637420697320616C726561 PUSH1 0x44 DUP3 ADD MSTORE PUSH32 0x647920696E697469616C697A6564000000000000000000000000000000000000 PUSH1 0x64 DUP3 ADD MSTORE PUSH1 0x84 ADD PUSH2 0xB67 JUMP JUMPDEST PUSH1 0x0 DUP1 SLOAD PUSH1 0xFF NOT AND PUSH1 0x1 OR SWAP1 SSTORE DUP1 ISZERO PUSH2 0x14BB JUMPI PUSH1 0x0 DUP1 SLOAD PUSH2 0xFF00 NOT AND PUSH2 0x100 OR SWAP1 SSTORE JUMPDEST PUSH2 0x14C3 PUSH2 0x3218 JUMP JUMPDEST PUSH2 0x14CB PUSH2 0x3218 JUMP JUMPDEST PUSH2 0x14D6 PUSH1 0x0 CALLER PUSH2 0x3297 JUMP JUMPDEST PUSH2 0x1500 PUSH32 0x189AB7A9244DF0848122154315AF71FE140F3DB0FE014031783B0946B8C9D2E3 CALLER PUSH2 0x3297 JUMP JUMPDEST PUSH2 0x1518 PUSH1 0x0 DUP1 MLOAD PUSH1 0x20 PUSH2 0x4B63 DUP4 CODECOPY DUP2 MLOAD SWAP2 MSTORE CALLER PUSH2 0x3297 JUMP JUMPDEST PUSH1 0x40 MLOAD DUP1 PUSH1 0xC0 ADD PUSH1 0x40 MSTORE DUP1 PUSH1 0x40 MLOAD DUP1 PUSH1 0x40 ADD PUSH1 0x40 MSTORE DUP1 PUSH1 0x1 DUP2 MSTORE PUSH1 0x20 ADD PUSH1 0x3 DUP2 MSTORE POP DUP2 MSTORE PUSH1 0x20 ADD PUSH1 0x40 MLOAD DUP1 PUSH1 0x40 ADD PUSH1 0x40 MSTORE DUP1 PUSH1 0x1 DUP2 MSTORE PUSH1 0x20 ADD PUSH1 0x3 DUP2 MSTORE POP DUP2 MSTORE PUSH1 0x20 ADD PUSH1 0x1 DUP2 MSTORE PUSH1 0x20 ADD PUSH1 0x40 MLOAD DUP1 PUSH1 0x40 ADD PUSH1 0x40 MSTORE DUP1 PUSH1 0x1 DUP2 MSTORE PUSH1 0x20 ADD PUSH1 0x3 DUP2 MSTORE POP DUP2 MSTORE PUSH1 0x20 ADD PUSH1 0x1 DUP2 MSTORE PUSH1 0x20 ADD PUSH1 0x1 DUP2 MSTORE POP PUSH1 0xFB PUSH1 0x0 DUP1 DUP2 MSTORE PUSH1 0x20 ADD SWAP1 DUP2 MSTORE PUSH1 0x20 ADD PUSH1 0x0 KECCAK256 PUSH1 0x0 DUP3 ADD MLOAD DUP2 PUSH1 0x0 ADD PUSH1 0x0 DUP3 ADD MLOAD DUP2 PUSH1 0x0 ADD SSTORE PUSH1 0x20 DUP3 ADD MLOAD DUP2 PUSH1 0x1 ADD SSTORE POP POP PUSH1 0x20 DUP3 ADD MLOAD DUP2 PUSH1 0x2 ADD PUSH1 0x0 DUP3 ADD MLOAD DUP2 PUSH1 0x0 ADD SSTORE PUSH1 0x20 DUP3 ADD MLOAD DUP2 PUSH1 0x1 ADD SSTORE POP POP PUSH1 0x40 DUP3 ADD MLOAD DUP2 PUSH1 0x4 ADD SSTORE PUSH1 0x60 DUP3 ADD MLOAD DUP2 PUSH1 0x5 ADD PUSH1 0x0 DUP3 ADD MLOAD DUP2 PUSH1 0x0 ADD SSTORE PUSH1 0x20 DUP3 ADD MLOAD DUP2 PUSH1 0x1 ADD SSTORE POP POP PUSH1 0x80 DUP3 ADD MLOAD DUP2 PUSH1 0x7 ADD SSTORE PUSH1 0xA0 DUP3 ADD MLOAD DUP2 PUSH1 0x8 ADD SSTORE SWAP1 POP POP PUSH1 0x40 MLOAD DUP1 PUSH1 0xC0 ADD PUSH1 0x40 MSTORE DUP1 PUSH1 0x40 MLOAD DUP1 PUSH1 0x40 ADD PUSH1 0x40 MSTORE DUP1 PUSH1 0x3 DUP2 MSTORE PUSH1 0x20 ADD PUSH1 0x6 DUP2 MSTORE POP DUP2 MSTORE PUSH1 0x20 ADD PUSH1 0x40 MLOAD DUP1 PUSH1 0x40 ADD PUSH1 0x40 MSTORE DUP1 PUSH1 0x3 DUP2 MSTORE PUSH1 0x20 ADD PUSH1 0x6 DUP2 MSTORE POP DUP2 MSTORE PUSH1 0x20 ADD PUSH1 0x2 DUP2 MSTORE PUSH1 0x20 ADD PUSH1 0x40 MLOAD DUP1 PUSH1 0x40 ADD PUSH1 0x40 MSTORE DUP1 PUSH1 0x3 DUP2 MSTORE PUSH1 0x20 ADD PUSH1 0x6 DUP2 MSTORE POP DUP2 MSTORE PUSH1 0x20 ADD PUSH1 0x2 DUP2 MSTORE PUSH1 0x20 ADD PUSH1 0x2 DUP2 MSTORE POP PUSH1 0xFB PUSH1 0x0 PUSH1 0x1 DUP2 MSTORE PUSH1 0x20 ADD SWAP1 DUP2 MSTORE PUSH1 0x20 ADD PUSH1 0x0 KECCAK256 PUSH1 0x0 DUP3 ADD MLOAD DUP2 PUSH1 0x0 ADD PUSH1 0x0 DUP3 ADD MLOAD DUP2 PUSH1 0x0 ADD SSTORE PUSH1 0x20 DUP3 ADD MLOAD DUP2 PUSH1 0x1 ADD SSTORE POP POP PUSH1 0x20 DUP3 ADD MLOAD DUP2 PUSH1 0x2 ADD PUSH1 0x0 DUP3 ADD MLOAD DUP2 PUSH1 0x0 ADD SSTORE PUSH1 0x20 DUP3 ADD MLOAD DUP2 PUSH1 0x1 ADD SSTORE POP POP PUSH1 0x40 DUP3 ADD MLOAD DUP2 PUSH1 0x4 ADD SSTORE PUSH1 0x60 DUP3 ADD MLOAD DUP2 PUSH1 0x5 ADD PUSH1 0x0 DUP3 ADD MLOAD DUP2 PUSH1 0x0 ADD SSTORE PUSH1 0x20 DUP3 ADD MLOAD DUP2 PUSH1 0x1 ADD SSTORE POP POP PUSH1 0x80 DUP3 ADD MLOAD DUP2 PUSH1 0x7 ADD SSTORE PUSH1 0xA0 DUP3 ADD MLOAD DUP2 PUSH1 0x8 ADD SSTORE SWAP1 POP POP PUSH1 0x40 MLOAD DUP1 PUSH1 0xC0 ADD PUSH1 0x40 MSTORE DUP1 PUSH1 0x40 MLOAD DUP1 PUSH1 0x40 ADD PUSH1 0x40 MSTORE DUP1 PUSH1 0x6 DUP2 MSTORE PUSH1 0x20 ADD PUSH1 0x9 DUP2 MSTORE POP DUP2 MSTORE PUSH1 0x20 ADD PUSH1 0x40 MLOAD DUP1 PUSH1 0x40 ADD PUSH1 0x40 MSTORE DUP1 PUSH1 0x6 DUP2 MSTORE PUSH1 0x20 ADD PUSH1 0x9 DUP2 MSTORE POP DUP2 MSTORE PUSH1 0x20 ADD PUSH1 0x3 DUP2 MSTORE PUSH1 0x20 ADD PUSH1 0x40 MLOAD DUP1 PUSH1 0x40 ADD PUSH1 0x40 MSTORE DUP1 PUSH1 0x6 DUP2 MSTORE PUSH1 0x20 ADD PUSH1 0x9 DUP2 MSTORE POP DUP2 MSTORE PUSH1 0x20 ADD PUSH1 0x3 DUP2 MSTORE PUSH1 0x20 ADD PUSH1 0x3 DUP2 MSTORE POP PUSH1 0xFB PUSH1 0x0 PUSH1 0x2 DUP2 MSTORE PUSH1 0x20 ADD SWAP1 DUP2 MSTORE PUSH1 0x20 ADD PUSH1 0x0 KECCAK256 PUSH1 0x0 DUP3 ADD MLOAD DUP2 PUSH1 0x0 ADD PUSH1 0x0 DUP3 ADD MLOAD DUP2 PUSH1 0x0 ADD SSTORE PUSH1 0x20 DUP3 ADD MLOAD DUP2 PUSH1 0x1 ADD SSTORE POP POP PUSH1 0x20 DUP3 ADD MLOAD DUP2 PUSH1 0x2 ADD PUSH1 0x0 DUP3 ADD MLOAD DUP2 PUSH1 0x0 ADD SSTORE PUSH1 0x20 DUP3 ADD MLOAD DUP2 PUSH1 0x1 ADD SSTORE POP POP PUSH1 0x40 DUP3 ADD MLOAD DUP2 PUSH1 0x4 ADD SSTORE PUSH1 0x60 DUP3 ADD MLOAD DUP2 PUSH1 0x5 ADD PUSH1 0x0 DUP3 ADD MLOAD DUP2 PUSH1 0x0 ADD SSTORE PUSH1 0x20 DUP3 ADD MLOAD DUP2 PUSH1 0x1 ADD SSTORE POP POP PUSH1 0x80 DUP3 ADD MLOAD DUP2 PUSH1 0x7 ADD SSTORE PUSH1 0xA0 DUP3 ADD MLOAD DUP2 PUSH1 0x8 ADD SSTORE SWAP1 POP POP PUSH1 0x40 MLOAD DUP1 PUSH1 0xC0 ADD PUSH1 0x40 MSTORE DUP1 PUSH1 0x40 MLOAD DUP1 PUSH1 0x40 ADD PUSH1 0x40 MSTORE DUP1 PUSH1 0x9 DUP2 MSTORE PUSH1 0x20 ADD PUSH1 0xC DUP2 MSTORE POP DUP2 MSTORE PUSH1 0x20 ADD PUSH1 0x40 MLOAD DUP1 PUSH1 0x40 ADD PUSH1 0x40 MSTORE DUP1 PUSH1 0x9 DUP2 MSTORE PUSH1 0x20 ADD PUSH1 0xC DUP2 MSTORE POP DUP2 MSTORE PUSH1 0x20 ADD PUSH1 0x4 DUP2 MSTORE PUSH1 0x20 ADD PUSH1 0x40 MLOAD DUP1 PUSH1 0x40 ADD PUSH1 0x40 MSTORE DUP1 PUSH1 0x9 DUP2 MSTORE PUSH1 0x20 ADD PUSH1 0xC DUP2 MSTORE POP DUP2 MSTORE PUSH1 0x20 ADD PUSH1 0x4 DUP2 MSTORE PUSH1 0x20 ADD PUSH1 0x4 DUP2 MSTORE POP PUSH1 0xFB PUSH1 0x0 PUSH1 0x3 DUP2 MSTORE PUSH1 0x20 ADD SWAP1 DUP2 MSTORE PUSH1 0x20 ADD PUSH1 0x0 KECCAK256 PUSH1 0x0 DUP3 ADD MLOAD DUP2 PUSH1 0x0 ADD PUSH1 0x0 DUP3 ADD MLOAD DUP2 PUSH1 0x0 ADD SSTORE PUSH1 0x20 DUP3 ADD MLOAD DUP2 PUSH1 0x1 ADD SSTORE POP POP PUSH1 0x20 DUP3 ADD MLOAD DUP2 PUSH1 0x2 ADD PUSH1 0x0 DUP3 ADD MLOAD DUP2 PUSH1 0x0 ADD SSTORE PUSH1 0x20 DUP3 ADD MLOAD DUP2 PUSH1 0x1 ADD SSTORE POP POP PUSH1 0x40 DUP3 ADD MLOAD DUP2 PUSH1 0x4 ADD SSTORE PUSH1 0x60 DUP3 ADD MLOAD DUP2 PUSH1 0x5 ADD PUSH1 0x0 DUP3 ADD MLOAD DUP2 PUSH1 0x0 ADD SSTORE PUSH1 0x20 DUP3 ADD MLOAD DUP2 PUSH1 0x1 ADD SSTORE POP POP PUSH1 0x80 DUP3 ADD MLOAD DUP2 PUSH1 0x7 ADD SSTORE PUSH1 0xA0 DUP3 ADD MLOAD DUP2 PUSH1 0x8 ADD SSTORE SWAP1 POP POP PUSH1 0x40 MLOAD DUP1 PUSH1 0xC0 ADD PUSH1 0x40 MSTORE DUP1 PUSH1 0x40 MLOAD DUP1 PUSH1 0x40 ADD PUSH1 0x40 MSTORE DUP1 PUSH1 0xC DUP2 MSTORE PUSH1 0x20 ADD PUSH1 0xF DUP2 MSTORE POP DUP2 MSTORE PUSH1 0x20 ADD PUSH1 0x40 MLOAD DUP1 PUSH1 0x40 ADD PUSH1 0x40 MSTORE DUP1 PUSH1 0xC DUP2 MSTORE PUSH1 0x20 ADD PUSH1 0xF DUP2 MSTORE POP DUP2 MSTORE PUSH1 0x20 ADD PUSH1 0x5 DUP2 MSTORE PUSH1 0x20 ADD PUSH1 0x40 MLOAD DUP1 PUSH1 0x40 ADD PUSH1 0x40 MSTORE DUP1 PUSH1 0xC DUP2 MSTORE PUSH1 0x20 ADD PUSH1 0xF DUP2 MSTORE POP DUP2 MSTORE PUSH1 0x20 ADD PUSH1 0x5 DUP2 MSTORE PUSH1 0x20 ADD PUSH1 0x5 DUP2 MSTORE POP PUSH1 0xFB PUSH1 0x0 PUSH1 0x4 DUP2 MSTORE PUSH1 0x20 ADD SWAP1 DUP2 MSTORE PUSH1 0x20 ADD PUSH1 0x0 KECCAK256 PUSH1 0x0 DUP3 ADD MLOAD DUP2 PUSH1 0x0 ADD PUSH1 0x0 DUP3 ADD MLOAD DUP2 PUSH1 0x0 ADD SSTORE PUSH1 0x20 DUP3 ADD MLOAD DUP2 PUSH1 0x1 ADD SSTORE POP POP PUSH1 0x20 DUP3 ADD MLOAD DUP2 PUSH1 0x2 ADD PUSH1 0x0 DUP3 ADD MLOAD DUP2 PUSH1 0x0 ADD SSTORE PUSH1 0x20 DUP3 ADD MLOAD DUP2 PUSH1 0x1 ADD SSTORE POP POP PUSH1 0x40 DUP3 ADD MLOAD DUP2 PUSH1 0x4 ADD SSTORE PUSH1 0x60 DUP3 ADD MLOAD DUP2 PUSH1 0x5 ADD PUSH1 0x0 DUP3 ADD MLOAD DUP2 PUSH1 0x0 ADD SSTORE PUSH1 0x20 DUP3 ADD MLOAD DUP2 PUSH1 0x1 ADD SSTORE POP POP PUSH1 0x80 DUP3 ADD MLOAD DUP2 PUSH1 0x7 ADD SSTORE PUSH1 0xA0 DUP3 ADD MLOAD DUP2 PUSH1 0x8 ADD SSTORE SWAP1 POP POP PUSH1 0x40 MLOAD DUP1 PUSH1 0xC0 ADD PUSH1 0x40 MSTORE DUP1 PUSH1 0x40 MLOAD DUP1 PUSH1 0x40 ADD PUSH1 0x40 MSTORE DUP1 PUSH1 0xF DUP2 MSTORE PUSH1 0x20 ADD PUSH1 0x12 DUP2 MSTORE POP DUP2 MSTORE PUSH1 0x20 ADD PUSH1 0x40 MLOAD DUP1 PUSH1 0x40 ADD PUSH1 0x40 MSTORE DUP1 PUSH1 0xF DUP2 MSTORE PUSH1 0x20 ADD PUSH1 0x12 DUP2 MSTORE POP DUP2 MSTORE PUSH1 0x20 ADD PUSH1 0x6 DUP2 MSTORE PUSH1 0x20 ADD PUSH1 0x40 MLOAD DUP1 PUSH1 0x40 ADD PUSH1 0x40 MSTORE DUP1 PUSH1 0xF DUP2 MSTORE PUSH1 0x20 ADD PUSH1 0x12 DUP2 MSTORE POP DUP2 MSTORE PUSH1 0x20 ADD PUSH1 0x6 DUP2 MSTORE PUSH1 0x20 ADD PUSH1 0x6 DUP2 MSTORE POP PUSH1 0xFB PUSH1 0x0 PUSH1 0x5 DUP2 MSTORE PUSH1 0x20 ADD SWAP1 DUP2 MSTORE PUSH1 0x20 ADD PUSH1 0x0 KECCAK256 PUSH1 0x0 DUP3 ADD MLOAD DUP2 PUSH1 0x0 ADD PUSH1 0x0 DUP3 ADD MLOAD DUP2 PUSH1 0x0 ADD SSTORE PUSH1 0x20 DUP3 ADD MLOAD DUP2 PUSH1 0x1 ADD SSTORE POP POP PUSH1 0x20 DUP3 ADD MLOAD DUP2 PUSH1 0x2 ADD PUSH1 0x0 DUP3 ADD MLOAD DUP2 PUSH1 0x0 ADD SSTORE PUSH1 0x20 DUP3 ADD MLOAD DUP2 PUSH1 0x1 ADD SSTORE POP POP PUSH1 0x40 DUP3 ADD MLOAD DUP2 PUSH1 0x4 ADD SSTORE PUSH1 0x60 DUP3 ADD MLOAD DUP2 PUSH1 0x5 ADD PUSH1 0x0 DUP3 ADD MLOAD DUP2 PUSH1 0x0 ADD SSTORE PUSH1 0x20 DUP3 ADD MLOAD DUP2 PUSH1 0x1 ADD SSTORE POP POP PUSH1 0x80 DUP3 ADD MLOAD DUP2 PUSH1 0x7 ADD SSTORE PUSH1 0xA0 DUP3 ADD MLOAD DUP2 PUSH1 0x8 ADD SSTORE SWAP1 POP POP PUSH1 0x40 MLOAD DUP1 PUSH1 0xE0 ADD PUSH1 0x40 MSTORE DUP1 PUSH1 0x1 PUSH1 0xFF AND DUP2 MSTORE PUSH1 0x20 ADD PUSH1 0x2 PUSH1 0xFF AND DUP2 MSTORE PUSH1 0x20 ADD PUSH1 0x3 PUSH1 0xFF AND DUP2 MSTORE PUSH1 0x20 ADD PUSH1 0x4 PUSH1 0xFF AND DUP2 MSTORE PUSH1 0x20 ADD PUSH1 0x5 PUSH1 0xFF AND DUP2 MSTORE PUSH1 0x20 ADD PUSH1 0x6 PUSH1 0xFF AND DUP2 MSTORE PUSH1 0x20 ADD PUSH1 0x7 PUSH1 0xFF AND DUP2 MSTORE POP PUSH1 0xFC SWAP1 PUSH1 0x7 PUSH2 0x1B8E SWAP3 SWAP2 SWAP1 PUSH2 0x4063 JUMP JUMPDEST POP PUSH1 0x40 DUP1 MLOAD PUSH1 0xE0 DUP2 ADD DUP3 MSTORE PUSH1 0x1 DUP1 DUP3 MSTORE PUSH1 0x2 PUSH1 0x20 DUP4 ADD DUP2 SWAP1 MSTORE SWAP3 DUP3 ADD DUP2 SWAP1 MSTORE PUSH1 0x60 DUP3 ADD DUP2 SWAP1 MSTORE PUSH1 0x80 DUP3 ADD MSTORE PUSH1 0xA0 DUP2 ADD DUP3 SWAP1 MSTORE PUSH1 0xC0 DUP2 ADD SWAP2 SWAP1 SWAP2 MSTORE PUSH2 0x1BD7 SWAP1 PUSH2 0x102 SWAP1 PUSH1 0x7 PUSH2 0x4063 JUMP JUMPDEST POP PUSH2 0x1F4 PUSH1 0xFD SSTORE PUSH1 0x40 DUP1 MLOAD PUSH1 0xC0 DUP2 ADD DUP3 MSTORE PUSH2 0x205F DUP2 MSTORE PUSH2 0x40C PUSH1 0x20 DUP3 ADD MSTORE PUSH2 0x206 SWAP2 DUP2 ADD SWAP2 SWAP1 SWAP2 MSTORE PUSH1 0x68 PUSH1 0x60 DUP3 ADD MSTORE PUSH1 0x34 PUSH1 0x80 DUP3 ADD MSTORE PUSH1 0x4 PUSH1 0xA0 DUP3 ADD MSTORE PUSH2 0x1C22 SWAP1 PUSH1 0xFE SWAP1 PUSH1 0x6 PUSH2 0x40A3 JUMP JUMPDEST POP PUSH8 0x8AC7230489E80000 PUSH1 0xFF SSTORE PUSH8 0x4563918244F40000 PUSH2 0x107 SSTORE PUSH1 0x5 PUSH2 0x100 SSTORE PUSH1 0x40 DUP1 MLOAD PUSH1 0x80 DUP2 ADD DUP3 MSTORE PUSH8 0xDE0B6B3A7640000 DUP2 MSTORE PUSH8 0x1BC16D674EC80000 PUSH1 0x20 DUP3 ADD MSTORE PUSH8 0x3782DACE9D900000 SWAP2 DUP2 ADD SWAP2 SWAP1 SWAP2 MSTORE PUSH8 0x6124FEE993BC0000 PUSH1 0x60 DUP3 ADD MSTORE PUSH2 0x101 DUP1 SLOAD PUSH1 0x1 DUP2 ADD DUP3 SSTORE PUSH1 0x0 SWAP2 SWAP1 SWAP2 MSTORE PUSH2 0x1CC4 SWAP2 PUSH32 0x109EA3CEBB188B9C1B9FC5BB3920BE60DFDC8699098DFF92F3D80DAACA747689 SWAP1 SWAP2 ADD SWAP1 PUSH1 0x4 PUSH2 0x40E4 JUMP JUMPDEST POP PUSH1 0x40 DUP1 MLOAD PUSH1 0x80 DUP2 ADD DUP3 MSTORE PUSH8 0x1BC16D674EC80000 DUP2 MSTORE PUSH8 0x3782DACE9D900000 PUSH1 0x20 DUP3 ADD MSTORE PUSH8 0x4563918244F40000 SWAP2 DUP2 ADD SWAP2 SWAP1 SWAP2 MSTORE PUSH8 0x7CE66C50E2840000 PUSH1 0x60 DUP3 ADD MSTORE PUSH2 0x101 DUP1 SLOAD PUSH1 0x1 DUP2 ADD DUP3 SSTORE PUSH1 0x0 SWAP2 SWAP1 SWAP2 MSTORE PUSH2 0x1D47 SWAP2 PUSH32 0x109EA3CEBB188B9C1B9FC5BB3920BE60DFDC8699098DFF92F3D80DAACA747689 SWAP1 SWAP2 ADD SWAP1 PUSH1 0x4 PUSH2 0x40E4 JUMP JUMPDEST POP PUSH1 0x40 DUP1 MLOAD PUSH1 0x80 DUP2 ADD DUP3 MSTORE PUSH8 0x1BC16D674EC80000 DUP2 MSTORE PUSH8 0x3782DACE9D900000 PUSH1 0x20 DUP3 ADD MSTORE PUSH8 0x4563918244F40000 SWAP2 DUP2 ADD SWAP2 SWAP1 SWAP2 MSTORE PUSH8 0x8AC7230489E80000 PUSH1 0x60 DUP3 ADD MSTORE PUSH2 0x101 DUP1 SLOAD PUSH1 0x1 DUP2 ADD DUP3 SSTORE PUSH1 0x0 SWAP2 SWAP1 SWAP2 MSTORE PUSH2 0x1DCA SWAP2 PUSH32 0x109EA3CEBB188B9C1B9FC5BB3920BE60DFDC8699098DFF92F3D80DAACA747689 SWAP1 SWAP2 ADD SWAP1 PUSH1 0x4 PUSH2 0x40E4 JUMP JUMPDEST POP PUSH1 0x40 DUP1 MLOAD PUSH1 0x80 DUP2 ADD DUP3 MSTORE PUSH8 0x29A2241AF62C0000 DUP2 MSTORE PUSH8 0x6124FEE993BC0000 PUSH1 0x20 DUP3 ADD MSTORE PUSH8 0x98A7D9B8314C0000 SWAP2 DUP2 ADD SWAP2 SWAP1 SWAP2 MSTORE PUSH9 0x1314FB37062980000 PUSH1 0x60 DUP3 ADD MSTORE PUSH2 0x101 DUP1 SLOAD PUSH1 0x1 DUP2 ADD DUP3 SSTORE PUSH1 0x0 SWAP2 SWAP1 SWAP2 MSTORE PUSH2 0x1E4E SWAP2 PUSH32 0x109EA3CEBB188B9C1B9FC5BB3920BE60DFDC8699098DFF92F3D80DAACA747689 SWAP1 SWAP2 ADD SWAP1 PUSH1 0x4 PUSH2 0x412B JUMP JUMPDEST POP PUSH1 0x40 DUP1 MLOAD PUSH1 0x80 DUP2 ADD DUP3 MSTORE PUSH8 0x6124FEE993BC0000 DUP2 MSTORE PUSH8 0xF9CCD8A1C5080000 PUSH1 0x20 DUP3 ADD MSTORE PUSH9 0x22B1C8C1227A00000 SWAP2 DUP2 ADD SWAP2 SWAP1 SWAP2 MSTORE PUSH9 0x7EA28327577080000 PUSH1 0x60 DUP3 ADD MSTORE PUSH2 0x101 DUP1 SLOAD PUSH1 0x1 DUP2 ADD DUP3 SSTORE PUSH1 0x0 SWAP2 SWAP1 SWAP2 MSTORE PUSH2 0x1ED3 SWAP2 PUSH32 0x109EA3CEBB188B9C1B9FC5BB3920BE60DFDC8699098DFF92F3D80DAACA747689 SWAP1 SWAP2 ADD SWAP1 PUSH1 0x4 PUSH2 0x412B JUMP JUMPDEST POP PUSH1 0x40 DUP1 MLOAD PUSH1 0x80 DUP2 ADD DUP3 MSTORE PUSH8 0x7CE66C50E2840000 DUP2 MSTORE PUSH9 0x15AF1D78B58C40000 PUSH1 0x20 DUP3 ADD MSTORE PUSH9 0x30927F74C9DE00000 SWAP2 DUP2 ADD SWAP2 SWAP1 SWAP2 MSTORE PUSH9 0xAC9AE05A71EBC0000 PUSH1 0x60 DUP3 ADD MSTORE PUSH2 0x101 DUP1 SLOAD PUSH1 0x1 DUP2 ADD DUP3 SSTORE PUSH1 0x0 SWAP2 SWAP1 SWAP2 MSTORE PUSH2 0x1F59 SWAP2 PUSH32 0x109EA3CEBB188B9C1B9FC5BB3920BE60DFDC8699098DFF92F3D80DAACA747689 SWAP1 SWAP2 ADD SWAP1 PUSH1 0x4 PUSH2 0x412B JUMP JUMPDEST POP PUSH2 0x103 PUSH1 0x40 MLOAD DUP1 PUSH1 0x60 ADD PUSH1 0x40 MSTORE DUP1 PUSH8 0x1BC16D674EC80000 DUP2 MSTORE PUSH1 0x20 ADD PUSH8 0x1BC16D674EC80000 DUP2 MSTORE PUSH1 0x20 ADD PUSH1 0x0 DUP2 MSTORE POP SWAP1 DUP1 PUSH1 0x1 DUP2 SLOAD ADD DUP1 DUP3 SSTORE DUP1 SWAP2 POP POP PUSH1 0x1 SWAP1 SUB SWAP1 PUSH1 0x0 MSTORE PUSH1 0x20 PUSH1 0x0 KECCAK256 SWAP1 PUSH1 0x3 MUL ADD PUSH1 0x0 SWAP1 SWAP2 SWAP1 SWAP2 SWAP1 SWAP2 POP PUSH1 0x0 DUP3 ADD MLOAD DUP2 PUSH1 0x0 ADD SSTORE PUSH1 0x20 DUP3 ADD MLOAD DUP2 PUSH1 0x1 ADD SSTORE PUSH1 0x40 DUP3 ADD MLOAD DUP2 PUSH1 0x2 ADD SSTORE POP POP PUSH2 0x103 PUSH1 0x40 MLOAD DUP1 PUSH1 0x60 ADD PUSH1 0x40 MSTORE DUP1 PUSH8 0x4563918244F40000 DUP2 MSTORE PUSH1 0x20 ADD PUSH8 0x8AC7230489E80000 DUP2 MSTORE PUSH1 0x20 ADD PUSH8 0xDE0B6B3A7640000 DUP2 MSTORE POP SWAP1 DUP1 PUSH1 0x1 DUP2 SLOAD ADD DUP1 DUP3 SSTORE DUP1 SWAP2 POP POP PUSH1 0x1 SWAP1 SUB SWAP1 PUSH1 0x0 MSTORE PUSH1 0x20 PUSH1 0x0 KECCAK256 SWAP1 PUSH1 0x3 MUL ADD PUSH1 0x0 SWAP1 SWAP2 SWAP1 SWAP2 SWAP1 SWAP2 POP PUSH1 0x0 DUP3 ADD MLOAD DUP2 PUSH1 0x0 ADD SSTORE PUSH1 0x20 DUP3 ADD MLOAD DUP2 PUSH1 0x1 ADD SSTORE PUSH1 0x40 DUP3 ADD MLOAD DUP2 PUSH1 0x2 ADD SSTORE POP POP PUSH2 0x103 PUSH1 0x40 MLOAD DUP1 PUSH1 0x60 ADD PUSH1 0x40 MSTORE DUP1 PUSH8 0x8AC7230489E80000 DUP2 MSTORE PUSH1 0x20 ADD PUSH9 0x1158E460913D00000 DUP2 MSTORE PUSH1 0x20 ADD PUSH8 0x1BC16D674EC80000 DUP2 MSTORE POP SWAP1 DUP1 PUSH1 0x1 DUP2 SLOAD ADD DUP1 DUP3 SSTORE DUP1 SWAP2 POP POP PUSH1 0x1 SWAP1 SUB SWAP1 PUSH1 0x0 MSTORE PUSH1 0x20 PUSH1 0x0 KECCAK256 SWAP1 PUSH1 0x3 MUL ADD PUSH1 0x0 SWAP1 SWAP2 SWAP1 SWAP2 SWAP1 SWAP2 POP PUSH1 0x0 DUP3 ADD MLOAD DUP2 PUSH1 0x0 ADD SSTORE PUSH1 0x20 DUP3 ADD MLOAD DUP2 PUSH1 0x1 ADD SSTORE PUSH1 0x40 DUP3 ADD MLOAD DUP2 PUSH1 0x2 ADD SSTORE POP POP PUSH2 0x103 PUSH1 0x40 MLOAD DUP1 PUSH1 0x60 ADD PUSH1 0x40 MSTORE DUP1 PUSH9 0x1158E460913D00000 DUP2 MSTORE PUSH1 0x20 ADD PUSH9 0x22B1C8C1227A00000 DUP2 MSTORE PUSH1 0x20 ADD PUSH8 0x3782DACE9D900000 DUP2 MSTORE POP SWAP1 DUP1 PUSH1 0x1 DUP2 SLOAD ADD DUP1 DUP3 SSTORE DUP1 SWAP2 POP POP PUSH1 0x1 SWAP1 SUB SWAP1 PUSH1 0x0 MSTORE PUSH1 0x20 PUSH1 0x0 KECCAK256 SWAP1 PUSH1 0x3 MUL ADD PUSH1 0x0 SWAP1 SWAP2 SWAP1 SWAP2 SWAP1 SWAP2 POP PUSH1 0x0 DUP3 ADD MLOAD DUP2 PUSH1 0x0 ADD SSTORE PUSH1 0x20 DUP3 ADD MLOAD DUP2 PUSH1 0x1 ADD SSTORE PUSH1 0x40 DUP3 ADD MLOAD DUP2 PUSH1 0x2 ADD SSTORE POP POP PUSH2 0x103 PUSH1 0x40 MLOAD DUP1 PUSH1 0x60 ADD PUSH1 0x40 MSTORE DUP1 PUSH9 0x1E5B8FA8FE2AC0000 DUP2 MSTORE PUSH1 0x20 ADD PUSH9 0x340AAD21B3B700000 DUP2 MSTORE PUSH1 0x20 ADD PUSH8 0x4563918244F40000 DUP2 MSTORE POP SWAP1 DUP1 PUSH1 0x1 DUP2 SLOAD ADD DUP1 DUP3 SSTORE DUP1 SWAP2 POP POP PUSH1 0x1 SWAP1 SUB SWAP1 PUSH1 0x0 MSTORE PUSH1 0x20 PUSH1 0x0 KECCAK256 SWAP1 PUSH1 0x3 MUL ADD PUSH1 0x0 SWAP1 SWAP2 SWAP1 SWAP2 SWAP1 SWAP2 POP PUSH1 0x0 DUP3 ADD MLOAD DUP2 PUSH1 0x0 ADD SSTORE PUSH1 0x20 DUP3 ADD MLOAD DUP2 PUSH1 0x1 ADD SSTORE PUSH1 0x40 DUP3 ADD MLOAD DUP2 PUSH1 0x2 ADD SSTORE POP POP PUSH2 0x103 PUSH1 0x40 MLOAD DUP1 PUSH1 0x60 ADD PUSH1 0x40 MSTORE DUP1 PUSH9 0x2B5E3AF16B1880000 DUP2 MSTORE PUSH1 0x20 ADD PUSH9 0x4563918244F400000 DUP2 MSTORE PUSH1 0x20 ADD PUSH8 0x53444835EC580000 DUP2 MSTORE POP SWAP1 DUP1 PUSH1 0x1 DUP2 SLOAD ADD DUP1 DUP3 SSTORE DUP1 SWAP2 POP POP PUSH1 0x1 SWAP1 SUB SWAP1 PUSH1 0x0 MSTORE PUSH1 0x20 PUSH1 0x0 KECCAK256 SWAP1 PUSH1 0x3 MUL ADD PUSH1 0x0 SWAP1 SWAP2 SWAP1 SWAP2 SWAP1 SWAP2 POP PUSH1 0x0 DUP3 ADD MLOAD DUP2 PUSH1 0x0 ADD SSTORE PUSH1 0x20 DUP3 ADD MLOAD DUP2 PUSH1 0x1 ADD SSTORE PUSH1 0x40 DUP3 ADD MLOAD DUP2 PUSH1 0x2 ADD SSTORE POP POP PUSH1 0xA PUSH2 0x104 DUP2 SWAP1 SSTORE POP PUSH1 0x40 MLOAD DUP1 PUSH1 0xC0 ADD PUSH1 0x40 MSTORE DUP1 PUSH2 0x20E8 PUSH2 0xFFFF AND DUP2 MSTORE PUSH1 0x20 ADD PUSH2 0x40C PUSH2 0xFFFF AND DUP2 MSTORE PUSH1 0x20 ADD PUSH2 0x1A2 PUSH2 0xFFFF AND DUP2 MSTORE PUSH1 0x20 ADD PUSH1 0x33 PUSH2 0xFFFF AND DUP2 MSTORE PUSH1 0x20 ADD PUSH1 0x15 PUSH2 0xFFFF AND DUP2 MSTORE PUSH1 0x20 ADD PUSH1 0x32 PUSH2 0xFFFF AND DUP2 MSTORE POP PUSH2 0x105 SWAP1 PUSH1 0x6 PUSH2 0x22BC SWAP3 SWAP2 SWAP1 PUSH2 0x40A3 JUMP JUMPDEST POP PUSH9 0x2B5E3AF16B1880000 PUSH2 0x106 DUP2 SWAP1 SSTORE PUSH2 0x108 DUP2 SWAP1 SSTORE PUSH2 0x109 SSTORE PUSH1 0x40 DUP1 MLOAD PUSH1 0xC0 DUP2 ADD DUP3 MSTORE PUSH2 0x205F DUP2 MSTORE PUSH2 0x40C PUSH1 0x20 DUP3 ADD MSTORE PUSH2 0x206 SWAP2 DUP2 ADD SWAP2 SWAP1 SWAP2 MSTORE PUSH1 0x68 PUSH1 0x60 DUP3 ADD MSTORE PUSH1 0x34 PUSH1 0x80 DUP3 ADD MSTORE PUSH1 0x4 PUSH1 0xA0 DUP3 ADD MSTORE PUSH2 0x231C SWAP1 PUSH2 0x10A SWAP1 PUSH1 0x6 PUSH2 0x40A3 JUMP JUMPDEST POP PUSH1 0x40 DUP1 MLOAD PUSH1 0xC0 DUP2 ADD DUP3 MSTORE PUSH1 0x0 DUP1 DUP3 MSTORE PUSH1 0x20 DUP3 ADD DUP2 SWAP1 MSTORE SWAP2 DUP2 ADD DUP3 SWAP1 MSTORE PUSH1 0x60 DUP2 ADD DUP3 SWAP1 MSTORE PUSH1 0x80 DUP2 ADD DUP3 SWAP1 MSTORE PUSH1 0xA0 DUP2 ADD SWAP2 SWAP1 SWAP2 MSTORE PUSH2 0x235E SWAP1 PUSH2 0x10B SWAP1 PUSH1 0x6 PUSH2 0x4063 JUMP JUMPDEST POP PUSH1 0x40 DUP1 MLOAD PUSH1 0xC0 DUP2 ADD DUP3 MSTORE PUSH1 0x1 DUP2 MSTORE PUSH1 0x2 PUSH1 0x20 DUP3 ADD MSTORE PUSH1 0x4 SWAP2 DUP2 ADD SWAP2 SWAP1 SWAP2 MSTORE PUSH1 0x6 PUSH1 0x60 DUP3 ADD DUP2 SWAP1 MSTORE PUSH1 0x8 PUSH1 0x80 DUP4 ADD MSTORE PUSH1 0xA PUSH1 0xA0 DUP4 ADD MSTORE PUSH2 0x23A1 SWAP2 PUSH2 0x10C SWAP2 PUSH2 0x4063 JUMP JUMPDEST POP PUSH1 0x40 DUP1 MLOAD PUSH1 0xC0 DUP2 ADD DUP3 MSTORE PUSH1 0x1 DUP2 MSTORE PUSH1 0x2 PUSH1 0x20 DUP3 ADD MSTORE PUSH1 0x4 SWAP2 DUP2 ADD SWAP2 SWAP1 SWAP2 MSTORE PUSH1 0x6 PUSH1 0x60 DUP3 ADD DUP2 SWAP1 MSTORE PUSH1 0x8 PUSH1 0x80 DUP4 ADD MSTORE PUSH1 0xA PUSH1 0xA0 DUP4 ADD MSTORE PUSH2 0x23E4 SWAP2 PUSH2 0x10D SWAP2 PUSH2 0x4063 JUMP JUMPDEST POP PUSH1 0x40 DUP1 MLOAD PUSH1 0xC0 DUP2 ADD DUP3 MSTORE PUSH1 0x1 DUP2 MSTORE PUSH1 0x2 PUSH1 0x20 DUP3 ADD MSTORE PUSH1 0x4 SWAP2 DUP2 ADD SWAP2 SWAP1 SWAP2 MSTORE PUSH1 0x6 PUSH1 0x60 DUP3 ADD DUP2 SWAP1 MSTORE PUSH1 0x8 PUSH1 0x80 DUP4 ADD MSTORE PUSH1 0xA PUSH1 0xA0 DUP4 ADD MSTORE PUSH2 0x2427 SWAP2 PUSH2 0x10E SWAP2 PUSH2 0x4063 JUMP JUMPDEST POP PUSH1 0x40 DUP1 MLOAD PUSH2 0x1A0 DUP2 ADD DUP3 MSTORE PUSH1 0x1 DUP2 MSTORE PUSH1 0x2 PUSH1 0x20 DUP3 ADD MSTORE PUSH1 0x3 SWAP2 DUP2 ADD SWAP2 SWAP1 SWAP2 MSTORE PUSH1 0x4 PUSH1 0x60 DUP3 ADD MSTORE PUSH1 0x5 PUSH1 0x80 DUP3 ADD MSTORE PUSH1 0x6 PUSH1 0xA0 DUP3 ADD MSTORE PUSH1 0x7 PUSH1 0xC0 DUP3 ADD MSTORE PUSH1 0x8 PUSH1 0xE0 DUP3 ADD MSTORE PUSH1 0x9 PUSH2 0x100 DUP3 ADD MSTORE PUSH1 0xA PUSH2 0x120 DUP3 ADD MSTORE PUSH1 0xE PUSH2 0x140 DUP3 ADD MSTORE PUSH1 0xF PUSH2 0x160 DUP3 ADD MSTORE PUSH1 0x10 PUSH2 0x180 DUP3 ADD MSTORE PUSH2 0x24A1 SWAP1 PUSH2 0x111 SWAP1 PUSH1 0xD PUSH2 0x4063 JUMP JUMPDEST POP PUSH1 0x2D PUSH2 0x112 SSTORE PUSH1 0xA PUSH2 0x113 SSTORE DUP1 ISZERO PUSH2 0x1017 JUMPI PUSH1 0x0 DUP1 SLOAD PUSH2 0xFF00 NOT AND SWAP1 SSTORE PUSH1 0x40 MLOAD PUSH1 0x1 DUP2 MSTORE PUSH32 0x7F26B83FF96E1F2B6A682F133852F6798A09C465DA95921460CEFB3847402498 SWAP1 PUSH1 0x20 ADD PUSH1 0x40 MLOAD DUP1 SWAP2 SUB SWAP1 LOG1 POP JUMP JUMPDEST PUSH1 0x0 DUP1 MLOAD PUSH1 0x20 PUSH2 0x4B63 DUP4 CODECOPY DUP2 MLOAD SWAP2 MSTORE PUSH2 0x250E DUP2 PUSH2 0x2F07 JUMP JUMPDEST POP PUSH1 0xFF SSTORE JUMP JUMPDEST PUSH1 0x0 DUP1 MLOAD PUSH1 0x20 PUSH2 0x4B63 DUP4 CODECOPY DUP2 MLOAD SWAP2 MSTORE PUSH2 0x252C DUP2 PUSH2 0x2F07 JUMP JUMPDEST DUP2 MLOAD PUSH2 0xD48 SWAP1 PUSH2 0x111 SWAP1 PUSH1 0x20 DUP6 ADD SWAP1 PUSH2 0x4018 JUMP JUMPDEST PUSH1 0xFE SLOAD PUSH1 0x60 SWAP1 PUSH1 0x0 DUP2 PUSH8 0xFFFFFFFFFFFFFFFF DUP2 GT ISZERO PUSH2 0x2561 JUMPI PUSH2 0x2561 PUSH2 0x446E JUMP JUMPDEST PUSH1 0x40 MLOAD SWAP1 DUP1 DUP3 MSTORE DUP1 PUSH1 0x20 MUL PUSH1 0x20 ADD DUP3 ADD PUSH1 0x40 MSTORE DUP1 ISZERO PUSH2 0x259A JUMPI DUP2 PUSH1 0x20 ADD JUMPDEST PUSH2 0x2587 PUSH2 0x4173 JUMP JUMPDEST DUP2 MSTORE PUSH1 0x20 ADD SWAP1 PUSH1 0x1 SWAP1 SUB SWAP1 DUP2 PUSH2 0x257F JUMPI SWAP1 POP JUMPDEST POP SWAP1 POP PUSH1 0x0 JUMPDEST DUP3 DUP2 LT ISZERO PUSH2 0x265B JUMPI PUSH1 0x0 DUP2 DUP2 MSTORE PUSH1 0xFB PUSH1 0x20 SWAP1 DUP2 MSTORE PUSH1 0x40 SWAP2 DUP3 SWAP1 KECCAK256 DUP3 MLOAD PUSH2 0x100 DUP2 ADD DUP5 MSTORE DUP2 SLOAD PUSH1 0xC0 DUP3 ADD SWAP1 DUP2 MSTORE PUSH1 0x1 DUP4 ADD SLOAD PUSH1 0xE0 DUP4 ADD MSTORE DUP2 MSTORE DUP4 MLOAD DUP1 DUP6 ADD DUP6 MSTORE PUSH1 0x2 DUP4 ADD SLOAD DUP2 MSTORE PUSH1 0x3 DUP4 ADD SLOAD DUP2 DUP6 ADD MSTORE DUP2 DUP5 ADD MSTORE PUSH1 0x4 DUP3 ADD SLOAD DUP2 DUP6 ADD MSTORE DUP4 MLOAD DUP1 DUP6 ADD SWAP1 SWAP5 MSTORE PUSH1 0x5 DUP3 ADD SLOAD DUP5 MSTORE PUSH1 0x6 DUP3 ADD SLOAD SWAP3 DUP5 ADD SWAP3 SWAP1 SWAP3 MSTORE PUSH1 0x60 DUP3 ADD SWAP3 SWAP1 SWAP3 MSTORE PUSH1 0x7 DUP3 ADD SLOAD PUSH1 0x80 DUP3 ADD MSTORE PUSH1 0x8 SWAP1 SWAP2 ADD SLOAD PUSH1 0xA0 DUP3 ADD MSTORE DUP3 MLOAD DUP4 SWAP1 DUP4 SWAP1 DUP2 LT PUSH2 0x2648 JUMPI PUSH2 0x2648 PUSH2 0x49D5 JUMP JUMPDEST PUSH1 0x20 SWAP1 DUP2 MUL SWAP2 SWAP1 SWAP2 ADD ADD MSTORE PUSH1 0x1 ADD PUSH2 0x25A0 JUMP JUMPDEST POP SWAP3 SWAP2 POP POP JUMP JUMPDEST PUSH1 0x60 PUSH2 0x103 DUP1 SLOAD DUP1 PUSH1 0x20 MUL PUSH1 0x20 ADD PUSH1 0x40 MLOAD SWAP1 DUP2 ADD PUSH1 0x40 MSTORE DUP1 SWAP3 SWAP2 SWAP1 DUP2 DUP2 MSTORE PUSH1 0x20 ADD PUSH1 0x0 SWAP1 JUMPDEST DUP3 DUP3 LT ISZERO PUSH2 0xA16 JUMPI DUP4 DUP3 SWAP1 PUSH1 0x0 MSTORE PUSH1 0x20 PUSH1 0x0 KECCAK256 SWAP1 PUSH1 0x3 MUL ADD PUSH1 0x40 MLOAD DUP1 PUSH1 0x60 ADD PUSH1 0x40 MSTORE SWAP1 DUP2 PUSH1 0x0 DUP3 ADD SLOAD DUP2 MSTORE PUSH1 0x20 ADD PUSH1 0x1 DUP3 ADD SLOAD DUP2 MSTORE PUSH1 0x20 ADD PUSH1 0x2 DUP3 ADD SLOAD DUP2 MSTORE POP POP DUP2 MSTORE PUSH1 0x20 ADD SWAP1 PUSH1 0x1 ADD SWAP1 PUSH2 0x2687 JUMP JUMPDEST PUSH1 0x0 DUP1 PUSH1 0x0 PUSH2 0x26E5 DUP5 PUSH2 0x32A1 JUMP JUMPDEST SWAP1 POP PUSH2 0x26F5 DUP6 DUP3 PUSH1 0x40 ADD MLOAD PUSH2 0x354C JUMP JUMPDEST PUSH2 0x180 DUP4 ADD MSTORE SWAP5 POP DUP5 SWAP3 POP PUSH2 0x2709 DUP2 PUSH2 0x3600 JUMP JUMPDEST SWAP2 POP POP SWAP3 POP SWAP3 SWAP1 POP JUMP JUMPDEST PUSH1 0x0 DUP1 MLOAD PUSH1 0x20 PUSH2 0x4B63 DUP4 CODECOPY DUP2 MLOAD SWAP2 MSTORE PUSH2 0x272B DUP2 PUSH2 0x2F07 JUMP JUMPDEST PUSH2 0x103 SLOAD DUP6 LT ISZERO PUSH2 0x2772 JUMPI PUSH1 0x0 PUSH2 0x103 DUP7 DUP2 SLOAD DUP2 LT PUSH2 0x274C JUMPI PUSH2 0x274C PUSH2 0x49D5 JUMP JUMPDEST PUSH1 0x0 SWAP2 DUP3 MSTORE PUSH1 0x20 SWAP1 SWAP2 KECCAK256 PUSH1 0x3 SWAP1 SWAP2 MUL ADD DUP6 DUP2 SSTORE PUSH1 0x1 DUP2 ADD DUP6 SWAP1 SSTORE PUSH1 0x2 ADD DUP4 SWAP1 SSTORE POP PUSH2 0x2869 JUMP JUMPDEST PUSH2 0x103 SLOAD DUP6 EQ PUSH2 0x27C4 JUMPI PUSH1 0x40 MLOAD PUSH3 0x461BCD PUSH1 0xE5 SHL DUP2 MSTORE PUSH1 0x20 PUSH1 0x4 DUP3 ADD MSTORE PUSH1 0xE PUSH1 0x24 DUP3 ADD MSTORE PUSH32 0x496E76616C696420726172697479000000000000000000000000000000000000 PUSH1 0x44 DUP3 ADD MSTORE PUSH1 0x64 ADD PUSH2 0xB67 JUMP JUMPDEST PUSH1 0x40 DUP1 MLOAD PUSH1 0x60 DUP2 ADD DUP3 MSTORE DUP6 DUP2 MSTORE PUSH1 0x20 DUP2 ADD DUP6 DUP2 MSTORE SWAP2 DUP2 ADD DUP5 DUP2 MSTORE PUSH2 0x103 DUP1 SLOAD PUSH1 0x1 DUP2 ADD DUP3 SSTORE PUSH1 0x0 SWAP2 SWAP1 SWAP2 MSTORE SWAP2 MLOAD PUSH32 0x2C297AB74AAD0AEDE3A1895C857B1F2C71E6A203FEB727BEC95AC752998CB78 PUSH1 0x3 SWAP1 SWAP4 MUL SWAP3 DUP4 ADD SSTORE SWAP2 MLOAD PUSH32 0x2C297AB74AAD0AEDE3A1895C857B1F2C71E6A203FEB727BEC95AC752998CB79 DUP3 ADD SSTORE SWAP1 MLOAD PUSH32 0x2C297AB74AAD0AEDE3A1895C857B1F2C71E6A203FEB727BEC95AC752998CB7A SWAP1 SWAP2 ADD SSTORE JUMPDEST POP POP POP POP POP JUMP JUMPDEST PUSH1 0x0 DUP1 MLOAD PUSH1 0x20 PUSH2 0x4B63 DUP4 CODECOPY DUP2 MLOAD SWAP2 MSTORE PUSH2 0x2888 DUP2 PUSH2 0x2F07 JUMP JUMPDEST DUP2 MLOAD PUSH2 0xD48 SWAP1 PUSH2 0x10A SWAP1 PUSH1 0x20 DUP6 ADD SWAP1 PUSH2 0x4018 JUMP JUMPDEST PUSH1 0x0 DUP1 MLOAD PUSH1 0x20 PUSH2 0x4B63 DUP4 CODECOPY DUP2 MLOAD SWAP2 MSTORE PUSH2 0x28B4 DUP2 PUSH2 0x2F07 JUMP JUMPDEST POP PUSH1 0xFD SSTORE JUMP JUMPDEST PUSH1 0x0 DUP1 MLOAD PUSH1 0x20 PUSH2 0x4B63 DUP4 CODECOPY DUP2 MLOAD SWAP2 MSTORE PUSH2 0x28D2 DUP2 PUSH2 0x2F07 JUMP JUMPDEST POP PUSH1 0x0 SWAP2 DUP3 MSTORE PUSH1 0xFB PUSH1 0x20 SWAP1 DUP2 MSTORE PUSH1 0x40 SWAP3 DUP4 SWAP1 KECCAK256 DUP3 MLOAD DUP1 MLOAD DUP3 SSTORE DUP3 ADD MLOAD PUSH1 0x1 DUP3 ADD SSTORE DUP2 DUP4 ADD MLOAD DUP1 MLOAD PUSH1 0x2 DUP4 ADD SSTORE DUP3 ADD MLOAD PUSH1 0x3 DUP3 ADD SSTORE SWAP3 DUP3 ADD MLOAD PUSH1 0x4 DUP5 ADD SSTORE PUSH1 0x60 DUP3 ADD MLOAD DUP1 MLOAD PUSH1 0x5 DUP6 ADD SSTORE ADD MLOAD PUSH1 0x6 DUP4 ADD SSTORE PUSH1 0x80 DUP2 ADD MLOAD PUSH1 0x7 DUP4 ADD SSTORE PUSH1 0xA0 ADD MLOAD PUSH1 0x8 SWAP1 SWAP2 ADD SSTORE JUMP JUMPDEST PUSH1 0x0 DUP3 DUP2 MSTORE PUSH1 0x65 PUSH1 0x20 MSTORE PUSH1 0x40 SWAP1 KECCAK256 PUSH1 0x1 ADD SLOAD PUSH2 0x2953 DUP2 PUSH2 0x2F07 JUMP JUMPDEST PUSH2 0xD48 DUP4 DUP4 PUSH2 0x2FCB JUMP JUMPDEST PUSH1 0x0 DUP1 MLOAD PUSH1 0x20 PUSH2 0x4B63 DUP4 CODECOPY DUP2 MLOAD SWAP2 MSTORE PUSH2 0x2975 DUP2 PUSH2 0x2F07 JUMP JUMPDEST DUP2 PUSH2 0x10B DUP5 PUSH1 0x6 DUP2 LT PUSH2 0x298A JUMPI PUSH2 0x298A PUSH2 0x49D5 JUMP JUMPDEST PUSH2 0x2998 SWAP3 SWAP2 ADD SWAP1 PUSH1 0x6 PUSH2 0x4018 JUMP JUMPDEST POP POP POP POP JUMP JUMPDEST PUSH1 0x0 DUP1 MLOAD PUSH1 0x20 PUSH2 0x4B63 DUP4 CODECOPY DUP2 MLOAD SWAP2 MSTORE PUSH2 0x29B6 DUP2 PUSH2 0x2F07 JUMP JUMPDEST POP PUSH2 0x109 SSTORE JUMP JUMPDEST PUSH1 0x0 DUP1 MLOAD PUSH1 0x20 PUSH2 0x4B63 DUP4 CODECOPY DUP2 MLOAD SWAP2 MSTORE PUSH2 0x29D5 DUP2 PUSH2 0x2F07 JUMP JUMPDEST DUP2 MLOAD PUSH2 0xD48 SWAP1 PUSH2 0x101 SWAP1 PUSH1 0x20 DUP6 ADD SWAP1 PUSH2 0x41F1 JUMP JUMPDEST PUSH1 0x0 DUP1 MLOAD PUSH1 0x20 PUSH2 0x4B63 DUP4 CODECOPY DUP2 MLOAD SWAP2 MSTORE PUSH2 0x2A01 DUP2 PUSH2 0x2F07 JUMP JUMPDEST POP PUSH2 0x107 SSTORE JUMP JUMPDEST PUSH1 0x0 DUP1 MLOAD PUSH1 0x20 PUSH2 0x4B63 DUP4 CODECOPY DUP2 MLOAD SWAP2 MSTORE PUSH2 0x2A20 DUP2 PUSH2 0x2F07 JUMP JUMPDEST DUP2 MLOAD PUSH2 0xD48 SWAP1 PUSH2 0x102 SWAP1 PUSH1 0x20 DUP6 ADD SWAP1 PUSH2 0x4018 JUMP JUMPDEST PUSH1 0x0 DUP1 MLOAD PUSH1 0x20 PUSH2 0x4B63 DUP4 CODECOPY DUP2 MLOAD SWAP2 MSTORE PUSH2 0x2A4C DUP2 PUSH2 0x2F07 JUMP JUMPDEST POP PUSH2 0x106 SSTORE JUMP JUMPDEST PUSH1 0x60 PUSH1 0xFE DUP1 SLOAD DUP1 PUSH1 0x20 MUL PUSH1 0x20 ADD PUSH1 0x40 MLOAD SWAP1 DUP2 ADD PUSH1 0x40 MSTORE DUP1 SWAP3 SWAP2 SWAP1 DUP2 DUP2 MSTORE PUSH1 0x20 ADD DUP3 DUP1 SLOAD DUP1 ISZERO PUSH2 0xD9C JUMPI PUSH1 0x20 MUL DUP3 ADD SWAP2 SWAP1 PUSH1 0x0 MSTORE PUSH1 0x20 PUSH1 0x0 KECCAK256 SWAP1 DUP2 SLOAD DUP2 MSTORE PUSH1 0x20 ADD SWAP1 PUSH1 0x1 ADD SWAP1 DUP1 DUP4 GT PUSH2 0xD88 JUMPI POP POP POP POP POP SWAP1 POP SWAP1 JUMP JUMPDEST PUSH1 0x0 PUSH32 0xFFFFFFFF00000000000000000000000000000000000000000000000000000000 DUP3 AND PUSH32 0x7965DB0B00000000000000000000000000000000000000000000000000000000 EQ DUP1 PUSH2 0xA2A JUMPI POP PUSH32 0x1FFC9A700000000000000000000000000000000000000000000000000000000 PUSH32 0xFFFFFFFF00000000000000000000000000000000000000000000000000000000 DUP4 AND EQ PUSH2 0xA2A JUMP JUMPDEST PUSH1 0x0 DUP1 PUSH2 0x2BD1 PUSH1 0x40 MLOAD DUP1 PUSH2 0x240 ADD PUSH1 0x40 MSTORE DUP1 PUSH1 0x0 DUP2 MSTORE PUSH1 0x20 ADD PUSH1 0x0 DUP2 MSTORE PUSH1 0x20 ADD PUSH1 0x0 DUP2 MSTORE PUSH1 0x20 ADD PUSH1 0x0 DUP2 MSTORE PUSH1 0x20 ADD PUSH1 0x0 DUP2 MSTORE PUSH1 0x20 ADD PUSH1 0x0 DUP2 MSTORE PUSH1 0x20 ADD PUSH1 0x0 DUP2 MSTORE PUSH1 0x20 ADD PUSH1 0x0 DUP2 MSTORE PUSH1 0x20 ADD PUSH1 0x0 DUP2 MSTORE PUSH1 0x20 ADD PUSH1 0x0 DUP2 MSTORE PUSH1 0x20 ADD PUSH1 0x0 DUP2 MSTORE PUSH1 0x20 ADD PUSH1 0x0 DUP2 MSTORE PUSH1 0x20 ADD PUSH1 0x60 DUP2 MSTORE PUSH1 0x20 ADD PUSH1 0x0 DUP2 MSTORE PUSH1 0x20 ADD PUSH1 0x0 DUP2 MSTORE PUSH1 0x20 ADD PUSH1 0x60 DUP2 MSTORE PUSH1 0x20 ADD PUSH1 0x0 DUP2 MSTORE PUSH1 0x20 ADD PUSH1 0x0 DUP2 MSTORE POP SWAP1 JUMP JUMPDEST DUP7 DUP2 MSTORE DUP8 PUSH1 0x1F PUSH1 0x1E DUP8 SWAP1 SHR DUP2 AND SWAP1 PUSH1 0x1 PUSH1 0x23 DUP10 SWAP1 SHR DUP2 AND DUP2 EQ SWAP2 PUSH1 0x87 DUP11 SWAP1 SHR AND SWAP1 PUSH1 0x3 DUP5 EQ SWAP1 DUP5 EQ DUP4 ISZERO PUSH2 0x2C48 JUMPI PUSH1 0x40 DUP1 MLOAD PUSH1 0x1 DUP1 DUP3 MSTORE DUP2 DUP4 ADD SWAP1 SWAP3 MSTORE PUSH1 0x0 SWAP2 PUSH1 0x20 DUP1 DUP4 ADD SWAP1 DUP1 CALLDATASIZE DUP4 CALLDATACOPY ADD SWAP1 POP POP SWAP1 POP PUSH1 0x1 DUP2 PUSH1 0x0 DUP2 MLOAD DUP2 LT PUSH2 0x2C36 JUMPI PUSH2 0x2C36 PUSH2 0x49D5 JUMP JUMPDEST PUSH1 0x20 SWAP1 DUP2 MUL SWAP2 SWAP1 SWAP2 ADD ADD MSTORE PUSH2 0x1E0 DUP9 ADD MSTORE JUMPDEST DUP12 PUSH2 0x2D1C JUMPI PUSH2 0x2D10 DUP7 DUP3 PUSH2 0x2CBB JUMPI PUSH1 0x0 DUP13 MLOAD GT PUSH2 0x2CB5 JUMPI PUSH1 0xFE DUP1 SLOAD DUP1 PUSH1 0x20 MUL PUSH1 0x20 ADD PUSH1 0x40 MLOAD SWAP1 DUP2 ADD PUSH1 0x40 MSTORE DUP1 SWAP3 SWAP2 SWAP1 DUP2 DUP2 MSTORE PUSH1 0x20 ADD DUP3 DUP1 SLOAD DUP1 ISZERO PUSH2 0x2CAB JUMPI PUSH1 0x20 MUL DUP3 ADD SWAP2 SWAP1 PUSH1 0x0 MSTORE PUSH1 0x20 PUSH1 0x0 KECCAK256 SWAP1 JUMPDEST DUP2 SLOAD DUP2 MSTORE PUSH1 0x20 ADD SWAP1 PUSH1 0x1 ADD SWAP1 DUP1 DUP4 GT PUSH2 0x2C97 JUMPI JUMPDEST POP POP POP POP POP PUSH2 0x37A1 JUMP JUMPDEST DUP12 PUSH2 0x37A1 JUMP JUMPDEST PUSH2 0x105 DUP1 SLOAD DUP1 PUSH1 0x20 MUL PUSH1 0x20 ADD PUSH1 0x40 MLOAD SWAP1 DUP2 ADD PUSH1 0x40 MSTORE DUP1 SWAP3 SWAP2 SWAP1 DUP2 DUP2 MSTORE PUSH1 0x20 ADD DUP3 DUP1 SLOAD DUP1 ISZERO PUSH2 0x2CAB JUMPI PUSH1 0x20 MUL DUP3 ADD SWAP2 SWAP1 PUSH1 0x0 MSTORE PUSH1 0x20 PUSH1 0x0 KECCAK256 SWAP1 DUP2 SLOAD DUP2 MSTORE PUSH1 0x20 ADD SWAP1 PUSH1 0x1 ADD SWAP1 DUP1 DUP4 GT PUSH2 0x2C97 JUMPI POP POP POP POP POP PUSH2 0x37A1 JUMP JUMPDEST PUSH1 0x40 DUP10 ADD MSTORE SWAP6 POP PUSH2 0x2D2D JUMP JUMPDEST PUSH2 0x2D27 PUSH1 0x1 DUP14 PUSH2 0x49EB JUMP JUMPDEST PUSH1 0x40 DUP9 ADD MSTORE JUMPDEST DUP2 ISZERO PUSH2 0x2DAF JUMPI PUSH1 0x0 DUP1 PUSH1 0x0 JUMPDEST DUP13 MLOAD DUP2 LT ISZERO PUSH2 0x2D8B JUMPI DUP13 DUP2 DUP2 MLOAD DUP2 LT PUSH2 0x2D54 JUMPI PUSH2 0x2D54 PUSH2 0x49D5 JUMP JUMPDEST PUSH1 0x20 MUL PUSH1 0x20 ADD ADD MLOAD DUP3 LT ISZERO PUSH2 0x2D83 JUMPI DUP13 DUP2 DUP2 MLOAD DUP2 LT PUSH2 0x2D75 JUMPI PUSH2 0x2D75 PUSH2 0x49D5 JUMP JUMPDEST PUSH1 0x20 MUL PUSH1 0x20 ADD ADD MLOAD SWAP2 POP DUP1 SWAP3 POP JUMPDEST PUSH1 0x1 ADD PUSH2 0x2D39 JUMP JUMPDEST POP DUP9 PUSH1 0x40 ADD MLOAD DUP3 EQ PUSH2 0x2DAC JUMPI DUP8 PUSH1 0x0 SWAP11 POP SWAP11 POP POP POP POP POP POP POP POP POP POP PUSH2 0x2EFD JUMP JUMPDEST POP POP JUMPDEST PUSH1 0x1 PUSH1 0x60 DUP9 ADD DUP2 SWAP1 MSTORE PUSH1 0x40 DUP1 DUP10 ADD MLOAD PUSH1 0x0 SWAP1 DUP2 MSTORE PUSH1 0xFB PUSH1 0x20 MSTORE KECCAK256 PUSH1 0x4 DUP2 ADD SLOAD PUSH2 0x120 DUP11 ADD MSTORE PUSH1 0x7 DUP2 ADD SLOAD PUSH2 0x160 DUP11 ADD MSTORE SWAP1 PUSH2 0x2DED SWAP1 DUP9 SWAP1 PUSH1 0x5 PUSH2 0x38AA JUMP JUMPDEST PUSH1 0x80 DUP11 ADD MSTORE SWAP7 POP DUP4 PUSH2 0x2E53 JUMPI PUSH2 0x111 SLOAD PUSH1 0x0 SWAP1 DUP2 SWAP1 PUSH2 0x2E0E SWAP1 PUSH1 0x1 SWAP1 PUSH2 0x49EB JUMP JUMPDEST SWAP1 POP DUP9 PUSH2 0x2E1D DUP2 PUSH1 0x0 DUP5 PUSH2 0x38AA JUMP JUMPDEST DUP1 SWAP5 POP DUP2 SWAP12 POP POP POP PUSH2 0x111 DUP4 DUP2 SLOAD DUP2 LT PUSH2 0x2E39 JUMPI PUSH2 0x2E39 PUSH2 0x49D5 JUMP JUMPDEST PUSH1 0x0 SWAP2 DUP3 MSTORE PUSH1 0x20 SWAP1 SWAP2 KECCAK256 ADD SLOAD PUSH1 0xA0 DUP13 ADD MSTORE POP PUSH2 0x2E5B SWAP2 POP POP JUMP JUMPDEST PUSH1 0xA0 DUP9 ADD DUP5 SWAP1 MSTORE JUMPDEST DUP1 SLOAD PUSH1 0x1 DUP3 ADD SLOAD PUSH2 0x2E6D SWAP2 DUP10 SWAP2 PUSH2 0x38AA JUMP JUMPDEST PUSH1 0xC0 DUP11 ADD MSTORE PUSH1 0x2 DUP3 ADD SLOAD PUSH1 0x3 DUP4 ADD SLOAD SWAP2 SWAP9 POP PUSH2 0x2E8B SWAP2 DUP10 SWAP2 SWAP1 PUSH2 0x38AA JUMP JUMPDEST PUSH1 0xE0 DUP11 ADD MSTORE SWAP7 POP PUSH2 0x2E9F DUP8 PUSH1 0x1 PUSH1 0x14 PUSH2 0x38AA JUMP JUMPDEST PUSH2 0x100 DUP11 ADD MSTORE PUSH1 0x5 DUP3 ADD SLOAD PUSH1 0x6 DUP4 ADD SLOAD SWAP2 SWAP9 POP PUSH2 0x2EBE SWAP2 DUP10 SWAP2 SWAP1 PUSH2 0x38AA JUMP JUMPDEST PUSH2 0x140 DUP11 ADD MSTORE PUSH1 0x40 DUP10 ADD MLOAD SWAP1 SWAP8 POP PUSH2 0x2ED7 SWAP1 DUP9 SWAP1 PUSH2 0x354C JUMP JUMPDEST PUSH2 0x180 DUP11 ADD MSTORE NUMBER PUSH2 0x1A0 DUP11 ADD MSTORE SWAP10 POP DUP10 SWAP7 POP PUSH2 0x2EF2 DUP9 PUSH2 0x3600 JUMP JUMPDEST SWAP9 POP POP POP POP POP POP POP POP POP JUMPDEST SWAP6 POP SWAP6 SWAP4 POP POP POP POP JUMP JUMPDEST PUSH2 0x1017 DUP2 CALLER PUSH2 0x38CE JUMP JUMPDEST PUSH1 0x0 DUP2 DUP4 LT PUSH2 0x2F20 JUMPI DUP2 PUSH2 0x2F22 JUMP JUMPDEST DUP3 JUMPDEST SWAP4 SWAP3 POP POP POP JUMP JUMPDEST PUSH1 0x0 DUP3 DUP2 MSTORE PUSH1 0x65 PUSH1 0x20 SWAP1 DUP2 MSTORE PUSH1 0x40 DUP1 DUP4 KECCAK256 PUSH1 0x1 PUSH1 0x1 PUSH1 0xA0 SHL SUB DUP6 AND DUP5 MSTORE SWAP1 SWAP2 MSTORE SWAP1 KECCAK256 SLOAD PUSH1 0xFF AND PUSH2 0xE79 JUMPI PUSH1 0x0 DUP3 DUP2 MSTORE PUSH1 0x65 PUSH1 0x20 SWAP1 DUP2 MSTORE PUSH1 0x40 DUP1 DUP4 KECCAK256 PUSH1 0x1 PUSH1 0x1 PUSH1 0xA0 SHL SUB DUP6 AND DUP5 MSTORE SWAP1 SWAP2 MSTORE SWAP1 KECCAK256 DUP1 SLOAD PUSH1 0xFF NOT AND PUSH1 0x1 OR SWAP1 SSTORE PUSH2 0x2F87 CALLER SWAP1 JUMP JUMPDEST PUSH1 0x1 PUSH1 0x1 PUSH1 0xA0 SHL SUB AND DUP2 PUSH1 0x1 PUSH1 0x1 PUSH1 0xA0 SHL SUB AND DUP4 PUSH32 0x2F8788117E7EFF1D82E926EC794901D17C78024A50270940304540A733656F0D PUSH1 0x40 MLOAD PUSH1 0x40 MLOAD DUP1 SWAP2 SUB SWAP1 LOG4 POP POP JUMP JUMPDEST PUSH1 0x0 DUP3 DUP2 MSTORE PUSH1 0x65 PUSH1 0x20 SWAP1 DUP2 MSTORE PUSH1 0x40 DUP1 DUP4 KECCAK256 PUSH1 0x1 PUSH1 0x1 PUSH1 0xA0 SHL SUB DUP6 AND DUP5 MSTORE SWAP1 SWAP2 MSTORE SWAP1 KECCAK256 SLOAD PUSH1 0xFF AND ISZERO PUSH2 0xE79 JUMPI PUSH1 0x0 DUP3 DUP2 MSTORE PUSH1 0x65 PUSH1 0x20 SWAP1 DUP2 MSTORE PUSH1 0x40 DUP1 DUP4 KECCAK256 PUSH1 0x1 PUSH1 0x1 PUSH1 0xA0 SHL SUB DUP6 AND DUP1 DUP6 MSTORE SWAP3 MSTORE DUP1 DUP4 KECCAK256 DUP1 SLOAD PUSH1 0xFF NOT AND SWAP1 SSTORE MLOAD CALLER SWAP3 DUP6 SWAP2 PUSH32 0xF6391F5C32D9C69D2A47EA670B442974B53935D1EDC7FD64EB21E047A839171B SWAP2 SWAP1 LOG4 POP POP JUMP JUMPDEST PUSH32 0x189AB7A9244DF0848122154315AF71FE140F3DB0FE014031783B0946B8C9D2E3 PUSH2 0xE79 DUP2 PUSH2 0x2F07 JUMP JUMPDEST PUSH32 0x4910FDFA16FED3260ED0E7147F7CC6DA11A60208B5B9406D12A635614FFD9143 SLOAD PUSH1 0xFF AND ISZERO PUSH2 0x30AB JUMPI PUSH2 0xD48 DUP4 PUSH2 0x3943 JUMP JUMPDEST DUP3 PUSH1 0x1 PUSH1 0x1 PUSH1 0xA0 SHL SUB AND PUSH4 0x52D1902D PUSH1 0x40 MLOAD DUP2 PUSH4 0xFFFFFFFF AND PUSH1 0xE0 SHL DUP2 MSTORE PUSH1 0x4 ADD PUSH1 0x20 PUSH1 0x40 MLOAD DUP1 DUP4 SUB DUP2 DUP7 GAS STATICCALL SWAP3 POP POP POP DUP1 ISZERO PUSH2 0x3105 JUMPI POP PUSH1 0x40 DUP1 MLOAD PUSH1 0x1F RETURNDATASIZE SWAP1 DUP2 ADD PUSH1 0x1F NOT AND DUP3 ADD SWAP1 SWAP3 MSTORE PUSH2 0x3102 SWAP2 DUP2 ADD SWAP1 PUSH2 0x49FE JUMP JUMPDEST PUSH1 0x1 JUMPDEST PUSH2 0x3177 JUMPI PUSH1 0x40 MLOAD PUSH3 0x461BCD PUSH1 0xE5 SHL DUP2 MSTORE PUSH1 0x20 PUSH1 0x4 DUP3 ADD MSTORE PUSH1 0x2E PUSH1 0x24 DUP3 ADD MSTORE PUSH32 0x45524331393637557067726164653A206E657720696D706C656D656E74617469 PUSH1 0x44 DUP3 ADD MSTORE PUSH32 0x6F6E206973206E6F742055555053000000000000000000000000000000000000 PUSH1 0x64 DUP3 ADD MSTORE PUSH1 0x84 ADD PUSH2 0xB67 JUMP JUMPDEST PUSH32 0x360894A13BA1A3210667C828492DB98DCA3E2076CC3735A920A3CA505D382BBC DUP2 EQ PUSH2 0x320C JUMPI PUSH1 0x40 MLOAD PUSH3 0x461BCD PUSH1 0xE5 SHL DUP2 MSTORE PUSH1 0x20 PUSH1 0x4 DUP3 ADD MSTORE PUSH1 0x29 PUSH1 0x24 DUP3 ADD MSTORE PUSH32 0x45524331393637557067726164653A20756E737570706F727465642070726F78 PUSH1 0x44 DUP3 ADD MSTORE PUSH32 0x6961626C65555549440000000000000000000000000000000000000000000000 PUSH1 0x64 DUP3 ADD MSTORE PUSH1 0x84 ADD PUSH2 0xB67 JUMP JUMPDEST POP PUSH2 0xD48 DUP4 DUP4 DUP4 PUSH2 0x3A19 JUMP JUMPDEST PUSH1 0x0 SLOAD PUSH2 0x100 SWAP1 DIV PUSH1 0xFF AND PUSH2 0x3295 JUMPI PUSH1 0x40 MLOAD PUSH3 0x461BCD PUSH1 0xE5 SHL DUP2 MSTORE PUSH1 0x20 PUSH1 0x4 DUP3 ADD MSTORE PUSH1 0x2B PUSH1 0x24 DUP3 ADD MSTORE PUSH32 0x496E697469616C697A61626C653A20636F6E7472616374206973206E6F742069 PUSH1 0x44 DUP3 ADD MSTORE PUSH32 0x6E697469616C697A696E67000000000000000000000000000000000000000000 PUSH1 0x64 DUP3 ADD MSTORE PUSH1 0x84 ADD PUSH2 0xB67 JUMP JUMPDEST JUMP JUMPDEST PUSH2 0xE79 DUP3 DUP3 PUSH2 0x2F29 JUMP JUMPDEST PUSH2 0x332F PUSH1 0x40 MLOAD DUP1 PUSH2 0x240 ADD PUSH1 0x40 MSTORE DUP1 PUSH1 0x0 DUP2 MSTORE PUSH1 0x20 ADD PUSH1 0x0 DUP2 MSTORE PUSH1 0x20 ADD PUSH1 0x0 DUP2 MSTORE PUSH1 0x20 ADD PUSH1 0x0 DUP2 MSTORE PUSH1 0x20 ADD PUSH1 0x0 DUP2 MSTORE PUSH1 0x20 ADD PUSH1 0x0 DUP2 MSTORE PUSH1 0x20 ADD PUSH1 0x0 DUP2 MSTORE PUSH1 0x20 ADD PUSH1 0x0 DUP2 MSTORE PUSH1 0x20 ADD PUSH1 0x0 DUP2 MSTORE PUSH1 0x20 ADD PUSH1 0x0 DUP2 MSTORE PUSH1 0x20 ADD PUSH1 0x0 DUP2 MSTORE PUSH1 0x20 ADD PUSH1 0x0 DUP2 MSTORE PUSH1 0x20 ADD PUSH1 0x60 DUP2 MSTORE PUSH1 0x20 ADD PUSH1 0x0 DUP2 MSTORE PUSH1 0x20 ADD PUSH1 0x0 DUP2 MSTORE PUSH1 0x20 ADD PUSH1 0x60 DUP2 MSTORE PUSH1 0x20 ADD PUSH1 0x0 DUP2 MSTORE PUSH1 0x20 ADD PUSH1 0x0 DUP2 MSTORE POP SWAP1 JUMP JUMPDEST PUSH4 0x3FFFFFFF DUP3 AND DUP2 MSTORE PUSH1 0x1E DUP3 SWAP1 SHR PUSH2 0x3FF AND PUSH1 0x20 DUP3 ADD MSTORE PUSH1 0x28 DUP3 SWAP1 SHR PUSH1 0x1F AND PUSH1 0x40 DUP3 ADD MSTORE PUSH1 0x2D DUP3 SWAP1 SHR PUSH1 0x1F AND PUSH1 0x60 DUP3 ADD MSTORE PUSH1 0x1F PUSH1 0x32 DUP4 SWAP1 SHR DUP2 AND PUSH1 0x80 DUP4 ADD MSTORE PUSH1 0x37 DUP4 SWAP1 SHR DUP2 AND PUSH1 0xA0 DUP4 ADD MSTORE PUSH1 0x3C DUP4 SWAP1 SHR DUP2 AND PUSH1 0xC0 DUP4 ADD MSTORE PUSH1 0x41 DUP4 SWAP1 SHR DUP2 AND PUSH1 0xE0 DUP4 ADD MSTORE PUSH1 0x46 DUP4 SWAP1 SHR DUP2 AND PUSH2 0x100 DUP4 ADD MSTORE PUSH1 0x4B DUP4 SWAP1 SHR DUP2 AND PUSH2 0x120 DUP4 ADD MSTORE PUSH1 0x50 DUP4 SWAP1 SHR DUP2 AND PUSH2 0x140 DUP4 ADD MSTORE PUSH1 0x55 DUP4 SWAP1 SHR DUP2 AND PUSH2 0x160 DUP4 ADD MSTORE PUSH1 0x5A DUP4 SWAP1 SHR AND DUP1 PUSH8 0xFFFFFFFFFFFFFFFF DUP2 GT ISZERO PUSH2 0x33E5 JUMPI PUSH2 0x33E5 PUSH2 0x446E JUMP JUMPDEST PUSH1 0x40 MLOAD SWAP1 DUP1 DUP3 MSTORE DUP1 PUSH1 0x20 MUL PUSH1 0x20 ADD DUP3 ADD PUSH1 0x40 MSTORE DUP1 ISZERO PUSH2 0x340E JUMPI DUP2 PUSH1 0x20 ADD PUSH1 0x20 DUP3 MUL DUP1 CALLDATASIZE DUP4 CALLDATACOPY ADD SWAP1 POP JUMPDEST POP PUSH2 0x180 DUP4 ADD MSTORE PUSH1 0x0 JUMPDEST DUP2 DUP2 LT ISZERO PUSH2 0x3466 JUMPI PUSH2 0x342B DUP2 PUSH1 0x5 PUSH2 0x49AB JUMP JUMPDEST PUSH2 0x3436 SWAP1 PUSH1 0x5F PUSH2 0x49C2 JUMP JUMPDEST DUP5 SWAP1 SHR PUSH1 0x1F AND DUP4 PUSH2 0x180 ADD MLOAD DUP3 DUP2 MLOAD DUP2 LT PUSH2 0x3453 JUMPI PUSH2 0x3453 PUSH2 0x49D5 JUMP JUMPDEST PUSH1 0x20 SWAP1 DUP2 MUL SWAP2 SWAP1 SWAP2 ADD ADD MSTORE PUSH1 0x1 ADD PUSH2 0x3418 JUMP JUMPDEST POP PUSH1 0x91 DUP4 SWAP1 SHR PUSH4 0x3FFFFFFF AND PUSH2 0x1A0 DUP4 ADD MSTORE PUSH1 0xAF DUP4 SWAP1 SHR PUSH1 0x1F AND PUSH2 0x1C0 DUP4 ADD MSTORE PUSH1 0x1F PUSH1 0xB4 DUP5 SWAP1 SHR AND DUP1 PUSH8 0xFFFFFFFFFFFFFFFF DUP2 GT ISZERO PUSH2 0x34A7 JUMPI PUSH2 0x34A7 PUSH2 0x446E JUMP JUMPDEST PUSH1 0x40 MLOAD SWAP1 DUP1 DUP3 MSTORE DUP1 PUSH1 0x20 MUL PUSH1 0x20 ADD DUP3 ADD PUSH1 0x40 MSTORE DUP1 ISZERO PUSH2 0x34D0 JUMPI DUP2 PUSH1 0x20 ADD PUSH1 0x20 DUP3 MUL DUP1 CALLDATASIZE DUP4 CALLDATACOPY ADD SWAP1 POP JUMPDEST POP PUSH2 0x1E0 DUP5 ADD MSTORE PUSH1 0x0 JUMPDEST DUP2 DUP2 LT ISZERO PUSH2 0x3528 JUMPI PUSH2 0x34ED DUP2 PUSH1 0x5 PUSH2 0x49AB JUMP JUMPDEST PUSH2 0x34F8 SWAP1 PUSH1 0xB9 PUSH2 0x49C2 JUMP JUMPDEST DUP6 SWAP1 SHR PUSH1 0x1F AND DUP5 PUSH2 0x1E0 ADD MLOAD DUP3 DUP2 MLOAD DUP2 LT PUSH2 0x3515 JUMPI PUSH2 0x3515 PUSH2 0x49D5 JUMP JUMPDEST PUSH1 0x20 SWAP1 DUP2 MUL SWAP2 SWAP1 SWAP2 ADD ADD MSTORE PUSH1 0x1 ADD PUSH2 0x34DA JUMP JUMPDEST POP POP POP PUSH1 0xEB DUP3 SWAP1 SHR PUSH1 0x1F AND PUSH2 0x220 DUP3 ADD MSTORE PUSH1 0xF0 SWAP2 SWAP1 SWAP2 SHR PUSH2 0x3FF AND PUSH2 0x200 DUP3 ADD MSTORE SWAP1 JUMP JUMPDEST PUSH1 0x0 PUSH1 0x60 PUSH1 0x0 PUSH2 0x102 DUP1 SLOAD DUP1 PUSH1 0x20 MUL PUSH1 0x20 ADD PUSH1 0x40 MLOAD SWAP1 DUP2 ADD PUSH1 0x40 MSTORE DUP1 SWAP3 SWAP2 SWAP1 DUP2 DUP2 MSTORE PUSH1 0x20 ADD DUP3 DUP1 SLOAD DUP1 ISZERO PUSH2 0x359F JUMPI PUSH1 0x20 MUL DUP3 ADD SWAP2 SWAP1 PUSH1 0x0 MSTORE PUSH1 0x20 PUSH1 0x0 KECCAK256 SWAP1 JUMPDEST DUP2 SLOAD DUP2 MSTORE PUSH1 0x20 ADD SWAP1 PUSH1 0x1 ADD SWAP1 DUP1 DUP4 GT PUSH2 0x358B JUMPI JUMPDEST POP POP POP POP POP SWAP1 POP DUP4 PUSH1 0x0 SUB PUSH2 0x35D0 JUMPI PUSH1 0x0 DUP2 PUSH1 0x2 DUP2 MLOAD DUP2 LT PUSH2 0x35C3 JUMPI PUSH2 0x35C3 PUSH2 0x49D5 JUMP JUMPDEST PUSH1 0x20 MUL PUSH1 0x20 ADD ADD DUP2 DUP2 MSTORE POP POP JUMPDEST PUSH1 0x0 DUP5 DUP2 MSTORE PUSH1 0xFB PUSH1 0x20 MSTORE PUSH1 0x40 SWAP1 KECCAK256 PUSH1 0x8 DUP2 ADD SLOAD PUSH2 0x35F3 SWAP1 DUP8 SWAP1 PUSH1 0xFC SWAP1 DUP6 SWAP1 PUSH2 0x3A3E JUMP JUMPDEST SWAP1 SWAP8 SWAP1 SWAP7 POP SWAP5 POP POP POP POP POP JUMP JUMPDEST DUP1 MLOAD PUSH1 0x20 DUP3 ADD MLOAD PUSH1 0x40 DUP4 ADD MLOAD PUSH1 0x60 DUP5 ADD MLOAD PUSH1 0x80 DUP6 ADD MLOAD PUSH1 0xA0 DUP7 ADD MLOAD PUSH1 0xC0 DUP8 ADD MLOAD PUSH1 0xE0 DUP9 ADD MLOAD PUSH2 0x100 DUP10 ADD MLOAD PUSH2 0x120 DUP11 ADD MLOAD PUSH2 0x140 DUP12 ADD MLOAD PUSH2 0x160 DUP13 ADD MLOAD PUSH2 0x180 DUP14 ADD MLOAD MLOAD PUSH1 0x0 SWAP13 PUSH1 0x5A SWAP2 SWAP1 SWAP2 SHL PUSH1 0x55 SWAP3 SWAP1 SWAP3 SHL PUSH1 0x50 SWAP4 SWAP1 SWAP4 SHL PUSH1 0x4B SWAP5 SWAP1 SWAP5 SHL PUSH1 0x46 SWAP6 SWAP1 SWAP6 SHL PUSH1 0x41 SWAP7 SWAP1 SWAP7 SHL PUSH1 0x3C SWAP8 SWAP1 SWAP8 SHL PUSH1 0x37 SWAP9 SWAP1 SWAP9 SHL PUSH1 0x32 SWAP10 SWAP1 SWAP10 SHL PUSH1 0x2D SWAP11 SWAP1 SWAP11 SHL PUSH1 0x28 SWAP12 SWAP1 SWAP12 SHL PUSH1 0x1E SWAP13 SWAP1 SWAP13 SHL OR SWAP11 SWAP1 SWAP11 OR SWAP9 SWAP1 SWAP9 OR SWAP7 SWAP1 SWAP7 OR SWAP5 SWAP1 SWAP5 OR SWAP3 SWAP1 SWAP3 OR OR OR OR OR OR OR DUP2 JUMPDEST DUP4 PUSH2 0x180 ADD MLOAD MLOAD DUP2 LT ISZERO PUSH2 0x3700 JUMPI PUSH2 0x36C5 DUP2 PUSH1 0x5 PUSH2 0x49AB JUMP JUMPDEST PUSH2 0x36D0 SWAP1 PUSH1 0x5F PUSH2 0x49C2 JUMP JUMPDEST DUP5 PUSH2 0x180 ADD MLOAD DUP3 DUP2 MLOAD DUP2 LT PUSH2 0x36E7 JUMPI PUSH2 0x36E7 PUSH2 0x49D5 JUMP JUMPDEST PUSH1 0x20 MUL PUSH1 0x20 ADD ADD MLOAD SWAP1 SHL DUP3 OR SWAP2 POP DUP1 PUSH1 0x1 ADD SWAP1 POP PUSH2 0x36AC JUMP JUMPDEST POP PUSH2 0x1A0 DUP4 ADD MLOAD PUSH2 0x1C0 DUP5 ADD MLOAD PUSH2 0x1E0 DUP6 ADD MLOAD MLOAD PUSH1 0xB4 SHL PUSH1 0xAF SWAP2 SWAP1 SWAP2 SHL PUSH1 0x91 SWAP3 SWAP1 SWAP3 SHL SWAP3 SWAP1 SWAP3 OR OR OR PUSH1 0x0 JUMPDEST DUP4 PUSH2 0x1E0 ADD MLOAD MLOAD DUP2 LT ISZERO PUSH2 0x3780 JUMPI PUSH2 0x3745 DUP2 PUSH1 0x5 PUSH2 0x49AB JUMP JUMPDEST PUSH2 0x3750 SWAP1 PUSH1 0xB9 PUSH2 0x49C2 JUMP JUMPDEST DUP5 PUSH2 0x1E0 ADD MLOAD DUP3 DUP2 MLOAD DUP2 LT PUSH2 0x3767 JUMPI PUSH2 0x3767 PUSH2 0x49D5 JUMP JUMPDEST PUSH1 0x20 MUL PUSH1 0x20 ADD ADD MLOAD SWAP1 SHL DUP3 OR SWAP2 POP DUP1 PUSH1 0x1 ADD SWAP1 POP PUSH2 0x372C JUMP JUMPDEST POP PUSH2 0x220 DUP4 ADD MLOAD PUSH2 0x200 SWAP1 SWAP4 ADD MLOAD PUSH1 0xF0 SHL PUSH1 0xEB SWAP4 SWAP1 SWAP4 SHL OR SWAP2 SWAP1 SWAP2 OR SWAP2 SWAP1 POP JUMP JUMPDEST PUSH1 0x0 DUP1 PUSH1 0x0 DUP4 MLOAD GT PUSH2 0x37F5 JUMPI PUSH1 0x40 MLOAD PUSH3 0x461BCD PUSH1 0xE5 SHL DUP2 MSTORE PUSH1 0x20 PUSH1 0x4 DUP3 ADD MSTORE PUSH1 0x14 PUSH1 0x24 DUP3 ADD MSTORE PUSH32 0x4172726179206D757374206E6F7420656D707479000000000000000000000000 PUSH1 0x44 DUP3 ADD MSTORE PUSH1 0x64 ADD PUSH2 0xB67 JUMP JUMPDEST PUSH1 0x0 DUP1 JUMPDEST DUP5 MLOAD DUP2 LT ISZERO PUSH2 0x3831 JUMPI DUP5 DUP2 DUP2 MLOAD DUP2 LT PUSH2 0x3814 JUMPI PUSH2 0x3814 PUSH2 0x49D5 JUMP JUMPDEST PUSH1 0x20 MUL PUSH1 0x20 ADD ADD MLOAD DUP3 PUSH2 0x3827 SWAP2 SWAP1 PUSH2 0x49C2 JUMP JUMPDEST SWAP2 POP PUSH1 0x1 ADD PUSH2 0x37F9 JUMP JUMPDEST POP PUSH1 0x0 PUSH2 0x3840 DUP7 PUSH1 0x0 DUP5 PUSH2 0x3B68 JUMP JUMPDEST SWAP1 SWAP7 POP SWAP1 POP PUSH1 0x0 DUP1 JUMPDEST DUP7 MLOAD DUP2 LT ISZERO PUSH2 0x3897 JUMPI DUP7 DUP2 DUP2 MLOAD DUP2 LT PUSH2 0x3864 JUMPI PUSH2 0x3864 PUSH2 0x49D5 JUMP JUMPDEST PUSH1 0x20 MUL PUSH1 0x20 ADD ADD MLOAD DUP3 PUSH2 0x3877 SWAP2 SWAP1 PUSH2 0x49C2 JUMP JUMPDEST SWAP2 POP DUP2 DUP4 LT ISZERO PUSH2 0x388F JUMPI DUP8 SWAP6 POP SWAP4 POP PUSH2 0x38A3 SWAP3 POP POP POP JUMP JUMPDEST PUSH1 0x1 ADD PUSH2 0x3849 JUMP JUMPDEST POP DUP7 PUSH1 0x0 SWAP5 POP SWAP5 POP POP POP POP JUMPDEST SWAP3 POP SWAP3 SWAP1 POP JUMP JUMPDEST PUSH1 0x0 DUP1 PUSH2 0x38C2 DUP6 DUP6 PUSH2 0x38BD DUP7 PUSH1 0x1 PUSH2 0x49C2 JUMP JUMPDEST PUSH2 0x3B68 JUMP JUMPDEST SWAP2 POP SWAP2 POP SWAP4 POP SWAP4 SWAP2 POP POP JUMP JUMPDEST PUSH1 0x0 DUP3 DUP2 MSTORE PUSH1 0x65 PUSH1 0x20 SWAP1 DUP2 MSTORE PUSH1 0x40 DUP1 DUP4 KECCAK256 PUSH1 0x1 PUSH1 0x1 PUSH1 0xA0 SHL SUB DUP6 AND DUP5 MSTORE SWAP1 SWAP2 MSTORE SWAP1 KECCAK256 SLOAD PUSH1 0xFF AND PUSH2 0xE79 JUMPI PUSH2 0x3901 DUP2 PUSH2 0x3BE6 JUMP JUMPDEST PUSH2 0x390C DUP4 PUSH1 0x20 PUSH2 0x3BF8 JUMP JUMPDEST PUSH1 0x40 MLOAD PUSH1 0x20 ADD PUSH2 0x391D SWAP3 SWAP2 SWAP1 PUSH2 0x4A3B JUMP JUMPDEST PUSH1 0x40 DUP1 MLOAD PUSH1 0x1F NOT DUP2 DUP5 SUB ADD DUP2 MSTORE SWAP1 DUP3 SWAP1 MSTORE PUSH3 0x461BCD PUSH1 0xE5 SHL DUP3 MSTORE PUSH2 0xB67 SWAP2 PUSH1 0x4 ADD PUSH2 0x4ABC JUMP JUMPDEST PUSH1 0x1 PUSH1 0x1 PUSH1 0xA0 SHL SUB DUP2 AND EXTCODESIZE PUSH2 0x39C0 JUMPI PUSH1 0x40 MLOAD PUSH3 0x461BCD PUSH1 0xE5 SHL DUP2 MSTORE PUSH1 0x20 PUSH1 0x4 DUP3 ADD MSTORE PUSH1 0x2D PUSH1 0x24 DUP3 ADD MSTORE PUSH32 0x455243313936373A206E657720696D706C656D656E746174696F6E206973206E PUSH1 0x44 DUP3 ADD MSTORE PUSH32 0x6F74206120636F6E747261637400000000000000000000000000000000000000 PUSH1 0x64 DUP3 ADD MSTORE PUSH1 0x84 ADD PUSH2 0xB67 JUMP JUMPDEST PUSH32 0x360894A13BA1A3210667C828492DB98DCA3E2076CC3735A920A3CA505D382BBC DUP1 SLOAD PUSH32 0xFFFFFFFFFFFFFFFFFFFFFFFF0000000000000000000000000000000000000000 AND PUSH1 0x1 PUSH1 0x1 PUSH1 0xA0 SHL SUB SWAP3 SWAP1 SWAP3 AND SWAP2 SWAP1 SWAP2 OR SWAP1 SSTORE JUMP JUMPDEST PUSH2 0x3A22 DUP4 PUSH2 0x3E21 JUMP JUMPDEST PUSH1 0x0 DUP3 MLOAD GT DUP1 PUSH2 0x3A2F JUMPI POP DUP1 JUMPDEST ISZERO PUSH2 0xD48 JUMPI PUSH2 0x2998 DUP4 DUP4 PUSH2 0x3E61 JUMP JUMPDEST PUSH1 0x0 PUSH1 0x60 DUP3 DUP6 DUP1 SLOAD SWAP1 POP LT ISZERO PUSH2 0x3A96 JUMPI PUSH1 0x40 MLOAD PUSH3 0x461BCD PUSH1 0xE5 SHL DUP2 MSTORE PUSH1 0x20 PUSH1 0x4 DUP3 ADD MSTORE PUSH1 0x15 PUSH1 0x24 DUP3 ADD MSTORE PUSH32 0x496E76616C69642073616D706C696E672073697A650000000000000000000000 PUSH1 0x44 DUP3 ADD MSTORE PUSH1 0x64 ADD PUSH2 0xB67 JUMP JUMPDEST DUP3 PUSH8 0xFFFFFFFFFFFFFFFF DUP2 GT ISZERO PUSH2 0x3AAF JUMPI PUSH2 0x3AAF PUSH2 0x446E JUMP JUMPDEST PUSH1 0x40 MLOAD SWAP1 DUP1 DUP3 MSTORE DUP1 PUSH1 0x20 MUL PUSH1 0x20 ADD DUP3 ADD PUSH1 0x40 MSTORE DUP1 ISZERO PUSH2 0x3AD8 JUMPI DUP2 PUSH1 0x20 ADD PUSH1 0x20 DUP3 MUL DUP1 CALLDATASIZE DUP4 CALLDATACOPY ADD SWAP1 POP JUMPDEST POP SWAP1 POP PUSH1 0x0 DUP1 JUMPDEST DUP5 DUP2 LT ISZERO PUSH2 0x3B5B JUMPI PUSH2 0x3AF1 DUP9 DUP8 PUSH2 0x37A1 JUMP JUMPDEST DUP1 SWAP4 POP DUP2 SWAP10 POP POP POP PUSH1 0x0 DUP7 DUP4 DUP2 MLOAD DUP2 LT PUSH2 0x3B0D JUMPI PUSH2 0x3B0D PUSH2 0x49D5 JUMP JUMPDEST PUSH1 0x20 MUL PUSH1 0x20 ADD ADD DUP2 DUP2 MSTORE POP POP DUP7 DUP3 DUP2 SLOAD DUP2 LT PUSH2 0x3B2B JUMPI PUSH2 0x3B2B PUSH2 0x49D5 JUMP JUMPDEST SWAP1 PUSH1 0x0 MSTORE PUSH1 0x20 PUSH1 0x0 KECCAK256 ADD SLOAD DUP4 DUP3 DUP2 MLOAD DUP2 LT PUSH2 0x3B48 JUMPI PUSH2 0x3B48 PUSH2 0x49D5 JUMP JUMPDEST PUSH1 0x20 SWAP1 DUP2 MUL SWAP2 SWAP1 SWAP2 ADD ADD MSTORE PUSH1 0x1 ADD PUSH2 0x3ADF JUMP JUMPDEST POP SWAP6 SWAP7 SWAP1 SWAP6 POP SWAP4 POP POP POP POP JUMP JUMPDEST PUSH1 0x0 DUP1 DUP3 DUP5 LT PUSH2 0x3BBA JUMPI PUSH1 0x40 MLOAD PUSH3 0x461BCD PUSH1 0xE5 SHL DUP2 MSTORE PUSH1 0x20 PUSH1 0x4 DUP3 ADD MSTORE PUSH1 0x14 PUSH1 0x24 DUP3 ADD MSTORE PUSH32 0x496E76616C69642072616E646F6D2072616E6765000000000000000000000000 PUSH1 0x44 DUP3 ADD MSTORE PUSH1 0x64 ADD PUSH2 0xB67 JUMP JUMPDEST PUSH2 0x3BCD DUP6 PUSH2 0x3BC8 DUP7 DUP7 PUSH2 0x49EB JUMP JUMPDEST PUSH2 0x3E86 JUMP JUMPDEST SWAP1 SWAP3 POP SWAP1 POP PUSH2 0x3BDC DUP5 DUP3 PUSH2 0x49C2 JUMP JUMPDEST SWAP1 POP SWAP4 POP SWAP4 SWAP2 POP POP JUMP JUMPDEST PUSH1 0x60 PUSH2 0xA2A PUSH1 0x1 PUSH1 0x1 PUSH1 0xA0 SHL SUB DUP4 AND PUSH1 0x14 JUMPDEST PUSH1 0x60 PUSH1 0x0 PUSH2 0x3C07 DUP4 PUSH1 0x2 PUSH2 0x49AB JUMP JUMPDEST PUSH2 0x3C12 SWAP1 PUSH1 0x2 PUSH2 0x49C2 JUMP JUMPDEST PUSH8 0xFFFFFFFFFFFFFFFF DUP2 GT ISZERO PUSH2 0x3C2A JUMPI PUSH2 0x3C2A PUSH2 0x446E JUMP JUMPDEST PUSH1 0x40 MLOAD SWAP1 DUP1 DUP3 MSTORE DUP1 PUSH1 0x1F ADD PUSH1 0x1F NOT AND PUSH1 0x20 ADD DUP3 ADD PUSH1 0x40 MSTORE DUP1 ISZERO PUSH2 0x3C54 JUMPI PUSH1 0x20 DUP3 ADD DUP2 DUP1 CALLDATASIZE DUP4 CALLDATACOPY ADD SWAP1 POP JUMPDEST POP SWAP1 POP PUSH32 0x3000000000000000000000000000000000000000000000000000000000000000 DUP2 PUSH1 0x0 DUP2 MLOAD DUP2 LT PUSH2 0x3C8B JUMPI PUSH2 0x3C8B PUSH2 0x49D5 JUMP JUMPDEST PUSH1 0x20 ADD ADD SWAP1 PUSH31 0xFFFFFFFFFFFFFFFFFFFFFFFFFFFFFFFFFFFFFFFFFFFFFFFFFFFFFFFFFFFFFF NOT AND SWAP1 DUP2 PUSH1 0x0 BYTE SWAP1 MSTORE8 POP PUSH32 0x7800000000000000000000000000000000000000000000000000000000000000 DUP2 PUSH1 0x1 DUP2 MLOAD DUP2 LT PUSH2 0x3CEE JUMPI PUSH2 0x3CEE PUSH2 0x49D5 JUMP JUMPDEST PUSH1 0x20 ADD ADD SWAP1 PUSH31 0xFFFFFFFFFFFFFFFFFFFFFFFFFFFFFFFFFFFFFFFFFFFFFFFFFFFFFFFFFFFFFF NOT AND SWAP1 DUP2 PUSH1 0x0 BYTE SWAP1 MSTORE8 POP PUSH1 0x0 PUSH2 0x3D2A DUP5 PUSH1 0x2 PUSH2 0x49AB JUMP JUMPDEST PUSH2 0x3D35 SWAP1 PUSH1 0x1 PUSH2 0x49C2 JUMP JUMPDEST SWAP1 POP JUMPDEST PUSH1 0x1 DUP2 GT ISZERO PUSH2 0x3DD2 JUMPI PUSH32 0x3031323334353637383961626364656600000000000000000000000000000000 DUP6 PUSH1 0xF AND PUSH1 0x10 DUP2 LT PUSH2 0x3D76 JUMPI PUSH2 0x3D76 PUSH2 0x49D5 JUMP JUMPDEST BYTE PUSH1 0xF8 SHL DUP3 DUP3 DUP2 MLOAD DUP2 LT PUSH2 0x3D8C JUMPI PUSH2 0x3D8C PUSH2 0x49D5 JUMP JUMPDEST PUSH1 0x20 ADD ADD SWAP1 PUSH31 0xFFFFFFFFFFFFFFFFFFFFFFFFFFFFFFFFFFFFFFFFFFFFFFFFFFFFFFFFFFFFFF NOT AND SWAP1 DUP2 PUSH1 0x0 BYTE SWAP1 MSTORE8 POP PUSH1 0x4 SWAP5 SWAP1 SWAP5 SHR SWAP4 PUSH2 0x3DCB DUP2 PUSH2 0x4AEF JUMP JUMPDEST SWAP1 POP PUSH2 0x3D38 JUMP JUMPDEST POP DUP4 ISZERO PUSH2 0x2F22 JUMPI PUSH1 0x40 MLOAD PUSH3 0x461BCD PUSH1 0xE5 SHL DUP2 MSTORE PUSH1 0x20 PUSH1 0x4 DUP3 ADD DUP2 SWAP1 MSTORE PUSH1 0x24 DUP3 ADD MSTORE PUSH32 0x537472696E67733A20686578206C656E67746820696E73756666696369656E74 PUSH1 0x44 DUP3 ADD MSTORE PUSH1 0x64 ADD PUSH2 0xB67 JUMP JUMPDEST PUSH2 0x3E2A DUP2 PUSH2 0x3943 JUMP JUMPDEST PUSH1 0x40 MLOAD PUSH1 0x1 PUSH1 0x1 PUSH1 0xA0 SHL SUB DUP3 AND SWAP1 PUSH32 0xBC7CD75A20EE27FD9ADEBAB32041F755214DBC6BFFA90CC0225B39DA2E5C2D3B SWAP1 PUSH1 0x0 SWAP1 LOG2 POP JUMP JUMPDEST PUSH1 0x60 PUSH2 0x2F22 DUP4 DUP4 PUSH1 0x40 MLOAD DUP1 PUSH1 0x60 ADD PUSH1 0x40 MSTORE DUP1 PUSH1 0x27 DUP2 MSTORE PUSH1 0x20 ADD PUSH2 0x4B83 PUSH1 0x27 SWAP2 CODECOPY PUSH2 0x3EA7 JUMP JUMPDEST PUSH1 0x0 DUP1 PUSH2 0x3E92 DUP5 PUSH2 0x3F1F JUMP JUMPDEST SWAP2 POP PUSH2 0x3E9E DUP4 DUP4 PUSH2 0x4B24 JUMP JUMPDEST SWAP1 POP SWAP3 POP SWAP3 SWAP1 POP JUMP JUMPDEST PUSH1 0x60 PUSH1 0x0 DUP1 DUP6 PUSH1 0x1 PUSH1 0x1 PUSH1 0xA0 SHL SUB AND DUP6 PUSH1 0x40 MLOAD PUSH2 0x3EC4 SWAP2 SWAP1 PUSH2 0x4B46 JUMP JUMPDEST PUSH1 0x0 PUSH1 0x40 MLOAD DUP1 DUP4 SUB DUP2 DUP6 GAS DELEGATECALL SWAP2 POP POP RETURNDATASIZE DUP1 PUSH1 0x0 DUP2 EQ PUSH2 0x3EFF JUMPI PUSH1 0x40 MLOAD SWAP2 POP PUSH1 0x1F NOT PUSH1 0x3F RETURNDATASIZE ADD AND DUP3 ADD PUSH1 0x40 MSTORE RETURNDATASIZE DUP3 MSTORE RETURNDATASIZE PUSH1 0x0 PUSH1 0x20 DUP5 ADD RETURNDATACOPY PUSH2 0x3F04 JUMP JUMPDEST PUSH1 0x60 SWAP2 POP JUMPDEST POP SWAP2 POP SWAP2 POP PUSH2 0x3F15 DUP7 DUP4 DUP4 DUP8 PUSH2 0x3F6D JUMP JUMPDEST SWAP7 SWAP6 POP POP POP POP POP POP JUMP JUMPDEST PUSH1 0x0 TIMESTAMP PUSH2 0x3F2D PUSH1 0x1 NUMBER PUSH2 0x49EB JUMP JUMPDEST PUSH1 0x40 DUP1 MLOAD PUSH1 0x20 DUP2 ADD SWAP4 SWAP1 SWAP4 MSTORE SWAP1 BLOCKHASH SWAP1 DUP3 ADD MSTORE PREVRANDAO PUSH1 0x60 DUP3 ADD MSTORE PUSH1 0x80 DUP2 ADD DUP4 SWAP1 MSTORE PUSH1 0xA0 ADD PUSH1 0x40 DUP1 MLOAD PUSH1 0x1F NOT DUP2 DUP5 SUB ADD DUP2 MSTORE SWAP2 SWAP1 MSTORE DUP1 MLOAD PUSH1 0x20 SWAP1 SWAP2 ADD KECCAK256 SWAP3 SWAP2 POP POP JUMP JUMPDEST PUSH1 0x60 DUP4 ISZERO PUSH2 0x3FDC JUMPI DUP3 MLOAD PUSH1 0x0 SUB PUSH2 0x3FD5 JUMPI PUSH1 0x1 PUSH1 0x1 PUSH1 0xA0 SHL SUB DUP6 AND EXTCODESIZE PUSH2 0x3FD5 JUMPI PUSH1 0x40 MLOAD PUSH3 0x461BCD PUSH1 0xE5 SHL DUP2 MSTORE PUSH1 0x20 PUSH1 0x4 DUP3 ADD MSTORE PUSH1 0x1D PUSH1 0x24 DUP3 ADD MSTORE PUSH32 0x416464726573733A2063616C6C20746F206E6F6E2D636F6E7472616374000000 PUSH1 0x44 DUP3 ADD MSTORE PUSH1 0x64 ADD PUSH2 0xB67 JUMP JUMPDEST POP DUP2 PUSH2 0x3FE6 JUMP JUMPDEST PUSH2 0x3FE6 DUP4 DUP4 PUSH2 0x3FEE JUMP JUMPDEST SWAP5 SWAP4 POP POP POP POP JUMP JUMPDEST DUP2 MLOAD ISZERO PUSH2 0x3FFE JUMPI DUP2 MLOAD DUP1 DUP4 PUSH1 0x20 ADD REVERT JUMPDEST DUP1 PUSH1 0x40 MLOAD PUSH3 0x461BCD PUSH1 0xE5 SHL DUP2 MSTORE PUSH1 0x4 ADD PUSH2 0xB67 SWAP2 SWAP1 PUSH2 0x4ABC JUMP JUMPDEST DUP3 DUP1 SLOAD DUP3 DUP3 SSTORE SWAP1 PUSH1 0x0 MSTORE PUSH1 0x20 PUSH1 0x0 KECCAK256 SWAP1 DUP2 ADD SWAP3 DUP3 ISZERO PUSH2 0x4053 JUMPI SWAP2 PUSH1 0x20 MUL DUP3 ADD JUMPDEST DUP3 DUP2 GT ISZERO PUSH2 0x4053 JUMPI DUP3 MLOAD DUP3 SSTORE SWAP2 PUSH1 0x20 ADD SWAP2 SWAP1 PUSH1 0x1 ADD SWAP1 PUSH2 0x4038 JUMP JUMPDEST POP PUSH2 0x405F SWAP3 SWAP2 POP PUSH2 0x424A JUMP JUMPDEST POP SWAP1 JUMP JUMPDEST DUP3 DUP1 SLOAD DUP3 DUP3 SSTORE SWAP1 PUSH1 0x0 MSTORE PUSH1 0x20 PUSH1 0x0 KECCAK256 SWAP1 DUP2 ADD SWAP3 DUP3 ISZERO PUSH2 0x4053 JUMPI SWAP2 PUSH1 0x20 MUL DUP3 ADD JUMPDEST DUP3 DUP2 GT ISZERO PUSH2 0x4053 JUMPI DUP3 MLOAD DUP3 SWAP1 PUSH1 0xFF AND SWAP1 SSTORE SWAP2 PUSH1 0x20 ADD SWAP2 SWAP1 PUSH1 0x1 ADD SWAP1 PUSH2 0x4083 JUMP JUMPDEST DUP3 DUP1 SLOAD DUP3 DUP3 SSTORE SWAP1 PUSH1 0x0 MSTORE PUSH1 0x20 PUSH1 0x0 KECCAK256 SWAP1 DUP2 ADD SWAP3 DUP3 ISZERO PUSH2 0x4053 JUMPI SWAP2 PUSH1 0x20 MUL DUP3 ADD JUMPDEST DUP3 DUP2 GT ISZERO PUSH2 0x4053 JUMPI DUP3 MLOAD DUP3 SWAP1 PUSH2 0xFFFF AND SWAP1 SSTORE SWAP2 PUSH1 0x20 ADD SWAP2 SWAP1 PUSH1 0x1 ADD SWAP1 PUSH2 0x40C3 JUMP JUMPDEST DUP3 DUP1 SLOAD DUP3 DUP3 SSTORE SWAP1 PUSH1 0x0 MSTORE PUSH1 0x20 PUSH1 0x0 KECCAK256 SWAP1 DUP2 ADD SWAP3 DUP3 ISZERO PUSH2 0x4053 JUMPI SWAP2 PUSH1 0x20 MUL DUP3 ADD JUMPDEST DUP3 DUP2 GT ISZERO PUSH2 0x4053 JUMPI DUP3 MLOAD DUP3 SWAP1 PUSH8 0xFFFFFFFFFFFFFFFF AND SWAP1 SSTORE SWAP2 PUSH1 0x20 ADD SWAP2 SWAP1 PUSH1 0x1 ADD SWAP1 PUSH2 0x4104 JUMP JUMPDEST DUP3 DUP1 SLOAD DUP3 DUP3 SSTORE SWAP1 PUSH1 0x0 MSTORE PUSH1 0x20 PUSH1 0x0 KECCAK256 SWAP1 DUP2 ADD SWAP3 DUP3 ISZERO PUSH2 0x4053 JUMPI SWAP2 PUSH1 0x20 MUL DUP3 ADD JUMPDEST DUP3 DUP2 GT ISZERO PUSH2 0x4053 JUMPI DUP3 MLOAD DUP3 SWAP1 PUSH9 0xFFFFFFFFFFFFFFFFFF AND SWAP1 SSTORE SWAP2 PUSH1 0x20 ADD SWAP2 SWAP1 PUSH1 0x1 ADD SWAP1 PUSH2 0x414B JUMP JUMPDEST PUSH1 0x40 DUP1 MLOAD PUSH2 0x100 DUP2 ADD SWAP1 SWAP2 MSTORE PUSH1 0x0 PUSH1 0xC0 DUP3 ADD DUP2 DUP2 MSTORE PUSH1 0xE0 DUP4 ADD SWAP2 SWAP1 SWAP2 MSTORE DUP2 SWAP1 DUP2 MSTORE PUSH1 0x20 ADD PUSH2 0x41B4 PUSH1 0x40 MLOAD DUP1 PUSH1 0x40 ADD PUSH1 0x40 MSTORE DUP1 PUSH1 0x0 DUP2 MSTORE PUSH1 0x20 ADD PUSH1 0x0 DUP2 MSTORE POP SWAP1 JUMP JUMPDEST DUP2 MSTORE PUSH1 0x20 ADD PUSH1 0x0 DUP2 MSTORE PUSH1 0x20 ADD PUSH2 0x41DD PUSH1 0x40 MLOAD DUP1 PUSH1 0x40 ADD PUSH1 0x40 MSTORE DUP1 PUSH1 0x0 DUP2 MSTORE PUSH1 0x20 ADD PUSH1 0x0 DUP2 MSTORE POP SWAP1 JUMP JUMPDEST DUP2 MSTORE PUSH1 0x20 ADD PUSH1 0x0 DUP2 MSTORE PUSH1 0x20 ADD PUSH1 0x0 DUP2 MSTORE POP SWAP1 JUMP JUMPDEST DUP3 DUP1 SLOAD DUP3 DUP3 SSTORE SWAP1 PUSH1 0x0 MSTORE PUSH1 0x20 PUSH1 0x0 KECCAK256 SWAP1 DUP2 ADD SWAP3 DUP3 ISZERO PUSH2 0x423E JUMPI SWAP2 PUSH1 0x20 MUL DUP3 ADD JUMPDEST DUP3 DUP2 GT ISZERO PUSH2 0x423E JUMPI DUP3 MLOAD DUP1 MLOAD PUSH2 0x422E SWAP2 DUP5 SWAP2 PUSH1 0x20 SWAP1 SWAP2 ADD SWAP1 PUSH2 0x4018 JUMP JUMPDEST POP SWAP2 PUSH1 0x20 ADD SWAP2 SWAP1 PUSH1 0x1 ADD SWAP1 PUSH2 0x4211 JUMP JUMPDEST POP PUSH2 0x405F SWAP3 SWAP2 POP PUSH2 0x425F JUMP JUMPDEST JUMPDEST DUP1 DUP3 GT ISZERO PUSH2 0x405F JUMPI PUSH1 0x0 DUP2 SSTORE PUSH1 0x1 ADD PUSH2 0x424B JUMP JUMPDEST DUP1 DUP3 GT ISZERO PUSH2 0x405F JUMPI PUSH1 0x0 PUSH2 0x4273 DUP3 DUP3 PUSH2 0x427C JUMP JUMPDEST POP PUSH1 0x1 ADD PUSH2 0x425F JUMP JUMPDEST POP DUP1 SLOAD PUSH1 0x0 DUP3 SSTORE SWAP1 PUSH1 0x0 MSTORE PUSH1 0x20 PUSH1 0x0 KECCAK256 SWAP1 DUP2 ADD SWAP1 PUSH2 0x1017 SWAP2 SWAP1 PUSH2 0x424A JUMP JUMPDEST PUSH1 0x0 PUSH1 0x20 DUP1 DUP4 ADD DUP2 DUP5 MSTORE DUP1 DUP6 MLOAD DUP1 DUP4 MSTORE PUSH1 0x40 DUP7 ADD SWAP2 POP PUSH1 0x40 DUP2 PUSH1 0x5 SHL DUP8 ADD ADD SWAP3 POP DUP4 DUP8 ADD PUSH1 0x0 DUP1 JUMPDEST DUP4 DUP2 LT ISZERO PUSH2 0x4334 JUMPI DUP9 DUP7 SUB PUSH32 0xFFFFFFFFFFFFFFFFFFFFFFFFFFFFFFFFFFFFFFFFFFFFFFFFFFFFFFFFFFFFFFC0 ADD DUP6 MSTORE DUP3 MLOAD DUP1 MLOAD DUP1 DUP9 MSTORE SWAP1 DUP9 ADD SWAP1 DUP9 DUP9 ADD SWAP1 DUP5 JUMPDEST DUP2 DUP2 LT ISZERO PUSH2 0x431E JUMPI DUP4 MLOAD DUP4 MSTORE SWAP3 DUP11 ADD SWAP3 SWAP2 DUP11 ADD SWAP2 PUSH1 0x1 ADD PUSH2 0x4302 JUMP JUMPDEST POP SWAP1 SWAP8 POP POP POP SWAP4 DUP7 ADD SWAP4 SWAP2 DUP7 ADD SWAP2 PUSH1 0x1 ADD PUSH2 0x42C2 JUMP JUMPDEST POP SWAP4 SWAP9 SWAP8 POP POP POP POP POP POP POP POP JUMP JUMPDEST PUSH1 0x0 PUSH1 0x20 DUP3 DUP5 SUB SLT ISZERO PUSH2 0x4354 JUMPI PUSH1 0x0 DUP1 REVERT JUMPDEST DUP2 CALLDATALOAD PUSH32 0xFFFFFFFF00000000000000000000000000000000000000000000000000000000 DUP2 AND DUP2 EQ PUSH2 0x2F22 JUMPI PUSH1 0x0 DUP1 REVERT JUMPDEST PUSH1 0x0 DUP1 PUSH1 0x0 PUSH1 0x60 DUP5 DUP7 SUB SLT ISZERO PUSH2 0x4399 JUMPI PUSH1 0x0 DUP1 REVERT JUMPDEST POP POP DUP2 CALLDATALOAD SWAP4 PUSH1 0x20 DUP4 ADD CALLDATALOAD SWAP4 POP PUSH1 0x40 SWAP1 SWAP3 ADD CALLDATALOAD SWAP2 SWAP1 POP JUMP JUMPDEST PUSH1 0x20 DUP1 DUP3 MSTORE DUP3 MLOAD DUP3 DUP3 ADD DUP2 SWAP1 MSTORE PUSH1 0x0 SWAP2 SWAP1 DUP5 DUP3 ADD SWAP1 PUSH1 0x40 DUP6 ADD SWAP1 DUP5 JUMPDEST DUP2 DUP2 LT ISZERO PUSH2 0x43E8 JUMPI DUP4 MLOAD DUP4 MSTORE SWAP3 DUP5 ADD SWAP3 SWAP2 DUP5 ADD SWAP2 PUSH1 0x1 ADD PUSH2 0x43CC JUMP JUMPDEST POP SWAP1 SWAP7 SWAP6 POP POP POP POP POP POP JUMP JUMPDEST PUSH1 0x0 PUSH1 0x20 DUP3 DUP5 SUB SLT ISZERO PUSH2 0x4406 JUMPI PUSH1 0x0 DUP1 REVERT JUMPDEST POP CALLDATALOAD SWAP2 SWAP1 POP JUMP JUMPDEST PUSH1 0x0 DUP1 PUSH1 0x40 DUP4 DUP6 SUB SLT ISZERO PUSH2 0x4420 JUMPI PUSH1 0x0 DUP1 REVERT JUMPDEST POP POP DUP1 CALLDATALOAD SWAP3 PUSH1 0x20 SWAP1 SWAP2 ADD CALLDATALOAD SWAP2 POP JUMP JUMPDEST DUP1 CALLDATALOAD PUSH1 0x1 PUSH1 0x1 PUSH1 0xA0 SHL SUB DUP2 AND DUP2 EQ PUSH2 0x4446 JUMPI PUSH1 0x0 DUP1 REVERT JUMPDEST SWAP2 SWAP1 POP JUMP JUMPDEST PUSH1 0x0 DUP1 PUSH1 0x40 DUP4 DUP6 SUB SLT ISZERO PUSH2 0x445E JUMPI PUSH1 0x0 DUP1 REVERT JUMPDEST DUP3 CALLDATALOAD SWAP2 POP PUSH2 0x3E9E PUSH1 0x20 DUP5 ADD PUSH2 0x442F JUMP JUMPDEST PUSH4 0x4E487B71 PUSH1 0xE0 SHL PUSH1 0x0 MSTORE PUSH1 0x41 PUSH1 0x4 MSTORE PUSH1 0x24 PUSH1 0x0 REVERT JUMPDEST PUSH1 0x40 MLOAD PUSH1 0xC0 DUP2 ADD PUSH8 0xFFFFFFFFFFFFFFFF DUP2 GT DUP3 DUP3 LT OR ISZERO PUSH2 0x44A7 JUMPI PUSH2 0x44A7 PUSH2 0x446E JUMP JUMPDEST PUSH1 0x40 MSTORE SWAP1 JUMP JUMPDEST PUSH1 0x40 MLOAD PUSH1 0x1F DUP3 ADD PUSH1 0x1F NOT AND DUP2 ADD PUSH8 0xFFFFFFFFFFFFFFFF DUP2 GT DUP3 DUP3 LT OR ISZERO PUSH2 0x44D6 JUMPI PUSH2 0x44D6 PUSH2 0x446E JUMP JUMPDEST PUSH1 0x40 MSTORE SWAP2 SWAP1 POP JUMP JUMPDEST PUSH1 0x0 PUSH8 0xFFFFFFFFFFFFFFFF DUP3 GT ISZERO PUSH2 0x44F8 JUMPI PUSH2 0x44F8 PUSH2 0x446E JUMP JUMPDEST POP PUSH1 0x5 SHL PUSH1 0x20 ADD SWAP1 JUMP JUMPDEST PUSH1 0x0 DUP3 PUSH1 0x1F DUP4 ADD SLT PUSH2 0x4513 JUMPI PUSH1 0x0 DUP1 REVERT JUMPDEST DUP2 CALLDATALOAD PUSH1 0x20 PUSH2 0x4528 PUSH2 0x4523 DUP4 PUSH2 0x44DE JUMP JUMPDEST PUSH2 0x44AD JUMP JUMPDEST DUP1 DUP4 DUP3 MSTORE PUSH1 0x20 DUP3 ADD SWAP2 POP PUSH1 0x20 DUP5 PUSH1 0x5 SHL DUP8 ADD ADD SWAP4 POP DUP7 DUP5 GT ISZERO PUSH2 0x454A JUMPI PUSH1 0x0 DUP1 REVERT JUMPDEST PUSH1 0x20 DUP7 ADD JUMPDEST DUP5 DUP2 LT ISZERO PUSH2 0x4566 JUMPI DUP1 CALLDATALOAD DUP4 MSTORE SWAP2 DUP4 ADD SWAP2 DUP4 ADD PUSH2 0x454F JUMP JUMPDEST POP SWAP7 SWAP6 POP POP POP POP POP POP JUMP JUMPDEST PUSH1 0x0 PUSH1 0x20 DUP3 DUP5 SUB SLT ISZERO PUSH2 0x4583 JUMPI PUSH1 0x0 DUP1 REVERT JUMPDEST DUP2 CALLDATALOAD PUSH8 0xFFFFFFFFFFFFFFFF DUP2 GT ISZERO PUSH2 0x459A JUMPI PUSH1 0x0 DUP1 REVERT JUMPDEST PUSH2 0x3FE6 DUP5 DUP3 DUP6 ADD PUSH2 0x4502 JUMP JUMPDEST PUSH1 0x0 PUSH1 0x20 DUP3 DUP5 SUB SLT ISZERO PUSH2 0x45B8 JUMPI PUSH1 0x0 DUP1 REVERT JUMPDEST PUSH2 0x2F22 DUP3 PUSH2 0x442F JUMP JUMPDEST PUSH1 0x0 DUP1 PUSH1 0x40 DUP4 DUP6 SUB SLT ISZERO PUSH2 0x45D4 JUMPI PUSH1 0x0 DUP1 REVERT JUMPDEST PUSH2 0x45DD DUP4 PUSH2 0x442F JUMP JUMPDEST SWAP2 POP PUSH1 0x20 DUP1 DUP5 ADD CALLDATALOAD PUSH8 0xFFFFFFFFFFFFFFFF DUP1 DUP3 GT ISZERO PUSH2 0x45FB JUMPI PUSH1 0x0 DUP1 REVERT JUMPDEST DUP2 DUP7 ADD SWAP2 POP DUP7 PUSH1 0x1F DUP4 ADD SLT PUSH2 0x460F JUMPI PUSH1 0x0 DUP1 REVERT JUMPDEST DUP2 CALLDATALOAD DUP2 DUP2 GT ISZERO PUSH2 0x4621 JUMPI PUSH2 0x4621 PUSH2 0x446E JUMP JUMPDEST PUSH2 0x4633 DUP5 PUSH1 0x1F NOT PUSH1 0x1F DUP5 ADD AND ADD PUSH2 0x44AD JUMP JUMPDEST SWAP2 POP DUP1 DUP3 MSTORE DUP8 DUP5 DUP3 DUP6 ADD ADD GT ISZERO PUSH2 0x4649 JUMPI PUSH1 0x0 DUP1 REVERT JUMPDEST DUP1 DUP5 DUP5 ADD DUP6 DUP5 ADD CALLDATACOPY PUSH1 0x0 DUP5 DUP3 DUP5 ADD ADD MSTORE POP DUP1 SWAP4 POP POP POP POP SWAP3 POP SWAP3 SWAP1 POP JUMP JUMPDEST PUSH1 0x20 DUP1 DUP3 MSTORE DUP3 MLOAD DUP3 DUP3 ADD DUP2 SWAP1 MSTORE PUSH1 0x0 SWAP2 SWAP1 PUSH1 0x40 SWAP1 DUP2 DUP6 ADD SWAP1 DUP7 DUP5 ADD DUP6 JUMPDEST DUP3 DUP2 LT ISZERO PUSH2 0x470F JUMPI DUP2 MLOAD PUSH2 0x46A3 DUP6 DUP3 MLOAD DUP1 MLOAD DUP3 MSTORE PUSH1 0x20 SWAP1 DUP2 ADD MLOAD SWAP2 ADD MSTORE JUMP JUMPDEST DUP7 DUP2 ADD MLOAD PUSH2 0x46BD DUP8 DUP8 ADD DUP3 DUP1 MLOAD DUP3 MSTORE PUSH1 0x20 SWAP1 DUP2 ADD MLOAD SWAP2 ADD MSTORE JUMP JUMPDEST POP DUP6 DUP2 ADD MLOAD PUSH1 0x80 DUP2 DUP2 DUP9 ADD MSTORE PUSH1 0x60 DUP4 ADD MLOAD SWAP2 POP PUSH1 0xA0 PUSH2 0x46E8 DUP2 DUP10 ADD DUP5 DUP1 MLOAD DUP3 MSTORE PUSH1 0x20 SWAP1 DUP2 ADD MLOAD SWAP2 ADD MSTORE JUMP JUMPDEST SWAP1 DUP4 ADD MLOAD PUSH1 0xE0 DUP9 ADD MSTORE SWAP1 SWAP2 ADD MLOAD PUSH2 0x100 DUP7 ADD MSTORE POP PUSH2 0x120 SWAP1 SWAP4 ADD SWAP3 SWAP1 DUP6 ADD SWAP1 PUSH1 0x1 ADD PUSH2 0x4684 JUMP JUMPDEST POP SWAP2 SWAP8 SWAP7 POP POP POP POP POP POP POP JUMP JUMPDEST PUSH1 0x20 DUP1 DUP3 MSTORE DUP3 MLOAD DUP3 DUP3 ADD DUP2 SWAP1 MSTORE PUSH1 0x0 SWAP2 SWAP1 PUSH1 0x40 SWAP1 DUP2 DUP6 ADD SWAP1 DUP7 DUP5 ADD DUP6 JUMPDEST DUP3 DUP2 LT ISZERO PUSH2 0x470F JUMPI DUP2 MLOAD DUP1 MLOAD DUP6 MSTORE DUP7 DUP2 ADD MLOAD DUP8 DUP7 ADD MSTORE DUP6 ADD MLOAD DUP6 DUP6 ADD MSTORE PUSH1 0x60 SWAP1 SWAP4 ADD SWAP3 SWAP1 DUP6 ADD SWAP1 PUSH1 0x1 ADD PUSH2 0x4739 JUMP JUMPDEST PUSH1 0x0 DUP1 PUSH1 0x0 DUP1 PUSH1 0x80 DUP6 DUP8 SUB SLT ISZERO PUSH2 0x477E JUMPI PUSH1 0x0 DUP1 REVERT JUMPDEST POP POP DUP3 CALLDATALOAD SWAP5 PUSH1 0x20 DUP5 ADD CALLDATALOAD SWAP5 POP PUSH1 0x40 DUP5 ADD CALLDATALOAD SWAP4 PUSH1 0x60 ADD CALLDATALOAD SWAP3 POP SWAP1 POP JUMP JUMPDEST PUSH1 0x0 PUSH1 0x40 DUP3 DUP5 SUB SLT ISZERO PUSH2 0x47AC JUMPI PUSH1 0x0 DUP1 REVERT JUMPDEST PUSH1 0x40 MLOAD PUSH1 0x40 DUP2 ADD DUP2 DUP2 LT PUSH8 0xFFFFFFFFFFFFFFFF DUP3 GT OR ISZERO PUSH2 0x47CF JUMPI PUSH2 0x47CF PUSH2 0x446E JUMP JUMPDEST PUSH1 0x40 MSTORE DUP3 CALLDATALOAD DUP2 MSTORE PUSH1 0x20 SWAP3 DUP4 ADD CALLDATALOAD SWAP3 DUP2 ADD SWAP3 SWAP1 SWAP3 MSTORE POP SWAP2 SWAP1 POP JUMP JUMPDEST PUSH1 0x0 DUP1 DUP3 DUP5 SUB PUSH2 0x140 DUP2 SLT ISZERO PUSH2 0x47FE JUMPI PUSH1 0x0 DUP1 REVERT JUMPDEST DUP4 CALLDATALOAD SWAP3 POP PUSH2 0x120 DUP1 PUSH1 0x1F NOT DUP4 ADD SLT ISZERO PUSH2 0x4816 JUMPI PUSH1 0x0 DUP1 REVERT JUMPDEST PUSH2 0x481E PUSH2 0x4484 JUMP JUMPDEST SWAP2 POP PUSH2 0x482D DUP7 PUSH1 0x20 DUP8 ADD PUSH2 0x479A JUMP JUMPDEST DUP3 MSTORE PUSH2 0x483C DUP7 PUSH1 0x60 DUP8 ADD PUSH2 0x479A JUMP JUMPDEST PUSH1 0x20 DUP4 ADD MSTORE PUSH1 0xA0 DUP6 ADD CALLDATALOAD PUSH1 0x40 DUP4 ADD MSTORE PUSH2 0x4858 DUP7 PUSH1 0xC0 DUP8 ADD PUSH2 0x479A JUMP JUMPDEST PUSH1 0x60 DUP4 ADD MSTORE PUSH2 0x100 DUP6 ADD CALLDATALOAD PUSH1 0x80 DUP4 ADD MSTORE SWAP1 SWAP4 ADD CALLDATALOAD PUSH1 0xA0 DUP5 ADD MSTORE POP SWAP3 SWAP1 SWAP2 POP JUMP JUMPDEST PUSH1 0x0 DUP1 PUSH1 0xE0 DUP4 DUP6 SUB SLT ISZERO PUSH2 0x488B JUMPI PUSH1 0x0 DUP1 REVERT JUMPDEST DUP3 CALLDATALOAD SWAP2 POP PUSH1 0x20 DUP5 PUSH1 0x3F DUP6 ADD SLT PUSH2 0x48A0 JUMPI PUSH1 0x0 DUP1 REVERT JUMPDEST PUSH2 0x48A8 PUSH2 0x4484 JUMP JUMPDEST DUP1 PUSH1 0xE0 DUP7 ADD DUP8 DUP2 GT ISZERO PUSH2 0x48BA JUMPI PUSH1 0x0 DUP1 REVERT JUMPDEST PUSH1 0x20 DUP8 ADD JUMPDEST DUP2 DUP2 LT ISZERO PUSH2 0x48D6 JUMPI DUP1 CALLDATALOAD DUP5 MSTORE SWAP3 DUP5 ADD SWAP3 DUP5 ADD PUSH2 0x48BF JUMP JUMPDEST POP SWAP5 SWAP8 SWAP1 SWAP7 POP SWAP5 POP POP POP POP POP JUMP JUMPDEST PUSH1 0x0 PUSH1 0x20 DUP1 DUP4 DUP6 SUB SLT ISZERO PUSH2 0x48F7 JUMPI PUSH1 0x0 DUP1 REVERT JUMPDEST DUP3 CALLDATALOAD PUSH8 0xFFFFFFFFFFFFFFFF DUP1 DUP3 GT ISZERO PUSH2 0x490F JUMPI PUSH1 0x0 DUP1 REVERT JUMPDEST DUP2 DUP6 ADD SWAP2 POP DUP6 PUSH1 0x1F DUP4 ADD SLT PUSH2 0x4923 JUMPI PUSH1 0x0 DUP1 REVERT JUMPDEST DUP2 CALLDATALOAD PUSH2 0x4931 PUSH2 0x4523 DUP3 PUSH2 0x44DE JUMP JUMPDEST DUP2 DUP2 MSTORE PUSH1 0x5 SWAP2 SWAP1 SWAP2 SHL DUP4 ADD DUP5 ADD SWAP1 DUP5 DUP2 ADD SWAP1 DUP9 DUP4 GT ISZERO PUSH2 0x4950 JUMPI PUSH1 0x0 DUP1 REVERT JUMPDEST DUP6 DUP6 ADD JUMPDEST DUP4 DUP2 LT ISZERO PUSH2 0x4988 JUMPI DUP1 CALLDATALOAD DUP6 DUP2 GT ISZERO PUSH2 0x496C JUMPI PUSH1 0x0 DUP1 DUP2 REVERT JUMPDEST PUSH2 0x497A DUP12 DUP10 DUP4 DUP11 ADD ADD PUSH2 0x4502 JUMP JUMPDEST DUP5 MSTORE POP SWAP2 DUP7 ADD SWAP2 DUP7 ADD PUSH2 0x4954 JUMP JUMPDEST POP SWAP9 SWAP8 POP POP POP POP POP POP POP POP JUMP JUMPDEST PUSH4 0x4E487B71 PUSH1 0xE0 SHL PUSH1 0x0 MSTORE PUSH1 0x11 PUSH1 0x4 MSTORE PUSH1 0x24 PUSH1 0x0 REVERT JUMPDEST DUP1 DUP3 MUL DUP2 ISZERO DUP3 DUP3 DIV DUP5 EQ OR PUSH2 0xA2A JUMPI PUSH2 0xA2A PUSH2 0x4995 JUMP JUMPDEST DUP1 DUP3 ADD DUP1 DUP3 GT ISZERO PUSH2 0xA2A JUMPI PUSH2 0xA2A PUSH2 0x4995 JUMP JUMPDEST PUSH4 0x4E487B71 PUSH1 0xE0 SHL PUSH1 0x0 MSTORE PUSH1 0x32 PUSH1 0x4 MSTORE PUSH1 0x24 PUSH1 0x0 REVERT JUMPDEST DUP2 DUP2 SUB DUP2 DUP2 GT ISZERO PUSH2 0xA2A JUMPI PUSH2 0xA2A PUSH2 0x4995 JUMP JUMPDEST PUSH1 0x0 PUSH1 0x20 DUP3 DUP5 SUB SLT ISZERO PUSH2 0x4A10 JUMPI PUSH1 0x0 DUP1 REVERT JUMPDEST POP MLOAD SWAP2 SWAP1 POP JUMP JUMPDEST PUSH1 0x0 JUMPDEST DUP4 DUP2 LT ISZERO PUSH2 0x4A32 JUMPI DUP2 DUP2 ADD MLOAD DUP4 DUP3 ADD MSTORE PUSH1 0x20 ADD PUSH2 0x4A1A JUMP JUMPDEST POP POP PUSH1 0x0 SWAP2 ADD MSTORE JUMP JUMPDEST PUSH32 0x416363657373436F6E74726F6C3A206163636F756E7420000000000000000000 DUP2 MSTORE PUSH1 0x0 DUP4 MLOAD PUSH2 0x4A73 DUP2 PUSH1 0x17 DUP6 ADD PUSH1 0x20 DUP9 ADD PUSH2 0x4A17 JUMP JUMPDEST PUSH32 0x206973206D697373696E6720726F6C6520000000000000000000000000000000 PUSH1 0x17 SWAP2 DUP5 ADD SWAP2 DUP3 ADD MSTORE DUP4 MLOAD PUSH2 0x4AB0 DUP2 PUSH1 0x28 DUP5 ADD PUSH1 0x20 DUP9 ADD PUSH2 0x4A17 JUMP JUMPDEST ADD PUSH1 0x28 ADD SWAP5 SWAP4 POP POP POP POP JUMP JUMPDEST PUSH1 0x20 DUP2 MSTORE PUSH1 0x0 DUP3 MLOAD DUP1 PUSH1 0x20 DUP5 ADD MSTORE PUSH2 0x4ADB DUP2 PUSH1 0x40 DUP6 ADD PUSH1 0x20 DUP8 ADD PUSH2 0x4A17 JUMP JUMPDEST PUSH1 0x1F ADD PUSH1 0x1F NOT AND SWAP2 SWAP1 SWAP2 ADD PUSH1 0x40 ADD SWAP3 SWAP2 POP POP JUMP JUMPDEST PUSH1 0x0 DUP2 PUSH2 0x4AFE JUMPI PUSH2 0x4AFE PUSH2 0x4995 JUMP JUMPDEST POP PUSH32 0xFFFFFFFFFFFFFFFFFFFFFFFFFFFFFFFFFFFFFFFFFFFFFFFFFFFFFFFFFFFFFFFF ADD SWAP1 JUMP JUMPDEST PUSH1 0x0 DUP3 PUSH2 0x4B41 JUMPI PUSH4 0x4E487B71 PUSH1 0xE0 SHL PUSH1 0x0 MSTORE PUSH1 0x12 PUSH1 0x4 MSTORE PUSH1 0x24 PUSH1 0x0 REVERT JUMPDEST POP MOD SWAP1 JUMP JUMPDEST PUSH1 0x0 DUP3 MLOAD PUSH2 0x4B58 DUP2 DUP5 PUSH1 0x20 DUP8 ADD PUSH2 0x4A17 JUMP JUMPDEST SWAP2 SWAP1 SWAP2 ADD SWAP3 SWAP2 POP POP JUMP INVALID 0x22 0xC6 SWAP11 0xB4 MOD DUP1 MCOPY PUSH17 0xD07FB1A6502AF760601D3B977BEADB295A SWAP14 PUSH23 0xD5852E16A3416464726573733A206C6F772D6C6576656C KECCAK256 PUSH5 0x656C656761 PUSH21 0x652063616C6C206661696C6564A264697066735822 SLT KECCAK256 0xCB SWAP1 JUMPDEST RETURNDATACOPY 0xAA 0xA9 SHL 0xB9 DUP7 0xCC RETURNDATASIZE JUMP PUSH25 0xF6484068C3D122EFF52DE69F09ABCCF54AFCFC64736F6C6343 STOP ADDMOD XOR STOP CALLER "},"methodIdentifiers":{"DEFAULT_ADMIN_ROLE()":"a217fddf","DESIGNER_ROLE()":"df064ad8","UPGRADER_ROLE()":"f72c0d8b","createTokens(uint256,uint256,uint256)":"16b0f8e6","getAbilityDesigns()":"9010200a","getAbilityRate()":"31ad3579","getDropRate()":"f988c0d2","getDropRateHeroS()":"68cdbe36","getMaxLevel()":"3798fe56","getMintCost()":"13c738f0","getMintCostHeroS()":"f5057652","getMintCostHeroV2()":"7fb749b0","getRandomizeAbilityCost(uint256,uint256)":"294b3db5","getRarityStats()":"8b3c88b4","getRockUpgradeShieldLevel(uint256,uint256)":"607b63fd","getRoleAdmin(bytes32)":"248a9ca3","getSenMintCost()":"648abe57","getSenMintCostHeroS()":"745f418f","getSuperBoxDropRate()":"6da46a67","getSuperBoxMintCost()":"fa3a515f","getTokenLimit()":"28485586","getUpgradeCost(uint256,uint256)":"4830dfa5","getUpgradeCosts()":"00736cf3","grantRole(bytes32,address)":"2f2ff15d","hasRole(bytes32,address)":"91d14854","initialize()":"8129fc1c","proxiableUUID()":"52d1902d","randomizeAbilities(uint256,uint256)":"9a356327","renounceRole(bytes32,address)":"36568abe","revokeRole(bytes32,address)":"d547741f","setAbilityRate(uint256[])":"dfe3daa3","setBcoinMintCostV2(uint256)":"1fe40312","setDropRate(uint256[])":"3ee4f036","setDropRateHeroS(uint256[])":"bc0dfa09","setMaxLevel(uint256)":"344f1ba5","setMintCost(uint256)":"8545f4ea","setMintCostHeroS(uint256)":"5603b519","setNumRockUpgradeShieldLevel(uint256,uint256[6])":"d55921b8","setRandomizeAbilityCost(uint256,uint256,uint256,uint256)":"b05b7b58","setRarityStats(uint256,((uint256,uint256),(uint256,uint256),uint256,(uint256,uint256),uint256,uint256))":"c133cf54","setSenMintCost(uint256)":"deed8897","setSenMintCostHeroS(uint256)":"da1e6ba4","setSenMintCostV2(uint256)":"3cead5a9","setSkinVal(uint256[])":"8859c89d","setSuperBoxDropRate(uint256[])":"35a66484","setSuperBoxMintCost(uint256)":"efb947f1","setTokenLimit(uint256)":"c0e68fec","setUpgradeCosts(uint256[][])":"da6a074c","supportsInterface(bytes4)":"01ffc9a7","upgradeTo(address)":"3659cfe6","upgradeToAndCall(address,bytes)":"4f1ef286"}},"storageLayout":{"storage":[{"astId":782,"contract":"contracts/BHeroDesign.sol:BHeroDesign","label":"_initialized","offset":0,"slot":"0","type":"t_uint8"},{"astId":785,"contract":"contracts/BHeroDesign.sol:BHeroDesign","label":"_initializing","offset":1,"slot":"0","type":"t_bool"},{"astId":1461,"contract":"contracts/BHeroDesign.sol:BHeroDesign","label":"__gap","offset":0,"slot":"1","type":"t_array(t_uint256)50_storage"},{"astId":1845,"contract":"contracts/BHeroDesign.sol:BHeroDesign","label":"__gap","offset":0,"slot":"51","type":"t_array(t_uint256)50_storage"},{"astId":28,"contract":"contracts/BHeroDesign.sol:BHeroDesign","label":"_roles","offset":0,"slot":"101","type":"t_mapping(t_bytes32,t_struct(RoleData)23_storage)"},{"astId":335,"contract":"contracts/BHeroDesign.sol:BHeroDesign","label":"__gap","offset":0,"slot":"102","type":"t_array(t_uint256)49_storage"},{"astId":764,"contract":"contracts/BHeroDesign.sol:BHeroDesign","label":"__gap","offset":0,"slot":"151","type":"t_array(t_uint256)50_storage"},{"astId":1080,"contract":"contracts/BHeroDesign.sol:BHeroDesign","label":"__gap","offset":0,"slot":"201","type":"t_array(t_uint256)50_storage"},{"astId":2896,"contract":"contracts/BHeroDesign.sol:BHeroDesign","label":"rarityStats","offset":0,"slot":"251","type":"t_mapping(t_uint256,t_struct(Stats)2864_storage)"},{"astId":2899,"contract":"contracts/BHeroDesign.sol:BHeroDesign","label":"abilityIds","offset":0,"slot":"252","type":"t_array(t_uint256)dyn_storage"},{"astId":2901,"contract":"contracts/BHeroDesign.sol:BHeroDesign","label":"tokenLimit","offset":0,"slot":"253","type":"t_uint256"},{"astId":2904,"contract":"contracts/BHeroDesign.sol:BHeroDesign","label":"dropRate","offset":0,"slot":"254","type":"t_array(t_uint256)dyn_storage"},{"astId":2906,"contract":"contracts/BHeroDesign.sol:BHeroDesign","label":"mintCost","offset":0,"slot":"255","type":"t_uint256"},{"astId":2908,"contract":"contracts/BHeroDesign.sol:BHeroDesign","label":"maxLevel","offset":0,"slot":"256","type":"t_uint256"},{"astId":2912,"contract":"contracts/BHeroDesign.sol:BHeroDesign","label":"upgradeCosts","offset":0,"slot":"257","type":"t_array(t_array(t_uint256)dyn_storage)dyn_storage"},{"astId":2915,"contract":"contracts/BHeroDesign.sol:BHeroDesign","label":"abilityRate","offset":0,"slot":"258","type":"t_array(t_uint256)dyn_storage"},{"astId":2919,"contract":"contracts/BHeroDesign.sol:BHeroDesign","label":"abilityDesigns","offset":0,"slot":"259","type":"t_array(t_struct(AbilityDesign)2871_storage)dyn_storage"},{"astId":2921,"contract":"contracts/BHeroDesign.sol:BHeroDesign","label":"skinCount","offset":0,"slot":"260","type":"t_uint256"},{"astId":2924,"contract":"contracts/BHeroDesign.sol:BHeroDesign","label":"superBoxDropRate","offset":0,"slot":"261","type":"t_array(t_uint256)dyn_storage"},{"astId":2926,"contract":"contracts/BHeroDesign.sol:BHeroDesign","label":"superBoxMintCost","offset":0,"slot":"262","type":"t_uint256"},{"astId":2928,"contract":"contracts/BHeroDesign.sol:BHeroDesign","label":"senMintCost","offset":0,"slot":"263","type":"t_uint256"},{"astId":2930,"contract":"contracts/BHeroDesign.sol:BHeroDesign","label":"mintCostHeroS","offset":0,"slot":"264","type":"t_uint256"},{"astId":2932,"contract":"contracts/BHeroDesign.sol:BHeroDesign","label":"senMintCostHeroS","offset":0,"slot":"265","type":"t_uint256"},{"astId":2935,"contract":"contracts/BHeroDesign.sol:BHeroDesign","label":"dropRateHeroS","offset":0,"slot":"266","type":"t_array(t_uint256)dyn_storage"},{"astId":2953,"contract":"contracts/BHeroDesign.sol:BHeroDesign","label":"numRockUpgradeShieldLevel","offset":0,"slot":"267","type":"t_array(t_array(t_uint256)dyn_storage)6_storage"},{"astId":2956,"contract":"contracts/BHeroDesign.sol:BHeroDesign","label":"skinArr","offset":0,"slot":"273","type":"t_array(t_uint256)dyn_storage"},{"astId":2958,"contract":"contracts/BHeroDesign.sol:BHeroDesign","label":"bcoinMintCostHeroV2","offset":0,"slot":"274","type":"t_uint256"},{"astId":2960,"contract":"contracts/BHeroDesign.sol:BHeroDesign","label":"senMintCostHeroV2","offset":0,"slot":"275","type":"t_uint256"}],"types":{"t_address":{"encoding":"inplace","label":"address","numberOfBytes":"20"},"t_array(t_array(t_uint256)dyn_storage)6_storage":{"base":"t_array(t_uint256)dyn_storage","encoding":"inplace","label":"uint256[][6]","numberOfBytes":"192"},"t_array(t_array(t_uint256)dyn_storage)dyn_storage":{"base":"t_array(t_uint256)dyn_storage","encoding":"dynamic_array","label":"uint256[][]","numberOfBytes":"32"},"t_array(t_struct(AbilityDesign)2871_storage)dyn_storage":{"base":"t_struct(AbilityDesign)2871_storage","encoding":"dynamic_array","label":"struct BHeroDesign.AbilityDesign[]","numberOfBytes":"32"},"t_array(t_uint256)49_storage":{"base":"t_uint256","encoding":"inplace","label":"uint256[49]","numberOfBytes":"1568"},"t_array(t_uint256)50_storage":{"base":"t_uint256","encoding":"inplace","label":"uint256[50]","numberOfBytes":"1600"},"t_array(t_uint256)dyn_storage":{"base":"t_uint256","encoding":"dynamic_array","label":"uint256[]","numberOfBytes":"32"},"t_bool":{"encoding":"inplace","label":"bool","numberOfBytes":"1"},"t_bytes32":{"encoding":"inplace","label":"bytes32","numberOfBytes":"32"},"t_mapping(t_address,t_bool)":{"encoding":"mapping","key":"t_address","label":"mapping(address => bool)","numberOfBytes":"32","value":"t_bool"},"t_mapping(t_bytes32,t_struct(RoleData)23_storage)":{"encoding":"mapping","key":"t_bytes32","label":"mapping(bytes32 => struct AccessControlUpgradeable.RoleData)","numberOfBytes":"32","value":"t_struct(RoleData)23_storage"},"t_mapping(t_uint256,t_struct(Stats)2864_storage)":{"encoding":"mapping","key":"t_uint256","label":"mapping(uint256 => struct BHeroDesign.Stats)","numberOfBytes":"32","value":"t_struct(Stats)2864_storage"},"t_struct(AbilityDesign)2871_storage":{"encoding":"inplace","label":"struct BHeroDesign.AbilityDesign","members":[{"astId":2866,"contract":"contracts/BHeroDesign.sol:BHeroDesign","label":"minCost","offset":0,"slot":"0","type":"t_uint256"},{"astId":2868,"contract":"contracts/BHeroDesign.sol:BHeroDesign","label":"maxCost","offset":0,"slot":"1","type":"t_uint256"},{"astId":2870,"contract":"contracts/BHeroDesign.sol:BHeroDesign","label":"incrementalCost","offset":0,"slot":"2","type":"t_uint256"}],"numberOfBytes":"96"},"t_struct(RoleData)23_storage":{"encoding":"inplace","label":"struct AccessControlUpgradeable.RoleData","members":[{"astId":20,"contract":"contracts/BHeroDesign.sol:BHeroDesign","label":"members","offset":0,"slot":"0","type":"t_mapping(t_address,t_bool)"},{"astId":22,"contract":"contracts/BHeroDesign.sol:BHeroDesign","label":"adminRole","offset":0,"slot":"1","type":"t_bytes32"}],"numberOfBytes":"64"},"t_struct(Stats)2864_storage":{"encoding":"inplace","label":"struct BHeroDesign.Stats","members":[{"astId":2851,"contract":"contracts/BHeroDesign.sol:BHeroDesign","label":"stamina","offset":0,"slot":"0","type":"t_struct(StatsRange)2848_storage"},{"astId":2854,"contract":"contracts/BHeroDesign.sol:BHeroDesign","label":"speed","offset":0,"slot":"2","type":"t_struct(StatsRange)2848_storage"},{"astId":2856,"contract":"contracts/BHeroDesign.sol:BHeroDesign","label":"bombCount","offset":0,"slot":"4","type":"t_uint256"},{"astId":2859,"contract":"contracts/BHeroDesign.sol:BHeroDesign","label":"bombPower","offset":0,"slot":"5","type":"t_struct(StatsRange)2848_storage"},{"astId":2861,"contract":"contracts/BHeroDesign.sol:BHeroDesign","label":"bombRange","offset":0,"slot":"7","type":"t_uint256"},{"astId":2863,"contract":"contracts/BHeroDesign.sol:BHeroDesign","label":"ability","offset":0,"slot":"8","type":"t_uint256"}],"numberOfBytes":"288"},"t_struct(StatsRange)2848_storage":{"encoding":"inplace","label":"struct BHeroDesign.StatsRange","members":[{"astId":2845,"contract":"contracts/BHeroDesign.sol:BHeroDesign","label":"min","offset":0,"slot":"0","type":"t_uint256"},{"astId":2847,"contract":"contracts/BHeroDesign.sol:BHeroDesign","label":"max","offset":0,"slot":"1","type":"t_uint256"}],"numberOfBytes":"64"},"t_uint256":{"encoding":"inplace","label":"uint256","numberOfBytes":"32"},"t_uint8":{"encoding":"inplace","label":"uint8","numberOfBytes":"1"}}}}}}