{"contracts/BHouseMarket.sol":{"BHouseMarket":{"abi":[{"anonymous":false,"inputs":[{"indexed":false,"internalType":"address","name":"previousAdmin","type":"address"},{"indexed":false,"internalType":"address","name":"newAdmin","type":"address"}],"name":"AdminChanged","type":"event"},{"anonymous":false,"inputs":[{"indexed":true,"internalType":"address","name":"beacon","type":"address"}],"name":"BeaconUpgraded","type":"event"},{"anonymous":false,"inputs":[{"indexed":false,"internalType":"uint256","name":"tokenId","type":"uint256"}],"name":"CancelOrder","type":"event"},{"anonymous":false,"inputs":[{"indexed":false,"internalType":"uint256","name":"tokenId","type":"uint256"},{"indexed":false,"internalType":"uint256","name":"price","type":"uint256"},{"indexed":false,"internalType":"uint256","name":"tokenDetail","type":"uint256"},{"indexed":false,"internalType":"address","name":"seller","type":"address"}],"name":"CreateOrder","type":"event"},{"anonymous":false,"inputs":[{"indexed":false,"internalType":"uint8","name":"version","type":"uint8"}],"name":"Initialized","type":"event"},{"anonymous":false,"inputs":[{"indexed":false,"internalType":"address","name":"account","type":"address"}],"name":"Paused","type":"event"},{"anonymous":false,"inputs":[{"indexed":true,"internalType":"bytes32","name":"role","type":"bytes32"},{"indexed":true,"internalType":"bytes32","name":"previousAdminRole","type":"bytes32"},{"indexed":true,"internalType":"bytes32","name":"newAdminRole","type":"bytes32"}],"name":"RoleAdminChanged","type":"event"},{"anonymous":false,"inputs":[{"indexed":true,"internalType":"bytes32","name":"role","type":"bytes32"},{"indexed":true,"internalType":"address","name":"account","type":"address"},{"indexed":true,"internalType":"address","name":"sender","type":"address"}],"name":"RoleGranted","type":"event"},{"anonymous":false,"inputs":[{"indexed":true,"internalType":"bytes32","name":"role","type":"bytes32"},{"indexed":true,"internalType":"address","name":"account","type":"address"},{"indexed":true,"internalType":"address","name":"sender","type":"address"}],"name":"RoleRevoked","type":"event"},{"anonymous":false,"inputs":[{"indexed":false,"internalType":"uint256","name":"tokenId","type":"uint256"},{"indexed":false,"internalType":"uint256","name":"price","type":"uint256"},{"indexed":false,"internalType":"uint256","name":"tokenDetail","type":"uint256"},{"indexed":false,"internalType":"address","name":"seller","type":"address"},{"indexed":false,"internalType":"address","name":"buyer","type":"address"}],"name":"Sold","type":"event"},{"anonymous":false,"inputs":[{"indexed":false,"internalType":"address","name":"account","type":"address"}],"name":"Unpaused","type":"event"},{"anonymous":false,"inputs":[{"indexed":true,"internalType":"address","name":"implementation","type":"address"}],"name":"Upgraded","type":"event"},{"inputs":[],"name":"BANNER_ROLE","outputs":[{"internalType":"bytes32","name":"","type":"bytes32"}],"stateMutability":"view","type":"function"},{"inputs":[],"name":"CANCELER_ROLE","outputs":[{"internalType":"bytes32","name":"","type":"bytes32"}],"stateMutability":"view","type":"function"},{"inputs":[],"name":"DEFAULT_ADMIN_ROLE","outputs":[{"internalType":"bytes32","name":"","type":"bytes32"}],"stateMutability":"view","type":"function"},{"inputs":[],"name":"DESIGNER_ROLE","outputs":[{"internalType":"bytes32","name":"","type":"bytes32"}],"stateMutability":"view","type":"function"},{"inputs":[],"name":"PAUSER_ROLE","outputs":[{"internalType":"bytes32","name":"","type":"bytes32"}],"stateMutability":"view","type":"function"},{"inputs":[],"name":"UPGRADER_ROLE","outputs":[{"internalType":"bytes32","name":"","type":"bytes32"}],"stateMutability":"view","type":"function"},{"inputs":[],"name":"WITHDRAWER_ROLE","outputs":[{"internalType":"bytes32","name":"","type":"bytes32"}],"stateMutability":"view","type":"function"},{"inputs":[{"internalType":"address[]","name":"_addresses","type":"address[]"}],"name":"addToBacklist","outputs":[],"stateMutability":"nonpayable","type":"function"},{"inputs":[],"name":"bcoinContract","outputs":[{"internalType":"contract IERC20","name":"","type":"address"}],"stateMutability":"view","type":"function"},{"inputs":[{"internalType":"uint256","name":"_tokenId","type":"uint256"},{"internalType":"uint256","name":"_price","type":"uint256"}],"name":"buy","outputs":[],"stateMutability":"nonpayable","type":"function"},{"inputs":[{"internalType":"uint256","name":"_tokenId","type":"uint256"}],"name":"cancelOrder","outputs":[],"stateMutability":"nonpayable","type":"function"},{"inputs":[{"internalType":"uint256","name":"_tokenId","type":"uint256"}],"name":"cancelOrderWhenPaused","outputs":[],"stateMutability":"nonpayable","type":"function"},{"inputs":[{"internalType":"uint256","name":"taxRate_","type":"uint256"},{"internalType":"uint256","name":"cooldownBeforeCancel_","type":"uint256"}],"name":"changeSettings","outputs":[],"stateMutability":"nonpayable","type":"function"},{"inputs":[],"name":"cooldownBeforeCancel","outputs":[{"internalType":"uint256","name":"","type":"uint256"}],"stateMutability":"view","type":"function"},{"inputs":[],"name":"cooldownByBlockNumber","outputs":[{"internalType":"uint256","name":"","type":"uint256"}],"stateMutability":"view","type":"function"},{"inputs":[{"internalType":"uint256","name":"_tokenId","type":"uint256"},{"internalType":"uint256","name":"_price","type":"uint256"},{"internalType":"address","name":"_tokenAddress","type":"address"}],"name":"createOrder","outputs":[],"stateMutability":"nonpayable","type":"function"},{"inputs":[],"name":"dummyDeploy","outputs":[{"internalType":"uint256","name":"","type":"uint256"}],"stateMutability":"view","type":"function"},{"inputs":[],"name":"getBalance","outputs":[{"internalType":"uint256","name":"","type":"uint256"}],"stateMutability":"view","type":"function"},{"inputs":[{"internalType":"uint256","name":"_tokenId","type":"uint256"}],"name":"getOrder","outputs":[{"internalType":"uint256","name":"tokenDetail","type":"uint256"},{"internalType":"address","name":"seller","type":"address"},{"internalType":"uint256","name":"price","type":"uint256"},{"internalType":"uint256","name":"startedAt","type":"uint256"}],"stateMutability":"view","type":"function"},{"inputs":[{"internalType":"uint256","name":"_tokenId","type":"uint256"}],"name":"getOrderV2","outputs":[{"internalType":"uint256","name":"tokenDetail","type":"uint256"},{"internalType":"address","name":"seller","type":"address"},{"internalType":"uint256","name":"price","type":"uint256"},{"internalType":"uint256","name":"startedAt","type":"uint256"},{"internalType":"address","name":"tokenAddress","type":"address"}],"stateMutability":"view","type":"function"},{"inputs":[{"internalType":"bytes32","name":"role","type":"bytes32"}],"name":"getRoleAdmin","outputs":[{"internalType":"bytes32","name":"","type":"bytes32"}],"stateMutability":"view","type":"function"},{"inputs":[{"internalType":"uint256[]","name":"_tokenId","type":"uint256[]"}],"name":"getTokenPayList","outputs":[{"internalType":"address[]","name":"","type":"address[]"}],"stateMutability":"view","type":"function"},{"inputs":[{"internalType":"bytes32","name":"role","type":"bytes32"},{"internalType":"address","name":"account","type":"address"}],"name":"grantRole","outputs":[],"stateMutability":"nonpayable","type":"function"},{"inputs":[{"internalType":"bytes32","name":"role","type":"bytes32"},{"internalType":"address","name":"account","type":"address"}],"name":"hasRole","outputs":[{"internalType":"bool","name":"","type":"bool"}],"stateMutability":"view","type":"function"},{"inputs":[{"internalType":"address","name":"bcoinCA_","type":"address"},{"internalType":"address","name":"nftCA_","type":"address"}],"name":"initialize","outputs":[],"stateMutability":"nonpayable","type":"function"},{"inputs":[{"internalType":"address","name":"_address","type":"address"}],"name":"isBlacklist","outputs":[{"internalType":"bool","name":"","type":"bool"}],"stateMutability":"view","type":"function"},{"inputs":[{"internalType":"uint256","name":"_tokenDetails","type":"uint256"},{"internalType":"uint256","name":"_price","type":"uint256"}],"name":"isSellable","outputs":[{"internalType":"bool","name":"","type":"bool"}],"stateMutability":"view","type":"function"},{"inputs":[],"name":"myVersion","outputs":[{"internalType":"uint64","name":"ver_","type":"uint64"}],"stateMutability":"pure","type":"function"},{"inputs":[],"name":"nftContract","outputs":[{"internalType":"contract IERC721","name":"","type":"address"}],"stateMutability":"view","type":"function"},{"inputs":[],"name":"pause","outputs":[],"stateMutability":"nonpayable","type":"function"},{"inputs":[],"name":"paused","outputs":[{"internalType":"bool","name":"","type":"bool"}],"stateMutability":"view","type":"function"},{"inputs":[],"name":"proxiableUUID","outputs":[{"internalType":"bytes32","name":"","type":"bytes32"}],"stateMutability":"view","type":"function"},{"inputs":[{"internalType":"address[]","name":"_addresses","type":"address[]"}],"name":"removeFromBacklist","outputs":[],"stateMutability":"nonpayable","type":"function"},{"inputs":[{"internalType":"bytes32","name":"role","type":"bytes32"},{"internalType":"address","name":"account","type":"address"}],"name":"renounceRole","outputs":[],"stateMutability":"nonpayable","type":"function"},{"inputs":[{"internalType":"bytes32","name":"role","type":"bytes32"},{"internalType":"address","name":"account","type":"address"}],"name":"revokeRole","outputs":[],"stateMutability":"nonpayable","type":"function"},{"inputs":[{"internalType":"uint256","name":"","type":"uint256"}],"name":"sellableByRarity","outputs":[{"internalType":"bool","name":"isSellable","type":"bool"},{"internalType":"uint256","name":"minPrice","type":"uint256"}],"stateMutability":"view","type":"function"},{"inputs":[{"internalType":"uint256","name":"_new","type":"uint256"}],"name":"setCooldownByBlockNumber","outputs":[],"stateMutability":"nonpayable","type":"function"},{"inputs":[{"internalType":"uint256","name":"_rarity","type":"uint256"},{"internalType":"bool","name":"_isSellable","type":"bool"},{"internalType":"uint256","name":"_minPrice","type":"uint256"}],"name":"setSellableRule","outputs":[],"stateMutability":"nonpayable","type":"function"},{"inputs":[{"internalType":"address[]","name":"value","type":"address[]"}],"name":"setTokenWhitelist","outputs":[],"stateMutability":"nonpayable","type":"function"},{"inputs":[{"internalType":"bytes4","name":"interfaceId","type":"bytes4"}],"name":"supportsInterface","outputs":[{"internalType":"bool","name":"","type":"bool"}],"stateMutability":"view","type":"function"},{"inputs":[],"name":"taxRate","outputs":[{"internalType":"uint256","name":"","type":"uint256"}],"stateMutability":"view","type":"function"},{"inputs":[{"internalType":"address","name":"","type":"address"}],"name":"tokenWhitelist","outputs":[{"internalType":"bool","name":"","type":"bool"}],"stateMutability":"view","type":"function"},{"inputs":[],"name":"unpause","outputs":[],"stateMutability":"nonpayable","type":"function"},{"inputs":[{"internalType":"address","name":"newImplementation","type":"address"}],"name":"upgradeTo","outputs":[],"stateMutability":"nonpayable","type":"function"},{"inputs":[{"internalType":"address","name":"newImplementation","type":"address"},{"internalType":"bytes","name":"data","type":"bytes"}],"name":"upgradeToAndCall","outputs":[],"stateMutability":"payable","type":"function"},{"inputs":[],"name":"withdraw","outputs":[],"stateMutability":"nonpayable","type":"function"},{"inputs":[{"internalType":"address","name":"tokenAddress","type":"address"}],"name":"withdrawV2","outputs":[],"stateMutability":"nonpayable","type":"function"}],"evm":{"bytecode":{"linkReferences":{},"object":"60a06040523060805234801561001457600080fd5b506080516138f261004c6000396000818161110a015281816111a0015281816117750152818161180b0152611b6501526138f26000f3fe6080604052600436106103085760003560e01c8063514fcac71161019a578063a217fddf116100e1578063d6febde81161008a578063e63ab1e911610064578063e63ab1e914610977578063f690d973146109ab578063f72c0d8b146109df57600080fd5b8063d6febde8146108f6578063df064ad814610916578063e1ae214b1461094a57600080fd5b8063d09ef241116100bb578063d09ef2411461086e578063d547741f146108b6578063d56d229d146108d657600080fd5b8063a217fddf14610823578063a459f3ae14610838578063cc3e0df61461084e57600080fd5b8063757aa1811161014357806385f438c11161011d57806385f438c11461078957806391d14854146107bd5780639ed36d681461080357600080fd5b8063757aa1811461074a578063771a3a1d1461075e5780638456cb591461077457600080fd5b80635ec9a943116101745780635ec9a943146106d957806373958428146106f9578063753d75631461071957600080fd5b8063514fcac71461068c57806352d1902d146106ac5780635c975abb146106c157600080fd5b80632f2ff15d1161025e5780633f4ba83a116102075780634f1b1086116101e15780634f1b1086146105d85780634f1ef28614610629578063502817361461063c57600080fd5b80633f4ba83a146105835780634665a43f14610598578063485cc955146105b857600080fd5b80633659cfe6116102385780633659cfe61461052e57806336d02c941461054e5780633ccfd60b1461056e57600080fd5b80632f2ff15d146104b5578063333e99db146104d557806336568abe1461050e57600080fd5b806312065fe0116102c0578063248a9ca31161029a578063248a9ca3146104495780632822dc73146104795780632da7ea751461049557600080fd5b806312065fe0146103fe5780631ab0d5671461041357806323b70d761461042957600080fd5b806303a5b1ed116102f157806303a5b1ed1461038457806308b57f31146103a65780630b9a743a146103c657600080fd5b806301ffc9a71461030d57806302d2ff6614610342575b600080fd5b34801561031957600080fd5b5061032d610328366004613286565b610a13565b60405190151581526020015b60405180910390f35b34801561034e57600080fd5b506103767febfdca8e46c0b8dacf9989ee613e35727eadd20a1d5e5ad01a53968c7e5fe07a81565b604051908152602001610339565b34801561039057600080fd5b506103a461039f366004613314565b610a24565b005b3480156103b257600080fd5b506103a46103c136600461336b565b610abd565b3480156103d257600080fd5b506005546103e6906001600160a01b031681565b6040516001600160a01b039091168152602001610339565b34801561040a57600080fd5b50610376610be5565b34801561041f57600080fd5b5061037660025481565b34801561043557600080fd5b506103a4610444366004613388565b610c57565b34801561045557600080fd5b506103766104643660046133c1565b6000908152606d602052604090206001015490565b34801561048557600080fd5b5060405160028152602001610339565b3480156104a157600080fd5b506103a46104b0366004613421565b610fc7565b3480156104c157600080fd5b506103a46104d03660046134d3565b61104f565b3480156104e157600080fd5b5061032d6104f036600461336b565b6001600160a01b031660009081526004602052604090205460ff1690565b34801561051a57600080fd5b506103a46105293660046134d3565b611074565b34801561053a57600080fd5b506103a461054936600461336b565b611100565b34801561055a57600080fd5b506103a4610569366004613503565b61129d565b34801561057a57600080fd5b506103a4611325565b34801561058f57600080fd5b506103a461144c565b3480156105a457600080fd5b506103a46105b3366004613533565b61147e565b3480156105c457600080fd5b506103a46105d336600461356b565b6114e3565b3480156105e457600080fd5b506106126105f33660046133c1565b6003602052600090815260409020805460019091015460ff9091169082565b604080519215158352602083019190915201610339565b6103a4610637366004613599565b61176b565b34801561064857600080fd5b5061065c6106573660046133c1565b6118f5565b604080519586526001600160a01b039485166020870152850192909252606084015216608082015260a001610339565b34801561069857600080fd5b506103a46106a73660046133c1565b61199e565b3480156106b857600080fd5b50610376611b58565b3480156106cd57600080fd5b50609f5460ff1661032d565b3480156106e557600080fd5b506103a46106f4366004613421565b611c1d565b34801561070557600080fd5b506103a46107143660046133c1565b611ca5565b34801561072557600080fd5b5061032d61073436600461336b565b6101366020526000908152604090205460ff1681565b34801561075657600080fd5b506000610376565b34801561076a57600080fd5b5061037660005481565b34801561078057600080fd5b506103a4611cd5565b34801561079557600080fd5b506103767f10dac8c06a04bec0b551627dad28bc00d6516b0caacd1c7b345fcdb5211334e481565b3480156107c957600080fd5b5061032d6107d83660046134d3565b6000918252606d602090815260408084206001600160a01b0393909316845291905290205460ff1690565b34801561080f57600080fd5b5061032d61081e366004613503565b611d07565b34801561082f57600080fd5b50610376600081565b34801561084457600080fd5b5061037660015481565b34801561085a57600080fd5b506103a46108693660046133c1565b611d63565b34801561087a57600080fd5b5061088e6108893660046133c1565b611df4565b604080519485526001600160a01b039093166020850152918301526060820152608001610339565b3480156108c257600080fd5b506103a46108d13660046134d3565b611e8f565b3480156108e257600080fd5b506006546103e6906001600160a01b031681565b34801561090257600080fd5b506103a4610911366004613503565b611eb4565b34801561092257600080fd5b506103767f22c69ab406805e70d07fb1a6502af760601d3b977beadb295a9d76d5852e16a381565b34801561095657600080fd5b5061096a610965366004613314565b611ec6565b6040516103399190613641565b34801561098357600080fd5b506103767f65d7a28e3265b37a6474929f336521b332c1681b933f6cb9f3376673440d862a81565b3480156109b757600080fd5b506103767f8661ae67c9d50f67dbb173ad6369dd93ae94918083bd986295c3ac4e3822f0b881565b3480156109eb57600080fd5b506103767f189ab7a9244df0848122154315af71fe140f3db0fe014031783b0946b8c9d2e381565b6000610a1e82611f94565b92915050565b7f22c69ab406805e70d07fb1a6502af760601d3b977beadb295a9d76d5852e16a3610a4e8161202b565b60005b82811015610ab75760016101366000868685818110610a7257610a7261368e565b9050602002016020810190610a87919061336b565b6001600160a01b031681526020810191909152604001600020805460ff1916911515919091179055600101610a51565b50505050565b7f10dac8c06a04bec0b551627dad28bc00d6516b0caacd1c7b345fcdb5211334e4610ae78161202b565b6040516370a0823160e01b81523060048201526001600160a01b0383169063a9059cbb90339083906370a0823190602401602060405180830381865afa158015610b35573d6000803e3d6000fd5b505050506040513d601f19601f82011682018060405250810190610b5991906136a4565b6040517fffffffff0000000000000000000000000000000000000000000000000000000060e085901b1681526001600160a01b03909216600483015260248201526044016020604051808303816000875af1158015610bbc573d6000803e3d6000fd5b505050506040513d601f19601f82011682018060405250810190610be091906136bd565b505050565b6005546040516370a0823160e01b81523060048201526000916001600160a01b0316906370a0823190602401602060405180830381865afa158015610c2e573d6000803e3d6000fd5b505050506040513d601f19601f82011682018060405250810190610c5291906136a4565b905090565b610c5f612035565b816fffffffffffffffffffffffffffffffff168214610c7d57600080fd5b610c87338461208a565b610cd85760405162461bcd60e51b815260206004820152600d60248201527f4e6f74204e4654206f776e65720000000000000000000000000000000000000060448201526064015b60405180910390fd5b3360009081526004602052604090205460ff1615610d385760405162461bcd60e51b815260206004820152600960248201527f626c61636b6c69737400000000000000000000000000000000000000000000006044820152606401610ccf565b6001600160a01b0381166000908152610136602052604090205460ff16610da15760405162461bcd60e51b815260206004820152601e60248201527f546f6b656e2061646472657373206e6f7420696e2077686974656c69737400006044820152606401610ccf565b6006546040517ffc314e31000000000000000000000000000000000000000000000000000000008152600481018590526000916001600160a01b03169063fc314e3190602401602060405180830381865afa158015610e04573d6000803e3d6000fd5b505050506040513d601f19601f82011682018060405250810190610e2891906136a4565b9050610e348184611d07565b610e805760405162461bcd60e51b815260206004820152601660248201527f6e6f7420706173732073656c6c61626c652072756c65000000000000000000006044820152606401610ccf565b6006546040517fe985e9c50000000000000000000000000000000000000000000000000000000081523360048201523060248201526001600160a01b039091169063e985e9c590604401602060405180830381865afa158015610ee7573d6000803e3d6000fd5b505050506040513d601f19601f82011682018060405250810190610f0b91906136bd565b610f575760405162461bcd60e51b815260206004820152601560248201527f6e6f742079657420617070726f7665466f72416c6c00000000000000000000006044820152606401610ccf565b6040805160a0810182528581523360208083019190915281830186905260608201849052426080830152600087815261013590915291909120805473ffffffffffffffffffffffffffffffffffffffff19166001600160a01b038516179055610fc08582612127565b5050505050565b7f8661ae67c9d50f67dbb173ad6369dd93ae94918083bd986295c3ac4e3822f0b8610ff18161202b565b60005b8251811015610be0576000600460008584815181106110155761101561368e565b6020908102919091018101516001600160a01b03168252810191909152604001600020805460ff1916911515919091179055600101610ff4565b6000828152606d602052604090206001015461106a8161202b565b610be08383612234565b6001600160a01b03811633146110f25760405162461bcd60e51b815260206004820152602f60248201527f416363657373436f6e74726f6c3a2063616e206f6e6c792072656e6f756e636560448201527f20726f6c657320666f722073656c6600000000000000000000000000000000006064820152608401610ccf565b6110fc82826122d6565b5050565b6001600160a01b037f000000000000000000000000000000000000000000000000000000000000000016300361119e5760405162461bcd60e51b815260206004820152602c60248201527f46756e6374696f6e206d7573742062652063616c6c6564207468726f7567682060448201527f64656c656761746563616c6c00000000000000000000000000000000000000006064820152608401610ccf565b7f00000000000000000000000000000000000000000000000000000000000000006001600160a01b03166111f97f360894a13ba1a3210667c828492db98dca3e2076cc3735a920a3ca505d382bbc546001600160a01b031690565b6001600160a01b0316146112755760405162461bcd60e51b815260206004820152602c60248201527f46756e6374696f6e206d7573742062652063616c6c6564207468726f7567682060448201527f6163746976652070726f787900000000000000000000000000000000000000006064820152608401610ccf565b61127e81612359565b6040805160008082526020820190925261129a91839190612383565b50565b7f22c69ab406805e70d07fb1a6502af760601d3b977beadb295a9d76d5852e16a36112c78161202b565b6127108311156113195760405162461bcd60e51b815260206004820181905260248201527f74617852617465206d75737420626520696e2072616e676520302d31303030306044820152606401610ccf565b50600091909155600155565b7f10dac8c06a04bec0b551627dad28bc00d6516b0caacd1c7b345fcdb5211334e461134f8161202b565b6005546040516370a0823160e01b81523060048201526001600160a01b039091169063a9059cbb90339083906370a0823190602401602060405180830381865afa1580156113a1573d6000803e3d6000fd5b505050506040513d601f19601f820116820180604052508101906113c591906136a4565b6040517fffffffff0000000000000000000000000000000000000000000000000000000060e085901b1681526001600160a01b03909216600483015260248201526044016020604051808303816000875af1158015611428573d6000803e3d6000fd5b505050506040513d601f19601f820116820180604052508101906110fc91906136bd565b7f65d7a28e3265b37a6474929f336521b332c1681b933f6cb9f3376673440d862a6114768161202b565b61129a612523565b7f22c69ab406805e70d07fb1a6502af760601d3b977beadb295a9d76d5852e16a36114a88161202b565b50604080518082018252921515835260208084019283526000948552600390529092209051815460ff19169015151781559051600190910155565b600854610100900460ff16158080156115035750600854600160ff909116105b8061151d5750303b15801561151d575060085460ff166001145b61158f5760405162461bcd60e51b815260206004820152602e60248201527f496e697469616c697a61626c653a20636f6e747261637420697320616c72656160448201527f647920696e697469616c697a65640000000000000000000000000000000000006064820152608401610ccf565b6008805460ff1916600117905580156115b2576008805461ff0019166101001790555b6115ba612575565b6115c26125f2565b6115ca612575565b6115d5600033612677565b6115ff7f65d7a28e3265b37a6474929f336521b332c1681b933f6cb9f3376673440d862a33612677565b6116297f10dac8c06a04bec0b551627dad28bc00d6516b0caacd1c7b345fcdb5211334e433612677565b6116537f189ab7a9244df0848122154315af71fe140f3db0fe014031783b0946b8c9d2e333612677565b61167d7f22c69ab406805e70d07fb1a6502af760601d3b977beadb295a9d76d5852e16a333612677565b6116a77f8661ae67c9d50f67dbb173ad6369dd93ae94918083bd986295c3ac4e3822f0b833612677565b6116d17febfdca8e46c0b8dacf9989ee613e35727eadd20a1d5e5ad01a53968c7e5fe07a33612677565b600580546001600160a01b0380861673ffffffffffffffffffffffffffffffffffffffff199283161790925560068054928516929091169190911790556101f4600055600a600155620313806002558015610be0576008805461ff0019169055604051600181527f7f26b83ff96e1f2b6a682f133852f6798a09c465da95921460cefb3847402498906020015b60405180910390a1505050565b6001600160a01b037f00000000000000000000000000000000000000000000000000000000000000001630036118095760405162461bcd60e51b815260206004820152602c60248201527f46756e6374696f6e206d7573742062652063616c6c6564207468726f7567682060448201527f64656c656761746563616c6c00000000000000000000000000000000000000006064820152608401610ccf565b7f00000000000000000000000000000000000000000000000000000000000000006001600160a01b03166118647f360894a13ba1a3210667c828492db98dca3e2076cc3735a920a3ca505d382bbc546001600160a01b031690565b6001600160a01b0316146118e05760405162461bcd60e51b815260206004820152602c60248201527f46756e6374696f6e206d7573742062652063616c6c6564207468726f7567682060448201527f6163746976652070726f787900000000000000000000000000000000000000006064820152608401610ccf565b6118e982612359565b6110fc82826001612383565b60008181526007602052604081206004810154829182918291829161195c5760405162461bcd60e51b815260206004820152601160248201527f6f72646572206e6f7420657869737465640000000000000000000000000000006044820152606401610ccf565b6003810154600182015460028301546004909301546000998a5261013560205260409099205491996001600160a01b0391821699939850929650169350915050565b6119a6612035565b60008181526007602052604090206004810154611a055760405162461bcd60e51b815260206004820152601160248201527f6f72646572206e6f7420657869737465640000000000000000000000000000006044820152606401610ccf565b60018101546001600160a01b031633811480611a4f57503360009081527f53b80d278ab1f8da3f90a9ab59a48d16b0b672d0df1781096c72a6715d78d74a602052604090205460ff165b80611ae657506006546040517f6352211e0000000000000000000000000000000000000000000000000000000081526004810185905233916001600160a01b031690636352211e90602401602060405180830381865afa158015611ab7573d6000803e3d6000fd5b505050506040513d601f19601f82011682018060405250810190611adb91906136da565b6001600160a01b0316145b611aef57600080fd5b426001548360040154611b02919061370d565b10611b4f5760405162461bcd60e51b815260206004820152601d60248201527f636f6f6c646f776e3a206e6f742063616e63656c6c61626c65207965740000006044820152606401610ccf565b610be083612681565b6000306001600160a01b037f00000000000000000000000000000000000000000000000000000000000000001614611bf85760405162461bcd60e51b815260206004820152603860248201527f555550535570677261646561626c653a206d757374206e6f742062652063616c60448201527f6c6564207468726f7567682064656c656761746563616c6c00000000000000006064820152608401610ccf565b507f360894a13ba1a3210667c828492db98dca3e2076cc3735a920a3ca505d382bbc90565b7f8661ae67c9d50f67dbb173ad6369dd93ae94918083bd986295c3ac4e3822f0b8611c478161202b565b60005b8251811015610be057600160046000858481518110611c6b57611c6b61368e565b6020908102919091018101516001600160a01b03168252810191909152604001600020805460ff1916911515919091179055600101611c4a565b7f22c69ab406805e70d07fb1a6502af760601d3b977beadb295a9d76d5852e16a3611ccf8161202b565b50600255565b7f65d7a28e3265b37a6474929f336521b332c1681b933f6cb9f3376673440d862a611cff8161202b565b61129a6126f9565b601f602883901c16600081815260036020526040812090919082611d2a86612736565b825490915060ff168015611d42575081600101548510155b8015611d595750600254611d569043613720565b81105b9695505050505050565b611d6b61275a565b7febfdca8e46c0b8dacf9989ee613e35727eadd20a1d5e5ad01a53968c7e5fe07a611d958161202b565b60008281526007602052604090206004810154611b4f5760405162461bcd60e51b815260206004820152601160248201527f6f72646572206e6f7420657869737465640000000000000000000000000000006044820152606401610ccf565b6000818152600760205260408120819081908190611e158160040154151590565b611e615760405162461bcd60e51b815260206004820152601160248201527f6f72646572206e6f7420657869737465640000000000000000000000000000006044820152606401610ccf565b60038101546001820154600283015460049093015491986001600160a01b0390911697509195509350915050565b6000828152606d6020526040902060010154611eaa8161202b565b610be083836122d6565b611ebc612035565b6110fc82826127ac565b606060008267ffffffffffffffff811115611ee357611ee36133da565b604051908082528060200260200182016040528015611f0c578160200160208202803683370190505b50905060005b83811015611f8c576101356000868684818110611f3157611f3161368e565b90506020020135815260200190815260200160002060009054906101000a90046001600160a01b0316828281518110611f6c57611f6c61368e565b6001600160a01b0390921660209283029190910190910152600101611f12565b509392505050565b60007fffffffff0000000000000000000000000000000000000000000000000000000082167f7965db0b000000000000000000000000000000000000000000000000000000001480610a1e57507f01ffc9a7000000000000000000000000000000000000000000000000000000007fffffffff00000000000000000000000000000000000000000000000000000000831614610a1e565b61129a8133612c75565b609f5460ff16156120885760405162461bcd60e51b815260206004820152601060248201527f5061757361626c653a20706175736564000000000000000000000000000000006044820152606401610ccf565b565b6006546040517f6352211e000000000000000000000000000000000000000000000000000000008152600481018390526000916001600160a01b0385811692911690636352211e90602401602060405180830381865afa1580156120f2573d6000803e3d6000fd5b505050506040513d601f19601f8201168201806040525081019061211691906136da565b6001600160a01b0316149392505050565b60008281526007602052604090206004810154156121875760405162461bcd60e51b815260206004820152600d60248201527f6f726465722065786973746564000000000000000000000000000000000000006044820152606401610ccf565b600083815260076020908152604091829020845181558482015160018201805473ffffffffffffffffffffffffffffffffffffffff19166001600160a01b0390921691821790558584015160028301819055606080880151600385018190556080808a015160049096019590955586518a81529586019290925294840152928201929092527f6ee1eb8a5bd09a76dec365663730674d33e85e267c5f5acdaa8a086b3f089b87910161175e565b6000828152606d602090815260408083206001600160a01b038516845290915290205460ff166110fc576000828152606d602090815260408083206001600160a01b03851684529091529020805460ff191660011790556122923390565b6001600160a01b0316816001600160a01b0316837f2f8788117e7eff1d82e926ec794901d17c78024a50270940304540a733656f0d60405160405180910390a45050565b6000828152606d602090815260408083206001600160a01b038516845290915290205460ff16156110fc576000828152606d602090815260408083206001600160a01b0385168085529252808320805460ff1916905551339285917ff6391f5c32d9c69d2a47ea670b442974b53935d1edc7fd64eb21e047a839171b9190a45050565b7f189ab7a9244df0848122154315af71fe140f3db0fe014031783b0946b8c9d2e36110fc8161202b565b7f4910fdfa16fed3260ed0e7147f7cc6da11a60208b5b9406d12a635614ffd91435460ff16156123b657610be083612cea565b826001600160a01b03166352d1902d6040518163ffffffff1660e01b8152600401602060405180830381865afa925050508015612410575060408051601f3d908101601f1916820190925261240d918101906136a4565b60015b6124825760405162461bcd60e51b815260206004820152602e60248201527f45524331393637557067726164653a206e657720696d706c656d656e7461746960448201527f6f6e206973206e6f7420555550530000000000000000000000000000000000006064820152608401610ccf565b7f360894a13ba1a3210667c828492db98dca3e2076cc3735a920a3ca505d382bbc81146125175760405162461bcd60e51b815260206004820152602960248201527f45524331393637557067726164653a20756e737570706f727465642070726f7860448201527f6961626c655555494400000000000000000000000000000000000000000000006064820152608401610ccf565b50610be0838383612db5565b61252b61275a565b609f805460ff191690557f5db9ee0a495bf2e6ff9c91a7834c1ba4fdd244a5e8aa4e537bd38aeae4b073aa335b6040516001600160a01b03909116815260200160405180910390a1565b600854610100900460ff166120885760405162461bcd60e51b815260206004820152602b60248201527f496e697469616c697a61626c653a20636f6e7472616374206973206e6f74206960448201527f6e697469616c697a696e670000000000000000000000000000000000000000006064820152608401610ccf565b600854610100900460ff1661266f5760405162461bcd60e51b815260206004820152602b60248201527f496e697469616c697a61626c653a20636f6e7472616374206973206e6f74206960448201527f6e697469616c697a696e670000000000000000000000000000000000000000006064820152608401610ccf565b612088612dda565b6110fc8282612234565b600081815260076020526040812081815560018101805473ffffffffffffffffffffffffffffffffffffffff191690556002810182905560038101829055600401556040518181527f935c9ad2f1fda9d7eae0d2a512f1521cb7190ee06165414e722366a65975fb6b9060200160405180910390a150565b612701612035565b609f805460ff191660011790557f62e78cea01bee320cd4e420270b5ea74000d11b0c9f74754ebdbfc544b05a2586125583390565b6000633fffffff604183901c16806127515762e9d0ee612753565b805b9392505050565b609f5460ff166120885760405162461bcd60e51b815260206004820152601460248201527f5061757361626c653a206e6f74207061757365640000000000000000000000006044820152606401610ccf565b6000828152600760205260409020600481015461280b5760405162461bcd60e51b815260206004820152601160248201527f6f72646572206e6f7420657869737465640000000000000000000000000000006044820152606401610ccf565b8060020154821461285e5760405162461bcd60e51b815260206004820152601d60248201527f7072696365206973206e6f74206d617463682077697468206f726465720000006044820152606401610ccf565b600181015460038201546006546040517fe985e9c50000000000000000000000000000000000000000000000000000000081526001600160a01b0393841660048201819052306024830152939091169063e985e9c590604401602060405180830381865afa1580156128d4573d6000803e3d6000fd5b505050506040513d601f19601f820116820180604052508101906128f891906136bd565b6129445760405162461bcd60e51b815260206004820152601560248201527f6e6f742079657420617070726f7665466f72416c6c00000000000000000000006044820152606401610ccf565b600085815260076020526040812081815560018101805473ffffffffffffffffffffffffffffffffffffffff19169055600281018290556003810182905560040155600061299185612e63565b9050600061299f8683612e80565b905060006129ac88612e8c565b905060006001600160a01b0382166129cf576005546001600160a01b03166129d1565b815b6040517f23b872dd000000000000000000000000000000000000000000000000000000008152336004820152306024820152604481018690529091506001600160a01b038216906323b872dd906064016020604051808303816000875af1158015612a40573d6000803e3d6000fd5b505050506040513d601f19601f82011682018060405250810190612a6491906136bd565b612ab05760405162461bcd60e51b815260206004820181905260248201527f6661696c20746f207472616e736665722062636f696e20746f206d61726b65746044820152606401610ccf565b6040517f23b872dd0000000000000000000000000000000000000000000000000000000081523360048201526001600160a01b038781166024830152604482018590528216906323b872dd906064016020604051808303816000875af1158015612b1e573d6000803e3d6000fd5b505050506040513d601f19601f82011682018060405250810190612b4291906136bd565b612b8e5760405162461bcd60e51b815260206004820181905260248201527f6661696c20746f207472616e736665722062636f696e20746f2073656c6c65726044820152606401610ccf565b6006546040517f42842e0e0000000000000000000000000000000000000000000000000000000081526001600160a01b038881166004830152336024830152604482018c9052909116906342842e0e90606401600060405180830381600087803b158015612bfb57600080fd5b505af1158015612c0f573d6000803e3d6000fd5b5050604080518c8152602081018c90529081018890526001600160a01b03891660608201523360808201527f95c89a9d10e4c04e4a14d2a484dba4070c7246be033fdc7797f5eac556eeb469925060a001905060405180910390a1505050505050505050565b6000828152606d602090815260408083206001600160a01b038516845290915290205460ff166110fc57612ca881612ed7565b612cb3836020612ee9565b604051602001612cc4929190613757565b60408051601f198184030181529082905262461bcd60e51b8252610ccf916004016137d8565b6001600160a01b0381163b612d675760405162461bcd60e51b815260206004820152602d60248201527f455243313936373a206e657720696d706c656d656e746174696f6e206973206e60448201527f6f74206120636f6e7472616374000000000000000000000000000000000000006064820152608401610ccf565b7f360894a13ba1a3210667c828492db98dca3e2076cc3735a920a3ca505d382bbc805473ffffffffffffffffffffffffffffffffffffffff19166001600160a01b0392909216919091179055565b612dbe83613112565b600082511180612dcb5750805b15610be057610ab78383613152565b600854610100900460ff16612e575760405162461bcd60e51b815260206004820152602b60248201527f496e697469616c697a61626c653a20636f6e7472616374206973206e6f74206960448201527f6e697469616c697a696e670000000000000000000000000000000000000000006064820152608401610ccf565b609f805460ff19169055565b600061271060005483612e76919061380b565b610a1e9190613822565b60006127538284613720565b600081815261013560205260408120546001600160a01b0316612eba576005546001600160a01b0316610a1e565b50600090815261013560205260409020546001600160a01b031690565b6060610a1e6001600160a01b03831660145b60606000612ef883600261380b565b612f0390600261370d565b67ffffffffffffffff811115612f1b57612f1b6133da565b6040519080825280601f01601f191660200182016040528015612f45576020820181803683370190505b5090507f300000000000000000000000000000000000000000000000000000000000000081600081518110612f7c57612f7c61368e565b60200101907effffffffffffffffffffffffffffffffffffffffffffffffffffffffffffff1916908160001a9053507f780000000000000000000000000000000000000000000000000000000000000081600181518110612fdf57612fdf61368e565b60200101907effffffffffffffffffffffffffffffffffffffffffffffffffffffffffffff1916908160001a905350600061301b84600261380b565b61302690600161370d565b90505b60018111156130c3577f303132333435363738396162636465660000000000000000000000000000000085600f16601081106130675761306761368e565b1a60f81b82828151811061307d5761307d61368e565b60200101907effffffffffffffffffffffffffffffffffffffffffffffffffffffffffffff1916908160001a90535060049490941c936130bc81613844565b9050613029565b5083156127535760405162461bcd60e51b815260206004820181905260248201527f537472696e67733a20686578206c656e67746820696e73756666696369656e746044820152606401610ccf565b61311b81612cea565b6040516001600160a01b038216907fbc7cd75a20ee27fd9adebab32041f755214dbc6bffa90cc0225b39da2e5c2d3b90600090a250565b60606127538383604051806060016040528060278152602001613896602791396060600080856001600160a01b03168560405161318f9190613879565b600060405180830381855af49150503d80600081146131ca576040519150601f19603f3d011682016040523d82523d6000602084013e6131cf565b606091505b5091509150611d59868383876060831561324a578251600003613243576001600160a01b0385163b6132435760405162461bcd60e51b815260206004820152601d60248201527f416464726573733a2063616c6c20746f206e6f6e2d636f6e74726163740000006044820152606401610ccf565b5081613254565b613254838361325c565b949350505050565b81511561326c5781518083602001fd5b8060405162461bcd60e51b8152600401610ccf91906137d8565b60006020828403121561329857600080fd5b81357fffffffff000000000000000000000000000000000000000000000000000000008116811461275357600080fd5b60008083601f8401126132da57600080fd5b50813567ffffffffffffffff8111156132f257600080fd5b6020830191508360208260051b850101111561330d57600080fd5b9250929050565b6000806020838503121561332757600080fd5b823567ffffffffffffffff81111561333e57600080fd5b61334a858286016132c8565b90969095509350505050565b6001600160a01b038116811461129a57600080fd5b60006020828403121561337d57600080fd5b813561275381613356565b60008060006060848603121561339d57600080fd5b833592506020840135915060408401356133b681613356565b809150509250925092565b6000602082840312156133d357600080fd5b5035919050565b634e487b7160e01b600052604160045260246000fd5b604051601f8201601f1916810167ffffffffffffffff81118282101715613419576134196133da565b604052919050565b6000602080838503121561343457600080fd5b823567ffffffffffffffff8082111561344c57600080fd5b818501915085601f83011261346057600080fd5b813581811115613472576134726133da565b8060051b91506134838483016133f0565b818152918301840191848101908884111561349d57600080fd5b938501935b838510156134c757843592506134b783613356565b82825293850193908501906134a2565b98975050505050505050565b600080604083850312156134e657600080fd5b8235915060208301356134f881613356565b809150509250929050565b6000806040838503121561351657600080fd5b50508035926020909101359150565b801515811461129a57600080fd5b60008060006060848603121561354857600080fd5b83359250602084013561355a81613525565b929592945050506040919091013590565b6000806040838503121561357e57600080fd5b823561358981613356565b915060208301356134f881613356565b600080604083850312156135ac57600080fd5b82356135b781613356565b915060208381013567ffffffffffffffff808211156135d557600080fd5b818601915086601f8301126135e957600080fd5b8135818111156135fb576135fb6133da565b61360d84601f19601f840116016133f0565b9150808252878482850101111561362357600080fd5b80848401858401376000848284010152508093505050509250929050565b6020808252825182820181905260009190848201906040850190845b818110156136825783516001600160a01b03168352928401929184019160010161365d565b50909695505050505050565b634e487b7160e01b600052603260045260246000fd5b6000602082840312156136b657600080fd5b5051919050565b6000602082840312156136cf57600080fd5b815161275381613525565b6000602082840312156136ec57600080fd5b815161275381613356565b634e487b7160e01b600052601160045260246000fd5b80820180821115610a1e57610a1e6136f7565b81810381811115610a1e57610a1e6136f7565b60005b8381101561374e578181015183820152602001613736565b50506000910152565b7f416363657373436f6e74726f6c3a206163636f756e742000000000000000000081526000835161378f816017850160208801613733565b7f206973206d697373696e6720726f6c652000000000000000000000000000000060179184019182015283516137cc816028840160208801613733565b01602801949350505050565b60208152600082518060208401526137f7816040850160208701613733565b601f01601f19169190910160400192915050565b8082028115828204841417610a1e57610a1e6136f7565b60008261383f57634e487b7160e01b600052601260045260246000fd5b500490565b600081613853576138536136f7565b507fffffffffffffffffffffffffffffffffffffffffffffffffffffffffffffffff0190565b6000825161388b818460208701613733565b919091019291505056fe416464726573733a206c6f772d6c6576656c2064656c65676174652063616c6c206661696c6564a26469706673582212205bdec1e58722d2a87dc4f9f20ae2351d7cdb7b4770eb1ec5078e99ba8de55e8464736f6c63430008180033","opcodes":"PUSH1 0xA0 PUSH1 0x40 MSTORE ADDRESS PUSH1 0x80 MSTORE CALLVALUE DUP1 ISZERO PUSH2 0x14 JUMPI PUSH1 0x0 DUP1 REVERT JUMPDEST POP PUSH1 0x80 MLOAD PUSH2 0x38F2 PUSH2 0x4C PUSH1 0x0 CODECOPY PUSH1 0x0 DUP2 DUP2 PUSH2 0x110A ADD MSTORE DUP2 DUP2 PUSH2 0x11A0 ADD MSTORE DUP2 DUP2 PUSH2 0x1775 ADD MSTORE DUP2 DUP2 PUSH2 0x180B ADD MSTORE PUSH2 0x1B65 ADD MSTORE PUSH2 0x38F2 PUSH1 0x0 RETURN INVALID PUSH1 0x80 PUSH1 0x40 MSTORE PUSH1 0x4 CALLDATASIZE LT PUSH2 0x308 JUMPI PUSH1 0x0 CALLDATALOAD PUSH1 0xE0 SHR DUP1 PUSH4 0x514FCAC7 GT PUSH2 0x19A JUMPI DUP1 PUSH4 0xA217FDDF GT PUSH2 0xE1 JUMPI DUP1 PUSH4 0xD6FEBDE8 GT PUSH2 0x8A JUMPI DUP1 PUSH4 0xE63AB1E9 GT PUSH2 0x64 JUMPI DUP1 PUSH4 0xE63AB1E9 EQ PUSH2 0x977 JUMPI DUP1 PUSH4 0xF690D973 EQ PUSH2 0x9AB JUMPI DUP1 PUSH4 0xF72C0D8B EQ PUSH2 0x9DF JUMPI PUSH1 0x0 DUP1 REVERT JUMPDEST DUP1 PUSH4 0xD6FEBDE8 EQ PUSH2 0x8F6 JUMPI DUP1 PUSH4 0xDF064AD8 EQ PUSH2 0x916 JUMPI DUP1 PUSH4 0xE1AE214B EQ PUSH2 0x94A JUMPI PUSH1 0x0 DUP1 REVERT JUMPDEST DUP1 PUSH4 0xD09EF241 GT PUSH2 0xBB JUMPI DUP1 PUSH4 0xD09EF241 EQ PUSH2 0x86E JUMPI DUP1 PUSH4 0xD547741F EQ PUSH2 0x8B6 JUMPI DUP1 PUSH4 0xD56D229D EQ PUSH2 0x8D6 JUMPI PUSH1 0x0 DUP1 REVERT JUMPDEST DUP1 PUSH4 0xA217FDDF EQ PUSH2 0x823 JUMPI DUP1 PUSH4 0xA459F3AE EQ PUSH2 0x838 JUMPI DUP1 PUSH4 0xCC3E0DF6 EQ PUSH2 0x84E JUMPI PUSH1 0x0 DUP1 REVERT JUMPDEST DUP1 PUSH4 0x757AA181 GT PUSH2 0x143 JUMPI DUP1 PUSH4 0x85F438C1 GT PUSH2 0x11D JUMPI DUP1 PUSH4 0x85F438C1 EQ PUSH2 0x789 JUMPI DUP1 PUSH4 0x91D14854 EQ PUSH2 0x7BD JUMPI DUP1 PUSH4 0x9ED36D68 EQ PUSH2 0x803 JUMPI PUSH1 0x0 DUP1 REVERT JUMPDEST DUP1 PUSH4 0x757AA181 EQ PUSH2 0x74A JUMPI DUP1 PUSH4 0x771A3A1D EQ PUSH2 0x75E JUMPI DUP1 PUSH4 0x8456CB59 EQ PUSH2 0x774 JUMPI PUSH1 0x0 DUP1 REVERT JUMPDEST DUP1 PUSH4 0x5EC9A943 GT PUSH2 0x174 JUMPI DUP1 PUSH4 0x5EC9A943 EQ PUSH2 0x6D9 JUMPI DUP1 PUSH4 0x73958428 EQ PUSH2 0x6F9 JUMPI DUP1 PUSH4 0x753D7563 EQ PUSH2 0x719 JUMPI PUSH1 0x0 DUP1 REVERT JUMPDEST DUP1 PUSH4 0x514FCAC7 EQ PUSH2 0x68C JUMPI DUP1 PUSH4 0x52D1902D EQ PUSH2 0x6AC JUMPI DUP1 PUSH4 0x5C975ABB EQ PUSH2 0x6C1 JUMPI PUSH1 0x0 DUP1 REVERT JUMPDEST DUP1 PUSH4 0x2F2FF15D GT PUSH2 0x25E JUMPI DUP1 PUSH4 0x3F4BA83A GT PUSH2 0x207 JUMPI DUP1 PUSH4 0x4F1B1086 GT PUSH2 0x1E1 JUMPI DUP1 PUSH4 0x4F1B1086 EQ PUSH2 0x5D8 JUMPI DUP1 PUSH4 0x4F1EF286 EQ PUSH2 0x629 JUMPI DUP1 PUSH4 0x50281736 EQ PUSH2 0x63C JUMPI PUSH1 0x0 DUP1 REVERT JUMPDEST DUP1 PUSH4 0x3F4BA83A EQ PUSH2 0x583 JUMPI DUP1 PUSH4 0x4665A43F EQ PUSH2 0x598 JUMPI DUP1 PUSH4 0x485CC955 EQ PUSH2 0x5B8 JUMPI PUSH1 0x0 DUP1 REVERT JUMPDEST DUP1 PUSH4 0x3659CFE6 GT PUSH2 0x238 JUMPI DUP1 PUSH4 0x3659CFE6 EQ PUSH2 0x52E JUMPI DUP1 PUSH4 0x36D02C94 EQ PUSH2 0x54E JUMPI DUP1 PUSH4 0x3CCFD60B EQ PUSH2 0x56E JUMPI PUSH1 0x0 DUP1 REVERT JUMPDEST DUP1 PUSH4 0x2F2FF15D EQ PUSH2 0x4B5 JUMPI DUP1 PUSH4 0x333E99DB EQ PUSH2 0x4D5 JUMPI DUP1 PUSH4 0x36568ABE EQ PUSH2 0x50E JUMPI PUSH1 0x0 DUP1 REVERT JUMPDEST DUP1 PUSH4 0x12065FE0 GT PUSH2 0x2C0 JUMPI DUP1 PUSH4 0x248A9CA3 GT PUSH2 0x29A JUMPI DUP1 PUSH4 0x248A9CA3 EQ PUSH2 0x449 JUMPI DUP1 PUSH4 0x2822DC73 EQ PUSH2 0x479 JUMPI DUP1 PUSH4 0x2DA7EA75 EQ PUSH2 0x495 JUMPI PUSH1 0x0 DUP1 REVERT JUMPDEST DUP1 PUSH4 0x12065FE0 EQ PUSH2 0x3FE JUMPI DUP1 PUSH4 0x1AB0D567 EQ PUSH2 0x413 JUMPI DUP1 PUSH4 0x23B70D76 EQ PUSH2 0x429 JUMPI PUSH1 0x0 DUP1 REVERT JUMPDEST DUP1 PUSH4 0x3A5B1ED GT PUSH2 0x2F1 JUMPI DUP1 PUSH4 0x3A5B1ED EQ PUSH2 0x384 JUMPI DUP1 PUSH4 0x8B57F31 EQ PUSH2 0x3A6 JUMPI DUP1 PUSH4 0xB9A743A EQ PUSH2 0x3C6 JUMPI PUSH1 0x0 DUP1 REVERT JUMPDEST DUP1 PUSH4 0x1FFC9A7 EQ PUSH2 0x30D JUMPI DUP1 PUSH4 0x2D2FF66 EQ PUSH2 0x342 JUMPI JUMPDEST PUSH1 0x0 DUP1 REVERT JUMPDEST CALLVALUE DUP1 ISZERO PUSH2 0x319 JUMPI PUSH1 0x0 DUP1 REVERT JUMPDEST POP PUSH2 0x32D PUSH2 0x328 CALLDATASIZE PUSH1 0x4 PUSH2 0x3286 JUMP JUMPDEST PUSH2 0xA13 JUMP JUMPDEST PUSH1 0x40 MLOAD SWAP1 ISZERO ISZERO DUP2 MSTORE PUSH1 0x20 ADD JUMPDEST PUSH1 0x40 MLOAD DUP1 SWAP2 SUB SWAP1 RETURN JUMPDEST CALLVALUE DUP1 ISZERO PUSH2 0x34E JUMPI PUSH1 0x0 DUP1 REVERT JUMPDEST POP PUSH2 0x376 PUSH32 0xEBFDCA8E46C0B8DACF9989EE613E35727EADD20A1D5E5AD01A53968C7E5FE07A DUP2 JUMP JUMPDEST PUSH1 0x40 MLOAD SWAP1 DUP2 MSTORE PUSH1 0x20 ADD PUSH2 0x339 JUMP JUMPDEST CALLVALUE DUP1 ISZERO PUSH2 0x390 JUMPI PUSH1 0x0 DUP1 REVERT JUMPDEST POP PUSH2 0x3A4 PUSH2 0x39F CALLDATASIZE PUSH1 0x4 PUSH2 0x3314 JUMP JUMPDEST PUSH2 0xA24 JUMP JUMPDEST STOP JUMPDEST CALLVALUE DUP1 ISZERO PUSH2 0x3B2 JUMPI PUSH1 0x0 DUP1 REVERT JUMPDEST POP PUSH2 0x3A4 PUSH2 0x3C1 CALLDATASIZE PUSH1 0x4 PUSH2 0x336B JUMP JUMPDEST PUSH2 0xABD JUMP JUMPDEST CALLVALUE DUP1 ISZERO PUSH2 0x3D2 JUMPI PUSH1 0x0 DUP1 REVERT JUMPDEST POP PUSH1 0x5 SLOAD PUSH2 0x3E6 SWAP1 PUSH1 0x1 PUSH1 0x1 PUSH1 0xA0 SHL SUB AND DUP2 JUMP JUMPDEST PUSH1 0x40 MLOAD PUSH1 0x1 PUSH1 0x1 PUSH1 0xA0 SHL SUB SWAP1 SWAP2 AND DUP2 MSTORE PUSH1 0x20 ADD PUSH2 0x339 JUMP JUMPDEST CALLVALUE DUP1 ISZERO PUSH2 0x40A JUMPI PUSH1 0x0 DUP1 REVERT JUMPDEST POP PUSH2 0x376 PUSH2 0xBE5 JUMP JUMPDEST CALLVALUE DUP1 ISZERO PUSH2 0x41F JUMPI PUSH1 0x0 DUP1 REVERT JUMPDEST POP PUSH2 0x376 PUSH1 0x2 SLOAD DUP2 JUMP JUMPDEST CALLVALUE DUP1 ISZERO PUSH2 0x435 JUMPI PUSH1 0x0 DUP1 REVERT JUMPDEST POP PUSH2 0x3A4 PUSH2 0x444 CALLDATASIZE PUSH1 0x4 PUSH2 0x3388 JUMP JUMPDEST PUSH2 0xC57 JUMP JUMPDEST CALLVALUE DUP1 ISZERO PUSH2 0x455 JUMPI PUSH1 0x0 DUP1 REVERT JUMPDEST POP PUSH2 0x376 PUSH2 0x464 CALLDATASIZE PUSH1 0x4 PUSH2 0x33C1 JUMP JUMPDEST PUSH1 0x0 SWAP1 DUP2 MSTORE PUSH1 0x6D PUSH1 0x20 MSTORE PUSH1 0x40 SWAP1 KECCAK256 PUSH1 0x1 ADD SLOAD SWAP1 JUMP JUMPDEST CALLVALUE DUP1 ISZERO PUSH2 0x485 JUMPI PUSH1 0x0 DUP1 REVERT JUMPDEST POP PUSH1 0x40 MLOAD PUSH1 0x2 DUP2 MSTORE PUSH1 0x20 ADD PUSH2 0x339 JUMP JUMPDEST CALLVALUE DUP1 ISZERO PUSH2 0x4A1 JUMPI PUSH1 0x0 DUP1 REVERT JUMPDEST POP PUSH2 0x3A4 PUSH2 0x4B0 CALLDATASIZE PUSH1 0x4 PUSH2 0x3421 JUMP JUMPDEST PUSH2 0xFC7 JUMP JUMPDEST CALLVALUE DUP1 ISZERO PUSH2 0x4C1 JUMPI PUSH1 0x0 DUP1 REVERT JUMPDEST POP PUSH2 0x3A4 PUSH2 0x4D0 CALLDATASIZE PUSH1 0x4 PUSH2 0x34D3 JUMP JUMPDEST PUSH2 0x104F JUMP JUMPDEST CALLVALUE DUP1 ISZERO PUSH2 0x4E1 JUMPI PUSH1 0x0 DUP1 REVERT JUMPDEST POP PUSH2 0x32D PUSH2 0x4F0 CALLDATASIZE PUSH1 0x4 PUSH2 0x336B JUMP JUMPDEST PUSH1 0x1 PUSH1 0x1 PUSH1 0xA0 SHL SUB AND PUSH1 0x0 SWAP1 DUP2 MSTORE PUSH1 0x4 PUSH1 0x20 MSTORE PUSH1 0x40 SWAP1 KECCAK256 SLOAD PUSH1 0xFF AND SWAP1 JUMP JUMPDEST CALLVALUE DUP1 ISZERO PUSH2 0x51A JUMPI PUSH1 0x0 DUP1 REVERT JUMPDEST POP PUSH2 0x3A4 PUSH2 0x529 CALLDATASIZE PUSH1 0x4 PUSH2 0x34D3 JUMP JUMPDEST PUSH2 0x1074 JUMP JUMPDEST CALLVALUE DUP1 ISZERO PUSH2 0x53A JUMPI PUSH1 0x0 DUP1 REVERT JUMPDEST POP PUSH2 0x3A4 PUSH2 0x549 CALLDATASIZE PUSH1 0x4 PUSH2 0x336B JUMP JUMPDEST PUSH2 0x1100 JUMP JUMPDEST CALLVALUE DUP1 ISZERO PUSH2 0x55A JUMPI PUSH1 0x0 DUP1 REVERT JUMPDEST POP PUSH2 0x3A4 PUSH2 0x569 CALLDATASIZE PUSH1 0x4 PUSH2 0x3503 JUMP JUMPDEST PUSH2 0x129D JUMP JUMPDEST CALLVALUE DUP1 ISZERO PUSH2 0x57A JUMPI PUSH1 0x0 DUP1 REVERT JUMPDEST POP PUSH2 0x3A4 PUSH2 0x1325 JUMP JUMPDEST CALLVALUE DUP1 ISZERO PUSH2 0x58F JUMPI PUSH1 0x0 DUP1 REVERT JUMPDEST POP PUSH2 0x3A4 PUSH2 0x144C JUMP JUMPDEST CALLVALUE DUP1 ISZERO PUSH2 0x5A4 JUMPI PUSH1 0x0 DUP1 REVERT JUMPDEST POP PUSH2 0x3A4 PUSH2 0x5B3 CALLDATASIZE PUSH1 0x4 PUSH2 0x3533 JUMP JUMPDEST PUSH2 0x147E JUMP JUMPDEST CALLVALUE DUP1 ISZERO PUSH2 0x5C4 JUMPI PUSH1 0x0 DUP1 REVERT JUMPDEST POP PUSH2 0x3A4 PUSH2 0x5D3 CALLDATASIZE PUSH1 0x4 PUSH2 0x356B JUMP JUMPDEST PUSH2 0x14E3 JUMP JUMPDEST CALLVALUE DUP1 ISZERO PUSH2 0x5E4 JUMPI PUSH1 0x0 DUP1 REVERT JUMPDEST POP PUSH2 0x612 PUSH2 0x5F3 CALLDATASIZE PUSH1 0x4 PUSH2 0x33C1 JUMP JUMPDEST PUSH1 0x3 PUSH1 0x20 MSTORE PUSH1 0x0 SWAP1 DUP2 MSTORE PUSH1 0x40 SWAP1 KECCAK256 DUP1 SLOAD PUSH1 0x1 SWAP1 SWAP2 ADD SLOAD PUSH1 0xFF SWAP1 SWAP2 AND SWAP1 DUP3 JUMP JUMPDEST PUSH1 0x40 DUP1 MLOAD SWAP3 ISZERO ISZERO DUP4 MSTORE PUSH1 0x20 DUP4 ADD SWAP2 SWAP1 SWAP2 MSTORE ADD PUSH2 0x339 JUMP JUMPDEST PUSH2 0x3A4 PUSH2 0x637 CALLDATASIZE PUSH1 0x4 PUSH2 0x3599 JUMP JUMPDEST PUSH2 0x176B JUMP JUMPDEST CALLVALUE DUP1 ISZERO PUSH2 0x648 JUMPI PUSH1 0x0 DUP1 REVERT JUMPDEST POP PUSH2 0x65C PUSH2 0x657 CALLDATASIZE PUSH1 0x4 PUSH2 0x33C1 JUMP JUMPDEST PUSH2 0x18F5 JUMP JUMPDEST PUSH1 0x40 DUP1 MLOAD SWAP6 DUP7 MSTORE PUSH1 0x1 PUSH1 0x1 PUSH1 0xA0 SHL SUB SWAP5 DUP6 AND PUSH1 0x20 DUP8 ADD MSTORE DUP6 ADD SWAP3 SWAP1 SWAP3 MSTORE PUSH1 0x60 DUP5 ADD MSTORE AND PUSH1 0x80 DUP3 ADD MSTORE PUSH1 0xA0 ADD PUSH2 0x339 JUMP JUMPDEST CALLVALUE DUP1 ISZERO PUSH2 0x698 JUMPI PUSH1 0x0 DUP1 REVERT JUMPDEST POP PUSH2 0x3A4 PUSH2 0x6A7 CALLDATASIZE PUSH1 0x4 PUSH2 0x33C1 JUMP JUMPDEST PUSH2 0x199E JUMP JUMPDEST CALLVALUE DUP1 ISZERO PUSH2 0x6B8 JUMPI PUSH1 0x0 DUP1 REVERT JUMPDEST POP PUSH2 0x376 PUSH2 0x1B58 JUMP JUMPDEST CALLVALUE DUP1 ISZERO PUSH2 0x6CD JUMPI PUSH1 0x0 DUP1 REVERT JUMPDEST POP PUSH1 0x9F SLOAD PUSH1 0xFF AND PUSH2 0x32D JUMP JUMPDEST CALLVALUE DUP1 ISZERO PUSH2 0x6E5 JUMPI PUSH1 0x0 DUP1 REVERT JUMPDEST POP PUSH2 0x3A4 PUSH2 0x6F4 CALLDATASIZE PUSH1 0x4 PUSH2 0x3421 JUMP JUMPDEST PUSH2 0x1C1D JUMP JUMPDEST CALLVALUE DUP1 ISZERO PUSH2 0x705 JUMPI PUSH1 0x0 DUP1 REVERT JUMPDEST POP PUSH2 0x3A4 PUSH2 0x714 CALLDATASIZE PUSH1 0x4 PUSH2 0x33C1 JUMP JUMPDEST PUSH2 0x1CA5 JUMP JUMPDEST CALLVALUE DUP1 ISZERO PUSH2 0x725 JUMPI PUSH1 0x0 DUP1 REVERT JUMPDEST POP PUSH2 0x32D PUSH2 0x734 CALLDATASIZE PUSH1 0x4 PUSH2 0x336B JUMP JUMPDEST PUSH2 0x136 PUSH1 0x20 MSTORE PUSH1 0x0 SWAP1 DUP2 MSTORE PUSH1 0x40 SWAP1 KECCAK256 SLOAD PUSH1 0xFF AND DUP2 JUMP JUMPDEST CALLVALUE DUP1 ISZERO PUSH2 0x756 JUMPI PUSH1 0x0 DUP1 REVERT JUMPDEST POP PUSH1 0x0 PUSH2 0x376 JUMP JUMPDEST CALLVALUE DUP1 ISZERO PUSH2 0x76A JUMPI PUSH1 0x0 DUP1 REVERT JUMPDEST POP PUSH2 0x376 PUSH1 0x0 SLOAD DUP2 JUMP JUMPDEST CALLVALUE DUP1 ISZERO PUSH2 0x780 JUMPI PUSH1 0x0 DUP1 REVERT JUMPDEST POP PUSH2 0x3A4 PUSH2 0x1CD5 JUMP JUMPDEST CALLVALUE DUP1 ISZERO PUSH2 0x795 JUMPI PUSH1 0x0 DUP1 REVERT JUMPDEST POP PUSH2 0x376 PUSH32 0x10DAC8C06A04BEC0B551627DAD28BC00D6516B0CAACD1C7B345FCDB5211334E4 DUP2 JUMP JUMPDEST CALLVALUE DUP1 ISZERO PUSH2 0x7C9 JUMPI PUSH1 0x0 DUP1 REVERT JUMPDEST POP PUSH2 0x32D PUSH2 0x7D8 CALLDATASIZE PUSH1 0x4 PUSH2 0x34D3 JUMP JUMPDEST PUSH1 0x0 SWAP2 DUP3 MSTORE PUSH1 0x6D PUSH1 0x20 SWAP1 DUP2 MSTORE PUSH1 0x40 DUP1 DUP5 KECCAK256 PUSH1 0x1 PUSH1 0x1 PUSH1 0xA0 SHL SUB SWAP4 SWAP1 SWAP4 AND DUP5 MSTORE SWAP2 SWAP1 MSTORE SWAP1 KECCAK256 SLOAD PUSH1 0xFF AND SWAP1 JUMP JUMPDEST CALLVALUE DUP1 ISZERO PUSH2 0x80F JUMPI PUSH1 0x0 DUP1 REVERT JUMPDEST POP PUSH2 0x32D PUSH2 0x81E CALLDATASIZE PUSH1 0x4 PUSH2 0x3503 JUMP JUMPDEST PUSH2 0x1D07 JUMP JUMPDEST CALLVALUE DUP1 ISZERO PUSH2 0x82F JUMPI PUSH1 0x0 DUP1 REVERT JUMPDEST POP PUSH2 0x376 PUSH1 0x0 DUP2 JUMP JUMPDEST CALLVALUE DUP1 ISZERO PUSH2 0x844 JUMPI PUSH1 0x0 DUP1 REVERT JUMPDEST POP PUSH2 0x376 PUSH1 0x1 SLOAD DUP2 JUMP JUMPDEST CALLVALUE DUP1 ISZERO PUSH2 0x85A JUMPI PUSH1 0x0 DUP1 REVERT JUMPDEST POP PUSH2 0x3A4 PUSH2 0x869 CALLDATASIZE PUSH1 0x4 PUSH2 0x33C1 JUMP JUMPDEST PUSH2 0x1D63 JUMP JUMPDEST CALLVALUE DUP1 ISZERO PUSH2 0x87A JUMPI PUSH1 0x0 DUP1 REVERT JUMPDEST POP PUSH2 0x88E PUSH2 0x889 CALLDATASIZE PUSH1 0x4 PUSH2 0x33C1 JUMP JUMPDEST PUSH2 0x1DF4 JUMP JUMPDEST PUSH1 0x40 DUP1 MLOAD SWAP5 DUP6 MSTORE PUSH1 0x1 PUSH1 0x1 PUSH1 0xA0 SHL SUB SWAP1 SWAP4 AND PUSH1 0x20 DUP6 ADD MSTORE SWAP2 DUP4 ADD MSTORE PUSH1 0x60 DUP3 ADD MSTORE PUSH1 0x80 ADD PUSH2 0x339 JUMP JUMPDEST CALLVALUE DUP1 ISZERO PUSH2 0x8C2 JUMPI PUSH1 0x0 DUP1 REVERT JUMPDEST POP PUSH2 0x3A4 PUSH2 0x8D1 CALLDATASIZE PUSH1 0x4 PUSH2 0x34D3 JUMP JUMPDEST PUSH2 0x1E8F JUMP JUMPDEST CALLVALUE DUP1 ISZERO PUSH2 0x8E2 JUMPI PUSH1 0x0 DUP1 REVERT JUMPDEST POP PUSH1 0x6 SLOAD PUSH2 0x3E6 SWAP1 PUSH1 0x1 PUSH1 0x1 PUSH1 0xA0 SHL SUB AND DUP2 JUMP JUMPDEST CALLVALUE DUP1 ISZERO PUSH2 0x902 JUMPI PUSH1 0x0 DUP1 REVERT JUMPDEST POP PUSH2 0x3A4 PUSH2 0x911 CALLDATASIZE PUSH1 0x4 PUSH2 0x3503 JUMP JUMPDEST PUSH2 0x1EB4 JUMP JUMPDEST CALLVALUE DUP1 ISZERO PUSH2 0x922 JUMPI PUSH1 0x0 DUP1 REVERT JUMPDEST POP PUSH2 0x376 PUSH32 0x22C69AB406805E70D07FB1A6502AF760601D3B977BEADB295A9D76D5852E16A3 DUP2 JUMP JUMPDEST CALLVALUE DUP1 ISZERO PUSH2 0x956 JUMPI PUSH1 0x0 DUP1 REVERT JUMPDEST POP PUSH2 0x96A PUSH2 0x965 CALLDATASIZE PUSH1 0x4 PUSH2 0x3314 JUMP JUMPDEST PUSH2 0x1EC6 JUMP JUMPDEST PUSH1 0x40 MLOAD PUSH2 0x339 SWAP2 SWAP1 PUSH2 0x3641 JUMP JUMPDEST CALLVALUE DUP1 ISZERO PUSH2 0x983 JUMPI PUSH1 0x0 DUP1 REVERT JUMPDEST POP PUSH2 0x376 PUSH32 0x65D7A28E3265B37A6474929F336521B332C1681B933F6CB9F3376673440D862A DUP2 JUMP JUMPDEST CALLVALUE DUP1 ISZERO PUSH2 0x9B7 JUMPI PUSH1 0x0 DUP1 REVERT JUMPDEST POP PUSH2 0x376 PUSH32 0x8661AE67C9D50F67DBB173AD6369DD93AE94918083BD986295C3AC4E3822F0B8 DUP2 JUMP JUMPDEST CALLVALUE DUP1 ISZERO PUSH2 0x9EB JUMPI PUSH1 0x0 DUP1 REVERT JUMPDEST POP PUSH2 0x376 PUSH32 0x189AB7A9244DF0848122154315AF71FE140F3DB0FE014031783B0946B8C9D2E3 DUP2 JUMP JUMPDEST PUSH1 0x0 PUSH2 0xA1E DUP3 PUSH2 0x1F94 JUMP JUMPDEST SWAP3 SWAP2 POP POP JUMP JUMPDEST PUSH32 0x22C69AB406805E70D07FB1A6502AF760601D3B977BEADB295A9D76D5852E16A3 PUSH2 0xA4E DUP2 PUSH2 0x202B JUMP JUMPDEST PUSH1 0x0 JUMPDEST DUP3 DUP2 LT ISZERO PUSH2 0xAB7 JUMPI PUSH1 0x1 PUSH2 0x136 PUSH1 0x0 DUP7 DUP7 DUP6 DUP2 DUP2 LT PUSH2 0xA72 JUMPI PUSH2 0xA72 PUSH2 0x368E JUMP JUMPDEST SWAP1 POP PUSH1 0x20 MUL ADD PUSH1 0x20 DUP2 ADD SWAP1 PUSH2 0xA87 SWAP2 SWAP1 PUSH2 0x336B JUMP JUMPDEST PUSH1 0x1 PUSH1 0x1 PUSH1 0xA0 SHL SUB AND DUP2 MSTORE PUSH1 0x20 DUP2 ADD SWAP2 SWAP1 SWAP2 MSTORE PUSH1 0x40 ADD PUSH1 0x0 KECCAK256 DUP1 SLOAD PUSH1 0xFF NOT AND SWAP2 ISZERO ISZERO SWAP2 SWAP1 SWAP2 OR SWAP1 SSTORE PUSH1 0x1 ADD PUSH2 0xA51 JUMP JUMPDEST POP POP POP POP JUMP JUMPDEST PUSH32 0x10DAC8C06A04BEC0B551627DAD28BC00D6516B0CAACD1C7B345FCDB5211334E4 PUSH2 0xAE7 DUP2 PUSH2 0x202B JUMP JUMPDEST PUSH1 0x40 MLOAD PUSH4 0x70A08231 PUSH1 0xE0 SHL DUP2 MSTORE ADDRESS PUSH1 0x4 DUP3 ADD MSTORE PUSH1 0x1 PUSH1 0x1 PUSH1 0xA0 SHL SUB DUP4 AND SWAP1 PUSH4 0xA9059CBB SWAP1 CALLER SWAP1 DUP4 SWAP1 PUSH4 0x70A08231 SWAP1 PUSH1 0x24 ADD PUSH1 0x20 PUSH1 0x40 MLOAD DUP1 DUP4 SUB DUP2 DUP7 GAS STATICCALL ISZERO DUP1 ISZERO PUSH2 0xB35 JUMPI RETURNDATASIZE PUSH1 0x0 DUP1 RETURNDATACOPY RETURNDATASIZE PUSH1 0x0 REVERT JUMPDEST POP POP POP POP PUSH1 0x40 MLOAD RETURNDATASIZE PUSH1 0x1F NOT PUSH1 0x1F DUP3 ADD AND DUP3 ADD DUP1 PUSH1 0x40 MSTORE POP DUP2 ADD SWAP1 PUSH2 0xB59 SWAP2 SWAP1 PUSH2 0x36A4 JUMP JUMPDEST PUSH1 0x40 MLOAD PUSH32 0xFFFFFFFF00000000000000000000000000000000000000000000000000000000 PUSH1 0xE0 DUP6 SWAP1 SHL AND DUP2 MSTORE PUSH1 0x1 PUSH1 0x1 PUSH1 0xA0 SHL SUB SWAP1 SWAP3 AND PUSH1 0x4 DUP4 ADD MSTORE PUSH1 0x24 DUP3 ADD MSTORE PUSH1 0x44 ADD PUSH1 0x20 PUSH1 0x40 MLOAD DUP1 DUP4 SUB DUP2 PUSH1 0x0 DUP8 GAS CALL ISZERO DUP1 ISZERO PUSH2 0xBBC JUMPI RETURNDATASIZE PUSH1 0x0 DUP1 RETURNDATACOPY RETURNDATASIZE PUSH1 0x0 REVERT JUMPDEST POP POP POP POP PUSH1 0x40 MLOAD RETURNDATASIZE PUSH1 0x1F NOT PUSH1 0x1F DUP3 ADD AND DUP3 ADD DUP1 PUSH1 0x40 MSTORE POP DUP2 ADD SWAP1 PUSH2 0xBE0 SWAP2 SWAP1 PUSH2 0x36BD JUMP JUMPDEST POP POP POP JUMP JUMPDEST PUSH1 0x5 SLOAD PUSH1 0x40 MLOAD PUSH4 0x70A08231 PUSH1 0xE0 SHL DUP2 MSTORE ADDRESS PUSH1 0x4 DUP3 ADD MSTORE PUSH1 0x0 SWAP2 PUSH1 0x1 PUSH1 0x1 PUSH1 0xA0 SHL SUB AND SWAP1 PUSH4 0x70A08231 SWAP1 PUSH1 0x24 ADD PUSH1 0x20 PUSH1 0x40 MLOAD DUP1 DUP4 SUB DUP2 DUP7 GAS STATICCALL ISZERO DUP1 ISZERO PUSH2 0xC2E JUMPI RETURNDATASIZE PUSH1 0x0 DUP1 RETURNDATACOPY RETURNDATASIZE PUSH1 0x0 REVERT JUMPDEST POP POP POP POP PUSH1 0x40 MLOAD RETURNDATASIZE PUSH1 0x1F NOT PUSH1 0x1F DUP3 ADD AND DUP3 ADD DUP1 PUSH1 0x40 MSTORE POP DUP2 ADD SWAP1 PUSH2 0xC52 SWAP2 SWAP1 PUSH2 0x36A4 JUMP JUMPDEST SWAP1 POP SWAP1 JUMP JUMPDEST PUSH2 0xC5F PUSH2 0x2035 JUMP JUMPDEST DUP2 PUSH16 0xFFFFFFFFFFFFFFFFFFFFFFFFFFFFFFFF AND DUP3 EQ PUSH2 0xC7D JUMPI PUSH1 0x0 DUP1 REVERT JUMPDEST PUSH2 0xC87 CALLER DUP5 PUSH2 0x208A JUMP JUMPDEST PUSH2 0xCD8 JUMPI PUSH1 0x40 MLOAD PUSH3 0x461BCD PUSH1 0xE5 SHL DUP2 MSTORE PUSH1 0x20 PUSH1 0x4 DUP3 ADD MSTORE PUSH1 0xD PUSH1 0x24 DUP3 ADD MSTORE PUSH32 0x4E6F74204E4654206F776E657200000000000000000000000000000000000000 PUSH1 0x44 DUP3 ADD MSTORE PUSH1 0x64 ADD JUMPDEST PUSH1 0x40 MLOAD DUP1 SWAP2 SUB SWAP1 REVERT JUMPDEST CALLER PUSH1 0x0 SWAP1 DUP2 MSTORE PUSH1 0x4 PUSH1 0x20 MSTORE PUSH1 0x40 SWAP1 KECCAK256 SLOAD PUSH1 0xFF AND ISZERO PUSH2 0xD38 JUMPI PUSH1 0x40 MLOAD PUSH3 0x461BCD PUSH1 0xE5 SHL DUP2 MSTORE PUSH1 0x20 PUSH1 0x4 DUP3 ADD MSTORE PUSH1 0x9 PUSH1 0x24 DUP3 ADD MSTORE PUSH32 0x626C61636B6C6973740000000000000000000000000000000000000000000000 PUSH1 0x44 DUP3 ADD MSTORE PUSH1 0x64 ADD PUSH2 0xCCF JUMP JUMPDEST PUSH1 0x1 PUSH1 0x1 PUSH1 0xA0 SHL SUB DUP2 AND PUSH1 0x0 SWAP1 DUP2 MSTORE PUSH2 0x136 PUSH1 0x20 MSTORE PUSH1 0x40 SWAP1 KECCAK256 SLOAD PUSH1 0xFF AND PUSH2 0xDA1 JUMPI PUSH1 0x40 MLOAD PUSH3 0x461BCD PUSH1 0xE5 SHL DUP2 MSTORE PUSH1 0x20 PUSH1 0x4 DUP3 ADD MSTORE PUSH1 0x1E PUSH1 0x24 DUP3 ADD MSTORE PUSH32 0x546F6B656E2061646472657373206E6F7420696E2077686974656C6973740000 PUSH1 0x44 DUP3 ADD MSTORE PUSH1 0x64 ADD PUSH2 0xCCF JUMP JUMPDEST PUSH1 0x6 SLOAD PUSH1 0x40 MLOAD PUSH32 0xFC314E3100000000000000000000000000000000000000000000000000000000 DUP2 MSTORE PUSH1 0x4 DUP2 ADD DUP6 SWAP1 MSTORE PUSH1 0x0 SWAP2 PUSH1 0x1 PUSH1 0x1 PUSH1 0xA0 SHL SUB AND SWAP1 PUSH4 0xFC314E31 SWAP1 PUSH1 0x24 ADD PUSH1 0x20 PUSH1 0x40 MLOAD DUP1 DUP4 SUB DUP2 DUP7 GAS STATICCALL ISZERO DUP1 ISZERO PUSH2 0xE04 JUMPI RETURNDATASIZE PUSH1 0x0 DUP1 RETURNDATACOPY RETURNDATASIZE PUSH1 0x0 REVERT JUMPDEST POP POP POP POP PUSH1 0x40 MLOAD RETURNDATASIZE PUSH1 0x1F NOT PUSH1 0x1F DUP3 ADD AND DUP3 ADD DUP1 PUSH1 0x40 MSTORE POP DUP2 ADD SWAP1 PUSH2 0xE28 SWAP2 SWAP1 PUSH2 0x36A4 JUMP JUMPDEST SWAP1 POP PUSH2 0xE34 DUP2 DUP5 PUSH2 0x1D07 JUMP JUMPDEST PUSH2 0xE80 JUMPI PUSH1 0x40 MLOAD PUSH3 0x461BCD PUSH1 0xE5 SHL DUP2 MSTORE PUSH1 0x20 PUSH1 0x4 DUP3 ADD MSTORE PUSH1 0x16 PUSH1 0x24 DUP3 ADD MSTORE PUSH32 0x6E6F7420706173732073656C6C61626C652072756C6500000000000000000000 PUSH1 0x44 DUP3 ADD MSTORE PUSH1 0x64 ADD PUSH2 0xCCF JUMP JUMPDEST PUSH1 0x6 SLOAD PUSH1 0x40 MLOAD PUSH32 0xE985E9C500000000000000000000000000000000000000000000000000000000 DUP2 MSTORE CALLER PUSH1 0x4 DUP3 ADD MSTORE ADDRESS PUSH1 0x24 DUP3 ADD MSTORE PUSH1 0x1 PUSH1 0x1 PUSH1 0xA0 SHL SUB SWAP1 SWAP2 AND SWAP1 PUSH4 0xE985E9C5 SWAP1 PUSH1 0x44 ADD PUSH1 0x20 PUSH1 0x40 MLOAD DUP1 DUP4 SUB DUP2 DUP7 GAS STATICCALL ISZERO DUP1 ISZERO PUSH2 0xEE7 JUMPI RETURNDATASIZE PUSH1 0x0 DUP1 RETURNDATACOPY RETURNDATASIZE PUSH1 0x0 REVERT JUMPDEST POP POP POP POP PUSH1 0x40 MLOAD RETURNDATASIZE PUSH1 0x1F NOT PUSH1 0x1F DUP3 ADD AND DUP3 ADD DUP1 PUSH1 0x40 MSTORE POP DUP2 ADD SWAP1 PUSH2 0xF0B SWAP2 SWAP1 PUSH2 0x36BD JUMP JUMPDEST PUSH2 0xF57 JUMPI PUSH1 0x40 MLOAD PUSH3 0x461BCD PUSH1 0xE5 SHL DUP2 MSTORE PUSH1 0x20 PUSH1 0x4 DUP3 ADD MSTORE PUSH1 0x15 PUSH1 0x24 DUP3 ADD MSTORE PUSH32 0x6E6F742079657420617070726F7665466F72416C6C0000000000000000000000 PUSH1 0x44 DUP3 ADD MSTORE PUSH1 0x64 ADD PUSH2 0xCCF JUMP JUMPDEST PUSH1 0x40 DUP1 MLOAD PUSH1 0xA0 DUP2 ADD DUP3 MSTORE DUP6 DUP2 MSTORE CALLER PUSH1 0x20 DUP1 DUP4 ADD SWAP2 SWAP1 SWAP2 MSTORE DUP2 DUP4 ADD DUP7 SWAP1 MSTORE PUSH1 0x60 DUP3 ADD DUP5 SWAP1 MSTORE TIMESTAMP PUSH1 0x80 DUP4 ADD MSTORE PUSH1 0x0 DUP8 DUP2 MSTORE PUSH2 0x135 SWAP1 SWAP2 MSTORE SWAP2 SWAP1 SWAP2 KECCAK256 DUP1 SLOAD PUSH20 0xFFFFFFFFFFFFFFFFFFFFFFFFFFFFFFFFFFFFFFFF NOT AND PUSH1 0x1 PUSH1 0x1 PUSH1 0xA0 SHL SUB DUP6 AND OR SWAP1 SSTORE PUSH2 0xFC0 DUP6 DUP3 PUSH2 0x2127 JUMP JUMPDEST POP POP POP POP POP JUMP JUMPDEST PUSH32 0x8661AE67C9D50F67DBB173AD6369DD93AE94918083BD986295C3AC4E3822F0B8 PUSH2 0xFF1 DUP2 PUSH2 0x202B JUMP JUMPDEST PUSH1 0x0 JUMPDEST DUP3 MLOAD DUP2 LT ISZERO PUSH2 0xBE0 JUMPI PUSH1 0x0 PUSH1 0x4 PUSH1 0x0 DUP6 DUP5 DUP2 MLOAD DUP2 LT PUSH2 0x1015 JUMPI PUSH2 0x1015 PUSH2 0x368E JUMP JUMPDEST PUSH1 0x20 SWAP1 DUP2 MUL SWAP2 SWAP1 SWAP2 ADD DUP2 ADD MLOAD PUSH1 0x1 PUSH1 0x1 PUSH1 0xA0 SHL SUB AND DUP3 MSTORE DUP2 ADD SWAP2 SWAP1 SWAP2 MSTORE PUSH1 0x40 ADD PUSH1 0x0 KECCAK256 DUP1 SLOAD PUSH1 0xFF NOT AND SWAP2 ISZERO ISZERO SWAP2 SWAP1 SWAP2 OR SWAP1 SSTORE PUSH1 0x1 ADD PUSH2 0xFF4 JUMP JUMPDEST PUSH1 0x0 DUP3 DUP2 MSTORE PUSH1 0x6D PUSH1 0x20 MSTORE PUSH1 0x40 SWAP1 KECCAK256 PUSH1 0x1 ADD SLOAD PUSH2 0x106A DUP2 PUSH2 0x202B JUMP JUMPDEST PUSH2 0xBE0 DUP4 DUP4 PUSH2 0x2234 JUMP JUMPDEST PUSH1 0x1 PUSH1 0x1 PUSH1 0xA0 SHL SUB DUP2 AND CALLER EQ PUSH2 0x10F2 JUMPI PUSH1 0x40 MLOAD PUSH3 0x461BCD PUSH1 0xE5 SHL DUP2 MSTORE PUSH1 0x20 PUSH1 0x4 DUP3 ADD MSTORE PUSH1 0x2F PUSH1 0x24 DUP3 ADD MSTORE PUSH32 0x416363657373436F6E74726F6C3A2063616E206F6E6C792072656E6F756E6365 PUSH1 0x44 DUP3 ADD MSTORE PUSH32 0x20726F6C657320666F722073656C660000000000000000000000000000000000 PUSH1 0x64 DUP3 ADD MSTORE PUSH1 0x84 ADD PUSH2 0xCCF JUMP JUMPDEST PUSH2 0x10FC DUP3 DUP3 PUSH2 0x22D6 JUMP JUMPDEST POP POP JUMP JUMPDEST PUSH1 0x1 PUSH1 0x1 PUSH1 0xA0 SHL SUB PUSH32 0x0 AND ADDRESS SUB PUSH2 0x119E JUMPI PUSH1 0x40 MLOAD PUSH3 0x461BCD PUSH1 0xE5 SHL DUP2 MSTORE PUSH1 0x20 PUSH1 0x4 DUP3 ADD MSTORE PUSH1 0x2C PUSH1 0x24 DUP3 ADD MSTORE PUSH32 0x46756E6374696F6E206D7573742062652063616C6C6564207468726F75676820 PUSH1 0x44 DUP3 ADD MSTORE PUSH32 0x64656C656761746563616C6C0000000000000000000000000000000000000000 PUSH1 0x64 DUP3 ADD MSTORE PUSH1 0x84 ADD PUSH2 0xCCF JUMP JUMPDEST PUSH32 0x0 PUSH1 0x1 PUSH1 0x1 PUSH1 0xA0 SHL SUB AND PUSH2 0x11F9 PUSH32 0x360894A13BA1A3210667C828492DB98DCA3E2076CC3735A920A3CA505D382BBC SLOAD PUSH1 0x1 PUSH1 0x1 PUSH1 0xA0 SHL SUB AND SWAP1 JUMP JUMPDEST PUSH1 0x1 PUSH1 0x1 PUSH1 0xA0 SHL SUB AND EQ PUSH2 0x1275 JUMPI PUSH1 0x40 MLOAD PUSH3 0x461BCD PUSH1 0xE5 SHL DUP2 MSTORE PUSH1 0x20 PUSH1 0x4 DUP3 ADD MSTORE PUSH1 0x2C PUSH1 0x24 DUP3 ADD MSTORE PUSH32 0x46756E6374696F6E206D7573742062652063616C6C6564207468726F75676820 PUSH1 0x44 DUP3 ADD MSTORE PUSH32 0x6163746976652070726F78790000000000000000000000000000000000000000 PUSH1 0x64 DUP3 ADD MSTORE PUSH1 0x84 ADD PUSH2 0xCCF JUMP JUMPDEST PUSH2 0x127E DUP2 PUSH2 0x2359 JUMP JUMPDEST PUSH1 0x40 DUP1 MLOAD PUSH1 0x0 DUP1 DUP3 MSTORE PUSH1 0x20 DUP3 ADD SWAP1 SWAP3 MSTORE PUSH2 0x129A SWAP2 DUP4 SWAP2 SWAP1 PUSH2 0x2383 JUMP JUMPDEST POP JUMP JUMPDEST PUSH32 0x22C69AB406805E70D07FB1A6502AF760601D3B977BEADB295A9D76D5852E16A3 PUSH2 0x12C7 DUP2 PUSH2 0x202B JUMP JUMPDEST PUSH2 0x2710 DUP4 GT ISZERO PUSH2 0x1319 JUMPI PUSH1 0x40 MLOAD PUSH3 0x461BCD PUSH1 0xE5 SHL DUP2 MSTORE PUSH1 0x20 PUSH1 0x4 DUP3 ADD DUP2 SWAP1 MSTORE PUSH1 0x24 DUP3 ADD MSTORE PUSH32 0x74617852617465206D75737420626520696E2072616E676520302D3130303030 PUSH1 0x44 DUP3 ADD MSTORE PUSH1 0x64 ADD PUSH2 0xCCF JUMP JUMPDEST POP PUSH1 0x0 SWAP2 SWAP1 SWAP2 SSTORE PUSH1 0x1 SSTORE JUMP JUMPDEST PUSH32 0x10DAC8C06A04BEC0B551627DAD28BC00D6516B0CAACD1C7B345FCDB5211334E4 PUSH2 0x134F DUP2 PUSH2 0x202B JUMP JUMPDEST PUSH1 0x5 SLOAD PUSH1 0x40 MLOAD PUSH4 0x70A08231 PUSH1 0xE0 SHL DUP2 MSTORE ADDRESS PUSH1 0x4 DUP3 ADD MSTORE PUSH1 0x1 PUSH1 0x1 PUSH1 0xA0 SHL SUB SWAP1 SWAP2 AND SWAP1 PUSH4 0xA9059CBB SWAP1 CALLER SWAP1 DUP4 SWAP1 PUSH4 0x70A08231 SWAP1 PUSH1 0x24 ADD PUSH1 0x20 PUSH1 0x40 MLOAD DUP1 DUP4 SUB DUP2 DUP7 GAS STATICCALL ISZERO DUP1 ISZERO PUSH2 0x13A1 JUMPI RETURNDATASIZE PUSH1 0x0 DUP1 RETURNDATACOPY RETURNDATASIZE PUSH1 0x0 REVERT JUMPDEST POP POP POP POP PUSH1 0x40 MLOAD RETURNDATASIZE PUSH1 0x1F NOT PUSH1 0x1F DUP3 ADD AND DUP3 ADD DUP1 PUSH1 0x40 MSTORE POP DUP2 ADD SWAP1 PUSH2 0x13C5 SWAP2 SWAP1 PUSH2 0x36A4 JUMP JUMPDEST PUSH1 0x40 MLOAD PUSH32 0xFFFFFFFF00000000000000000000000000000000000000000000000000000000 PUSH1 0xE0 DUP6 SWAP1 SHL AND DUP2 MSTORE PUSH1 0x1 PUSH1 0x1 PUSH1 0xA0 SHL SUB SWAP1 SWAP3 AND PUSH1 0x4 DUP4 ADD MSTORE PUSH1 0x24 DUP3 ADD MSTORE PUSH1 0x44 ADD PUSH1 0x20 PUSH1 0x40 MLOAD DUP1 DUP4 SUB DUP2 PUSH1 0x0 DUP8 GAS CALL ISZERO DUP1 ISZERO PUSH2 0x1428 JUMPI RETURNDATASIZE PUSH1 0x0 DUP1 RETURNDATACOPY RETURNDATASIZE PUSH1 0x0 REVERT JUMPDEST POP POP POP POP PUSH1 0x40 MLOAD RETURNDATASIZE PUSH1 0x1F NOT PUSH1 0x1F DUP3 ADD AND DUP3 ADD DUP1 PUSH1 0x40 MSTORE POP DUP2 ADD SWAP1 PUSH2 0x10FC SWAP2 SWAP1 PUSH2 0x36BD JUMP JUMPDEST PUSH32 0x65D7A28E3265B37A6474929F336521B332C1681B933F6CB9F3376673440D862A PUSH2 0x1476 DUP2 PUSH2 0x202B JUMP JUMPDEST PUSH2 0x129A PUSH2 0x2523 JUMP JUMPDEST PUSH32 0x22C69AB406805E70D07FB1A6502AF760601D3B977BEADB295A9D76D5852E16A3 PUSH2 0x14A8 DUP2 PUSH2 0x202B JUMP JUMPDEST POP PUSH1 0x40 DUP1 MLOAD DUP1 DUP3 ADD DUP3 MSTORE SWAP3 ISZERO ISZERO DUP4 MSTORE PUSH1 0x20 DUP1 DUP5 ADD SWAP3 DUP4 MSTORE PUSH1 0x0 SWAP5 DUP6 MSTORE PUSH1 0x3 SWAP1 MSTORE SWAP1 SWAP3 KECCAK256 SWAP1 MLOAD DUP2 SLOAD PUSH1 0xFF NOT AND SWAP1 ISZERO ISZERO OR DUP2 SSTORE SWAP1 MLOAD PUSH1 0x1 SWAP1 SWAP2 ADD SSTORE JUMP JUMPDEST PUSH1 0x8 SLOAD PUSH2 0x100 SWAP1 DIV PUSH1 0xFF AND ISZERO DUP1 DUP1 ISZERO PUSH2 0x1503 JUMPI POP PUSH1 0x8 SLOAD PUSH1 0x1 PUSH1 0xFF SWAP1 SWAP2 AND LT JUMPDEST DUP1 PUSH2 0x151D JUMPI POP ADDRESS EXTCODESIZE ISZERO DUP1 ISZERO PUSH2 0x151D JUMPI POP PUSH1 0x8 SLOAD PUSH1 0xFF AND PUSH1 0x1 EQ JUMPDEST PUSH2 0x158F JUMPI PUSH1 0x40 MLOAD PUSH3 0x461BCD PUSH1 0xE5 SHL DUP2 MSTORE PUSH1 0x20 PUSH1 0x4 DUP3 ADD MSTORE PUSH1 0x2E PUSH1 0x24 DUP3 ADD MSTORE PUSH32 0x496E697469616C697A61626C653A20636F6E747261637420697320616C726561 PUSH1 0x44 DUP3 ADD MSTORE PUSH32 0x647920696E697469616C697A6564000000000000000000000000000000000000 PUSH1 0x64 DUP3 ADD MSTORE PUSH1 0x84 ADD PUSH2 0xCCF JUMP JUMPDEST PUSH1 0x8 DUP1 SLOAD PUSH1 0xFF NOT AND PUSH1 0x1 OR SWAP1 SSTORE DUP1 ISZERO PUSH2 0x15B2 JUMPI PUSH1 0x8 DUP1 SLOAD PUSH2 0xFF00 NOT AND PUSH2 0x100 OR SWAP1 SSTORE JUMPDEST PUSH2 0x15BA PUSH2 0x2575 JUMP JUMPDEST PUSH2 0x15C2 PUSH2 0x25F2 JUMP JUMPDEST PUSH2 0x15CA PUSH2 0x2575 JUMP JUMPDEST PUSH2 0x15D5 PUSH1 0x0 CALLER PUSH2 0x2677 JUMP JUMPDEST PUSH2 0x15FF PUSH32 0x65D7A28E3265B37A6474929F336521B332C1681B933F6CB9F3376673440D862A CALLER PUSH2 0x2677 JUMP JUMPDEST PUSH2 0x1629 PUSH32 0x10DAC8C06A04BEC0B551627DAD28BC00D6516B0CAACD1C7B345FCDB5211334E4 CALLER PUSH2 0x2677 JUMP JUMPDEST PUSH2 0x1653 PUSH32 0x189AB7A9244DF0848122154315AF71FE140F3DB0FE014031783B0946B8C9D2E3 CALLER PUSH2 0x2677 JUMP JUMPDEST PUSH2 0x167D PUSH32 0x22C69AB406805E70D07FB1A6502AF760601D3B977BEADB295A9D76D5852E16A3 CALLER PUSH2 0x2677 JUMP JUMPDEST PUSH2 0x16A7 PUSH32 0x8661AE67C9D50F67DBB173AD6369DD93AE94918083BD986295C3AC4E3822F0B8 CALLER PUSH2 0x2677 JUMP JUMPDEST PUSH2 0x16D1 PUSH32 0xEBFDCA8E46C0B8DACF9989EE613E35727EADD20A1D5E5AD01A53968C7E5FE07A CALLER PUSH2 0x2677 JUMP JUMPDEST PUSH1 0x5 DUP1 SLOAD PUSH1 0x1 PUSH1 0x1 PUSH1 0xA0 SHL SUB DUP1 DUP7 AND PUSH20 0xFFFFFFFFFFFFFFFFFFFFFFFFFFFFFFFFFFFFFFFF NOT SWAP3 DUP4 AND OR SWAP1 SWAP3 SSTORE PUSH1 0x6 DUP1 SLOAD SWAP3 DUP6 AND SWAP3 SWAP1 SWAP2 AND SWAP2 SWAP1 SWAP2 OR SWAP1 SSTORE PUSH2 0x1F4 PUSH1 0x0 SSTORE PUSH1 0xA PUSH1 0x1 SSTORE PUSH3 0x31380 PUSH1 0x2 SSTORE DUP1 ISZERO PUSH2 0xBE0 JUMPI PUSH1 0x8 DUP1 SLOAD PUSH2 0xFF00 NOT AND SWAP1 SSTORE PUSH1 0x40 MLOAD PUSH1 0x1 DUP2 MSTORE PUSH32 0x7F26B83FF96E1F2B6A682F133852F6798A09C465DA95921460CEFB3847402498 SWAP1 PUSH1 0x20 ADD JUMPDEST PUSH1 0x40 MLOAD DUP1 SWAP2 SUB SWAP1 LOG1 POP POP POP JUMP JUMPDEST PUSH1 0x1 PUSH1 0x1 PUSH1 0xA0 SHL SUB PUSH32 0x0 AND ADDRESS SUB PUSH2 0x1809 JUMPI PUSH1 0x40 MLOAD PUSH3 0x461BCD PUSH1 0xE5 SHL DUP2 MSTORE PUSH1 0x20 PUSH1 0x4 DUP3 ADD MSTORE PUSH1 0x2C PUSH1 0x24 DUP3 ADD MSTORE PUSH32 0x46756E6374696F6E206D7573742062652063616C6C6564207468726F75676820 PUSH1 0x44 DUP3 ADD MSTORE PUSH32 0x64656C656761746563616C6C0000000000000000000000000000000000000000 PUSH1 0x64 DUP3 ADD MSTORE PUSH1 0x84 ADD PUSH2 0xCCF JUMP JUMPDEST PUSH32 0x0 PUSH1 0x1 PUSH1 0x1 PUSH1 0xA0 SHL SUB AND PUSH2 0x1864 PUSH32 0x360894A13BA1A3210667C828492DB98DCA3E2076CC3735A920A3CA505D382BBC SLOAD PUSH1 0x1 PUSH1 0x1 PUSH1 0xA0 SHL SUB AND SWAP1 JUMP JUMPDEST PUSH1 0x1 PUSH1 0x1 PUSH1 0xA0 SHL SUB AND EQ PUSH2 0x18E0 JUMPI PUSH1 0x40 MLOAD PUSH3 0x461BCD PUSH1 0xE5 SHL DUP2 MSTORE PUSH1 0x20 PUSH1 0x4 DUP3 ADD MSTORE PUSH1 0x2C PUSH1 0x24 DUP3 ADD MSTORE PUSH32 0x46756E6374696F6E206D7573742062652063616C6C6564207468726F75676820 PUSH1 0x44 DUP3 ADD MSTORE PUSH32 0x6163746976652070726F78790000000000000000000000000000000000000000 PUSH1 0x64 DUP3 ADD MSTORE PUSH1 0x84 ADD PUSH2 0xCCF JUMP JUMPDEST PUSH2 0x18E9 DUP3 PUSH2 0x2359 JUMP JUMPDEST PUSH2 0x10FC DUP3 DUP3 PUSH1 0x1 PUSH2 0x2383 JUMP JUMPDEST PUSH1 0x0 DUP2 DUP2 MSTORE PUSH1 0x7 PUSH1 0x20 MSTORE PUSH1 0x40 DUP2 KECCAK256 PUSH1 0x4 DUP2 ADD SLOAD DUP3 SWAP2 DUP3 SWAP2 DUP3 SWAP2 DUP3 SWAP2 PUSH2 0x195C JUMPI PUSH1 0x40 MLOAD PUSH3 0x461BCD PUSH1 0xE5 SHL DUP2 MSTORE PUSH1 0x20 PUSH1 0x4 DUP3 ADD MSTORE PUSH1 0x11 PUSH1 0x24 DUP3 ADD MSTORE PUSH32 0x6F72646572206E6F742065786973746564000000000000000000000000000000 PUSH1 0x44 DUP3 ADD MSTORE PUSH1 0x64 ADD PUSH2 0xCCF JUMP JUMPDEST PUSH1 0x3 DUP2 ADD SLOAD PUSH1 0x1 DUP3 ADD SLOAD PUSH1 0x2 DUP4 ADD SLOAD PUSH1 0x4 SWAP1 SWAP4 ADD SLOAD PUSH1 0x0 SWAP10 DUP11 MSTORE PUSH2 0x135 PUSH1 0x20 MSTORE PUSH1 0x40 SWAP1 SWAP10 KECCAK256 SLOAD SWAP2 SWAP10 PUSH1 0x1 PUSH1 0x1 PUSH1 0xA0 SHL SUB SWAP2 DUP3 AND SWAP10 SWAP4 SWAP9 POP SWAP3 SWAP7 POP AND SWAP4 POP SWAP2 POP POP JUMP JUMPDEST PUSH2 0x19A6 PUSH2 0x2035 JUMP JUMPDEST PUSH1 0x0 DUP2 DUP2 MSTORE PUSH1 0x7 PUSH1 0x20 MSTORE PUSH1 0x40 SWAP1 KECCAK256 PUSH1 0x4 DUP2 ADD SLOAD PUSH2 0x1A05 JUMPI PUSH1 0x40 MLOAD PUSH3 0x461BCD PUSH1 0xE5 SHL DUP2 MSTORE PUSH1 0x20 PUSH1 0x4 DUP3 ADD MSTORE PUSH1 0x11 PUSH1 0x24 DUP3 ADD MSTORE PUSH32 0x6F72646572206E6F742065786973746564000000000000000000000000000000 PUSH1 0x44 DUP3 ADD MSTORE PUSH1 0x64 ADD PUSH2 0xCCF JUMP JUMPDEST PUSH1 0x1 DUP2 ADD SLOAD PUSH1 0x1 PUSH1 0x1 PUSH1 0xA0 SHL SUB AND CALLER DUP2 EQ DUP1 PUSH2 0x1A4F JUMPI POP CALLER PUSH1 0x0 SWAP1 DUP2 MSTORE PUSH32 0x53B80D278AB1F8DA3F90A9AB59A48D16B0B672D0DF1781096C72A6715D78D74A PUSH1 0x20 MSTORE PUSH1 0x40 SWAP1 KECCAK256 SLOAD PUSH1 0xFF AND JUMPDEST DUP1 PUSH2 0x1AE6 JUMPI POP PUSH1 0x6 SLOAD PUSH1 0x40 MLOAD PUSH32 0x6352211E00000000000000000000000000000000000000000000000000000000 DUP2 MSTORE PUSH1 0x4 DUP2 ADD DUP6 SWAP1 MSTORE CALLER SWAP2 PUSH1 0x1 PUSH1 0x1 PUSH1 0xA0 SHL SUB AND SWAP1 PUSH4 0x6352211E SWAP1 PUSH1 0x24 ADD PUSH1 0x20 PUSH1 0x40 MLOAD DUP1 DUP4 SUB DUP2 DUP7 GAS STATICCALL ISZERO DUP1 ISZERO PUSH2 0x1AB7 JUMPI RETURNDATASIZE PUSH1 0x0 DUP1 RETURNDATACOPY RETURNDATASIZE PUSH1 0x0 REVERT JUMPDEST POP POP POP POP PUSH1 0x40 MLOAD RETURNDATASIZE PUSH1 0x1F NOT PUSH1 0x1F DUP3 ADD AND DUP3 ADD DUP1 PUSH1 0x40 MSTORE POP DUP2 ADD SWAP1 PUSH2 0x1ADB SWAP2 SWAP1 PUSH2 0x36DA JUMP JUMPDEST PUSH1 0x1 PUSH1 0x1 PUSH1 0xA0 SHL SUB AND EQ JUMPDEST PUSH2 0x1AEF JUMPI PUSH1 0x0 DUP1 REVERT JUMPDEST TIMESTAMP PUSH1 0x1 SLOAD DUP4 PUSH1 0x4 ADD SLOAD PUSH2 0x1B02 SWAP2 SWAP1 PUSH2 0x370D JUMP JUMPDEST LT PUSH2 0x1B4F JUMPI PUSH1 0x40 MLOAD PUSH3 0x461BCD PUSH1 0xE5 SHL DUP2 MSTORE PUSH1 0x20 PUSH1 0x4 DUP3 ADD MSTORE PUSH1 0x1D PUSH1 0x24 DUP3 ADD MSTORE PUSH32 0x636F6F6C646F776E3A206E6F742063616E63656C6C61626C6520796574000000 PUSH1 0x44 DUP3 ADD MSTORE PUSH1 0x64 ADD PUSH2 0xCCF JUMP JUMPDEST PUSH2 0xBE0 DUP4 PUSH2 0x2681 JUMP JUMPDEST PUSH1 0x0 ADDRESS PUSH1 0x1 PUSH1 0x1 PUSH1 0xA0 SHL SUB PUSH32 0x0 AND EQ PUSH2 0x1BF8 JUMPI PUSH1 0x40 MLOAD PUSH3 0x461BCD PUSH1 0xE5 SHL DUP2 MSTORE PUSH1 0x20 PUSH1 0x4 DUP3 ADD MSTORE PUSH1 0x38 PUSH1 0x24 DUP3 ADD MSTORE PUSH32 0x555550535570677261646561626C653A206D757374206E6F742062652063616C PUSH1 0x44 DUP3 ADD MSTORE PUSH32 0x6C6564207468726F7567682064656C656761746563616C6C0000000000000000 PUSH1 0x64 DUP3 ADD MSTORE PUSH1 0x84 ADD PUSH2 0xCCF JUMP JUMPDEST POP PUSH32 0x360894A13BA1A3210667C828492DB98DCA3E2076CC3735A920A3CA505D382BBC SWAP1 JUMP JUMPDEST PUSH32 0x8661AE67C9D50F67DBB173AD6369DD93AE94918083BD986295C3AC4E3822F0B8 PUSH2 0x1C47 DUP2 PUSH2 0x202B JUMP JUMPDEST PUSH1 0x0 JUMPDEST DUP3 MLOAD DUP2 LT ISZERO PUSH2 0xBE0 JUMPI PUSH1 0x1 PUSH1 0x4 PUSH1 0x0 DUP6 DUP5 DUP2 MLOAD DUP2 LT PUSH2 0x1C6B JUMPI PUSH2 0x1C6B PUSH2 0x368E JUMP JUMPDEST PUSH1 0x20 SWAP1 DUP2 MUL SWAP2 SWAP1 SWAP2 ADD DUP2 ADD MLOAD PUSH1 0x1 PUSH1 0x1 PUSH1 0xA0 SHL SUB AND DUP3 MSTORE DUP2 ADD SWAP2 SWAP1 SWAP2 MSTORE PUSH1 0x40 ADD PUSH1 0x0 KECCAK256 DUP1 SLOAD PUSH1 0xFF NOT AND SWAP2 ISZERO ISZERO SWAP2 SWAP1 SWAP2 OR SWAP1 SSTORE PUSH1 0x1 ADD PUSH2 0x1C4A JUMP JUMPDEST PUSH32 0x22C69AB406805E70D07FB1A6502AF760601D3B977BEADB295A9D76D5852E16A3 PUSH2 0x1CCF DUP2 PUSH2 0x202B JUMP JUMPDEST POP PUSH1 0x2 SSTORE JUMP JUMPDEST PUSH32 0x65D7A28E3265B37A6474929F336521B332C1681B933F6CB9F3376673440D862A PUSH2 0x1CFF DUP2 PUSH2 0x202B JUMP JUMPDEST PUSH2 0x129A PUSH2 0x26F9 JUMP JUMPDEST PUSH1 0x1F PUSH1 0x28 DUP4 SWAP1 SHR AND PUSH1 0x0 DUP2 DUP2 MSTORE PUSH1 0x3 PUSH1 0x20 MSTORE PUSH1 0x40 DUP2 KECCAK256 SWAP1 SWAP2 SWAP1 DUP3 PUSH2 0x1D2A DUP7 PUSH2 0x2736 JUMP JUMPDEST DUP3 SLOAD SWAP1 SWAP2 POP PUSH1 0xFF AND DUP1 ISZERO PUSH2 0x1D42 JUMPI POP DUP2 PUSH1 0x1 ADD SLOAD DUP6 LT ISZERO JUMPDEST DUP1 ISZERO PUSH2 0x1D59 JUMPI POP PUSH1 0x2 SLOAD PUSH2 0x1D56 SWAP1 NUMBER PUSH2 0x3720 JUMP JUMPDEST DUP2 LT JUMPDEST SWAP7 SWAP6 POP POP POP POP POP POP JUMP JUMPDEST PUSH2 0x1D6B PUSH2 0x275A JUMP JUMPDEST PUSH32 0xEBFDCA8E46C0B8DACF9989EE613E35727EADD20A1D5E5AD01A53968C7E5FE07A PUSH2 0x1D95 DUP2 PUSH2 0x202B JUMP JUMPDEST PUSH1 0x0 DUP3 DUP2 MSTORE PUSH1 0x7 PUSH1 0x20 MSTORE PUSH1 0x40 SWAP1 KECCAK256 PUSH1 0x4 DUP2 ADD SLOAD PUSH2 0x1B4F JUMPI PUSH1 0x40 MLOAD PUSH3 0x461BCD PUSH1 0xE5 SHL DUP2 MSTORE PUSH1 0x20 PUSH1 0x4 DUP3 ADD MSTORE PUSH1 0x11 PUSH1 0x24 DUP3 ADD MSTORE PUSH32 0x6F72646572206E6F742065786973746564000000000000000000000000000000 PUSH1 0x44 DUP3 ADD MSTORE PUSH1 0x64 ADD PUSH2 0xCCF JUMP JUMPDEST PUSH1 0x0 DUP2 DUP2 MSTORE PUSH1 0x7 PUSH1 0x20 MSTORE PUSH1 0x40 DUP2 KECCAK256 DUP2 SWAP1 DUP2 SWAP1 DUP2 SWAP1 PUSH2 0x1E15 DUP2 PUSH1 0x4 ADD SLOAD ISZERO ISZERO SWAP1 JUMP JUMPDEST PUSH2 0x1E61 JUMPI PUSH1 0x40 MLOAD PUSH3 0x461BCD PUSH1 0xE5 SHL DUP2 MSTORE PUSH1 0x20 PUSH1 0x4 DUP3 ADD MSTORE PUSH1 0x11 PUSH1 0x24 DUP3 ADD MSTORE PUSH32 0x6F72646572206E6F742065786973746564000000000000000000000000000000 PUSH1 0x44 DUP3 ADD MSTORE PUSH1 0x64 ADD PUSH2 0xCCF JUMP JUMPDEST PUSH1 0x3 DUP2 ADD SLOAD PUSH1 0x1 DUP3 ADD SLOAD PUSH1 0x2 DUP4 ADD SLOAD PUSH1 0x4 SWAP1 SWAP4 ADD SLOAD SWAP2 SWAP9 PUSH1 0x1 PUSH1 0x1 PUSH1 0xA0 SHL SUB SWAP1 SWAP2 AND SWAP8 POP SWAP2 SWAP6 POP SWAP4 POP SWAP2 POP POP JUMP JUMPDEST PUSH1 0x0 DUP3 DUP2 MSTORE PUSH1 0x6D PUSH1 0x20 MSTORE PUSH1 0x40 SWAP1 KECCAK256 PUSH1 0x1 ADD SLOAD PUSH2 0x1EAA DUP2 PUSH2 0x202B JUMP JUMPDEST PUSH2 0xBE0 DUP4 DUP4 PUSH2 0x22D6 JUMP JUMPDEST PUSH2 0x1EBC PUSH2 0x2035 JUMP JUMPDEST PUSH2 0x10FC DUP3 DUP3 PUSH2 0x27AC JUMP JUMPDEST PUSH1 0x60 PUSH1 0x0 DUP3 PUSH8 0xFFFFFFFFFFFFFFFF DUP2 GT ISZERO PUSH2 0x1EE3 JUMPI PUSH2 0x1EE3 PUSH2 0x33DA JUMP JUMPDEST PUSH1 0x40 MLOAD SWAP1 DUP1 DUP3 MSTORE DUP1 PUSH1 0x20 MUL PUSH1 0x20 ADD DUP3 ADD PUSH1 0x40 MSTORE DUP1 ISZERO PUSH2 0x1F0C JUMPI DUP2 PUSH1 0x20 ADD PUSH1 0x20 DUP3 MUL DUP1 CALLDATASIZE DUP4 CALLDATACOPY ADD SWAP1 POP JUMPDEST POP SWAP1 POP PUSH1 0x0 JUMPDEST DUP4 DUP2 LT ISZERO PUSH2 0x1F8C JUMPI PUSH2 0x135 PUSH1 0x0 DUP7 DUP7 DUP5 DUP2 DUP2 LT PUSH2 0x1F31 JUMPI PUSH2 0x1F31 PUSH2 0x368E JUMP JUMPDEST SWAP1 POP PUSH1 0x20 MUL ADD CALLDATALOAD DUP2 MSTORE PUSH1 0x20 ADD SWAP1 DUP2 MSTORE PUSH1 0x20 ADD PUSH1 0x0 KECCAK256 PUSH1 0x0 SWAP1 SLOAD SWAP1 PUSH2 0x100 EXP SWAP1 DIV PUSH1 0x1 PUSH1 0x1 PUSH1 0xA0 SHL SUB AND DUP3 DUP3 DUP2 MLOAD DUP2 LT PUSH2 0x1F6C JUMPI PUSH2 0x1F6C PUSH2 0x368E JUMP JUMPDEST PUSH1 0x1 PUSH1 0x1 PUSH1 0xA0 SHL SUB SWAP1 SWAP3 AND PUSH1 0x20 SWAP3 DUP4 MUL SWAP2 SWAP1 SWAP2 ADD SWAP1 SWAP2 ADD MSTORE PUSH1 0x1 ADD PUSH2 0x1F12 JUMP JUMPDEST POP SWAP4 SWAP3 POP POP POP JUMP JUMPDEST PUSH1 0x0 PUSH32 0xFFFFFFFF00000000000000000000000000000000000000000000000000000000 DUP3 AND PUSH32 0x7965DB0B00000000000000000000000000000000000000000000000000000000 EQ DUP1 PUSH2 0xA1E JUMPI POP PUSH32 0x1FFC9A700000000000000000000000000000000000000000000000000000000 PUSH32 0xFFFFFFFF00000000000000000000000000000000000000000000000000000000 DUP4 AND EQ PUSH2 0xA1E JUMP JUMPDEST PUSH2 0x129A DUP2 CALLER PUSH2 0x2C75 JUMP JUMPDEST PUSH1 0x9F SLOAD PUSH1 0xFF AND ISZERO PUSH2 0x2088 JUMPI PUSH1 0x40 MLOAD PUSH3 0x461BCD PUSH1 0xE5 SHL DUP2 MSTORE PUSH1 0x20 PUSH1 0x4 DUP3 ADD MSTORE PUSH1 0x10 PUSH1 0x24 DUP3 ADD MSTORE PUSH32 0x5061757361626C653A2070617573656400000000000000000000000000000000 PUSH1 0x44 DUP3 ADD MSTORE PUSH1 0x64 ADD PUSH2 0xCCF JUMP JUMPDEST JUMP JUMPDEST PUSH1 0x6 SLOAD PUSH1 0x40 MLOAD PUSH32 0x6352211E00000000000000000000000000000000000000000000000000000000 DUP2 MSTORE PUSH1 0x4 DUP2 ADD DUP4 SWAP1 MSTORE PUSH1 0x0 SWAP2 PUSH1 0x1 PUSH1 0x1 PUSH1 0xA0 SHL SUB DUP6 DUP2 AND SWAP3 SWAP2 AND SWAP1 PUSH4 0x6352211E SWAP1 PUSH1 0x24 ADD PUSH1 0x20 PUSH1 0x40 MLOAD DUP1 DUP4 SUB DUP2 DUP7 GAS STATICCALL ISZERO DUP1 ISZERO PUSH2 0x20F2 JUMPI RETURNDATASIZE PUSH1 0x0 DUP1 RETURNDATACOPY RETURNDATASIZE PUSH1 0x0 REVERT JUMPDEST POP POP POP POP PUSH1 0x40 MLOAD RETURNDATASIZE PUSH1 0x1F NOT PUSH1 0x1F DUP3 ADD AND DUP3 ADD DUP1 PUSH1 0x40 MSTORE POP DUP2 ADD SWAP1 PUSH2 0x2116 SWAP2 SWAP1 PUSH2 0x36DA JUMP JUMPDEST PUSH1 0x1 PUSH1 0x1 PUSH1 0xA0 SHL SUB AND EQ SWAP4 SWAP3 POP POP POP JUMP JUMPDEST PUSH1 0x0 DUP3 DUP2 MSTORE PUSH1 0x7 PUSH1 0x20 MSTORE PUSH1 0x40 SWAP1 KECCAK256 PUSH1 0x4 DUP2 ADD SLOAD ISZERO PUSH2 0x2187 JUMPI PUSH1 0x40 MLOAD PUSH3 0x461BCD PUSH1 0xE5 SHL DUP2 MSTORE PUSH1 0x20 PUSH1 0x4 DUP3 ADD MSTORE PUSH1 0xD PUSH1 0x24 DUP3 ADD MSTORE PUSH32 0x6F72646572206578697374656400000000000000000000000000000000000000 PUSH1 0x44 DUP3 ADD MSTORE PUSH1 0x64 ADD PUSH2 0xCCF JUMP JUMPDEST PUSH1 0x0 DUP4 DUP2 MSTORE PUSH1 0x7 PUSH1 0x20 SWAP1 DUP2 MSTORE PUSH1 0x40 SWAP2 DUP3 SWAP1 KECCAK256 DUP5 MLOAD DUP2 SSTORE DUP5 DUP3 ADD MLOAD PUSH1 0x1 DUP3 ADD DUP1 SLOAD PUSH20 0xFFFFFFFFFFFFFFFFFFFFFFFFFFFFFFFFFFFFFFFF NOT AND PUSH1 0x1 PUSH1 0x1 PUSH1 0xA0 SHL SUB SWAP1 SWAP3 AND SWAP2 DUP3 OR SWAP1 SSTORE DUP6 DUP5 ADD MLOAD PUSH1 0x2 DUP4 ADD DUP2 SWAP1 SSTORE PUSH1 0x60 DUP1 DUP9 ADD MLOAD PUSH1 0x3 DUP6 ADD DUP2 SWAP1 SSTORE PUSH1 0x80 DUP1 DUP11 ADD MLOAD PUSH1 0x4 SWAP1 SWAP7 ADD SWAP6 SWAP1 SWAP6 SSTORE DUP7 MLOAD DUP11 DUP2 MSTORE SWAP6 DUP7 ADD SWAP3 SWAP1 SWAP3 MSTORE SWAP5 DUP5 ADD MSTORE SWAP3 DUP3 ADD SWAP3 SWAP1 SWAP3 MSTORE PUSH32 0x6EE1EB8A5BD09A76DEC365663730674D33E85E267C5F5ACDAA8A086B3F089B87 SWAP2 ADD PUSH2 0x175E JUMP JUMPDEST PUSH1 0x0 DUP3 DUP2 MSTORE PUSH1 0x6D PUSH1 0x20 SWAP1 DUP2 MSTORE PUSH1 0x40 DUP1 DUP4 KECCAK256 PUSH1 0x1 PUSH1 0x1 PUSH1 0xA0 SHL SUB DUP6 AND DUP5 MSTORE SWAP1 SWAP2 MSTORE SWAP1 KECCAK256 SLOAD PUSH1 0xFF AND PUSH2 0x10FC JUMPI PUSH1 0x0 DUP3 DUP2 MSTORE PUSH1 0x6D PUSH1 0x20 SWAP1 DUP2 MSTORE PUSH1 0x40 DUP1 DUP4 KECCAK256 PUSH1 0x1 PUSH1 0x1 PUSH1 0xA0 SHL SUB DUP6 AND DUP5 MSTORE SWAP1 SWAP2 MSTORE SWAP1 KECCAK256 DUP1 SLOAD PUSH1 0xFF NOT AND PUSH1 0x1 OR SWAP1 SSTORE PUSH2 0x2292 CALLER SWAP1 JUMP JUMPDEST PUSH1 0x1 PUSH1 0x1 PUSH1 0xA0 SHL SUB AND DUP2 PUSH1 0x1 PUSH1 0x1 PUSH1 0xA0 SHL SUB AND DUP4 PUSH32 0x2F8788117E7EFF1D82E926EC794901D17C78024A50270940304540A733656F0D PUSH1 0x40 MLOAD PUSH1 0x40 MLOAD DUP1 SWAP2 SUB SWAP1 LOG4 POP POP JUMP JUMPDEST PUSH1 0x0 DUP3 DUP2 MSTORE PUSH1 0x6D PUSH1 0x20 SWAP1 DUP2 MSTORE PUSH1 0x40 DUP1 DUP4 KECCAK256 PUSH1 0x1 PUSH1 0x1 PUSH1 0xA0 SHL SUB DUP6 AND DUP5 MSTORE SWAP1 SWAP2 MSTORE SWAP1 KECCAK256 SLOAD PUSH1 0xFF AND ISZERO PUSH2 0x10FC JUMPI PUSH1 0x0 DUP3 DUP2 MSTORE PUSH1 0x6D PUSH1 0x20 SWAP1 DUP2 MSTORE PUSH1 0x40 DUP1 DUP4 KECCAK256 PUSH1 0x1 PUSH1 0x1 PUSH1 0xA0 SHL SUB DUP6 AND DUP1 DUP6 MSTORE SWAP3 MSTORE DUP1 DUP4 KECCAK256 DUP1 SLOAD PUSH1 0xFF NOT AND SWAP1 SSTORE MLOAD CALLER SWAP3 DUP6 SWAP2 PUSH32 0xF6391F5C32D9C69D2A47EA670B442974B53935D1EDC7FD64EB21E047A839171B SWAP2 SWAP1 LOG4 POP POP JUMP JUMPDEST PUSH32 0x189AB7A9244DF0848122154315AF71FE140F3DB0FE014031783B0946B8C9D2E3 PUSH2 0x10FC DUP2 PUSH2 0x202B JUMP JUMPDEST PUSH32 0x4910FDFA16FED3260ED0E7147F7CC6DA11A60208B5B9406D12A635614FFD9143 SLOAD PUSH1 0xFF AND ISZERO PUSH2 0x23B6 JUMPI PUSH2 0xBE0 DUP4 PUSH2 0x2CEA JUMP JUMPDEST DUP3 PUSH1 0x1 PUSH1 0x1 PUSH1 0xA0 SHL SUB AND PUSH4 0x52D1902D PUSH1 0x40 MLOAD DUP2 PUSH4 0xFFFFFFFF AND PUSH1 0xE0 SHL DUP2 MSTORE PUSH1 0x4 ADD PUSH1 0x20 PUSH1 0x40 MLOAD DUP1 DUP4 SUB DUP2 DUP7 GAS STATICCALL SWAP3 POP POP POP DUP1 ISZERO PUSH2 0x2410 JUMPI POP PUSH1 0x40 DUP1 MLOAD PUSH1 0x1F RETURNDATASIZE SWAP1 DUP2 ADD PUSH1 0x1F NOT AND DUP3 ADD SWAP1 SWAP3 MSTORE PUSH2 0x240D SWAP2 DUP2 ADD SWAP1 PUSH2 0x36A4 JUMP JUMPDEST PUSH1 0x1 JUMPDEST PUSH2 0x2482 JUMPI PUSH1 0x40 MLOAD PUSH3 0x461BCD PUSH1 0xE5 SHL DUP2 MSTORE PUSH1 0x20 PUSH1 0x4 DUP3 ADD MSTORE PUSH1 0x2E PUSH1 0x24 DUP3 ADD MSTORE PUSH32 0x45524331393637557067726164653A206E657720696D706C656D656E74617469 PUSH1 0x44 DUP3 ADD MSTORE PUSH32 0x6F6E206973206E6F742055555053000000000000000000000000000000000000 PUSH1 0x64 DUP3 ADD MSTORE PUSH1 0x84 ADD PUSH2 0xCCF JUMP JUMPDEST PUSH32 0x360894A13BA1A3210667C828492DB98DCA3E2076CC3735A920A3CA505D382BBC DUP2 EQ PUSH2 0x2517 JUMPI PUSH1 0x40 MLOAD PUSH3 0x461BCD PUSH1 0xE5 SHL DUP2 MSTORE PUSH1 0x20 PUSH1 0x4 DUP3 ADD MSTORE PUSH1 0x29 PUSH1 0x24 DUP3 ADD MSTORE PUSH32 0x45524331393637557067726164653A20756E737570706F727465642070726F78 PUSH1 0x44 DUP3 ADD MSTORE PUSH32 0x6961626C65555549440000000000000000000000000000000000000000000000 PUSH1 0x64 DUP3 ADD MSTORE PUSH1 0x84 ADD PUSH2 0xCCF JUMP JUMPDEST POP PUSH2 0xBE0 DUP4 DUP4 DUP4 PUSH2 0x2DB5 JUMP JUMPDEST PUSH2 0x252B PUSH2 0x275A JUMP JUMPDEST PUSH1 0x9F DUP1 SLOAD PUSH1 0xFF NOT AND SWAP1 SSTORE PUSH32 0x5DB9EE0A495BF2E6FF9C91A7834C1BA4FDD244A5E8AA4E537BD38AEAE4B073AA CALLER JUMPDEST PUSH1 0x40 MLOAD PUSH1 0x1 PUSH1 0x1 PUSH1 0xA0 SHL SUB SWAP1 SWAP2 AND DUP2 MSTORE PUSH1 0x20 ADD PUSH1 0x40 MLOAD DUP1 SWAP2 SUB SWAP1 LOG1 JUMP JUMPDEST PUSH1 0x8 SLOAD PUSH2 0x100 SWAP1 DIV PUSH1 0xFF AND PUSH2 0x2088 JUMPI PUSH1 0x40 MLOAD PUSH3 0x461BCD PUSH1 0xE5 SHL DUP2 MSTORE PUSH1 0x20 PUSH1 0x4 DUP3 ADD MSTORE PUSH1 0x2B PUSH1 0x24 DUP3 ADD MSTORE PUSH32 0x496E697469616C697A61626C653A20636F6E7472616374206973206E6F742069 PUSH1 0x44 DUP3 ADD MSTORE PUSH32 0x6E697469616C697A696E67000000000000000000000000000000000000000000 PUSH1 0x64 DUP3 ADD MSTORE PUSH1 0x84 ADD PUSH2 0xCCF JUMP JUMPDEST PUSH1 0x8 SLOAD PUSH2 0x100 SWAP1 DIV PUSH1 0xFF AND PUSH2 0x266F JUMPI PUSH1 0x40 MLOAD PUSH3 0x461BCD PUSH1 0xE5 SHL DUP2 MSTORE PUSH1 0x20 PUSH1 0x4 DUP3 ADD MSTORE PUSH1 0x2B PUSH1 0x24 DUP3 ADD MSTORE PUSH32 0x496E697469616C697A61626C653A20636F6E7472616374206973206E6F742069 PUSH1 0x44 DUP3 ADD MSTORE PUSH32 0x6E697469616C697A696E67000000000000000000000000000000000000000000 PUSH1 0x64 DUP3 ADD MSTORE PUSH1 0x84 ADD PUSH2 0xCCF JUMP JUMPDEST PUSH2 0x2088 PUSH2 0x2DDA JUMP JUMPDEST PUSH2 0x10FC DUP3 DUP3 PUSH2 0x2234 JUMP JUMPDEST PUSH1 0x0 DUP2 DUP2 MSTORE PUSH1 0x7 PUSH1 0x20 MSTORE PUSH1 0x40 DUP2 KECCAK256 DUP2 DUP2 SSTORE PUSH1 0x1 DUP2 ADD DUP1 SLOAD PUSH20 0xFFFFFFFFFFFFFFFFFFFFFFFFFFFFFFFFFFFFFFFF NOT AND SWAP1 SSTORE PUSH1 0x2 DUP2 ADD DUP3 SWAP1 SSTORE PUSH1 0x3 DUP2 ADD DUP3 SWAP1 SSTORE PUSH1 0x4 ADD SSTORE PUSH1 0x40 MLOAD DUP2 DUP2 MSTORE PUSH32 0x935C9AD2F1FDA9D7EAE0D2A512F1521CB7190EE06165414E722366A65975FB6B SWAP1 PUSH1 0x20 ADD PUSH1 0x40 MLOAD DUP1 SWAP2 SUB SWAP1 LOG1 POP JUMP JUMPDEST PUSH2 0x2701 PUSH2 0x2035 JUMP JUMPDEST PUSH1 0x9F DUP1 SLOAD PUSH1 0xFF NOT AND PUSH1 0x1 OR SWAP1 SSTORE PUSH32 0x62E78CEA01BEE320CD4E420270B5EA74000D11B0C9F74754EBDBFC544B05A258 PUSH2 0x2558 CALLER SWAP1 JUMP JUMPDEST PUSH1 0x0 PUSH4 0x3FFFFFFF PUSH1 0x41 DUP4 SWAP1 SHR AND DUP1 PUSH2 0x2751 JUMPI PUSH3 0xE9D0EE PUSH2 0x2753 JUMP JUMPDEST DUP1 JUMPDEST SWAP4 SWAP3 POP POP POP JUMP JUMPDEST PUSH1 0x9F SLOAD PUSH1 0xFF AND PUSH2 0x2088 JUMPI PUSH1 0x40 MLOAD PUSH3 0x461BCD PUSH1 0xE5 SHL DUP2 MSTORE PUSH1 0x20 PUSH1 0x4 DUP3 ADD MSTORE PUSH1 0x14 PUSH1 0x24 DUP3 ADD MSTORE PUSH32 0x5061757361626C653A206E6F7420706175736564000000000000000000000000 PUSH1 0x44 DUP3 ADD MSTORE PUSH1 0x64 ADD PUSH2 0xCCF JUMP JUMPDEST PUSH1 0x0 DUP3 DUP2 MSTORE PUSH1 0x7 PUSH1 0x20 MSTORE PUSH1 0x40 SWAP1 KECCAK256 PUSH1 0x4 DUP2 ADD SLOAD PUSH2 0x280B JUMPI PUSH1 0x40 MLOAD PUSH3 0x461BCD PUSH1 0xE5 SHL DUP2 MSTORE PUSH1 0x20 PUSH1 0x4 DUP3 ADD MSTORE PUSH1 0x11 PUSH1 0x24 DUP3 ADD MSTORE PUSH32 0x6F72646572206E6F742065786973746564000000000000000000000000000000 PUSH1 0x44 DUP3 ADD MSTORE PUSH1 0x64 ADD PUSH2 0xCCF JUMP JUMPDEST DUP1 PUSH1 0x2 ADD SLOAD DUP3 EQ PUSH2 0x285E JUMPI PUSH1 0x40 MLOAD PUSH3 0x461BCD PUSH1 0xE5 SHL DUP2 MSTORE PUSH1 0x20 PUSH1 0x4 DUP3 ADD MSTORE PUSH1 0x1D PUSH1 0x24 DUP3 ADD MSTORE PUSH32 0x7072696365206973206E6F74206D617463682077697468206F72646572000000 PUSH1 0x44 DUP3 ADD MSTORE PUSH1 0x64 ADD PUSH2 0xCCF JUMP JUMPDEST PUSH1 0x1 DUP2 ADD SLOAD PUSH1 0x3 DUP3 ADD SLOAD PUSH1 0x6 SLOAD PUSH1 0x40 MLOAD PUSH32 0xE985E9C500000000000000000000000000000000000000000000000000000000 DUP2 MSTORE PUSH1 0x1 PUSH1 0x1 PUSH1 0xA0 SHL SUB SWAP4 DUP5 AND PUSH1 0x4 DUP3 ADD DUP2 SWAP1 MSTORE ADDRESS PUSH1 0x24 DUP4 ADD MSTORE SWAP4 SWAP1 SWAP2 AND SWAP1 PUSH4 0xE985E9C5 SWAP1 PUSH1 0x44 ADD PUSH1 0x20 PUSH1 0x40 MLOAD DUP1 DUP4 SUB DUP2 DUP7 GAS STATICCALL ISZERO DUP1 ISZERO PUSH2 0x28D4 JUMPI RETURNDATASIZE PUSH1 0x0 DUP1 RETURNDATACOPY RETURNDATASIZE PUSH1 0x0 REVERT JUMPDEST POP POP POP POP PUSH1 0x40 MLOAD RETURNDATASIZE PUSH1 0x1F NOT PUSH1 0x1F DUP3 ADD AND DUP3 ADD DUP1 PUSH1 0x40 MSTORE POP DUP2 ADD SWAP1 PUSH2 0x28F8 SWAP2 SWAP1 PUSH2 0x36BD JUMP JUMPDEST PUSH2 0x2944 JUMPI PUSH1 0x40 MLOAD PUSH3 0x461BCD PUSH1 0xE5 SHL DUP2 MSTORE PUSH1 0x20 PUSH1 0x4 DUP3 ADD MSTORE PUSH1 0x15 PUSH1 0x24 DUP3 ADD MSTORE PUSH32 0x6E6F742079657420617070726F7665466F72416C6C0000000000000000000000 PUSH1 0x44 DUP3 ADD MSTORE PUSH1 0x64 ADD PUSH2 0xCCF JUMP JUMPDEST PUSH1 0x0 DUP6 DUP2 MSTORE PUSH1 0x7 PUSH1 0x20 MSTORE PUSH1 0x40 DUP2 KECCAK256 DUP2 DUP2 SSTORE PUSH1 0x1 DUP2 ADD DUP1 SLOAD PUSH20 0xFFFFFFFFFFFFFFFFFFFFFFFFFFFFFFFFFFFFFFFF NOT AND SWAP1 SSTORE PUSH1 0x2 DUP2 ADD DUP3 SWAP1 SSTORE PUSH1 0x3 DUP2 ADD DUP3 SWAP1 SSTORE PUSH1 0x4 ADD SSTORE PUSH1 0x0 PUSH2 0x2991 DUP6 PUSH2 0x2E63 JUMP JUMPDEST SWAP1 POP PUSH1 0x0 PUSH2 0x299F DUP7 DUP4 PUSH2 0x2E80 JUMP JUMPDEST SWAP1 POP PUSH1 0x0 PUSH2 0x29AC DUP9 PUSH2 0x2E8C JUMP JUMPDEST SWAP1 POP PUSH1 0x0 PUSH1 0x1 PUSH1 0x1 PUSH1 0xA0 SHL SUB DUP3 AND PUSH2 0x29CF JUMPI PUSH1 0x5 SLOAD PUSH1 0x1 PUSH1 0x1 PUSH1 0xA0 SHL SUB AND PUSH2 0x29D1 JUMP JUMPDEST DUP2 JUMPDEST PUSH1 0x40 MLOAD PUSH32 0x23B872DD00000000000000000000000000000000000000000000000000000000 DUP2 MSTORE CALLER PUSH1 0x4 DUP3 ADD MSTORE ADDRESS PUSH1 0x24 DUP3 ADD MSTORE PUSH1 0x44 DUP2 ADD DUP7 SWAP1 MSTORE SWAP1 SWAP2 POP PUSH1 0x1 PUSH1 0x1 PUSH1 0xA0 SHL SUB DUP3 AND SWAP1 PUSH4 0x23B872DD SWAP1 PUSH1 0x64 ADD PUSH1 0x20 PUSH1 0x40 MLOAD DUP1 DUP4 SUB DUP2 PUSH1 0x0 DUP8 GAS CALL ISZERO DUP1 ISZERO PUSH2 0x2A40 JUMPI RETURNDATASIZE PUSH1 0x0 DUP1 RETURNDATACOPY RETURNDATASIZE PUSH1 0x0 REVERT JUMPDEST POP POP POP POP PUSH1 0x40 MLOAD RETURNDATASIZE PUSH1 0x1F NOT PUSH1 0x1F DUP3 ADD AND DUP3 ADD DUP1 PUSH1 0x40 MSTORE POP DUP2 ADD SWAP1 PUSH2 0x2A64 SWAP2 SWAP1 PUSH2 0x36BD JUMP JUMPDEST PUSH2 0x2AB0 JUMPI PUSH1 0x40 MLOAD PUSH3 0x461BCD PUSH1 0xE5 SHL DUP2 MSTORE PUSH1 0x20 PUSH1 0x4 DUP3 ADD DUP2 SWAP1 MSTORE PUSH1 0x24 DUP3 ADD MSTORE PUSH32 0x6661696C20746F207472616E736665722062636F696E20746F206D61726B6574 PUSH1 0x44 DUP3 ADD MSTORE PUSH1 0x64 ADD PUSH2 0xCCF JUMP JUMPDEST PUSH1 0x40 MLOAD PUSH32 0x23B872DD00000000000000000000000000000000000000000000000000000000 DUP2 MSTORE CALLER PUSH1 0x4 DUP3 ADD MSTORE PUSH1 0x1 PUSH1 0x1 PUSH1 0xA0 SHL SUB DUP8 DUP2 AND PUSH1 0x24 DUP4 ADD MSTORE PUSH1 0x44 DUP3 ADD DUP6 SWAP1 MSTORE DUP3 AND SWAP1 PUSH4 0x23B872DD SWAP1 PUSH1 0x64 ADD PUSH1 0x20 PUSH1 0x40 MLOAD DUP1 DUP4 SUB DUP2 PUSH1 0x0 DUP8 GAS CALL ISZERO DUP1 ISZERO PUSH2 0x2B1E JUMPI RETURNDATASIZE PUSH1 0x0 DUP1 RETURNDATACOPY RETURNDATASIZE PUSH1 0x0 REVERT JUMPDEST POP POP POP POP PUSH1 0x40 MLOAD RETURNDATASIZE PUSH1 0x1F NOT PUSH1 0x1F DUP3 ADD AND DUP3 ADD DUP1 PUSH1 0x40 MSTORE POP DUP2 ADD SWAP1 PUSH2 0x2B42 SWAP2 SWAP1 PUSH2 0x36BD JUMP JUMPDEST PUSH2 0x2B8E JUMPI PUSH1 0x40 MLOAD PUSH3 0x461BCD PUSH1 0xE5 SHL DUP2 MSTORE PUSH1 0x20 PUSH1 0x4 DUP3 ADD DUP2 SWAP1 MSTORE PUSH1 0x24 DUP3 ADD MSTORE PUSH32 0x6661696C20746F207472616E736665722062636F696E20746F2073656C6C6572 PUSH1 0x44 DUP3 ADD MSTORE PUSH1 0x64 ADD PUSH2 0xCCF JUMP JUMPDEST PUSH1 0x6 SLOAD PUSH1 0x40 MLOAD PUSH32 0x42842E0E00000000000000000000000000000000000000000000000000000000 DUP2 MSTORE PUSH1 0x1 PUSH1 0x1 PUSH1 0xA0 SHL SUB DUP9 DUP2 AND PUSH1 0x4 DUP4 ADD MSTORE CALLER PUSH1 0x24 DUP4 ADD MSTORE PUSH1 0x44 DUP3 ADD DUP13 SWAP1 MSTORE SWAP1 SWAP2 AND SWAP1 PUSH4 0x42842E0E SWAP1 PUSH1 0x64 ADD PUSH1 0x0 PUSH1 0x40 MLOAD DUP1 DUP4 SUB DUP2 PUSH1 0x0 DUP8 DUP1 EXTCODESIZE ISZERO DUP1 ISZERO PUSH2 0x2BFB JUMPI PUSH1 0x0 DUP1 REVERT JUMPDEST POP GAS CALL ISZERO DUP1 ISZERO PUSH2 0x2C0F JUMPI RETURNDATASIZE PUSH1 0x0 DUP1 RETURNDATACOPY RETURNDATASIZE PUSH1 0x0 REVERT JUMPDEST POP POP PUSH1 0x40 DUP1 MLOAD DUP13 DUP2 MSTORE PUSH1 0x20 DUP2 ADD DUP13 SWAP1 MSTORE SWAP1 DUP2 ADD DUP9 SWAP1 MSTORE PUSH1 0x1 PUSH1 0x1 PUSH1 0xA0 SHL SUB DUP10 AND PUSH1 0x60 DUP3 ADD MSTORE CALLER PUSH1 0x80 DUP3 ADD MSTORE PUSH32 0x95C89A9D10E4C04E4A14D2A484DBA4070C7246BE033FDC7797F5EAC556EEB469 SWAP3 POP PUSH1 0xA0 ADD SWAP1 POP PUSH1 0x40 MLOAD DUP1 SWAP2 SUB SWAP1 LOG1 POP POP POP POP POP POP POP POP POP JUMP JUMPDEST PUSH1 0x0 DUP3 DUP2 MSTORE PUSH1 0x6D PUSH1 0x20 SWAP1 DUP2 MSTORE PUSH1 0x40 DUP1 DUP4 KECCAK256 PUSH1 0x1 PUSH1 0x1 PUSH1 0xA0 SHL SUB DUP6 AND DUP5 MSTORE SWAP1 SWAP2 MSTORE SWAP1 KECCAK256 SLOAD PUSH1 0xFF AND PUSH2 0x10FC JUMPI PUSH2 0x2CA8 DUP2 PUSH2 0x2ED7 JUMP JUMPDEST PUSH2 0x2CB3 DUP4 PUSH1 0x20 PUSH2 0x2EE9 JUMP JUMPDEST PUSH1 0x40 MLOAD PUSH1 0x20 ADD PUSH2 0x2CC4 SWAP3 SWAP2 SWAP1 PUSH2 0x3757 JUMP JUMPDEST PUSH1 0x40 DUP1 MLOAD PUSH1 0x1F NOT DUP2 DUP5 SUB ADD DUP2 MSTORE SWAP1 DUP3 SWAP1 MSTORE PUSH3 0x461BCD PUSH1 0xE5 SHL DUP3 MSTORE PUSH2 0xCCF SWAP2 PUSH1 0x4 ADD PUSH2 0x37D8 JUMP JUMPDEST PUSH1 0x1 PUSH1 0x1 PUSH1 0xA0 SHL SUB DUP2 AND EXTCODESIZE PUSH2 0x2D67 JUMPI PUSH1 0x40 MLOAD PUSH3 0x461BCD PUSH1 0xE5 SHL DUP2 MSTORE PUSH1 0x20 PUSH1 0x4 DUP3 ADD MSTORE PUSH1 0x2D PUSH1 0x24 DUP3 ADD MSTORE PUSH32 0x455243313936373A206E657720696D706C656D656E746174696F6E206973206E PUSH1 0x44 DUP3 ADD MSTORE PUSH32 0x6F74206120636F6E747261637400000000000000000000000000000000000000 PUSH1 0x64 DUP3 ADD MSTORE PUSH1 0x84 ADD PUSH2 0xCCF JUMP JUMPDEST PUSH32 0x360894A13BA1A3210667C828492DB98DCA3E2076CC3735A920A3CA505D382BBC DUP1 SLOAD PUSH20 0xFFFFFFFFFFFFFFFFFFFFFFFFFFFFFFFFFFFFFFFF NOT AND PUSH1 0x1 PUSH1 0x1 PUSH1 0xA0 SHL SUB SWAP3 SWAP1 SWAP3 AND SWAP2 SWAP1 SWAP2 OR SWAP1 SSTORE JUMP JUMPDEST PUSH2 0x2DBE DUP4 PUSH2 0x3112 JUMP JUMPDEST PUSH1 0x0 DUP3 MLOAD GT DUP1 PUSH2 0x2DCB JUMPI POP DUP1 JUMPDEST ISZERO PUSH2 0xBE0 JUMPI PUSH2 0xAB7 DUP4 DUP4 PUSH2 0x3152 JUMP JUMPDEST PUSH1 0x8 SLOAD PUSH2 0x100 SWAP1 DIV PUSH1 0xFF AND PUSH2 0x2E57 JUMPI PUSH1 0x40 MLOAD PUSH3 0x461BCD PUSH1 0xE5 SHL DUP2 MSTORE PUSH1 0x20 PUSH1 0x4 DUP3 ADD MSTORE PUSH1 0x2B PUSH1 0x24 DUP3 ADD MSTORE PUSH32 0x496E697469616C697A61626C653A20636F6E7472616374206973206E6F742069 PUSH1 0x44 DUP3 ADD MSTORE PUSH32 0x6E697469616C697A696E67000000000000000000000000000000000000000000 PUSH1 0x64 DUP3 ADD MSTORE PUSH1 0x84 ADD PUSH2 0xCCF JUMP JUMPDEST PUSH1 0x9F DUP1 SLOAD PUSH1 0xFF NOT AND SWAP1 SSTORE JUMP JUMPDEST PUSH1 0x0 PUSH2 0x2710 PUSH1 0x0 SLOAD DUP4 PUSH2 0x2E76 SWAP2 SWAP1 PUSH2 0x380B JUMP JUMPDEST PUSH2 0xA1E SWAP2 SWAP1 PUSH2 0x3822 JUMP JUMPDEST PUSH1 0x0 PUSH2 0x2753 DUP3 DUP5 PUSH2 0x3720 JUMP JUMPDEST PUSH1 0x0 DUP2 DUP2 MSTORE PUSH2 0x135 PUSH1 0x20 MSTORE PUSH1 0x40 DUP2 KECCAK256 SLOAD PUSH1 0x1 PUSH1 0x1 PUSH1 0xA0 SHL SUB AND PUSH2 0x2EBA JUMPI PUSH1 0x5 SLOAD PUSH1 0x1 PUSH1 0x1 PUSH1 0xA0 SHL SUB AND PUSH2 0xA1E JUMP JUMPDEST POP PUSH1 0x0 SWAP1 DUP2 MSTORE PUSH2 0x135 PUSH1 0x20 MSTORE PUSH1 0x40 SWAP1 KECCAK256 SLOAD PUSH1 0x1 PUSH1 0x1 PUSH1 0xA0 SHL SUB AND SWAP1 JUMP JUMPDEST PUSH1 0x60 PUSH2 0xA1E PUSH1 0x1 PUSH1 0x1 PUSH1 0xA0 SHL SUB DUP4 AND PUSH1 0x14 JUMPDEST PUSH1 0x60 PUSH1 0x0 PUSH2 0x2EF8 DUP4 PUSH1 0x2 PUSH2 0x380B JUMP JUMPDEST PUSH2 0x2F03 SWAP1 PUSH1 0x2 PUSH2 0x370D JUMP JUMPDEST PUSH8 0xFFFFFFFFFFFFFFFF DUP2 GT ISZERO PUSH2 0x2F1B JUMPI PUSH2 0x2F1B PUSH2 0x33DA JUMP JUMPDEST PUSH1 0x40 MLOAD SWAP1 DUP1 DUP3 MSTORE DUP1 PUSH1 0x1F ADD PUSH1 0x1F NOT AND PUSH1 0x20 ADD DUP3 ADD PUSH1 0x40 MSTORE DUP1 ISZERO PUSH2 0x2F45 JUMPI PUSH1 0x20 DUP3 ADD DUP2 DUP1 CALLDATASIZE DUP4 CALLDATACOPY ADD SWAP1 POP JUMPDEST POP SWAP1 POP PUSH32 0x3000000000000000000000000000000000000000000000000000000000000000 DUP2 PUSH1 0x0 DUP2 MLOAD DUP2 LT PUSH2 0x2F7C JUMPI PUSH2 0x2F7C PUSH2 0x368E JUMP JUMPDEST PUSH1 0x20 ADD ADD SWAP1 PUSH31 0xFFFFFFFFFFFFFFFFFFFFFFFFFFFFFFFFFFFFFFFFFFFFFFFFFFFFFFFFFFFFFF NOT AND SWAP1 DUP2 PUSH1 0x0 BYTE SWAP1 MSTORE8 POP PUSH32 0x7800000000000000000000000000000000000000000000000000000000000000 DUP2 PUSH1 0x1 DUP2 MLOAD DUP2 LT PUSH2 0x2FDF JUMPI PUSH2 0x2FDF PUSH2 0x368E JUMP JUMPDEST PUSH1 0x20 ADD ADD SWAP1 PUSH31 0xFFFFFFFFFFFFFFFFFFFFFFFFFFFFFFFFFFFFFFFFFFFFFFFFFFFFFFFFFFFFFF NOT AND SWAP1 DUP2 PUSH1 0x0 BYTE SWAP1 MSTORE8 POP PUSH1 0x0 PUSH2 0x301B DUP5 PUSH1 0x2 PUSH2 0x380B JUMP JUMPDEST PUSH2 0x3026 SWAP1 PUSH1 0x1 PUSH2 0x370D JUMP JUMPDEST SWAP1 POP JUMPDEST PUSH1 0x1 DUP2 GT ISZERO PUSH2 0x30C3 JUMPI PUSH32 0x3031323334353637383961626364656600000000000000000000000000000000 DUP6 PUSH1 0xF AND PUSH1 0x10 DUP2 LT PUSH2 0x3067 JUMPI PUSH2 0x3067 PUSH2 0x368E JUMP JUMPDEST BYTE PUSH1 0xF8 SHL DUP3 DUP3 DUP2 MLOAD DUP2 LT PUSH2 0x307D JUMPI PUSH2 0x307D PUSH2 0x368E JUMP JUMPDEST PUSH1 0x20 ADD ADD SWAP1 PUSH31 0xFFFFFFFFFFFFFFFFFFFFFFFFFFFFFFFFFFFFFFFFFFFFFFFFFFFFFFFFFFFFFF NOT AND SWAP1 DUP2 PUSH1 0x0 BYTE SWAP1 MSTORE8 POP PUSH1 0x4 SWAP5 SWAP1 SWAP5 SHR SWAP4 PUSH2 0x30BC DUP2 PUSH2 0x3844 JUMP JUMPDEST SWAP1 POP PUSH2 0x3029 JUMP JUMPDEST POP DUP4 ISZERO PUSH2 0x2753 JUMPI PUSH1 0x40 MLOAD PUSH3 0x461BCD PUSH1 0xE5 SHL DUP2 MSTORE PUSH1 0x20 PUSH1 0x4 DUP3 ADD DUP2 SWAP1 MSTORE PUSH1 0x24 DUP3 ADD MSTORE PUSH32 0x537472696E67733A20686578206C656E67746820696E73756666696369656E74 PUSH1 0x44 DUP3 ADD MSTORE PUSH1 0x64 ADD PUSH2 0xCCF JUMP JUMPDEST PUSH2 0x311B DUP2 PUSH2 0x2CEA JUMP JUMPDEST PUSH1 0x40 MLOAD PUSH1 0x1 PUSH1 0x1 PUSH1 0xA0 SHL SUB DUP3 AND SWAP1 PUSH32 0xBC7CD75A20EE27FD9ADEBAB32041F755214DBC6BFFA90CC0225B39DA2E5C2D3B SWAP1 PUSH1 0x0 SWAP1 LOG2 POP JUMP JUMPDEST PUSH1 0x60 PUSH2 0x2753 DUP4 DUP4 PUSH1 0x40 MLOAD DUP1 PUSH1 0x60 ADD PUSH1 0x40 MSTORE DUP1 PUSH1 0x27 DUP2 MSTORE PUSH1 0x20 ADD PUSH2 0x3896 PUSH1 0x27 SWAP2 CODECOPY PUSH1 0x60 PUSH1 0x0 DUP1 DUP6 PUSH1 0x1 PUSH1 0x1 PUSH1 0xA0 SHL SUB AND DUP6 PUSH1 0x40 MLOAD PUSH2 0x318F SWAP2 SWAP1 PUSH2 0x3879 JUMP JUMPDEST PUSH1 0x0 PUSH1 0x40 MLOAD DUP1 DUP4 SUB DUP2 DUP6 GAS DELEGATECALL SWAP2 POP POP RETURNDATASIZE DUP1 PUSH1 0x0 DUP2 EQ PUSH2 0x31CA JUMPI PUSH1 0x40 MLOAD SWAP2 POP PUSH1 0x1F NOT PUSH1 0x3F RETURNDATASIZE ADD AND DUP3 ADD PUSH1 0x40 MSTORE RETURNDATASIZE DUP3 MSTORE RETURNDATASIZE PUSH1 0x0 PUSH1 0x20 DUP5 ADD RETURNDATACOPY PUSH2 0x31CF JUMP JUMPDEST PUSH1 0x60 SWAP2 POP JUMPDEST POP SWAP2 POP SWAP2 POP PUSH2 0x1D59 DUP7 DUP4 DUP4 DUP8 PUSH1 0x60 DUP4 ISZERO PUSH2 0x324A JUMPI DUP3 MLOAD PUSH1 0x0 SUB PUSH2 0x3243 JUMPI PUSH1 0x1 PUSH1 0x1 PUSH1 0xA0 SHL SUB DUP6 AND EXTCODESIZE PUSH2 0x3243 JUMPI PUSH1 0x40 MLOAD PUSH3 0x461BCD PUSH1 0xE5 SHL DUP2 MSTORE PUSH1 0x20 PUSH1 0x4 DUP3 ADD MSTORE PUSH1 0x1D PUSH1 0x24 DUP3 ADD MSTORE PUSH32 0x416464726573733A2063616C6C20746F206E6F6E2D636F6E7472616374000000 PUSH1 0x44 DUP3 ADD MSTORE PUSH1 0x64 ADD PUSH2 0xCCF JUMP JUMPDEST POP DUP2 PUSH2 0x3254 JUMP JUMPDEST PUSH2 0x3254 DUP4 DUP4 PUSH2 0x325C JUMP JUMPDEST SWAP5 SWAP4 POP POP POP POP JUMP JUMPDEST DUP2 MLOAD ISZERO PUSH2 0x326C JUMPI DUP2 MLOAD DUP1 DUP4 PUSH1 0x20 ADD REVERT JUMPDEST DUP1 PUSH1 0x40 MLOAD PUSH3 0x461BCD PUSH1 0xE5 SHL DUP2 MSTORE PUSH1 0x4 ADD PUSH2 0xCCF SWAP2 SWAP1 PUSH2 0x37D8 JUMP JUMPDEST PUSH1 0x0 PUSH1 0x20 DUP3 DUP5 SUB SLT ISZERO PUSH2 0x3298 JUMPI PUSH1 0x0 DUP1 REVERT JUMPDEST DUP2 CALLDATALOAD PUSH32 0xFFFFFFFF00000000000000000000000000000000000000000000000000000000 DUP2 AND DUP2 EQ PUSH2 0x2753 JUMPI PUSH1 0x0 DUP1 REVERT JUMPDEST PUSH1 0x0 DUP1 DUP4 PUSH1 0x1F DUP5 ADD SLT PUSH2 0x32DA JUMPI PUSH1 0x0 DUP1 REVERT JUMPDEST POP DUP2 CALLDATALOAD PUSH8 0xFFFFFFFFFFFFFFFF DUP2 GT ISZERO PUSH2 0x32F2 JUMPI PUSH1 0x0 DUP1 REVERT JUMPDEST PUSH1 0x20 DUP4 ADD SWAP2 POP DUP4 PUSH1 0x20 DUP3 PUSH1 0x5 SHL DUP6 ADD ADD GT ISZERO PUSH2 0x330D JUMPI PUSH1 0x0 DUP1 REVERT JUMPDEST SWAP3 POP SWAP3 SWAP1 POP JUMP JUMPDEST PUSH1 0x0 DUP1 PUSH1 0x20 DUP4 DUP6 SUB SLT ISZERO PUSH2 0x3327 JUMPI PUSH1 0x0 DUP1 REVERT JUMPDEST DUP3 CALLDATALOAD PUSH8 0xFFFFFFFFFFFFFFFF DUP2 GT ISZERO PUSH2 0x333E JUMPI PUSH1 0x0 DUP1 REVERT JUMPDEST PUSH2 0x334A DUP6 DUP3 DUP7 ADD PUSH2 0x32C8 JUMP JUMPDEST SWAP1 SWAP7 SWAP1 SWAP6 POP SWAP4 POP POP POP POP JUMP JUMPDEST PUSH1 0x1 PUSH1 0x1 PUSH1 0xA0 SHL SUB DUP2 AND DUP2 EQ PUSH2 0x129A JUMPI PUSH1 0x0 DUP1 REVERT JUMPDEST PUSH1 0x0 PUSH1 0x20 DUP3 DUP5 SUB SLT ISZERO PUSH2 0x337D JUMPI PUSH1 0x0 DUP1 REVERT JUMPDEST DUP2 CALLDATALOAD PUSH2 0x2753 DUP2 PUSH2 0x3356 JUMP JUMPDEST PUSH1 0x0 DUP1 PUSH1 0x0 PUSH1 0x60 DUP5 DUP7 SUB SLT ISZERO PUSH2 0x339D JUMPI PUSH1 0x0 DUP1 REVERT JUMPDEST DUP4 CALLDATALOAD SWAP3 POP PUSH1 0x20 DUP5 ADD CALLDATALOAD SWAP2 POP PUSH1 0x40 DUP5 ADD CALLDATALOAD PUSH2 0x33B6 DUP2 PUSH2 0x3356 JUMP JUMPDEST DUP1 SWAP2 POP POP SWAP3 POP SWAP3 POP SWAP3 JUMP JUMPDEST PUSH1 0x0 PUSH1 0x20 DUP3 DUP5 SUB SLT ISZERO PUSH2 0x33D3 JUMPI PUSH1 0x0 DUP1 REVERT JUMPDEST POP CALLDATALOAD SWAP2 SWAP1 POP JUMP JUMPDEST PUSH4 0x4E487B71 PUSH1 0xE0 SHL PUSH1 0x0 MSTORE PUSH1 0x41 PUSH1 0x4 MSTORE PUSH1 0x24 PUSH1 0x0 REVERT JUMPDEST PUSH1 0x40 MLOAD PUSH1 0x1F DUP3 ADD PUSH1 0x1F NOT AND DUP2 ADD PUSH8 0xFFFFFFFFFFFFFFFF DUP2 GT DUP3 DUP3 LT OR ISZERO PUSH2 0x3419 JUMPI PUSH2 0x3419 PUSH2 0x33DA JUMP JUMPDEST PUSH1 0x40 MSTORE SWAP2 SWAP1 POP JUMP JUMPDEST PUSH1 0x0 PUSH1 0x20 DUP1 DUP4 DUP6 SUB SLT ISZERO PUSH2 0x3434 JUMPI PUSH1 0x0 DUP1 REVERT JUMPDEST DUP3 CALLDATALOAD PUSH8 0xFFFFFFFFFFFFFFFF DUP1 DUP3 GT ISZERO PUSH2 0x344C JUMPI PUSH1 0x0 DUP1 REVERT JUMPDEST DUP2 DUP6 ADD SWAP2 POP DUP6 PUSH1 0x1F DUP4 ADD SLT PUSH2 0x3460 JUMPI PUSH1 0x0 DUP1 REVERT JUMPDEST DUP2 CALLDATALOAD DUP2 DUP2 GT ISZERO PUSH2 0x3472 JUMPI PUSH2 0x3472 PUSH2 0x33DA JUMP JUMPDEST DUP1 PUSH1 0x5 SHL SWAP2 POP PUSH2 0x3483 DUP5 DUP4 ADD PUSH2 0x33F0 JUMP JUMPDEST DUP2 DUP2 MSTORE SWAP2 DUP4 ADD DUP5 ADD SWAP2 DUP5 DUP2 ADD SWAP1 DUP9 DUP5 GT ISZERO PUSH2 0x349D JUMPI PUSH1 0x0 DUP1 REVERT JUMPDEST SWAP4 DUP6 ADD SWAP4 JUMPDEST DUP4 DUP6 LT ISZERO PUSH2 0x34C7 JUMPI DUP5 CALLDATALOAD SWAP3 POP PUSH2 0x34B7 DUP4 PUSH2 0x3356 JUMP JUMPDEST DUP3 DUP3 MSTORE SWAP4 DUP6 ADD SWAP4 SWAP1 DUP6 ADD SWAP1 PUSH2 0x34A2 JUMP JUMPDEST SWAP9 SWAP8 POP POP POP POP POP POP POP POP JUMP JUMPDEST PUSH1 0x0 DUP1 PUSH1 0x40 DUP4 DUP6 SUB SLT ISZERO PUSH2 0x34E6 JUMPI PUSH1 0x0 DUP1 REVERT JUMPDEST DUP3 CALLDATALOAD SWAP2 POP PUSH1 0x20 DUP4 ADD CALLDATALOAD PUSH2 0x34F8 DUP2 PUSH2 0x3356 JUMP JUMPDEST DUP1 SWAP2 POP POP SWAP3 POP SWAP3 SWAP1 POP JUMP JUMPDEST PUSH1 0x0 DUP1 PUSH1 0x40 DUP4 DUP6 SUB SLT ISZERO PUSH2 0x3516 JUMPI PUSH1 0x0 DUP1 REVERT JUMPDEST POP POP DUP1 CALLDATALOAD SWAP3 PUSH1 0x20 SWAP1 SWAP2 ADD CALLDATALOAD SWAP2 POP JUMP JUMPDEST DUP1 ISZERO ISZERO DUP2 EQ PUSH2 0x129A JUMPI PUSH1 0x0 DUP1 REVERT JUMPDEST PUSH1 0x0 DUP1 PUSH1 0x0 PUSH1 0x60 DUP5 DUP7 SUB SLT ISZERO PUSH2 0x3548 JUMPI PUSH1 0x0 DUP1 REVERT JUMPDEST DUP4 CALLDATALOAD SWAP3 POP PUSH1 0x20 DUP5 ADD CALLDATALOAD PUSH2 0x355A DUP2 PUSH2 0x3525 JUMP JUMPDEST SWAP3 SWAP6 SWAP3 SWAP5 POP POP POP PUSH1 0x40 SWAP2 SWAP1 SWAP2 ADD CALLDATALOAD SWAP1 JUMP JUMPDEST PUSH1 0x0 DUP1 PUSH1 0x40 DUP4 DUP6 SUB SLT ISZERO PUSH2 0x357E JUMPI PUSH1 0x0 DUP1 REVERT JUMPDEST DUP3 CALLDATALOAD PUSH2 0x3589 DUP2 PUSH2 0x3356 JUMP JUMPDEST SWAP2 POP PUSH1 0x20 DUP4 ADD CALLDATALOAD PUSH2 0x34F8 DUP2 PUSH2 0x3356 JUMP JUMPDEST PUSH1 0x0 DUP1 PUSH1 0x40 DUP4 DUP6 SUB SLT ISZERO PUSH2 0x35AC JUMPI PUSH1 0x0 DUP1 REVERT JUMPDEST DUP3 CALLDATALOAD PUSH2 0x35B7 DUP2 PUSH2 0x3356 JUMP JUMPDEST SWAP2 POP PUSH1 0x20 DUP4 DUP2 ADD CALLDATALOAD PUSH8 0xFFFFFFFFFFFFFFFF DUP1 DUP3 GT ISZERO PUSH2 0x35D5 JUMPI PUSH1 0x0 DUP1 REVERT JUMPDEST DUP2 DUP7 ADD SWAP2 POP DUP7 PUSH1 0x1F DUP4 ADD SLT PUSH2 0x35E9 JUMPI PUSH1 0x0 DUP1 REVERT JUMPDEST DUP2 CALLDATALOAD DUP2 DUP2 GT ISZERO PUSH2 0x35FB JUMPI PUSH2 0x35FB PUSH2 0x33DA JUMP JUMPDEST PUSH2 0x360D DUP5 PUSH1 0x1F NOT PUSH1 0x1F DUP5 ADD AND ADD PUSH2 0x33F0 JUMP JUMPDEST SWAP2 POP DUP1 DUP3 MSTORE DUP8 DUP5 DUP3 DUP6 ADD ADD GT ISZERO PUSH2 0x3623 JUMPI PUSH1 0x0 DUP1 REVERT JUMPDEST DUP1 DUP5 DUP5 ADD DUP6 DUP5 ADD CALLDATACOPY PUSH1 0x0 DUP5 DUP3 DUP5 ADD ADD MSTORE POP DUP1 SWAP4 POP POP POP POP SWAP3 POP SWAP3 SWAP1 POP JUMP JUMPDEST PUSH1 0x20 DUP1 DUP3 MSTORE DUP3 MLOAD DUP3 DUP3 ADD DUP2 SWAP1 MSTORE PUSH1 0x0 SWAP2 SWAP1 DUP5 DUP3 ADD SWAP1 PUSH1 0x40 DUP6 ADD SWAP1 DUP5 JUMPDEST DUP2 DUP2 LT ISZERO PUSH2 0x3682 JUMPI DUP4 MLOAD PUSH1 0x1 PUSH1 0x1 PUSH1 0xA0 SHL SUB AND DUP4 MSTORE SWAP3 DUP5 ADD SWAP3 SWAP2 DUP5 ADD SWAP2 PUSH1 0x1 ADD PUSH2 0x365D JUMP JUMPDEST POP SWAP1 SWAP7 SWAP6 POP POP POP POP POP POP JUMP JUMPDEST PUSH4 0x4E487B71 PUSH1 0xE0 SHL PUSH1 0x0 MSTORE PUSH1 0x32 PUSH1 0x4 MSTORE PUSH1 0x24 PUSH1 0x0 REVERT JUMPDEST PUSH1 0x0 PUSH1 0x20 DUP3 DUP5 SUB SLT ISZERO PUSH2 0x36B6 JUMPI PUSH1 0x0 DUP1 REVERT JUMPDEST POP MLOAD SWAP2 SWAP1 POP JUMP JUMPDEST PUSH1 0x0 PUSH1 0x20 DUP3 DUP5 SUB SLT ISZERO PUSH2 0x36CF JUMPI PUSH1 0x0 DUP1 REVERT JUMPDEST DUP2 MLOAD PUSH2 0x2753 DUP2 PUSH2 0x3525 JUMP JUMPDEST PUSH1 0x0 PUSH1 0x20 DUP3 DUP5 SUB SLT ISZERO PUSH2 0x36EC JUMPI PUSH1 0x0 DUP1 REVERT JUMPDEST DUP2 MLOAD PUSH2 0x2753 DUP2 PUSH2 0x3356 JUMP JUMPDEST PUSH4 0x4E487B71 PUSH1 0xE0 SHL PUSH1 0x0 MSTORE PUSH1 0x11 PUSH1 0x4 MSTORE PUSH1 0x24 PUSH1 0x0 REVERT JUMPDEST DUP1 DUP3 ADD DUP1 DUP3 GT ISZERO PUSH2 0xA1E JUMPI PUSH2 0xA1E PUSH2 0x36F7 JUMP JUMPDEST DUP2 DUP2 SUB DUP2 DUP2 GT ISZERO PUSH2 0xA1E JUMPI PUSH2 0xA1E PUSH2 0x36F7 JUMP JUMPDEST PUSH1 0x0 JUMPDEST DUP4 DUP2 LT ISZERO PUSH2 0x374E JUMPI DUP2 DUP2 ADD MLOAD DUP4 DUP3 ADD MSTORE PUSH1 0x20 ADD PUSH2 0x3736 JUMP JUMPDEST POP POP PUSH1 0x0 SWAP2 ADD MSTORE JUMP JUMPDEST PUSH32 0x416363657373436F6E74726F6C3A206163636F756E7420000000000000000000 DUP2 MSTORE PUSH1 0x0 DUP4 MLOAD PUSH2 0x378F DUP2 PUSH1 0x17 DUP6 ADD PUSH1 0x20 DUP9 ADD PUSH2 0x3733 JUMP JUMPDEST PUSH32 0x206973206D697373696E6720726F6C6520000000000000000000000000000000 PUSH1 0x17 SWAP2 DUP5 ADD SWAP2 DUP3 ADD MSTORE DUP4 MLOAD PUSH2 0x37CC DUP2 PUSH1 0x28 DUP5 ADD PUSH1 0x20 DUP9 ADD PUSH2 0x3733 JUMP JUMPDEST ADD PUSH1 0x28 ADD SWAP5 SWAP4 POP POP POP POP JUMP JUMPDEST PUSH1 0x20 DUP2 MSTORE PUSH1 0x0 DUP3 MLOAD DUP1 PUSH1 0x20 DUP5 ADD MSTORE PUSH2 0x37F7 DUP2 PUSH1 0x40 DUP6 ADD PUSH1 0x20 DUP8 ADD PUSH2 0x3733 JUMP JUMPDEST PUSH1 0x1F ADD PUSH1 0x1F NOT AND SWAP2 SWAP1 SWAP2 ADD PUSH1 0x40 ADD SWAP3 SWAP2 POP POP JUMP JUMPDEST DUP1 DUP3 MUL DUP2 ISZERO DUP3 DUP3 DIV DUP5 EQ OR PUSH2 0xA1E JUMPI PUSH2 0xA1E PUSH2 0x36F7 JUMP JUMPDEST PUSH1 0x0 DUP3 PUSH2 0x383F JUMPI PUSH4 0x4E487B71 PUSH1 0xE0 SHL PUSH1 0x0 MSTORE PUSH1 0x12 PUSH1 0x4 MSTORE PUSH1 0x24 PUSH1 0x0 REVERT JUMPDEST POP DIV SWAP1 JUMP JUMPDEST PUSH1 0x0 DUP2 PUSH2 0x3853 JUMPI PUSH2 0x3853 PUSH2 0x36F7 JUMP JUMPDEST POP PUSH32 0xFFFFFFFFFFFFFFFFFFFFFFFFFFFFFFFFFFFFFFFFFFFFFFFFFFFFFFFFFFFFFFFF ADD SWAP1 JUMP JUMPDEST PUSH1 0x0 DUP3 MLOAD PUSH2 0x388B DUP2 DUP5 PUSH1 0x20 DUP8 ADD PUSH2 0x3733 JUMP JUMPDEST SWAP2 SWAP1 SWAP2 ADD SWAP3 SWAP2 POP POP JUMP INVALID COINBASE PUSH5 0x6472657373 GASPRICE KECCAK256 PUSH13 0x6F772D6C6576656C2064656C65 PUSH8 0x6174652063616C6C KECCAK256 PUSH7 0x61696C6564A264 PUSH10 0x706673582212205BDEC1 0xE5 DUP8 0x22 0xD2 0xA8 PUSH30 0xC4F9F20AE2351D7CDB7B4770EB1EC5078E99BA8DE55E8464736F6C634300 ADDMOD XOR STOP CALLER "},"methodIdentifiers":{"BANNER_ROLE()":"f690d973","CANCELER_ROLE()":"02d2ff66","DEFAULT_ADMIN_ROLE()":"a217fddf","DESIGNER_ROLE()":"df064ad8","PAUSER_ROLE()":"e63ab1e9","UPGRADER_ROLE()":"f72c0d8b","WITHDRAWER_ROLE()":"85f438c1","addToBacklist(address[])":"5ec9a943","bcoinContract()":"0b9a743a","buy(uint256,uint256)":"d6febde8","cancelOrder(uint256)":"514fcac7","cancelOrderWhenPaused(uint256)":"cc3e0df6","changeSettings(uint256,uint256)":"36d02c94","cooldownBeforeCancel()":"a459f3ae","cooldownByBlockNumber()":"1ab0d567","createOrder(uint256,uint256,address)":"23b70d76","dummyDeploy()":"757aa181","getBalance()":"12065fe0","getOrder(uint256)":"d09ef241","getOrderV2(uint256)":"50281736","getRoleAdmin(bytes32)":"248a9ca3","getTokenPayList(uint256[])":"e1ae214b","grantRole(bytes32,address)":"2f2ff15d","hasRole(bytes32,address)":"91d14854","initialize(address,address)":"485cc955","isBlacklist(address)":"333e99db","isSellable(uint256,uint256)":"9ed36d68","myVersion()":"2822dc73","nftContract()":"d56d229d","pause()":"8456cb59","paused()":"5c975abb","proxiableUUID()":"52d1902d","removeFromBacklist(address[])":"2da7ea75","renounceRole(bytes32,address)":"36568abe","revokeRole(bytes32,address)":"d547741f","sellableByRarity(uint256)":"4f1b1086","setCooldownByBlockNumber(uint256)":"73958428","setSellableRule(uint256,bool,uint256)":"4665a43f","setTokenWhitelist(address[])":"03a5b1ed","supportsInterface(bytes4)":"01ffc9a7","taxRate()":"771a3a1d","tokenWhitelist(address)":"753d7563","unpause()":"3f4ba83a","upgradeTo(address)":"3659cfe6","upgradeToAndCall(address,bytes)":"4f1ef286","withdraw()":"3ccfd60b","withdrawV2(address)":"08b57f31"}},"storageLayout":{"storage":[{"astId":6503,"contract":"contracts/BHouseMarket.sol:BHouseMarket","label":"taxRate","offset":0,"slot":"0","type":"t_uint256"},{"astId":6505,"contract":"contracts/BHouseMarket.sol:BHouseMarket","label":"cooldownBeforeCancel","offset":0,"slot":"1","type":"t_uint256"},{"astId":6507,"contract":"contracts/BHouseMarket.sol:BHouseMarket","label":"cooldownByBlockNumber","offset":0,"slot":"2","type":"t_uint256"},{"astId":6517,"contract":"contracts/BHouseMarket.sol:BHouseMarket","label":"sellableByRarity","offset":0,"slot":"3","type":"t_mapping(t_uint256,t_struct(RarityRule)6512_storage)"},{"astId":6521,"contract":"contracts/BHouseMarket.sol:BHouseMarket","label":"blacklist","offset":0,"slot":"4","type":"t_mapping(t_address,t_bool)"},{"astId":6535,"contract":"contracts/BHouseMarket.sol:BHouseMarket","label":"bcoinContract","offset":0,"slot":"5","type":"t_contract(IERC20)3347"},{"astId":6538,"contract":"contracts/BHouseMarket.sol:BHouseMarket","label":"nftContract","offset":0,"slot":"6","type":"t_contract(IERC721)6493"},{"astId":6543,"contract":"contracts/BHouseMarket.sol:BHouseMarket","label":"tokenIdToOrder","offset":0,"slot":"7","type":"t_mapping(t_uint256,t_struct(Order)6532_storage)"},{"astId":782,"contract":"contracts/BHouseMarket.sol:BHouseMarket","label":"_initialized","offset":0,"slot":"8","type":"t_uint8"},{"astId":785,"contract":"contracts/BHouseMarket.sol:BHouseMarket","label":"_initializing","offset":1,"slot":"8","type":"t_bool"},{"astId":1589,"contract":"contracts/BHouseMarket.sol:BHouseMarket","label":"__gap","offset":0,"slot":"9","type":"t_array(t_uint256)50_storage"},{"astId":1973,"contract":"contracts/BHouseMarket.sol:BHouseMarket","label":"__gap","offset":0,"slot":"59","type":"t_array(t_uint256)50_storage"},{"astId":28,"contract":"contracts/BHouseMarket.sol:BHouseMarket","label":"_roles","offset":0,"slot":"109","type":"t_mapping(t_bytes32,t_struct(RoleData)23_storage)"},{"astId":335,"contract":"contracts/BHouseMarket.sol:BHouseMarket","label":"__gap","offset":0,"slot":"110","type":"t_array(t_uint256)49_storage"},{"astId":1103,"contract":"contracts/BHouseMarket.sol:BHouseMarket","label":"_paused","offset":0,"slot":"159","type":"t_bool"},{"astId":1208,"contract":"contracts/BHouseMarket.sol:BHouseMarket","label":"__gap","offset":0,"slot":"160","type":"t_array(t_uint256)49_storage"},{"astId":764,"contract":"contracts/BHouseMarket.sol:BHouseMarket","label":"__gap","offset":0,"slot":"209","type":"t_array(t_uint256)50_storage"},{"astId":1080,"contract":"contracts/BHouseMarket.sol:BHouseMarket","label":"__gap","offset":0,"slot":"259","type":"t_array(t_uint256)50_storage"},{"astId":5570,"contract":"contracts/BHouseMarket.sol:BHouseMarket","label":"tokenPay","offset":0,"slot":"309","type":"t_mapping(t_uint256,t_address)"},{"astId":5574,"contract":"contracts/BHouseMarket.sol:BHouseMarket","label":"tokenWhitelist","offset":0,"slot":"310","type":"t_mapping(t_address,t_bool)"}],"types":{"t_address":{"encoding":"inplace","label":"address","numberOfBytes":"20"},"t_array(t_uint256)49_storage":{"base":"t_uint256","encoding":"inplace","label":"uint256[49]","numberOfBytes":"1568"},"t_array(t_uint256)50_storage":{"base":"t_uint256","encoding":"inplace","label":"uint256[50]","numberOfBytes":"1600"},"t_bool":{"encoding":"inplace","label":"bool","numberOfBytes":"1"},"t_bytes32":{"encoding":"inplace","label":"bytes32","numberOfBytes":"32"},"t_contract(IERC20)3347":{"encoding":"inplace","label":"contract IERC20","numberOfBytes":"20"},"t_contract(IERC721)6493":{"encoding":"inplace","label":"contract IERC721","numberOfBytes":"20"},"t_mapping(t_address,t_bool)":{"encoding":"mapping","key":"t_address","label":"mapping(address => bool)","numberOfBytes":"32","value":"t_bool"},"t_mapping(t_bytes32,t_struct(RoleData)23_storage)":{"encoding":"mapping","key":"t_bytes32","label":"mapping(bytes32 => struct AccessControlUpgradeable.RoleData)","numberOfBytes":"32","value":"t_struct(RoleData)23_storage"},"t_mapping(t_uint256,t_address)":{"encoding":"mapping","key":"t_uint256","label":"mapping(uint256 => address)","numberOfBytes":"32","value":"t_address"},"t_mapping(t_uint256,t_struct(Order)6532_storage)":{"encoding":"mapping","key":"t_uint256","label":"mapping(uint256 => struct MarketCore.Order)","numberOfBytes":"32","value":"t_struct(Order)6532_storage"},"t_mapping(t_uint256,t_struct(RarityRule)6512_storage)":{"encoding":"mapping","key":"t_uint256","label":"mapping(uint256 => struct MarketCore.RarityRule)","numberOfBytes":"32","value":"t_struct(RarityRule)6512_storage"},"t_struct(Order)6532_storage":{"encoding":"inplace","label":"struct MarketCore.Order","members":[{"astId":6523,"contract":"contracts/BHouseMarket.sol:BHouseMarket","label":"tokenId","offset":0,"slot":"0","type":"t_uint256"},{"astId":6525,"contract":"contracts/BHouseMarket.sol:BHouseMarket","label":"seller","offset":0,"slot":"1","type":"t_address"},{"astId":6527,"contract":"contracts/BHouseMarket.sol:BHouseMarket","label":"price","offset":0,"slot":"2","type":"t_uint256"},{"astId":6529,"contract":"contracts/BHouseMarket.sol:BHouseMarket","label":"tokenDetail","offset":0,"slot":"3","type":"t_uint256"},{"astId":6531,"contract":"contracts/BHouseMarket.sol:BHouseMarket","label":"startedAt","offset":0,"slot":"4","type":"t_uint256"}],"numberOfBytes":"160"},"t_struct(RarityRule)6512_storage":{"encoding":"inplace","label":"struct MarketCore.RarityRule","members":[{"astId":6509,"contract":"contracts/BHouseMarket.sol:BHouseMarket","label":"isSellable","offset":0,"slot":"0","type":"t_bool"},{"astId":6511,"contract":"contracts/BHouseMarket.sol:BHouseMarket","label":"minPrice","offset":0,"slot":"1","type":"t_uint256"}],"numberOfBytes":"64"},"t_struct(RoleData)23_storage":{"encoding":"inplace","label":"struct AccessControlUpgradeable.RoleData","members":[{"astId":20,"contract":"contracts/BHouseMarket.sol:BHouseMarket","label":"members","offset":0,"slot":"0","type":"t_mapping(t_address,t_bool)"},{"astId":22,"contract":"contracts/BHouseMarket.sol:BHouseMarket","label":"adminRole","offset":0,"slot":"1","type":"t_bytes32"}],"numberOfBytes":"64"},"t_uint256":{"encoding":"inplace","label":"uint256","numberOfBytes":"32"},"t_uint8":{"encoding":"inplace","label":"uint8","numberOfBytes":"1"}}}}}}