{"contracts/BHeroDesign.sol":{"BHeroDesign":{"abi":[{"anonymous":false,"inputs":[{"indexed":false,"internalType":"address","name":"previousAdmin","type":"address"},{"indexed":false,"internalType":"address","name":"newAdmin","type":"address"}],"name":"AdminChanged","type":"event"},{"anonymous":false,"inputs":[{"indexed":true,"internalType":"address","name":"beacon","type":"address"}],"name":"BeaconUpgraded","type":"event"},{"anonymous":false,"inputs":[{"indexed":false,"internalType":"uint8","name":"version","type":"uint8"}],"name":"Initialized","type":"event"},{"anonymous":false,"inputs":[{"indexed":true,"internalType":"bytes32","name":"role","type":"bytes32"},{"indexed":true,"internalType":"bytes32","name":"previousAdminRole","type":"bytes32"},{"indexed":true,"internalType":"bytes32","name":"newAdminRole","type":"bytes32"}],"name":"RoleAdminChanged","type":"event"},{"anonymous":false,"inputs":[{"indexed":true,"internalType":"bytes32","name":"role","type":"bytes32"},{"indexed":true,"internalType":"address","name":"account","type":"address"},{"indexed":true,"internalType":"address","name":"sender","type":"address"}],"name":"RoleGranted","type":"event"},{"anonymous":false,"inputs":[{"indexed":true,"internalType":"bytes32","name":"role","type":"bytes32"},{"indexed":true,"internalType":"address","name":"account","type":"address"},{"indexed":true,"internalType":"address","name":"sender","type":"address"}],"name":"RoleRevoked","type":"event"},{"anonymous":false,"inputs":[{"indexed":true,"internalType":"address","name":"implementation","type":"address"}],"name":"Upgraded","type":"event"},{"inputs":[],"name":"DEFAULT_ADMIN_ROLE","outputs":[{"internalType":"bytes32","name":"","type":"bytes32"}],"stateMutability":"view","type":"function"},{"inputs":[],"name":"DESIGNER_ROLE","outputs":[{"internalType":"bytes32","name":"","type":"bytes32"}],"stateMutability":"view","type":"function"},{"inputs":[],"name":"UPGRADER_ROLE","outputs":[{"internalType":"bytes32","name":"","type":"bytes32"}],"stateMutability":"view","type":"function"},{"inputs":[{"internalType":"uint256","name":"tokenId","type":"uint256"},{"internalType":"uint256","name":"count","type":"uint256"},{"internalType":"uint256","name":"details","type":"uint256"}],"name":"createTokens","outputs":[{"internalType":"uint256[]","name":"tokenDetails","type":"uint256[]"}],"stateMutability":"view","type":"function"},{"inputs":[],"name":"dummyDeploy","outputs":[{"internalType":"uint256","name":"","type":"uint256"}],"stateMutability":"view","type":"function"},{"inputs":[],"name":"getAbilityDesigns","outputs":[{"components":[{"internalType":"uint256","name":"minCost","type":"uint256"},{"internalType":"uint256","name":"maxCost","type":"uint256"},{"internalType":"uint256","name":"incrementalCost","type":"uint256"}],"internalType":"struct BHeroDesign.AbilityDesign[]","name":"","type":"tuple[]"}],"stateMutability":"view","type":"function"},{"inputs":[],"name":"getAbilityRate","outputs":[{"internalType":"uint256[]","name":"","type":"uint256[]"}],"stateMutability":"view","type":"function"},{"inputs":[],"name":"getDropRate","outputs":[{"internalType":"uint256[]","name":"","type":"uint256[]"}],"stateMutability":"view","type":"function"},{"inputs":[],"name":"getDropRateHeroS","outputs":[{"internalType":"uint256[]","name":"","type":"uint256[]"}],"stateMutability":"view","type":"function"},{"inputs":[],"name":"getMaxLevel","outputs":[{"internalType":"uint256","name":"","type":"uint256"}],"stateMutability":"view","type":"function"},{"inputs":[],"name":"getMintCost","outputs":[{"internalType":"uint256","name":"","type":"uint256"}],"stateMutability":"view","type":"function"},{"inputs":[],"name":"getMintCostHeroS","outputs":[{"internalType":"uint256","name":"","type":"uint256"}],"stateMutability":"view","type":"function"},{"inputs":[{"internalType":"uint256","name":"rarity","type":"uint256"},{"internalType":"uint256","name":"times","type":"uint256"}],"name":"getRandomizeAbilityCost","outputs":[{"internalType":"uint256","name":"","type":"uint256"}],"stateMutability":"view","type":"function"},{"inputs":[],"name":"getRarityStats","outputs":[{"components":[{"components":[{"internalType":"uint256","name":"min","type":"uint256"},{"internalType":"uint256","name":"max","type":"uint256"}],"internalType":"struct BHeroDesign.StatsRange","name":"stamina","type":"tuple"},{"components":[{"internalType":"uint256","name":"min","type":"uint256"},{"internalType":"uint256","name":"max","type":"uint256"}],"internalType":"struct BHeroDesign.StatsRange","name":"speed","type":"tuple"},{"internalType":"uint256","name":"bombCount","type":"uint256"},{"components":[{"internalType":"uint256","name":"min","type":"uint256"},{"internalType":"uint256","name":"max","type":"uint256"}],"internalType":"struct BHeroDesign.StatsRange","name":"bombPower","type":"tuple"},{"internalType":"uint256","name":"bombRange","type":"uint256"},{"internalType":"uint256","name":"ability","type":"uint256"}],"internalType":"struct BHeroDesign.Stats[]","name":"","type":"tuple[]"}],"stateMutability":"view","type":"function"},{"inputs":[{"internalType":"uint256","name":"rarity","type":"uint256"},{"internalType":"uint256","name":"level","type":"uint256"}],"name":"getRockUpgradeShieldLevel","outputs":[{"internalType":"uint256","name":"","type":"uint256"}],"stateMutability":"view","type":"function"},{"inputs":[{"internalType":"bytes32","name":"role","type":"bytes32"}],"name":"getRoleAdmin","outputs":[{"internalType":"bytes32","name":"","type":"bytes32"}],"stateMutability":"view","type":"function"},{"inputs":[],"name":"getSenMintCost","outputs":[{"internalType":"uint256","name":"","type":"uint256"}],"stateMutability":"view","type":"function"},{"inputs":[],"name":"getSenMintCostHeroS","outputs":[{"internalType":"uint256","name":"","type":"uint256"}],"stateMutability":"view","type":"function"},{"inputs":[],"name":"getSuperBoxDropRate","outputs":[{"internalType":"uint256[]","name":"","type":"uint256[]"}],"stateMutability":"view","type":"function"},{"inputs":[],"name":"getSuperBoxMintCost","outputs":[{"internalType":"uint256","name":"","type":"uint256"}],"stateMutability":"view","type":"function"},{"inputs":[],"name":"getTokenLimit","outputs":[{"internalType":"uint256","name":"","type":"uint256"}],"stateMutability":"view","type":"function"},{"inputs":[{"internalType":"uint256","name":"rarity","type":"uint256"},{"internalType":"uint256","name":"level","type":"uint256"}],"name":"getUpgradeCost","outputs":[{"internalType":"uint256","name":"","type":"uint256"}],"stateMutability":"view","type":"function"},{"inputs":[],"name":"getUpgradeCosts","outputs":[{"internalType":"uint256[][]","name":"","type":"uint256[][]"}],"stateMutability":"view","type":"function"},{"inputs":[{"internalType":"bytes32","name":"role","type":"bytes32"},{"internalType":"address","name":"account","type":"address"}],"name":"grantRole","outputs":[],"stateMutability":"nonpayable","type":"function"},{"inputs":[{"internalType":"bytes32","name":"role","type":"bytes32"},{"internalType":"address","name":"account","type":"address"}],"name":"hasRole","outputs":[{"internalType":"bool","name":"","type":"bool"}],"stateMutability":"view","type":"function"},{"inputs":[],"name":"initialize","outputs":[],"stateMutability":"nonpayable","type":"function"},{"inputs":[],"name":"proxiableUUID","outputs":[{"internalType":"bytes32","name":"","type":"bytes32"}],"stateMutability":"view","type":"function"},{"inputs":[{"internalType":"uint256","name":"seed","type":"uint256"},{"internalType":"uint256","name":"_details","type":"uint256"}],"name":"randomizeAbilities","outputs":[{"internalType":"uint256","name":"nextSeed","type":"uint256"},{"internalType":"uint256","name":"encodedDetails","type":"uint256"}],"stateMutability":"view","type":"function"},{"inputs":[{"internalType":"bytes32","name":"role","type":"bytes32"},{"internalType":"address","name":"account","type":"address"}],"name":"renounceRole","outputs":[],"stateMutability":"nonpayable","type":"function"},{"inputs":[{"internalType":"bytes32","name":"role","type":"bytes32"},{"internalType":"address","name":"account","type":"address"}],"name":"revokeRole","outputs":[],"stateMutability":"nonpayable","type":"function"},{"inputs":[{"internalType":"uint256[]","name":"value","type":"uint256[]"}],"name":"setAbilityRate","outputs":[],"stateMutability":"nonpayable","type":"function"},{"inputs":[{"internalType":"uint256[]","name":"value","type":"uint256[]"}],"name":"setDropRate","outputs":[],"stateMutability":"nonpayable","type":"function"},{"inputs":[{"internalType":"uint256[]","name":"value","type":"uint256[]"}],"name":"setDropRateHeroS","outputs":[],"stateMutability":"nonpayable","type":"function"},{"inputs":[{"internalType":"uint256","name":"value","type":"uint256"}],"name":"setMaxLevel","outputs":[],"stateMutability":"nonpayable","type":"function"},{"inputs":[{"internalType":"uint256","name":"value","type":"uint256"}],"name":"setMintCost","outputs":[],"stateMutability":"nonpayable","type":"function"},{"inputs":[{"internalType":"uint256","name":"value","type":"uint256"}],"name":"setMintCostHeroS","outputs":[],"stateMutability":"nonpayable","type":"function"},{"inputs":[{"internalType":"uint256","name":"level","type":"uint256"},{"internalType":"uint256[6]","name":"value","type":"uint256[6]"}],"name":"setNumRockUpgradeShieldLevel","outputs":[],"stateMutability":"nonpayable","type":"function"},{"inputs":[{"internalType":"uint256","name":"rarity","type":"uint256"},{"internalType":"uint256","name":"minCost","type":"uint256"},{"internalType":"uint256","name":"maxCost","type":"uint256"},{"internalType":"uint256","name":"incrementalCost","type":"uint256"}],"name":"setRandomizeAbilityCost","outputs":[],"stateMutability":"nonpayable","type":"function"},{"inputs":[{"internalType":"uint256","name":"rarity","type":"uint256"},{"components":[{"components":[{"internalType":"uint256","name":"min","type":"uint256"},{"internalType":"uint256","name":"max","type":"uint256"}],"internalType":"struct BHeroDesign.StatsRange","name":"stamina","type":"tuple"},{"components":[{"internalType":"uint256","name":"min","type":"uint256"},{"internalType":"uint256","name":"max","type":"uint256"}],"internalType":"struct BHeroDesign.StatsRange","name":"speed","type":"tuple"},{"internalType":"uint256","name":"bombCount","type":"uint256"},{"components":[{"internalType":"uint256","name":"min","type":"uint256"},{"internalType":"uint256","name":"max","type":"uint256"}],"internalType":"struct BHeroDesign.StatsRange","name":"bombPower","type":"tuple"},{"internalType":"uint256","name":"bombRange","type":"uint256"},{"internalType":"uint256","name":"ability","type":"uint256"}],"internalType":"struct BHeroDesign.Stats","name":"stats","type":"tuple"}],"name":"setRarityStats","outputs":[],"stateMutability":"nonpayable","type":"function"},{"inputs":[{"internalType":"uint256","name":"value","type":"uint256"}],"name":"setSenMintCost","outputs":[],"stateMutability":"nonpayable","type":"function"},{"inputs":[{"internalType":"uint256","name":"value","type":"uint256"}],"name":"setSenMintCostHeroS","outputs":[],"stateMutability":"nonpayable","type":"function"},{"inputs":[{"internalType":"uint256[]","name":"value","type":"uint256[]"}],"name":"setSkinVal","outputs":[],"stateMutability":"nonpayable","type":"function"},{"inputs":[{"internalType":"uint256[]","name":"value","type":"uint256[]"}],"name":"setSuperBoxDropRate","outputs":[],"stateMutability":"nonpayable","type":"function"},{"inputs":[{"internalType":"uint256","name":"value","type":"uint256"}],"name":"setSuperBoxMintCost","outputs":[],"stateMutability":"nonpayable","type":"function"},{"inputs":[{"internalType":"uint256","name":"value","type":"uint256"}],"name":"setTokenLimit","outputs":[],"stateMutability":"nonpayable","type":"function"},{"inputs":[{"internalType":"uint256[][]","name":"value","type":"uint256[][]"}],"name":"setUpgradeCosts","outputs":[],"stateMutability":"nonpayable","type":"function"},{"inputs":[{"internalType":"bytes4","name":"interfaceId","type":"bytes4"}],"name":"supportsInterface","outputs":[{"internalType":"bool","name":"","type":"bool"}],"stateMutability":"view","type":"function"},{"inputs":[{"internalType":"address","name":"newImplementation","type":"address"}],"name":"upgradeTo","outputs":[],"stateMutability":"nonpayable","type":"function"},{"inputs":[{"internalType":"address","name":"newImplementation","type":"address"},{"internalType":"bytes","name":"data","type":"bytes"}],"name":"upgradeToAndCall","outputs":[],"stateMutability":"payable","type":"function"}],"evm":{"bytecode":{"linkReferences":{},"object":"60a06040523060805234801561001457600080fd5b50608051614caa61004c60003960008181610e4601528181610edc01528181611064015281816110fa01526111f10152614caa6000f3fe60806040526004361061031d5760003560e01c8063757aa181116101a5578063c133cf54116100ec578063df064ad811610095578063f50576521161006f578063f5057652146108ca578063f72c0d8b146108e0578063f988c0d214610914578063fa3a515f1461092957600080fd5b8063df064ad814610856578063dfe3daa31461088a578063efb947f1146108aa57600080fd5b8063da1e6ba4116100c6578063da1e6ba4146107f6578063da6a074c14610816578063deed88971461083657600080fd5b8063c133cf5414610796578063d547741f146107b6578063d55921b8146107d657600080fd5b806391d148541161014e578063b05b7b5811610128578063b05b7b5814610736578063bc0dfa0914610756578063c0e68fec1461077657600080fd5b806391d14854146106a65780639a356327146106ec578063a217fddf1461072157600080fd5b80638859c89d1161017f5780638859c89d146106425780638b3c88b4146106625780639010200a1461068457600080fd5b8063757aa181146105f95780638129fc1c1461060d5780638545f4ea1461062257600080fd5b80633659cfe6116102695780635603b5191161021257806368cdbe36116101ec57806368cdbe36146105b95780636da46a67146105ce578063745f418f146105e357600080fd5b80635603b51914610563578063607b63fd14610583578063648abe57146105a357600080fd5b80634830dfa5116102435780634830dfa51461051b5780634f1ef2861461053b57806352d1902d1461054e57600080fd5b80633659cfe6146104c55780633798fe56146104e55780633ee4f036146104fb57600080fd5b8063294b3db5116102cb578063344f1ba5116102a5578063344f1ba51461046557806335a664841461048557806336568abe146104a557600080fd5b8063294b3db51461040e5780632f2ff15d1461042e57806331ad35791461045057600080fd5b806316b0f8e6116102fc57806316b0f8e61461039c578063248a9ca3146103c957806328485586146103f957600080fd5b8062736cf31461032257806301ffc9a71461034d57806313c738f01461037d575b600080fd5b34801561032e57600080fd5b5061033761093f565b6040516103449190614385565b60405180910390f35b34801561035957600080fd5b5061036d61036836600461442d565b6109d9565b6040519015158152602001610344565b34801561038957600080fd5b5060ff545b604051908152602001610344565b3480156103a857600080fd5b506103bc6103b736600461446f565b6109ea565b604051610344919061449b565b3480156103d557600080fd5b5061038e6103e43660046144df565b60009081526065602052604090206001015490565b34801561040557600080fd5b5060fd5461038e565b34801561041a57600080fd5b5061038e6104293660046144f8565b610c60565b34801561043a57600080fd5b5061044e610449366004614536565b610cbe565b005b34801561045c57600080fd5b506103bc610ce8565b34801561047157600080fd5b5061044e6104803660046144df565b610d41565b34801561049157600080fd5b5061044e6104a036600461465c565b610d72565b3480156104b157600080fd5b5061044e6104c0366004614536565b610db0565b3480156104d157600080fd5b5061044e6104e0366004614691565b610e3c565b3480156104f157600080fd5b506101005461038e565b34801561050757600080fd5b5061044e61051636600461465c565b610fd9565b34801561052757600080fd5b5061038e6105363660046144f8565b611016565b61044e6105493660046146ac565b61105a565b34801561055a57600080fd5b5061038e6111e4565b34801561056f57600080fd5b5061044e61057e3660046144df565b6112a9565b34801561058f57600080fd5b5061038e61059e3660046144f8565b6112da565b3480156105af57600080fd5b506101075461038e565b3480156105c557600080fd5b506103bc611302565b3480156105da57600080fd5b506103bc611359565b3480156105ef57600080fd5b506101095461038e565b34801561060557600080fd5b50600061038e565b34801561061957600080fd5b5061044e6113b0565b34801561062e57600080fd5b5061044e61063d3660046144df565b6124cf565b34801561064e57600080fd5b5061044e61065d36600461465c565b6124ff565b34801561066e57600080fd5b5061067761253d565b6040516103449190614752565b34801561069057600080fd5b5061069961265f565b6040516103449190614807565b3480156106b257600080fd5b5061036d6106c1366004614536565b60009182526065602090815260408084206001600160a01b0393909316845291905290205460ff1690565b3480156106f857600080fd5b5061070c6107073660046144f8565b6126d4565b60408051928352602083019190915201610344565b34801561072d57600080fd5b5061038e600081565b34801561074257600080fd5b5061044e610751366004614853565b612710565b34801561076257600080fd5b5061044e61077136600461465c565b61287f565b34801561078257600080fd5b5061044e6107913660046144df565b6128bd565b3480156107a257600080fd5b5061044e6107b13660046148d4565b6128ed565b3480156107c257600080fd5b5061044e6107d1366004614536565b61297d565b3480156107e257600080fd5b5061044e6107f1366004614963565b6129a2565b34801561080257600080fd5b5061044e6108113660046144df565b6129f5565b34801561082257600080fd5b5061044e6108313660046149cf565b612a26565b34801561084257600080fd5b5061044e6108513660046144df565b612a64565b34801561086257600080fd5b5061038e7f22c69ab406805e70d07fb1a6502af760601d3b977beadb295a9d76d5852e16a381565b34801561089657600080fd5b5061044e6108a536600461465c565b612a95565b3480156108b657600080fd5b5061044e6108c53660046144df565b612ad3565b3480156108d657600080fd5b506101085461038e565b3480156108ec57600080fd5b5061038e7f189ab7a9244df0848122154315af71fe140f3db0fe014031783b0946b8c9d2e381565b34801561092057600080fd5b506103bc612b04565b34801561093557600080fd5b506101065461038e565b6060610101805480602002602001604051908101604052809291908181526020016000905b828210156109d0576000848152602090819020830180546040805182850281018501909152818152928301828280156109bc57602002820191906000526020600020905b8154815260200190600101908083116109a8575b505050505081526020019060010190610964565b50505050905090565b60006109e482612b5a565b92915050565b60608267ffffffffffffffff811115610a0557610a05614559565b604051908082528060200260200182016040528015610a2e578160200160208202803683370190505b5090506000633fffffff8316601f602885901c16828167ffffffffffffffff811115610a5c57610a5c614559565b604051908082528060200260200182016040528015610a85578160200160208202803683370190505b50905060005b82811015610ad557610a9e81600f614a96565b610aa990602d614aad565b87901c617fff16828281518110610ac257610ac2614ac0565b6020908102919091010152600101610a8b565b50824311610b2a5760405162461bcd60e51b815260206004820152601860248201527f54617267657420626c6f636b206e6f742061727269766564000000000000000060448201526064015b60405180910390fd5b82406000819003610bbf5784610b92578215610b8d5760005b83811015610b87576000838281518110610b5f57610b5f614ac0565b60200260200101511115610b7f57610b78816001614aad565b9550610b87565b600101610b43565b50610b92565b600194505b610ba360ff85164360ff1916614aad565b9350438410610bbb57610bb861010085614ad6565b93505b5082405b60005b88811015610c53576000610bd6828c614aad565b905060008382604051602001610bf6929190918252602082015260400190565b6040516020818303038152906040528051906020012060001c90506000610c2082848b8e8a612bf1565b905080915050808a8581518110610c3957610c39614ac0565b602002602001018181525050505050806001019050610bc2565b5050505050509392505050565b6000806101038481548110610c7757610c77614ac0565b906000526020600020906003020190506000838260020154610c999190614a96565b8254610ca59190614aad565b9050610cb5818360010154612fb8565b95945050505050565b600082815260656020526040902060010154610cd981612fd0565b610ce38383612fda565b505050565b6060610102805480602002602001604051908101604052809291908181526020018280548015610d3757602002820191906000526020600020905b815481526020019060010190808311610d23575b5050505050905090565b7f22c69ab406805e70d07fb1a6502af760601d3b977beadb295a9d76d5852e16a3610d6b81612fd0565b5061010055565b7f22c69ab406805e70d07fb1a6502af760601d3b977beadb295a9d76d5852e16a3610d9c81612fd0565b8151610ce390610105906020850190614103565b6001600160a01b0381163314610e2e5760405162461bcd60e51b815260206004820152602f60248201527f416363657373436f6e74726f6c3a2063616e206f6e6c792072656e6f756e636560448201527f20726f6c657320666f722073656c6600000000000000000000000000000000006064820152608401610b21565b610e38828261307c565b5050565b6001600160a01b037f0000000000000000000000000000000000000000000000000000000000000000163003610eda5760405162461bcd60e51b815260206004820152602c60248201527f46756e6374696f6e206d7573742062652063616c6c6564207468726f7567682060448201527f64656c656761746563616c6c00000000000000000000000000000000000000006064820152608401610b21565b7f00000000000000000000000000000000000000000000000000000000000000006001600160a01b0316610f357f360894a13ba1a3210667c828492db98dca3e2076cc3735a920a3ca505d382bbc546001600160a01b031690565b6001600160a01b031614610fb15760405162461bcd60e51b815260206004820152602c60248201527f46756e6374696f6e206d7573742062652063616c6c6564207468726f7567682060448201527f6163746976652070726f787900000000000000000000000000000000000000006064820152608401610b21565b610fba816130ff565b60408051600080825260208201909252610fd691839190613129565b50565b7f22c69ab406805e70d07fb1a6502af760601d3b977beadb295a9d76d5852e16a361100381612fd0565b8151610ce39060fe906020850190614103565b6000610101838154811061102c5761102c614ac0565b90600052602060002001828154811061104757611047614ac0565b9060005260206000200154905092915050565b6001600160a01b037f00000000000000000000000000000000000000000000000000000000000000001630036110f85760405162461bcd60e51b815260206004820152602c60248201527f46756e6374696f6e206d7573742062652063616c6c6564207468726f7567682060448201527f64656c656761746563616c6c00000000000000000000000000000000000000006064820152608401610b21565b7f00000000000000000000000000000000000000000000000000000000000000006001600160a01b03166111537f360894a13ba1a3210667c828492db98dca3e2076cc3735a920a3ca505d382bbc546001600160a01b031690565b6001600160a01b0316146111cf5760405162461bcd60e51b815260206004820152602c60248201527f46756e6374696f6e206d7573742062652063616c6c6564207468726f7567682060448201527f6163746976652070726f787900000000000000000000000000000000000000006064820152608401610b21565b6111d8826130ff565b610e3882826001613129565b6000306001600160a01b037f000000000000000000000000000000000000000000000000000000000000000016146112845760405162461bcd60e51b815260206004820152603860248201527f555550535570677261646561626c653a206d757374206e6f742062652063616c60448201527f6c6564207468726f7567682064656c656761746563616c6c00000000000000006064820152608401610b21565b507f360894a13ba1a3210667c828492db98dca3e2076cc3735a920a3ca505d382bbc90565b7f22c69ab406805e70d07fb1a6502af760601d3b977beadb295a9d76d5852e16a36112d381612fd0565b5061010855565b600061010b82600681106112f0576112f0614ac0565b01838154811061104757611047614ac0565b606061010a805480602002602001604051908101604052809291908181526020018280548015610d375760200282019190600052602060002090815481526020019060010190808311610d23575050505050905090565b6060610105805480602002602001604051908101604052809291908181526020018280548015610d375760200282019190600052602060002090815481526020019060010190808311610d23575050505050905090565b600054610100900460ff16158080156113d05750600054600160ff909116105b806113ea5750303b1580156113ea575060005460ff166001145b61145c5760405162461bcd60e51b815260206004820152602e60248201527f496e697469616c697a61626c653a20636f6e747261637420697320616c72656160448201527f647920696e697469616c697a65640000000000000000000000000000000000006064820152608401610b21565b6000805460ff19166001179055801561147f576000805461ff0019166101001790555b6114876132c9565b61148f6132c9565b61149a600033613348565b6114c47f189ab7a9244df0848122154315af71fe140f3db0fe014031783b0946b8c9d2e333613348565b6114ee7f22c69ab406805e70d07fb1a6502af760601d3b977beadb295a9d76d5852e16a333613348565b6040518060c001604052806040518060400160405280600181526020016003815250815260200160405180604001604052806001815260200160038152508152602001600181526020016040518060400160405280600181526020016003815250815260200160018152602001600181525060fb6000808152602001908152602001600020600082015181600001600082015181600001556020820151816001015550506020820151816002016000820151816000015560208201518160010155505060408201518160040155606082015181600501600082015181600001556020820151816001015550506080820151816007015560a082015181600801559050506040518060c001604052806040518060400160405280600381526020016006815250815260200160405180604001604052806003815260200160068152508152602001600281526020016040518060400160405280600381526020016006815250815260200160028152602001600281525060fb600060018152602001908152602001600020600082015181600001600082015181600001556020820151816001015550506020820151816002016000820151816000015560208201518160010155505060408201518160040155606082015181600501600082015181600001556020820151816001015550506080820151816007015560a082015181600801559050506040518060c001604052806040518060400160405280600681526020016009815250815260200160405180604001604052806006815260200160098152508152602001600381526020016040518060400160405280600681526020016009815250815260200160038152602001600381525060fb600060028152602001908152602001600020600082015181600001600082015181600001556020820151816001015550506020820151816002016000820151816000015560208201518160010155505060408201518160040155606082015181600501600082015181600001556020820151816001015550506080820151816007015560a082015181600801559050506040518060c00160405280604051806040016040528060098152602001600c8152508152602001604051806040016040528060098152602001600c815250815260200160048152602001604051806040016040528060098152602001600c815250815260200160048152602001600481525060fb600060038152602001908152602001600020600082015181600001600082015181600001556020820151816001015550506020820151816002016000820151816000015560208201518160010155505060408201518160040155606082015181600501600082015181600001556020820151816001015550506080820151816007015560a082015181600801559050506040518060c001604052806040518060400160405280600c8152602001600f81525081526020016040518060400160405280600c8152602001600f8152508152602001600581526020016040518060400160405280600c8152602001600f815250815260200160058152602001600581525060fb600060048152602001908152602001600020600082015181600001600082015181600001556020820151816001015550506020820151816002016000820151816000015560208201518160010155505060408201518160040155606082015181600501600082015181600001556020820151816001015550506080820151816007015560a082015181600801559050506040518060c001604052806040518060400160405280600f8152602001601281525081526020016040518060400160405280600f815260200160128152508152602001600681526020016040518060400160405280600f81526020016012815250815260200160068152602001600681525060fb600060058152602001908152602001600020600082015181600001600082015181600001556020820151816001015550506020820151816002016000820151816000015560208201518160010155505060408201518160040155606082015181600501600082015181600001556020820151816001015550506080820151816007015560a082015181600801559050506040518060e00160405280600160ff168152602001600260ff168152602001600360ff168152602001600460ff168152602001600560ff168152602001600660ff168152602001600760ff1681525060fc906007611b6492919061414e565b506040805160e081018252600180825260026020830181905292820181905260608201819052608082015260a0810182905260c0810191909152611bad9061010290600761414e565b506101f460fd556040805160c08101825261205f815261040c6020820152610206918101919091526068606082015260346080820152600460a0820152611bf89060fe90600661418e565b50678ac7230489e8000060ff55674563918244f400006101075560056101005560408051608081018252670de0b6b3a76400008152671bc16d674ec800006020820152673782dace9d90000091810191909152676124fee993bc000060608201526101018054600181018255600091909152611c9a917f109ea3cebb188b9c1b9fc5bb3920be60dfdc8699098dff92f3d80daaca7476899091019060046141cf565b5060408051608081018252671bc16d674ec800008152673782dace9d9000006020820152674563918244f4000091810191909152677ce66c50e284000060608201526101018054600181018255600091909152611d1d917f109ea3cebb188b9c1b9fc5bb3920be60dfdc8699098dff92f3d80daaca7476899091019060046141cf565b5060408051608081018252671bc16d674ec800008152673782dace9d9000006020820152674563918244f4000091810191909152678ac7230489e8000060608201526101018054600181018255600091909152611da0917f109ea3cebb188b9c1b9fc5bb3920be60dfdc8699098dff92f3d80daaca7476899091019060046141cf565b50604080516080810182526729a2241af62c00008152676124fee993bc000060208201526798a7d9b8314c0000918101919091526801314fb3706298000060608201526101018054600181018255600091909152611e24917f109ea3cebb188b9c1b9fc5bb3920be60dfdc8699098dff92f3d80daaca747689909101906004614216565b5060408051608081018252676124fee993bc0000815267f9ccd8a1c5080000602082015268022b1c8c1227a00000918101919091526807ea2832757708000060608201526101018054600181018255600091909152611ea9917f109ea3cebb188b9c1b9fc5bb3920be60dfdc8699098dff92f3d80daaca747689909101906004614216565b5060408051608081018252677ce66c50e2840000815268015af1d78b58c40000602082015268030927f74c9de0000091810191909152680ac9ae05a71ebc000060608201526101018054600181018255600091909152611f2f917f109ea3cebb188b9c1b9fc5bb3920be60dfdc8699098dff92f3d80daaca747689909101906004614216565b506101036040518060600160405280671bc16d674ec800008152602001671bc16d674ec8000081526020016000815250908060018154018082558091505060019003906000526020600020906003020160009091909190915060008201518160000155602082015181600101556040820151816002015550506101036040518060600160405280674563918244f400008152602001678ac7230489e800008152602001670de0b6b3a7640000815250908060018154018082558091505060019003906000526020600020906003020160009091909190915060008201518160000155602082015181600101556040820151816002015550506101036040518060600160405280678ac7230489e8000081526020016801158e460913d000008152602001671bc16d674ec800008152509080600181540180825580915050600190039060005260206000209060030201600090919091909150600082015181600001556020820151816001015560408201518160020155505061010360405180606001604052806801158e460913d00000815260200168022b1c8c1227a000008152602001673782dace9d9000008152509080600181540180825580915050600190039060005260206000209060030201600090919091909150600082015181600001556020820151816001015560408201518160020155505061010360405180606001604052806801e5b8fa8fe2ac00008152602001680340aad21b3b7000008152602001674563918244f400008152509080600181540180825580915050600190039060005260206000209060030201600090919091909150600082015181600001556020820151816001015560408201518160020155505061010360405180606001604052806802b5e3af16b188000081526020016804563918244f40000081526020016753444835ec58000081525090806001815401808255809150506001900390600052602060002090600302016000909190919091506000820151816000015560208201518160010155604082015181600201555050600a610104819055506040518060c001604052806120e861ffff16815260200161040c61ffff1681526020016101a261ffff168152602001603361ffff168152602001601561ffff168152602001603261ffff1681525061010590600661229292919061418e565b506802b5e3af16b188000061010655680270801d946c94000061010855678ac7230489e80000610109556040805160c08101825261205f815261040c6020820152610206918101919091526068606082015260346080820152600460a08201526123019061010a90600661418e565b506040805160c081018252600080825260208201819052918101829052606081018290526080810182905260a08101919091526123439061010b90600661414e565b506040805160c081018252600181526002602082015260049181019190915260066060820181905260086080830152600a60a08301526123869161010c9161414e565b506040805160c081018252600181526002602082015260049181019190915260066060820181905260086080830152600a60a08301526123c99161010d9161414e565b506040805160c081018252600181526002602082015260049181019190915260066060820181905260086080830152600a60a083015261240c9161010e9161414e565b50604080516101a08101825260018152600260208201526003918101919091526004606082015260056080820152600660a0820152600760c0820152600860e08201526009610100820152600a610120820152600e610140820152600f61016082015260106101808201526124869061011190600d61414e565b508015610fd6576000805461ff0019169055604051600181527f7f26b83ff96e1f2b6a682f133852f6798a09c465da95921460cefb38474024989060200160405180910390a150565b7f22c69ab406805e70d07fb1a6502af760601d3b977beadb295a9d76d5852e16a36124f981612fd0565b5060ff55565b7f22c69ab406805e70d07fb1a6502af760601d3b977beadb295a9d76d5852e16a361252981612fd0565b8151610ce390610111906020850190614103565b60fe5460609060008167ffffffffffffffff81111561255e5761255e614559565b60405190808252806020026020018201604052801561259757816020015b61258461425e565b81526020019060019003908161257c5790505b50905060005b8281101561265857600081815260fb6020908152604091829020825161010081018452815460c08201908152600183015460e0830152815283518085018552600283015481526003830154818501528184015260048201548185015283518085019094526005820154845260068201549284019290925260608201929092526007820154608082015260089091015460a0820152825183908390811061264557612645614ac0565b602090810291909101015260010161259d565b5092915050565b6060610103805480602002602001604051908101604052809291908181526020016000905b828210156109d05783829060005260206000209060030201604051806060016040529081600082015481526020016001820154815260200160028201548152505081526020019060010190612684565b60008060006126e284613352565b90506126f285826040015161360f565b6101808301529450849250612706816136c3565b9150509250929050565b7f22c69ab406805e70d07fb1a6502af760601d3b977beadb295a9d76d5852e16a361273a81612fd0565b61010354851015612781576000610103868154811061275b5761275b614ac0565b600091825260209091206003909102018581556001810185905560020183905550612878565b6101035485146127d35760405162461bcd60e51b815260206004820152600e60248201527f496e76616c6964207261726974790000000000000000000000000000000000006044820152606401610b21565b6040805160608101825285815260208101858152918101848152610103805460018101825560009190915291517f02c297ab74aad0aede3a1895c857b1f2c71e6a203feb727bec95ac752998cb7860039093029283015591517f02c297ab74aad0aede3a1895c857b1f2c71e6a203feb727bec95ac752998cb7982015590517f02c297ab74aad0aede3a1895c857b1f2c71e6a203feb727bec95ac752998cb7a909101555b5050505050565b7f22c69ab406805e70d07fb1a6502af760601d3b977beadb295a9d76d5852e16a36128a981612fd0565b8151610ce39061010a906020850190614103565b7f22c69ab406805e70d07fb1a6502af760601d3b977beadb295a9d76d5852e16a36128e781612fd0565b5060fd55565b7f22c69ab406805e70d07fb1a6502af760601d3b977beadb295a9d76d5852e16a361291781612fd0565b50600091825260fb6020908152604092839020825180518255820151600182015581830151805160028301558201516003820155928201516004840155606082015180516005850155015160068301556080810151600783015560a00151600890910155565b60008281526065602052604090206001015461299881612fd0565b610ce3838361307c565b7f22c69ab406805e70d07fb1a6502af760601d3b977beadb295a9d76d5852e16a36129cc81612fd0565b8161010b84600681106129e1576129e1614ac0565b6129ef929101906006614103565b50505050565b7f22c69ab406805e70d07fb1a6502af760601d3b977beadb295a9d76d5852e16a3612a1f81612fd0565b5061010955565b7f22c69ab406805e70d07fb1a6502af760601d3b977beadb295a9d76d5852e16a3612a5081612fd0565b8151610ce3906101019060208501906142dc565b7f22c69ab406805e70d07fb1a6502af760601d3b977beadb295a9d76d5852e16a3612a8e81612fd0565b5061010755565b7f22c69ab406805e70d07fb1a6502af760601d3b977beadb295a9d76d5852e16a3612abf81612fd0565b8151610ce390610102906020850190614103565b7f22c69ab406805e70d07fb1a6502af760601d3b977beadb295a9d76d5852e16a3612afd81612fd0565b5061010655565b606060fe805480602002602001604051908101604052809291908181526020018280548015610d375760200282019190600052602060002090815481526020019060010190808311610d23575050505050905090565b60007fffffffff0000000000000000000000000000000000000000000000000000000082167f7965db0b0000000000000000000000000000000000000000000000000000000014806109e457507f01ffc9a7000000000000000000000000000000000000000000000000000000007fffffffff000000000000000000000000000000000000000000000000000000008316146109e4565b600080612c826040518061024001604052806000815260200160008152602001600081526020016000815260200160008152602001600081526020016000815260200160008152602001600081526020016000815260200160008152602001600081526020016060815260200160008152602001600081526020016060815260200160008152602001600081525090565b86815287601f601e87901c8116906001602389901c811681149160878a901c1690600384149084148315612cf95760408051600180825281830190925260009160208083019080368337019050509050600181600081518110612ce757612ce7614ac0565b60209081029190910101526101e08801525b8b612dcd57612dc18682612d6c5760008c5111612d665760fe805480602002602001604051908101604052809291908181526020018280548015612d5c57602002820191906000526020600020905b815481526020019060010190808311612d48575b505050505061388c565b8b61388c565b610105805480602002602001604051908101604052809291908181526020018280548015612d5c5760200282019190600052602060002090815481526020019060010190808311612d4857505050505061388c565b60408901529550612dde565b612dd860018d614ad6565b60408801525b8115612e605760008060005b8c51811015612e3c578c8181518110612e0557612e05614ac0565b6020026020010151821015612e34578c8181518110612e2657612e26614ac0565b602002602001015191508092505b600101612dea565b5088604001518214612e5d578760009a509a50505050505050505050612fae565b50505b600160608801819052604080890151600090815260fb6020522060048101546101208a015260078101546101608a015290612e9e9088906005613995565b60808a0152965083612f0457610111546000908190612ebf90600190614ad6565b905088612ece81600084613995565b809450819b5050506101118381548110612eea57612eea614ac0565b60009182526020909120015460a08c015250612f0c915050565b60a088018490525b80546001820154612f1e918991613995565b60c08a015260028201546003830154919850612f3c91899190613995565b60e08a01529650612f508760016014613995565b6101008a015260058201546006830154919850612f6f91899190613995565b6101408a01526040890151909750612f8890889061360f565b6101808a0152436101a08a01529950899650612fa3886136c3565b985050505050505050505b9550959350505050565b6000818310612fc75781612fc9565b825b9392505050565b610fd681336139b9565b60008281526065602090815260408083206001600160a01b038516845290915290205460ff16610e385760008281526065602090815260408083206001600160a01b03851684529091529020805460ff191660011790556130383390565b6001600160a01b0316816001600160a01b0316837f2f8788117e7eff1d82e926ec794901d17c78024a50270940304540a733656f0d60405160405180910390a45050565b60008281526065602090815260408083206001600160a01b038516845290915290205460ff1615610e385760008281526065602090815260408083206001600160a01b0385168085529252808320805460ff1916905551339285917ff6391f5c32d9c69d2a47ea670b442974b53935d1edc7fd64eb21e047a839171b9190a45050565b7f189ab7a9244df0848122154315af71fe140f3db0fe014031783b0946b8c9d2e3610e3881612fd0565b7f4910fdfa16fed3260ed0e7147f7cc6da11a60208b5b9406d12a635614ffd91435460ff161561315c57610ce383613a2e565b826001600160a01b03166352d1902d6040518163ffffffff1660e01b8152600401602060405180830381865afa9250505080156131b6575060408051601f3d908101601f191682019092526131b391810190614ae9565b60015b6132285760405162461bcd60e51b815260206004820152602e60248201527f45524331393637557067726164653a206e657720696d706c656d656e7461746960448201527f6f6e206973206e6f7420555550530000000000000000000000000000000000006064820152608401610b21565b7f360894a13ba1a3210667c828492db98dca3e2076cc3735a920a3ca505d382bbc81146132bd5760405162461bcd60e51b815260206004820152602960248201527f45524331393637557067726164653a20756e737570706f727465642070726f7860448201527f6961626c655555494400000000000000000000000000000000000000000000006064820152608401610b21565b50610ce3838383613b04565b600054610100900460ff166133465760405162461bcd60e51b815260206004820152602b60248201527f496e697469616c697a61626c653a20636f6e7472616374206973206e6f74206960448201527f6e697469616c697a696e670000000000000000000000000000000000000000006064820152608401610b21565b565b610e388282612fda565b6133e06040518061024001604052806000815260200160008152602001600081526020016000815260200160008152602001600081526020016000815260200160008152602001600081526020016000815260200160008152602001600081526020016060815260200160008152602001600081526020016060815260200160008152602001600081525090565b633fffffff82168152601e82901c6103ff166020820152602882901c601f166040820152602d82901c601f166060820152601f603283901c81811660808401526103e01660f584901c821690811760a0840152603c84901c821660c0840152604184901c821660e0840152604684901c8216610100840152604b84901c8216610120840152605084901c8216610140840152605584901c8216610160840152603784901c821691605a85901c168067ffffffffffffffff8111156134a6576134a6614559565b6040519080825280602002602001820160405280156134cf578160200160208202803683370190505b5061018085015260005b81811015613527576134ec816005614a96565b6134f790605f614aad565b86901c601f16856101800151828151811061351457613514614ac0565b60209081029190910101526001016134d9565b50609185901c633fffffff166101a085015260af85901c601f166101c0850152601f60b486901c168067ffffffffffffffff81111561356857613568614559565b604051908082528060200260200182016040528015613591578160200160208202803683370190505b506101e086015260005b818110156135e9576135ae816005614a96565b6135b99060b9614aad565b87901c601f16866101e0015182815181106135d6576135d6614ac0565b602090810291909101015260010161359b565b505050505060eb82901c601f1661022082015260f09190911c6103ff1661020082015290565b60006060600061010280548060200260200160405190810160405280929190818152602001828054801561366257602002820191906000526020600020905b81548152602001906001019080831161364e575b50505050509050836000036136935760008160028151811061368657613686614ac0565b6020026020010181815250505b600084815260fb6020526040902060088101546136b690879060fc908590613b29565b9097909650945050505050565b60a08101516000908190600581901c908290601f169050846000015183179250601e8560200151901b8317925060288560400151901b83179250602d8560600151901b8317925060328560800151901b83179250603781901b83179250603c8560c00151901b8317925060418560e00151901b831792506046856101000151901b83179250604b856101200151901b831792506050856101400151901b831792506055856101600151901b83179250605a85610180015151901b8317925060005b856101800151518110156137d85761379d816005614a96565b6137a890605f614aad565b86610180015182815181106137bf576137bf614ac0565b6020026020010151901b84179350806001019050613784565b506091856101a00151901b8317925060af856101c00151901b8317925060b4856101e0015151901b8317925060005b856101e001515181101561385b57613820816005614a96565b61382b9060b9614aad565b866101e00151828151811061384257613842614ac0565b6020026020010151901b84179350806001019050613807565b5060eb856102200151901b8317925060f0856102000151901b8317925060f582901b83179250829350505050919050565b60008060008351116138e05760405162461bcd60e51b815260206004820152601460248201527f4172726179206d757374206e6f7420656d7074790000000000000000000000006044820152606401610b21565b6000805b845181101561391c578481815181106138ff576138ff614ac0565b6020026020010151826139129190614aad565b91506001016138e4565b50600061392b86600084613c53565b90965090506000805b86518110156139825786818151811061394f5761394f614ac0565b6020026020010151826139629190614aad565b91508183101561397a57879550935061398e92505050565b600101613934565b50866000945094505050505b9250929050565b6000806139ad85856139a8866001614aad565b613c53565b91509150935093915050565b60008281526065602090815260408083206001600160a01b038516845290915290205460ff16610e38576139ec81613cd1565b6139f7836020613ce3565b604051602001613a08929190614b26565b60408051601f198184030181529082905262461bcd60e51b8252610b2191600401614ba7565b6001600160a01b0381163b613aab5760405162461bcd60e51b815260206004820152602d60248201527f455243313936373a206e657720696d706c656d656e746174696f6e206973206e60448201527f6f74206120636f6e7472616374000000000000000000000000000000000000006064820152608401610b21565b7f360894a13ba1a3210667c828492db98dca3e2076cc3735a920a3ca505d382bbc80547fffffffffffffffffffffffff0000000000000000000000000000000000000000166001600160a01b0392909216919091179055565b613b0d83613f0c565b600082511180613b1a5750805b15610ce3576129ef8383613f4c565b600060608285805490501015613b815760405162461bcd60e51b815260206004820152601560248201527f496e76616c69642073616d706c696e672073697a6500000000000000000000006044820152606401610b21565b8267ffffffffffffffff811115613b9a57613b9a614559565b604051908082528060200260200182016040528015613bc3578160200160208202803683370190505b5090506000805b84811015613c4657613bdc888761388c565b80935081995050506000868381518110613bf857613bf8614ac0565b602002602001018181525050868281548110613c1657613c16614ac0565b9060005260206000200154838281518110613c3357613c33614ac0565b6020908102919091010152600101613bca565b5095969095509350505050565b600080828410613ca55760405162461bcd60e51b815260206004820152601460248201527f496e76616c69642072616e646f6d2072616e67650000000000000000000000006044820152606401610b21565b613cb885613cb38686614ad6565b613f71565b9092509050613cc78482614aad565b9050935093915050565b60606109e46001600160a01b03831660145b60606000613cf2836002614a96565b613cfd906002614aad565b67ffffffffffffffff811115613d1557613d15614559565b6040519080825280601f01601f191660200182016040528015613d3f576020820181803683370190505b5090507f300000000000000000000000000000000000000000000000000000000000000081600081518110613d7657613d76614ac0565b60200101907effffffffffffffffffffffffffffffffffffffffffffffffffffffffffffff1916908160001a9053507f780000000000000000000000000000000000000000000000000000000000000081600181518110613dd957613dd9614ac0565b60200101907effffffffffffffffffffffffffffffffffffffffffffffffffffffffffffff1916908160001a9053506000613e15846002614a96565b613e20906001614aad565b90505b6001811115613ebd577f303132333435363738396162636465660000000000000000000000000000000085600f1660108110613e6157613e61614ac0565b1a60f81b828281518110613e7757613e77614ac0565b60200101907effffffffffffffffffffffffffffffffffffffffffffffffffffffffffffff1916908160001a90535060049490941c93613eb681614bda565b9050613e23565b508315612fc95760405162461bcd60e51b815260206004820181905260248201527f537472696e67733a20686578206c656e67746820696e73756666696369656e746044820152606401610b21565b613f1581613a2e565b6040516001600160a01b038216907fbc7cd75a20ee27fd9adebab32041f755214dbc6bffa90cc0225b39da2e5c2d3b90600090a250565b6060612fc98383604051806060016040528060278152602001614c4e60279139613f92565b600080613f7d8461400a565b9150613f898383614c0f565b90509250929050565b6060600080856001600160a01b031685604051613faf9190614c31565b600060405180830381855af49150503d8060008114613fea576040519150601f19603f3d011682016040523d82523d6000602084013e613fef565b606091505b509150915061400086838387614058565b9695505050505050565b600042614018600143614ad6565b6040805160208101939093529040908201524460608201526080810183905260a00160408051601f19818403018152919052805160209091012092915050565b606083156140c75782516000036140c0576001600160a01b0385163b6140c05760405162461bcd60e51b815260206004820152601d60248201527f416464726573733a2063616c6c20746f206e6f6e2d636f6e74726163740000006044820152606401610b21565b50816140d1565b6140d183836140d9565b949350505050565b8151156140e95781518083602001fd5b8060405162461bcd60e51b8152600401610b219190614ba7565b82805482825590600052602060002090810192821561413e579160200282015b8281111561413e578251825591602001919060010190614123565b5061414a929150614335565b5090565b82805482825590600052602060002090810192821561413e579160200282015b8281111561413e578251829060ff1690559160200191906001019061416e565b82805482825590600052602060002090810192821561413e579160200282015b8281111561413e578251829061ffff169055916020019190600101906141ae565b82805482825590600052602060002090810192821561413e579160200282015b8281111561413e578251829067ffffffffffffffff169055916020019190600101906141ef565b82805482825590600052602060002090810192821561413e579160200282015b8281111561413e578251829068ffffffffffffffffff16905591602001919060010190614236565b604080516101008101909152600060c0820181815260e08301919091528190815260200161429f604051806040016040528060008152602001600081525090565b8152602001600081526020016142c8604051806040016040528060008152602001600081525090565b815260200160008152602001600081525090565b828054828255906000526020600020908101928215614329579160200282015b828111156143295782518051614319918491602090910190614103565b50916020019190600101906142fc565b5061414a92915061434a565b5b8082111561414a5760008155600101614336565b8082111561414a57600061435e8282614367565b5060010161434a565b5080546000825590600052602060002090810190610fd69190614335565b6000602080830181845280855180835260408601915060408160051b87010192508387016000805b8381101561441f578886037fffffffffffffffffffffffffffffffffffffffffffffffffffffffffffffffc0018552825180518088529088019088880190845b818110156144095783518352928a0192918a01916001016143ed565b50909750505093860193918601916001016143ad565b509398975050505050505050565b60006020828403121561443f57600080fd5b81357fffffffff0000000000000000000000000000000000000000000000000000000081168114612fc957600080fd5b60008060006060848603121561448457600080fd5b505081359360208301359350604090920135919050565b6020808252825182820181905260009190848201906040850190845b818110156144d3578351835292840192918401916001016144b7565b50909695505050505050565b6000602082840312156144f157600080fd5b5035919050565b6000806040838503121561450b57600080fd5b50508035926020909101359150565b80356001600160a01b038116811461453157600080fd5b919050565b6000806040838503121561454957600080fd5b82359150613f896020840161451a565b634e487b7160e01b600052604160045260246000fd5b60405160c0810167ffffffffffffffff8111828210171561459257614592614559565b60405290565b604051601f8201601f1916810167ffffffffffffffff811182821017156145c1576145c1614559565b604052919050565b600067ffffffffffffffff8211156145e3576145e3614559565b5060051b60200190565b600082601f8301126145fe57600080fd5b8135602061461361460e836145c9565b614598565b8083825260208201915060208460051b87010193508684111561463557600080fd5b602086015b84811015614651578035835291830191830161463a565b509695505050505050565b60006020828403121561466e57600080fd5b813567ffffffffffffffff81111561468557600080fd5b6140d1848285016145ed565b6000602082840312156146a357600080fd5b612fc98261451a565b600080604083850312156146bf57600080fd5b6146c88361451a565b915060208084013567ffffffffffffffff808211156146e657600080fd5b818601915086601f8301126146fa57600080fd5b81358181111561470c5761470c614559565b61471e84601f19601f84011601614598565b9150808252878482850101111561473457600080fd5b80848401858401376000848284010152508093505050509250929050565b602080825282518282018190526000919060409081850190868401855b828110156147fa57815161478e85825180518252602090810151910152565b868101516147a88787018280518252602090810151910152565b5085810151608081818801526060830151915060a06147d38189018480518252602090810151910152565b9083015160e08801529091015161010086015250610120909301929085019060010161476f565b5091979650505050505050565b602080825282518282018190526000919060409081850190868401855b828110156147fa5781518051855286810151878601528501518585015260609093019290850190600101614824565b6000806000806080858703121561486957600080fd5b5050823594602084013594506040840135936060013592509050565b60006040828403121561489757600080fd5b6040516040810181811067ffffffffffffffff821117156148ba576148ba614559565b604052823581526020928301359281019290925250919050565b6000808284036101408112156148e957600080fd5b8335925061012080601f198301121561490157600080fd5b61490961456f565b91506149188660208701614885565b82526149278660608701614885565b602083015260a085013560408301526149438660c08701614885565b606083015261010085013560808301529093013560a08401525092909150565b60008060e0838503121561497657600080fd5b82359150602084603f85011261498b57600080fd5b61499361456f565b8060e08601878111156149a557600080fd5b602087015b818110156149c157803584529284019284016149aa565b509497909650945050505050565b600060208083850312156149e257600080fd5b823567ffffffffffffffff808211156149fa57600080fd5b818501915085601f830112614a0e57600080fd5b8135614a1c61460e826145c9565b81815260059190911b83018401908481019088831115614a3b57600080fd5b8585015b83811015614a7357803585811115614a575760008081fd5b614a658b89838a01016145ed565b845250918601918601614a3f565b5098975050505050505050565b634e487b7160e01b600052601160045260246000fd5b80820281158282048414176109e4576109e4614a80565b808201808211156109e4576109e4614a80565b634e487b7160e01b600052603260045260246000fd5b818103818111156109e4576109e4614a80565b600060208284031215614afb57600080fd5b5051919050565b60005b83811015614b1d578181015183820152602001614b05565b50506000910152565b7f416363657373436f6e74726f6c3a206163636f756e7420000000000000000000815260008351614b5e816017850160208801614b02565b7f206973206d697373696e6720726f6c65200000000000000000000000000000006017918401918201528351614b9b816028840160208801614b02565b01602801949350505050565b6020815260008251806020840152614bc6816040850160208701614b02565b601f01601f19169190910160400192915050565b600081614be957614be9614a80565b507fffffffffffffffffffffffffffffffffffffffffffffffffffffffffffffffff0190565b600082614c2c57634e487b7160e01b600052601260045260246000fd5b500690565b60008251614c43818460208701614b02565b919091019291505056fe416464726573733a206c6f772d6c6576656c2064656c65676174652063616c6c206661696c6564a2646970667358221220c800ea968d5e4bfe096a3f198b04b5dcc115f55165c68294269091cd7075284a64736f6c63430008180033","opcodes":"PUSH1 0xA0 PUSH1 0x40 MSTORE ADDRESS PUSH1 0x80 MSTORE CALLVALUE DUP1 ISZERO PUSH2 0x14 JUMPI PUSH1 0x0 DUP1 REVERT JUMPDEST POP PUSH1 0x80 MLOAD PUSH2 0x4CAA PUSH2 0x4C PUSH1 0x0 CODECOPY PUSH1 0x0 DUP2 DUP2 PUSH2 0xE46 ADD MSTORE DUP2 DUP2 PUSH2 0xEDC ADD MSTORE DUP2 DUP2 PUSH2 0x1064 ADD MSTORE DUP2 DUP2 PUSH2 0x10FA ADD MSTORE PUSH2 0x11F1 ADD MSTORE PUSH2 0x4CAA PUSH1 0x0 RETURN INVALID PUSH1 0x80 PUSH1 0x40 MSTORE PUSH1 0x4 CALLDATASIZE LT PUSH2 0x31D JUMPI PUSH1 0x0 CALLDATALOAD PUSH1 0xE0 SHR DUP1 PUSH4 0x757AA181 GT PUSH2 0x1A5 JUMPI DUP1 PUSH4 0xC133CF54 GT PUSH2 0xEC JUMPI DUP1 PUSH4 0xDF064AD8 GT PUSH2 0x95 JUMPI DUP1 PUSH4 0xF5057652 GT PUSH2 0x6F JUMPI DUP1 PUSH4 0xF5057652 EQ PUSH2 0x8CA JUMPI DUP1 PUSH4 0xF72C0D8B EQ PUSH2 0x8E0 JUMPI DUP1 PUSH4 0xF988C0D2 EQ PUSH2 0x914 JUMPI DUP1 PUSH4 0xFA3A515F EQ PUSH2 0x929 JUMPI PUSH1 0x0 DUP1 REVERT JUMPDEST DUP1 PUSH4 0xDF064AD8 EQ PUSH2 0x856 JUMPI DUP1 PUSH4 0xDFE3DAA3 EQ PUSH2 0x88A JUMPI DUP1 PUSH4 0xEFB947F1 EQ PUSH2 0x8AA JUMPI PUSH1 0x0 DUP1 REVERT JUMPDEST DUP1 PUSH4 0xDA1E6BA4 GT PUSH2 0xC6 JUMPI DUP1 PUSH4 0xDA1E6BA4 EQ PUSH2 0x7F6 JUMPI DUP1 PUSH4 0xDA6A074C EQ PUSH2 0x816 JUMPI DUP1 PUSH4 0xDEED8897 EQ PUSH2 0x836 JUMPI PUSH1 0x0 DUP1 REVERT JUMPDEST DUP1 PUSH4 0xC133CF54 EQ PUSH2 0x796 JUMPI DUP1 PUSH4 0xD547741F EQ PUSH2 0x7B6 JUMPI DUP1 PUSH4 0xD55921B8 EQ PUSH2 0x7D6 JUMPI PUSH1 0x0 DUP1 REVERT JUMPDEST DUP1 PUSH4 0x91D14854 GT PUSH2 0x14E JUMPI DUP1 PUSH4 0xB05B7B58 GT PUSH2 0x128 JUMPI DUP1 PUSH4 0xB05B7B58 EQ PUSH2 0x736 JUMPI DUP1 PUSH4 0xBC0DFA09 EQ PUSH2 0x756 JUMPI DUP1 PUSH4 0xC0E68FEC EQ PUSH2 0x776 JUMPI PUSH1 0x0 DUP1 REVERT JUMPDEST DUP1 PUSH4 0x91D14854 EQ PUSH2 0x6A6 JUMPI DUP1 PUSH4 0x9A356327 EQ PUSH2 0x6EC JUMPI DUP1 PUSH4 0xA217FDDF EQ PUSH2 0x721 JUMPI PUSH1 0x0 DUP1 REVERT JUMPDEST DUP1 PUSH4 0x8859C89D GT PUSH2 0x17F JUMPI DUP1 PUSH4 0x8859C89D EQ PUSH2 0x642 JUMPI DUP1 PUSH4 0x8B3C88B4 EQ PUSH2 0x662 JUMPI DUP1 PUSH4 0x9010200A EQ PUSH2 0x684 JUMPI PUSH1 0x0 DUP1 REVERT JUMPDEST DUP1 PUSH4 0x757AA181 EQ PUSH2 0x5F9 JUMPI DUP1 PUSH4 0x8129FC1C EQ PUSH2 0x60D JUMPI DUP1 PUSH4 0x8545F4EA EQ PUSH2 0x622 JUMPI PUSH1 0x0 DUP1 REVERT JUMPDEST DUP1 PUSH4 0x3659CFE6 GT PUSH2 0x269 JUMPI DUP1 PUSH4 0x5603B519 GT PUSH2 0x212 JUMPI DUP1 PUSH4 0x68CDBE36 GT PUSH2 0x1EC JUMPI DUP1 PUSH4 0x68CDBE36 EQ PUSH2 0x5B9 JUMPI DUP1 PUSH4 0x6DA46A67 EQ PUSH2 0x5CE JUMPI DUP1 PUSH4 0x745F418F EQ PUSH2 0x5E3 JUMPI PUSH1 0x0 DUP1 REVERT JUMPDEST DUP1 PUSH4 0x5603B519 EQ PUSH2 0x563 JUMPI DUP1 PUSH4 0x607B63FD EQ PUSH2 0x583 JUMPI DUP1 PUSH4 0x648ABE57 EQ PUSH2 0x5A3 JUMPI PUSH1 0x0 DUP1 REVERT JUMPDEST DUP1 PUSH4 0x4830DFA5 GT PUSH2 0x243 JUMPI DUP1 PUSH4 0x4830DFA5 EQ PUSH2 0x51B JUMPI DUP1 PUSH4 0x4F1EF286 EQ PUSH2 0x53B JUMPI DUP1 PUSH4 0x52D1902D EQ PUSH2 0x54E JUMPI PUSH1 0x0 DUP1 REVERT JUMPDEST DUP1 PUSH4 0x3659CFE6 EQ PUSH2 0x4C5 JUMPI DUP1 PUSH4 0x3798FE56 EQ PUSH2 0x4E5 JUMPI DUP1 PUSH4 0x3EE4F036 EQ PUSH2 0x4FB JUMPI PUSH1 0x0 DUP1 REVERT JUMPDEST DUP1 PUSH4 0x294B3DB5 GT PUSH2 0x2CB JUMPI DUP1 PUSH4 0x344F1BA5 GT PUSH2 0x2A5 JUMPI DUP1 PUSH4 0x344F1BA5 EQ PUSH2 0x465 JUMPI DUP1 PUSH4 0x35A66484 EQ PUSH2 0x485 JUMPI DUP1 PUSH4 0x36568ABE EQ PUSH2 0x4A5 JUMPI PUSH1 0x0 DUP1 REVERT JUMPDEST DUP1 PUSH4 0x294B3DB5 EQ PUSH2 0x40E JUMPI DUP1 PUSH4 0x2F2FF15D EQ PUSH2 0x42E JUMPI DUP1 PUSH4 0x31AD3579 EQ PUSH2 0x450 JUMPI PUSH1 0x0 DUP1 REVERT JUMPDEST DUP1 PUSH4 0x16B0F8E6 GT PUSH2 0x2FC JUMPI DUP1 PUSH4 0x16B0F8E6 EQ PUSH2 0x39C JUMPI DUP1 PUSH4 0x248A9CA3 EQ PUSH2 0x3C9 JUMPI DUP1 PUSH4 0x28485586 EQ PUSH2 0x3F9 JUMPI PUSH1 0x0 DUP1 REVERT JUMPDEST DUP1 PUSH3 0x736CF3 EQ PUSH2 0x322 JUMPI DUP1 PUSH4 0x1FFC9A7 EQ PUSH2 0x34D JUMPI DUP1 PUSH4 0x13C738F0 EQ PUSH2 0x37D JUMPI JUMPDEST PUSH1 0x0 DUP1 REVERT JUMPDEST CALLVALUE DUP1 ISZERO PUSH2 0x32E JUMPI PUSH1 0x0 DUP1 REVERT JUMPDEST POP PUSH2 0x337 PUSH2 0x93F JUMP JUMPDEST PUSH1 0x40 MLOAD PUSH2 0x344 SWAP2 SWAP1 PUSH2 0x4385 JUMP JUMPDEST PUSH1 0x40 MLOAD DUP1 SWAP2 SUB SWAP1 RETURN JUMPDEST CALLVALUE DUP1 ISZERO PUSH2 0x359 JUMPI PUSH1 0x0 DUP1 REVERT JUMPDEST POP PUSH2 0x36D PUSH2 0x368 CALLDATASIZE PUSH1 0x4 PUSH2 0x442D JUMP JUMPDEST PUSH2 0x9D9 JUMP JUMPDEST PUSH1 0x40 MLOAD SWAP1 ISZERO ISZERO DUP2 MSTORE PUSH1 0x20 ADD PUSH2 0x344 JUMP JUMPDEST CALLVALUE DUP1 ISZERO PUSH2 0x389 JUMPI PUSH1 0x0 DUP1 REVERT JUMPDEST POP PUSH1 0xFF SLOAD JUMPDEST PUSH1 0x40 MLOAD SWAP1 DUP2 MSTORE PUSH1 0x20 ADD PUSH2 0x344 JUMP JUMPDEST CALLVALUE DUP1 ISZERO PUSH2 0x3A8 JUMPI PUSH1 0x0 DUP1 REVERT JUMPDEST POP PUSH2 0x3BC PUSH2 0x3B7 CALLDATASIZE PUSH1 0x4 PUSH2 0x446F JUMP JUMPDEST PUSH2 0x9EA JUMP JUMPDEST PUSH1 0x40 MLOAD PUSH2 0x344 SWAP2 SWAP1 PUSH2 0x449B JUMP JUMPDEST CALLVALUE DUP1 ISZERO PUSH2 0x3D5 JUMPI PUSH1 0x0 DUP1 REVERT JUMPDEST POP PUSH2 0x38E PUSH2 0x3E4 CALLDATASIZE PUSH1 0x4 PUSH2 0x44DF JUMP JUMPDEST PUSH1 0x0 SWAP1 DUP2 MSTORE PUSH1 0x65 PUSH1 0x20 MSTORE PUSH1 0x40 SWAP1 KECCAK256 PUSH1 0x1 ADD SLOAD SWAP1 JUMP JUMPDEST CALLVALUE DUP1 ISZERO PUSH2 0x405 JUMPI PUSH1 0x0 DUP1 REVERT JUMPDEST POP PUSH1 0xFD SLOAD PUSH2 0x38E JUMP JUMPDEST CALLVALUE DUP1 ISZERO PUSH2 0x41A JUMPI PUSH1 0x0 DUP1 REVERT JUMPDEST POP PUSH2 0x38E PUSH2 0x429 CALLDATASIZE PUSH1 0x4 PUSH2 0x44F8 JUMP JUMPDEST PUSH2 0xC60 JUMP JUMPDEST CALLVALUE DUP1 ISZERO PUSH2 0x43A JUMPI PUSH1 0x0 DUP1 REVERT JUMPDEST POP PUSH2 0x44E PUSH2 0x449 CALLDATASIZE PUSH1 0x4 PUSH2 0x4536 JUMP JUMPDEST PUSH2 0xCBE JUMP JUMPDEST STOP JUMPDEST CALLVALUE DUP1 ISZERO PUSH2 0x45C JUMPI PUSH1 0x0 DUP1 REVERT JUMPDEST POP PUSH2 0x3BC PUSH2 0xCE8 JUMP JUMPDEST CALLVALUE DUP1 ISZERO PUSH2 0x471 JUMPI PUSH1 0x0 DUP1 REVERT JUMPDEST POP PUSH2 0x44E PUSH2 0x480 CALLDATASIZE PUSH1 0x4 PUSH2 0x44DF JUMP JUMPDEST PUSH2 0xD41 JUMP JUMPDEST CALLVALUE DUP1 ISZERO PUSH2 0x491 JUMPI PUSH1 0x0 DUP1 REVERT JUMPDEST POP PUSH2 0x44E PUSH2 0x4A0 CALLDATASIZE PUSH1 0x4 PUSH2 0x465C JUMP JUMPDEST PUSH2 0xD72 JUMP JUMPDEST CALLVALUE DUP1 ISZERO PUSH2 0x4B1 JUMPI PUSH1 0x0 DUP1 REVERT JUMPDEST POP PUSH2 0x44E PUSH2 0x4C0 CALLDATASIZE PUSH1 0x4 PUSH2 0x4536 JUMP JUMPDEST PUSH2 0xDB0 JUMP JUMPDEST CALLVALUE DUP1 ISZERO PUSH2 0x4D1 JUMPI PUSH1 0x0 DUP1 REVERT JUMPDEST POP PUSH2 0x44E PUSH2 0x4E0 CALLDATASIZE PUSH1 0x4 PUSH2 0x4691 JUMP JUMPDEST PUSH2 0xE3C JUMP JUMPDEST CALLVALUE DUP1 ISZERO PUSH2 0x4F1 JUMPI PUSH1 0x0 DUP1 REVERT JUMPDEST POP PUSH2 0x100 SLOAD PUSH2 0x38E JUMP JUMPDEST CALLVALUE DUP1 ISZERO PUSH2 0x507 JUMPI PUSH1 0x0 DUP1 REVERT JUMPDEST POP PUSH2 0x44E PUSH2 0x516 CALLDATASIZE PUSH1 0x4 PUSH2 0x465C JUMP JUMPDEST PUSH2 0xFD9 JUMP JUMPDEST CALLVALUE DUP1 ISZERO PUSH2 0x527 JUMPI PUSH1 0x0 DUP1 REVERT JUMPDEST POP PUSH2 0x38E PUSH2 0x536 CALLDATASIZE PUSH1 0x4 PUSH2 0x44F8 JUMP JUMPDEST PUSH2 0x1016 JUMP JUMPDEST PUSH2 0x44E PUSH2 0x549 CALLDATASIZE PUSH1 0x4 PUSH2 0x46AC JUMP JUMPDEST PUSH2 0x105A JUMP JUMPDEST CALLVALUE DUP1 ISZERO PUSH2 0x55A JUMPI PUSH1 0x0 DUP1 REVERT JUMPDEST POP PUSH2 0x38E PUSH2 0x11E4 JUMP JUMPDEST CALLVALUE DUP1 ISZERO PUSH2 0x56F JUMPI PUSH1 0x0 DUP1 REVERT JUMPDEST POP PUSH2 0x44E PUSH2 0x57E CALLDATASIZE PUSH1 0x4 PUSH2 0x44DF JUMP JUMPDEST PUSH2 0x12A9 JUMP JUMPDEST CALLVALUE DUP1 ISZERO PUSH2 0x58F JUMPI PUSH1 0x0 DUP1 REVERT JUMPDEST POP PUSH2 0x38E PUSH2 0x59E CALLDATASIZE PUSH1 0x4 PUSH2 0x44F8 JUMP JUMPDEST PUSH2 0x12DA JUMP JUMPDEST CALLVALUE DUP1 ISZERO PUSH2 0x5AF JUMPI PUSH1 0x0 DUP1 REVERT JUMPDEST POP PUSH2 0x107 SLOAD PUSH2 0x38E JUMP JUMPDEST CALLVALUE DUP1 ISZERO PUSH2 0x5C5 JUMPI PUSH1 0x0 DUP1 REVERT JUMPDEST POP PUSH2 0x3BC PUSH2 0x1302 JUMP JUMPDEST CALLVALUE DUP1 ISZERO PUSH2 0x5DA JUMPI PUSH1 0x0 DUP1 REVERT JUMPDEST POP PUSH2 0x3BC PUSH2 0x1359 JUMP JUMPDEST CALLVALUE DUP1 ISZERO PUSH2 0x5EF JUMPI PUSH1 0x0 DUP1 REVERT JUMPDEST POP PUSH2 0x109 SLOAD PUSH2 0x38E JUMP JUMPDEST CALLVALUE DUP1 ISZERO PUSH2 0x605 JUMPI PUSH1 0x0 DUP1 REVERT JUMPDEST POP PUSH1 0x0 PUSH2 0x38E JUMP JUMPDEST CALLVALUE DUP1 ISZERO PUSH2 0x619 JUMPI PUSH1 0x0 DUP1 REVERT JUMPDEST POP PUSH2 0x44E PUSH2 0x13B0 JUMP JUMPDEST CALLVALUE DUP1 ISZERO PUSH2 0x62E JUMPI PUSH1 0x0 DUP1 REVERT JUMPDEST POP PUSH2 0x44E PUSH2 0x63D CALLDATASIZE PUSH1 0x4 PUSH2 0x44DF JUMP JUMPDEST PUSH2 0x24CF JUMP JUMPDEST CALLVALUE DUP1 ISZERO PUSH2 0x64E JUMPI PUSH1 0x0 DUP1 REVERT JUMPDEST POP PUSH2 0x44E PUSH2 0x65D CALLDATASIZE PUSH1 0x4 PUSH2 0x465C JUMP JUMPDEST PUSH2 0x24FF JUMP JUMPDEST CALLVALUE DUP1 ISZERO PUSH2 0x66E JUMPI PUSH1 0x0 DUP1 REVERT JUMPDEST POP PUSH2 0x677 PUSH2 0x253D JUMP JUMPDEST PUSH1 0x40 MLOAD PUSH2 0x344 SWAP2 SWAP1 PUSH2 0x4752 JUMP JUMPDEST CALLVALUE DUP1 ISZERO PUSH2 0x690 JUMPI PUSH1 0x0 DUP1 REVERT JUMPDEST POP PUSH2 0x699 PUSH2 0x265F JUMP JUMPDEST PUSH1 0x40 MLOAD PUSH2 0x344 SWAP2 SWAP1 PUSH2 0x4807 JUMP JUMPDEST CALLVALUE DUP1 ISZERO PUSH2 0x6B2 JUMPI PUSH1 0x0 DUP1 REVERT JUMPDEST POP PUSH2 0x36D PUSH2 0x6C1 CALLDATASIZE PUSH1 0x4 PUSH2 0x4536 JUMP JUMPDEST PUSH1 0x0 SWAP2 DUP3 MSTORE PUSH1 0x65 PUSH1 0x20 SWAP1 DUP2 MSTORE PUSH1 0x40 DUP1 DUP5 KECCAK256 PUSH1 0x1 PUSH1 0x1 PUSH1 0xA0 SHL SUB SWAP4 SWAP1 SWAP4 AND DUP5 MSTORE SWAP2 SWAP1 MSTORE SWAP1 KECCAK256 SLOAD PUSH1 0xFF AND SWAP1 JUMP JUMPDEST CALLVALUE DUP1 ISZERO PUSH2 0x6F8 JUMPI PUSH1 0x0 DUP1 REVERT JUMPDEST POP PUSH2 0x70C PUSH2 0x707 CALLDATASIZE PUSH1 0x4 PUSH2 0x44F8 JUMP JUMPDEST PUSH2 0x26D4 JUMP JUMPDEST PUSH1 0x40 DUP1 MLOAD SWAP3 DUP4 MSTORE PUSH1 0x20 DUP4 ADD SWAP2 SWAP1 SWAP2 MSTORE ADD PUSH2 0x344 JUMP JUMPDEST CALLVALUE DUP1 ISZERO PUSH2 0x72D JUMPI PUSH1 0x0 DUP1 REVERT JUMPDEST POP PUSH2 0x38E PUSH1 0x0 DUP2 JUMP JUMPDEST CALLVALUE DUP1 ISZERO PUSH2 0x742 JUMPI PUSH1 0x0 DUP1 REVERT JUMPDEST POP PUSH2 0x44E PUSH2 0x751 CALLDATASIZE PUSH1 0x4 PUSH2 0x4853 JUMP JUMPDEST PUSH2 0x2710 JUMP JUMPDEST CALLVALUE DUP1 ISZERO PUSH2 0x762 JUMPI PUSH1 0x0 DUP1 REVERT JUMPDEST POP PUSH2 0x44E PUSH2 0x771 CALLDATASIZE PUSH1 0x4 PUSH2 0x465C JUMP JUMPDEST PUSH2 0x287F JUMP JUMPDEST CALLVALUE DUP1 ISZERO PUSH2 0x782 JUMPI PUSH1 0x0 DUP1 REVERT JUMPDEST POP PUSH2 0x44E PUSH2 0x791 CALLDATASIZE PUSH1 0x4 PUSH2 0x44DF JUMP JUMPDEST PUSH2 0x28BD JUMP JUMPDEST CALLVALUE DUP1 ISZERO PUSH2 0x7A2 JUMPI PUSH1 0x0 DUP1 REVERT JUMPDEST POP PUSH2 0x44E PUSH2 0x7B1 CALLDATASIZE PUSH1 0x4 PUSH2 0x48D4 JUMP JUMPDEST PUSH2 0x28ED JUMP JUMPDEST CALLVALUE DUP1 ISZERO PUSH2 0x7C2 JUMPI PUSH1 0x0 DUP1 REVERT JUMPDEST POP PUSH2 0x44E PUSH2 0x7D1 CALLDATASIZE PUSH1 0x4 PUSH2 0x4536 JUMP JUMPDEST PUSH2 0x297D JUMP JUMPDEST CALLVALUE DUP1 ISZERO PUSH2 0x7E2 JUMPI PUSH1 0x0 DUP1 REVERT JUMPDEST POP PUSH2 0x44E PUSH2 0x7F1 CALLDATASIZE PUSH1 0x4 PUSH2 0x4963 JUMP JUMPDEST PUSH2 0x29A2 JUMP JUMPDEST CALLVALUE DUP1 ISZERO PUSH2 0x802 JUMPI PUSH1 0x0 DUP1 REVERT JUMPDEST POP PUSH2 0x44E PUSH2 0x811 CALLDATASIZE PUSH1 0x4 PUSH2 0x44DF JUMP JUMPDEST PUSH2 0x29F5 JUMP JUMPDEST CALLVALUE DUP1 ISZERO PUSH2 0x822 JUMPI PUSH1 0x0 DUP1 REVERT JUMPDEST POP PUSH2 0x44E PUSH2 0x831 CALLDATASIZE PUSH1 0x4 PUSH2 0x49CF JUMP JUMPDEST PUSH2 0x2A26 JUMP JUMPDEST CALLVALUE DUP1 ISZERO PUSH2 0x842 JUMPI PUSH1 0x0 DUP1 REVERT JUMPDEST POP PUSH2 0x44E PUSH2 0x851 CALLDATASIZE PUSH1 0x4 PUSH2 0x44DF JUMP JUMPDEST PUSH2 0x2A64 JUMP JUMPDEST CALLVALUE DUP1 ISZERO PUSH2 0x862 JUMPI PUSH1 0x0 DUP1 REVERT JUMPDEST POP PUSH2 0x38E PUSH32 0x22C69AB406805E70D07FB1A6502AF760601D3B977BEADB295A9D76D5852E16A3 DUP2 JUMP JUMPDEST CALLVALUE DUP1 ISZERO PUSH2 0x896 JUMPI PUSH1 0x0 DUP1 REVERT JUMPDEST POP PUSH2 0x44E PUSH2 0x8A5 CALLDATASIZE PUSH1 0x4 PUSH2 0x465C JUMP JUMPDEST PUSH2 0x2A95 JUMP JUMPDEST CALLVALUE DUP1 ISZERO PUSH2 0x8B6 JUMPI PUSH1 0x0 DUP1 REVERT JUMPDEST POP PUSH2 0x44E PUSH2 0x8C5 CALLDATASIZE PUSH1 0x4 PUSH2 0x44DF JUMP JUMPDEST PUSH2 0x2AD3 JUMP JUMPDEST CALLVALUE DUP1 ISZERO PUSH2 0x8D6 JUMPI PUSH1 0x0 DUP1 REVERT JUMPDEST POP PUSH2 0x108 SLOAD PUSH2 0x38E JUMP JUMPDEST CALLVALUE DUP1 ISZERO PUSH2 0x8EC JUMPI PUSH1 0x0 DUP1 REVERT JUMPDEST POP PUSH2 0x38E PUSH32 0x189AB7A9244DF0848122154315AF71FE140F3DB0FE014031783B0946B8C9D2E3 DUP2 JUMP JUMPDEST CALLVALUE DUP1 ISZERO PUSH2 0x920 JUMPI PUSH1 0x0 DUP1 REVERT JUMPDEST POP PUSH2 0x3BC PUSH2 0x2B04 JUMP JUMPDEST CALLVALUE DUP1 ISZERO PUSH2 0x935 JUMPI PUSH1 0x0 DUP1 REVERT JUMPDEST POP PUSH2 0x106 SLOAD PUSH2 0x38E JUMP JUMPDEST PUSH1 0x60 PUSH2 0x101 DUP1 SLOAD DUP1 PUSH1 0x20 MUL PUSH1 0x20 ADD PUSH1 0x40 MLOAD SWAP1 DUP2 ADD PUSH1 0x40 MSTORE DUP1 SWAP3 SWAP2 SWAP1 DUP2 DUP2 MSTORE PUSH1 0x20 ADD PUSH1 0x0 SWAP1 JUMPDEST DUP3 DUP3 LT ISZERO PUSH2 0x9D0 JUMPI PUSH1 0x0 DUP5 DUP2 MSTORE PUSH1 0x20 SWAP1 DUP2 SWAP1 KECCAK256 DUP4 ADD DUP1 SLOAD PUSH1 0x40 DUP1 MLOAD DUP3 DUP6 MUL DUP2 ADD DUP6 ADD SWAP1 SWAP2 MSTORE DUP2 DUP2 MSTORE SWAP3 DUP4 ADD DUP3 DUP3 DUP1 ISZERO PUSH2 0x9BC JUMPI PUSH1 0x20 MUL DUP3 ADD SWAP2 SWAP1 PUSH1 0x0 MSTORE PUSH1 0x20 PUSH1 0x0 KECCAK256 SWAP1 JUMPDEST DUP2 SLOAD DUP2 MSTORE PUSH1 0x20 ADD SWAP1 PUSH1 0x1 ADD SWAP1 DUP1 DUP4 GT PUSH2 0x9A8 JUMPI JUMPDEST POP POP POP POP POP DUP2 MSTORE PUSH1 0x20 ADD SWAP1 PUSH1 0x1 ADD SWAP1 PUSH2 0x964 JUMP JUMPDEST POP POP POP POP SWAP1 POP SWAP1 JUMP JUMPDEST PUSH1 0x0 PUSH2 0x9E4 DUP3 PUSH2 0x2B5A JUMP JUMPDEST SWAP3 SWAP2 POP POP JUMP JUMPDEST PUSH1 0x60 DUP3 PUSH8 0xFFFFFFFFFFFFFFFF DUP2 GT ISZERO PUSH2 0xA05 JUMPI PUSH2 0xA05 PUSH2 0x4559 JUMP JUMPDEST PUSH1 0x40 MLOAD SWAP1 DUP1 DUP3 MSTORE DUP1 PUSH1 0x20 MUL PUSH1 0x20 ADD DUP3 ADD PUSH1 0x40 MSTORE DUP1 ISZERO PUSH2 0xA2E JUMPI DUP2 PUSH1 0x20 ADD PUSH1 0x20 DUP3 MUL DUP1 CALLDATASIZE DUP4 CALLDATACOPY ADD SWAP1 POP JUMPDEST POP SWAP1 POP PUSH1 0x0 PUSH4 0x3FFFFFFF DUP4 AND PUSH1 0x1F PUSH1 0x28 DUP6 SWAP1 SHR AND DUP3 DUP2 PUSH8 0xFFFFFFFFFFFFFFFF DUP2 GT ISZERO PUSH2 0xA5C JUMPI PUSH2 0xA5C PUSH2 0x4559 JUMP JUMPDEST PUSH1 0x40 MLOAD SWAP1 DUP1 DUP3 MSTORE DUP1 PUSH1 0x20 MUL PUSH1 0x20 ADD DUP3 ADD PUSH1 0x40 MSTORE DUP1 ISZERO PUSH2 0xA85 JUMPI DUP2 PUSH1 0x20 ADD PUSH1 0x20 DUP3 MUL DUP1 CALLDATASIZE DUP4 CALLDATACOPY ADD SWAP1 POP JUMPDEST POP SWAP1 POP PUSH1 0x0 JUMPDEST DUP3 DUP2 LT ISZERO PUSH2 0xAD5 JUMPI PUSH2 0xA9E DUP2 PUSH1 0xF PUSH2 0x4A96 JUMP JUMPDEST PUSH2 0xAA9 SWAP1 PUSH1 0x2D PUSH2 0x4AAD JUMP JUMPDEST DUP8 SWAP1 SHR PUSH2 0x7FFF AND DUP3 DUP3 DUP2 MLOAD DUP2 LT PUSH2 0xAC2 JUMPI PUSH2 0xAC2 PUSH2 0x4AC0 JUMP JUMPDEST PUSH1 0x20 SWAP1 DUP2 MUL SWAP2 SWAP1 SWAP2 ADD ADD MSTORE PUSH1 0x1 ADD PUSH2 0xA8B JUMP JUMPDEST POP DUP3 NUMBER GT PUSH2 0xB2A JUMPI PUSH1 0x40 MLOAD PUSH3 0x461BCD PUSH1 0xE5 SHL DUP2 MSTORE PUSH1 0x20 PUSH1 0x4 DUP3 ADD MSTORE PUSH1 0x18 PUSH1 0x24 DUP3 ADD MSTORE PUSH32 0x54617267657420626C6F636B206E6F7420617272697665640000000000000000 PUSH1 0x44 DUP3 ADD MSTORE PUSH1 0x64 ADD JUMPDEST PUSH1 0x40 MLOAD DUP1 SWAP2 SUB SWAP1 REVERT JUMPDEST DUP3 BLOCKHASH PUSH1 0x0 DUP2 SWAP1 SUB PUSH2 0xBBF JUMPI DUP5 PUSH2 0xB92 JUMPI DUP3 ISZERO PUSH2 0xB8D JUMPI PUSH1 0x0 JUMPDEST DUP4 DUP2 LT ISZERO PUSH2 0xB87 JUMPI PUSH1 0x0 DUP4 DUP3 DUP2 MLOAD DUP2 LT PUSH2 0xB5F JUMPI PUSH2 0xB5F PUSH2 0x4AC0 JUMP JUMPDEST PUSH1 0x20 MUL PUSH1 0x20 ADD ADD MLOAD GT ISZERO PUSH2 0xB7F JUMPI PUSH2 0xB78 DUP2 PUSH1 0x1 PUSH2 0x4AAD JUMP JUMPDEST SWAP6 POP PUSH2 0xB87 JUMP JUMPDEST PUSH1 0x1 ADD PUSH2 0xB43 JUMP JUMPDEST POP PUSH2 0xB92 JUMP JUMPDEST PUSH1 0x1 SWAP5 POP JUMPDEST PUSH2 0xBA3 PUSH1 0xFF DUP6 AND NUMBER PUSH1 0xFF NOT AND PUSH2 0x4AAD JUMP JUMPDEST SWAP4 POP NUMBER DUP5 LT PUSH2 0xBBB JUMPI PUSH2 0xBB8 PUSH2 0x100 DUP6 PUSH2 0x4AD6 JUMP JUMPDEST SWAP4 POP JUMPDEST POP DUP3 BLOCKHASH JUMPDEST PUSH1 0x0 JUMPDEST DUP9 DUP2 LT ISZERO PUSH2 0xC53 JUMPI PUSH1 0x0 PUSH2 0xBD6 DUP3 DUP13 PUSH2 0x4AAD JUMP JUMPDEST SWAP1 POP PUSH1 0x0 DUP4 DUP3 PUSH1 0x40 MLOAD PUSH1 0x20 ADD PUSH2 0xBF6 SWAP3 SWAP2 SWAP1 SWAP2 DUP3 MSTORE PUSH1 0x20 DUP3 ADD MSTORE PUSH1 0x40 ADD SWAP1 JUMP JUMPDEST PUSH1 0x40 MLOAD PUSH1 0x20 DUP2 DUP4 SUB SUB DUP2 MSTORE SWAP1 PUSH1 0x40 MSTORE DUP1 MLOAD SWAP1 PUSH1 0x20 ADD KECCAK256 PUSH1 0x0 SHR SWAP1 POP PUSH1 0x0 PUSH2 0xC20 DUP3 DUP5 DUP12 DUP15 DUP11 PUSH2 0x2BF1 JUMP JUMPDEST SWAP1 POP DUP1 SWAP2 POP POP DUP1 DUP11 DUP6 DUP2 MLOAD DUP2 LT PUSH2 0xC39 JUMPI PUSH2 0xC39 PUSH2 0x4AC0 JUMP JUMPDEST PUSH1 0x20 MUL PUSH1 0x20 ADD ADD DUP2 DUP2 MSTORE POP POP POP POP POP DUP1 PUSH1 0x1 ADD SWAP1 POP PUSH2 0xBC2 JUMP JUMPDEST POP POP POP POP POP POP SWAP4 SWAP3 POP POP POP JUMP JUMPDEST PUSH1 0x0 DUP1 PUSH2 0x103 DUP5 DUP2 SLOAD DUP2 LT PUSH2 0xC77 JUMPI PUSH2 0xC77 PUSH2 0x4AC0 JUMP JUMPDEST SWAP1 PUSH1 0x0 MSTORE PUSH1 0x20 PUSH1 0x0 KECCAK256 SWAP1 PUSH1 0x3 MUL ADD SWAP1 POP PUSH1 0x0 DUP4 DUP3 PUSH1 0x2 ADD SLOAD PUSH2 0xC99 SWAP2 SWAP1 PUSH2 0x4A96 JUMP JUMPDEST DUP3 SLOAD PUSH2 0xCA5 SWAP2 SWAP1 PUSH2 0x4AAD JUMP JUMPDEST SWAP1 POP PUSH2 0xCB5 DUP2 DUP4 PUSH1 0x1 ADD SLOAD PUSH2 0x2FB8 JUMP JUMPDEST SWAP6 SWAP5 POP POP POP POP POP JUMP JUMPDEST PUSH1 0x0 DUP3 DUP2 MSTORE PUSH1 0x65 PUSH1 0x20 MSTORE PUSH1 0x40 SWAP1 KECCAK256 PUSH1 0x1 ADD SLOAD PUSH2 0xCD9 DUP2 PUSH2 0x2FD0 JUMP JUMPDEST PUSH2 0xCE3 DUP4 DUP4 PUSH2 0x2FDA JUMP JUMPDEST POP POP POP JUMP JUMPDEST PUSH1 0x60 PUSH2 0x102 DUP1 SLOAD DUP1 PUSH1 0x20 MUL PUSH1 0x20 ADD PUSH1 0x40 MLOAD SWAP1 DUP2 ADD PUSH1 0x40 MSTORE DUP1 SWAP3 SWAP2 SWAP1 DUP2 DUP2 MSTORE PUSH1 0x20 ADD DUP3 DUP1 SLOAD DUP1 ISZERO PUSH2 0xD37 JUMPI PUSH1 0x20 MUL DUP3 ADD SWAP2 SWAP1 PUSH1 0x0 MSTORE PUSH1 0x20 PUSH1 0x0 KECCAK256 SWAP1 JUMPDEST DUP2 SLOAD DUP2 MSTORE PUSH1 0x20 ADD SWAP1 PUSH1 0x1 ADD SWAP1 DUP1 DUP4 GT PUSH2 0xD23 JUMPI JUMPDEST POP POP POP POP POP SWAP1 POP SWAP1 JUMP JUMPDEST PUSH32 0x22C69AB406805E70D07FB1A6502AF760601D3B977BEADB295A9D76D5852E16A3 PUSH2 0xD6B DUP2 PUSH2 0x2FD0 JUMP JUMPDEST POP PUSH2 0x100 SSTORE JUMP JUMPDEST PUSH32 0x22C69AB406805E70D07FB1A6502AF760601D3B977BEADB295A9D76D5852E16A3 PUSH2 0xD9C DUP2 PUSH2 0x2FD0 JUMP JUMPDEST DUP2 MLOAD PUSH2 0xCE3 SWAP1 PUSH2 0x105 SWAP1 PUSH1 0x20 DUP6 ADD SWAP1 PUSH2 0x4103 JUMP JUMPDEST PUSH1 0x1 PUSH1 0x1 PUSH1 0xA0 SHL SUB DUP2 AND CALLER EQ PUSH2 0xE2E JUMPI PUSH1 0x40 MLOAD PUSH3 0x461BCD PUSH1 0xE5 SHL DUP2 MSTORE PUSH1 0x20 PUSH1 0x4 DUP3 ADD MSTORE PUSH1 0x2F PUSH1 0x24 DUP3 ADD MSTORE PUSH32 0x416363657373436F6E74726F6C3A2063616E206F6E6C792072656E6F756E6365 PUSH1 0x44 DUP3 ADD MSTORE PUSH32 0x20726F6C657320666F722073656C660000000000000000000000000000000000 PUSH1 0x64 DUP3 ADD MSTORE PUSH1 0x84 ADD PUSH2 0xB21 JUMP JUMPDEST PUSH2 0xE38 DUP3 DUP3 PUSH2 0x307C JUMP JUMPDEST POP POP JUMP JUMPDEST PUSH1 0x1 PUSH1 0x1 PUSH1 0xA0 SHL SUB PUSH32 0x0 AND ADDRESS SUB PUSH2 0xEDA JUMPI PUSH1 0x40 MLOAD PUSH3 0x461BCD PUSH1 0xE5 SHL DUP2 MSTORE PUSH1 0x20 PUSH1 0x4 DUP3 ADD MSTORE PUSH1 0x2C PUSH1 0x24 DUP3 ADD MSTORE PUSH32 0x46756E6374696F6E206D7573742062652063616C6C6564207468726F75676820 PUSH1 0x44 DUP3 ADD MSTORE PUSH32 0x64656C656761746563616C6C0000000000000000000000000000000000000000 PUSH1 0x64 DUP3 ADD MSTORE PUSH1 0x84 ADD PUSH2 0xB21 JUMP JUMPDEST PUSH32 0x0 PUSH1 0x1 PUSH1 0x1 PUSH1 0xA0 SHL SUB AND PUSH2 0xF35 PUSH32 0x360894A13BA1A3210667C828492DB98DCA3E2076CC3735A920A3CA505D382BBC SLOAD PUSH1 0x1 PUSH1 0x1 PUSH1 0xA0 SHL SUB AND SWAP1 JUMP JUMPDEST PUSH1 0x1 PUSH1 0x1 PUSH1 0xA0 SHL SUB AND EQ PUSH2 0xFB1 JUMPI PUSH1 0x40 MLOAD PUSH3 0x461BCD PUSH1 0xE5 SHL DUP2 MSTORE PUSH1 0x20 PUSH1 0x4 DUP3 ADD MSTORE PUSH1 0x2C PUSH1 0x24 DUP3 ADD MSTORE PUSH32 0x46756E6374696F6E206D7573742062652063616C6C6564207468726F75676820 PUSH1 0x44 DUP3 ADD MSTORE PUSH32 0x6163746976652070726F78790000000000000000000000000000000000000000 PUSH1 0x64 DUP3 ADD MSTORE PUSH1 0x84 ADD PUSH2 0xB21 JUMP JUMPDEST PUSH2 0xFBA DUP2 PUSH2 0x30FF JUMP JUMPDEST PUSH1 0x40 DUP1 MLOAD PUSH1 0x0 DUP1 DUP3 MSTORE PUSH1 0x20 DUP3 ADD SWAP1 SWAP3 MSTORE PUSH2 0xFD6 SWAP2 DUP4 SWAP2 SWAP1 PUSH2 0x3129 JUMP JUMPDEST POP JUMP JUMPDEST PUSH32 0x22C69AB406805E70D07FB1A6502AF760601D3B977BEADB295A9D76D5852E16A3 PUSH2 0x1003 DUP2 PUSH2 0x2FD0 JUMP JUMPDEST DUP2 MLOAD PUSH2 0xCE3 SWAP1 PUSH1 0xFE SWAP1 PUSH1 0x20 DUP6 ADD SWAP1 PUSH2 0x4103 JUMP JUMPDEST PUSH1 0x0 PUSH2 0x101 DUP4 DUP2 SLOAD DUP2 LT PUSH2 0x102C JUMPI PUSH2 0x102C PUSH2 0x4AC0 JUMP JUMPDEST SWAP1 PUSH1 0x0 MSTORE PUSH1 0x20 PUSH1 0x0 KECCAK256 ADD DUP3 DUP2 SLOAD DUP2 LT PUSH2 0x1047 JUMPI PUSH2 0x1047 PUSH2 0x4AC0 JUMP JUMPDEST SWAP1 PUSH1 0x0 MSTORE PUSH1 0x20 PUSH1 0x0 KECCAK256 ADD SLOAD SWAP1 POP SWAP3 SWAP2 POP POP JUMP JUMPDEST PUSH1 0x1 PUSH1 0x1 PUSH1 0xA0 SHL SUB PUSH32 0x0 AND ADDRESS SUB PUSH2 0x10F8 JUMPI PUSH1 0x40 MLOAD PUSH3 0x461BCD PUSH1 0xE5 SHL DUP2 MSTORE PUSH1 0x20 PUSH1 0x4 DUP3 ADD MSTORE PUSH1 0x2C PUSH1 0x24 DUP3 ADD MSTORE PUSH32 0x46756E6374696F6E206D7573742062652063616C6C6564207468726F75676820 PUSH1 0x44 DUP3 ADD MSTORE PUSH32 0x64656C656761746563616C6C0000000000000000000000000000000000000000 PUSH1 0x64 DUP3 ADD MSTORE PUSH1 0x84 ADD PUSH2 0xB21 JUMP JUMPDEST PUSH32 0x0 PUSH1 0x1 PUSH1 0x1 PUSH1 0xA0 SHL SUB AND PUSH2 0x1153 PUSH32 0x360894A13BA1A3210667C828492DB98DCA3E2076CC3735A920A3CA505D382BBC SLOAD PUSH1 0x1 PUSH1 0x1 PUSH1 0xA0 SHL SUB AND SWAP1 JUMP JUMPDEST PUSH1 0x1 PUSH1 0x1 PUSH1 0xA0 SHL SUB AND EQ PUSH2 0x11CF JUMPI PUSH1 0x40 MLOAD PUSH3 0x461BCD PUSH1 0xE5 SHL DUP2 MSTORE PUSH1 0x20 PUSH1 0x4 DUP3 ADD MSTORE PUSH1 0x2C PUSH1 0x24 DUP3 ADD MSTORE PUSH32 0x46756E6374696F6E206D7573742062652063616C6C6564207468726F75676820 PUSH1 0x44 DUP3 ADD MSTORE PUSH32 0x6163746976652070726F78790000000000000000000000000000000000000000 PUSH1 0x64 DUP3 ADD MSTORE PUSH1 0x84 ADD PUSH2 0xB21 JUMP JUMPDEST PUSH2 0x11D8 DUP3 PUSH2 0x30FF JUMP JUMPDEST PUSH2 0xE38 DUP3 DUP3 PUSH1 0x1 PUSH2 0x3129 JUMP JUMPDEST PUSH1 0x0 ADDRESS PUSH1 0x1 PUSH1 0x1 PUSH1 0xA0 SHL SUB PUSH32 0x0 AND EQ PUSH2 0x1284 JUMPI PUSH1 0x40 MLOAD PUSH3 0x461BCD PUSH1 0xE5 SHL DUP2 MSTORE PUSH1 0x20 PUSH1 0x4 DUP3 ADD MSTORE PUSH1 0x38 PUSH1 0x24 DUP3 ADD MSTORE PUSH32 0x555550535570677261646561626C653A206D757374206E6F742062652063616C PUSH1 0x44 DUP3 ADD MSTORE PUSH32 0x6C6564207468726F7567682064656C656761746563616C6C0000000000000000 PUSH1 0x64 DUP3 ADD MSTORE PUSH1 0x84 ADD PUSH2 0xB21 JUMP JUMPDEST POP PUSH32 0x360894A13BA1A3210667C828492DB98DCA3E2076CC3735A920A3CA505D382BBC SWAP1 JUMP JUMPDEST PUSH32 0x22C69AB406805E70D07FB1A6502AF760601D3B977BEADB295A9D76D5852E16A3 PUSH2 0x12D3 DUP2 PUSH2 0x2FD0 JUMP JUMPDEST POP PUSH2 0x108 SSTORE JUMP JUMPDEST PUSH1 0x0 PUSH2 0x10B DUP3 PUSH1 0x6 DUP2 LT PUSH2 0x12F0 JUMPI PUSH2 0x12F0 PUSH2 0x4AC0 JUMP JUMPDEST ADD DUP4 DUP2 SLOAD DUP2 LT PUSH2 0x1047 JUMPI PUSH2 0x1047 PUSH2 0x4AC0 JUMP JUMPDEST PUSH1 0x60 PUSH2 0x10A DUP1 SLOAD DUP1 PUSH1 0x20 MUL PUSH1 0x20 ADD PUSH1 0x40 MLOAD SWAP1 DUP2 ADD PUSH1 0x40 MSTORE DUP1 SWAP3 SWAP2 SWAP1 DUP2 DUP2 MSTORE PUSH1 0x20 ADD DUP3 DUP1 SLOAD DUP1 ISZERO PUSH2 0xD37 JUMPI PUSH1 0x20 MUL DUP3 ADD SWAP2 SWAP1 PUSH1 0x0 MSTORE PUSH1 0x20 PUSH1 0x0 KECCAK256 SWAP1 DUP2 SLOAD DUP2 MSTORE PUSH1 0x20 ADD SWAP1 PUSH1 0x1 ADD SWAP1 DUP1 DUP4 GT PUSH2 0xD23 JUMPI POP POP POP POP POP SWAP1 POP SWAP1 JUMP JUMPDEST PUSH1 0x60 PUSH2 0x105 DUP1 SLOAD DUP1 PUSH1 0x20 MUL PUSH1 0x20 ADD PUSH1 0x40 MLOAD SWAP1 DUP2 ADD PUSH1 0x40 MSTORE DUP1 SWAP3 SWAP2 SWAP1 DUP2 DUP2 MSTORE PUSH1 0x20 ADD DUP3 DUP1 SLOAD DUP1 ISZERO PUSH2 0xD37 JUMPI PUSH1 0x20 MUL DUP3 ADD SWAP2 SWAP1 PUSH1 0x0 MSTORE PUSH1 0x20 PUSH1 0x0 KECCAK256 SWAP1 DUP2 SLOAD DUP2 MSTORE PUSH1 0x20 ADD SWAP1 PUSH1 0x1 ADD SWAP1 DUP1 DUP4 GT PUSH2 0xD23 JUMPI POP POP POP POP POP SWAP1 POP SWAP1 JUMP JUMPDEST PUSH1 0x0 SLOAD PUSH2 0x100 SWAP1 DIV PUSH1 0xFF AND ISZERO DUP1 DUP1 ISZERO PUSH2 0x13D0 JUMPI POP PUSH1 0x0 SLOAD PUSH1 0x1 PUSH1 0xFF SWAP1 SWAP2 AND LT JUMPDEST DUP1 PUSH2 0x13EA JUMPI POP ADDRESS EXTCODESIZE ISZERO DUP1 ISZERO PUSH2 0x13EA JUMPI POP PUSH1 0x0 SLOAD PUSH1 0xFF AND PUSH1 0x1 EQ JUMPDEST PUSH2 0x145C JUMPI PUSH1 0x40 MLOAD PUSH3 0x461BCD PUSH1 0xE5 SHL DUP2 MSTORE PUSH1 0x20 PUSH1 0x4 DUP3 ADD MSTORE PUSH1 0x2E PUSH1 0x24 DUP3 ADD MSTORE PUSH32 0x496E697469616C697A61626C653A20636F6E747261637420697320616C726561 PUSH1 0x44 DUP3 ADD MSTORE PUSH32 0x647920696E697469616C697A6564000000000000000000000000000000000000 PUSH1 0x64 DUP3 ADD MSTORE PUSH1 0x84 ADD PUSH2 0xB21 JUMP JUMPDEST PUSH1 0x0 DUP1 SLOAD PUSH1 0xFF NOT AND PUSH1 0x1 OR SWAP1 SSTORE DUP1 ISZERO PUSH2 0x147F JUMPI PUSH1 0x0 DUP1 SLOAD PUSH2 0xFF00 NOT AND PUSH2 0x100 OR SWAP1 SSTORE JUMPDEST PUSH2 0x1487 PUSH2 0x32C9 JUMP JUMPDEST PUSH2 0x148F PUSH2 0x32C9 JUMP JUMPDEST PUSH2 0x149A PUSH1 0x0 CALLER PUSH2 0x3348 JUMP JUMPDEST PUSH2 0x14C4 PUSH32 0x189AB7A9244DF0848122154315AF71FE140F3DB0FE014031783B0946B8C9D2E3 CALLER PUSH2 0x3348 JUMP JUMPDEST PUSH2 0x14EE PUSH32 0x22C69AB406805E70D07FB1A6502AF760601D3B977BEADB295A9D76D5852E16A3 CALLER PUSH2 0x3348 JUMP JUMPDEST PUSH1 0x40 MLOAD DUP1 PUSH1 0xC0 ADD PUSH1 0x40 MSTORE DUP1 PUSH1 0x40 MLOAD DUP1 PUSH1 0x40 ADD PUSH1 0x40 MSTORE DUP1 PUSH1 0x1 DUP2 MSTORE PUSH1 0x20 ADD PUSH1 0x3 DUP2 MSTORE POP DUP2 MSTORE PUSH1 0x20 ADD PUSH1 0x40 MLOAD DUP1 PUSH1 0x40 ADD PUSH1 0x40 MSTORE DUP1 PUSH1 0x1 DUP2 MSTORE PUSH1 0x20 ADD PUSH1 0x3 DUP2 MSTORE POP DUP2 MSTORE PUSH1 0x20 ADD PUSH1 0x1 DUP2 MSTORE PUSH1 0x20 ADD PUSH1 0x40 MLOAD DUP1 PUSH1 0x40 ADD PUSH1 0x40 MSTORE DUP1 PUSH1 0x1 DUP2 MSTORE PUSH1 0x20 ADD PUSH1 0x3 DUP2 MSTORE POP DUP2 MSTORE PUSH1 0x20 ADD PUSH1 0x1 DUP2 MSTORE PUSH1 0x20 ADD PUSH1 0x1 DUP2 MSTORE POP PUSH1 0xFB PUSH1 0x0 DUP1 DUP2 MSTORE PUSH1 0x20 ADD SWAP1 DUP2 MSTORE PUSH1 0x20 ADD PUSH1 0x0 KECCAK256 PUSH1 0x0 DUP3 ADD MLOAD DUP2 PUSH1 0x0 ADD PUSH1 0x0 DUP3 ADD MLOAD DUP2 PUSH1 0x0 ADD SSTORE PUSH1 0x20 DUP3 ADD MLOAD DUP2 PUSH1 0x1 ADD SSTORE POP POP PUSH1 0x20 DUP3 ADD MLOAD DUP2 PUSH1 0x2 ADD PUSH1 0x0 DUP3 ADD MLOAD DUP2 PUSH1 0x0 ADD SSTORE PUSH1 0x20 DUP3 ADD MLOAD DUP2 PUSH1 0x1 ADD SSTORE POP POP PUSH1 0x40 DUP3 ADD MLOAD DUP2 PUSH1 0x4 ADD SSTORE PUSH1 0x60 DUP3 ADD MLOAD DUP2 PUSH1 0x5 ADD PUSH1 0x0 DUP3 ADD MLOAD DUP2 PUSH1 0x0 ADD SSTORE PUSH1 0x20 DUP3 ADD MLOAD DUP2 PUSH1 0x1 ADD SSTORE POP POP PUSH1 0x80 DUP3 ADD MLOAD DUP2 PUSH1 0x7 ADD SSTORE PUSH1 0xA0 DUP3 ADD MLOAD DUP2 PUSH1 0x8 ADD SSTORE SWAP1 POP POP PUSH1 0x40 MLOAD DUP1 PUSH1 0xC0 ADD PUSH1 0x40 MSTORE DUP1 PUSH1 0x40 MLOAD DUP1 PUSH1 0x40 ADD PUSH1 0x40 MSTORE DUP1 PUSH1 0x3 DUP2 MSTORE PUSH1 0x20 ADD PUSH1 0x6 DUP2 MSTORE POP DUP2 MSTORE PUSH1 0x20 ADD PUSH1 0x40 MLOAD DUP1 PUSH1 0x40 ADD PUSH1 0x40 MSTORE DUP1 PUSH1 0x3 DUP2 MSTORE PUSH1 0x20 ADD PUSH1 0x6 DUP2 MSTORE POP DUP2 MSTORE PUSH1 0x20 ADD PUSH1 0x2 DUP2 MSTORE PUSH1 0x20 ADD PUSH1 0x40 MLOAD DUP1 PUSH1 0x40 ADD PUSH1 0x40 MSTORE DUP1 PUSH1 0x3 DUP2 MSTORE PUSH1 0x20 ADD PUSH1 0x6 DUP2 MSTORE POP DUP2 MSTORE PUSH1 0x20 ADD PUSH1 0x2 DUP2 MSTORE PUSH1 0x20 ADD PUSH1 0x2 DUP2 MSTORE POP PUSH1 0xFB PUSH1 0x0 PUSH1 0x1 DUP2 MSTORE PUSH1 0x20 ADD SWAP1 DUP2 MSTORE PUSH1 0x20 ADD PUSH1 0x0 KECCAK256 PUSH1 0x0 DUP3 ADD MLOAD DUP2 PUSH1 0x0 ADD PUSH1 0x0 DUP3 ADD MLOAD DUP2 PUSH1 0x0 ADD SSTORE PUSH1 0x20 DUP3 ADD MLOAD DUP2 PUSH1 0x1 ADD SSTORE POP POP PUSH1 0x20 DUP3 ADD MLOAD DUP2 PUSH1 0x2 ADD PUSH1 0x0 DUP3 ADD MLOAD DUP2 PUSH1 0x0 ADD SSTORE PUSH1 0x20 DUP3 ADD MLOAD DUP2 PUSH1 0x1 ADD SSTORE POP POP PUSH1 0x40 DUP3 ADD MLOAD DUP2 PUSH1 0x4 ADD SSTORE PUSH1 0x60 DUP3 ADD MLOAD DUP2 PUSH1 0x5 ADD PUSH1 0x0 DUP3 ADD MLOAD DUP2 PUSH1 0x0 ADD SSTORE PUSH1 0x20 DUP3 ADD MLOAD DUP2 PUSH1 0x1 ADD SSTORE POP POP PUSH1 0x80 DUP3 ADD MLOAD DUP2 PUSH1 0x7 ADD SSTORE PUSH1 0xA0 DUP3 ADD MLOAD DUP2 PUSH1 0x8 ADD SSTORE SWAP1 POP POP PUSH1 0x40 MLOAD DUP1 PUSH1 0xC0 ADD PUSH1 0x40 MSTORE DUP1 PUSH1 0x40 MLOAD DUP1 PUSH1 0x40 ADD PUSH1 0x40 MSTORE DUP1 PUSH1 0x6 DUP2 MSTORE PUSH1 0x20 ADD PUSH1 0x9 DUP2 MSTORE POP DUP2 MSTORE PUSH1 0x20 ADD PUSH1 0x40 MLOAD DUP1 PUSH1 0x40 ADD PUSH1 0x40 MSTORE DUP1 PUSH1 0x6 DUP2 MSTORE PUSH1 0x20 ADD PUSH1 0x9 DUP2 MSTORE POP DUP2 MSTORE PUSH1 0x20 ADD PUSH1 0x3 DUP2 MSTORE PUSH1 0x20 ADD PUSH1 0x40 MLOAD DUP1 PUSH1 0x40 ADD PUSH1 0x40 MSTORE DUP1 PUSH1 0x6 DUP2 MSTORE PUSH1 0x20 ADD PUSH1 0x9 DUP2 MSTORE POP DUP2 MSTORE PUSH1 0x20 ADD PUSH1 0x3 DUP2 MSTORE PUSH1 0x20 ADD PUSH1 0x3 DUP2 MSTORE POP PUSH1 0xFB PUSH1 0x0 PUSH1 0x2 DUP2 MSTORE PUSH1 0x20 ADD SWAP1 DUP2 MSTORE PUSH1 0x20 ADD PUSH1 0x0 KECCAK256 PUSH1 0x0 DUP3 ADD MLOAD DUP2 PUSH1 0x0 ADD PUSH1 0x0 DUP3 ADD MLOAD DUP2 PUSH1 0x0 ADD SSTORE PUSH1 0x20 DUP3 ADD MLOAD DUP2 PUSH1 0x1 ADD SSTORE POP POP PUSH1 0x20 DUP3 ADD MLOAD DUP2 PUSH1 0x2 ADD PUSH1 0x0 DUP3 ADD MLOAD DUP2 PUSH1 0x0 ADD SSTORE PUSH1 0x20 DUP3 ADD MLOAD DUP2 PUSH1 0x1 ADD SSTORE POP POP PUSH1 0x40 DUP3 ADD MLOAD DUP2 PUSH1 0x4 ADD SSTORE PUSH1 0x60 DUP3 ADD MLOAD DUP2 PUSH1 0x5 ADD PUSH1 0x0 DUP3 ADD MLOAD DUP2 PUSH1 0x0 ADD SSTORE PUSH1 0x20 DUP3 ADD MLOAD DUP2 PUSH1 0x1 ADD SSTORE POP POP PUSH1 0x80 DUP3 ADD MLOAD DUP2 PUSH1 0x7 ADD SSTORE PUSH1 0xA0 DUP3 ADD MLOAD DUP2 PUSH1 0x8 ADD SSTORE SWAP1 POP POP PUSH1 0x40 MLOAD DUP1 PUSH1 0xC0 ADD PUSH1 0x40 MSTORE DUP1 PUSH1 0x40 MLOAD DUP1 PUSH1 0x40 ADD PUSH1 0x40 MSTORE DUP1 PUSH1 0x9 DUP2 MSTORE PUSH1 0x20 ADD PUSH1 0xC DUP2 MSTORE POP DUP2 MSTORE PUSH1 0x20 ADD PUSH1 0x40 MLOAD DUP1 PUSH1 0x40 ADD PUSH1 0x40 MSTORE DUP1 PUSH1 0x9 DUP2 MSTORE PUSH1 0x20 ADD PUSH1 0xC DUP2 MSTORE POP DUP2 MSTORE PUSH1 0x20 ADD PUSH1 0x4 DUP2 MSTORE PUSH1 0x20 ADD PUSH1 0x40 MLOAD DUP1 PUSH1 0x40 ADD PUSH1 0x40 MSTORE DUP1 PUSH1 0x9 DUP2 MSTORE PUSH1 0x20 ADD PUSH1 0xC DUP2 MSTORE POP DUP2 MSTORE PUSH1 0x20 ADD PUSH1 0x4 DUP2 MSTORE PUSH1 0x20 ADD PUSH1 0x4 DUP2 MSTORE POP PUSH1 0xFB PUSH1 0x0 PUSH1 0x3 DUP2 MSTORE PUSH1 0x20 ADD SWAP1 DUP2 MSTORE PUSH1 0x20 ADD PUSH1 0x0 KECCAK256 PUSH1 0x0 DUP3 ADD MLOAD DUP2 PUSH1 0x0 ADD PUSH1 0x0 DUP3 ADD MLOAD DUP2 PUSH1 0x0 ADD SSTORE PUSH1 0x20 DUP3 ADD MLOAD DUP2 PUSH1 0x1 ADD SSTORE POP POP PUSH1 0x20 DUP3 ADD MLOAD DUP2 PUSH1 0x2 ADD PUSH1 0x0 DUP3 ADD MLOAD DUP2 PUSH1 0x0 ADD SSTORE PUSH1 0x20 DUP3 ADD MLOAD DUP2 PUSH1 0x1 ADD SSTORE POP POP PUSH1 0x40 DUP3 ADD MLOAD DUP2 PUSH1 0x4 ADD SSTORE PUSH1 0x60 DUP3 ADD MLOAD DUP2 PUSH1 0x5 ADD PUSH1 0x0 DUP3 ADD MLOAD DUP2 PUSH1 0x0 ADD SSTORE PUSH1 0x20 DUP3 ADD MLOAD DUP2 PUSH1 0x1 ADD SSTORE POP POP PUSH1 0x80 DUP3 ADD MLOAD DUP2 PUSH1 0x7 ADD SSTORE PUSH1 0xA0 DUP3 ADD MLOAD DUP2 PUSH1 0x8 ADD SSTORE SWAP1 POP POP PUSH1 0x40 MLOAD DUP1 PUSH1 0xC0 ADD PUSH1 0x40 MSTORE DUP1 PUSH1 0x40 MLOAD DUP1 PUSH1 0x40 ADD PUSH1 0x40 MSTORE DUP1 PUSH1 0xC DUP2 MSTORE PUSH1 0x20 ADD PUSH1 0xF DUP2 MSTORE POP DUP2 MSTORE PUSH1 0x20 ADD PUSH1 0x40 MLOAD DUP1 PUSH1 0x40 ADD PUSH1 0x40 MSTORE DUP1 PUSH1 0xC DUP2 MSTORE PUSH1 0x20 ADD PUSH1 0xF DUP2 MSTORE POP DUP2 MSTORE PUSH1 0x20 ADD PUSH1 0x5 DUP2 MSTORE PUSH1 0x20 ADD PUSH1 0x40 MLOAD DUP1 PUSH1 0x40 ADD PUSH1 0x40 MSTORE DUP1 PUSH1 0xC DUP2 MSTORE PUSH1 0x20 ADD PUSH1 0xF DUP2 MSTORE POP DUP2 MSTORE PUSH1 0x20 ADD PUSH1 0x5 DUP2 MSTORE PUSH1 0x20 ADD PUSH1 0x5 DUP2 MSTORE POP PUSH1 0xFB PUSH1 0x0 PUSH1 0x4 DUP2 MSTORE PUSH1 0x20 ADD SWAP1 DUP2 MSTORE PUSH1 0x20 ADD PUSH1 0x0 KECCAK256 PUSH1 0x0 DUP3 ADD MLOAD DUP2 PUSH1 0x0 ADD PUSH1 0x0 DUP3 ADD MLOAD DUP2 PUSH1 0x0 ADD SSTORE PUSH1 0x20 DUP3 ADD MLOAD DUP2 PUSH1 0x1 ADD SSTORE POP POP PUSH1 0x20 DUP3 ADD MLOAD DUP2 PUSH1 0x2 ADD PUSH1 0x0 DUP3 ADD MLOAD DUP2 PUSH1 0x0 ADD SSTORE PUSH1 0x20 DUP3 ADD MLOAD DUP2 PUSH1 0x1 ADD SSTORE POP POP PUSH1 0x40 DUP3 ADD MLOAD DUP2 PUSH1 0x4 ADD SSTORE PUSH1 0x60 DUP3 ADD MLOAD DUP2 PUSH1 0x5 ADD PUSH1 0x0 DUP3 ADD MLOAD DUP2 PUSH1 0x0 ADD SSTORE PUSH1 0x20 DUP3 ADD MLOAD DUP2 PUSH1 0x1 ADD SSTORE POP POP PUSH1 0x80 DUP3 ADD MLOAD DUP2 PUSH1 0x7 ADD SSTORE PUSH1 0xA0 DUP3 ADD MLOAD DUP2 PUSH1 0x8 ADD SSTORE SWAP1 POP POP PUSH1 0x40 MLOAD DUP1 PUSH1 0xC0 ADD PUSH1 0x40 MSTORE DUP1 PUSH1 0x40 MLOAD DUP1 PUSH1 0x40 ADD PUSH1 0x40 MSTORE DUP1 PUSH1 0xF DUP2 MSTORE PUSH1 0x20 ADD PUSH1 0x12 DUP2 MSTORE POP DUP2 MSTORE PUSH1 0x20 ADD PUSH1 0x40 MLOAD DUP1 PUSH1 0x40 ADD PUSH1 0x40 MSTORE DUP1 PUSH1 0xF DUP2 MSTORE PUSH1 0x20 ADD PUSH1 0x12 DUP2 MSTORE POP DUP2 MSTORE PUSH1 0x20 ADD PUSH1 0x6 DUP2 MSTORE PUSH1 0x20 ADD PUSH1 0x40 MLOAD DUP1 PUSH1 0x40 ADD PUSH1 0x40 MSTORE DUP1 PUSH1 0xF DUP2 MSTORE PUSH1 0x20 ADD PUSH1 0x12 DUP2 MSTORE POP DUP2 MSTORE PUSH1 0x20 ADD PUSH1 0x6 DUP2 MSTORE PUSH1 0x20 ADD PUSH1 0x6 DUP2 MSTORE POP PUSH1 0xFB PUSH1 0x0 PUSH1 0x5 DUP2 MSTORE PUSH1 0x20 ADD SWAP1 DUP2 MSTORE PUSH1 0x20 ADD PUSH1 0x0 KECCAK256 PUSH1 0x0 DUP3 ADD MLOAD DUP2 PUSH1 0x0 ADD PUSH1 0x0 DUP3 ADD MLOAD DUP2 PUSH1 0x0 ADD SSTORE PUSH1 0x20 DUP3 ADD MLOAD DUP2 PUSH1 0x1 ADD SSTORE POP POP PUSH1 0x20 DUP3 ADD MLOAD DUP2 PUSH1 0x2 ADD PUSH1 0x0 DUP3 ADD MLOAD DUP2 PUSH1 0x0 ADD SSTORE PUSH1 0x20 DUP3 ADD MLOAD DUP2 PUSH1 0x1 ADD SSTORE POP POP PUSH1 0x40 DUP3 ADD MLOAD DUP2 PUSH1 0x4 ADD SSTORE PUSH1 0x60 DUP3 ADD MLOAD DUP2 PUSH1 0x5 ADD PUSH1 0x0 DUP3 ADD MLOAD DUP2 PUSH1 0x0 ADD SSTORE PUSH1 0x20 DUP3 ADD MLOAD DUP2 PUSH1 0x1 ADD SSTORE POP POP PUSH1 0x80 DUP3 ADD MLOAD DUP2 PUSH1 0x7 ADD SSTORE PUSH1 0xA0 DUP3 ADD MLOAD DUP2 PUSH1 0x8 ADD SSTORE SWAP1 POP POP PUSH1 0x40 MLOAD DUP1 PUSH1 0xE0 ADD PUSH1 0x40 MSTORE DUP1 PUSH1 0x1 PUSH1 0xFF AND DUP2 MSTORE PUSH1 0x20 ADD PUSH1 0x2 PUSH1 0xFF AND DUP2 MSTORE PUSH1 0x20 ADD PUSH1 0x3 PUSH1 0xFF AND DUP2 MSTORE PUSH1 0x20 ADD PUSH1 0x4 PUSH1 0xFF AND DUP2 MSTORE PUSH1 0x20 ADD PUSH1 0x5 PUSH1 0xFF AND DUP2 MSTORE PUSH1 0x20 ADD PUSH1 0x6 PUSH1 0xFF AND DUP2 MSTORE PUSH1 0x20 ADD PUSH1 0x7 PUSH1 0xFF AND DUP2 MSTORE POP PUSH1 0xFC SWAP1 PUSH1 0x7 PUSH2 0x1B64 SWAP3 SWAP2 SWAP1 PUSH2 0x414E JUMP JUMPDEST POP PUSH1 0x40 DUP1 MLOAD PUSH1 0xE0 DUP2 ADD DUP3 MSTORE PUSH1 0x1 DUP1 DUP3 MSTORE PUSH1 0x2 PUSH1 0x20 DUP4 ADD DUP2 SWAP1 MSTORE SWAP3 DUP3 ADD DUP2 SWAP1 MSTORE PUSH1 0x60 DUP3 ADD DUP2 SWAP1 MSTORE PUSH1 0x80 DUP3 ADD MSTORE PUSH1 0xA0 DUP2 ADD DUP3 SWAP1 MSTORE PUSH1 0xC0 DUP2 ADD SWAP2 SWAP1 SWAP2 MSTORE PUSH2 0x1BAD SWAP1 PUSH2 0x102 SWAP1 PUSH1 0x7 PUSH2 0x414E JUMP JUMPDEST POP PUSH2 0x1F4 PUSH1 0xFD SSTORE PUSH1 0x40 DUP1 MLOAD PUSH1 0xC0 DUP2 ADD DUP3 MSTORE PUSH2 0x205F DUP2 MSTORE PUSH2 0x40C PUSH1 0x20 DUP3 ADD MSTORE PUSH2 0x206 SWAP2 DUP2 ADD SWAP2 SWAP1 SWAP2 MSTORE PUSH1 0x68 PUSH1 0x60 DUP3 ADD MSTORE PUSH1 0x34 PUSH1 0x80 DUP3 ADD MSTORE PUSH1 0x4 PUSH1 0xA0 DUP3 ADD MSTORE PUSH2 0x1BF8 SWAP1 PUSH1 0xFE SWAP1 PUSH1 0x6 PUSH2 0x418E JUMP JUMPDEST POP PUSH8 0x8AC7230489E80000 PUSH1 0xFF SSTORE PUSH8 0x4563918244F40000 PUSH2 0x107 SSTORE PUSH1 0x5 PUSH2 0x100 SSTORE PUSH1 0x40 DUP1 MLOAD PUSH1 0x80 DUP2 ADD DUP3 MSTORE PUSH8 0xDE0B6B3A7640000 DUP2 MSTORE PUSH8 0x1BC16D674EC80000 PUSH1 0x20 DUP3 ADD MSTORE PUSH8 0x3782DACE9D900000 SWAP2 DUP2 ADD SWAP2 SWAP1 SWAP2 MSTORE PUSH8 0x6124FEE993BC0000 PUSH1 0x60 DUP3 ADD MSTORE PUSH2 0x101 DUP1 SLOAD PUSH1 0x1 DUP2 ADD DUP3 SSTORE PUSH1 0x0 SWAP2 SWAP1 SWAP2 MSTORE PUSH2 0x1C9A SWAP2 PUSH32 0x109EA3CEBB188B9C1B9FC5BB3920BE60DFDC8699098DFF92F3D80DAACA747689 SWAP1 SWAP2 ADD SWAP1 PUSH1 0x4 PUSH2 0x41CF JUMP JUMPDEST POP PUSH1 0x40 DUP1 MLOAD PUSH1 0x80 DUP2 ADD DUP3 MSTORE PUSH8 0x1BC16D674EC80000 DUP2 MSTORE PUSH8 0x3782DACE9D900000 PUSH1 0x20 DUP3 ADD MSTORE PUSH8 0x4563918244F40000 SWAP2 DUP2 ADD SWAP2 SWAP1 SWAP2 MSTORE PUSH8 0x7CE66C50E2840000 PUSH1 0x60 DUP3 ADD MSTORE PUSH2 0x101 DUP1 SLOAD PUSH1 0x1 DUP2 ADD DUP3 SSTORE PUSH1 0x0 SWAP2 SWAP1 SWAP2 MSTORE PUSH2 0x1D1D SWAP2 PUSH32 0x109EA3CEBB188B9C1B9FC5BB3920BE60DFDC8699098DFF92F3D80DAACA747689 SWAP1 SWAP2 ADD SWAP1 PUSH1 0x4 PUSH2 0x41CF JUMP JUMPDEST POP PUSH1 0x40 DUP1 MLOAD PUSH1 0x80 DUP2 ADD DUP3 MSTORE PUSH8 0x1BC16D674EC80000 DUP2 MSTORE PUSH8 0x3782DACE9D900000 PUSH1 0x20 DUP3 ADD MSTORE PUSH8 0x4563918244F40000 SWAP2 DUP2 ADD SWAP2 SWAP1 SWAP2 MSTORE PUSH8 0x8AC7230489E80000 PUSH1 0x60 DUP3 ADD MSTORE PUSH2 0x101 DUP1 SLOAD PUSH1 0x1 DUP2 ADD DUP3 SSTORE PUSH1 0x0 SWAP2 SWAP1 SWAP2 MSTORE PUSH2 0x1DA0 SWAP2 PUSH32 0x109EA3CEBB188B9C1B9FC5BB3920BE60DFDC8699098DFF92F3D80DAACA747689 SWAP1 SWAP2 ADD SWAP1 PUSH1 0x4 PUSH2 0x41CF JUMP JUMPDEST POP PUSH1 0x40 DUP1 MLOAD PUSH1 0x80 DUP2 ADD DUP3 MSTORE PUSH8 0x29A2241AF62C0000 DUP2 MSTORE PUSH8 0x6124FEE993BC0000 PUSH1 0x20 DUP3 ADD MSTORE PUSH8 0x98A7D9B8314C0000 SWAP2 DUP2 ADD SWAP2 SWAP1 SWAP2 MSTORE PUSH9 0x1314FB37062980000 PUSH1 0x60 DUP3 ADD MSTORE PUSH2 0x101 DUP1 SLOAD PUSH1 0x1 DUP2 ADD DUP3 SSTORE PUSH1 0x0 SWAP2 SWAP1 SWAP2 MSTORE PUSH2 0x1E24 SWAP2 PUSH32 0x109EA3CEBB188B9C1B9FC5BB3920BE60DFDC8699098DFF92F3D80DAACA747689 SWAP1 SWAP2 ADD SWAP1 PUSH1 0x4 PUSH2 0x4216 JUMP JUMPDEST POP PUSH1 0x40 DUP1 MLOAD PUSH1 0x80 DUP2 ADD DUP3 MSTORE PUSH8 0x6124FEE993BC0000 DUP2 MSTORE PUSH8 0xF9CCD8A1C5080000 PUSH1 0x20 DUP3 ADD MSTORE PUSH9 0x22B1C8C1227A00000 SWAP2 DUP2 ADD SWAP2 SWAP1 SWAP2 MSTORE PUSH9 0x7EA28327577080000 PUSH1 0x60 DUP3 ADD MSTORE PUSH2 0x101 DUP1 SLOAD PUSH1 0x1 DUP2 ADD DUP3 SSTORE PUSH1 0x0 SWAP2 SWAP1 SWAP2 MSTORE PUSH2 0x1EA9 SWAP2 PUSH32 0x109EA3CEBB188B9C1B9FC5BB3920BE60DFDC8699098DFF92F3D80DAACA747689 SWAP1 SWAP2 ADD SWAP1 PUSH1 0x4 PUSH2 0x4216 JUMP JUMPDEST POP PUSH1 0x40 DUP1 MLOAD PUSH1 0x80 DUP2 ADD DUP3 MSTORE PUSH8 0x7CE66C50E2840000 DUP2 MSTORE PUSH9 0x15AF1D78B58C40000 PUSH1 0x20 DUP3 ADD MSTORE PUSH9 0x30927F74C9DE00000 SWAP2 DUP2 ADD SWAP2 SWAP1 SWAP2 MSTORE PUSH9 0xAC9AE05A71EBC0000 PUSH1 0x60 DUP3 ADD MSTORE PUSH2 0x101 DUP1 SLOAD PUSH1 0x1 DUP2 ADD DUP3 SSTORE PUSH1 0x0 SWAP2 SWAP1 SWAP2 MSTORE PUSH2 0x1F2F SWAP2 PUSH32 0x109EA3CEBB188B9C1B9FC5BB3920BE60DFDC8699098DFF92F3D80DAACA747689 SWAP1 SWAP2 ADD SWAP1 PUSH1 0x4 PUSH2 0x4216 JUMP JUMPDEST POP PUSH2 0x103 PUSH1 0x40 MLOAD DUP1 PUSH1 0x60 ADD PUSH1 0x40 MSTORE DUP1 PUSH8 0x1BC16D674EC80000 DUP2 MSTORE PUSH1 0x20 ADD PUSH8 0x1BC16D674EC80000 DUP2 MSTORE PUSH1 0x20 ADD PUSH1 0x0 DUP2 MSTORE POP SWAP1 DUP1 PUSH1 0x1 DUP2 SLOAD ADD DUP1 DUP3 SSTORE DUP1 SWAP2 POP POP PUSH1 0x1 SWAP1 SUB SWAP1 PUSH1 0x0 MSTORE PUSH1 0x20 PUSH1 0x0 KECCAK256 SWAP1 PUSH1 0x3 MUL ADD PUSH1 0x0 SWAP1 SWAP2 SWAP1 SWAP2 SWAP1 SWAP2 POP PUSH1 0x0 DUP3 ADD MLOAD DUP2 PUSH1 0x0 ADD SSTORE PUSH1 0x20 DUP3 ADD MLOAD DUP2 PUSH1 0x1 ADD SSTORE PUSH1 0x40 DUP3 ADD MLOAD DUP2 PUSH1 0x2 ADD SSTORE POP POP PUSH2 0x103 PUSH1 0x40 MLOAD DUP1 PUSH1 0x60 ADD PUSH1 0x40 MSTORE DUP1 PUSH8 0x4563918244F40000 DUP2 MSTORE PUSH1 0x20 ADD PUSH8 0x8AC7230489E80000 DUP2 MSTORE PUSH1 0x20 ADD PUSH8 0xDE0B6B3A7640000 DUP2 MSTORE POP SWAP1 DUP1 PUSH1 0x1 DUP2 SLOAD ADD DUP1 DUP3 SSTORE DUP1 SWAP2 POP POP PUSH1 0x1 SWAP1 SUB SWAP1 PUSH1 0x0 MSTORE PUSH1 0x20 PUSH1 0x0 KECCAK256 SWAP1 PUSH1 0x3 MUL ADD PUSH1 0x0 SWAP1 SWAP2 SWAP1 SWAP2 SWAP1 SWAP2 POP PUSH1 0x0 DUP3 ADD MLOAD DUP2 PUSH1 0x0 ADD SSTORE PUSH1 0x20 DUP3 ADD MLOAD DUP2 PUSH1 0x1 ADD SSTORE PUSH1 0x40 DUP3 ADD MLOAD DUP2 PUSH1 0x2 ADD SSTORE POP POP PUSH2 0x103 PUSH1 0x40 MLOAD DUP1 PUSH1 0x60 ADD PUSH1 0x40 MSTORE DUP1 PUSH8 0x8AC7230489E80000 DUP2 MSTORE PUSH1 0x20 ADD PUSH9 0x1158E460913D00000 DUP2 MSTORE PUSH1 0x20 ADD PUSH8 0x1BC16D674EC80000 DUP2 MSTORE POP SWAP1 DUP1 PUSH1 0x1 DUP2 SLOAD ADD DUP1 DUP3 SSTORE DUP1 SWAP2 POP POP PUSH1 0x1 SWAP1 SUB SWAP1 PUSH1 0x0 MSTORE PUSH1 0x20 PUSH1 0x0 KECCAK256 SWAP1 PUSH1 0x3 MUL ADD PUSH1 0x0 SWAP1 SWAP2 SWAP1 SWAP2 SWAP1 SWAP2 POP PUSH1 0x0 DUP3 ADD MLOAD DUP2 PUSH1 0x0 ADD SSTORE PUSH1 0x20 DUP3 ADD MLOAD DUP2 PUSH1 0x1 ADD SSTORE PUSH1 0x40 DUP3 ADD MLOAD DUP2 PUSH1 0x2 ADD SSTORE POP POP PUSH2 0x103 PUSH1 0x40 MLOAD DUP1 PUSH1 0x60 ADD PUSH1 0x40 MSTORE DUP1 PUSH9 0x1158E460913D00000 DUP2 MSTORE PUSH1 0x20 ADD PUSH9 0x22B1C8C1227A00000 DUP2 MSTORE PUSH1 0x20 ADD PUSH8 0x3782DACE9D900000 DUP2 MSTORE POP SWAP1 DUP1 PUSH1 0x1 DUP2 SLOAD ADD DUP1 DUP3 SSTORE DUP1 SWAP2 POP POP PUSH1 0x1 SWAP1 SUB SWAP1 PUSH1 0x0 MSTORE PUSH1 0x20 PUSH1 0x0 KECCAK256 SWAP1 PUSH1 0x3 MUL ADD PUSH1 0x0 SWAP1 SWAP2 SWAP1 SWAP2 SWAP1 SWAP2 POP PUSH1 0x0 DUP3 ADD MLOAD DUP2 PUSH1 0x0 ADD SSTORE PUSH1 0x20 DUP3 ADD MLOAD DUP2 PUSH1 0x1 ADD SSTORE PUSH1 0x40 DUP3 ADD MLOAD DUP2 PUSH1 0x2 ADD SSTORE POP POP PUSH2 0x103 PUSH1 0x40 MLOAD DUP1 PUSH1 0x60 ADD PUSH1 0x40 MSTORE DUP1 PUSH9 0x1E5B8FA8FE2AC0000 DUP2 MSTORE PUSH1 0x20 ADD PUSH9 0x340AAD21B3B700000 DUP2 MSTORE PUSH1 0x20 ADD PUSH8 0x4563918244F40000 DUP2 MSTORE POP SWAP1 DUP1 PUSH1 0x1 DUP2 SLOAD ADD DUP1 DUP3 SSTORE DUP1 SWAP2 POP POP PUSH1 0x1 SWAP1 SUB SWAP1 PUSH1 0x0 MSTORE PUSH1 0x20 PUSH1 0x0 KECCAK256 SWAP1 PUSH1 0x3 MUL ADD PUSH1 0x0 SWAP1 SWAP2 SWAP1 SWAP2 SWAP1 SWAP2 POP PUSH1 0x0 DUP3 ADD MLOAD DUP2 PUSH1 0x0 ADD SSTORE PUSH1 0x20 DUP3 ADD MLOAD DUP2 PUSH1 0x1 ADD SSTORE PUSH1 0x40 DUP3 ADD MLOAD DUP2 PUSH1 0x2 ADD SSTORE POP POP PUSH2 0x103 PUSH1 0x40 MLOAD DUP1 PUSH1 0x60 ADD PUSH1 0x40 MSTORE DUP1 PUSH9 0x2B5E3AF16B1880000 DUP2 MSTORE PUSH1 0x20 ADD PUSH9 0x4563918244F400000 DUP2 MSTORE PUSH1 0x20 ADD PUSH8 0x53444835EC580000 DUP2 MSTORE POP SWAP1 DUP1 PUSH1 0x1 DUP2 SLOAD ADD DUP1 DUP3 SSTORE DUP1 SWAP2 POP POP PUSH1 0x1 SWAP1 SUB SWAP1 PUSH1 0x0 MSTORE PUSH1 0x20 PUSH1 0x0 KECCAK256 SWAP1 PUSH1 0x3 MUL ADD PUSH1 0x0 SWAP1 SWAP2 SWAP1 SWAP2 SWAP1 SWAP2 POP PUSH1 0x0 DUP3 ADD MLOAD DUP2 PUSH1 0x0 ADD SSTORE PUSH1 0x20 DUP3 ADD MLOAD DUP2 PUSH1 0x1 ADD SSTORE PUSH1 0x40 DUP3 ADD MLOAD DUP2 PUSH1 0x2 ADD SSTORE POP POP PUSH1 0xA PUSH2 0x104 DUP2 SWAP1 SSTORE POP PUSH1 0x40 MLOAD DUP1 PUSH1 0xC0 ADD PUSH1 0x40 MSTORE DUP1 PUSH2 0x20E8 PUSH2 0xFFFF AND DUP2 MSTORE PUSH1 0x20 ADD PUSH2 0x40C PUSH2 0xFFFF AND DUP2 MSTORE PUSH1 0x20 ADD PUSH2 0x1A2 PUSH2 0xFFFF AND DUP2 MSTORE PUSH1 0x20 ADD PUSH1 0x33 PUSH2 0xFFFF AND DUP2 MSTORE PUSH1 0x20 ADD PUSH1 0x15 PUSH2 0xFFFF AND DUP2 MSTORE PUSH1 0x20 ADD PUSH1 0x32 PUSH2 0xFFFF AND DUP2 MSTORE POP PUSH2 0x105 SWAP1 PUSH1 0x6 PUSH2 0x2292 SWAP3 SWAP2 SWAP1 PUSH2 0x418E JUMP JUMPDEST POP PUSH9 0x2B5E3AF16B1880000 PUSH2 0x106 SSTORE PUSH9 0x270801D946C940000 PUSH2 0x108 SSTORE PUSH8 0x8AC7230489E80000 PUSH2 0x109 SSTORE PUSH1 0x40 DUP1 MLOAD PUSH1 0xC0 DUP2 ADD DUP3 MSTORE PUSH2 0x205F DUP2 MSTORE PUSH2 0x40C PUSH1 0x20 DUP3 ADD MSTORE PUSH2 0x206 SWAP2 DUP2 ADD SWAP2 SWAP1 SWAP2 MSTORE PUSH1 0x68 PUSH1 0x60 DUP3 ADD MSTORE PUSH1 0x34 PUSH1 0x80 DUP3 ADD MSTORE PUSH1 0x4 PUSH1 0xA0 DUP3 ADD MSTORE PUSH2 0x2301 SWAP1 PUSH2 0x10A SWAP1 PUSH1 0x6 PUSH2 0x418E JUMP JUMPDEST POP PUSH1 0x40 DUP1 MLOAD PUSH1 0xC0 DUP2 ADD DUP3 MSTORE PUSH1 0x0 DUP1 DUP3 MSTORE PUSH1 0x20 DUP3 ADD DUP2 SWAP1 MSTORE SWAP2 DUP2 ADD DUP3 SWAP1 MSTORE PUSH1 0x60 DUP2 ADD DUP3 SWAP1 MSTORE PUSH1 0x80 DUP2 ADD DUP3 SWAP1 MSTORE PUSH1 0xA0 DUP2 ADD SWAP2 SWAP1 SWAP2 MSTORE PUSH2 0x2343 SWAP1 PUSH2 0x10B SWAP1 PUSH1 0x6 PUSH2 0x414E JUMP JUMPDEST POP PUSH1 0x40 DUP1 MLOAD PUSH1 0xC0 DUP2 ADD DUP3 MSTORE PUSH1 0x1 DUP2 MSTORE PUSH1 0x2 PUSH1 0x20 DUP3 ADD MSTORE PUSH1 0x4 SWAP2 DUP2 ADD SWAP2 SWAP1 SWAP2 MSTORE PUSH1 0x6 PUSH1 0x60 DUP3 ADD DUP2 SWAP1 MSTORE PUSH1 0x8 PUSH1 0x80 DUP4 ADD MSTORE PUSH1 0xA PUSH1 0xA0 DUP4 ADD MSTORE PUSH2 0x2386 SWAP2 PUSH2 0x10C SWAP2 PUSH2 0x414E JUMP JUMPDEST POP PUSH1 0x40 DUP1 MLOAD PUSH1 0xC0 DUP2 ADD DUP3 MSTORE PUSH1 0x1 DUP2 MSTORE PUSH1 0x2 PUSH1 0x20 DUP3 ADD MSTORE PUSH1 0x4 SWAP2 DUP2 ADD SWAP2 SWAP1 SWAP2 MSTORE PUSH1 0x6 PUSH1 0x60 DUP3 ADD DUP2 SWAP1 MSTORE PUSH1 0x8 PUSH1 0x80 DUP4 ADD MSTORE PUSH1 0xA PUSH1 0xA0 DUP4 ADD MSTORE PUSH2 0x23C9 SWAP2 PUSH2 0x10D SWAP2 PUSH2 0x414E JUMP JUMPDEST POP PUSH1 0x40 DUP1 MLOAD PUSH1 0xC0 DUP2 ADD DUP3 MSTORE PUSH1 0x1 DUP2 MSTORE PUSH1 0x2 PUSH1 0x20 DUP3 ADD MSTORE PUSH1 0x4 SWAP2 DUP2 ADD SWAP2 SWAP1 SWAP2 MSTORE PUSH1 0x6 PUSH1 0x60 DUP3 ADD DUP2 SWAP1 MSTORE PUSH1 0x8 PUSH1 0x80 DUP4 ADD MSTORE PUSH1 0xA PUSH1 0xA0 DUP4 ADD MSTORE PUSH2 0x240C SWAP2 PUSH2 0x10E SWAP2 PUSH2 0x414E JUMP JUMPDEST POP PUSH1 0x40 DUP1 MLOAD PUSH2 0x1A0 DUP2 ADD DUP3 MSTORE PUSH1 0x1 DUP2 MSTORE PUSH1 0x2 PUSH1 0x20 DUP3 ADD MSTORE PUSH1 0x3 SWAP2 DUP2 ADD SWAP2 SWAP1 SWAP2 MSTORE PUSH1 0x4 PUSH1 0x60 DUP3 ADD MSTORE PUSH1 0x5 PUSH1 0x80 DUP3 ADD MSTORE PUSH1 0x6 PUSH1 0xA0 DUP3 ADD MSTORE PUSH1 0x7 PUSH1 0xC0 DUP3 ADD MSTORE PUSH1 0x8 PUSH1 0xE0 DUP3 ADD MSTORE PUSH1 0x9 PUSH2 0x100 DUP3 ADD MSTORE PUSH1 0xA PUSH2 0x120 DUP3 ADD MSTORE PUSH1 0xE PUSH2 0x140 DUP3 ADD MSTORE PUSH1 0xF PUSH2 0x160 DUP3 ADD MSTORE PUSH1 0x10 PUSH2 0x180 DUP3 ADD MSTORE PUSH2 0x2486 SWAP1 PUSH2 0x111 SWAP1 PUSH1 0xD PUSH2 0x414E JUMP JUMPDEST POP DUP1 ISZERO PUSH2 0xFD6 JUMPI PUSH1 0x0 DUP1 SLOAD PUSH2 0xFF00 NOT AND SWAP1 SSTORE PUSH1 0x40 MLOAD PUSH1 0x1 DUP2 MSTORE PUSH32 0x7F26B83FF96E1F2B6A682F133852F6798A09C465DA95921460CEFB3847402498 SWAP1 PUSH1 0x20 ADD PUSH1 0x40 MLOAD DUP1 SWAP2 SUB SWAP1 LOG1 POP JUMP JUMPDEST PUSH32 0x22C69AB406805E70D07FB1A6502AF760601D3B977BEADB295A9D76D5852E16A3 PUSH2 0x24F9 DUP2 PUSH2 0x2FD0 JUMP JUMPDEST POP PUSH1 0xFF SSTORE JUMP JUMPDEST PUSH32 0x22C69AB406805E70D07FB1A6502AF760601D3B977BEADB295A9D76D5852E16A3 PUSH2 0x2529 DUP2 PUSH2 0x2FD0 JUMP JUMPDEST DUP2 MLOAD PUSH2 0xCE3 SWAP1 PUSH2 0x111 SWAP1 PUSH1 0x20 DUP6 ADD SWAP1 PUSH2 0x4103 JUMP JUMPDEST PUSH1 0xFE SLOAD PUSH1 0x60 SWAP1 PUSH1 0x0 DUP2 PUSH8 0xFFFFFFFFFFFFFFFF DUP2 GT ISZERO PUSH2 0x255E JUMPI PUSH2 0x255E PUSH2 0x4559 JUMP JUMPDEST PUSH1 0x40 MLOAD SWAP1 DUP1 DUP3 MSTORE DUP1 PUSH1 0x20 MUL PUSH1 0x20 ADD DUP3 ADD PUSH1 0x40 MSTORE DUP1 ISZERO PUSH2 0x2597 JUMPI DUP2 PUSH1 0x20 ADD JUMPDEST PUSH2 0x2584 PUSH2 0x425E JUMP JUMPDEST DUP2 MSTORE PUSH1 0x20 ADD SWAP1 PUSH1 0x1 SWAP1 SUB SWAP1 DUP2 PUSH2 0x257C JUMPI SWAP1 POP JUMPDEST POP SWAP1 POP PUSH1 0x0 JUMPDEST DUP3 DUP2 LT ISZERO PUSH2 0x2658 JUMPI PUSH1 0x0 DUP2 DUP2 MSTORE PUSH1 0xFB PUSH1 0x20 SWAP1 DUP2 MSTORE PUSH1 0x40 SWAP2 DUP3 SWAP1 KECCAK256 DUP3 MLOAD PUSH2 0x100 DUP2 ADD DUP5 MSTORE DUP2 SLOAD PUSH1 0xC0 DUP3 ADD SWAP1 DUP2 MSTORE PUSH1 0x1 DUP4 ADD SLOAD PUSH1 0xE0 DUP4 ADD MSTORE DUP2 MSTORE DUP4 MLOAD DUP1 DUP6 ADD DUP6 MSTORE PUSH1 0x2 DUP4 ADD SLOAD DUP2 MSTORE PUSH1 0x3 DUP4 ADD SLOAD DUP2 DUP6 ADD MSTORE DUP2 DUP5 ADD MSTORE PUSH1 0x4 DUP3 ADD SLOAD DUP2 DUP6 ADD MSTORE DUP4 MLOAD DUP1 DUP6 ADD SWAP1 SWAP5 MSTORE PUSH1 0x5 DUP3 ADD SLOAD DUP5 MSTORE PUSH1 0x6 DUP3 ADD SLOAD SWAP3 DUP5 ADD SWAP3 SWAP1 SWAP3 MSTORE PUSH1 0x60 DUP3 ADD SWAP3 SWAP1 SWAP3 MSTORE PUSH1 0x7 DUP3 ADD SLOAD PUSH1 0x80 DUP3 ADD MSTORE PUSH1 0x8 SWAP1 SWAP2 ADD SLOAD PUSH1 0xA0 DUP3 ADD MSTORE DUP3 MLOAD DUP4 SWAP1 DUP4 SWAP1 DUP2 LT PUSH2 0x2645 JUMPI PUSH2 0x2645 PUSH2 0x4AC0 JUMP JUMPDEST PUSH1 0x20 SWAP1 DUP2 MUL SWAP2 SWAP1 SWAP2 ADD ADD MSTORE PUSH1 0x1 ADD PUSH2 0x259D JUMP JUMPDEST POP SWAP3 SWAP2 POP POP JUMP JUMPDEST PUSH1 0x60 PUSH2 0x103 DUP1 SLOAD DUP1 PUSH1 0x20 MUL PUSH1 0x20 ADD PUSH1 0x40 MLOAD SWAP1 DUP2 ADD PUSH1 0x40 MSTORE DUP1 SWAP3 SWAP2 SWAP1 DUP2 DUP2 MSTORE PUSH1 0x20 ADD PUSH1 0x0 SWAP1 JUMPDEST DUP3 DUP3 LT ISZERO PUSH2 0x9D0 JUMPI DUP4 DUP3 SWAP1 PUSH1 0x0 MSTORE PUSH1 0x20 PUSH1 0x0 KECCAK256 SWAP1 PUSH1 0x3 MUL ADD PUSH1 0x40 MLOAD DUP1 PUSH1 0x60 ADD PUSH1 0x40 MSTORE SWAP1 DUP2 PUSH1 0x0 DUP3 ADD SLOAD DUP2 MSTORE PUSH1 0x20 ADD PUSH1 0x1 DUP3 ADD SLOAD DUP2 MSTORE PUSH1 0x20 ADD PUSH1 0x2 DUP3 ADD SLOAD DUP2 MSTORE POP POP DUP2 MSTORE PUSH1 0x20 ADD SWAP1 PUSH1 0x1 ADD SWAP1 PUSH2 0x2684 JUMP JUMPDEST PUSH1 0x0 DUP1 PUSH1 0x0 PUSH2 0x26E2 DUP5 PUSH2 0x3352 JUMP JUMPDEST SWAP1 POP PUSH2 0x26F2 DUP6 DUP3 PUSH1 0x40 ADD MLOAD PUSH2 0x360F JUMP JUMPDEST PUSH2 0x180 DUP4 ADD MSTORE SWAP5 POP DUP5 SWAP3 POP PUSH2 0x2706 DUP2 PUSH2 0x36C3 JUMP JUMPDEST SWAP2 POP POP SWAP3 POP SWAP3 SWAP1 POP JUMP JUMPDEST PUSH32 0x22C69AB406805E70D07FB1A6502AF760601D3B977BEADB295A9D76D5852E16A3 PUSH2 0x273A DUP2 PUSH2 0x2FD0 JUMP JUMPDEST PUSH2 0x103 SLOAD DUP6 LT ISZERO PUSH2 0x2781 JUMPI PUSH1 0x0 PUSH2 0x103 DUP7 DUP2 SLOAD DUP2 LT PUSH2 0x275B JUMPI PUSH2 0x275B PUSH2 0x4AC0 JUMP JUMPDEST PUSH1 0x0 SWAP2 DUP3 MSTORE PUSH1 0x20 SWAP1 SWAP2 KECCAK256 PUSH1 0x3 SWAP1 SWAP2 MUL ADD DUP6 DUP2 SSTORE PUSH1 0x1 DUP2 ADD DUP6 SWAP1 SSTORE PUSH1 0x2 ADD DUP4 SWAP1 SSTORE POP PUSH2 0x2878 JUMP JUMPDEST PUSH2 0x103 SLOAD DUP6 EQ PUSH2 0x27D3 JUMPI PUSH1 0x40 MLOAD PUSH3 0x461BCD PUSH1 0xE5 SHL DUP2 MSTORE PUSH1 0x20 PUSH1 0x4 DUP3 ADD MSTORE PUSH1 0xE PUSH1 0x24 DUP3 ADD MSTORE PUSH32 0x496E76616C696420726172697479000000000000000000000000000000000000 PUSH1 0x44 DUP3 ADD MSTORE PUSH1 0x64 ADD PUSH2 0xB21 JUMP JUMPDEST PUSH1 0x40 DUP1 MLOAD PUSH1 0x60 DUP2 ADD DUP3 MSTORE DUP6 DUP2 MSTORE PUSH1 0x20 DUP2 ADD DUP6 DUP2 MSTORE SWAP2 DUP2 ADD DUP5 DUP2 MSTORE PUSH2 0x103 DUP1 SLOAD PUSH1 0x1 DUP2 ADD DUP3 SSTORE PUSH1 0x0 SWAP2 SWAP1 SWAP2 MSTORE SWAP2 MLOAD PUSH32 0x2C297AB74AAD0AEDE3A1895C857B1F2C71E6A203FEB727BEC95AC752998CB78 PUSH1 0x3 SWAP1 SWAP4 MUL SWAP3 DUP4 ADD SSTORE SWAP2 MLOAD PUSH32 0x2C297AB74AAD0AEDE3A1895C857B1F2C71E6A203FEB727BEC95AC752998CB79 DUP3 ADD SSTORE SWAP1 MLOAD PUSH32 0x2C297AB74AAD0AEDE3A1895C857B1F2C71E6A203FEB727BEC95AC752998CB7A SWAP1 SWAP2 ADD SSTORE JUMPDEST POP POP POP POP POP JUMP JUMPDEST PUSH32 0x22C69AB406805E70D07FB1A6502AF760601D3B977BEADB295A9D76D5852E16A3 PUSH2 0x28A9 DUP2 PUSH2 0x2FD0 JUMP JUMPDEST DUP2 MLOAD PUSH2 0xCE3 SWAP1 PUSH2 0x10A SWAP1 PUSH1 0x20 DUP6 ADD SWAP1 PUSH2 0x4103 JUMP JUMPDEST PUSH32 0x22C69AB406805E70D07FB1A6502AF760601D3B977BEADB295A9D76D5852E16A3 PUSH2 0x28E7 DUP2 PUSH2 0x2FD0 JUMP JUMPDEST POP PUSH1 0xFD SSTORE JUMP JUMPDEST PUSH32 0x22C69AB406805E70D07FB1A6502AF760601D3B977BEADB295A9D76D5852E16A3 PUSH2 0x2917 DUP2 PUSH2 0x2FD0 JUMP JUMPDEST POP PUSH1 0x0 SWAP2 DUP3 MSTORE PUSH1 0xFB PUSH1 0x20 SWAP1 DUP2 MSTORE PUSH1 0x40 SWAP3 DUP4 SWAP1 KECCAK256 DUP3 MLOAD DUP1 MLOAD DUP3 SSTORE DUP3 ADD MLOAD PUSH1 0x1 DUP3 ADD SSTORE DUP2 DUP4 ADD MLOAD DUP1 MLOAD PUSH1 0x2 DUP4 ADD SSTORE DUP3 ADD MLOAD PUSH1 0x3 DUP3 ADD SSTORE SWAP3 DUP3 ADD MLOAD PUSH1 0x4 DUP5 ADD SSTORE PUSH1 0x60 DUP3 ADD MLOAD DUP1 MLOAD PUSH1 0x5 DUP6 ADD SSTORE ADD MLOAD PUSH1 0x6 DUP4 ADD SSTORE PUSH1 0x80 DUP2 ADD MLOAD PUSH1 0x7 DUP4 ADD SSTORE PUSH1 0xA0 ADD MLOAD PUSH1 0x8 SWAP1 SWAP2 ADD SSTORE JUMP JUMPDEST PUSH1 0x0 DUP3 DUP2 MSTORE PUSH1 0x65 PUSH1 0x20 MSTORE PUSH1 0x40 SWAP1 KECCAK256 PUSH1 0x1 ADD SLOAD PUSH2 0x2998 DUP2 PUSH2 0x2FD0 JUMP JUMPDEST PUSH2 0xCE3 DUP4 DUP4 PUSH2 0x307C JUMP JUMPDEST PUSH32 0x22C69AB406805E70D07FB1A6502AF760601D3B977BEADB295A9D76D5852E16A3 PUSH2 0x29CC DUP2 PUSH2 0x2FD0 JUMP JUMPDEST DUP2 PUSH2 0x10B DUP5 PUSH1 0x6 DUP2 LT PUSH2 0x29E1 JUMPI PUSH2 0x29E1 PUSH2 0x4AC0 JUMP JUMPDEST PUSH2 0x29EF SWAP3 SWAP2 ADD SWAP1 PUSH1 0x6 PUSH2 0x4103 JUMP JUMPDEST POP POP POP POP JUMP JUMPDEST PUSH32 0x22C69AB406805E70D07FB1A6502AF760601D3B977BEADB295A9D76D5852E16A3 PUSH2 0x2A1F DUP2 PUSH2 0x2FD0 JUMP JUMPDEST POP PUSH2 0x109 SSTORE JUMP JUMPDEST PUSH32 0x22C69AB406805E70D07FB1A6502AF760601D3B977BEADB295A9D76D5852E16A3 PUSH2 0x2A50 DUP2 PUSH2 0x2FD0 JUMP JUMPDEST DUP2 MLOAD PUSH2 0xCE3 SWAP1 PUSH2 0x101 SWAP1 PUSH1 0x20 DUP6 ADD SWAP1 PUSH2 0x42DC JUMP JUMPDEST PUSH32 0x22C69AB406805E70D07FB1A6502AF760601D3B977BEADB295A9D76D5852E16A3 PUSH2 0x2A8E DUP2 PUSH2 0x2FD0 JUMP JUMPDEST POP PUSH2 0x107 SSTORE JUMP JUMPDEST PUSH32 0x22C69AB406805E70D07FB1A6502AF760601D3B977BEADB295A9D76D5852E16A3 PUSH2 0x2ABF DUP2 PUSH2 0x2FD0 JUMP JUMPDEST DUP2 MLOAD PUSH2 0xCE3 SWAP1 PUSH2 0x102 SWAP1 PUSH1 0x20 DUP6 ADD SWAP1 PUSH2 0x4103 JUMP JUMPDEST PUSH32 0x22C69AB406805E70D07FB1A6502AF760601D3B977BEADB295A9D76D5852E16A3 PUSH2 0x2AFD DUP2 PUSH2 0x2FD0 JUMP JUMPDEST POP PUSH2 0x106 SSTORE JUMP JUMPDEST PUSH1 0x60 PUSH1 0xFE DUP1 SLOAD DUP1 PUSH1 0x20 MUL PUSH1 0x20 ADD PUSH1 0x40 MLOAD SWAP1 DUP2 ADD PUSH1 0x40 MSTORE DUP1 SWAP3 SWAP2 SWAP1 DUP2 DUP2 MSTORE PUSH1 0x20 ADD DUP3 DUP1 SLOAD DUP1 ISZERO PUSH2 0xD37 JUMPI PUSH1 0x20 MUL DUP3 ADD SWAP2 SWAP1 PUSH1 0x0 MSTORE PUSH1 0x20 PUSH1 0x0 KECCAK256 SWAP1 DUP2 SLOAD DUP2 MSTORE PUSH1 0x20 ADD SWAP1 PUSH1 0x1 ADD SWAP1 DUP1 DUP4 GT PUSH2 0xD23 JUMPI POP POP POP POP POP SWAP1 POP SWAP1 JUMP JUMPDEST PUSH1 0x0 PUSH32 0xFFFFFFFF00000000000000000000000000000000000000000000000000000000 DUP3 AND PUSH32 0x7965DB0B00000000000000000000000000000000000000000000000000000000 EQ DUP1 PUSH2 0x9E4 JUMPI POP PUSH32 0x1FFC9A700000000000000000000000000000000000000000000000000000000 PUSH32 0xFFFFFFFF00000000000000000000000000000000000000000000000000000000 DUP4 AND EQ PUSH2 0x9E4 JUMP JUMPDEST PUSH1 0x0 DUP1 PUSH2 0x2C82 PUSH1 0x40 MLOAD DUP1 PUSH2 0x240 ADD PUSH1 0x40 MSTORE DUP1 PUSH1 0x0 DUP2 MSTORE PUSH1 0x20 ADD PUSH1 0x0 DUP2 MSTORE PUSH1 0x20 ADD PUSH1 0x0 DUP2 MSTORE PUSH1 0x20 ADD PUSH1 0x0 DUP2 MSTORE PUSH1 0x20 ADD PUSH1 0x0 DUP2 MSTORE PUSH1 0x20 ADD PUSH1 0x0 DUP2 MSTORE PUSH1 0x20 ADD PUSH1 0x0 DUP2 MSTORE PUSH1 0x20 ADD PUSH1 0x0 DUP2 MSTORE PUSH1 0x20 ADD PUSH1 0x0 DUP2 MSTORE PUSH1 0x20 ADD PUSH1 0x0 DUP2 MSTORE PUSH1 0x20 ADD PUSH1 0x0 DUP2 MSTORE PUSH1 0x20 ADD PUSH1 0x0 DUP2 MSTORE PUSH1 0x20 ADD PUSH1 0x60 DUP2 MSTORE PUSH1 0x20 ADD PUSH1 0x0 DUP2 MSTORE PUSH1 0x20 ADD PUSH1 0x0 DUP2 MSTORE PUSH1 0x20 ADD PUSH1 0x60 DUP2 MSTORE PUSH1 0x20 ADD PUSH1 0x0 DUP2 MSTORE PUSH1 0x20 ADD PUSH1 0x0 DUP2 MSTORE POP SWAP1 JUMP JUMPDEST DUP7 DUP2 MSTORE DUP8 PUSH1 0x1F PUSH1 0x1E DUP8 SWAP1 SHR DUP2 AND SWAP1 PUSH1 0x1 PUSH1 0x23 DUP10 SWAP1 SHR DUP2 AND DUP2 EQ SWAP2 PUSH1 0x87 DUP11 SWAP1 SHR AND SWAP1 PUSH1 0x3 DUP5 EQ SWAP1 DUP5 EQ DUP4 ISZERO PUSH2 0x2CF9 JUMPI PUSH1 0x40 DUP1 MLOAD PUSH1 0x1 DUP1 DUP3 MSTORE DUP2 DUP4 ADD SWAP1 SWAP3 MSTORE PUSH1 0x0 SWAP2 PUSH1 0x20 DUP1 DUP4 ADD SWAP1 DUP1 CALLDATASIZE DUP4 CALLDATACOPY ADD SWAP1 POP POP SWAP1 POP PUSH1 0x1 DUP2 PUSH1 0x0 DUP2 MLOAD DUP2 LT PUSH2 0x2CE7 JUMPI PUSH2 0x2CE7 PUSH2 0x4AC0 JUMP JUMPDEST PUSH1 0x20 SWAP1 DUP2 MUL SWAP2 SWAP1 SWAP2 ADD ADD MSTORE PUSH2 0x1E0 DUP9 ADD MSTORE JUMPDEST DUP12 PUSH2 0x2DCD JUMPI PUSH2 0x2DC1 DUP7 DUP3 PUSH2 0x2D6C JUMPI PUSH1 0x0 DUP13 MLOAD GT PUSH2 0x2D66 JUMPI PUSH1 0xFE DUP1 SLOAD DUP1 PUSH1 0x20 MUL PUSH1 0x20 ADD PUSH1 0x40 MLOAD SWAP1 DUP2 ADD PUSH1 0x40 MSTORE DUP1 SWAP3 SWAP2 SWAP1 DUP2 DUP2 MSTORE PUSH1 0x20 ADD DUP3 DUP1 SLOAD DUP1 ISZERO PUSH2 0x2D5C JUMPI PUSH1 0x20 MUL DUP3 ADD SWAP2 SWAP1 PUSH1 0x0 MSTORE PUSH1 0x20 PUSH1 0x0 KECCAK256 SWAP1 JUMPDEST DUP2 SLOAD DUP2 MSTORE PUSH1 0x20 ADD SWAP1 PUSH1 0x1 ADD SWAP1 DUP1 DUP4 GT PUSH2 0x2D48 JUMPI JUMPDEST POP POP POP POP POP PUSH2 0x388C JUMP JUMPDEST DUP12 PUSH2 0x388C JUMP JUMPDEST PUSH2 0x105 DUP1 SLOAD DUP1 PUSH1 0x20 MUL PUSH1 0x20 ADD PUSH1 0x40 MLOAD SWAP1 DUP2 ADD PUSH1 0x40 MSTORE DUP1 SWAP3 SWAP2 SWAP1 DUP2 DUP2 MSTORE PUSH1 0x20 ADD DUP3 DUP1 SLOAD DUP1 ISZERO PUSH2 0x2D5C JUMPI PUSH1 0x20 MUL DUP3 ADD SWAP2 SWAP1 PUSH1 0x0 MSTORE PUSH1 0x20 PUSH1 0x0 KECCAK256 SWAP1 DUP2 SLOAD DUP2 MSTORE PUSH1 0x20 ADD SWAP1 PUSH1 0x1 ADD SWAP1 DUP1 DUP4 GT PUSH2 0x2D48 JUMPI POP POP POP POP POP PUSH2 0x388C JUMP JUMPDEST PUSH1 0x40 DUP10 ADD MSTORE SWAP6 POP PUSH2 0x2DDE JUMP JUMPDEST PUSH2 0x2DD8 PUSH1 0x1 DUP14 PUSH2 0x4AD6 JUMP JUMPDEST PUSH1 0x40 DUP9 ADD MSTORE JUMPDEST DUP2 ISZERO PUSH2 0x2E60 JUMPI PUSH1 0x0 DUP1 PUSH1 0x0 JUMPDEST DUP13 MLOAD DUP2 LT ISZERO PUSH2 0x2E3C JUMPI DUP13 DUP2 DUP2 MLOAD DUP2 LT PUSH2 0x2E05 JUMPI PUSH2 0x2E05 PUSH2 0x4AC0 JUMP JUMPDEST PUSH1 0x20 MUL PUSH1 0x20 ADD ADD MLOAD DUP3 LT ISZERO PUSH2 0x2E34 JUMPI DUP13 DUP2 DUP2 MLOAD DUP2 LT PUSH2 0x2E26 JUMPI PUSH2 0x2E26 PUSH2 0x4AC0 JUMP JUMPDEST PUSH1 0x20 MUL PUSH1 0x20 ADD ADD MLOAD SWAP2 POP DUP1 SWAP3 POP JUMPDEST PUSH1 0x1 ADD PUSH2 0x2DEA JUMP JUMPDEST POP DUP9 PUSH1 0x40 ADD MLOAD DUP3 EQ PUSH2 0x2E5D JUMPI DUP8 PUSH1 0x0 SWAP11 POP SWAP11 POP POP POP POP POP POP POP POP POP POP PUSH2 0x2FAE JUMP JUMPDEST POP POP JUMPDEST PUSH1 0x1 PUSH1 0x60 DUP9 ADD DUP2 SWAP1 MSTORE PUSH1 0x40 DUP1 DUP10 ADD MLOAD PUSH1 0x0 SWAP1 DUP2 MSTORE PUSH1 0xFB PUSH1 0x20 MSTORE KECCAK256 PUSH1 0x4 DUP2 ADD SLOAD PUSH2 0x120 DUP11 ADD MSTORE PUSH1 0x7 DUP2 ADD SLOAD PUSH2 0x160 DUP11 ADD MSTORE SWAP1 PUSH2 0x2E9E SWAP1 DUP9 SWAP1 PUSH1 0x5 PUSH2 0x3995 JUMP JUMPDEST PUSH1 0x80 DUP11 ADD MSTORE SWAP7 POP DUP4 PUSH2 0x2F04 JUMPI PUSH2 0x111 SLOAD PUSH1 0x0 SWAP1 DUP2 SWAP1 PUSH2 0x2EBF SWAP1 PUSH1 0x1 SWAP1 PUSH2 0x4AD6 JUMP JUMPDEST SWAP1 POP DUP9 PUSH2 0x2ECE DUP2 PUSH1 0x0 DUP5 PUSH2 0x3995 JUMP JUMPDEST DUP1 SWAP5 POP DUP2 SWAP12 POP POP POP PUSH2 0x111 DUP4 DUP2 SLOAD DUP2 LT PUSH2 0x2EEA JUMPI PUSH2 0x2EEA PUSH2 0x4AC0 JUMP JUMPDEST PUSH1 0x0 SWAP2 DUP3 MSTORE PUSH1 0x20 SWAP1 SWAP2 KECCAK256 ADD SLOAD PUSH1 0xA0 DUP13 ADD MSTORE POP PUSH2 0x2F0C SWAP2 POP POP JUMP JUMPDEST PUSH1 0xA0 DUP9 ADD DUP5 SWAP1 MSTORE JUMPDEST DUP1 SLOAD PUSH1 0x1 DUP3 ADD SLOAD PUSH2 0x2F1E SWAP2 DUP10 SWAP2 PUSH2 0x3995 JUMP JUMPDEST PUSH1 0xC0 DUP11 ADD MSTORE PUSH1 0x2 DUP3 ADD SLOAD PUSH1 0x3 DUP4 ADD SLOAD SWAP2 SWAP9 POP PUSH2 0x2F3C SWAP2 DUP10 SWAP2 SWAP1 PUSH2 0x3995 JUMP JUMPDEST PUSH1 0xE0 DUP11 ADD MSTORE SWAP7 POP PUSH2 0x2F50 DUP8 PUSH1 0x1 PUSH1 0x14 PUSH2 0x3995 JUMP JUMPDEST PUSH2 0x100 DUP11 ADD MSTORE PUSH1 0x5 DUP3 ADD SLOAD PUSH1 0x6 DUP4 ADD SLOAD SWAP2 SWAP9 POP PUSH2 0x2F6F SWAP2 DUP10 SWAP2 SWAP1 PUSH2 0x3995 JUMP JUMPDEST PUSH2 0x140 DUP11 ADD MSTORE PUSH1 0x40 DUP10 ADD MLOAD SWAP1 SWAP8 POP PUSH2 0x2F88 SWAP1 DUP9 SWAP1 PUSH2 0x360F JUMP JUMPDEST PUSH2 0x180 DUP11 ADD MSTORE NUMBER PUSH2 0x1A0 DUP11 ADD MSTORE SWAP10 POP DUP10 SWAP7 POP PUSH2 0x2FA3 DUP9 PUSH2 0x36C3 JUMP JUMPDEST SWAP9 POP POP POP POP POP POP POP POP POP JUMPDEST SWAP6 POP SWAP6 SWAP4 POP POP POP POP JUMP JUMPDEST PUSH1 0x0 DUP2 DUP4 LT PUSH2 0x2FC7 JUMPI DUP2 PUSH2 0x2FC9 JUMP JUMPDEST DUP3 JUMPDEST SWAP4 SWAP3 POP POP POP JUMP JUMPDEST PUSH2 0xFD6 DUP2 CALLER PUSH2 0x39B9 JUMP JUMPDEST PUSH1 0x0 DUP3 DUP2 MSTORE PUSH1 0x65 PUSH1 0x20 SWAP1 DUP2 MSTORE PUSH1 0x40 DUP1 DUP4 KECCAK256 PUSH1 0x1 PUSH1 0x1 PUSH1 0xA0 SHL SUB DUP6 AND DUP5 MSTORE SWAP1 SWAP2 MSTORE SWAP1 KECCAK256 SLOAD PUSH1 0xFF AND PUSH2 0xE38 JUMPI PUSH1 0x0 DUP3 DUP2 MSTORE PUSH1 0x65 PUSH1 0x20 SWAP1 DUP2 MSTORE PUSH1 0x40 DUP1 DUP4 KECCAK256 PUSH1 0x1 PUSH1 0x1 PUSH1 0xA0 SHL SUB DUP6 AND DUP5 MSTORE SWAP1 SWAP2 MSTORE SWAP1 KECCAK256 DUP1 SLOAD PUSH1 0xFF NOT AND PUSH1 0x1 OR SWAP1 SSTORE PUSH2 0x3038 CALLER SWAP1 JUMP JUMPDEST PUSH1 0x1 PUSH1 0x1 PUSH1 0xA0 SHL SUB AND DUP2 PUSH1 0x1 PUSH1 0x1 PUSH1 0xA0 SHL SUB AND DUP4 PUSH32 0x2F8788117E7EFF1D82E926EC794901D17C78024A50270940304540A733656F0D PUSH1 0x40 MLOAD PUSH1 0x40 MLOAD DUP1 SWAP2 SUB SWAP1 LOG4 POP POP JUMP JUMPDEST PUSH1 0x0 DUP3 DUP2 MSTORE PUSH1 0x65 PUSH1 0x20 SWAP1 DUP2 MSTORE PUSH1 0x40 DUP1 DUP4 KECCAK256 PUSH1 0x1 PUSH1 0x1 PUSH1 0xA0 SHL SUB DUP6 AND DUP5 MSTORE SWAP1 SWAP2 MSTORE SWAP1 KECCAK256 SLOAD PUSH1 0xFF AND ISZERO PUSH2 0xE38 JUMPI PUSH1 0x0 DUP3 DUP2 MSTORE PUSH1 0x65 PUSH1 0x20 SWAP1 DUP2 MSTORE PUSH1 0x40 DUP1 DUP4 KECCAK256 PUSH1 0x1 PUSH1 0x1 PUSH1 0xA0 SHL SUB DUP6 AND DUP1 DUP6 MSTORE SWAP3 MSTORE DUP1 DUP4 KECCAK256 DUP1 SLOAD PUSH1 0xFF NOT AND SWAP1 SSTORE MLOAD CALLER SWAP3 DUP6 SWAP2 PUSH32 0xF6391F5C32D9C69D2A47EA670B442974B53935D1EDC7FD64EB21E047A839171B SWAP2 SWAP1 LOG4 POP POP JUMP JUMPDEST PUSH32 0x189AB7A9244DF0848122154315AF71FE140F3DB0FE014031783B0946B8C9D2E3 PUSH2 0xE38 DUP2 PUSH2 0x2FD0 JUMP JUMPDEST PUSH32 0x4910FDFA16FED3260ED0E7147F7CC6DA11A60208B5B9406D12A635614FFD9143 SLOAD PUSH1 0xFF AND ISZERO PUSH2 0x315C JUMPI PUSH2 0xCE3 DUP4 PUSH2 0x3A2E JUMP JUMPDEST DUP3 PUSH1 0x1 PUSH1 0x1 PUSH1 0xA0 SHL SUB AND PUSH4 0x52D1902D PUSH1 0x40 MLOAD DUP2 PUSH4 0xFFFFFFFF AND PUSH1 0xE0 SHL DUP2 MSTORE PUSH1 0x4 ADD PUSH1 0x20 PUSH1 0x40 MLOAD DUP1 DUP4 SUB DUP2 DUP7 GAS STATICCALL SWAP3 POP POP POP DUP1 ISZERO PUSH2 0x31B6 JUMPI POP PUSH1 0x40 DUP1 MLOAD PUSH1 0x1F RETURNDATASIZE SWAP1 DUP2 ADD PUSH1 0x1F NOT AND DUP3 ADD SWAP1 SWAP3 MSTORE PUSH2 0x31B3 SWAP2 DUP2 ADD SWAP1 PUSH2 0x4AE9 JUMP JUMPDEST PUSH1 0x1 JUMPDEST PUSH2 0x3228 JUMPI PUSH1 0x40 MLOAD PUSH3 0x461BCD PUSH1 0xE5 SHL DUP2 MSTORE PUSH1 0x20 PUSH1 0x4 DUP3 ADD MSTORE PUSH1 0x2E PUSH1 0x24 DUP3 ADD MSTORE PUSH32 0x45524331393637557067726164653A206E657720696D706C656D656E74617469 PUSH1 0x44 DUP3 ADD MSTORE PUSH32 0x6F6E206973206E6F742055555053000000000000000000000000000000000000 PUSH1 0x64 DUP3 ADD MSTORE PUSH1 0x84 ADD PUSH2 0xB21 JUMP JUMPDEST PUSH32 0x360894A13BA1A3210667C828492DB98DCA3E2076CC3735A920A3CA505D382BBC DUP2 EQ PUSH2 0x32BD JUMPI PUSH1 0x40 MLOAD PUSH3 0x461BCD PUSH1 0xE5 SHL DUP2 MSTORE PUSH1 0x20 PUSH1 0x4 DUP3 ADD MSTORE PUSH1 0x29 PUSH1 0x24 DUP3 ADD MSTORE PUSH32 0x45524331393637557067726164653A20756E737570706F727465642070726F78 PUSH1 0x44 DUP3 ADD MSTORE PUSH32 0x6961626C65555549440000000000000000000000000000000000000000000000 PUSH1 0x64 DUP3 ADD MSTORE PUSH1 0x84 ADD PUSH2 0xB21 JUMP JUMPDEST POP PUSH2 0xCE3 DUP4 DUP4 DUP4 PUSH2 0x3B04 JUMP JUMPDEST PUSH1 0x0 SLOAD PUSH2 0x100 SWAP1 DIV PUSH1 0xFF AND PUSH2 0x3346 JUMPI PUSH1 0x40 MLOAD PUSH3 0x461BCD PUSH1 0xE5 SHL DUP2 MSTORE PUSH1 0x20 PUSH1 0x4 DUP3 ADD MSTORE PUSH1 0x2B PUSH1 0x24 DUP3 ADD MSTORE PUSH32 0x496E697469616C697A61626C653A20636F6E7472616374206973206E6F742069 PUSH1 0x44 DUP3 ADD MSTORE PUSH32 0x6E697469616C697A696E67000000000000000000000000000000000000000000 PUSH1 0x64 DUP3 ADD MSTORE PUSH1 0x84 ADD PUSH2 0xB21 JUMP JUMPDEST JUMP JUMPDEST PUSH2 0xE38 DUP3 DUP3 PUSH2 0x2FDA JUMP JUMPDEST PUSH2 0x33E0 PUSH1 0x40 MLOAD DUP1 PUSH2 0x240 ADD PUSH1 0x40 MSTORE DUP1 PUSH1 0x0 DUP2 MSTORE PUSH1 0x20 ADD PUSH1 0x0 DUP2 MSTORE PUSH1 0x20 ADD PUSH1 0x0 DUP2 MSTORE PUSH1 0x20 ADD PUSH1 0x0 DUP2 MSTORE PUSH1 0x20 ADD PUSH1 0x0 DUP2 MSTORE PUSH1 0x20 ADD PUSH1 0x0 DUP2 MSTORE PUSH1 0x20 ADD PUSH1 0x0 DUP2 MSTORE PUSH1 0x20 ADD PUSH1 0x0 DUP2 MSTORE PUSH1 0x20 ADD PUSH1 0x0 DUP2 MSTORE PUSH1 0x20 ADD PUSH1 0x0 DUP2 MSTORE PUSH1 0x20 ADD PUSH1 0x0 DUP2 MSTORE PUSH1 0x20 ADD PUSH1 0x0 DUP2 MSTORE PUSH1 0x20 ADD PUSH1 0x60 DUP2 MSTORE PUSH1 0x20 ADD PUSH1 0x0 DUP2 MSTORE PUSH1 0x20 ADD PUSH1 0x0 DUP2 MSTORE PUSH1 0x20 ADD PUSH1 0x60 DUP2 MSTORE PUSH1 0x20 ADD PUSH1 0x0 DUP2 MSTORE PUSH1 0x20 ADD PUSH1 0x0 DUP2 MSTORE POP SWAP1 JUMP JUMPDEST PUSH4 0x3FFFFFFF DUP3 AND DUP2 MSTORE PUSH1 0x1E DUP3 SWAP1 SHR PUSH2 0x3FF AND PUSH1 0x20 DUP3 ADD MSTORE PUSH1 0x28 DUP3 SWAP1 SHR PUSH1 0x1F AND PUSH1 0x40 DUP3 ADD MSTORE PUSH1 0x2D DUP3 SWAP1 SHR PUSH1 0x1F AND PUSH1 0x60 DUP3 ADD MSTORE PUSH1 0x1F PUSH1 0x32 DUP4 SWAP1 SHR DUP2 DUP2 AND PUSH1 0x80 DUP5 ADD MSTORE PUSH2 0x3E0 AND PUSH1 0xF5 DUP5 SWAP1 SHR DUP3 AND SWAP1 DUP2 OR PUSH1 0xA0 DUP5 ADD MSTORE PUSH1 0x3C DUP5 SWAP1 SHR DUP3 AND PUSH1 0xC0 DUP5 ADD MSTORE PUSH1 0x41 DUP5 SWAP1 SHR DUP3 AND PUSH1 0xE0 DUP5 ADD MSTORE PUSH1 0x46 DUP5 SWAP1 SHR DUP3 AND PUSH2 0x100 DUP5 ADD MSTORE PUSH1 0x4B DUP5 SWAP1 SHR DUP3 AND PUSH2 0x120 DUP5 ADD MSTORE PUSH1 0x50 DUP5 SWAP1 SHR DUP3 AND PUSH2 0x140 DUP5 ADD MSTORE PUSH1 0x55 DUP5 SWAP1 SHR DUP3 AND PUSH2 0x160 DUP5 ADD MSTORE PUSH1 0x37 DUP5 SWAP1 SHR DUP3 AND SWAP2 PUSH1 0x5A DUP6 SWAP1 SHR AND DUP1 PUSH8 0xFFFFFFFFFFFFFFFF DUP2 GT ISZERO PUSH2 0x34A6 JUMPI PUSH2 0x34A6 PUSH2 0x4559 JUMP JUMPDEST PUSH1 0x40 MLOAD SWAP1 DUP1 DUP3 MSTORE DUP1 PUSH1 0x20 MUL PUSH1 0x20 ADD DUP3 ADD PUSH1 0x40 MSTORE DUP1 ISZERO PUSH2 0x34CF JUMPI DUP2 PUSH1 0x20 ADD PUSH1 0x20 DUP3 MUL DUP1 CALLDATASIZE DUP4 CALLDATACOPY ADD SWAP1 POP JUMPDEST POP PUSH2 0x180 DUP6 ADD MSTORE PUSH1 0x0 JUMPDEST DUP2 DUP2 LT ISZERO PUSH2 0x3527 JUMPI PUSH2 0x34EC DUP2 PUSH1 0x5 PUSH2 0x4A96 JUMP JUMPDEST PUSH2 0x34F7 SWAP1 PUSH1 0x5F PUSH2 0x4AAD JUMP JUMPDEST DUP7 SWAP1 SHR PUSH1 0x1F AND DUP6 PUSH2 0x180 ADD MLOAD DUP3 DUP2 MLOAD DUP2 LT PUSH2 0x3514 JUMPI PUSH2 0x3514 PUSH2 0x4AC0 JUMP JUMPDEST PUSH1 0x20 SWAP1 DUP2 MUL SWAP2 SWAP1 SWAP2 ADD ADD MSTORE PUSH1 0x1 ADD PUSH2 0x34D9 JUMP JUMPDEST POP PUSH1 0x91 DUP6 SWAP1 SHR PUSH4 0x3FFFFFFF AND PUSH2 0x1A0 DUP6 ADD MSTORE PUSH1 0xAF DUP6 SWAP1 SHR PUSH1 0x1F AND PUSH2 0x1C0 DUP6 ADD MSTORE PUSH1 0x1F PUSH1 0xB4 DUP7 SWAP1 SHR AND DUP1 PUSH8 0xFFFFFFFFFFFFFFFF DUP2 GT ISZERO PUSH2 0x3568 JUMPI PUSH2 0x3568 PUSH2 0x4559 JUMP JUMPDEST PUSH1 0x40 MLOAD SWAP1 DUP1 DUP3 MSTORE DUP1 PUSH1 0x20 MUL PUSH1 0x20 ADD DUP3 ADD PUSH1 0x40 MSTORE DUP1 ISZERO PUSH2 0x3591 JUMPI DUP2 PUSH1 0x20 ADD PUSH1 0x20 DUP3 MUL DUP1 CALLDATASIZE DUP4 CALLDATACOPY ADD SWAP1 POP JUMPDEST POP PUSH2 0x1E0 DUP7 ADD MSTORE PUSH1 0x0 JUMPDEST DUP2 DUP2 LT ISZERO PUSH2 0x35E9 JUMPI PUSH2 0x35AE DUP2 PUSH1 0x5 PUSH2 0x4A96 JUMP JUMPDEST PUSH2 0x35B9 SWAP1 PUSH1 0xB9 PUSH2 0x4AAD JUMP JUMPDEST DUP8 SWAP1 SHR PUSH1 0x1F AND DUP7 PUSH2 0x1E0 ADD MLOAD DUP3 DUP2 MLOAD DUP2 LT PUSH2 0x35D6 JUMPI PUSH2 0x35D6 PUSH2 0x4AC0 JUMP JUMPDEST PUSH1 0x20 SWAP1 DUP2 MUL SWAP2 SWAP1 SWAP2 ADD ADD MSTORE PUSH1 0x1 ADD PUSH2 0x359B JUMP JUMPDEST POP POP POP POP POP PUSH1 0xEB DUP3 SWAP1 SHR PUSH1 0x1F AND PUSH2 0x220 DUP3 ADD MSTORE PUSH1 0xF0 SWAP2 SWAP1 SWAP2 SHR PUSH2 0x3FF AND PUSH2 0x200 DUP3 ADD MSTORE SWAP1 JUMP JUMPDEST PUSH1 0x0 PUSH1 0x60 PUSH1 0x0 PUSH2 0x102 DUP1 SLOAD DUP1 PUSH1 0x20 MUL PUSH1 0x20 ADD PUSH1 0x40 MLOAD SWAP1 DUP2 ADD PUSH1 0x40 MSTORE DUP1 SWAP3 SWAP2 SWAP1 DUP2 DUP2 MSTORE PUSH1 0x20 ADD DUP3 DUP1 SLOAD DUP1 ISZERO PUSH2 0x3662 JUMPI PUSH1 0x20 MUL DUP3 ADD SWAP2 SWAP1 PUSH1 0x0 MSTORE PUSH1 0x20 PUSH1 0x0 KECCAK256 SWAP1 JUMPDEST DUP2 SLOAD DUP2 MSTORE PUSH1 0x20 ADD SWAP1 PUSH1 0x1 ADD SWAP1 DUP1 DUP4 GT PUSH2 0x364E JUMPI JUMPDEST POP POP POP POP POP SWAP1 POP DUP4 PUSH1 0x0 SUB PUSH2 0x3693 JUMPI PUSH1 0x0 DUP2 PUSH1 0x2 DUP2 MLOAD DUP2 LT PUSH2 0x3686 JUMPI PUSH2 0x3686 PUSH2 0x4AC0 JUMP JUMPDEST PUSH1 0x20 MUL PUSH1 0x20 ADD ADD DUP2 DUP2 MSTORE POP POP JUMPDEST PUSH1 0x0 DUP5 DUP2 MSTORE PUSH1 0xFB PUSH1 0x20 MSTORE PUSH1 0x40 SWAP1 KECCAK256 PUSH1 0x8 DUP2 ADD SLOAD PUSH2 0x36B6 SWAP1 DUP8 SWAP1 PUSH1 0xFC SWAP1 DUP6 SWAP1 PUSH2 0x3B29 JUMP JUMPDEST SWAP1 SWAP8 SWAP1 SWAP7 POP SWAP5 POP POP POP POP POP JUMP JUMPDEST PUSH1 0xA0 DUP2 ADD MLOAD PUSH1 0x0 SWAP1 DUP2 SWAP1 PUSH1 0x5 DUP2 SWAP1 SHR SWAP1 DUP3 SWAP1 PUSH1 0x1F AND SWAP1 POP DUP5 PUSH1 0x0 ADD MLOAD DUP4 OR SWAP3 POP PUSH1 0x1E DUP6 PUSH1 0x20 ADD MLOAD SWAP1 SHL DUP4 OR SWAP3 POP PUSH1 0x28 DUP6 PUSH1 0x40 ADD MLOAD SWAP1 SHL DUP4 OR SWAP3 POP PUSH1 0x2D DUP6 PUSH1 0x60 ADD MLOAD SWAP1 SHL DUP4 OR SWAP3 POP PUSH1 0x32 DUP6 PUSH1 0x80 ADD MLOAD SWAP1 SHL DUP4 OR SWAP3 POP PUSH1 0x37 DUP2 SWAP1 SHL DUP4 OR SWAP3 POP PUSH1 0x3C DUP6 PUSH1 0xC0 ADD MLOAD SWAP1 SHL DUP4 OR SWAP3 POP PUSH1 0x41 DUP6 PUSH1 0xE0 ADD MLOAD SWAP1 SHL DUP4 OR SWAP3 POP PUSH1 0x46 DUP6 PUSH2 0x100 ADD MLOAD SWAP1 SHL DUP4 OR SWAP3 POP PUSH1 0x4B DUP6 PUSH2 0x120 ADD MLOAD SWAP1 SHL DUP4 OR SWAP3 POP PUSH1 0x50 DUP6 PUSH2 0x140 ADD MLOAD SWAP1 SHL DUP4 OR SWAP3 POP PUSH1 0x55 DUP6 PUSH2 0x160 ADD MLOAD SWAP1 SHL DUP4 OR SWAP3 POP PUSH1 0x5A DUP6 PUSH2 0x180 ADD MLOAD MLOAD SWAP1 SHL DUP4 OR SWAP3 POP PUSH1 0x0 JUMPDEST DUP6 PUSH2 0x180 ADD MLOAD MLOAD DUP2 LT ISZERO PUSH2 0x37D8 JUMPI PUSH2 0x379D DUP2 PUSH1 0x5 PUSH2 0x4A96 JUMP JUMPDEST PUSH2 0x37A8 SWAP1 PUSH1 0x5F PUSH2 0x4AAD JUMP JUMPDEST DUP7 PUSH2 0x180 ADD MLOAD DUP3 DUP2 MLOAD DUP2 LT PUSH2 0x37BF JUMPI PUSH2 0x37BF PUSH2 0x4AC0 JUMP JUMPDEST PUSH1 0x20 MUL PUSH1 0x20 ADD ADD MLOAD SWAP1 SHL DUP5 OR SWAP4 POP DUP1 PUSH1 0x1 ADD SWAP1 POP PUSH2 0x3784 JUMP JUMPDEST POP PUSH1 0x91 DUP6 PUSH2 0x1A0 ADD MLOAD SWAP1 SHL DUP4 OR SWAP3 POP PUSH1 0xAF DUP6 PUSH2 0x1C0 ADD MLOAD SWAP1 SHL DUP4 OR SWAP3 POP PUSH1 0xB4 DUP6 PUSH2 0x1E0 ADD MLOAD MLOAD SWAP1 SHL DUP4 OR SWAP3 POP PUSH1 0x0 JUMPDEST DUP6 PUSH2 0x1E0 ADD MLOAD MLOAD DUP2 LT ISZERO PUSH2 0x385B JUMPI PUSH2 0x3820 DUP2 PUSH1 0x5 PUSH2 0x4A96 JUMP JUMPDEST PUSH2 0x382B SWAP1 PUSH1 0xB9 PUSH2 0x4AAD JUMP JUMPDEST DUP7 PUSH2 0x1E0 ADD MLOAD DUP3 DUP2 MLOAD DUP2 LT PUSH2 0x3842 JUMPI PUSH2 0x3842 PUSH2 0x4AC0 JUMP JUMPDEST PUSH1 0x20 MUL PUSH1 0x20 ADD ADD MLOAD SWAP1 SHL DUP5 OR SWAP4 POP DUP1 PUSH1 0x1 ADD SWAP1 POP PUSH2 0x3807 JUMP JUMPDEST POP PUSH1 0xEB DUP6 PUSH2 0x220 ADD MLOAD SWAP1 SHL DUP4 OR SWAP3 POP PUSH1 0xF0 DUP6 PUSH2 0x200 ADD MLOAD SWAP1 SHL DUP4 OR SWAP3 POP PUSH1 0xF5 DUP3 SWAP1 SHL DUP4 OR SWAP3 POP DUP3 SWAP4 POP POP POP POP SWAP2 SWAP1 POP JUMP JUMPDEST PUSH1 0x0 DUP1 PUSH1 0x0 DUP4 MLOAD GT PUSH2 0x38E0 JUMPI PUSH1 0x40 MLOAD PUSH3 0x461BCD PUSH1 0xE5 SHL DUP2 MSTORE PUSH1 0x20 PUSH1 0x4 DUP3 ADD MSTORE PUSH1 0x14 PUSH1 0x24 DUP3 ADD MSTORE PUSH32 0x4172726179206D757374206E6F7420656D707479000000000000000000000000 PUSH1 0x44 DUP3 ADD MSTORE PUSH1 0x64 ADD PUSH2 0xB21 JUMP JUMPDEST PUSH1 0x0 DUP1 JUMPDEST DUP5 MLOAD DUP2 LT ISZERO PUSH2 0x391C JUMPI DUP5 DUP2 DUP2 MLOAD DUP2 LT PUSH2 0x38FF JUMPI PUSH2 0x38FF PUSH2 0x4AC0 JUMP JUMPDEST PUSH1 0x20 MUL PUSH1 0x20 ADD ADD MLOAD DUP3 PUSH2 0x3912 SWAP2 SWAP1 PUSH2 0x4AAD JUMP JUMPDEST SWAP2 POP PUSH1 0x1 ADD PUSH2 0x38E4 JUMP JUMPDEST POP PUSH1 0x0 PUSH2 0x392B DUP7 PUSH1 0x0 DUP5 PUSH2 0x3C53 JUMP JUMPDEST SWAP1 SWAP7 POP SWAP1 POP PUSH1 0x0 DUP1 JUMPDEST DUP7 MLOAD DUP2 LT ISZERO PUSH2 0x3982 JUMPI DUP7 DUP2 DUP2 MLOAD DUP2 LT PUSH2 0x394F JUMPI PUSH2 0x394F PUSH2 0x4AC0 JUMP JUMPDEST PUSH1 0x20 MUL PUSH1 0x20 ADD ADD MLOAD DUP3 PUSH2 0x3962 SWAP2 SWAP1 PUSH2 0x4AAD JUMP JUMPDEST SWAP2 POP DUP2 DUP4 LT ISZERO PUSH2 0x397A JUMPI DUP8 SWAP6 POP SWAP4 POP PUSH2 0x398E SWAP3 POP POP POP JUMP JUMPDEST PUSH1 0x1 ADD PUSH2 0x3934 JUMP JUMPDEST POP DUP7 PUSH1 0x0 SWAP5 POP SWAP5 POP POP POP POP JUMPDEST SWAP3 POP SWAP3 SWAP1 POP JUMP JUMPDEST PUSH1 0x0 DUP1 PUSH2 0x39AD DUP6 DUP6 PUSH2 0x39A8 DUP7 PUSH1 0x1 PUSH2 0x4AAD JUMP JUMPDEST PUSH2 0x3C53 JUMP JUMPDEST SWAP2 POP SWAP2 POP SWAP4 POP SWAP4 SWAP2 POP POP JUMP JUMPDEST PUSH1 0x0 DUP3 DUP2 MSTORE PUSH1 0x65 PUSH1 0x20 SWAP1 DUP2 MSTORE PUSH1 0x40 DUP1 DUP4 KECCAK256 PUSH1 0x1 PUSH1 0x1 PUSH1 0xA0 SHL SUB DUP6 AND DUP5 MSTORE SWAP1 SWAP2 MSTORE SWAP1 KECCAK256 SLOAD PUSH1 0xFF AND PUSH2 0xE38 JUMPI PUSH2 0x39EC DUP2 PUSH2 0x3CD1 JUMP JUMPDEST PUSH2 0x39F7 DUP4 PUSH1 0x20 PUSH2 0x3CE3 JUMP JUMPDEST PUSH1 0x40 MLOAD PUSH1 0x20 ADD PUSH2 0x3A08 SWAP3 SWAP2 SWAP1 PUSH2 0x4B26 JUMP JUMPDEST PUSH1 0x40 DUP1 MLOAD PUSH1 0x1F NOT DUP2 DUP5 SUB ADD DUP2 MSTORE SWAP1 DUP3 SWAP1 MSTORE PUSH3 0x461BCD PUSH1 0xE5 SHL DUP3 MSTORE PUSH2 0xB21 SWAP2 PUSH1 0x4 ADD PUSH2 0x4BA7 JUMP JUMPDEST PUSH1 0x1 PUSH1 0x1 PUSH1 0xA0 SHL SUB DUP2 AND EXTCODESIZE PUSH2 0x3AAB JUMPI PUSH1 0x40 MLOAD PUSH3 0x461BCD PUSH1 0xE5 SHL DUP2 MSTORE PUSH1 0x20 PUSH1 0x4 DUP3 ADD MSTORE PUSH1 0x2D PUSH1 0x24 DUP3 ADD MSTORE PUSH32 0x455243313936373A206E657720696D706C656D656E746174696F6E206973206E PUSH1 0x44 DUP3 ADD MSTORE PUSH32 0x6F74206120636F6E747261637400000000000000000000000000000000000000 PUSH1 0x64 DUP3 ADD MSTORE PUSH1 0x84 ADD PUSH2 0xB21 JUMP JUMPDEST PUSH32 0x360894A13BA1A3210667C828492DB98DCA3E2076CC3735A920A3CA505D382BBC DUP1 SLOAD PUSH32 0xFFFFFFFFFFFFFFFFFFFFFFFF0000000000000000000000000000000000000000 AND PUSH1 0x1 PUSH1 0x1 PUSH1 0xA0 SHL SUB SWAP3 SWAP1 SWAP3 AND SWAP2 SWAP1 SWAP2 OR SWAP1 SSTORE JUMP JUMPDEST PUSH2 0x3B0D DUP4 PUSH2 0x3F0C JUMP JUMPDEST PUSH1 0x0 DUP3 MLOAD GT DUP1 PUSH2 0x3B1A JUMPI POP DUP1 JUMPDEST ISZERO PUSH2 0xCE3 JUMPI PUSH2 0x29EF DUP4 DUP4 PUSH2 0x3F4C JUMP JUMPDEST PUSH1 0x0 PUSH1 0x60 DUP3 DUP6 DUP1 SLOAD SWAP1 POP LT ISZERO PUSH2 0x3B81 JUMPI PUSH1 0x40 MLOAD PUSH3 0x461BCD PUSH1 0xE5 SHL DUP2 MSTORE PUSH1 0x20 PUSH1 0x4 DUP3 ADD MSTORE PUSH1 0x15 PUSH1 0x24 DUP3 ADD MSTORE PUSH32 0x496E76616C69642073616D706C696E672073697A650000000000000000000000 PUSH1 0x44 DUP3 ADD MSTORE PUSH1 0x64 ADD PUSH2 0xB21 JUMP JUMPDEST DUP3 PUSH8 0xFFFFFFFFFFFFFFFF DUP2 GT ISZERO PUSH2 0x3B9A JUMPI PUSH2 0x3B9A PUSH2 0x4559 JUMP JUMPDEST PUSH1 0x40 MLOAD SWAP1 DUP1 DUP3 MSTORE DUP1 PUSH1 0x20 MUL PUSH1 0x20 ADD DUP3 ADD PUSH1 0x40 MSTORE DUP1 ISZERO PUSH2 0x3BC3 JUMPI DUP2 PUSH1 0x20 ADD PUSH1 0x20 DUP3 MUL DUP1 CALLDATASIZE DUP4 CALLDATACOPY ADD SWAP1 POP JUMPDEST POP SWAP1 POP PUSH1 0x0 DUP1 JUMPDEST DUP5 DUP2 LT ISZERO PUSH2 0x3C46 JUMPI PUSH2 0x3BDC DUP9 DUP8 PUSH2 0x388C JUMP JUMPDEST DUP1 SWAP4 POP DUP2 SWAP10 POP POP POP PUSH1 0x0 DUP7 DUP4 DUP2 MLOAD DUP2 LT PUSH2 0x3BF8 JUMPI PUSH2 0x3BF8 PUSH2 0x4AC0 JUMP JUMPDEST PUSH1 0x20 MUL PUSH1 0x20 ADD ADD DUP2 DUP2 MSTORE POP POP DUP7 DUP3 DUP2 SLOAD DUP2 LT PUSH2 0x3C16 JUMPI PUSH2 0x3C16 PUSH2 0x4AC0 JUMP JUMPDEST SWAP1 PUSH1 0x0 MSTORE PUSH1 0x20 PUSH1 0x0 KECCAK256 ADD SLOAD DUP4 DUP3 DUP2 MLOAD DUP2 LT PUSH2 0x3C33 JUMPI PUSH2 0x3C33 PUSH2 0x4AC0 JUMP JUMPDEST PUSH1 0x20 SWAP1 DUP2 MUL SWAP2 SWAP1 SWAP2 ADD ADD MSTORE PUSH1 0x1 ADD PUSH2 0x3BCA JUMP JUMPDEST POP SWAP6 SWAP7 SWAP1 SWAP6 POP SWAP4 POP POP POP POP JUMP JUMPDEST PUSH1 0x0 DUP1 DUP3 DUP5 LT PUSH2 0x3CA5 JUMPI PUSH1 0x40 MLOAD PUSH3 0x461BCD PUSH1 0xE5 SHL DUP2 MSTORE PUSH1 0x20 PUSH1 0x4 DUP3 ADD MSTORE PUSH1 0x14 PUSH1 0x24 DUP3 ADD MSTORE PUSH32 0x496E76616C69642072616E646F6D2072616E6765000000000000000000000000 PUSH1 0x44 DUP3 ADD MSTORE PUSH1 0x64 ADD PUSH2 0xB21 JUMP JUMPDEST PUSH2 0x3CB8 DUP6 PUSH2 0x3CB3 DUP7 DUP7 PUSH2 0x4AD6 JUMP JUMPDEST PUSH2 0x3F71 JUMP JUMPDEST SWAP1 SWAP3 POP SWAP1 POP PUSH2 0x3CC7 DUP5 DUP3 PUSH2 0x4AAD JUMP JUMPDEST SWAP1 POP SWAP4 POP SWAP4 SWAP2 POP POP JUMP JUMPDEST PUSH1 0x60 PUSH2 0x9E4 PUSH1 0x1 PUSH1 0x1 PUSH1 0xA0 SHL SUB DUP4 AND PUSH1 0x14 JUMPDEST PUSH1 0x60 PUSH1 0x0 PUSH2 0x3CF2 DUP4 PUSH1 0x2 PUSH2 0x4A96 JUMP JUMPDEST PUSH2 0x3CFD SWAP1 PUSH1 0x2 PUSH2 0x4AAD JUMP JUMPDEST PUSH8 0xFFFFFFFFFFFFFFFF DUP2 GT ISZERO PUSH2 0x3D15 JUMPI PUSH2 0x3D15 PUSH2 0x4559 JUMP JUMPDEST PUSH1 0x40 MLOAD SWAP1 DUP1 DUP3 MSTORE DUP1 PUSH1 0x1F ADD PUSH1 0x1F NOT AND PUSH1 0x20 ADD DUP3 ADD PUSH1 0x40 MSTORE DUP1 ISZERO PUSH2 0x3D3F JUMPI PUSH1 0x20 DUP3 ADD DUP2 DUP1 CALLDATASIZE DUP4 CALLDATACOPY ADD SWAP1 POP JUMPDEST POP SWAP1 POP PUSH32 0x3000000000000000000000000000000000000000000000000000000000000000 DUP2 PUSH1 0x0 DUP2 MLOAD DUP2 LT PUSH2 0x3D76 JUMPI PUSH2 0x3D76 PUSH2 0x4AC0 JUMP JUMPDEST PUSH1 0x20 ADD ADD SWAP1 PUSH31 0xFFFFFFFFFFFFFFFFFFFFFFFFFFFFFFFFFFFFFFFFFFFFFFFFFFFFFFFFFFFFFF NOT AND SWAP1 DUP2 PUSH1 0x0 BYTE SWAP1 MSTORE8 POP PUSH32 0x7800000000000000000000000000000000000000000000000000000000000000 DUP2 PUSH1 0x1 DUP2 MLOAD DUP2 LT PUSH2 0x3DD9 JUMPI PUSH2 0x3DD9 PUSH2 0x4AC0 JUMP JUMPDEST PUSH1 0x20 ADD ADD SWAP1 PUSH31 0xFFFFFFFFFFFFFFFFFFFFFFFFFFFFFFFFFFFFFFFFFFFFFFFFFFFFFFFFFFFFFF NOT AND SWAP1 DUP2 PUSH1 0x0 BYTE SWAP1 MSTORE8 POP PUSH1 0x0 PUSH2 0x3E15 DUP5 PUSH1 0x2 PUSH2 0x4A96 JUMP JUMPDEST PUSH2 0x3E20 SWAP1 PUSH1 0x1 PUSH2 0x4AAD JUMP JUMPDEST SWAP1 POP JUMPDEST PUSH1 0x1 DUP2 GT ISZERO PUSH2 0x3EBD JUMPI PUSH32 0x3031323334353637383961626364656600000000000000000000000000000000 DUP6 PUSH1 0xF AND PUSH1 0x10 DUP2 LT PUSH2 0x3E61 JUMPI PUSH2 0x3E61 PUSH2 0x4AC0 JUMP JUMPDEST BYTE PUSH1 0xF8 SHL DUP3 DUP3 DUP2 MLOAD DUP2 LT PUSH2 0x3E77 JUMPI PUSH2 0x3E77 PUSH2 0x4AC0 JUMP JUMPDEST PUSH1 0x20 ADD ADD SWAP1 PUSH31 0xFFFFFFFFFFFFFFFFFFFFFFFFFFFFFFFFFFFFFFFFFFFFFFFFFFFFFFFFFFFFFF NOT AND SWAP1 DUP2 PUSH1 0x0 BYTE SWAP1 MSTORE8 POP PUSH1 0x4 SWAP5 SWAP1 SWAP5 SHR SWAP4 PUSH2 0x3EB6 DUP2 PUSH2 0x4BDA JUMP JUMPDEST SWAP1 POP PUSH2 0x3E23 JUMP JUMPDEST POP DUP4 ISZERO PUSH2 0x2FC9 JUMPI PUSH1 0x40 MLOAD PUSH3 0x461BCD PUSH1 0xE5 SHL DUP2 MSTORE PUSH1 0x20 PUSH1 0x4 DUP3 ADD DUP2 SWAP1 MSTORE PUSH1 0x24 DUP3 ADD MSTORE PUSH32 0x537472696E67733A20686578206C656E67746820696E73756666696369656E74 PUSH1 0x44 DUP3 ADD MSTORE PUSH1 0x64 ADD PUSH2 0xB21 JUMP JUMPDEST PUSH2 0x3F15 DUP2 PUSH2 0x3A2E JUMP JUMPDEST PUSH1 0x40 MLOAD PUSH1 0x1 PUSH1 0x1 PUSH1 0xA0 SHL SUB DUP3 AND SWAP1 PUSH32 0xBC7CD75A20EE27FD9ADEBAB32041F755214DBC6BFFA90CC0225B39DA2E5C2D3B SWAP1 PUSH1 0x0 SWAP1 LOG2 POP JUMP JUMPDEST PUSH1 0x60 PUSH2 0x2FC9 DUP4 DUP4 PUSH1 0x40 MLOAD DUP1 PUSH1 0x60 ADD PUSH1 0x40 MSTORE DUP1 PUSH1 0x27 DUP2 MSTORE PUSH1 0x20 ADD PUSH2 0x4C4E PUSH1 0x27 SWAP2 CODECOPY PUSH2 0x3F92 JUMP JUMPDEST PUSH1 0x0 DUP1 PUSH2 0x3F7D DUP5 PUSH2 0x400A JUMP JUMPDEST SWAP2 POP PUSH2 0x3F89 DUP4 DUP4 PUSH2 0x4C0F JUMP JUMPDEST SWAP1 POP SWAP3 POP SWAP3 SWAP1 POP JUMP JUMPDEST PUSH1 0x60 PUSH1 0x0 DUP1 DUP6 PUSH1 0x1 PUSH1 0x1 PUSH1 0xA0 SHL SUB AND DUP6 PUSH1 0x40 MLOAD PUSH2 0x3FAF SWAP2 SWAP1 PUSH2 0x4C31 JUMP JUMPDEST PUSH1 0x0 PUSH1 0x40 MLOAD DUP1 DUP4 SUB DUP2 DUP6 GAS DELEGATECALL SWAP2 POP POP RETURNDATASIZE DUP1 PUSH1 0x0 DUP2 EQ PUSH2 0x3FEA JUMPI PUSH1 0x40 MLOAD SWAP2 POP PUSH1 0x1F NOT PUSH1 0x3F RETURNDATASIZE ADD AND DUP3 ADD PUSH1 0x40 MSTORE RETURNDATASIZE DUP3 MSTORE RETURNDATASIZE PUSH1 0x0 PUSH1 0x20 DUP5 ADD RETURNDATACOPY PUSH2 0x3FEF JUMP JUMPDEST PUSH1 0x60 SWAP2 POP JUMPDEST POP SWAP2 POP SWAP2 POP PUSH2 0x4000 DUP7 DUP4 DUP4 DUP8 PUSH2 0x4058 JUMP JUMPDEST SWAP7 SWAP6 POP POP POP POP POP POP JUMP JUMPDEST PUSH1 0x0 TIMESTAMP PUSH2 0x4018 PUSH1 0x1 NUMBER PUSH2 0x4AD6 JUMP JUMPDEST PUSH1 0x40 DUP1 MLOAD PUSH1 0x20 DUP2 ADD SWAP4 SWAP1 SWAP4 MSTORE SWAP1 BLOCKHASH SWAP1 DUP3 ADD MSTORE PREVRANDAO PUSH1 0x60 DUP3 ADD MSTORE PUSH1 0x80 DUP2 ADD DUP4 SWAP1 MSTORE PUSH1 0xA0 ADD PUSH1 0x40 DUP1 MLOAD PUSH1 0x1F NOT DUP2 DUP5 SUB ADD DUP2 MSTORE SWAP2 SWAP1 MSTORE DUP1 MLOAD PUSH1 0x20 SWAP1 SWAP2 ADD KECCAK256 SWAP3 SWAP2 POP POP JUMP JUMPDEST PUSH1 0x60 DUP4 ISZERO PUSH2 0x40C7 JUMPI DUP3 MLOAD PUSH1 0x0 SUB PUSH2 0x40C0 JUMPI PUSH1 0x1 PUSH1 0x1 PUSH1 0xA0 SHL SUB DUP6 AND EXTCODESIZE PUSH2 0x40C0 JUMPI PUSH1 0x40 MLOAD PUSH3 0x461BCD PUSH1 0xE5 SHL DUP2 MSTORE PUSH1 0x20 PUSH1 0x4 DUP3 ADD MSTORE PUSH1 0x1D PUSH1 0x24 DUP3 ADD MSTORE PUSH32 0x416464726573733A2063616C6C20746F206E6F6E2D636F6E7472616374000000 PUSH1 0x44 DUP3 ADD MSTORE PUSH1 0x64 ADD PUSH2 0xB21 JUMP JUMPDEST POP DUP2 PUSH2 0x40D1 JUMP JUMPDEST PUSH2 0x40D1 DUP4 DUP4 PUSH2 0x40D9 JUMP JUMPDEST SWAP5 SWAP4 POP POP POP POP JUMP JUMPDEST DUP2 MLOAD ISZERO PUSH2 0x40E9 JUMPI DUP2 MLOAD DUP1 DUP4 PUSH1 0x20 ADD REVERT JUMPDEST DUP1 PUSH1 0x40 MLOAD PUSH3 0x461BCD PUSH1 0xE5 SHL DUP2 MSTORE PUSH1 0x4 ADD PUSH2 0xB21 SWAP2 SWAP1 PUSH2 0x4BA7 JUMP JUMPDEST DUP3 DUP1 SLOAD DUP3 DUP3 SSTORE SWAP1 PUSH1 0x0 MSTORE PUSH1 0x20 PUSH1 0x0 KECCAK256 SWAP1 DUP2 ADD SWAP3 DUP3 ISZERO PUSH2 0x413E JUMPI SWAP2 PUSH1 0x20 MUL DUP3 ADD JUMPDEST DUP3 DUP2 GT ISZERO PUSH2 0x413E JUMPI DUP3 MLOAD DUP3 SSTORE SWAP2 PUSH1 0x20 ADD SWAP2 SWAP1 PUSH1 0x1 ADD SWAP1 PUSH2 0x4123 JUMP JUMPDEST POP PUSH2 0x414A SWAP3 SWAP2 POP PUSH2 0x4335 JUMP JUMPDEST POP SWAP1 JUMP JUMPDEST DUP3 DUP1 SLOAD DUP3 DUP3 SSTORE SWAP1 PUSH1 0x0 MSTORE PUSH1 0x20 PUSH1 0x0 KECCAK256 SWAP1 DUP2 ADD SWAP3 DUP3 ISZERO PUSH2 0x413E JUMPI SWAP2 PUSH1 0x20 MUL DUP3 ADD JUMPDEST DUP3 DUP2 GT ISZERO PUSH2 0x413E JUMPI DUP3 MLOAD DUP3 SWAP1 PUSH1 0xFF AND SWAP1 SSTORE SWAP2 PUSH1 0x20 ADD SWAP2 SWAP1 PUSH1 0x1 ADD SWAP1 PUSH2 0x416E JUMP JUMPDEST DUP3 DUP1 SLOAD DUP3 DUP3 SSTORE SWAP1 PUSH1 0x0 MSTORE PUSH1 0x20 PUSH1 0x0 KECCAK256 SWAP1 DUP2 ADD SWAP3 DUP3 ISZERO PUSH2 0x413E JUMPI SWAP2 PUSH1 0x20 MUL DUP3 ADD JUMPDEST DUP3 DUP2 GT ISZERO PUSH2 0x413E JUMPI DUP3 MLOAD DUP3 SWAP1 PUSH2 0xFFFF AND SWAP1 SSTORE SWAP2 PUSH1 0x20 ADD SWAP2 SWAP1 PUSH1 0x1 ADD SWAP1 PUSH2 0x41AE JUMP JUMPDEST DUP3 DUP1 SLOAD DUP3 DUP3 SSTORE SWAP1 PUSH1 0x0 MSTORE PUSH1 0x20 PUSH1 0x0 KECCAK256 SWAP1 DUP2 ADD SWAP3 DUP3 ISZERO PUSH2 0x413E JUMPI SWAP2 PUSH1 0x20 MUL DUP3 ADD JUMPDEST DUP3 DUP2 GT ISZERO PUSH2 0x413E JUMPI DUP3 MLOAD DUP3 SWAP1 PUSH8 0xFFFFFFFFFFFFFFFF AND SWAP1 SSTORE SWAP2 PUSH1 0x20 ADD SWAP2 SWAP1 PUSH1 0x1 ADD SWAP1 PUSH2 0x41EF JUMP JUMPDEST DUP3 DUP1 SLOAD DUP3 DUP3 SSTORE SWAP1 PUSH1 0x0 MSTORE PUSH1 0x20 PUSH1 0x0 KECCAK256 SWAP1 DUP2 ADD SWAP3 DUP3 ISZERO PUSH2 0x413E JUMPI SWAP2 PUSH1 0x20 MUL DUP3 ADD JUMPDEST DUP3 DUP2 GT ISZERO PUSH2 0x413E JUMPI DUP3 MLOAD DUP3 SWAP1 PUSH9 0xFFFFFFFFFFFFFFFFFF AND SWAP1 SSTORE SWAP2 PUSH1 0x20 ADD SWAP2 SWAP1 PUSH1 0x1 ADD SWAP1 PUSH2 0x4236 JUMP JUMPDEST PUSH1 0x40 DUP1 MLOAD PUSH2 0x100 DUP2 ADD SWAP1 SWAP2 MSTORE PUSH1 0x0 PUSH1 0xC0 DUP3 ADD DUP2 DUP2 MSTORE PUSH1 0xE0 DUP4 ADD SWAP2 SWAP1 SWAP2 MSTORE DUP2 SWAP1 DUP2 MSTORE PUSH1 0x20 ADD PUSH2 0x429F PUSH1 0x40 MLOAD DUP1 PUSH1 0x40 ADD PUSH1 0x40 MSTORE DUP1 PUSH1 0x0 DUP2 MSTORE PUSH1 0x20 ADD PUSH1 0x0 DUP2 MSTORE POP SWAP1 JUMP JUMPDEST DUP2 MSTORE PUSH1 0x20 ADD PUSH1 0x0 DUP2 MSTORE PUSH1 0x20 ADD PUSH2 0x42C8 PUSH1 0x40 MLOAD DUP1 PUSH1 0x40 ADD PUSH1 0x40 MSTORE DUP1 PUSH1 0x0 DUP2 MSTORE PUSH1 0x20 ADD PUSH1 0x0 DUP2 MSTORE POP SWAP1 JUMP JUMPDEST DUP2 MSTORE PUSH1 0x20 ADD PUSH1 0x0 DUP2 MSTORE PUSH1 0x20 ADD PUSH1 0x0 DUP2 MSTORE POP SWAP1 JUMP JUMPDEST DUP3 DUP1 SLOAD DUP3 DUP3 SSTORE SWAP1 PUSH1 0x0 MSTORE PUSH1 0x20 PUSH1 0x0 KECCAK256 SWAP1 DUP2 ADD SWAP3 DUP3 ISZERO PUSH2 0x4329 JUMPI SWAP2 PUSH1 0x20 MUL DUP3 ADD JUMPDEST DUP3 DUP2 GT ISZERO PUSH2 0x4329 JUMPI DUP3 MLOAD DUP1 MLOAD PUSH2 0x4319 SWAP2 DUP5 SWAP2 PUSH1 0x20 SWAP1 SWAP2 ADD SWAP1 PUSH2 0x4103 JUMP JUMPDEST POP SWAP2 PUSH1 0x20 ADD SWAP2 SWAP1 PUSH1 0x1 ADD SWAP1 PUSH2 0x42FC JUMP JUMPDEST POP PUSH2 0x414A SWAP3 SWAP2 POP PUSH2 0x434A JUMP JUMPDEST JUMPDEST DUP1 DUP3 GT ISZERO PUSH2 0x414A JUMPI PUSH1 0x0 DUP2 SSTORE PUSH1 0x1 ADD PUSH2 0x4336 JUMP JUMPDEST DUP1 DUP3 GT ISZERO PUSH2 0x414A JUMPI PUSH1 0x0 PUSH2 0x435E DUP3 DUP3 PUSH2 0x4367 JUMP JUMPDEST POP PUSH1 0x1 ADD PUSH2 0x434A JUMP JUMPDEST POP DUP1 SLOAD PUSH1 0x0 DUP3 SSTORE SWAP1 PUSH1 0x0 MSTORE PUSH1 0x20 PUSH1 0x0 KECCAK256 SWAP1 DUP2 ADD SWAP1 PUSH2 0xFD6 SWAP2 SWAP1 PUSH2 0x4335 JUMP JUMPDEST PUSH1 0x0 PUSH1 0x20 DUP1 DUP4 ADD DUP2 DUP5 MSTORE DUP1 DUP6 MLOAD DUP1 DUP4 MSTORE PUSH1 0x40 DUP7 ADD SWAP2 POP PUSH1 0x40 DUP2 PUSH1 0x5 SHL DUP8 ADD ADD SWAP3 POP DUP4 DUP8 ADD PUSH1 0x0 DUP1 JUMPDEST DUP4 DUP2 LT ISZERO PUSH2 0x441F JUMPI DUP9 DUP7 SUB PUSH32 0xFFFFFFFFFFFFFFFFFFFFFFFFFFFFFFFFFFFFFFFFFFFFFFFFFFFFFFFFFFFFFFC0 ADD DUP6 MSTORE DUP3 MLOAD DUP1 MLOAD DUP1 DUP9 MSTORE SWAP1 DUP9 ADD SWAP1 DUP9 DUP9 ADD SWAP1 DUP5 JUMPDEST DUP2 DUP2 LT ISZERO PUSH2 0x4409 JUMPI DUP4 MLOAD DUP4 MSTORE SWAP3 DUP11 ADD SWAP3 SWAP2 DUP11 ADD SWAP2 PUSH1 0x1 ADD PUSH2 0x43ED JUMP JUMPDEST POP SWAP1 SWAP8 POP POP POP SWAP4 DUP7 ADD SWAP4 SWAP2 DUP7 ADD SWAP2 PUSH1 0x1 ADD PUSH2 0x43AD JUMP JUMPDEST POP SWAP4 SWAP9 SWAP8 POP POP POP POP POP POP POP POP JUMP JUMPDEST PUSH1 0x0 PUSH1 0x20 DUP3 DUP5 SUB SLT ISZERO PUSH2 0x443F JUMPI PUSH1 0x0 DUP1 REVERT JUMPDEST DUP2 CALLDATALOAD PUSH32 0xFFFFFFFF00000000000000000000000000000000000000000000000000000000 DUP2 AND DUP2 EQ PUSH2 0x2FC9 JUMPI PUSH1 0x0 DUP1 REVERT JUMPDEST PUSH1 0x0 DUP1 PUSH1 0x0 PUSH1 0x60 DUP5 DUP7 SUB SLT ISZERO PUSH2 0x4484 JUMPI PUSH1 0x0 DUP1 REVERT JUMPDEST POP POP DUP2 CALLDATALOAD SWAP4 PUSH1 0x20 DUP4 ADD CALLDATALOAD SWAP4 POP PUSH1 0x40 SWAP1 SWAP3 ADD CALLDATALOAD SWAP2 SWAP1 POP JUMP JUMPDEST PUSH1 0x20 DUP1 DUP3 MSTORE DUP3 MLOAD DUP3 DUP3 ADD DUP2 SWAP1 MSTORE PUSH1 0x0 SWAP2 SWAP1 DUP5 DUP3 ADD SWAP1 PUSH1 0x40 DUP6 ADD SWAP1 DUP5 JUMPDEST DUP2 DUP2 LT ISZERO PUSH2 0x44D3 JUMPI DUP4 MLOAD DUP4 MSTORE SWAP3 DUP5 ADD SWAP3 SWAP2 DUP5 ADD SWAP2 PUSH1 0x1 ADD PUSH2 0x44B7 JUMP JUMPDEST POP SWAP1 SWAP7 SWAP6 POP POP POP POP POP POP JUMP JUMPDEST PUSH1 0x0 PUSH1 0x20 DUP3 DUP5 SUB SLT ISZERO PUSH2 0x44F1 JUMPI PUSH1 0x0 DUP1 REVERT JUMPDEST POP CALLDATALOAD SWAP2 SWAP1 POP JUMP JUMPDEST PUSH1 0x0 DUP1 PUSH1 0x40 DUP4 DUP6 SUB SLT ISZERO PUSH2 0x450B JUMPI PUSH1 0x0 DUP1 REVERT JUMPDEST POP POP DUP1 CALLDATALOAD SWAP3 PUSH1 0x20 SWAP1 SWAP2 ADD CALLDATALOAD SWAP2 POP JUMP JUMPDEST DUP1 CALLDATALOAD PUSH1 0x1 PUSH1 0x1 PUSH1 0xA0 SHL SUB DUP2 AND DUP2 EQ PUSH2 0x4531 JUMPI PUSH1 0x0 DUP1 REVERT JUMPDEST SWAP2 SWAP1 POP JUMP JUMPDEST PUSH1 0x0 DUP1 PUSH1 0x40 DUP4 DUP6 SUB SLT ISZERO PUSH2 0x4549 JUMPI PUSH1 0x0 DUP1 REVERT JUMPDEST DUP3 CALLDATALOAD SWAP2 POP PUSH2 0x3F89 PUSH1 0x20 DUP5 ADD PUSH2 0x451A JUMP JUMPDEST PUSH4 0x4E487B71 PUSH1 0xE0 SHL PUSH1 0x0 MSTORE PUSH1 0x41 PUSH1 0x4 MSTORE PUSH1 0x24 PUSH1 0x0 REVERT JUMPDEST PUSH1 0x40 MLOAD PUSH1 0xC0 DUP2 ADD PUSH8 0xFFFFFFFFFFFFFFFF DUP2 GT DUP3 DUP3 LT OR ISZERO PUSH2 0x4592 JUMPI PUSH2 0x4592 PUSH2 0x4559 JUMP JUMPDEST PUSH1 0x40 MSTORE SWAP1 JUMP JUMPDEST PUSH1 0x40 MLOAD PUSH1 0x1F DUP3 ADD PUSH1 0x1F NOT AND DUP2 ADD PUSH8 0xFFFFFFFFFFFFFFFF DUP2 GT DUP3 DUP3 LT OR ISZERO PUSH2 0x45C1 JUMPI PUSH2 0x45C1 PUSH2 0x4559 JUMP JUMPDEST PUSH1 0x40 MSTORE SWAP2 SWAP1 POP JUMP JUMPDEST PUSH1 0x0 PUSH8 0xFFFFFFFFFFFFFFFF DUP3 GT ISZERO PUSH2 0x45E3 JUMPI PUSH2 0x45E3 PUSH2 0x4559 JUMP JUMPDEST POP PUSH1 0x5 SHL PUSH1 0x20 ADD SWAP1 JUMP JUMPDEST PUSH1 0x0 DUP3 PUSH1 0x1F DUP4 ADD SLT PUSH2 0x45FE JUMPI PUSH1 0x0 DUP1 REVERT JUMPDEST DUP2 CALLDATALOAD PUSH1 0x20 PUSH2 0x4613 PUSH2 0x460E DUP4 PUSH2 0x45C9 JUMP JUMPDEST PUSH2 0x4598 JUMP JUMPDEST DUP1 DUP4 DUP3 MSTORE PUSH1 0x20 DUP3 ADD SWAP2 POP PUSH1 0x20 DUP5 PUSH1 0x5 SHL DUP8 ADD ADD SWAP4 POP DUP7 DUP5 GT ISZERO PUSH2 0x4635 JUMPI PUSH1 0x0 DUP1 REVERT JUMPDEST PUSH1 0x20 DUP7 ADD JUMPDEST DUP5 DUP2 LT ISZERO PUSH2 0x4651 JUMPI DUP1 CALLDATALOAD DUP4 MSTORE SWAP2 DUP4 ADD SWAP2 DUP4 ADD PUSH2 0x463A JUMP JUMPDEST POP SWAP7 SWAP6 POP POP POP POP POP POP JUMP JUMPDEST PUSH1 0x0 PUSH1 0x20 DUP3 DUP5 SUB SLT ISZERO PUSH2 0x466E JUMPI PUSH1 0x0 DUP1 REVERT JUMPDEST DUP2 CALLDATALOAD PUSH8 0xFFFFFFFFFFFFFFFF DUP2 GT ISZERO PUSH2 0x4685 JUMPI PUSH1 0x0 DUP1 REVERT JUMPDEST PUSH2 0x40D1 DUP5 DUP3 DUP6 ADD PUSH2 0x45ED JUMP JUMPDEST PUSH1 0x0 PUSH1 0x20 DUP3 DUP5 SUB SLT ISZERO PUSH2 0x46A3 JUMPI PUSH1 0x0 DUP1 REVERT JUMPDEST PUSH2 0x2FC9 DUP3 PUSH2 0x451A JUMP JUMPDEST PUSH1 0x0 DUP1 PUSH1 0x40 DUP4 DUP6 SUB SLT ISZERO PUSH2 0x46BF JUMPI PUSH1 0x0 DUP1 REVERT JUMPDEST PUSH2 0x46C8 DUP4 PUSH2 0x451A JUMP JUMPDEST SWAP2 POP PUSH1 0x20 DUP1 DUP5 ADD CALLDATALOAD PUSH8 0xFFFFFFFFFFFFFFFF DUP1 DUP3 GT ISZERO PUSH2 0x46E6 JUMPI PUSH1 0x0 DUP1 REVERT JUMPDEST DUP2 DUP7 ADD SWAP2 POP DUP7 PUSH1 0x1F DUP4 ADD SLT PUSH2 0x46FA JUMPI PUSH1 0x0 DUP1 REVERT JUMPDEST DUP2 CALLDATALOAD DUP2 DUP2 GT ISZERO PUSH2 0x470C JUMPI PUSH2 0x470C PUSH2 0x4559 JUMP JUMPDEST PUSH2 0x471E DUP5 PUSH1 0x1F NOT PUSH1 0x1F DUP5 ADD AND ADD PUSH2 0x4598 JUMP JUMPDEST SWAP2 POP DUP1 DUP3 MSTORE DUP8 DUP5 DUP3 DUP6 ADD ADD GT ISZERO PUSH2 0x4734 JUMPI PUSH1 0x0 DUP1 REVERT JUMPDEST DUP1 DUP5 DUP5 ADD DUP6 DUP5 ADD CALLDATACOPY PUSH1 0x0 DUP5 DUP3 DUP5 ADD ADD MSTORE POP DUP1 SWAP4 POP POP POP POP SWAP3 POP SWAP3 SWAP1 POP JUMP JUMPDEST PUSH1 0x20 DUP1 DUP3 MSTORE DUP3 MLOAD DUP3 DUP3 ADD DUP2 SWAP1 MSTORE PUSH1 0x0 SWAP2 SWAP1 PUSH1 0x40 SWAP1 DUP2 DUP6 ADD SWAP1 DUP7 DUP5 ADD DUP6 JUMPDEST DUP3 DUP2 LT ISZERO PUSH2 0x47FA JUMPI DUP2 MLOAD PUSH2 0x478E DUP6 DUP3 MLOAD DUP1 MLOAD DUP3 MSTORE PUSH1 0x20 SWAP1 DUP2 ADD MLOAD SWAP2 ADD MSTORE JUMP JUMPDEST DUP7 DUP2 ADD MLOAD PUSH2 0x47A8 DUP8 DUP8 ADD DUP3 DUP1 MLOAD DUP3 MSTORE PUSH1 0x20 SWAP1 DUP2 ADD MLOAD SWAP2 ADD MSTORE JUMP JUMPDEST POP DUP6 DUP2 ADD MLOAD PUSH1 0x80 DUP2 DUP2 DUP9 ADD MSTORE PUSH1 0x60 DUP4 ADD MLOAD SWAP2 POP PUSH1 0xA0 PUSH2 0x47D3 DUP2 DUP10 ADD DUP5 DUP1 MLOAD DUP3 MSTORE PUSH1 0x20 SWAP1 DUP2 ADD MLOAD SWAP2 ADD MSTORE JUMP JUMPDEST SWAP1 DUP4 ADD MLOAD PUSH1 0xE0 DUP9 ADD MSTORE SWAP1 SWAP2 ADD MLOAD PUSH2 0x100 DUP7 ADD MSTORE POP PUSH2 0x120 SWAP1 SWAP4 ADD SWAP3 SWAP1 DUP6 ADD SWAP1 PUSH1 0x1 ADD PUSH2 0x476F JUMP JUMPDEST POP SWAP2 SWAP8 SWAP7 POP POP POP POP POP POP POP JUMP JUMPDEST PUSH1 0x20 DUP1 DUP3 MSTORE DUP3 MLOAD DUP3 DUP3 ADD DUP2 SWAP1 MSTORE PUSH1 0x0 SWAP2 SWAP1 PUSH1 0x40 SWAP1 DUP2 DUP6 ADD SWAP1 DUP7 DUP5 ADD DUP6 JUMPDEST DUP3 DUP2 LT ISZERO PUSH2 0x47FA JUMPI DUP2 MLOAD DUP1 MLOAD DUP6 MSTORE DUP7 DUP2 ADD MLOAD DUP8 DUP7 ADD MSTORE DUP6 ADD MLOAD DUP6 DUP6 ADD MSTORE PUSH1 0x60 SWAP1 SWAP4 ADD SWAP3 SWAP1 DUP6 ADD SWAP1 PUSH1 0x1 ADD PUSH2 0x4824 JUMP JUMPDEST PUSH1 0x0 DUP1 PUSH1 0x0 DUP1 PUSH1 0x80 DUP6 DUP8 SUB SLT ISZERO PUSH2 0x4869 JUMPI PUSH1 0x0 DUP1 REVERT JUMPDEST POP POP DUP3 CALLDATALOAD SWAP5 PUSH1 0x20 DUP5 ADD CALLDATALOAD SWAP5 POP PUSH1 0x40 DUP5 ADD CALLDATALOAD SWAP4 PUSH1 0x60 ADD CALLDATALOAD SWAP3 POP SWAP1 POP JUMP JUMPDEST PUSH1 0x0 PUSH1 0x40 DUP3 DUP5 SUB SLT ISZERO PUSH2 0x4897 JUMPI PUSH1 0x0 DUP1 REVERT JUMPDEST PUSH1 0x40 MLOAD PUSH1 0x40 DUP2 ADD DUP2 DUP2 LT PUSH8 0xFFFFFFFFFFFFFFFF DUP3 GT OR ISZERO PUSH2 0x48BA JUMPI PUSH2 0x48BA PUSH2 0x4559 JUMP JUMPDEST PUSH1 0x40 MSTORE DUP3 CALLDATALOAD DUP2 MSTORE PUSH1 0x20 SWAP3 DUP4 ADD CALLDATALOAD SWAP3 DUP2 ADD SWAP3 SWAP1 SWAP3 MSTORE POP SWAP2 SWAP1 POP JUMP JUMPDEST PUSH1 0x0 DUP1 DUP3 DUP5 SUB PUSH2 0x140 DUP2 SLT ISZERO PUSH2 0x48E9 JUMPI PUSH1 0x0 DUP1 REVERT JUMPDEST DUP4 CALLDATALOAD SWAP3 POP PUSH2 0x120 DUP1 PUSH1 0x1F NOT DUP4 ADD SLT ISZERO PUSH2 0x4901 JUMPI PUSH1 0x0 DUP1 REVERT JUMPDEST PUSH2 0x4909 PUSH2 0x456F JUMP JUMPDEST SWAP2 POP PUSH2 0x4918 DUP7 PUSH1 0x20 DUP8 ADD PUSH2 0x4885 JUMP JUMPDEST DUP3 MSTORE PUSH2 0x4927 DUP7 PUSH1 0x60 DUP8 ADD PUSH2 0x4885 JUMP JUMPDEST PUSH1 0x20 DUP4 ADD MSTORE PUSH1 0xA0 DUP6 ADD CALLDATALOAD PUSH1 0x40 DUP4 ADD MSTORE PUSH2 0x4943 DUP7 PUSH1 0xC0 DUP8 ADD PUSH2 0x4885 JUMP JUMPDEST PUSH1 0x60 DUP4 ADD MSTORE PUSH2 0x100 DUP6 ADD CALLDATALOAD PUSH1 0x80 DUP4 ADD MSTORE SWAP1 SWAP4 ADD CALLDATALOAD PUSH1 0xA0 DUP5 ADD MSTORE POP SWAP3 SWAP1 SWAP2 POP JUMP JUMPDEST PUSH1 0x0 DUP1 PUSH1 0xE0 DUP4 DUP6 SUB SLT ISZERO PUSH2 0x4976 JUMPI PUSH1 0x0 DUP1 REVERT JUMPDEST DUP3 CALLDATALOAD SWAP2 POP PUSH1 0x20 DUP5 PUSH1 0x3F DUP6 ADD SLT PUSH2 0x498B JUMPI PUSH1 0x0 DUP1 REVERT JUMPDEST PUSH2 0x4993 PUSH2 0x456F JUMP JUMPDEST DUP1 PUSH1 0xE0 DUP7 ADD DUP8 DUP2 GT ISZERO PUSH2 0x49A5 JUMPI PUSH1 0x0 DUP1 REVERT JUMPDEST PUSH1 0x20 DUP8 ADD JUMPDEST DUP2 DUP2 LT ISZERO PUSH2 0x49C1 JUMPI DUP1 CALLDATALOAD DUP5 MSTORE SWAP3 DUP5 ADD SWAP3 DUP5 ADD PUSH2 0x49AA JUMP JUMPDEST POP SWAP5 SWAP8 SWAP1 SWAP7 POP SWAP5 POP POP POP POP POP JUMP JUMPDEST PUSH1 0x0 PUSH1 0x20 DUP1 DUP4 DUP6 SUB SLT ISZERO PUSH2 0x49E2 JUMPI PUSH1 0x0 DUP1 REVERT JUMPDEST DUP3 CALLDATALOAD PUSH8 0xFFFFFFFFFFFFFFFF DUP1 DUP3 GT ISZERO PUSH2 0x49FA JUMPI PUSH1 0x0 DUP1 REVERT JUMPDEST DUP2 DUP6 ADD SWAP2 POP DUP6 PUSH1 0x1F DUP4 ADD SLT PUSH2 0x4A0E JUMPI PUSH1 0x0 DUP1 REVERT JUMPDEST DUP2 CALLDATALOAD PUSH2 0x4A1C PUSH2 0x460E DUP3 PUSH2 0x45C9 JUMP JUMPDEST DUP2 DUP2 MSTORE PUSH1 0x5 SWAP2 SWAP1 SWAP2 SHL DUP4 ADD DUP5 ADD SWAP1 DUP5 DUP2 ADD SWAP1 DUP9 DUP4 GT ISZERO PUSH2 0x4A3B JUMPI PUSH1 0x0 DUP1 REVERT JUMPDEST DUP6 DUP6 ADD JUMPDEST DUP4 DUP2 LT ISZERO PUSH2 0x4A73 JUMPI DUP1 CALLDATALOAD DUP6 DUP2 GT ISZERO PUSH2 0x4A57 JUMPI PUSH1 0x0 DUP1 DUP2 REVERT JUMPDEST PUSH2 0x4A65 DUP12 DUP10 DUP4 DUP11 ADD ADD PUSH2 0x45ED JUMP JUMPDEST DUP5 MSTORE POP SWAP2 DUP7 ADD SWAP2 DUP7 ADD PUSH2 0x4A3F JUMP JUMPDEST POP SWAP9 SWAP8 POP POP POP POP POP POP POP POP JUMP JUMPDEST PUSH4 0x4E487B71 PUSH1 0xE0 SHL PUSH1 0x0 MSTORE PUSH1 0x11 PUSH1 0x4 MSTORE PUSH1 0x24 PUSH1 0x0 REVERT JUMPDEST DUP1 DUP3 MUL DUP2 ISZERO DUP3 DUP3 DIV DUP5 EQ OR PUSH2 0x9E4 JUMPI PUSH2 0x9E4 PUSH2 0x4A80 JUMP JUMPDEST DUP1 DUP3 ADD DUP1 DUP3 GT ISZERO PUSH2 0x9E4 JUMPI PUSH2 0x9E4 PUSH2 0x4A80 JUMP JUMPDEST PUSH4 0x4E487B71 PUSH1 0xE0 SHL PUSH1 0x0 MSTORE PUSH1 0x32 PUSH1 0x4 MSTORE PUSH1 0x24 PUSH1 0x0 REVERT JUMPDEST DUP2 DUP2 SUB DUP2 DUP2 GT ISZERO PUSH2 0x9E4 JUMPI PUSH2 0x9E4 PUSH2 0x4A80 JUMP JUMPDEST PUSH1 0x0 PUSH1 0x20 DUP3 DUP5 SUB SLT ISZERO PUSH2 0x4AFB JUMPI PUSH1 0x0 DUP1 REVERT JUMPDEST POP MLOAD SWAP2 SWAP1 POP JUMP JUMPDEST PUSH1 0x0 JUMPDEST DUP4 DUP2 LT ISZERO PUSH2 0x4B1D JUMPI DUP2 DUP2 ADD MLOAD DUP4 DUP3 ADD MSTORE PUSH1 0x20 ADD PUSH2 0x4B05 JUMP JUMPDEST POP POP PUSH1 0x0 SWAP2 ADD MSTORE JUMP JUMPDEST PUSH32 0x416363657373436F6E74726F6C3A206163636F756E7420000000000000000000 DUP2 MSTORE PUSH1 0x0 DUP4 MLOAD PUSH2 0x4B5E DUP2 PUSH1 0x17 DUP6 ADD PUSH1 0x20 DUP9 ADD PUSH2 0x4B02 JUMP JUMPDEST PUSH32 0x206973206D697373696E6720726F6C6520000000000000000000000000000000 PUSH1 0x17 SWAP2 DUP5 ADD SWAP2 DUP3 ADD MSTORE DUP4 MLOAD PUSH2 0x4B9B DUP2 PUSH1 0x28 DUP5 ADD PUSH1 0x20 DUP9 ADD PUSH2 0x4B02 JUMP JUMPDEST ADD PUSH1 0x28 ADD SWAP5 SWAP4 POP POP POP POP JUMP JUMPDEST PUSH1 0x20 DUP2 MSTORE PUSH1 0x0 DUP3 MLOAD DUP1 PUSH1 0x20 DUP5 ADD MSTORE PUSH2 0x4BC6 DUP2 PUSH1 0x40 DUP6 ADD PUSH1 0x20 DUP8 ADD PUSH2 0x4B02 JUMP JUMPDEST PUSH1 0x1F ADD PUSH1 0x1F NOT AND SWAP2 SWAP1 SWAP2 ADD PUSH1 0x40 ADD SWAP3 SWAP2 POP POP JUMP JUMPDEST PUSH1 0x0 DUP2 PUSH2 0x4BE9 JUMPI PUSH2 0x4BE9 PUSH2 0x4A80 JUMP JUMPDEST POP PUSH32 0xFFFFFFFFFFFFFFFFFFFFFFFFFFFFFFFFFFFFFFFFFFFFFFFFFFFFFFFFFFFFFFFF ADD SWAP1 JUMP JUMPDEST PUSH1 0x0 DUP3 PUSH2 0x4C2C JUMPI PUSH4 0x4E487B71 PUSH1 0xE0 SHL PUSH1 0x0 MSTORE PUSH1 0x12 PUSH1 0x4 MSTORE PUSH1 0x24 PUSH1 0x0 REVERT JUMPDEST POP MOD SWAP1 JUMP JUMPDEST PUSH1 0x0 DUP3 MLOAD PUSH2 0x4C43 DUP2 DUP5 PUSH1 0x20 DUP8 ADD PUSH2 0x4B02 JUMP JUMPDEST SWAP2 SWAP1 SWAP2 ADD SWAP3 SWAP2 POP POP JUMP INVALID COINBASE PUSH5 0x6472657373 GASPRICE KECCAK256 PUSH13 0x6F772D6C6576656C2064656C65 PUSH8 0x6174652063616C6C KECCAK256 PUSH7 0x61696C6564A264 PUSH10 0x70667358221220C800EA SWAP7 DUP14 MCOPY 0x4B INVALID MULMOD PUSH11 0x3F198B04B5DCC115F55165 0xC6 DUP3 SWAP5 0x26 SWAP1 SWAP2 0xCD PUSH17 0x75284A64736F6C63430008180033000000 "},"methodIdentifiers":{"DEFAULT_ADMIN_ROLE()":"a217fddf","DESIGNER_ROLE()":"df064ad8","UPGRADER_ROLE()":"f72c0d8b","createTokens(uint256,uint256,uint256)":"16b0f8e6","dummyDeploy()":"757aa181","getAbilityDesigns()":"9010200a","getAbilityRate()":"31ad3579","getDropRate()":"f988c0d2","getDropRateHeroS()":"68cdbe36","getMaxLevel()":"3798fe56","getMintCost()":"13c738f0","getMintCostHeroS()":"f5057652","getRandomizeAbilityCost(uint256,uint256)":"294b3db5","getRarityStats()":"8b3c88b4","getRockUpgradeShieldLevel(uint256,uint256)":"607b63fd","getRoleAdmin(bytes32)":"248a9ca3","getSenMintCost()":"648abe57","getSenMintCostHeroS()":"745f418f","getSuperBoxDropRate()":"6da46a67","getSuperBoxMintCost()":"fa3a515f","getTokenLimit()":"28485586","getUpgradeCost(uint256,uint256)":"4830dfa5","getUpgradeCosts()":"00736cf3","grantRole(bytes32,address)":"2f2ff15d","hasRole(bytes32,address)":"91d14854","initialize()":"8129fc1c","proxiableUUID()":"52d1902d","randomizeAbilities(uint256,uint256)":"9a356327","renounceRole(bytes32,address)":"36568abe","revokeRole(bytes32,address)":"d547741f","setAbilityRate(uint256[])":"dfe3daa3","setDropRate(uint256[])":"3ee4f036","setDropRateHeroS(uint256[])":"bc0dfa09","setMaxLevel(uint256)":"344f1ba5","setMintCost(uint256)":"8545f4ea","setMintCostHeroS(uint256)":"5603b519","setNumRockUpgradeShieldLevel(uint256,uint256[6])":"d55921b8","setRandomizeAbilityCost(uint256,uint256,uint256,uint256)":"b05b7b58","setRarityStats(uint256,((uint256,uint256),(uint256,uint256),uint256,(uint256,uint256),uint256,uint256))":"c133cf54","setSenMintCost(uint256)":"deed8897","setSenMintCostHeroS(uint256)":"da1e6ba4","setSkinVal(uint256[])":"8859c89d","setSuperBoxDropRate(uint256[])":"35a66484","setSuperBoxMintCost(uint256)":"efb947f1","setTokenLimit(uint256)":"c0e68fec","setUpgradeCosts(uint256[][])":"da6a074c","supportsInterface(bytes4)":"01ffc9a7","upgradeTo(address)":"3659cfe6","upgradeToAndCall(address,bytes)":"4f1ef286"}},"storageLayout":{"storage":[{"astId":782,"contract":"contracts/BHeroDesign.sol:BHeroDesign","label":"_initialized","offset":0,"slot":"0","type":"t_uint8"},{"astId":785,"contract":"contracts/BHeroDesign.sol:BHeroDesign","label":"_initializing","offset":1,"slot":"0","type":"t_bool"},{"astId":1461,"contract":"contracts/BHeroDesign.sol:BHeroDesign","label":"__gap","offset":0,"slot":"1","type":"t_array(t_uint256)50_storage"},{"astId":1845,"contract":"contracts/BHeroDesign.sol:BHeroDesign","label":"__gap","offset":0,"slot":"51","type":"t_array(t_uint256)50_storage"},{"astId":28,"contract":"contracts/BHeroDesign.sol:BHeroDesign","label":"_roles","offset":0,"slot":"101","type":"t_mapping(t_bytes32,t_struct(RoleData)23_storage)"},{"astId":335,"contract":"contracts/BHeroDesign.sol:BHeroDesign","label":"__gap","offset":0,"slot":"102","type":"t_array(t_uint256)49_storage"},{"astId":764,"contract":"contracts/BHeroDesign.sol:BHeroDesign","label":"__gap","offset":0,"slot":"151","type":"t_array(t_uint256)50_storage"},{"astId":1080,"contract":"contracts/BHeroDesign.sol:BHeroDesign","label":"__gap","offset":0,"slot":"201","type":"t_array(t_uint256)50_storage"},{"astId":2896,"contract":"contracts/BHeroDesign.sol:BHeroDesign","label":"rarityStats","offset":0,"slot":"251","type":"t_mapping(t_uint256,t_struct(Stats)2864_storage)"},{"astId":2899,"contract":"contracts/BHeroDesign.sol:BHeroDesign","label":"abilityIds","offset":0,"slot":"252","type":"t_array(t_uint256)dyn_storage"},{"astId":2901,"contract":"contracts/BHeroDesign.sol:BHeroDesign","label":"tokenLimit","offset":0,"slot":"253","type":"t_uint256"},{"astId":2904,"contract":"contracts/BHeroDesign.sol:BHeroDesign","label":"dropRate","offset":0,"slot":"254","type":"t_array(t_uint256)dyn_storage"},{"astId":2906,"contract":"contracts/BHeroDesign.sol:BHeroDesign","label":"mintCost","offset":0,"slot":"255","type":"t_uint256"},{"astId":2908,"contract":"contracts/BHeroDesign.sol:BHeroDesign","label":"maxLevel","offset":0,"slot":"256","type":"t_uint256"},{"astId":2912,"contract":"contracts/BHeroDesign.sol:BHeroDesign","label":"upgradeCosts","offset":0,"slot":"257","type":"t_array(t_array(t_uint256)dyn_storage)dyn_storage"},{"astId":2915,"contract":"contracts/BHeroDesign.sol:BHeroDesign","label":"abilityRate","offset":0,"slot":"258","type":"t_array(t_uint256)dyn_storage"},{"astId":2919,"contract":"contracts/BHeroDesign.sol:BHeroDesign","label":"abilityDesigns","offset":0,"slot":"259","type":"t_array(t_struct(AbilityDesign)2871_storage)dyn_storage"},{"astId":2921,"contract":"contracts/BHeroDesign.sol:BHeroDesign","label":"skinCount","offset":0,"slot":"260","type":"t_uint256"},{"astId":2924,"contract":"contracts/BHeroDesign.sol:BHeroDesign","label":"superBoxDropRate","offset":0,"slot":"261","type":"t_array(t_uint256)dyn_storage"},{"astId":2926,"contract":"contracts/BHeroDesign.sol:BHeroDesign","label":"superBoxMintCost","offset":0,"slot":"262","type":"t_uint256"},{"astId":2928,"contract":"contracts/BHeroDesign.sol:BHeroDesign","label":"senMintCost","offset":0,"slot":"263","type":"t_uint256"},{"astId":2930,"contract":"contracts/BHeroDesign.sol:BHeroDesign","label":"mintCostHeroS","offset":0,"slot":"264","type":"t_uint256"},{"astId":2932,"contract":"contracts/BHeroDesign.sol:BHeroDesign","label":"senMintCostHeroS","offset":0,"slot":"265","type":"t_uint256"},{"astId":2935,"contract":"contracts/BHeroDesign.sol:BHeroDesign","label":"dropRateHeroS","offset":0,"slot":"266","type":"t_array(t_uint256)dyn_storage"},{"astId":2953,"contract":"contracts/BHeroDesign.sol:BHeroDesign","label":"numRockUpgradeShieldLevel","offset":0,"slot":"267","type":"t_array(t_array(t_uint256)dyn_storage)6_storage"},{"astId":2956,"contract":"contracts/BHeroDesign.sol:BHeroDesign","label":"skinArr","offset":0,"slot":"273","type":"t_array(t_uint256)dyn_storage"}],"types":{"t_address":{"encoding":"inplace","label":"address","numberOfBytes":"20"},"t_array(t_array(t_uint256)dyn_storage)6_storage":{"base":"t_array(t_uint256)dyn_storage","encoding":"inplace","label":"uint256[][6]","numberOfBytes":"192"},"t_array(t_array(t_uint256)dyn_storage)dyn_storage":{"base":"t_array(t_uint256)dyn_storage","encoding":"dynamic_array","label":"uint256[][]","numberOfBytes":"32"},"t_array(t_struct(AbilityDesign)2871_storage)dyn_storage":{"base":"t_struct(AbilityDesign)2871_storage","encoding":"dynamic_array","label":"struct BHeroDesign.AbilityDesign[]","numberOfBytes":"32"},"t_array(t_uint256)49_storage":{"base":"t_uint256","encoding":"inplace","label":"uint256[49]","numberOfBytes":"1568"},"t_array(t_uint256)50_storage":{"base":"t_uint256","encoding":"inplace","label":"uint256[50]","numberOfBytes":"1600"},"t_array(t_uint256)dyn_storage":{"base":"t_uint256","encoding":"dynamic_array","label":"uint256[]","numberOfBytes":"32"},"t_bool":{"encoding":"inplace","label":"bool","numberOfBytes":"1"},"t_bytes32":{"encoding":"inplace","label":"bytes32","numberOfBytes":"32"},"t_mapping(t_address,t_bool)":{"encoding":"mapping","key":"t_address","label":"mapping(address => bool)","numberOfBytes":"32","value":"t_bool"},"t_mapping(t_bytes32,t_struct(RoleData)23_storage)":{"encoding":"mapping","key":"t_bytes32","label":"mapping(bytes32 => struct AccessControlUpgradeable.RoleData)","numberOfBytes":"32","value":"t_struct(RoleData)23_storage"},"t_mapping(t_uint256,t_struct(Stats)2864_storage)":{"encoding":"mapping","key":"t_uint256","label":"mapping(uint256 => struct BHeroDesign.Stats)","numberOfBytes":"32","value":"t_struct(Stats)2864_storage"},"t_struct(AbilityDesign)2871_storage":{"encoding":"inplace","label":"struct BHeroDesign.AbilityDesign","members":[{"astId":2866,"contract":"contracts/BHeroDesign.sol:BHeroDesign","label":"minCost","offset":0,"slot":"0","type":"t_uint256"},{"astId":2868,"contract":"contracts/BHeroDesign.sol:BHeroDesign","label":"maxCost","offset":0,"slot":"1","type":"t_uint256"},{"astId":2870,"contract":"contracts/BHeroDesign.sol:BHeroDesign","label":"incrementalCost","offset":0,"slot":"2","type":"t_uint256"}],"numberOfBytes":"96"},"t_struct(RoleData)23_storage":{"encoding":"inplace","label":"struct AccessControlUpgradeable.RoleData","members":[{"astId":20,"contract":"contracts/BHeroDesign.sol:BHeroDesign","label":"members","offset":0,"slot":"0","type":"t_mapping(t_address,t_bool)"},{"astId":22,"contract":"contracts/BHeroDesign.sol:BHeroDesign","label":"adminRole","offset":0,"slot":"1","type":"t_bytes32"}],"numberOfBytes":"64"},"t_struct(Stats)2864_storage":{"encoding":"inplace","label":"struct BHeroDesign.Stats","members":[{"astId":2851,"contract":"contracts/BHeroDesign.sol:BHeroDesign","label":"stamina","offset":0,"slot":"0","type":"t_struct(StatsRange)2848_storage"},{"astId":2854,"contract":"contracts/BHeroDesign.sol:BHeroDesign","label":"speed","offset":0,"slot":"2","type":"t_struct(StatsRange)2848_storage"},{"astId":2856,"contract":"contracts/BHeroDesign.sol:BHeroDesign","label":"bombCount","offset":0,"slot":"4","type":"t_uint256"},{"astId":2859,"contract":"contracts/BHeroDesign.sol:BHeroDesign","label":"bombPower","offset":0,"slot":"5","type":"t_struct(StatsRange)2848_storage"},{"astId":2861,"contract":"contracts/BHeroDesign.sol:BHeroDesign","label":"bombRange","offset":0,"slot":"7","type":"t_uint256"},{"astId":2863,"contract":"contracts/BHeroDesign.sol:BHeroDesign","label":"ability","offset":0,"slot":"8","type":"t_uint256"}],"numberOfBytes":"288"},"t_struct(StatsRange)2848_storage":{"encoding":"inplace","label":"struct BHeroDesign.StatsRange","members":[{"astId":2845,"contract":"contracts/BHeroDesign.sol:BHeroDesign","label":"min","offset":0,"slot":"0","type":"t_uint256"},{"astId":2847,"contract":"contracts/BHeroDesign.sol:BHeroDesign","label":"max","offset":0,"slot":"1","type":"t_uint256"}],"numberOfBytes":"64"},"t_uint256":{"encoding":"inplace","label":"uint256","numberOfBytes":"32"},"t_uint8":{"encoding":"inplace","label":"uint8","numberOfBytes":"1"}}}}}}