{"contracts/BHeroMarket.sol":{"BHeroMarket":{"abi":[{"anonymous":false,"inputs":[{"indexed":false,"internalType":"address","name":"previousAdmin","type":"address"},{"indexed":false,"internalType":"address","name":"newAdmin","type":"address"}],"name":"AdminChanged","type":"event"},{"anonymous":false,"inputs":[{"indexed":true,"internalType":"address","name":"beacon","type":"address"}],"name":"BeaconUpgraded","type":"event"},{"anonymous":false,"inputs":[{"indexed":false,"internalType":"uint256","name":"tokenId","type":"uint256"}],"name":"CancelOrder","type":"event"},{"anonymous":false,"inputs":[{"indexed":false,"internalType":"uint256","name":"tokenId","type":"uint256"},{"indexed":false,"internalType":"uint256","name":"price","type":"uint256"},{"indexed":false,"internalType":"uint256","name":"tokenDetail","type":"uint256"},{"indexed":false,"internalType":"address","name":"seller","type":"address"}],"name":"CreateOrder","type":"event"},{"anonymous":false,"inputs":[{"indexed":false,"internalType":"uint8","name":"version","type":"uint8"}],"name":"Initialized","type":"event"},{"anonymous":false,"inputs":[{"indexed":false,"internalType":"address","name":"account","type":"address"}],"name":"Paused","type":"event"},{"anonymous":false,"inputs":[{"indexed":true,"internalType":"bytes32","name":"role","type":"bytes32"},{"indexed":true,"internalType":"bytes32","name":"previousAdminRole","type":"bytes32"},{"indexed":true,"internalType":"bytes32","name":"newAdminRole","type":"bytes32"}],"name":"RoleAdminChanged","type":"event"},{"anonymous":false,"inputs":[{"indexed":true,"internalType":"bytes32","name":"role","type":"bytes32"},{"indexed":true,"internalType":"address","name":"account","type":"address"},{"indexed":true,"internalType":"address","name":"sender","type":"address"}],"name":"RoleGranted","type":"event"},{"anonymous":false,"inputs":[{"indexed":true,"internalType":"bytes32","name":"role","type":"bytes32"},{"indexed":true,"internalType":"address","name":"account","type":"address"},{"indexed":true,"internalType":"address","name":"sender","type":"address"}],"name":"RoleRevoked","type":"event"},{"anonymous":false,"inputs":[{"indexed":false,"internalType":"uint256","name":"tokenId","type":"uint256"},{"indexed":false,"internalType":"uint256","name":"price","type":"uint256"},{"indexed":false,"internalType":"uint256","name":"tokenDetail","type":"uint256"},{"indexed":false,"internalType":"address","name":"seller","type":"address"},{"indexed":false,"internalType":"address","name":"buyer","type":"address"}],"name":"Sold","type":"event"},{"anonymous":false,"inputs":[{"indexed":false,"internalType":"address","name":"account","type":"address"}],"name":"Unpaused","type":"event"},{"anonymous":false,"inputs":[{"indexed":true,"internalType":"address","name":"implementation","type":"address"}],"name":"Upgraded","type":"event"},{"inputs":[],"name":"BANNER_ROLE","outputs":[{"internalType":"bytes32","name":"","type":"bytes32"}],"stateMutability":"view","type":"function"},{"inputs":[],"name":"CANCELER_ROLE","outputs":[{"internalType":"bytes32","name":"","type":"bytes32"}],"stateMutability":"view","type":"function"},{"inputs":[],"name":"DEFAULT_ADMIN_ROLE","outputs":[{"internalType":"bytes32","name":"","type":"bytes32"}],"stateMutability":"view","type":"function"},{"inputs":[],"name":"DESIGNER_ROLE","outputs":[{"internalType":"bytes32","name":"","type":"bytes32"}],"stateMutability":"view","type":"function"},{"inputs":[],"name":"PAUSER_ROLE","outputs":[{"internalType":"bytes32","name":"","type":"bytes32"}],"stateMutability":"view","type":"function"},{"inputs":[],"name":"UPGRADER_ROLE","outputs":[{"internalType":"bytes32","name":"","type":"bytes32"}],"stateMutability":"view","type":"function"},{"inputs":[],"name":"WITHDRAWER_ROLE","outputs":[{"internalType":"bytes32","name":"","type":"bytes32"}],"stateMutability":"view","type":"function"},{"inputs":[{"internalType":"address[]","name":"_addresses","type":"address[]"}],"name":"addToBacklist","outputs":[],"stateMutability":"nonpayable","type":"function"},{"inputs":[],"name":"bcoinContract","outputs":[{"internalType":"contract IERC20","name":"","type":"address"}],"stateMutability":"view","type":"function"},{"inputs":[{"internalType":"uint256","name":"_tokenId","type":"uint256"},{"internalType":"uint256","name":"_price","type":"uint256"}],"name":"buy","outputs":[],"stateMutability":"nonpayable","type":"function"},{"inputs":[{"internalType":"uint256","name":"_tokenId","type":"uint256"}],"name":"cancelOrder","outputs":[],"stateMutability":"nonpayable","type":"function"},{"inputs":[{"internalType":"uint256","name":"_tokenId","type":"uint256"}],"name":"cancelOrderWhenPaused","outputs":[],"stateMutability":"nonpayable","type":"function"},{"inputs":[{"internalType":"uint256","name":"taxRate_","type":"uint256"},{"internalType":"uint256","name":"cooldownBeforeCancel_","type":"uint256"}],"name":"changeSettings","outputs":[],"stateMutability":"nonpayable","type":"function"},{"inputs":[],"name":"cooldownBeforeCancel","outputs":[{"internalType":"uint256","name":"","type":"uint256"}],"stateMutability":"view","type":"function"},{"inputs":[],"name":"cooldownByBlockNumber","outputs":[{"internalType":"uint256","name":"","type":"uint256"}],"stateMutability":"view","type":"function"},{"inputs":[{"internalType":"uint256","name":"_tokenId","type":"uint256"},{"internalType":"uint256","name":"_price","type":"uint256"},{"internalType":"address","name":"_tokenAddress","type":"address"}],"name":"createOrder","outputs":[],"stateMutability":"nonpayable","type":"function"},{"inputs":[],"name":"getBalance","outputs":[{"internalType":"uint256","name":"","type":"uint256"}],"stateMutability":"view","type":"function"},{"inputs":[{"internalType":"uint256","name":"_tokenId","type":"uint256"}],"name":"getOrder","outputs":[{"internalType":"uint256","name":"tokenDetail","type":"uint256"},{"internalType":"address","name":"seller","type":"address"},{"internalType":"uint256","name":"price","type":"uint256"},{"internalType":"uint256","name":"startedAt","type":"uint256"}],"stateMutability":"view","type":"function"},{"inputs":[{"internalType":"uint256","name":"_tokenId","type":"uint256"}],"name":"getOrderV2","outputs":[{"internalType":"uint256","name":"tokenDetail","type":"uint256"},{"internalType":"address","name":"seller","type":"address"},{"internalType":"uint256","name":"price","type":"uint256"},{"internalType":"uint256","name":"startedAt","type":"uint256"},{"internalType":"address","name":"tokenAddress","type":"address"}],"stateMutability":"view","type":"function"},{"inputs":[{"internalType":"bytes32","name":"role","type":"bytes32"}],"name":"getRoleAdmin","outputs":[{"internalType":"bytes32","name":"","type":"bytes32"}],"stateMutability":"view","type":"function"},{"inputs":[{"internalType":"uint256[]","name":"_tokenId","type":"uint256[]"}],"name":"getTokenPayList","outputs":[{"internalType":"address[]","name":"","type":"address[]"}],"stateMutability":"view","type":"function"},{"inputs":[{"internalType":"bytes32","name":"role","type":"bytes32"},{"internalType":"address","name":"account","type":"address"}],"name":"grantRole","outputs":[],"stateMutability":"nonpayable","type":"function"},{"inputs":[{"internalType":"bytes32","name":"role","type":"bytes32"},{"internalType":"address","name":"account","type":"address"}],"name":"hasRole","outputs":[{"internalType":"bool","name":"","type":"bool"}],"stateMutability":"view","type":"function"},{"inputs":[{"internalType":"address","name":"bcoinCA_","type":"address"},{"internalType":"address","name":"nftCA_","type":"address"}],"name":"initialize","outputs":[],"stateMutability":"nonpayable","type":"function"},{"inputs":[{"internalType":"address","name":"_address","type":"address"}],"name":"isBlacklist","outputs":[{"internalType":"bool","name":"","type":"bool"}],"stateMutability":"view","type":"function"},{"inputs":[{"internalType":"uint256","name":"_tokenDetails","type":"uint256"},{"internalType":"uint256","name":"_price","type":"uint256"}],"name":"isSellable","outputs":[{"internalType":"bool","name":"","type":"bool"}],"stateMutability":"view","type":"function"},{"inputs":[],"name":"myVersion","outputs":[{"internalType":"uint64","name":"ver_","type":"uint64"}],"stateMutability":"pure","type":"function"},{"inputs":[],"name":"nftContract","outputs":[{"internalType":"contract IERC721","name":"","type":"address"}],"stateMutability":"view","type":"function"},{"inputs":[],"name":"pause","outputs":[],"stateMutability":"nonpayable","type":"function"},{"inputs":[],"name":"paused","outputs":[{"internalType":"bool","name":"","type":"bool"}],"stateMutability":"view","type":"function"},{"inputs":[],"name":"proxiableUUID","outputs":[{"internalType":"bytes32","name":"","type":"bytes32"}],"stateMutability":"view","type":"function"},{"inputs":[{"internalType":"address[]","name":"_addresses","type":"address[]"}],"name":"removeFromBacklist","outputs":[],"stateMutability":"nonpayable","type":"function"},{"inputs":[{"internalType":"bytes32","name":"role","type":"bytes32"},{"internalType":"address","name":"account","type":"address"}],"name":"renounceRole","outputs":[],"stateMutability":"nonpayable","type":"function"},{"inputs":[{"internalType":"bytes32","name":"role","type":"bytes32"},{"internalType":"address","name":"account","type":"address"}],"name":"revokeRole","outputs":[],"stateMutability":"nonpayable","type":"function"},{"inputs":[{"internalType":"uint256","name":"","type":"uint256"}],"name":"sellableByRarity","outputs":[{"internalType":"bool","name":"isSellable","type":"bool"},{"internalType":"uint256","name":"minPrice","type":"uint256"}],"stateMutability":"view","type":"function"},{"inputs":[{"internalType":"uint256","name":"_new","type":"uint256"}],"name":"setCooldownByBlockNumber","outputs":[],"stateMutability":"nonpayable","type":"function"},{"inputs":[{"internalType":"uint256","name":"_rarity","type":"uint256"},{"internalType":"bool","name":"_isSellable","type":"bool"},{"internalType":"uint256","name":"_minPrice","type":"uint256"}],"name":"setSellableRule","outputs":[],"stateMutability":"nonpayable","type":"function"},{"inputs":[{"internalType":"address[]","name":"value","type":"address[]"}],"name":"setTokenWhitelist","outputs":[],"stateMutability":"nonpayable","type":"function"},{"inputs":[{"internalType":"bytes4","name":"interfaceId","type":"bytes4"}],"name":"supportsInterface","outputs":[{"internalType":"bool","name":"","type":"bool"}],"stateMutability":"view","type":"function"},{"inputs":[],"name":"taxRate","outputs":[{"internalType":"uint256","name":"","type":"uint256"}],"stateMutability":"view","type":"function"},{"inputs":[{"internalType":"address","name":"","type":"address"}],"name":"tokenWhitelist","outputs":[{"internalType":"bool","name":"","type":"bool"}],"stateMutability":"view","type":"function"},{"inputs":[],"name":"unpause","outputs":[],"stateMutability":"nonpayable","type":"function"},{"inputs":[{"internalType":"address","name":"newImplementation","type":"address"}],"name":"upgradeTo","outputs":[],"stateMutability":"nonpayable","type":"function"},{"inputs":[{"internalType":"address","name":"newImplementation","type":"address"},{"internalType":"bytes","name":"data","type":"bytes"}],"name":"upgradeToAndCall","outputs":[],"stateMutability":"payable","type":"function"},{"inputs":[],"name":"withdraw","outputs":[],"stateMutability":"nonpayable","type":"function"},{"inputs":[{"internalType":"address","name":"tokenAddress","type":"address"}],"name":"withdrawV2","outputs":[],"stateMutability":"nonpayable","type":"function"}],"evm":{"bytecode":{"linkReferences":{},"object":"60a06040523060805234801561001457600080fd5b5060805161381e61004c600039600081816110eb0152818161118101528181611756015281816117ec0152611aaf015261381e6000f3fe6080604052600436106102fd5760003560e01c8063514fcac71161018f578063a217fddf116100e1578063d6febde81161008a578063e63ab1e911610064578063e63ab1e914610958578063f690d9731461098c578063f72c0d8b146109c057600080fd5b8063d6febde8146108d7578063df064ad8146108f7578063e1ae214b1461092b57600080fd5b8063d09ef241116100bb578063d09ef2411461084f578063d547741f14610897578063d56d229d146108b757600080fd5b8063a217fddf14610804578063a459f3ae14610819578063cc3e0df61461082f57600080fd5b8063753d75631161014357806385f438c11161011d57806385f438c11461076a57806391d148541461079e5780639ed36d68146107e457600080fd5b8063753d75631461070e578063771a3a1d1461073f5780638456cb591461075557600080fd5b80635c975abb116101745780635c975abb146106b65780635ec9a943146106ce57806373958428146106ee57600080fd5b8063514fcac71461068157806352d1902d146106a157600080fd5b80632f2ff15d116102535780633f4ba83a116101fc5780634f1b1086116101d65780634f1b1086146105cd5780634f1ef2861461061e578063502817361461063157600080fd5b80633f4ba83a146105785780634665a43f1461058d578063485cc955146105ad57600080fd5b80633659cfe61161022d5780633659cfe61461052357806336d02c94146105435780633ccfd60b1461056357600080fd5b80632f2ff15d146104aa578063333e99db146104ca57806336568abe1461050357600080fd5b806312065fe0116102b5578063248a9ca31161028f578063248a9ca31461043e5780632822dc731461046e5780632da7ea751461048a57600080fd5b806312065fe0146103f35780631ab0d5671461040857806323b70d761461041e57600080fd5b806303a5b1ed116102e657806303a5b1ed1461037957806308b57f311461039b5780630b9a743a146103bb57600080fd5b806301ffc9a71461030257806302d2ff6614610337575b600080fd5b34801561030e57600080fd5b5061032261031d3660046131b2565b6109f4565b60405190151581526020015b60405180910390f35b34801561034357600080fd5b5061036b7febfdca8e46c0b8dacf9989ee613e35727eadd20a1d5e5ad01a53968c7e5fe07a81565b60405190815260200161032e565b34801561038557600080fd5b50610399610394366004613240565b610a05565b005b3480156103a757600080fd5b506103996103b6366004613297565b610a9e565b3480156103c757600080fd5b506005546103db906001600160a01b031681565b6040516001600160a01b03909116815260200161032e565b3480156103ff57600080fd5b5061036b610bc6565b34801561041457600080fd5b5061036b60025481565b34801561042a57600080fd5b506103996104393660046132b4565b610c38565b34801561044a57600080fd5b5061036b6104593660046132ed565b6000908152606d602052604090206001015490565b34801561047a57600080fd5b506040516002815260200161032e565b34801561049657600080fd5b506103996104a536600461334d565b610fa8565b3480156104b657600080fd5b506103996104c53660046133ff565b611030565b3480156104d657600080fd5b506103226104e5366004613297565b6001600160a01b031660009081526004602052604090205460ff1690565b34801561050f57600080fd5b5061039961051e3660046133ff565b611055565b34801561052f57600080fd5b5061039961053e366004613297565b6110e1565b34801561054f57600080fd5b5061039961055e36600461342f565b61127e565b34801561056f57600080fd5b50610399611306565b34801561058457600080fd5b5061039961142d565b34801561059957600080fd5b506103996105a836600461345f565b61145f565b3480156105b957600080fd5b506103996105c8366004613497565b6114c4565b3480156105d957600080fd5b506106076105e83660046132ed565b6003602052600090815260409020805460019091015460ff9091169082565b60408051921515835260208301919091520161032e565b61039961062c3660046134c5565b61174c565b34801561063d57600080fd5b5061065161064c3660046132ed565b6118d6565b604080519586526001600160a01b039485166020870152850192909252606084015216608082015260a00161032e565b34801561068d57600080fd5b5061039961069c3660046132ed565b61197f565b3480156106ad57600080fd5b5061036b611aa2565b3480156106c257600080fd5b50609f5460ff16610322565b3480156106da57600080fd5b506103996106e936600461334d565b611b67565b3480156106fa57600080fd5b506103996107093660046132ed565b611bef565b34801561071a57600080fd5b50610322610729366004613297565b6101366020526000908152604090205460ff1681565b34801561074b57600080fd5b5061036b60005481565b34801561076157600080fd5b50610399611c1f565b34801561077657600080fd5b5061036b7f10dac8c06a04bec0b551627dad28bc00d6516b0caacd1c7b345fcdb5211334e481565b3480156107aa57600080fd5b506103226107b93660046133ff565b6000918252606d602090815260408084206001600160a01b0393909316845291905290205460ff1690565b3480156107f057600080fd5b506103226107ff36600461342f565b611c51565b34801561081057600080fd5b5061036b600081565b34801561082557600080fd5b5061036b60015481565b34801561083b57600080fd5b5061039961084a3660046132ed565b611cac565b34801561085b57600080fd5b5061086f61086a3660046132ed565b611d3d565b604080519485526001600160a01b03909316602085015291830152606082015260800161032e565b3480156108a357600080fd5b506103996108b23660046133ff565b611dd8565b3480156108c357600080fd5b506006546103db906001600160a01b031681565b3480156108e357600080fd5b506103996108f236600461342f565b611dfd565b34801561090357600080fd5b5061036b7f22c69ab406805e70d07fb1a6502af760601d3b977beadb295a9d76d5852e16a381565b34801561093757600080fd5b5061094b610946366004613240565b611e0f565b60405161032e919061356d565b34801561096457600080fd5b5061036b7f65d7a28e3265b37a6474929f336521b332c1681b933f6cb9f3376673440d862a81565b34801561099857600080fd5b5061036b7f8661ae67c9d50f67dbb173ad6369dd93ae94918083bd986295c3ac4e3822f0b881565b3480156109cc57600080fd5b5061036b7f189ab7a9244df0848122154315af71fe140f3db0fe014031783b0946b8c9d2e381565b60006109ff82611edd565b92915050565b7f22c69ab406805e70d07fb1a6502af760601d3b977beadb295a9d76d5852e16a3610a2f81611f74565b60005b82811015610a985760016101366000868685818110610a5357610a536135ba565b9050602002016020810190610a689190613297565b6001600160a01b031681526020810191909152604001600020805460ff1916911515919091179055600101610a32565b50505050565b7f10dac8c06a04bec0b551627dad28bc00d6516b0caacd1c7b345fcdb5211334e4610ac881611f74565b6040516370a0823160e01b81523060048201526001600160a01b0383169063a9059cbb90339083906370a0823190602401602060405180830381865afa158015610b16573d6000803e3d6000fd5b505050506040513d601f19601f82011682018060405250810190610b3a91906135d0565b6040517fffffffff0000000000000000000000000000000000000000000000000000000060e085901b1681526001600160a01b03909216600483015260248201526044016020604051808303816000875af1158015610b9d573d6000803e3d6000fd5b505050506040513d601f19601f82011682018060405250810190610bc191906135e9565b505050565b6005546040516370a0823160e01b81523060048201526000916001600160a01b0316906370a0823190602401602060405180830381865afa158015610c0f573d6000803e3d6000fd5b505050506040513d601f19601f82011682018060405250810190610c3391906135d0565b905090565b610c40611f7e565b816fffffffffffffffffffffffffffffffff168214610c5e57600080fd5b610c683384611fd3565b610cb95760405162461bcd60e51b815260206004820152600d60248201527f4e6f74204e4654206f776e65720000000000000000000000000000000000000060448201526064015b60405180910390fd5b3360009081526004602052604090205460ff1615610d195760405162461bcd60e51b815260206004820152600960248201527f626c61636b6c69737400000000000000000000000000000000000000000000006044820152606401610cb0565b6001600160a01b0381166000908152610136602052604090205460ff16610d825760405162461bcd60e51b815260206004820152601e60248201527f546f6b656e2061646472657373206e6f7420696e2077686974656c69737400006044820152606401610cb0565b6006546040517ffc314e31000000000000000000000000000000000000000000000000000000008152600481018590526000916001600160a01b03169063fc314e3190602401602060405180830381865afa158015610de5573d6000803e3d6000fd5b505050506040513d601f19601f82011682018060405250810190610e0991906135d0565b9050610e158184611c51565b610e615760405162461bcd60e51b815260206004820152601660248201527f6e6f7420706173732073656c6c61626c652072756c65000000000000000000006044820152606401610cb0565b6006546040517fe985e9c50000000000000000000000000000000000000000000000000000000081523360048201523060248201526001600160a01b039091169063e985e9c590604401602060405180830381865afa158015610ec8573d6000803e3d6000fd5b505050506040513d601f19601f82011682018060405250810190610eec91906135e9565b610f385760405162461bcd60e51b815260206004820152601560248201527f6e6f742079657420617070726f7665466f72416c6c00000000000000000000006044820152606401610cb0565b6040805160a0810182528581523360208083019190915281830186905260608201849052426080830152600087815261013590915291909120805473ffffffffffffffffffffffffffffffffffffffff19166001600160a01b038516179055610fa18582612070565b5050505050565b7f8661ae67c9d50f67dbb173ad6369dd93ae94918083bd986295c3ac4e3822f0b8610fd281611f74565b60005b8251811015610bc157600060046000858481518110610ff657610ff66135ba565b6020908102919091018101516001600160a01b03168252810191909152604001600020805460ff1916911515919091179055600101610fd5565b6000828152606d602052604090206001015461104b81611f74565b610bc1838361217d565b6001600160a01b03811633146110d35760405162461bcd60e51b815260206004820152602f60248201527f416363657373436f6e74726f6c3a2063616e206f6e6c792072656e6f756e636560448201527f20726f6c657320666f722073656c6600000000000000000000000000000000006064820152608401610cb0565b6110dd828261221f565b5050565b6001600160a01b037f000000000000000000000000000000000000000000000000000000000000000016300361117f5760405162461bcd60e51b815260206004820152602c60248201527f46756e6374696f6e206d7573742062652063616c6c6564207468726f7567682060448201527f64656c656761746563616c6c00000000000000000000000000000000000000006064820152608401610cb0565b7f00000000000000000000000000000000000000000000000000000000000000006001600160a01b03166111da7f360894a13ba1a3210667c828492db98dca3e2076cc3735a920a3ca505d382bbc546001600160a01b031690565b6001600160a01b0316146112565760405162461bcd60e51b815260206004820152602c60248201527f46756e6374696f6e206d7573742062652063616c6c6564207468726f7567682060448201527f6163746976652070726f787900000000000000000000000000000000000000006064820152608401610cb0565b61125f816122a2565b6040805160008082526020820190925261127b918391906122cc565b50565b7f22c69ab406805e70d07fb1a6502af760601d3b977beadb295a9d76d5852e16a36112a881611f74565b6127108311156112fa5760405162461bcd60e51b815260206004820181905260248201527f74617852617465206d75737420626520696e2072616e676520302d31303030306044820152606401610cb0565b50600091909155600155565b7f10dac8c06a04bec0b551627dad28bc00d6516b0caacd1c7b345fcdb5211334e461133081611f74565b6005546040516370a0823160e01b81523060048201526001600160a01b039091169063a9059cbb90339083906370a0823190602401602060405180830381865afa158015611382573d6000803e3d6000fd5b505050506040513d601f19601f820116820180604052508101906113a691906135d0565b6040517fffffffff0000000000000000000000000000000000000000000000000000000060e085901b1681526001600160a01b03909216600483015260248201526044016020604051808303816000875af1158015611409573d6000803e3d6000fd5b505050506040513d601f19601f820116820180604052508101906110dd91906135e9565b7f65d7a28e3265b37a6474929f336521b332c1681b933f6cb9f3376673440d862a61145781611f74565b61127b61246c565b7f22c69ab406805e70d07fb1a6502af760601d3b977beadb295a9d76d5852e16a361148981611f74565b50604080518082018252921515835260208084019283526000948552600390529092209051815460ff19169015151781559051600190910155565b600854610100900460ff16158080156114e45750600854600160ff909116105b806114fe5750303b1580156114fe575060085460ff166001145b6115705760405162461bcd60e51b815260206004820152602e60248201527f496e697469616c697a61626c653a20636f6e747261637420697320616c72656160448201527f647920696e697469616c697a65640000000000000000000000000000000000006064820152608401610cb0565b6008805460ff191660011790558015611593576008805461ff0019166101001790555b61159b6124be565b6115a361253b565b6115ab6124be565b6115b66000336125c0565b6115e07f65d7a28e3265b37a6474929f336521b332c1681b933f6cb9f3376673440d862a336125c0565b61160a7f10dac8c06a04bec0b551627dad28bc00d6516b0caacd1c7b345fcdb5211334e4336125c0565b6116347f189ab7a9244df0848122154315af71fe140f3db0fe014031783b0946b8c9d2e3336125c0565b61165e7f22c69ab406805e70d07fb1a6502af760601d3b977beadb295a9d76d5852e16a3336125c0565b6116887f8661ae67c9d50f67dbb173ad6369dd93ae94918083bd986295c3ac4e3822f0b8336125c0565b6116b27febfdca8e46c0b8dacf9989ee613e35727eadd20a1d5e5ad01a53968c7e5fe07a336125c0565b600580546001600160a01b0380861673ffffffffffffffffffffffffffffffffffffffff199283161790925560068054928516929091169190911790556101f4600055600a600155620313806002558015610bc1576008805461ff0019169055604051600181527f7f26b83ff96e1f2b6a682f133852f6798a09c465da95921460cefb3847402498906020015b60405180910390a1505050565b6001600160a01b037f00000000000000000000000000000000000000000000000000000000000000001630036117ea5760405162461bcd60e51b815260206004820152602c60248201527f46756e6374696f6e206d7573742062652063616c6c6564207468726f7567682060448201527f64656c656761746563616c6c00000000000000000000000000000000000000006064820152608401610cb0565b7f00000000000000000000000000000000000000000000000000000000000000006001600160a01b03166118457f360894a13ba1a3210667c828492db98dca3e2076cc3735a920a3ca505d382bbc546001600160a01b031690565b6001600160a01b0316146118c15760405162461bcd60e51b815260206004820152602c60248201527f46756e6374696f6e206d7573742062652063616c6c6564207468726f7567682060448201527f6163746976652070726f787900000000000000000000000000000000000000006064820152608401610cb0565b6118ca826122a2565b6110dd828260016122cc565b60008181526007602052604081206004810154829182918291829161193d5760405162461bcd60e51b815260206004820152601160248201527f6f72646572206e6f7420657869737465640000000000000000000000000000006044820152606401610cb0565b6003810154600182015460028301546004909301546000998a5261013560205260409099205491996001600160a01b0391821699939850929650169350915050565b611987611f7e565b600081815260076020526040902060048101546119e65760405162461bcd60e51b815260206004820152601160248201527f6f72646572206e6f7420657869737465640000000000000000000000000000006044820152606401610cb0565b60018101546001600160a01b031633811480611a3057503360009081527f53b80d278ab1f8da3f90a9ab59a48d16b0b672d0df1781096c72a6715d78d74a602052604090205460ff165b611a3957600080fd5b426001548360040154611a4c919061361c565b10611a995760405162461bcd60e51b815260206004820152601d60248201527f636f6f6c646f776e3a206e6f742063616e63656c6c61626c65207965740000006044820152606401610cb0565b610bc1836125ca565b6000306001600160a01b037f00000000000000000000000000000000000000000000000000000000000000001614611b425760405162461bcd60e51b815260206004820152603860248201527f555550535570677261646561626c653a206d757374206e6f742062652063616c60448201527f6c6564207468726f7567682064656c656761746563616c6c00000000000000006064820152608401610cb0565b507f360894a13ba1a3210667c828492db98dca3e2076cc3735a920a3ca505d382bbc90565b7f8661ae67c9d50f67dbb173ad6369dd93ae94918083bd986295c3ac4e3822f0b8611b9181611f74565b60005b8251811015610bc157600160046000858481518110611bb557611bb56135ba565b6020908102919091018101516001600160a01b03168252810191909152604001600020805460ff1916911515919091179055600101611b94565b7f22c69ab406805e70d07fb1a6502af760601d3b977beadb295a9d76d5852e16a3611c1981611f74565b50600255565b7f65d7a28e3265b37a6474929f336521b332c1681b933f6cb9f3376673440d862a611c4981611f74565b61127b612642565b601f602883901c1660008181526003602052604081208054919291633fffffff609187901c169060ff168015611c8b575081600101548510155b8015611ca25750600254611c9f904361362f565b81105b9695505050505050565b611cb461267f565b7febfdca8e46c0b8dacf9989ee613e35727eadd20a1d5e5ad01a53968c7e5fe07a611cde81611f74565b60008281526007602052604090206004810154611a995760405162461bcd60e51b815260206004820152601160248201527f6f72646572206e6f7420657869737465640000000000000000000000000000006044820152606401610cb0565b6000818152600760205260408120819081908190611d5e8160040154151590565b611daa5760405162461bcd60e51b815260206004820152601160248201527f6f72646572206e6f7420657869737465640000000000000000000000000000006044820152606401610cb0565b60038101546001820154600283015460049093015491986001600160a01b0390911697509195509350915050565b6000828152606d6020526040902060010154611df381611f74565b610bc1838361221f565b611e05611f7e565b6110dd82826126d1565b606060008267ffffffffffffffff811115611e2c57611e2c613306565b604051908082528060200260200182016040528015611e55578160200160208202803683370190505b50905060005b83811015611ed5576101356000868684818110611e7a57611e7a6135ba565b90506020020135815260200190815260200160002060009054906101000a90046001600160a01b0316828281518110611eb557611eb56135ba565b6001600160a01b0390921660209283029190910190910152600101611e5b565b509392505050565b60007fffffffff0000000000000000000000000000000000000000000000000000000082167f7965db0b0000000000000000000000000000000000000000000000000000000014806109ff57507f01ffc9a7000000000000000000000000000000000000000000000000000000007fffffffff000000000000000000000000000000000000000000000000000000008316146109ff565b61127b8133612b9a565b609f5460ff1615611fd15760405162461bcd60e51b815260206004820152601060248201527f5061757361626c653a20706175736564000000000000000000000000000000006044820152606401610cb0565b565b6006546040517f6352211e000000000000000000000000000000000000000000000000000000008152600481018390526000916001600160a01b0385811692911690636352211e90602401602060405180830381865afa15801561203b573d6000803e3d6000fd5b505050506040513d601f19601f8201168201806040525081019061205f9190613642565b6001600160a01b0316149392505050565b60008281526007602052604090206004810154156120d05760405162461bcd60e51b815260206004820152600d60248201527f6f726465722065786973746564000000000000000000000000000000000000006044820152606401610cb0565b600083815260076020908152604091829020845181558482015160018201805473ffffffffffffffffffffffffffffffffffffffff19166001600160a01b0390921691821790558584015160028301819055606080880151600385018190556080808a015160049096019590955586518a81529586019290925294840152928201929092527f6ee1eb8a5bd09a76dec365663730674d33e85e267c5f5acdaa8a086b3f089b87910161173f565b6000828152606d602090815260408083206001600160a01b038516845290915290205460ff166110dd576000828152606d602090815260408083206001600160a01b03851684529091529020805460ff191660011790556121db3390565b6001600160a01b0316816001600160a01b0316837f2f8788117e7eff1d82e926ec794901d17c78024a50270940304540a733656f0d60405160405180910390a45050565b6000828152606d602090815260408083206001600160a01b038516845290915290205460ff16156110dd576000828152606d602090815260408083206001600160a01b0385168085529252808320805460ff1916905551339285917ff6391f5c32d9c69d2a47ea670b442974b53935d1edc7fd64eb21e047a839171b9190a45050565b7f189ab7a9244df0848122154315af71fe140f3db0fe014031783b0946b8c9d2e36110dd81611f74565b7f4910fdfa16fed3260ed0e7147f7cc6da11a60208b5b9406d12a635614ffd91435460ff16156122ff57610bc183612c0f565b826001600160a01b03166352d1902d6040518163ffffffff1660e01b8152600401602060405180830381865afa925050508015612359575060408051601f3d908101601f19168201909252612356918101906135d0565b60015b6123cb5760405162461bcd60e51b815260206004820152602e60248201527f45524331393637557067726164653a206e657720696d706c656d656e7461746960448201527f6f6e206973206e6f7420555550530000000000000000000000000000000000006064820152608401610cb0565b7f360894a13ba1a3210667c828492db98dca3e2076cc3735a920a3ca505d382bbc81146124605760405162461bcd60e51b815260206004820152602960248201527f45524331393637557067726164653a20756e737570706f727465642070726f7860448201527f6961626c655555494400000000000000000000000000000000000000000000006064820152608401610cb0565b50610bc1838383612cda565b61247461267f565b609f805460ff191690557f5db9ee0a495bf2e6ff9c91a7834c1ba4fdd244a5e8aa4e537bd38aeae4b073aa335b6040516001600160a01b03909116815260200160405180910390a1565b600854610100900460ff16611fd15760405162461bcd60e51b815260206004820152602b60248201527f496e697469616c697a61626c653a20636f6e7472616374206973206e6f74206960448201527f6e697469616c697a696e670000000000000000000000000000000000000000006064820152608401610cb0565b600854610100900460ff166125b85760405162461bcd60e51b815260206004820152602b60248201527f496e697469616c697a61626c653a20636f6e7472616374206973206e6f74206960448201527f6e697469616c697a696e670000000000000000000000000000000000000000006064820152608401610cb0565b611fd1612cff565b6110dd828261217d565b600081815260076020526040812081815560018101805473ffffffffffffffffffffffffffffffffffffffff191690556002810182905560038101829055600401556040518181527f935c9ad2f1fda9d7eae0d2a512f1521cb7190ee06165414e722366a65975fb6b9060200160405180910390a150565b61264a611f7e565b609f805460ff191660011790557f62e78cea01bee320cd4e420270b5ea74000d11b0c9f74754ebdbfc544b05a2586124a13390565b609f5460ff16611fd15760405162461bcd60e51b815260206004820152601460248201527f5061757361626c653a206e6f74207061757365640000000000000000000000006044820152606401610cb0565b600082815260076020526040902060048101546127305760405162461bcd60e51b815260206004820152601160248201527f6f72646572206e6f7420657869737465640000000000000000000000000000006044820152606401610cb0565b806002015482146127835760405162461bcd60e51b815260206004820152601d60248201527f7072696365206973206e6f74206d617463682077697468206f726465720000006044820152606401610cb0565b600181015460038201546006546040517fe985e9c50000000000000000000000000000000000000000000000000000000081526001600160a01b0393841660048201819052306024830152939091169063e985e9c590604401602060405180830381865afa1580156127f9573d6000803e3d6000fd5b505050506040513d601f19601f8201168201806040525081019061281d91906135e9565b6128695760405162461bcd60e51b815260206004820152601560248201527f6e6f742079657420617070726f7665466f72416c6c00000000000000000000006044820152606401610cb0565b600085815260076020526040812081815560018101805473ffffffffffffffffffffffffffffffffffffffff1916905560028101829055600381018290556004015560006128b685612d88565b905060006128c48683612da5565b905060006128d188612db8565b905060006001600160a01b0382166128f4576005546001600160a01b03166128f6565b815b6040517f23b872dd000000000000000000000000000000000000000000000000000000008152336004820152306024820152604481018690529091506001600160a01b038216906323b872dd906064016020604051808303816000875af1158015612965573d6000803e3d6000fd5b505050506040513d601f19601f8201168201806040525081019061298991906135e9565b6129d55760405162461bcd60e51b815260206004820181905260248201527f6661696c20746f207472616e736665722062636f696e20746f206d61726b65746044820152606401610cb0565b6040517f23b872dd0000000000000000000000000000000000000000000000000000000081523360048201526001600160a01b038781166024830152604482018590528216906323b872dd906064016020604051808303816000875af1158015612a43573d6000803e3d6000fd5b505050506040513d601f19601f82011682018060405250810190612a6791906135e9565b612ab35760405162461bcd60e51b815260206004820181905260248201527f6661696c20746f207472616e736665722062636f696e20746f2073656c6c65726044820152606401610cb0565b6006546040517f42842e0e0000000000000000000000000000000000000000000000000000000081526001600160a01b038881166004830152336024830152604482018c9052909116906342842e0e90606401600060405180830381600087803b158015612b2057600080fd5b505af1158015612b34573d6000803e3d6000fd5b5050604080518c8152602081018c90529081018890526001600160a01b03891660608201523360808201527f95c89a9d10e4c04e4a14d2a484dba4070c7246be033fdc7797f5eac556eeb469925060a001905060405180910390a1505050505050505050565b6000828152606d602090815260408083206001600160a01b038516845290915290205460ff166110dd57612bcd81612e03565b612bd8836020612e15565b604051602001612be9929190613683565b60408051601f198184030181529082905262461bcd60e51b8252610cb091600401613704565b6001600160a01b0381163b612c8c5760405162461bcd60e51b815260206004820152602d60248201527f455243313936373a206e657720696d706c656d656e746174696f6e206973206e60448201527f6f74206120636f6e7472616374000000000000000000000000000000000000006064820152608401610cb0565b7f360894a13ba1a3210667c828492db98dca3e2076cc3735a920a3ca505d382bbc805473ffffffffffffffffffffffffffffffffffffffff19166001600160a01b0392909216919091179055565b612ce38361303e565b600082511180612cf05750805b15610bc157610a98838361307e565b600854610100900460ff16612d7c5760405162461bcd60e51b815260206004820152602b60248201527f496e697469616c697a61626c653a20636f6e7472616374206973206e6f74206960448201527f6e697469616c697a696e670000000000000000000000000000000000000000006064820152608401610cb0565b609f805460ff19169055565b600061271060005483612d9b9190613737565b6109ff919061374e565b6000612db1828461362f565b9392505050565b600081815261013560205260408120546001600160a01b0316612de6576005546001600160a01b03166109ff565b50600090815261013560205260409020546001600160a01b031690565b60606109ff6001600160a01b03831660145b60606000612e24836002613737565b612e2f90600261361c565b67ffffffffffffffff811115612e4757612e47613306565b6040519080825280601f01601f191660200182016040528015612e71576020820181803683370190505b5090507f300000000000000000000000000000000000000000000000000000000000000081600081518110612ea857612ea86135ba565b60200101907effffffffffffffffffffffffffffffffffffffffffffffffffffffffffffff1916908160001a9053507f780000000000000000000000000000000000000000000000000000000000000081600181518110612f0b57612f0b6135ba565b60200101907effffffffffffffffffffffffffffffffffffffffffffffffffffffffffffff1916908160001a9053506000612f47846002613737565b612f5290600161361c565b90505b6001811115612fef577f303132333435363738396162636465660000000000000000000000000000000085600f1660108110612f9357612f936135ba565b1a60f81b828281518110612fa957612fa96135ba565b60200101907effffffffffffffffffffffffffffffffffffffffffffffffffffffffffffff1916908160001a90535060049490941c93612fe881613770565b9050612f55565b508315612db15760405162461bcd60e51b815260206004820181905260248201527f537472696e67733a20686578206c656e67746820696e73756666696369656e746044820152606401610cb0565b61304781612c0f565b6040516001600160a01b038216907fbc7cd75a20ee27fd9adebab32041f755214dbc6bffa90cc0225b39da2e5c2d3b90600090a250565b6060612db183836040518060600160405280602781526020016137c2602791396060600080856001600160a01b0316856040516130bb91906137a5565b600060405180830381855af49150503d80600081146130f6576040519150601f19603f3d011682016040523d82523d6000602084013e6130fb565b606091505b5091509150611ca2868383876060831561317657825160000361316f576001600160a01b0385163b61316f5760405162461bcd60e51b815260206004820152601d60248201527f416464726573733a2063616c6c20746f206e6f6e2d636f6e74726163740000006044820152606401610cb0565b5081613180565b6131808383613188565b949350505050565b8151156131985781518083602001fd5b8060405162461bcd60e51b8152600401610cb09190613704565b6000602082840312156131c457600080fd5b81357fffffffff0000000000000000000000000000000000000000000000000000000081168114612db157600080fd5b60008083601f84011261320657600080fd5b50813567ffffffffffffffff81111561321e57600080fd5b6020830191508360208260051b850101111561323957600080fd5b9250929050565b6000806020838503121561325357600080fd5b823567ffffffffffffffff81111561326a57600080fd5b613276858286016131f4565b90969095509350505050565b6001600160a01b038116811461127b57600080fd5b6000602082840312156132a957600080fd5b8135612db181613282565b6000806000606084860312156132c957600080fd5b833592506020840135915060408401356132e281613282565b809150509250925092565b6000602082840312156132ff57600080fd5b5035919050565b634e487b7160e01b600052604160045260246000fd5b604051601f8201601f1916810167ffffffffffffffff8111828210171561334557613345613306565b604052919050565b6000602080838503121561336057600080fd5b823567ffffffffffffffff8082111561337857600080fd5b818501915085601f83011261338c57600080fd5b81358181111561339e5761339e613306565b8060051b91506133af84830161331c565b81815291830184019184810190888411156133c957600080fd5b938501935b838510156133f357843592506133e383613282565b82825293850193908501906133ce565b98975050505050505050565b6000806040838503121561341257600080fd5b82359150602083013561342481613282565b809150509250929050565b6000806040838503121561344257600080fd5b50508035926020909101359150565b801515811461127b57600080fd5b60008060006060848603121561347457600080fd5b83359250602084013561348681613451565b929592945050506040919091013590565b600080604083850312156134aa57600080fd5b82356134b581613282565b9150602083013561342481613282565b600080604083850312156134d857600080fd5b82356134e381613282565b915060208381013567ffffffffffffffff8082111561350157600080fd5b818601915086601f83011261351557600080fd5b81358181111561352757613527613306565b61353984601f19601f8401160161331c565b9150808252878482850101111561354f57600080fd5b80848401858401376000848284010152508093505050509250929050565b6020808252825182820181905260009190848201906040850190845b818110156135ae5783516001600160a01b031683529284019291840191600101613589565b50909695505050505050565b634e487b7160e01b600052603260045260246000fd5b6000602082840312156135e257600080fd5b5051919050565b6000602082840312156135fb57600080fd5b8151612db181613451565b634e487b7160e01b600052601160045260246000fd5b808201808211156109ff576109ff613606565b818103818111156109ff576109ff613606565b60006020828403121561365457600080fd5b8151612db181613282565b60005b8381101561367a578181015183820152602001613662565b50506000910152565b7f416363657373436f6e74726f6c3a206163636f756e74200000000000000000008152600083516136bb81601785016020880161365f565b7f206973206d697373696e6720726f6c652000000000000000000000000000000060179184019182015283516136f881602884016020880161365f565b01602801949350505050565b602081526000825180602084015261372381604085016020870161365f565b601f01601f19169190910160400192915050565b80820281158282048414176109ff576109ff613606565b60008261376b57634e487b7160e01b600052601260045260246000fd5b500490565b60008161377f5761377f613606565b507fffffffffffffffffffffffffffffffffffffffffffffffffffffffffffffffff0190565b600082516137b781846020870161365f565b919091019291505056fe416464726573733a206c6f772d6c6576656c2064656c65676174652063616c6c206661696c6564a26469706673582212206eb16e7a1ed4785af6218859a5fe0e86c6819d9fefc08b7a60fd3c1c3b3c370864736f6c63430008180033","opcodes":"PUSH1 0xA0 PUSH1 0x40 MSTORE ADDRESS PUSH1 0x80 MSTORE CALLVALUE DUP1 ISZERO PUSH2 0x14 JUMPI PUSH1 0x0 DUP1 REVERT JUMPDEST POP PUSH1 0x80 MLOAD PUSH2 0x381E PUSH2 0x4C PUSH1 0x0 CODECOPY PUSH1 0x0 DUP2 DUP2 PUSH2 0x10EB ADD MSTORE DUP2 DUP2 PUSH2 0x1181 ADD MSTORE DUP2 DUP2 PUSH2 0x1756 ADD MSTORE DUP2 DUP2 PUSH2 0x17EC ADD MSTORE PUSH2 0x1AAF ADD MSTORE PUSH2 0x381E PUSH1 0x0 RETURN INVALID PUSH1 0x80 PUSH1 0x40 MSTORE PUSH1 0x4 CALLDATASIZE LT PUSH2 0x2FD JUMPI PUSH1 0x0 CALLDATALOAD PUSH1 0xE0 SHR DUP1 PUSH4 0x514FCAC7 GT PUSH2 0x18F JUMPI DUP1 PUSH4 0xA217FDDF GT PUSH2 0xE1 JUMPI DUP1 PUSH4 0xD6FEBDE8 GT PUSH2 0x8A JUMPI DUP1 PUSH4 0xE63AB1E9 GT PUSH2 0x64 JUMPI DUP1 PUSH4 0xE63AB1E9 EQ PUSH2 0x958 JUMPI DUP1 PUSH4 0xF690D973 EQ PUSH2 0x98C JUMPI DUP1 PUSH4 0xF72C0D8B EQ PUSH2 0x9C0 JUMPI PUSH1 0x0 DUP1 REVERT JUMPDEST DUP1 PUSH4 0xD6FEBDE8 EQ PUSH2 0x8D7 JUMPI DUP1 PUSH4 0xDF064AD8 EQ PUSH2 0x8F7 JUMPI DUP1 PUSH4 0xE1AE214B EQ PUSH2 0x92B JUMPI PUSH1 0x0 DUP1 REVERT JUMPDEST DUP1 PUSH4 0xD09EF241 GT PUSH2 0xBB JUMPI DUP1 PUSH4 0xD09EF241 EQ PUSH2 0x84F JUMPI DUP1 PUSH4 0xD547741F EQ PUSH2 0x897 JUMPI DUP1 PUSH4 0xD56D229D EQ PUSH2 0x8B7 JUMPI PUSH1 0x0 DUP1 REVERT JUMPDEST DUP1 PUSH4 0xA217FDDF EQ PUSH2 0x804 JUMPI DUP1 PUSH4 0xA459F3AE EQ PUSH2 0x819 JUMPI DUP1 PUSH4 0xCC3E0DF6 EQ PUSH2 0x82F JUMPI PUSH1 0x0 DUP1 REVERT JUMPDEST DUP1 PUSH4 0x753D7563 GT PUSH2 0x143 JUMPI DUP1 PUSH4 0x85F438C1 GT PUSH2 0x11D JUMPI DUP1 PUSH4 0x85F438C1 EQ PUSH2 0x76A JUMPI DUP1 PUSH4 0x91D14854 EQ PUSH2 0x79E JUMPI DUP1 PUSH4 0x9ED36D68 EQ PUSH2 0x7E4 JUMPI PUSH1 0x0 DUP1 REVERT JUMPDEST DUP1 PUSH4 0x753D7563 EQ PUSH2 0x70E JUMPI DUP1 PUSH4 0x771A3A1D EQ PUSH2 0x73F JUMPI DUP1 PUSH4 0x8456CB59 EQ PUSH2 0x755 JUMPI PUSH1 0x0 DUP1 REVERT JUMPDEST DUP1 PUSH4 0x5C975ABB GT PUSH2 0x174 JUMPI DUP1 PUSH4 0x5C975ABB EQ PUSH2 0x6B6 JUMPI DUP1 PUSH4 0x5EC9A943 EQ PUSH2 0x6CE JUMPI DUP1 PUSH4 0x73958428 EQ PUSH2 0x6EE JUMPI PUSH1 0x0 DUP1 REVERT JUMPDEST DUP1 PUSH4 0x514FCAC7 EQ PUSH2 0x681 JUMPI DUP1 PUSH4 0x52D1902D EQ PUSH2 0x6A1 JUMPI PUSH1 0x0 DUP1 REVERT JUMPDEST DUP1 PUSH4 0x2F2FF15D GT PUSH2 0x253 JUMPI DUP1 PUSH4 0x3F4BA83A GT PUSH2 0x1FC JUMPI DUP1 PUSH4 0x4F1B1086 GT PUSH2 0x1D6 JUMPI DUP1 PUSH4 0x4F1B1086 EQ PUSH2 0x5CD JUMPI DUP1 PUSH4 0x4F1EF286 EQ PUSH2 0x61E JUMPI DUP1 PUSH4 0x50281736 EQ PUSH2 0x631 JUMPI PUSH1 0x0 DUP1 REVERT JUMPDEST DUP1 PUSH4 0x3F4BA83A EQ PUSH2 0x578 JUMPI DUP1 PUSH4 0x4665A43F EQ PUSH2 0x58D JUMPI DUP1 PUSH4 0x485CC955 EQ PUSH2 0x5AD JUMPI PUSH1 0x0 DUP1 REVERT JUMPDEST DUP1 PUSH4 0x3659CFE6 GT PUSH2 0x22D JUMPI DUP1 PUSH4 0x3659CFE6 EQ PUSH2 0x523 JUMPI DUP1 PUSH4 0x36D02C94 EQ PUSH2 0x543 JUMPI DUP1 PUSH4 0x3CCFD60B EQ PUSH2 0x563 JUMPI PUSH1 0x0 DUP1 REVERT JUMPDEST DUP1 PUSH4 0x2F2FF15D EQ PUSH2 0x4AA JUMPI DUP1 PUSH4 0x333E99DB EQ PUSH2 0x4CA JUMPI DUP1 PUSH4 0x36568ABE EQ PUSH2 0x503 JUMPI PUSH1 0x0 DUP1 REVERT JUMPDEST DUP1 PUSH4 0x12065FE0 GT PUSH2 0x2B5 JUMPI DUP1 PUSH4 0x248A9CA3 GT PUSH2 0x28F JUMPI DUP1 PUSH4 0x248A9CA3 EQ PUSH2 0x43E JUMPI DUP1 PUSH4 0x2822DC73 EQ PUSH2 0x46E JUMPI DUP1 PUSH4 0x2DA7EA75 EQ PUSH2 0x48A JUMPI PUSH1 0x0 DUP1 REVERT JUMPDEST DUP1 PUSH4 0x12065FE0 EQ PUSH2 0x3F3 JUMPI DUP1 PUSH4 0x1AB0D567 EQ PUSH2 0x408 JUMPI DUP1 PUSH4 0x23B70D76 EQ PUSH2 0x41E JUMPI PUSH1 0x0 DUP1 REVERT JUMPDEST DUP1 PUSH4 0x3A5B1ED GT PUSH2 0x2E6 JUMPI DUP1 PUSH4 0x3A5B1ED EQ PUSH2 0x379 JUMPI DUP1 PUSH4 0x8B57F31 EQ PUSH2 0x39B JUMPI DUP1 PUSH4 0xB9A743A EQ PUSH2 0x3BB JUMPI PUSH1 0x0 DUP1 REVERT JUMPDEST DUP1 PUSH4 0x1FFC9A7 EQ PUSH2 0x302 JUMPI DUP1 PUSH4 0x2D2FF66 EQ PUSH2 0x337 JUMPI JUMPDEST PUSH1 0x0 DUP1 REVERT JUMPDEST CALLVALUE DUP1 ISZERO PUSH2 0x30E JUMPI PUSH1 0x0 DUP1 REVERT JUMPDEST POP PUSH2 0x322 PUSH2 0x31D CALLDATASIZE PUSH1 0x4 PUSH2 0x31B2 JUMP JUMPDEST PUSH2 0x9F4 JUMP JUMPDEST PUSH1 0x40 MLOAD SWAP1 ISZERO ISZERO DUP2 MSTORE PUSH1 0x20 ADD JUMPDEST PUSH1 0x40 MLOAD DUP1 SWAP2 SUB SWAP1 RETURN JUMPDEST CALLVALUE DUP1 ISZERO PUSH2 0x343 JUMPI PUSH1 0x0 DUP1 REVERT JUMPDEST POP PUSH2 0x36B PUSH32 0xEBFDCA8E46C0B8DACF9989EE613E35727EADD20A1D5E5AD01A53968C7E5FE07A DUP2 JUMP JUMPDEST PUSH1 0x40 MLOAD SWAP1 DUP2 MSTORE PUSH1 0x20 ADD PUSH2 0x32E JUMP JUMPDEST CALLVALUE DUP1 ISZERO PUSH2 0x385 JUMPI PUSH1 0x0 DUP1 REVERT JUMPDEST POP PUSH2 0x399 PUSH2 0x394 CALLDATASIZE PUSH1 0x4 PUSH2 0x3240 JUMP JUMPDEST PUSH2 0xA05 JUMP JUMPDEST STOP JUMPDEST CALLVALUE DUP1 ISZERO PUSH2 0x3A7 JUMPI PUSH1 0x0 DUP1 REVERT JUMPDEST POP PUSH2 0x399 PUSH2 0x3B6 CALLDATASIZE PUSH1 0x4 PUSH2 0x3297 JUMP JUMPDEST PUSH2 0xA9E JUMP JUMPDEST CALLVALUE DUP1 ISZERO PUSH2 0x3C7 JUMPI PUSH1 0x0 DUP1 REVERT JUMPDEST POP PUSH1 0x5 SLOAD PUSH2 0x3DB SWAP1 PUSH1 0x1 PUSH1 0x1 PUSH1 0xA0 SHL SUB AND DUP2 JUMP JUMPDEST PUSH1 0x40 MLOAD PUSH1 0x1 PUSH1 0x1 PUSH1 0xA0 SHL SUB SWAP1 SWAP2 AND DUP2 MSTORE PUSH1 0x20 ADD PUSH2 0x32E JUMP JUMPDEST CALLVALUE DUP1 ISZERO PUSH2 0x3FF JUMPI PUSH1 0x0 DUP1 REVERT JUMPDEST POP PUSH2 0x36B PUSH2 0xBC6 JUMP JUMPDEST CALLVALUE DUP1 ISZERO PUSH2 0x414 JUMPI PUSH1 0x0 DUP1 REVERT JUMPDEST POP PUSH2 0x36B PUSH1 0x2 SLOAD DUP2 JUMP JUMPDEST CALLVALUE DUP1 ISZERO PUSH2 0x42A JUMPI PUSH1 0x0 DUP1 REVERT JUMPDEST POP PUSH2 0x399 PUSH2 0x439 CALLDATASIZE PUSH1 0x4 PUSH2 0x32B4 JUMP JUMPDEST PUSH2 0xC38 JUMP JUMPDEST CALLVALUE DUP1 ISZERO PUSH2 0x44A JUMPI PUSH1 0x0 DUP1 REVERT JUMPDEST POP PUSH2 0x36B PUSH2 0x459 CALLDATASIZE PUSH1 0x4 PUSH2 0x32ED JUMP JUMPDEST PUSH1 0x0 SWAP1 DUP2 MSTORE PUSH1 0x6D PUSH1 0x20 MSTORE PUSH1 0x40 SWAP1 KECCAK256 PUSH1 0x1 ADD SLOAD SWAP1 JUMP JUMPDEST CALLVALUE DUP1 ISZERO PUSH2 0x47A JUMPI PUSH1 0x0 DUP1 REVERT JUMPDEST POP PUSH1 0x40 MLOAD PUSH1 0x2 DUP2 MSTORE PUSH1 0x20 ADD PUSH2 0x32E JUMP JUMPDEST CALLVALUE DUP1 ISZERO PUSH2 0x496 JUMPI PUSH1 0x0 DUP1 REVERT JUMPDEST POP PUSH2 0x399 PUSH2 0x4A5 CALLDATASIZE PUSH1 0x4 PUSH2 0x334D JUMP JUMPDEST PUSH2 0xFA8 JUMP JUMPDEST CALLVALUE DUP1 ISZERO PUSH2 0x4B6 JUMPI PUSH1 0x0 DUP1 REVERT JUMPDEST POP PUSH2 0x399 PUSH2 0x4C5 CALLDATASIZE PUSH1 0x4 PUSH2 0x33FF JUMP JUMPDEST PUSH2 0x1030 JUMP JUMPDEST CALLVALUE DUP1 ISZERO PUSH2 0x4D6 JUMPI PUSH1 0x0 DUP1 REVERT JUMPDEST POP PUSH2 0x322 PUSH2 0x4E5 CALLDATASIZE PUSH1 0x4 PUSH2 0x3297 JUMP JUMPDEST PUSH1 0x1 PUSH1 0x1 PUSH1 0xA0 SHL SUB AND PUSH1 0x0 SWAP1 DUP2 MSTORE PUSH1 0x4 PUSH1 0x20 MSTORE PUSH1 0x40 SWAP1 KECCAK256 SLOAD PUSH1 0xFF AND SWAP1 JUMP JUMPDEST CALLVALUE DUP1 ISZERO PUSH2 0x50F JUMPI PUSH1 0x0 DUP1 REVERT JUMPDEST POP PUSH2 0x399 PUSH2 0x51E CALLDATASIZE PUSH1 0x4 PUSH2 0x33FF JUMP JUMPDEST PUSH2 0x1055 JUMP JUMPDEST CALLVALUE DUP1 ISZERO PUSH2 0x52F JUMPI PUSH1 0x0 DUP1 REVERT JUMPDEST POP PUSH2 0x399 PUSH2 0x53E CALLDATASIZE PUSH1 0x4 PUSH2 0x3297 JUMP JUMPDEST PUSH2 0x10E1 JUMP JUMPDEST CALLVALUE DUP1 ISZERO PUSH2 0x54F JUMPI PUSH1 0x0 DUP1 REVERT JUMPDEST POP PUSH2 0x399 PUSH2 0x55E CALLDATASIZE PUSH1 0x4 PUSH2 0x342F JUMP JUMPDEST PUSH2 0x127E JUMP JUMPDEST CALLVALUE DUP1 ISZERO PUSH2 0x56F JUMPI PUSH1 0x0 DUP1 REVERT JUMPDEST POP PUSH2 0x399 PUSH2 0x1306 JUMP JUMPDEST CALLVALUE DUP1 ISZERO PUSH2 0x584 JUMPI PUSH1 0x0 DUP1 REVERT JUMPDEST POP PUSH2 0x399 PUSH2 0x142D JUMP JUMPDEST CALLVALUE DUP1 ISZERO PUSH2 0x599 JUMPI PUSH1 0x0 DUP1 REVERT JUMPDEST POP PUSH2 0x399 PUSH2 0x5A8 CALLDATASIZE PUSH1 0x4 PUSH2 0x345F JUMP JUMPDEST PUSH2 0x145F JUMP JUMPDEST CALLVALUE DUP1 ISZERO PUSH2 0x5B9 JUMPI PUSH1 0x0 DUP1 REVERT JUMPDEST POP PUSH2 0x399 PUSH2 0x5C8 CALLDATASIZE PUSH1 0x4 PUSH2 0x3497 JUMP JUMPDEST PUSH2 0x14C4 JUMP JUMPDEST CALLVALUE DUP1 ISZERO PUSH2 0x5D9 JUMPI PUSH1 0x0 DUP1 REVERT JUMPDEST POP PUSH2 0x607 PUSH2 0x5E8 CALLDATASIZE PUSH1 0x4 PUSH2 0x32ED JUMP JUMPDEST PUSH1 0x3 PUSH1 0x20 MSTORE PUSH1 0x0 SWAP1 DUP2 MSTORE PUSH1 0x40 SWAP1 KECCAK256 DUP1 SLOAD PUSH1 0x1 SWAP1 SWAP2 ADD SLOAD PUSH1 0xFF SWAP1 SWAP2 AND SWAP1 DUP3 JUMP JUMPDEST PUSH1 0x40 DUP1 MLOAD SWAP3 ISZERO ISZERO DUP4 MSTORE PUSH1 0x20 DUP4 ADD SWAP2 SWAP1 SWAP2 MSTORE ADD PUSH2 0x32E JUMP JUMPDEST PUSH2 0x399 PUSH2 0x62C CALLDATASIZE PUSH1 0x4 PUSH2 0x34C5 JUMP JUMPDEST PUSH2 0x174C JUMP JUMPDEST CALLVALUE DUP1 ISZERO PUSH2 0x63D JUMPI PUSH1 0x0 DUP1 REVERT JUMPDEST POP PUSH2 0x651 PUSH2 0x64C CALLDATASIZE PUSH1 0x4 PUSH2 0x32ED JUMP JUMPDEST PUSH2 0x18D6 JUMP JUMPDEST PUSH1 0x40 DUP1 MLOAD SWAP6 DUP7 MSTORE PUSH1 0x1 PUSH1 0x1 PUSH1 0xA0 SHL SUB SWAP5 DUP6 AND PUSH1 0x20 DUP8 ADD MSTORE DUP6 ADD SWAP3 SWAP1 SWAP3 MSTORE PUSH1 0x60 DUP5 ADD MSTORE AND PUSH1 0x80 DUP3 ADD MSTORE PUSH1 0xA0 ADD PUSH2 0x32E JUMP JUMPDEST CALLVALUE DUP1 ISZERO PUSH2 0x68D JUMPI PUSH1 0x0 DUP1 REVERT JUMPDEST POP PUSH2 0x399 PUSH2 0x69C CALLDATASIZE PUSH1 0x4 PUSH2 0x32ED JUMP JUMPDEST PUSH2 0x197F JUMP JUMPDEST CALLVALUE DUP1 ISZERO PUSH2 0x6AD JUMPI PUSH1 0x0 DUP1 REVERT JUMPDEST POP PUSH2 0x36B PUSH2 0x1AA2 JUMP JUMPDEST CALLVALUE DUP1 ISZERO PUSH2 0x6C2 JUMPI PUSH1 0x0 DUP1 REVERT JUMPDEST POP PUSH1 0x9F SLOAD PUSH1 0xFF AND PUSH2 0x322 JUMP JUMPDEST CALLVALUE DUP1 ISZERO PUSH2 0x6DA JUMPI PUSH1 0x0 DUP1 REVERT JUMPDEST POP PUSH2 0x399 PUSH2 0x6E9 CALLDATASIZE PUSH1 0x4 PUSH2 0x334D JUMP JUMPDEST PUSH2 0x1B67 JUMP JUMPDEST CALLVALUE DUP1 ISZERO PUSH2 0x6FA JUMPI PUSH1 0x0 DUP1 REVERT JUMPDEST POP PUSH2 0x399 PUSH2 0x709 CALLDATASIZE PUSH1 0x4 PUSH2 0x32ED JUMP JUMPDEST PUSH2 0x1BEF JUMP JUMPDEST CALLVALUE DUP1 ISZERO PUSH2 0x71A JUMPI PUSH1 0x0 DUP1 REVERT JUMPDEST POP PUSH2 0x322 PUSH2 0x729 CALLDATASIZE PUSH1 0x4 PUSH2 0x3297 JUMP JUMPDEST PUSH2 0x136 PUSH1 0x20 MSTORE PUSH1 0x0 SWAP1 DUP2 MSTORE PUSH1 0x40 SWAP1 KECCAK256 SLOAD PUSH1 0xFF AND DUP2 JUMP JUMPDEST CALLVALUE DUP1 ISZERO PUSH2 0x74B JUMPI PUSH1 0x0 DUP1 REVERT JUMPDEST POP PUSH2 0x36B PUSH1 0x0 SLOAD DUP2 JUMP JUMPDEST CALLVALUE DUP1 ISZERO PUSH2 0x761 JUMPI PUSH1 0x0 DUP1 REVERT JUMPDEST POP PUSH2 0x399 PUSH2 0x1C1F JUMP JUMPDEST CALLVALUE DUP1 ISZERO PUSH2 0x776 JUMPI PUSH1 0x0 DUP1 REVERT JUMPDEST POP PUSH2 0x36B PUSH32 0x10DAC8C06A04BEC0B551627DAD28BC00D6516B0CAACD1C7B345FCDB5211334E4 DUP2 JUMP JUMPDEST CALLVALUE DUP1 ISZERO PUSH2 0x7AA JUMPI PUSH1 0x0 DUP1 REVERT JUMPDEST POP PUSH2 0x322 PUSH2 0x7B9 CALLDATASIZE PUSH1 0x4 PUSH2 0x33FF JUMP JUMPDEST PUSH1 0x0 SWAP2 DUP3 MSTORE PUSH1 0x6D PUSH1 0x20 SWAP1 DUP2 MSTORE PUSH1 0x40 DUP1 DUP5 KECCAK256 PUSH1 0x1 PUSH1 0x1 PUSH1 0xA0 SHL SUB SWAP4 SWAP1 SWAP4 AND DUP5 MSTORE SWAP2 SWAP1 MSTORE SWAP1 KECCAK256 SLOAD PUSH1 0xFF AND SWAP1 JUMP JUMPDEST CALLVALUE DUP1 ISZERO PUSH2 0x7F0 JUMPI PUSH1 0x0 DUP1 REVERT JUMPDEST POP PUSH2 0x322 PUSH2 0x7FF CALLDATASIZE PUSH1 0x4 PUSH2 0x342F JUMP JUMPDEST PUSH2 0x1C51 JUMP JUMPDEST CALLVALUE DUP1 ISZERO PUSH2 0x810 JUMPI PUSH1 0x0 DUP1 REVERT JUMPDEST POP PUSH2 0x36B PUSH1 0x0 DUP2 JUMP JUMPDEST CALLVALUE DUP1 ISZERO PUSH2 0x825 JUMPI PUSH1 0x0 DUP1 REVERT JUMPDEST POP PUSH2 0x36B PUSH1 0x1 SLOAD DUP2 JUMP JUMPDEST CALLVALUE DUP1 ISZERO PUSH2 0x83B JUMPI PUSH1 0x0 DUP1 REVERT JUMPDEST POP PUSH2 0x399 PUSH2 0x84A CALLDATASIZE PUSH1 0x4 PUSH2 0x32ED JUMP JUMPDEST PUSH2 0x1CAC JUMP JUMPDEST CALLVALUE DUP1 ISZERO PUSH2 0x85B JUMPI PUSH1 0x0 DUP1 REVERT JUMPDEST POP PUSH2 0x86F PUSH2 0x86A CALLDATASIZE PUSH1 0x4 PUSH2 0x32ED JUMP JUMPDEST PUSH2 0x1D3D JUMP JUMPDEST PUSH1 0x40 DUP1 MLOAD SWAP5 DUP6 MSTORE PUSH1 0x1 PUSH1 0x1 PUSH1 0xA0 SHL SUB SWAP1 SWAP4 AND PUSH1 0x20 DUP6 ADD MSTORE SWAP2 DUP4 ADD MSTORE PUSH1 0x60 DUP3 ADD MSTORE PUSH1 0x80 ADD PUSH2 0x32E JUMP JUMPDEST CALLVALUE DUP1 ISZERO PUSH2 0x8A3 JUMPI PUSH1 0x0 DUP1 REVERT JUMPDEST POP PUSH2 0x399 PUSH2 0x8B2 CALLDATASIZE PUSH1 0x4 PUSH2 0x33FF JUMP JUMPDEST PUSH2 0x1DD8 JUMP JUMPDEST CALLVALUE DUP1 ISZERO PUSH2 0x8C3 JUMPI PUSH1 0x0 DUP1 REVERT JUMPDEST POP PUSH1 0x6 SLOAD PUSH2 0x3DB SWAP1 PUSH1 0x1 PUSH1 0x1 PUSH1 0xA0 SHL SUB AND DUP2 JUMP JUMPDEST CALLVALUE DUP1 ISZERO PUSH2 0x8E3 JUMPI PUSH1 0x0 DUP1 REVERT JUMPDEST POP PUSH2 0x399 PUSH2 0x8F2 CALLDATASIZE PUSH1 0x4 PUSH2 0x342F JUMP JUMPDEST PUSH2 0x1DFD JUMP JUMPDEST CALLVALUE DUP1 ISZERO PUSH2 0x903 JUMPI PUSH1 0x0 DUP1 REVERT JUMPDEST POP PUSH2 0x36B PUSH32 0x22C69AB406805E70D07FB1A6502AF760601D3B977BEADB295A9D76D5852E16A3 DUP2 JUMP JUMPDEST CALLVALUE DUP1 ISZERO PUSH2 0x937 JUMPI PUSH1 0x0 DUP1 REVERT JUMPDEST POP PUSH2 0x94B PUSH2 0x946 CALLDATASIZE PUSH1 0x4 PUSH2 0x3240 JUMP JUMPDEST PUSH2 0x1E0F JUMP JUMPDEST PUSH1 0x40 MLOAD PUSH2 0x32E SWAP2 SWAP1 PUSH2 0x356D JUMP JUMPDEST CALLVALUE DUP1 ISZERO PUSH2 0x964 JUMPI PUSH1 0x0 DUP1 REVERT JUMPDEST POP PUSH2 0x36B PUSH32 0x65D7A28E3265B37A6474929F336521B332C1681B933F6CB9F3376673440D862A DUP2 JUMP JUMPDEST CALLVALUE DUP1 ISZERO PUSH2 0x998 JUMPI PUSH1 0x0 DUP1 REVERT JUMPDEST POP PUSH2 0x36B PUSH32 0x8661AE67C9D50F67DBB173AD6369DD93AE94918083BD986295C3AC4E3822F0B8 DUP2 JUMP JUMPDEST CALLVALUE DUP1 ISZERO PUSH2 0x9CC JUMPI PUSH1 0x0 DUP1 REVERT JUMPDEST POP PUSH2 0x36B PUSH32 0x189AB7A9244DF0848122154315AF71FE140F3DB0FE014031783B0946B8C9D2E3 DUP2 JUMP JUMPDEST PUSH1 0x0 PUSH2 0x9FF DUP3 PUSH2 0x1EDD JUMP JUMPDEST SWAP3 SWAP2 POP POP JUMP JUMPDEST PUSH32 0x22C69AB406805E70D07FB1A6502AF760601D3B977BEADB295A9D76D5852E16A3 PUSH2 0xA2F DUP2 PUSH2 0x1F74 JUMP JUMPDEST PUSH1 0x0 JUMPDEST DUP3 DUP2 LT ISZERO PUSH2 0xA98 JUMPI PUSH1 0x1 PUSH2 0x136 PUSH1 0x0 DUP7 DUP7 DUP6 DUP2 DUP2 LT PUSH2 0xA53 JUMPI PUSH2 0xA53 PUSH2 0x35BA JUMP JUMPDEST SWAP1 POP PUSH1 0x20 MUL ADD PUSH1 0x20 DUP2 ADD SWAP1 PUSH2 0xA68 SWAP2 SWAP1 PUSH2 0x3297 JUMP JUMPDEST PUSH1 0x1 PUSH1 0x1 PUSH1 0xA0 SHL SUB AND DUP2 MSTORE PUSH1 0x20 DUP2 ADD SWAP2 SWAP1 SWAP2 MSTORE PUSH1 0x40 ADD PUSH1 0x0 KECCAK256 DUP1 SLOAD PUSH1 0xFF NOT AND SWAP2 ISZERO ISZERO SWAP2 SWAP1 SWAP2 OR SWAP1 SSTORE PUSH1 0x1 ADD PUSH2 0xA32 JUMP JUMPDEST POP POP POP POP JUMP JUMPDEST PUSH32 0x10DAC8C06A04BEC0B551627DAD28BC00D6516B0CAACD1C7B345FCDB5211334E4 PUSH2 0xAC8 DUP2 PUSH2 0x1F74 JUMP JUMPDEST PUSH1 0x40 MLOAD PUSH4 0x70A08231 PUSH1 0xE0 SHL DUP2 MSTORE ADDRESS PUSH1 0x4 DUP3 ADD MSTORE PUSH1 0x1 PUSH1 0x1 PUSH1 0xA0 SHL SUB DUP4 AND SWAP1 PUSH4 0xA9059CBB SWAP1 CALLER SWAP1 DUP4 SWAP1 PUSH4 0x70A08231 SWAP1 PUSH1 0x24 ADD PUSH1 0x20 PUSH1 0x40 MLOAD DUP1 DUP4 SUB DUP2 DUP7 GAS STATICCALL ISZERO DUP1 ISZERO PUSH2 0xB16 JUMPI RETURNDATASIZE PUSH1 0x0 DUP1 RETURNDATACOPY RETURNDATASIZE PUSH1 0x0 REVERT JUMPDEST POP POP POP POP PUSH1 0x40 MLOAD RETURNDATASIZE PUSH1 0x1F NOT PUSH1 0x1F DUP3 ADD AND DUP3 ADD DUP1 PUSH1 0x40 MSTORE POP DUP2 ADD SWAP1 PUSH2 0xB3A SWAP2 SWAP1 PUSH2 0x35D0 JUMP JUMPDEST PUSH1 0x40 MLOAD PUSH32 0xFFFFFFFF00000000000000000000000000000000000000000000000000000000 PUSH1 0xE0 DUP6 SWAP1 SHL AND DUP2 MSTORE PUSH1 0x1 PUSH1 0x1 PUSH1 0xA0 SHL SUB SWAP1 SWAP3 AND PUSH1 0x4 DUP4 ADD MSTORE PUSH1 0x24 DUP3 ADD MSTORE PUSH1 0x44 ADD PUSH1 0x20 PUSH1 0x40 MLOAD DUP1 DUP4 SUB DUP2 PUSH1 0x0 DUP8 GAS CALL ISZERO DUP1 ISZERO PUSH2 0xB9D JUMPI RETURNDATASIZE PUSH1 0x0 DUP1 RETURNDATACOPY RETURNDATASIZE PUSH1 0x0 REVERT JUMPDEST POP POP POP POP PUSH1 0x40 MLOAD RETURNDATASIZE PUSH1 0x1F NOT PUSH1 0x1F DUP3 ADD AND DUP3 ADD DUP1 PUSH1 0x40 MSTORE POP DUP2 ADD SWAP1 PUSH2 0xBC1 SWAP2 SWAP1 PUSH2 0x35E9 JUMP JUMPDEST POP POP POP JUMP JUMPDEST PUSH1 0x5 SLOAD PUSH1 0x40 MLOAD PUSH4 0x70A08231 PUSH1 0xE0 SHL DUP2 MSTORE ADDRESS PUSH1 0x4 DUP3 ADD MSTORE PUSH1 0x0 SWAP2 PUSH1 0x1 PUSH1 0x1 PUSH1 0xA0 SHL SUB AND SWAP1 PUSH4 0x70A08231 SWAP1 PUSH1 0x24 ADD PUSH1 0x20 PUSH1 0x40 MLOAD DUP1 DUP4 SUB DUP2 DUP7 GAS STATICCALL ISZERO DUP1 ISZERO PUSH2 0xC0F JUMPI RETURNDATASIZE PUSH1 0x0 DUP1 RETURNDATACOPY RETURNDATASIZE PUSH1 0x0 REVERT JUMPDEST POP POP POP POP PUSH1 0x40 MLOAD RETURNDATASIZE PUSH1 0x1F NOT PUSH1 0x1F DUP3 ADD AND DUP3 ADD DUP1 PUSH1 0x40 MSTORE POP DUP2 ADD SWAP1 PUSH2 0xC33 SWAP2 SWAP1 PUSH2 0x35D0 JUMP JUMPDEST SWAP1 POP SWAP1 JUMP JUMPDEST PUSH2 0xC40 PUSH2 0x1F7E JUMP JUMPDEST DUP2 PUSH16 0xFFFFFFFFFFFFFFFFFFFFFFFFFFFFFFFF AND DUP3 EQ PUSH2 0xC5E JUMPI PUSH1 0x0 DUP1 REVERT JUMPDEST PUSH2 0xC68 CALLER DUP5 PUSH2 0x1FD3 JUMP JUMPDEST PUSH2 0xCB9 JUMPI PUSH1 0x40 MLOAD PUSH3 0x461BCD PUSH1 0xE5 SHL DUP2 MSTORE PUSH1 0x20 PUSH1 0x4 DUP3 ADD MSTORE PUSH1 0xD PUSH1 0x24 DUP3 ADD MSTORE PUSH32 0x4E6F74204E4654206F776E657200000000000000000000000000000000000000 PUSH1 0x44 DUP3 ADD MSTORE PUSH1 0x64 ADD JUMPDEST PUSH1 0x40 MLOAD DUP1 SWAP2 SUB SWAP1 REVERT JUMPDEST CALLER PUSH1 0x0 SWAP1 DUP2 MSTORE PUSH1 0x4 PUSH1 0x20 MSTORE PUSH1 0x40 SWAP1 KECCAK256 SLOAD PUSH1 0xFF AND ISZERO PUSH2 0xD19 JUMPI PUSH1 0x40 MLOAD PUSH3 0x461BCD PUSH1 0xE5 SHL DUP2 MSTORE PUSH1 0x20 PUSH1 0x4 DUP3 ADD MSTORE PUSH1 0x9 PUSH1 0x24 DUP3 ADD MSTORE PUSH32 0x626C61636B6C6973740000000000000000000000000000000000000000000000 PUSH1 0x44 DUP3 ADD MSTORE PUSH1 0x64 ADD PUSH2 0xCB0 JUMP JUMPDEST PUSH1 0x1 PUSH1 0x1 PUSH1 0xA0 SHL SUB DUP2 AND PUSH1 0x0 SWAP1 DUP2 MSTORE PUSH2 0x136 PUSH1 0x20 MSTORE PUSH1 0x40 SWAP1 KECCAK256 SLOAD PUSH1 0xFF AND PUSH2 0xD82 JUMPI PUSH1 0x40 MLOAD PUSH3 0x461BCD PUSH1 0xE5 SHL DUP2 MSTORE PUSH1 0x20 PUSH1 0x4 DUP3 ADD MSTORE PUSH1 0x1E PUSH1 0x24 DUP3 ADD MSTORE PUSH32 0x546F6B656E2061646472657373206E6F7420696E2077686974656C6973740000 PUSH1 0x44 DUP3 ADD MSTORE PUSH1 0x64 ADD PUSH2 0xCB0 JUMP JUMPDEST PUSH1 0x6 SLOAD PUSH1 0x40 MLOAD PUSH32 0xFC314E3100000000000000000000000000000000000000000000000000000000 DUP2 MSTORE PUSH1 0x4 DUP2 ADD DUP6 SWAP1 MSTORE PUSH1 0x0 SWAP2 PUSH1 0x1 PUSH1 0x1 PUSH1 0xA0 SHL SUB AND SWAP1 PUSH4 0xFC314E31 SWAP1 PUSH1 0x24 ADD PUSH1 0x20 PUSH1 0x40 MLOAD DUP1 DUP4 SUB DUP2 DUP7 GAS STATICCALL ISZERO DUP1 ISZERO PUSH2 0xDE5 JUMPI RETURNDATASIZE PUSH1 0x0 DUP1 RETURNDATACOPY RETURNDATASIZE PUSH1 0x0 REVERT JUMPDEST POP POP POP POP PUSH1 0x40 MLOAD RETURNDATASIZE PUSH1 0x1F NOT PUSH1 0x1F DUP3 ADD AND DUP3 ADD DUP1 PUSH1 0x40 MSTORE POP DUP2 ADD SWAP1 PUSH2 0xE09 SWAP2 SWAP1 PUSH2 0x35D0 JUMP JUMPDEST SWAP1 POP PUSH2 0xE15 DUP2 DUP5 PUSH2 0x1C51 JUMP JUMPDEST PUSH2 0xE61 JUMPI PUSH1 0x40 MLOAD PUSH3 0x461BCD PUSH1 0xE5 SHL DUP2 MSTORE PUSH1 0x20 PUSH1 0x4 DUP3 ADD MSTORE PUSH1 0x16 PUSH1 0x24 DUP3 ADD MSTORE PUSH32 0x6E6F7420706173732073656C6C61626C652072756C6500000000000000000000 PUSH1 0x44 DUP3 ADD MSTORE PUSH1 0x64 ADD PUSH2 0xCB0 JUMP JUMPDEST PUSH1 0x6 SLOAD PUSH1 0x40 MLOAD PUSH32 0xE985E9C500000000000000000000000000000000000000000000000000000000 DUP2 MSTORE CALLER PUSH1 0x4 DUP3 ADD MSTORE ADDRESS PUSH1 0x24 DUP3 ADD MSTORE PUSH1 0x1 PUSH1 0x1 PUSH1 0xA0 SHL SUB SWAP1 SWAP2 AND SWAP1 PUSH4 0xE985E9C5 SWAP1 PUSH1 0x44 ADD PUSH1 0x20 PUSH1 0x40 MLOAD DUP1 DUP4 SUB DUP2 DUP7 GAS STATICCALL ISZERO DUP1 ISZERO PUSH2 0xEC8 JUMPI RETURNDATASIZE PUSH1 0x0 DUP1 RETURNDATACOPY RETURNDATASIZE PUSH1 0x0 REVERT JUMPDEST POP POP POP POP PUSH1 0x40 MLOAD RETURNDATASIZE PUSH1 0x1F NOT PUSH1 0x1F DUP3 ADD AND DUP3 ADD DUP1 PUSH1 0x40 MSTORE POP DUP2 ADD SWAP1 PUSH2 0xEEC SWAP2 SWAP1 PUSH2 0x35E9 JUMP JUMPDEST PUSH2 0xF38 JUMPI PUSH1 0x40 MLOAD PUSH3 0x461BCD PUSH1 0xE5 SHL DUP2 MSTORE PUSH1 0x20 PUSH1 0x4 DUP3 ADD MSTORE PUSH1 0x15 PUSH1 0x24 DUP3 ADD MSTORE PUSH32 0x6E6F742079657420617070726F7665466F72416C6C0000000000000000000000 PUSH1 0x44 DUP3 ADD MSTORE PUSH1 0x64 ADD PUSH2 0xCB0 JUMP JUMPDEST PUSH1 0x40 DUP1 MLOAD PUSH1 0xA0 DUP2 ADD DUP3 MSTORE DUP6 DUP2 MSTORE CALLER PUSH1 0x20 DUP1 DUP4 ADD SWAP2 SWAP1 SWAP2 MSTORE DUP2 DUP4 ADD DUP7 SWAP1 MSTORE PUSH1 0x60 DUP3 ADD DUP5 SWAP1 MSTORE TIMESTAMP PUSH1 0x80 DUP4 ADD MSTORE PUSH1 0x0 DUP8 DUP2 MSTORE PUSH2 0x135 SWAP1 SWAP2 MSTORE SWAP2 SWAP1 SWAP2 KECCAK256 DUP1 SLOAD PUSH20 0xFFFFFFFFFFFFFFFFFFFFFFFFFFFFFFFFFFFFFFFF NOT AND PUSH1 0x1 PUSH1 0x1 PUSH1 0xA0 SHL SUB DUP6 AND OR SWAP1 SSTORE PUSH2 0xFA1 DUP6 DUP3 PUSH2 0x2070 JUMP JUMPDEST POP POP POP POP POP JUMP JUMPDEST PUSH32 0x8661AE67C9D50F67DBB173AD6369DD93AE94918083BD986295C3AC4E3822F0B8 PUSH2 0xFD2 DUP2 PUSH2 0x1F74 JUMP JUMPDEST PUSH1 0x0 JUMPDEST DUP3 MLOAD DUP2 LT ISZERO PUSH2 0xBC1 JUMPI PUSH1 0x0 PUSH1 0x4 PUSH1 0x0 DUP6 DUP5 DUP2 MLOAD DUP2 LT PUSH2 0xFF6 JUMPI PUSH2 0xFF6 PUSH2 0x35BA JUMP JUMPDEST PUSH1 0x20 SWAP1 DUP2 MUL SWAP2 SWAP1 SWAP2 ADD DUP2 ADD MLOAD PUSH1 0x1 PUSH1 0x1 PUSH1 0xA0 SHL SUB AND DUP3 MSTORE DUP2 ADD SWAP2 SWAP1 SWAP2 MSTORE PUSH1 0x40 ADD PUSH1 0x0 KECCAK256 DUP1 SLOAD PUSH1 0xFF NOT AND SWAP2 ISZERO ISZERO SWAP2 SWAP1 SWAP2 OR SWAP1 SSTORE PUSH1 0x1 ADD PUSH2 0xFD5 JUMP JUMPDEST PUSH1 0x0 DUP3 DUP2 MSTORE PUSH1 0x6D PUSH1 0x20 MSTORE PUSH1 0x40 SWAP1 KECCAK256 PUSH1 0x1 ADD SLOAD PUSH2 0x104B DUP2 PUSH2 0x1F74 JUMP JUMPDEST PUSH2 0xBC1 DUP4 DUP4 PUSH2 0x217D JUMP JUMPDEST PUSH1 0x1 PUSH1 0x1 PUSH1 0xA0 SHL SUB DUP2 AND CALLER EQ PUSH2 0x10D3 JUMPI PUSH1 0x40 MLOAD PUSH3 0x461BCD PUSH1 0xE5 SHL DUP2 MSTORE PUSH1 0x20 PUSH1 0x4 DUP3 ADD MSTORE PUSH1 0x2F PUSH1 0x24 DUP3 ADD MSTORE PUSH32 0x416363657373436F6E74726F6C3A2063616E206F6E6C792072656E6F756E6365 PUSH1 0x44 DUP3 ADD MSTORE PUSH32 0x20726F6C657320666F722073656C660000000000000000000000000000000000 PUSH1 0x64 DUP3 ADD MSTORE PUSH1 0x84 ADD PUSH2 0xCB0 JUMP JUMPDEST PUSH2 0x10DD DUP3 DUP3 PUSH2 0x221F JUMP JUMPDEST POP POP JUMP JUMPDEST PUSH1 0x1 PUSH1 0x1 PUSH1 0xA0 SHL SUB PUSH32 0x0 AND ADDRESS SUB PUSH2 0x117F JUMPI PUSH1 0x40 MLOAD PUSH3 0x461BCD PUSH1 0xE5 SHL DUP2 MSTORE PUSH1 0x20 PUSH1 0x4 DUP3 ADD MSTORE PUSH1 0x2C PUSH1 0x24 DUP3 ADD MSTORE PUSH32 0x46756E6374696F6E206D7573742062652063616C6C6564207468726F75676820 PUSH1 0x44 DUP3 ADD MSTORE PUSH32 0x64656C656761746563616C6C0000000000000000000000000000000000000000 PUSH1 0x64 DUP3 ADD MSTORE PUSH1 0x84 ADD PUSH2 0xCB0 JUMP JUMPDEST PUSH32 0x0 PUSH1 0x1 PUSH1 0x1 PUSH1 0xA0 SHL SUB AND PUSH2 0x11DA PUSH32 0x360894A13BA1A3210667C828492DB98DCA3E2076CC3735A920A3CA505D382BBC SLOAD PUSH1 0x1 PUSH1 0x1 PUSH1 0xA0 SHL SUB AND SWAP1 JUMP JUMPDEST PUSH1 0x1 PUSH1 0x1 PUSH1 0xA0 SHL SUB AND EQ PUSH2 0x1256 JUMPI PUSH1 0x40 MLOAD PUSH3 0x461BCD PUSH1 0xE5 SHL DUP2 MSTORE PUSH1 0x20 PUSH1 0x4 DUP3 ADD MSTORE PUSH1 0x2C PUSH1 0x24 DUP3 ADD MSTORE PUSH32 0x46756E6374696F6E206D7573742062652063616C6C6564207468726F75676820 PUSH1 0x44 DUP3 ADD MSTORE PUSH32 0x6163746976652070726F78790000000000000000000000000000000000000000 PUSH1 0x64 DUP3 ADD MSTORE PUSH1 0x84 ADD PUSH2 0xCB0 JUMP JUMPDEST PUSH2 0x125F DUP2 PUSH2 0x22A2 JUMP JUMPDEST PUSH1 0x40 DUP1 MLOAD PUSH1 0x0 DUP1 DUP3 MSTORE PUSH1 0x20 DUP3 ADD SWAP1 SWAP3 MSTORE PUSH2 0x127B SWAP2 DUP4 SWAP2 SWAP1 PUSH2 0x22CC JUMP JUMPDEST POP JUMP JUMPDEST PUSH32 0x22C69AB406805E70D07FB1A6502AF760601D3B977BEADB295A9D76D5852E16A3 PUSH2 0x12A8 DUP2 PUSH2 0x1F74 JUMP JUMPDEST PUSH2 0x2710 DUP4 GT ISZERO PUSH2 0x12FA JUMPI PUSH1 0x40 MLOAD PUSH3 0x461BCD PUSH1 0xE5 SHL DUP2 MSTORE PUSH1 0x20 PUSH1 0x4 DUP3 ADD DUP2 SWAP1 MSTORE PUSH1 0x24 DUP3 ADD MSTORE PUSH32 0x74617852617465206D75737420626520696E2072616E676520302D3130303030 PUSH1 0x44 DUP3 ADD MSTORE PUSH1 0x64 ADD PUSH2 0xCB0 JUMP JUMPDEST POP PUSH1 0x0 SWAP2 SWAP1 SWAP2 SSTORE PUSH1 0x1 SSTORE JUMP JUMPDEST PUSH32 0x10DAC8C06A04BEC0B551627DAD28BC00D6516B0CAACD1C7B345FCDB5211334E4 PUSH2 0x1330 DUP2 PUSH2 0x1F74 JUMP JUMPDEST PUSH1 0x5 SLOAD PUSH1 0x40 MLOAD PUSH4 0x70A08231 PUSH1 0xE0 SHL DUP2 MSTORE ADDRESS PUSH1 0x4 DUP3 ADD MSTORE PUSH1 0x1 PUSH1 0x1 PUSH1 0xA0 SHL SUB SWAP1 SWAP2 AND SWAP1 PUSH4 0xA9059CBB SWAP1 CALLER SWAP1 DUP4 SWAP1 PUSH4 0x70A08231 SWAP1 PUSH1 0x24 ADD PUSH1 0x20 PUSH1 0x40 MLOAD DUP1 DUP4 SUB DUP2 DUP7 GAS STATICCALL ISZERO DUP1 ISZERO PUSH2 0x1382 JUMPI RETURNDATASIZE PUSH1 0x0 DUP1 RETURNDATACOPY RETURNDATASIZE PUSH1 0x0 REVERT JUMPDEST POP POP POP POP PUSH1 0x40 MLOAD RETURNDATASIZE PUSH1 0x1F NOT PUSH1 0x1F DUP3 ADD AND DUP3 ADD DUP1 PUSH1 0x40 MSTORE POP DUP2 ADD SWAP1 PUSH2 0x13A6 SWAP2 SWAP1 PUSH2 0x35D0 JUMP JUMPDEST PUSH1 0x40 MLOAD PUSH32 0xFFFFFFFF00000000000000000000000000000000000000000000000000000000 PUSH1 0xE0 DUP6 SWAP1 SHL AND DUP2 MSTORE PUSH1 0x1 PUSH1 0x1 PUSH1 0xA0 SHL SUB SWAP1 SWAP3 AND PUSH1 0x4 DUP4 ADD MSTORE PUSH1 0x24 DUP3 ADD MSTORE PUSH1 0x44 ADD PUSH1 0x20 PUSH1 0x40 MLOAD DUP1 DUP4 SUB DUP2 PUSH1 0x0 DUP8 GAS CALL ISZERO DUP1 ISZERO PUSH2 0x1409 JUMPI RETURNDATASIZE PUSH1 0x0 DUP1 RETURNDATACOPY RETURNDATASIZE PUSH1 0x0 REVERT JUMPDEST POP POP POP POP PUSH1 0x40 MLOAD RETURNDATASIZE PUSH1 0x1F NOT PUSH1 0x1F DUP3 ADD AND DUP3 ADD DUP1 PUSH1 0x40 MSTORE POP DUP2 ADD SWAP1 PUSH2 0x10DD SWAP2 SWAP1 PUSH2 0x35E9 JUMP JUMPDEST PUSH32 0x65D7A28E3265B37A6474929F336521B332C1681B933F6CB9F3376673440D862A PUSH2 0x1457 DUP2 PUSH2 0x1F74 JUMP JUMPDEST PUSH2 0x127B PUSH2 0x246C JUMP JUMPDEST PUSH32 0x22C69AB406805E70D07FB1A6502AF760601D3B977BEADB295A9D76D5852E16A3 PUSH2 0x1489 DUP2 PUSH2 0x1F74 JUMP JUMPDEST POP PUSH1 0x40 DUP1 MLOAD DUP1 DUP3 ADD DUP3 MSTORE SWAP3 ISZERO ISZERO DUP4 MSTORE PUSH1 0x20 DUP1 DUP5 ADD SWAP3 DUP4 MSTORE PUSH1 0x0 SWAP5 DUP6 MSTORE PUSH1 0x3 SWAP1 MSTORE SWAP1 SWAP3 KECCAK256 SWAP1 MLOAD DUP2 SLOAD PUSH1 0xFF NOT AND SWAP1 ISZERO ISZERO OR DUP2 SSTORE SWAP1 MLOAD PUSH1 0x1 SWAP1 SWAP2 ADD SSTORE JUMP JUMPDEST PUSH1 0x8 SLOAD PUSH2 0x100 SWAP1 DIV PUSH1 0xFF AND ISZERO DUP1 DUP1 ISZERO PUSH2 0x14E4 JUMPI POP PUSH1 0x8 SLOAD PUSH1 0x1 PUSH1 0xFF SWAP1 SWAP2 AND LT JUMPDEST DUP1 PUSH2 0x14FE JUMPI POP ADDRESS EXTCODESIZE ISZERO DUP1 ISZERO PUSH2 0x14FE JUMPI POP PUSH1 0x8 SLOAD PUSH1 0xFF AND PUSH1 0x1 EQ JUMPDEST PUSH2 0x1570 JUMPI PUSH1 0x40 MLOAD PUSH3 0x461BCD PUSH1 0xE5 SHL DUP2 MSTORE PUSH1 0x20 PUSH1 0x4 DUP3 ADD MSTORE PUSH1 0x2E PUSH1 0x24 DUP3 ADD MSTORE PUSH32 0x496E697469616C697A61626C653A20636F6E747261637420697320616C726561 PUSH1 0x44 DUP3 ADD MSTORE PUSH32 0x647920696E697469616C697A6564000000000000000000000000000000000000 PUSH1 0x64 DUP3 ADD MSTORE PUSH1 0x84 ADD PUSH2 0xCB0 JUMP JUMPDEST PUSH1 0x8 DUP1 SLOAD PUSH1 0xFF NOT AND PUSH1 0x1 OR SWAP1 SSTORE DUP1 ISZERO PUSH2 0x1593 JUMPI PUSH1 0x8 DUP1 SLOAD PUSH2 0xFF00 NOT AND PUSH2 0x100 OR SWAP1 SSTORE JUMPDEST PUSH2 0x159B PUSH2 0x24BE JUMP JUMPDEST PUSH2 0x15A3 PUSH2 0x253B JUMP JUMPDEST PUSH2 0x15AB PUSH2 0x24BE JUMP JUMPDEST PUSH2 0x15B6 PUSH1 0x0 CALLER PUSH2 0x25C0 JUMP JUMPDEST PUSH2 0x15E0 PUSH32 0x65D7A28E3265B37A6474929F336521B332C1681B933F6CB9F3376673440D862A CALLER PUSH2 0x25C0 JUMP JUMPDEST PUSH2 0x160A PUSH32 0x10DAC8C06A04BEC0B551627DAD28BC00D6516B0CAACD1C7B345FCDB5211334E4 CALLER PUSH2 0x25C0 JUMP JUMPDEST PUSH2 0x1634 PUSH32 0x189AB7A9244DF0848122154315AF71FE140F3DB0FE014031783B0946B8C9D2E3 CALLER PUSH2 0x25C0 JUMP JUMPDEST PUSH2 0x165E PUSH32 0x22C69AB406805E70D07FB1A6502AF760601D3B977BEADB295A9D76D5852E16A3 CALLER PUSH2 0x25C0 JUMP JUMPDEST PUSH2 0x1688 PUSH32 0x8661AE67C9D50F67DBB173AD6369DD93AE94918083BD986295C3AC4E3822F0B8 CALLER PUSH2 0x25C0 JUMP JUMPDEST PUSH2 0x16B2 PUSH32 0xEBFDCA8E46C0B8DACF9989EE613E35727EADD20A1D5E5AD01A53968C7E5FE07A CALLER PUSH2 0x25C0 JUMP JUMPDEST PUSH1 0x5 DUP1 SLOAD PUSH1 0x1 PUSH1 0x1 PUSH1 0xA0 SHL SUB DUP1 DUP7 AND PUSH20 0xFFFFFFFFFFFFFFFFFFFFFFFFFFFFFFFFFFFFFFFF NOT SWAP3 DUP4 AND OR SWAP1 SWAP3 SSTORE PUSH1 0x6 DUP1 SLOAD SWAP3 DUP6 AND SWAP3 SWAP1 SWAP2 AND SWAP2 SWAP1 SWAP2 OR SWAP1 SSTORE PUSH2 0x1F4 PUSH1 0x0 SSTORE PUSH1 0xA PUSH1 0x1 SSTORE PUSH3 0x31380 PUSH1 0x2 SSTORE DUP1 ISZERO PUSH2 0xBC1 JUMPI PUSH1 0x8 DUP1 SLOAD PUSH2 0xFF00 NOT AND SWAP1 SSTORE PUSH1 0x40 MLOAD PUSH1 0x1 DUP2 MSTORE PUSH32 0x7F26B83FF96E1F2B6A682F133852F6798A09C465DA95921460CEFB3847402498 SWAP1 PUSH1 0x20 ADD JUMPDEST PUSH1 0x40 MLOAD DUP1 SWAP2 SUB SWAP1 LOG1 POP POP POP JUMP JUMPDEST PUSH1 0x1 PUSH1 0x1 PUSH1 0xA0 SHL SUB PUSH32 0x0 AND ADDRESS SUB PUSH2 0x17EA JUMPI PUSH1 0x40 MLOAD PUSH3 0x461BCD PUSH1 0xE5 SHL DUP2 MSTORE PUSH1 0x20 PUSH1 0x4 DUP3 ADD MSTORE PUSH1 0x2C PUSH1 0x24 DUP3 ADD MSTORE PUSH32 0x46756E6374696F6E206D7573742062652063616C6C6564207468726F75676820 PUSH1 0x44 DUP3 ADD MSTORE PUSH32 0x64656C656761746563616C6C0000000000000000000000000000000000000000 PUSH1 0x64 DUP3 ADD MSTORE PUSH1 0x84 ADD PUSH2 0xCB0 JUMP JUMPDEST PUSH32 0x0 PUSH1 0x1 PUSH1 0x1 PUSH1 0xA0 SHL SUB AND PUSH2 0x1845 PUSH32 0x360894A13BA1A3210667C828492DB98DCA3E2076CC3735A920A3CA505D382BBC SLOAD PUSH1 0x1 PUSH1 0x1 PUSH1 0xA0 SHL SUB AND SWAP1 JUMP JUMPDEST PUSH1 0x1 PUSH1 0x1 PUSH1 0xA0 SHL SUB AND EQ PUSH2 0x18C1 JUMPI PUSH1 0x40 MLOAD PUSH3 0x461BCD PUSH1 0xE5 SHL DUP2 MSTORE PUSH1 0x20 PUSH1 0x4 DUP3 ADD MSTORE PUSH1 0x2C PUSH1 0x24 DUP3 ADD MSTORE PUSH32 0x46756E6374696F6E206D7573742062652063616C6C6564207468726F75676820 PUSH1 0x44 DUP3 ADD MSTORE PUSH32 0x6163746976652070726F78790000000000000000000000000000000000000000 PUSH1 0x64 DUP3 ADD MSTORE PUSH1 0x84 ADD PUSH2 0xCB0 JUMP JUMPDEST PUSH2 0x18CA DUP3 PUSH2 0x22A2 JUMP JUMPDEST PUSH2 0x10DD DUP3 DUP3 PUSH1 0x1 PUSH2 0x22CC JUMP JUMPDEST PUSH1 0x0 DUP2 DUP2 MSTORE PUSH1 0x7 PUSH1 0x20 MSTORE PUSH1 0x40 DUP2 KECCAK256 PUSH1 0x4 DUP2 ADD SLOAD DUP3 SWAP2 DUP3 SWAP2 DUP3 SWAP2 DUP3 SWAP2 PUSH2 0x193D JUMPI PUSH1 0x40 MLOAD PUSH3 0x461BCD PUSH1 0xE5 SHL DUP2 MSTORE PUSH1 0x20 PUSH1 0x4 DUP3 ADD MSTORE PUSH1 0x11 PUSH1 0x24 DUP3 ADD MSTORE PUSH32 0x6F72646572206E6F742065786973746564000000000000000000000000000000 PUSH1 0x44 DUP3 ADD MSTORE PUSH1 0x64 ADD PUSH2 0xCB0 JUMP JUMPDEST PUSH1 0x3 DUP2 ADD SLOAD PUSH1 0x1 DUP3 ADD SLOAD PUSH1 0x2 DUP4 ADD SLOAD PUSH1 0x4 SWAP1 SWAP4 ADD SLOAD PUSH1 0x0 SWAP10 DUP11 MSTORE PUSH2 0x135 PUSH1 0x20 MSTORE PUSH1 0x40 SWAP1 SWAP10 KECCAK256 SLOAD SWAP2 SWAP10 PUSH1 0x1 PUSH1 0x1 PUSH1 0xA0 SHL SUB SWAP2 DUP3 AND SWAP10 SWAP4 SWAP9 POP SWAP3 SWAP7 POP AND SWAP4 POP SWAP2 POP POP JUMP JUMPDEST PUSH2 0x1987 PUSH2 0x1F7E JUMP JUMPDEST PUSH1 0x0 DUP2 DUP2 MSTORE PUSH1 0x7 PUSH1 0x20 MSTORE PUSH1 0x40 SWAP1 KECCAK256 PUSH1 0x4 DUP2 ADD SLOAD PUSH2 0x19E6 JUMPI PUSH1 0x40 MLOAD PUSH3 0x461BCD PUSH1 0xE5 SHL DUP2 MSTORE PUSH1 0x20 PUSH1 0x4 DUP3 ADD MSTORE PUSH1 0x11 PUSH1 0x24 DUP3 ADD MSTORE PUSH32 0x6F72646572206E6F742065786973746564000000000000000000000000000000 PUSH1 0x44 DUP3 ADD MSTORE PUSH1 0x64 ADD PUSH2 0xCB0 JUMP JUMPDEST PUSH1 0x1 DUP2 ADD SLOAD PUSH1 0x1 PUSH1 0x1 PUSH1 0xA0 SHL SUB AND CALLER DUP2 EQ DUP1 PUSH2 0x1A30 JUMPI POP CALLER PUSH1 0x0 SWAP1 DUP2 MSTORE PUSH32 0x53B80D278AB1F8DA3F90A9AB59A48D16B0B672D0DF1781096C72A6715D78D74A PUSH1 0x20 MSTORE PUSH1 0x40 SWAP1 KECCAK256 SLOAD PUSH1 0xFF AND JUMPDEST PUSH2 0x1A39 JUMPI PUSH1 0x0 DUP1 REVERT JUMPDEST TIMESTAMP PUSH1 0x1 SLOAD DUP4 PUSH1 0x4 ADD SLOAD PUSH2 0x1A4C SWAP2 SWAP1 PUSH2 0x361C JUMP JUMPDEST LT PUSH2 0x1A99 JUMPI PUSH1 0x40 MLOAD PUSH3 0x461BCD PUSH1 0xE5 SHL DUP2 MSTORE PUSH1 0x20 PUSH1 0x4 DUP3 ADD MSTORE PUSH1 0x1D PUSH1 0x24 DUP3 ADD MSTORE PUSH32 0x636F6F6C646F776E3A206E6F742063616E63656C6C61626C6520796574000000 PUSH1 0x44 DUP3 ADD MSTORE PUSH1 0x64 ADD PUSH2 0xCB0 JUMP JUMPDEST PUSH2 0xBC1 DUP4 PUSH2 0x25CA JUMP JUMPDEST PUSH1 0x0 ADDRESS PUSH1 0x1 PUSH1 0x1 PUSH1 0xA0 SHL SUB PUSH32 0x0 AND EQ PUSH2 0x1B42 JUMPI PUSH1 0x40 MLOAD PUSH3 0x461BCD PUSH1 0xE5 SHL DUP2 MSTORE PUSH1 0x20 PUSH1 0x4 DUP3 ADD MSTORE PUSH1 0x38 PUSH1 0x24 DUP3 ADD MSTORE PUSH32 0x555550535570677261646561626C653A206D757374206E6F742062652063616C PUSH1 0x44 DUP3 ADD MSTORE PUSH32 0x6C6564207468726F7567682064656C656761746563616C6C0000000000000000 PUSH1 0x64 DUP3 ADD MSTORE PUSH1 0x84 ADD PUSH2 0xCB0 JUMP JUMPDEST POP PUSH32 0x360894A13BA1A3210667C828492DB98DCA3E2076CC3735A920A3CA505D382BBC SWAP1 JUMP JUMPDEST PUSH32 0x8661AE67C9D50F67DBB173AD6369DD93AE94918083BD986295C3AC4E3822F0B8 PUSH2 0x1B91 DUP2 PUSH2 0x1F74 JUMP JUMPDEST PUSH1 0x0 JUMPDEST DUP3 MLOAD DUP2 LT ISZERO PUSH2 0xBC1 JUMPI PUSH1 0x1 PUSH1 0x4 PUSH1 0x0 DUP6 DUP5 DUP2 MLOAD DUP2 LT PUSH2 0x1BB5 JUMPI PUSH2 0x1BB5 PUSH2 0x35BA JUMP JUMPDEST PUSH1 0x20 SWAP1 DUP2 MUL SWAP2 SWAP1 SWAP2 ADD DUP2 ADD MLOAD PUSH1 0x1 PUSH1 0x1 PUSH1 0xA0 SHL SUB AND DUP3 MSTORE DUP2 ADD SWAP2 SWAP1 SWAP2 MSTORE PUSH1 0x40 ADD PUSH1 0x0 KECCAK256 DUP1 SLOAD PUSH1 0xFF NOT AND SWAP2 ISZERO ISZERO SWAP2 SWAP1 SWAP2 OR SWAP1 SSTORE PUSH1 0x1 ADD PUSH2 0x1B94 JUMP JUMPDEST PUSH32 0x22C69AB406805E70D07FB1A6502AF760601D3B977BEADB295A9D76D5852E16A3 PUSH2 0x1C19 DUP2 PUSH2 0x1F74 JUMP JUMPDEST POP PUSH1 0x2 SSTORE JUMP JUMPDEST PUSH32 0x65D7A28E3265B37A6474929F336521B332C1681B933F6CB9F3376673440D862A PUSH2 0x1C49 DUP2 PUSH2 0x1F74 JUMP JUMPDEST PUSH2 0x127B PUSH2 0x2642 JUMP JUMPDEST PUSH1 0x1F PUSH1 0x28 DUP4 SWAP1 SHR AND PUSH1 0x0 DUP2 DUP2 MSTORE PUSH1 0x3 PUSH1 0x20 MSTORE PUSH1 0x40 DUP2 KECCAK256 DUP1 SLOAD SWAP2 SWAP3 SWAP2 PUSH4 0x3FFFFFFF PUSH1 0x91 DUP8 SWAP1 SHR AND SWAP1 PUSH1 0xFF AND DUP1 ISZERO PUSH2 0x1C8B JUMPI POP DUP2 PUSH1 0x1 ADD SLOAD DUP6 LT ISZERO JUMPDEST DUP1 ISZERO PUSH2 0x1CA2 JUMPI POP PUSH1 0x2 SLOAD PUSH2 0x1C9F SWAP1 NUMBER PUSH2 0x362F JUMP JUMPDEST DUP2 LT JUMPDEST SWAP7 SWAP6 POP POP POP POP POP POP JUMP JUMPDEST PUSH2 0x1CB4 PUSH2 0x267F JUMP JUMPDEST PUSH32 0xEBFDCA8E46C0B8DACF9989EE613E35727EADD20A1D5E5AD01A53968C7E5FE07A PUSH2 0x1CDE DUP2 PUSH2 0x1F74 JUMP JUMPDEST PUSH1 0x0 DUP3 DUP2 MSTORE PUSH1 0x7 PUSH1 0x20 MSTORE PUSH1 0x40 SWAP1 KECCAK256 PUSH1 0x4 DUP2 ADD SLOAD PUSH2 0x1A99 JUMPI PUSH1 0x40 MLOAD PUSH3 0x461BCD PUSH1 0xE5 SHL DUP2 MSTORE PUSH1 0x20 PUSH1 0x4 DUP3 ADD MSTORE PUSH1 0x11 PUSH1 0x24 DUP3 ADD MSTORE PUSH32 0x6F72646572206E6F742065786973746564000000000000000000000000000000 PUSH1 0x44 DUP3 ADD MSTORE PUSH1 0x64 ADD PUSH2 0xCB0 JUMP JUMPDEST PUSH1 0x0 DUP2 DUP2 MSTORE PUSH1 0x7 PUSH1 0x20 MSTORE PUSH1 0x40 DUP2 KECCAK256 DUP2 SWAP1 DUP2 SWAP1 DUP2 SWAP1 PUSH2 0x1D5E DUP2 PUSH1 0x4 ADD SLOAD ISZERO ISZERO SWAP1 JUMP JUMPDEST PUSH2 0x1DAA JUMPI PUSH1 0x40 MLOAD PUSH3 0x461BCD PUSH1 0xE5 SHL DUP2 MSTORE PUSH1 0x20 PUSH1 0x4 DUP3 ADD MSTORE PUSH1 0x11 PUSH1 0x24 DUP3 ADD MSTORE PUSH32 0x6F72646572206E6F742065786973746564000000000000000000000000000000 PUSH1 0x44 DUP3 ADD MSTORE PUSH1 0x64 ADD PUSH2 0xCB0 JUMP JUMPDEST PUSH1 0x3 DUP2 ADD SLOAD PUSH1 0x1 DUP3 ADD SLOAD PUSH1 0x2 DUP4 ADD SLOAD PUSH1 0x4 SWAP1 SWAP4 ADD SLOAD SWAP2 SWAP9 PUSH1 0x1 PUSH1 0x1 PUSH1 0xA0 SHL SUB SWAP1 SWAP2 AND SWAP8 POP SWAP2 SWAP6 POP SWAP4 POP SWAP2 POP POP JUMP JUMPDEST PUSH1 0x0 DUP3 DUP2 MSTORE PUSH1 0x6D PUSH1 0x20 MSTORE PUSH1 0x40 SWAP1 KECCAK256 PUSH1 0x1 ADD SLOAD PUSH2 0x1DF3 DUP2 PUSH2 0x1F74 JUMP JUMPDEST PUSH2 0xBC1 DUP4 DUP4 PUSH2 0x221F JUMP JUMPDEST PUSH2 0x1E05 PUSH2 0x1F7E JUMP JUMPDEST PUSH2 0x10DD DUP3 DUP3 PUSH2 0x26D1 JUMP JUMPDEST PUSH1 0x60 PUSH1 0x0 DUP3 PUSH8 0xFFFFFFFFFFFFFFFF DUP2 GT ISZERO PUSH2 0x1E2C JUMPI PUSH2 0x1E2C PUSH2 0x3306 JUMP JUMPDEST PUSH1 0x40 MLOAD SWAP1 DUP1 DUP3 MSTORE DUP1 PUSH1 0x20 MUL PUSH1 0x20 ADD DUP3 ADD PUSH1 0x40 MSTORE DUP1 ISZERO PUSH2 0x1E55 JUMPI DUP2 PUSH1 0x20 ADD PUSH1 0x20 DUP3 MUL DUP1 CALLDATASIZE DUP4 CALLDATACOPY ADD SWAP1 POP JUMPDEST POP SWAP1 POP PUSH1 0x0 JUMPDEST DUP4 DUP2 LT ISZERO PUSH2 0x1ED5 JUMPI PUSH2 0x135 PUSH1 0x0 DUP7 DUP7 DUP5 DUP2 DUP2 LT PUSH2 0x1E7A JUMPI PUSH2 0x1E7A PUSH2 0x35BA JUMP JUMPDEST SWAP1 POP PUSH1 0x20 MUL ADD CALLDATALOAD DUP2 MSTORE PUSH1 0x20 ADD SWAP1 DUP2 MSTORE PUSH1 0x20 ADD PUSH1 0x0 KECCAK256 PUSH1 0x0 SWAP1 SLOAD SWAP1 PUSH2 0x100 EXP SWAP1 DIV PUSH1 0x1 PUSH1 0x1 PUSH1 0xA0 SHL SUB AND DUP3 DUP3 DUP2 MLOAD DUP2 LT PUSH2 0x1EB5 JUMPI PUSH2 0x1EB5 PUSH2 0x35BA JUMP JUMPDEST PUSH1 0x1 PUSH1 0x1 PUSH1 0xA0 SHL SUB SWAP1 SWAP3 AND PUSH1 0x20 SWAP3 DUP4 MUL SWAP2 SWAP1 SWAP2 ADD SWAP1 SWAP2 ADD MSTORE PUSH1 0x1 ADD PUSH2 0x1E5B JUMP JUMPDEST POP SWAP4 SWAP3 POP POP POP JUMP JUMPDEST PUSH1 0x0 PUSH32 0xFFFFFFFF00000000000000000000000000000000000000000000000000000000 DUP3 AND PUSH32 0x7965DB0B00000000000000000000000000000000000000000000000000000000 EQ DUP1 PUSH2 0x9FF JUMPI POP PUSH32 0x1FFC9A700000000000000000000000000000000000000000000000000000000 PUSH32 0xFFFFFFFF00000000000000000000000000000000000000000000000000000000 DUP4 AND EQ PUSH2 0x9FF JUMP JUMPDEST PUSH2 0x127B DUP2 CALLER PUSH2 0x2B9A JUMP JUMPDEST PUSH1 0x9F SLOAD PUSH1 0xFF AND ISZERO PUSH2 0x1FD1 JUMPI PUSH1 0x40 MLOAD PUSH3 0x461BCD PUSH1 0xE5 SHL DUP2 MSTORE PUSH1 0x20 PUSH1 0x4 DUP3 ADD MSTORE PUSH1 0x10 PUSH1 0x24 DUP3 ADD MSTORE PUSH32 0x5061757361626C653A2070617573656400000000000000000000000000000000 PUSH1 0x44 DUP3 ADD MSTORE PUSH1 0x64 ADD PUSH2 0xCB0 JUMP JUMPDEST JUMP JUMPDEST PUSH1 0x6 SLOAD PUSH1 0x40 MLOAD PUSH32 0x6352211E00000000000000000000000000000000000000000000000000000000 DUP2 MSTORE PUSH1 0x4 DUP2 ADD DUP4 SWAP1 MSTORE PUSH1 0x0 SWAP2 PUSH1 0x1 PUSH1 0x1 PUSH1 0xA0 SHL SUB DUP6 DUP2 AND SWAP3 SWAP2 AND SWAP1 PUSH4 0x6352211E SWAP1 PUSH1 0x24 ADD PUSH1 0x20 PUSH1 0x40 MLOAD DUP1 DUP4 SUB DUP2 DUP7 GAS STATICCALL ISZERO DUP1 ISZERO PUSH2 0x203B JUMPI RETURNDATASIZE PUSH1 0x0 DUP1 RETURNDATACOPY RETURNDATASIZE PUSH1 0x0 REVERT JUMPDEST POP POP POP POP PUSH1 0x40 MLOAD RETURNDATASIZE PUSH1 0x1F NOT PUSH1 0x1F DUP3 ADD AND DUP3 ADD DUP1 PUSH1 0x40 MSTORE POP DUP2 ADD SWAP1 PUSH2 0x205F SWAP2 SWAP1 PUSH2 0x3642 JUMP JUMPDEST PUSH1 0x1 PUSH1 0x1 PUSH1 0xA0 SHL SUB AND EQ SWAP4 SWAP3 POP POP POP JUMP JUMPDEST PUSH1 0x0 DUP3 DUP2 MSTORE PUSH1 0x7 PUSH1 0x20 MSTORE PUSH1 0x40 SWAP1 KECCAK256 PUSH1 0x4 DUP2 ADD SLOAD ISZERO PUSH2 0x20D0 JUMPI PUSH1 0x40 MLOAD PUSH3 0x461BCD PUSH1 0xE5 SHL DUP2 MSTORE PUSH1 0x20 PUSH1 0x4 DUP3 ADD MSTORE PUSH1 0xD PUSH1 0x24 DUP3 ADD MSTORE PUSH32 0x6F72646572206578697374656400000000000000000000000000000000000000 PUSH1 0x44 DUP3 ADD MSTORE PUSH1 0x64 ADD PUSH2 0xCB0 JUMP JUMPDEST PUSH1 0x0 DUP4 DUP2 MSTORE PUSH1 0x7 PUSH1 0x20 SWAP1 DUP2 MSTORE PUSH1 0x40 SWAP2 DUP3 SWAP1 KECCAK256 DUP5 MLOAD DUP2 SSTORE DUP5 DUP3 ADD MLOAD PUSH1 0x1 DUP3 ADD DUP1 SLOAD PUSH20 0xFFFFFFFFFFFFFFFFFFFFFFFFFFFFFFFFFFFFFFFF NOT AND PUSH1 0x1 PUSH1 0x1 PUSH1 0xA0 SHL SUB SWAP1 SWAP3 AND SWAP2 DUP3 OR SWAP1 SSTORE DUP6 DUP5 ADD MLOAD PUSH1 0x2 DUP4 ADD DUP2 SWAP1 SSTORE PUSH1 0x60 DUP1 DUP9 ADD MLOAD PUSH1 0x3 DUP6 ADD DUP2 SWAP1 SSTORE PUSH1 0x80 DUP1 DUP11 ADD MLOAD PUSH1 0x4 SWAP1 SWAP7 ADD SWAP6 SWAP1 SWAP6 SSTORE DUP7 MLOAD DUP11 DUP2 MSTORE SWAP6 DUP7 ADD SWAP3 SWAP1 SWAP3 MSTORE SWAP5 DUP5 ADD MSTORE SWAP3 DUP3 ADD SWAP3 SWAP1 SWAP3 MSTORE PUSH32 0x6EE1EB8A5BD09A76DEC365663730674D33E85E267C5F5ACDAA8A086B3F089B87 SWAP2 ADD PUSH2 0x173F JUMP JUMPDEST PUSH1 0x0 DUP3 DUP2 MSTORE PUSH1 0x6D PUSH1 0x20 SWAP1 DUP2 MSTORE PUSH1 0x40 DUP1 DUP4 KECCAK256 PUSH1 0x1 PUSH1 0x1 PUSH1 0xA0 SHL SUB DUP6 AND DUP5 MSTORE SWAP1 SWAP2 MSTORE SWAP1 KECCAK256 SLOAD PUSH1 0xFF AND PUSH2 0x10DD JUMPI PUSH1 0x0 DUP3 DUP2 MSTORE PUSH1 0x6D PUSH1 0x20 SWAP1 DUP2 MSTORE PUSH1 0x40 DUP1 DUP4 KECCAK256 PUSH1 0x1 PUSH1 0x1 PUSH1 0xA0 SHL SUB DUP6 AND DUP5 MSTORE SWAP1 SWAP2 MSTORE SWAP1 KECCAK256 DUP1 SLOAD PUSH1 0xFF NOT AND PUSH1 0x1 OR SWAP1 SSTORE PUSH2 0x21DB CALLER SWAP1 JUMP JUMPDEST PUSH1 0x1 PUSH1 0x1 PUSH1 0xA0 SHL SUB AND DUP2 PUSH1 0x1 PUSH1 0x1 PUSH1 0xA0 SHL SUB AND DUP4 PUSH32 0x2F8788117E7EFF1D82E926EC794901D17C78024A50270940304540A733656F0D PUSH1 0x40 MLOAD PUSH1 0x40 MLOAD DUP1 SWAP2 SUB SWAP1 LOG4 POP POP JUMP JUMPDEST PUSH1 0x0 DUP3 DUP2 MSTORE PUSH1 0x6D PUSH1 0x20 SWAP1 DUP2 MSTORE PUSH1 0x40 DUP1 DUP4 KECCAK256 PUSH1 0x1 PUSH1 0x1 PUSH1 0xA0 SHL SUB DUP6 AND DUP5 MSTORE SWAP1 SWAP2 MSTORE SWAP1 KECCAK256 SLOAD PUSH1 0xFF AND ISZERO PUSH2 0x10DD JUMPI PUSH1 0x0 DUP3 DUP2 MSTORE PUSH1 0x6D PUSH1 0x20 SWAP1 DUP2 MSTORE PUSH1 0x40 DUP1 DUP4 KECCAK256 PUSH1 0x1 PUSH1 0x1 PUSH1 0xA0 SHL SUB DUP6 AND DUP1 DUP6 MSTORE SWAP3 MSTORE DUP1 DUP4 KECCAK256 DUP1 SLOAD PUSH1 0xFF NOT AND SWAP1 SSTORE MLOAD CALLER SWAP3 DUP6 SWAP2 PUSH32 0xF6391F5C32D9C69D2A47EA670B442974B53935D1EDC7FD64EB21E047A839171B SWAP2 SWAP1 LOG4 POP POP JUMP JUMPDEST PUSH32 0x189AB7A9244DF0848122154315AF71FE140F3DB0FE014031783B0946B8C9D2E3 PUSH2 0x10DD DUP2 PUSH2 0x1F74 JUMP JUMPDEST PUSH32 0x4910FDFA16FED3260ED0E7147F7CC6DA11A60208B5B9406D12A635614FFD9143 SLOAD PUSH1 0xFF AND ISZERO PUSH2 0x22FF JUMPI PUSH2 0xBC1 DUP4 PUSH2 0x2C0F JUMP JUMPDEST DUP3 PUSH1 0x1 PUSH1 0x1 PUSH1 0xA0 SHL SUB AND PUSH4 0x52D1902D PUSH1 0x40 MLOAD DUP2 PUSH4 0xFFFFFFFF AND PUSH1 0xE0 SHL DUP2 MSTORE PUSH1 0x4 ADD PUSH1 0x20 PUSH1 0x40 MLOAD DUP1 DUP4 SUB DUP2 DUP7 GAS STATICCALL SWAP3 POP POP POP DUP1 ISZERO PUSH2 0x2359 JUMPI POP PUSH1 0x40 DUP1 MLOAD PUSH1 0x1F RETURNDATASIZE SWAP1 DUP2 ADD PUSH1 0x1F NOT AND DUP3 ADD SWAP1 SWAP3 MSTORE PUSH2 0x2356 SWAP2 DUP2 ADD SWAP1 PUSH2 0x35D0 JUMP JUMPDEST PUSH1 0x1 JUMPDEST PUSH2 0x23CB JUMPI PUSH1 0x40 MLOAD PUSH3 0x461BCD PUSH1 0xE5 SHL DUP2 MSTORE PUSH1 0x20 PUSH1 0x4 DUP3 ADD MSTORE PUSH1 0x2E PUSH1 0x24 DUP3 ADD MSTORE PUSH32 0x45524331393637557067726164653A206E657720696D706C656D656E74617469 PUSH1 0x44 DUP3 ADD MSTORE PUSH32 0x6F6E206973206E6F742055555053000000000000000000000000000000000000 PUSH1 0x64 DUP3 ADD MSTORE PUSH1 0x84 ADD PUSH2 0xCB0 JUMP JUMPDEST PUSH32 0x360894A13BA1A3210667C828492DB98DCA3E2076CC3735A920A3CA505D382BBC DUP2 EQ PUSH2 0x2460 JUMPI PUSH1 0x40 MLOAD PUSH3 0x461BCD PUSH1 0xE5 SHL DUP2 MSTORE PUSH1 0x20 PUSH1 0x4 DUP3 ADD MSTORE PUSH1 0x29 PUSH1 0x24 DUP3 ADD MSTORE PUSH32 0x45524331393637557067726164653A20756E737570706F727465642070726F78 PUSH1 0x44 DUP3 ADD MSTORE PUSH32 0x6961626C65555549440000000000000000000000000000000000000000000000 PUSH1 0x64 DUP3 ADD MSTORE PUSH1 0x84 ADD PUSH2 0xCB0 JUMP JUMPDEST POP PUSH2 0xBC1 DUP4 DUP4 DUP4 PUSH2 0x2CDA JUMP JUMPDEST PUSH2 0x2474 PUSH2 0x267F JUMP JUMPDEST PUSH1 0x9F DUP1 SLOAD PUSH1 0xFF NOT AND SWAP1 SSTORE PUSH32 0x5DB9EE0A495BF2E6FF9C91A7834C1BA4FDD244A5E8AA4E537BD38AEAE4B073AA CALLER JUMPDEST PUSH1 0x40 MLOAD PUSH1 0x1 PUSH1 0x1 PUSH1 0xA0 SHL SUB SWAP1 SWAP2 AND DUP2 MSTORE PUSH1 0x20 ADD PUSH1 0x40 MLOAD DUP1 SWAP2 SUB SWAP1 LOG1 JUMP JUMPDEST PUSH1 0x8 SLOAD PUSH2 0x100 SWAP1 DIV PUSH1 0xFF AND PUSH2 0x1FD1 JUMPI PUSH1 0x40 MLOAD PUSH3 0x461BCD PUSH1 0xE5 SHL DUP2 MSTORE PUSH1 0x20 PUSH1 0x4 DUP3 ADD MSTORE PUSH1 0x2B PUSH1 0x24 DUP3 ADD MSTORE PUSH32 0x496E697469616C697A61626C653A20636F6E7472616374206973206E6F742069 PUSH1 0x44 DUP3 ADD MSTORE PUSH32 0x6E697469616C697A696E67000000000000000000000000000000000000000000 PUSH1 0x64 DUP3 ADD MSTORE PUSH1 0x84 ADD PUSH2 0xCB0 JUMP JUMPDEST PUSH1 0x8 SLOAD PUSH2 0x100 SWAP1 DIV PUSH1 0xFF AND PUSH2 0x25B8 JUMPI PUSH1 0x40 MLOAD PUSH3 0x461BCD PUSH1 0xE5 SHL DUP2 MSTORE PUSH1 0x20 PUSH1 0x4 DUP3 ADD MSTORE PUSH1 0x2B PUSH1 0x24 DUP3 ADD MSTORE PUSH32 0x496E697469616C697A61626C653A20636F6E7472616374206973206E6F742069 PUSH1 0x44 DUP3 ADD MSTORE PUSH32 0x6E697469616C697A696E67000000000000000000000000000000000000000000 PUSH1 0x64 DUP3 ADD MSTORE PUSH1 0x84 ADD PUSH2 0xCB0 JUMP JUMPDEST PUSH2 0x1FD1 PUSH2 0x2CFF JUMP JUMPDEST PUSH2 0x10DD DUP3 DUP3 PUSH2 0x217D JUMP JUMPDEST PUSH1 0x0 DUP2 DUP2 MSTORE PUSH1 0x7 PUSH1 0x20 MSTORE PUSH1 0x40 DUP2 KECCAK256 DUP2 DUP2 SSTORE PUSH1 0x1 DUP2 ADD DUP1 SLOAD PUSH20 0xFFFFFFFFFFFFFFFFFFFFFFFFFFFFFFFFFFFFFFFF NOT AND SWAP1 SSTORE PUSH1 0x2 DUP2 ADD DUP3 SWAP1 SSTORE PUSH1 0x3 DUP2 ADD DUP3 SWAP1 SSTORE PUSH1 0x4 ADD SSTORE PUSH1 0x40 MLOAD DUP2 DUP2 MSTORE PUSH32 0x935C9AD2F1FDA9D7EAE0D2A512F1521CB7190EE06165414E722366A65975FB6B SWAP1 PUSH1 0x20 ADD PUSH1 0x40 MLOAD DUP1 SWAP2 SUB SWAP1 LOG1 POP JUMP JUMPDEST PUSH2 0x264A PUSH2 0x1F7E JUMP JUMPDEST PUSH1 0x9F DUP1 SLOAD PUSH1 0xFF NOT AND PUSH1 0x1 OR SWAP1 SSTORE PUSH32 0x62E78CEA01BEE320CD4E420270B5EA74000D11B0C9F74754EBDBFC544B05A258 PUSH2 0x24A1 CALLER SWAP1 JUMP JUMPDEST PUSH1 0x9F SLOAD PUSH1 0xFF AND PUSH2 0x1FD1 JUMPI PUSH1 0x40 MLOAD PUSH3 0x461BCD PUSH1 0xE5 SHL DUP2 MSTORE PUSH1 0x20 PUSH1 0x4 DUP3 ADD MSTORE PUSH1 0x14 PUSH1 0x24 DUP3 ADD MSTORE PUSH32 0x5061757361626C653A206E6F7420706175736564000000000000000000000000 PUSH1 0x44 DUP3 ADD MSTORE PUSH1 0x64 ADD PUSH2 0xCB0 JUMP JUMPDEST PUSH1 0x0 DUP3 DUP2 MSTORE PUSH1 0x7 PUSH1 0x20 MSTORE PUSH1 0x40 SWAP1 KECCAK256 PUSH1 0x4 DUP2 ADD SLOAD PUSH2 0x2730 JUMPI PUSH1 0x40 MLOAD PUSH3 0x461BCD PUSH1 0xE5 SHL DUP2 MSTORE PUSH1 0x20 PUSH1 0x4 DUP3 ADD MSTORE PUSH1 0x11 PUSH1 0x24 DUP3 ADD MSTORE PUSH32 0x6F72646572206E6F742065786973746564000000000000000000000000000000 PUSH1 0x44 DUP3 ADD MSTORE PUSH1 0x64 ADD PUSH2 0xCB0 JUMP JUMPDEST DUP1 PUSH1 0x2 ADD SLOAD DUP3 EQ PUSH2 0x2783 JUMPI PUSH1 0x40 MLOAD PUSH3 0x461BCD PUSH1 0xE5 SHL DUP2 MSTORE PUSH1 0x20 PUSH1 0x4 DUP3 ADD MSTORE PUSH1 0x1D PUSH1 0x24 DUP3 ADD MSTORE PUSH32 0x7072696365206973206E6F74206D617463682077697468206F72646572000000 PUSH1 0x44 DUP3 ADD MSTORE PUSH1 0x64 ADD PUSH2 0xCB0 JUMP JUMPDEST PUSH1 0x1 DUP2 ADD SLOAD PUSH1 0x3 DUP3 ADD SLOAD PUSH1 0x6 SLOAD PUSH1 0x40 MLOAD PUSH32 0xE985E9C500000000000000000000000000000000000000000000000000000000 DUP2 MSTORE PUSH1 0x1 PUSH1 0x1 PUSH1 0xA0 SHL SUB SWAP4 DUP5 AND PUSH1 0x4 DUP3 ADD DUP2 SWAP1 MSTORE ADDRESS PUSH1 0x24 DUP4 ADD MSTORE SWAP4 SWAP1 SWAP2 AND SWAP1 PUSH4 0xE985E9C5 SWAP1 PUSH1 0x44 ADD PUSH1 0x20 PUSH1 0x40 MLOAD DUP1 DUP4 SUB DUP2 DUP7 GAS STATICCALL ISZERO DUP1 ISZERO PUSH2 0x27F9 JUMPI RETURNDATASIZE PUSH1 0x0 DUP1 RETURNDATACOPY RETURNDATASIZE PUSH1 0x0 REVERT JUMPDEST POP POP POP POP PUSH1 0x40 MLOAD RETURNDATASIZE PUSH1 0x1F NOT PUSH1 0x1F DUP3 ADD AND DUP3 ADD DUP1 PUSH1 0x40 MSTORE POP DUP2 ADD SWAP1 PUSH2 0x281D SWAP2 SWAP1 PUSH2 0x35E9 JUMP JUMPDEST PUSH2 0x2869 JUMPI PUSH1 0x40 MLOAD PUSH3 0x461BCD PUSH1 0xE5 SHL DUP2 MSTORE PUSH1 0x20 PUSH1 0x4 DUP3 ADD MSTORE PUSH1 0x15 PUSH1 0x24 DUP3 ADD MSTORE PUSH32 0x6E6F742079657420617070726F7665466F72416C6C0000000000000000000000 PUSH1 0x44 DUP3 ADD MSTORE PUSH1 0x64 ADD PUSH2 0xCB0 JUMP JUMPDEST PUSH1 0x0 DUP6 DUP2 MSTORE PUSH1 0x7 PUSH1 0x20 MSTORE PUSH1 0x40 DUP2 KECCAK256 DUP2 DUP2 SSTORE PUSH1 0x1 DUP2 ADD DUP1 SLOAD PUSH20 0xFFFFFFFFFFFFFFFFFFFFFFFFFFFFFFFFFFFFFFFF NOT AND SWAP1 SSTORE PUSH1 0x2 DUP2 ADD DUP3 SWAP1 SSTORE PUSH1 0x3 DUP2 ADD DUP3 SWAP1 SSTORE PUSH1 0x4 ADD SSTORE PUSH1 0x0 PUSH2 0x28B6 DUP6 PUSH2 0x2D88 JUMP JUMPDEST SWAP1 POP PUSH1 0x0 PUSH2 0x28C4 DUP7 DUP4 PUSH2 0x2DA5 JUMP JUMPDEST SWAP1 POP PUSH1 0x0 PUSH2 0x28D1 DUP9 PUSH2 0x2DB8 JUMP JUMPDEST SWAP1 POP PUSH1 0x0 PUSH1 0x1 PUSH1 0x1 PUSH1 0xA0 SHL SUB DUP3 AND PUSH2 0x28F4 JUMPI PUSH1 0x5 SLOAD PUSH1 0x1 PUSH1 0x1 PUSH1 0xA0 SHL SUB AND PUSH2 0x28F6 JUMP JUMPDEST DUP2 JUMPDEST PUSH1 0x40 MLOAD PUSH32 0x23B872DD00000000000000000000000000000000000000000000000000000000 DUP2 MSTORE CALLER PUSH1 0x4 DUP3 ADD MSTORE ADDRESS PUSH1 0x24 DUP3 ADD MSTORE PUSH1 0x44 DUP2 ADD DUP7 SWAP1 MSTORE SWAP1 SWAP2 POP PUSH1 0x1 PUSH1 0x1 PUSH1 0xA0 SHL SUB DUP3 AND SWAP1 PUSH4 0x23B872DD SWAP1 PUSH1 0x64 ADD PUSH1 0x20 PUSH1 0x40 MLOAD DUP1 DUP4 SUB DUP2 PUSH1 0x0 DUP8 GAS CALL ISZERO DUP1 ISZERO PUSH2 0x2965 JUMPI RETURNDATASIZE PUSH1 0x0 DUP1 RETURNDATACOPY RETURNDATASIZE PUSH1 0x0 REVERT JUMPDEST POP POP POP POP PUSH1 0x40 MLOAD RETURNDATASIZE PUSH1 0x1F NOT PUSH1 0x1F DUP3 ADD AND DUP3 ADD DUP1 PUSH1 0x40 MSTORE POP DUP2 ADD SWAP1 PUSH2 0x2989 SWAP2 SWAP1 PUSH2 0x35E9 JUMP JUMPDEST PUSH2 0x29D5 JUMPI PUSH1 0x40 MLOAD PUSH3 0x461BCD PUSH1 0xE5 SHL DUP2 MSTORE PUSH1 0x20 PUSH1 0x4 DUP3 ADD DUP2 SWAP1 MSTORE PUSH1 0x24 DUP3 ADD MSTORE PUSH32 0x6661696C20746F207472616E736665722062636F696E20746F206D61726B6574 PUSH1 0x44 DUP3 ADD MSTORE PUSH1 0x64 ADD PUSH2 0xCB0 JUMP JUMPDEST PUSH1 0x40 MLOAD PUSH32 0x23B872DD00000000000000000000000000000000000000000000000000000000 DUP2 MSTORE CALLER PUSH1 0x4 DUP3 ADD MSTORE PUSH1 0x1 PUSH1 0x1 PUSH1 0xA0 SHL SUB DUP8 DUP2 AND PUSH1 0x24 DUP4 ADD MSTORE PUSH1 0x44 DUP3 ADD DUP6 SWAP1 MSTORE DUP3 AND SWAP1 PUSH4 0x23B872DD SWAP1 PUSH1 0x64 ADD PUSH1 0x20 PUSH1 0x40 MLOAD DUP1 DUP4 SUB DUP2 PUSH1 0x0 DUP8 GAS CALL ISZERO DUP1 ISZERO PUSH2 0x2A43 JUMPI RETURNDATASIZE PUSH1 0x0 DUP1 RETURNDATACOPY RETURNDATASIZE PUSH1 0x0 REVERT JUMPDEST POP POP POP POP PUSH1 0x40 MLOAD RETURNDATASIZE PUSH1 0x1F NOT PUSH1 0x1F DUP3 ADD AND DUP3 ADD DUP1 PUSH1 0x40 MSTORE POP DUP2 ADD SWAP1 PUSH2 0x2A67 SWAP2 SWAP1 PUSH2 0x35E9 JUMP JUMPDEST PUSH2 0x2AB3 JUMPI PUSH1 0x40 MLOAD PUSH3 0x461BCD PUSH1 0xE5 SHL DUP2 MSTORE PUSH1 0x20 PUSH1 0x4 DUP3 ADD DUP2 SWAP1 MSTORE PUSH1 0x24 DUP3 ADD MSTORE PUSH32 0x6661696C20746F207472616E736665722062636F696E20746F2073656C6C6572 PUSH1 0x44 DUP3 ADD MSTORE PUSH1 0x64 ADD PUSH2 0xCB0 JUMP JUMPDEST PUSH1 0x6 SLOAD PUSH1 0x40 MLOAD PUSH32 0x42842E0E00000000000000000000000000000000000000000000000000000000 DUP2 MSTORE PUSH1 0x1 PUSH1 0x1 PUSH1 0xA0 SHL SUB DUP9 DUP2 AND PUSH1 0x4 DUP4 ADD MSTORE CALLER PUSH1 0x24 DUP4 ADD MSTORE PUSH1 0x44 DUP3 ADD DUP13 SWAP1 MSTORE SWAP1 SWAP2 AND SWAP1 PUSH4 0x42842E0E SWAP1 PUSH1 0x64 ADD PUSH1 0x0 PUSH1 0x40 MLOAD DUP1 DUP4 SUB DUP2 PUSH1 0x0 DUP8 DUP1 EXTCODESIZE ISZERO DUP1 ISZERO PUSH2 0x2B20 JUMPI PUSH1 0x0 DUP1 REVERT JUMPDEST POP GAS CALL ISZERO DUP1 ISZERO PUSH2 0x2B34 JUMPI RETURNDATASIZE PUSH1 0x0 DUP1 RETURNDATACOPY RETURNDATASIZE PUSH1 0x0 REVERT JUMPDEST POP POP PUSH1 0x40 DUP1 MLOAD DUP13 DUP2 MSTORE PUSH1 0x20 DUP2 ADD DUP13 SWAP1 MSTORE SWAP1 DUP2 ADD DUP9 SWAP1 MSTORE PUSH1 0x1 PUSH1 0x1 PUSH1 0xA0 SHL SUB DUP10 AND PUSH1 0x60 DUP3 ADD MSTORE CALLER PUSH1 0x80 DUP3 ADD MSTORE PUSH32 0x95C89A9D10E4C04E4A14D2A484DBA4070C7246BE033FDC7797F5EAC556EEB469 SWAP3 POP PUSH1 0xA0 ADD SWAP1 POP PUSH1 0x40 MLOAD DUP1 SWAP2 SUB SWAP1 LOG1 POP POP POP POP POP POP POP POP POP JUMP JUMPDEST PUSH1 0x0 DUP3 DUP2 MSTORE PUSH1 0x6D PUSH1 0x20 SWAP1 DUP2 MSTORE PUSH1 0x40 DUP1 DUP4 KECCAK256 PUSH1 0x1 PUSH1 0x1 PUSH1 0xA0 SHL SUB DUP6 AND DUP5 MSTORE SWAP1 SWAP2 MSTORE SWAP1 KECCAK256 SLOAD PUSH1 0xFF AND PUSH2 0x10DD JUMPI PUSH2 0x2BCD DUP2 PUSH2 0x2E03 JUMP JUMPDEST PUSH2 0x2BD8 DUP4 PUSH1 0x20 PUSH2 0x2E15 JUMP JUMPDEST PUSH1 0x40 MLOAD PUSH1 0x20 ADD PUSH2 0x2BE9 SWAP3 SWAP2 SWAP1 PUSH2 0x3683 JUMP JUMPDEST PUSH1 0x40 DUP1 MLOAD PUSH1 0x1F NOT DUP2 DUP5 SUB ADD DUP2 MSTORE SWAP1 DUP3 SWAP1 MSTORE PUSH3 0x461BCD PUSH1 0xE5 SHL DUP3 MSTORE PUSH2 0xCB0 SWAP2 PUSH1 0x4 ADD PUSH2 0x3704 JUMP JUMPDEST PUSH1 0x1 PUSH1 0x1 PUSH1 0xA0 SHL SUB DUP2 AND EXTCODESIZE PUSH2 0x2C8C JUMPI PUSH1 0x40 MLOAD PUSH3 0x461BCD PUSH1 0xE5 SHL DUP2 MSTORE PUSH1 0x20 PUSH1 0x4 DUP3 ADD MSTORE PUSH1 0x2D PUSH1 0x24 DUP3 ADD MSTORE PUSH32 0x455243313936373A206E657720696D706C656D656E746174696F6E206973206E PUSH1 0x44 DUP3 ADD MSTORE PUSH32 0x6F74206120636F6E747261637400000000000000000000000000000000000000 PUSH1 0x64 DUP3 ADD MSTORE PUSH1 0x84 ADD PUSH2 0xCB0 JUMP JUMPDEST PUSH32 0x360894A13BA1A3210667C828492DB98DCA3E2076CC3735A920A3CA505D382BBC DUP1 SLOAD PUSH20 0xFFFFFFFFFFFFFFFFFFFFFFFFFFFFFFFFFFFFFFFF NOT AND PUSH1 0x1 PUSH1 0x1 PUSH1 0xA0 SHL SUB SWAP3 SWAP1 SWAP3 AND SWAP2 SWAP1 SWAP2 OR SWAP1 SSTORE JUMP JUMPDEST PUSH2 0x2CE3 DUP4 PUSH2 0x303E JUMP JUMPDEST PUSH1 0x0 DUP3 MLOAD GT DUP1 PUSH2 0x2CF0 JUMPI POP DUP1 JUMPDEST ISZERO PUSH2 0xBC1 JUMPI PUSH2 0xA98 DUP4 DUP4 PUSH2 0x307E JUMP JUMPDEST PUSH1 0x8 SLOAD PUSH2 0x100 SWAP1 DIV PUSH1 0xFF AND PUSH2 0x2D7C JUMPI PUSH1 0x40 MLOAD PUSH3 0x461BCD PUSH1 0xE5 SHL DUP2 MSTORE PUSH1 0x20 PUSH1 0x4 DUP3 ADD MSTORE PUSH1 0x2B PUSH1 0x24 DUP3 ADD MSTORE PUSH32 0x496E697469616C697A61626C653A20636F6E7472616374206973206E6F742069 PUSH1 0x44 DUP3 ADD MSTORE PUSH32 0x6E697469616C697A696E67000000000000000000000000000000000000000000 PUSH1 0x64 DUP3 ADD MSTORE PUSH1 0x84 ADD PUSH2 0xCB0 JUMP JUMPDEST PUSH1 0x9F DUP1 SLOAD PUSH1 0xFF NOT AND SWAP1 SSTORE JUMP JUMPDEST PUSH1 0x0 PUSH2 0x2710 PUSH1 0x0 SLOAD DUP4 PUSH2 0x2D9B SWAP2 SWAP1 PUSH2 0x3737 JUMP JUMPDEST PUSH2 0x9FF SWAP2 SWAP1 PUSH2 0x374E JUMP JUMPDEST PUSH1 0x0 PUSH2 0x2DB1 DUP3 DUP5 PUSH2 0x362F JUMP JUMPDEST SWAP4 SWAP3 POP POP POP JUMP JUMPDEST PUSH1 0x0 DUP2 DUP2 MSTORE PUSH2 0x135 PUSH1 0x20 MSTORE PUSH1 0x40 DUP2 KECCAK256 SLOAD PUSH1 0x1 PUSH1 0x1 PUSH1 0xA0 SHL SUB AND PUSH2 0x2DE6 JUMPI PUSH1 0x5 SLOAD PUSH1 0x1 PUSH1 0x1 PUSH1 0xA0 SHL SUB AND PUSH2 0x9FF JUMP JUMPDEST POP PUSH1 0x0 SWAP1 DUP2 MSTORE PUSH2 0x135 PUSH1 0x20 MSTORE PUSH1 0x40 SWAP1 KECCAK256 SLOAD PUSH1 0x1 PUSH1 0x1 PUSH1 0xA0 SHL SUB AND SWAP1 JUMP JUMPDEST PUSH1 0x60 PUSH2 0x9FF PUSH1 0x1 PUSH1 0x1 PUSH1 0xA0 SHL SUB DUP4 AND PUSH1 0x14 JUMPDEST PUSH1 0x60 PUSH1 0x0 PUSH2 0x2E24 DUP4 PUSH1 0x2 PUSH2 0x3737 JUMP JUMPDEST PUSH2 0x2E2F SWAP1 PUSH1 0x2 PUSH2 0x361C JUMP JUMPDEST PUSH8 0xFFFFFFFFFFFFFFFF DUP2 GT ISZERO PUSH2 0x2E47 JUMPI PUSH2 0x2E47 PUSH2 0x3306 JUMP JUMPDEST PUSH1 0x40 MLOAD SWAP1 DUP1 DUP3 MSTORE DUP1 PUSH1 0x1F ADD PUSH1 0x1F NOT AND PUSH1 0x20 ADD DUP3 ADD PUSH1 0x40 MSTORE DUP1 ISZERO PUSH2 0x2E71 JUMPI PUSH1 0x20 DUP3 ADD DUP2 DUP1 CALLDATASIZE DUP4 CALLDATACOPY ADD SWAP1 POP JUMPDEST POP SWAP1 POP PUSH32 0x3000000000000000000000000000000000000000000000000000000000000000 DUP2 PUSH1 0x0 DUP2 MLOAD DUP2 LT PUSH2 0x2EA8 JUMPI PUSH2 0x2EA8 PUSH2 0x35BA JUMP JUMPDEST PUSH1 0x20 ADD ADD SWAP1 PUSH31 0xFFFFFFFFFFFFFFFFFFFFFFFFFFFFFFFFFFFFFFFFFFFFFFFFFFFFFFFFFFFFFF NOT AND SWAP1 DUP2 PUSH1 0x0 BYTE SWAP1 MSTORE8 POP PUSH32 0x7800000000000000000000000000000000000000000000000000000000000000 DUP2 PUSH1 0x1 DUP2 MLOAD DUP2 LT PUSH2 0x2F0B JUMPI PUSH2 0x2F0B PUSH2 0x35BA JUMP JUMPDEST PUSH1 0x20 ADD ADD SWAP1 PUSH31 0xFFFFFFFFFFFFFFFFFFFFFFFFFFFFFFFFFFFFFFFFFFFFFFFFFFFFFFFFFFFFFF NOT AND SWAP1 DUP2 PUSH1 0x0 BYTE SWAP1 MSTORE8 POP PUSH1 0x0 PUSH2 0x2F47 DUP5 PUSH1 0x2 PUSH2 0x3737 JUMP JUMPDEST PUSH2 0x2F52 SWAP1 PUSH1 0x1 PUSH2 0x361C JUMP JUMPDEST SWAP1 POP JUMPDEST PUSH1 0x1 DUP2 GT ISZERO PUSH2 0x2FEF JUMPI PUSH32 0x3031323334353637383961626364656600000000000000000000000000000000 DUP6 PUSH1 0xF AND PUSH1 0x10 DUP2 LT PUSH2 0x2F93 JUMPI PUSH2 0x2F93 PUSH2 0x35BA JUMP JUMPDEST BYTE PUSH1 0xF8 SHL DUP3 DUP3 DUP2 MLOAD DUP2 LT PUSH2 0x2FA9 JUMPI PUSH2 0x2FA9 PUSH2 0x35BA JUMP JUMPDEST PUSH1 0x20 ADD ADD SWAP1 PUSH31 0xFFFFFFFFFFFFFFFFFFFFFFFFFFFFFFFFFFFFFFFFFFFFFFFFFFFFFFFFFFFFFF NOT AND SWAP1 DUP2 PUSH1 0x0 BYTE SWAP1 MSTORE8 POP PUSH1 0x4 SWAP5 SWAP1 SWAP5 SHR SWAP4 PUSH2 0x2FE8 DUP2 PUSH2 0x3770 JUMP JUMPDEST SWAP1 POP PUSH2 0x2F55 JUMP JUMPDEST POP DUP4 ISZERO PUSH2 0x2DB1 JUMPI PUSH1 0x40 MLOAD PUSH3 0x461BCD PUSH1 0xE5 SHL DUP2 MSTORE PUSH1 0x20 PUSH1 0x4 DUP3 ADD DUP2 SWAP1 MSTORE PUSH1 0x24 DUP3 ADD MSTORE PUSH32 0x537472696E67733A20686578206C656E67746820696E73756666696369656E74 PUSH1 0x44 DUP3 ADD MSTORE PUSH1 0x64 ADD PUSH2 0xCB0 JUMP JUMPDEST PUSH2 0x3047 DUP2 PUSH2 0x2C0F JUMP JUMPDEST PUSH1 0x40 MLOAD PUSH1 0x1 PUSH1 0x1 PUSH1 0xA0 SHL SUB DUP3 AND SWAP1 PUSH32 0xBC7CD75A20EE27FD9ADEBAB32041F755214DBC6BFFA90CC0225B39DA2E5C2D3B SWAP1 PUSH1 0x0 SWAP1 LOG2 POP JUMP JUMPDEST PUSH1 0x60 PUSH2 0x2DB1 DUP4 DUP4 PUSH1 0x40 MLOAD DUP1 PUSH1 0x60 ADD PUSH1 0x40 MSTORE DUP1 PUSH1 0x27 DUP2 MSTORE PUSH1 0x20 ADD PUSH2 0x37C2 PUSH1 0x27 SWAP2 CODECOPY PUSH1 0x60 PUSH1 0x0 DUP1 DUP6 PUSH1 0x1 PUSH1 0x1 PUSH1 0xA0 SHL SUB AND DUP6 PUSH1 0x40 MLOAD PUSH2 0x30BB SWAP2 SWAP1 PUSH2 0x37A5 JUMP JUMPDEST PUSH1 0x0 PUSH1 0x40 MLOAD DUP1 DUP4 SUB DUP2 DUP6 GAS DELEGATECALL SWAP2 POP POP RETURNDATASIZE DUP1 PUSH1 0x0 DUP2 EQ PUSH2 0x30F6 JUMPI PUSH1 0x40 MLOAD SWAP2 POP PUSH1 0x1F NOT PUSH1 0x3F RETURNDATASIZE ADD AND DUP3 ADD PUSH1 0x40 MSTORE RETURNDATASIZE DUP3 MSTORE RETURNDATASIZE PUSH1 0x0 PUSH1 0x20 DUP5 ADD RETURNDATACOPY PUSH2 0x30FB JUMP JUMPDEST PUSH1 0x60 SWAP2 POP JUMPDEST POP SWAP2 POP SWAP2 POP PUSH2 0x1CA2 DUP7 DUP4 DUP4 DUP8 PUSH1 0x60 DUP4 ISZERO PUSH2 0x3176 JUMPI DUP3 MLOAD PUSH1 0x0 SUB PUSH2 0x316F JUMPI PUSH1 0x1 PUSH1 0x1 PUSH1 0xA0 SHL SUB DUP6 AND EXTCODESIZE PUSH2 0x316F JUMPI PUSH1 0x40 MLOAD PUSH3 0x461BCD PUSH1 0xE5 SHL DUP2 MSTORE PUSH1 0x20 PUSH1 0x4 DUP3 ADD MSTORE PUSH1 0x1D PUSH1 0x24 DUP3 ADD MSTORE PUSH32 0x416464726573733A2063616C6C20746F206E6F6E2D636F6E7472616374000000 PUSH1 0x44 DUP3 ADD MSTORE PUSH1 0x64 ADD PUSH2 0xCB0 JUMP JUMPDEST POP DUP2 PUSH2 0x3180 JUMP JUMPDEST PUSH2 0x3180 DUP4 DUP4 PUSH2 0x3188 JUMP JUMPDEST SWAP5 SWAP4 POP POP POP POP JUMP JUMPDEST DUP2 MLOAD ISZERO PUSH2 0x3198 JUMPI DUP2 MLOAD DUP1 DUP4 PUSH1 0x20 ADD REVERT JUMPDEST DUP1 PUSH1 0x40 MLOAD PUSH3 0x461BCD PUSH1 0xE5 SHL DUP2 MSTORE PUSH1 0x4 ADD PUSH2 0xCB0 SWAP2 SWAP1 PUSH2 0x3704 JUMP JUMPDEST PUSH1 0x0 PUSH1 0x20 DUP3 DUP5 SUB SLT ISZERO PUSH2 0x31C4 JUMPI PUSH1 0x0 DUP1 REVERT JUMPDEST DUP2 CALLDATALOAD PUSH32 0xFFFFFFFF00000000000000000000000000000000000000000000000000000000 DUP2 AND DUP2 EQ PUSH2 0x2DB1 JUMPI PUSH1 0x0 DUP1 REVERT JUMPDEST PUSH1 0x0 DUP1 DUP4 PUSH1 0x1F DUP5 ADD SLT PUSH2 0x3206 JUMPI PUSH1 0x0 DUP1 REVERT JUMPDEST POP DUP2 CALLDATALOAD PUSH8 0xFFFFFFFFFFFFFFFF DUP2 GT ISZERO PUSH2 0x321E JUMPI PUSH1 0x0 DUP1 REVERT JUMPDEST PUSH1 0x20 DUP4 ADD SWAP2 POP DUP4 PUSH1 0x20 DUP3 PUSH1 0x5 SHL DUP6 ADD ADD GT ISZERO PUSH2 0x3239 JUMPI PUSH1 0x0 DUP1 REVERT JUMPDEST SWAP3 POP SWAP3 SWAP1 POP JUMP JUMPDEST PUSH1 0x0 DUP1 PUSH1 0x20 DUP4 DUP6 SUB SLT ISZERO PUSH2 0x3253 JUMPI PUSH1 0x0 DUP1 REVERT JUMPDEST DUP3 CALLDATALOAD PUSH8 0xFFFFFFFFFFFFFFFF DUP2 GT ISZERO PUSH2 0x326A JUMPI PUSH1 0x0 DUP1 REVERT JUMPDEST PUSH2 0x3276 DUP6 DUP3 DUP7 ADD PUSH2 0x31F4 JUMP JUMPDEST SWAP1 SWAP7 SWAP1 SWAP6 POP SWAP4 POP POP POP POP JUMP JUMPDEST PUSH1 0x1 PUSH1 0x1 PUSH1 0xA0 SHL SUB DUP2 AND DUP2 EQ PUSH2 0x127B JUMPI PUSH1 0x0 DUP1 REVERT JUMPDEST PUSH1 0x0 PUSH1 0x20 DUP3 DUP5 SUB SLT ISZERO PUSH2 0x32A9 JUMPI PUSH1 0x0 DUP1 REVERT JUMPDEST DUP2 CALLDATALOAD PUSH2 0x2DB1 DUP2 PUSH2 0x3282 JUMP JUMPDEST PUSH1 0x0 DUP1 PUSH1 0x0 PUSH1 0x60 DUP5 DUP7 SUB SLT ISZERO PUSH2 0x32C9 JUMPI PUSH1 0x0 DUP1 REVERT JUMPDEST DUP4 CALLDATALOAD SWAP3 POP PUSH1 0x20 DUP5 ADD CALLDATALOAD SWAP2 POP PUSH1 0x40 DUP5 ADD CALLDATALOAD PUSH2 0x32E2 DUP2 PUSH2 0x3282 JUMP JUMPDEST DUP1 SWAP2 POP POP SWAP3 POP SWAP3 POP SWAP3 JUMP JUMPDEST PUSH1 0x0 PUSH1 0x20 DUP3 DUP5 SUB SLT ISZERO PUSH2 0x32FF JUMPI PUSH1 0x0 DUP1 REVERT JUMPDEST POP CALLDATALOAD SWAP2 SWAP1 POP JUMP JUMPDEST PUSH4 0x4E487B71 PUSH1 0xE0 SHL PUSH1 0x0 MSTORE PUSH1 0x41 PUSH1 0x4 MSTORE PUSH1 0x24 PUSH1 0x0 REVERT JUMPDEST PUSH1 0x40 MLOAD PUSH1 0x1F DUP3 ADD PUSH1 0x1F NOT AND DUP2 ADD PUSH8 0xFFFFFFFFFFFFFFFF DUP2 GT DUP3 DUP3 LT OR ISZERO PUSH2 0x3345 JUMPI PUSH2 0x3345 PUSH2 0x3306 JUMP JUMPDEST PUSH1 0x40 MSTORE SWAP2 SWAP1 POP JUMP JUMPDEST PUSH1 0x0 PUSH1 0x20 DUP1 DUP4 DUP6 SUB SLT ISZERO PUSH2 0x3360 JUMPI PUSH1 0x0 DUP1 REVERT JUMPDEST DUP3 CALLDATALOAD PUSH8 0xFFFFFFFFFFFFFFFF DUP1 DUP3 GT ISZERO PUSH2 0x3378 JUMPI PUSH1 0x0 DUP1 REVERT JUMPDEST DUP2 DUP6 ADD SWAP2 POP DUP6 PUSH1 0x1F DUP4 ADD SLT PUSH2 0x338C JUMPI PUSH1 0x0 DUP1 REVERT JUMPDEST DUP2 CALLDATALOAD DUP2 DUP2 GT ISZERO PUSH2 0x339E JUMPI PUSH2 0x339E PUSH2 0x3306 JUMP JUMPDEST DUP1 PUSH1 0x5 SHL SWAP2 POP PUSH2 0x33AF DUP5 DUP4 ADD PUSH2 0x331C JUMP JUMPDEST DUP2 DUP2 MSTORE SWAP2 DUP4 ADD DUP5 ADD SWAP2 DUP5 DUP2 ADD SWAP1 DUP9 DUP5 GT ISZERO PUSH2 0x33C9 JUMPI PUSH1 0x0 DUP1 REVERT JUMPDEST SWAP4 DUP6 ADD SWAP4 JUMPDEST DUP4 DUP6 LT ISZERO PUSH2 0x33F3 JUMPI DUP5 CALLDATALOAD SWAP3 POP PUSH2 0x33E3 DUP4 PUSH2 0x3282 JUMP JUMPDEST DUP3 DUP3 MSTORE SWAP4 DUP6 ADD SWAP4 SWAP1 DUP6 ADD SWAP1 PUSH2 0x33CE JUMP JUMPDEST SWAP9 SWAP8 POP POP POP POP POP POP POP POP JUMP JUMPDEST PUSH1 0x0 DUP1 PUSH1 0x40 DUP4 DUP6 SUB SLT ISZERO PUSH2 0x3412 JUMPI PUSH1 0x0 DUP1 REVERT JUMPDEST DUP3 CALLDATALOAD SWAP2 POP PUSH1 0x20 DUP4 ADD CALLDATALOAD PUSH2 0x3424 DUP2 PUSH2 0x3282 JUMP JUMPDEST DUP1 SWAP2 POP POP SWAP3 POP SWAP3 SWAP1 POP JUMP JUMPDEST PUSH1 0x0 DUP1 PUSH1 0x40 DUP4 DUP6 SUB SLT ISZERO PUSH2 0x3442 JUMPI PUSH1 0x0 DUP1 REVERT JUMPDEST POP POP DUP1 CALLDATALOAD SWAP3 PUSH1 0x20 SWAP1 SWAP2 ADD CALLDATALOAD SWAP2 POP JUMP JUMPDEST DUP1 ISZERO ISZERO DUP2 EQ PUSH2 0x127B JUMPI PUSH1 0x0 DUP1 REVERT JUMPDEST PUSH1 0x0 DUP1 PUSH1 0x0 PUSH1 0x60 DUP5 DUP7 SUB SLT ISZERO PUSH2 0x3474 JUMPI PUSH1 0x0 DUP1 REVERT JUMPDEST DUP4 CALLDATALOAD SWAP3 POP PUSH1 0x20 DUP5 ADD CALLDATALOAD PUSH2 0x3486 DUP2 PUSH2 0x3451 JUMP JUMPDEST SWAP3 SWAP6 SWAP3 SWAP5 POP POP POP PUSH1 0x40 SWAP2 SWAP1 SWAP2 ADD CALLDATALOAD SWAP1 JUMP JUMPDEST PUSH1 0x0 DUP1 PUSH1 0x40 DUP4 DUP6 SUB SLT ISZERO PUSH2 0x34AA JUMPI PUSH1 0x0 DUP1 REVERT JUMPDEST DUP3 CALLDATALOAD PUSH2 0x34B5 DUP2 PUSH2 0x3282 JUMP JUMPDEST SWAP2 POP PUSH1 0x20 DUP4 ADD CALLDATALOAD PUSH2 0x3424 DUP2 PUSH2 0x3282 JUMP JUMPDEST PUSH1 0x0 DUP1 PUSH1 0x40 DUP4 DUP6 SUB SLT ISZERO PUSH2 0x34D8 JUMPI PUSH1 0x0 DUP1 REVERT JUMPDEST DUP3 CALLDATALOAD PUSH2 0x34E3 DUP2 PUSH2 0x3282 JUMP JUMPDEST SWAP2 POP PUSH1 0x20 DUP4 DUP2 ADD CALLDATALOAD PUSH8 0xFFFFFFFFFFFFFFFF DUP1 DUP3 GT ISZERO PUSH2 0x3501 JUMPI PUSH1 0x0 DUP1 REVERT JUMPDEST DUP2 DUP7 ADD SWAP2 POP DUP7 PUSH1 0x1F DUP4 ADD SLT PUSH2 0x3515 JUMPI PUSH1 0x0 DUP1 REVERT JUMPDEST DUP2 CALLDATALOAD DUP2 DUP2 GT ISZERO PUSH2 0x3527 JUMPI PUSH2 0x3527 PUSH2 0x3306 JUMP JUMPDEST PUSH2 0x3539 DUP5 PUSH1 0x1F NOT PUSH1 0x1F DUP5 ADD AND ADD PUSH2 0x331C JUMP JUMPDEST SWAP2 POP DUP1 DUP3 MSTORE DUP8 DUP5 DUP3 DUP6 ADD ADD GT ISZERO PUSH2 0x354F JUMPI PUSH1 0x0 DUP1 REVERT JUMPDEST DUP1 DUP5 DUP5 ADD DUP6 DUP5 ADD CALLDATACOPY PUSH1 0x0 DUP5 DUP3 DUP5 ADD ADD MSTORE POP DUP1 SWAP4 POP POP POP POP SWAP3 POP SWAP3 SWAP1 POP JUMP JUMPDEST PUSH1 0x20 DUP1 DUP3 MSTORE DUP3 MLOAD DUP3 DUP3 ADD DUP2 SWAP1 MSTORE PUSH1 0x0 SWAP2 SWAP1 DUP5 DUP3 ADD SWAP1 PUSH1 0x40 DUP6 ADD SWAP1 DUP5 JUMPDEST DUP2 DUP2 LT ISZERO PUSH2 0x35AE JUMPI DUP4 MLOAD PUSH1 0x1 PUSH1 0x1 PUSH1 0xA0 SHL SUB AND DUP4 MSTORE SWAP3 DUP5 ADD SWAP3 SWAP2 DUP5 ADD SWAP2 PUSH1 0x1 ADD PUSH2 0x3589 JUMP JUMPDEST POP SWAP1 SWAP7 SWAP6 POP POP POP POP POP POP JUMP JUMPDEST PUSH4 0x4E487B71 PUSH1 0xE0 SHL PUSH1 0x0 MSTORE PUSH1 0x32 PUSH1 0x4 MSTORE PUSH1 0x24 PUSH1 0x0 REVERT JUMPDEST PUSH1 0x0 PUSH1 0x20 DUP3 DUP5 SUB SLT ISZERO PUSH2 0x35E2 JUMPI PUSH1 0x0 DUP1 REVERT JUMPDEST POP MLOAD SWAP2 SWAP1 POP JUMP JUMPDEST PUSH1 0x0 PUSH1 0x20 DUP3 DUP5 SUB SLT ISZERO PUSH2 0x35FB JUMPI PUSH1 0x0 DUP1 REVERT JUMPDEST DUP2 MLOAD PUSH2 0x2DB1 DUP2 PUSH2 0x3451 JUMP JUMPDEST PUSH4 0x4E487B71 PUSH1 0xE0 SHL PUSH1 0x0 MSTORE PUSH1 0x11 PUSH1 0x4 MSTORE PUSH1 0x24 PUSH1 0x0 REVERT JUMPDEST DUP1 DUP3 ADD DUP1 DUP3 GT ISZERO PUSH2 0x9FF JUMPI PUSH2 0x9FF PUSH2 0x3606 JUMP JUMPDEST DUP2 DUP2 SUB DUP2 DUP2 GT ISZERO PUSH2 0x9FF JUMPI PUSH2 0x9FF PUSH2 0x3606 JUMP JUMPDEST PUSH1 0x0 PUSH1 0x20 DUP3 DUP5 SUB SLT ISZERO PUSH2 0x3654 JUMPI PUSH1 0x0 DUP1 REVERT JUMPDEST DUP2 MLOAD PUSH2 0x2DB1 DUP2 PUSH2 0x3282 JUMP JUMPDEST PUSH1 0x0 JUMPDEST DUP4 DUP2 LT ISZERO PUSH2 0x367A JUMPI DUP2 DUP2 ADD MLOAD DUP4 DUP3 ADD MSTORE PUSH1 0x20 ADD PUSH2 0x3662 JUMP JUMPDEST POP POP PUSH1 0x0 SWAP2 ADD MSTORE JUMP JUMPDEST PUSH32 0x416363657373436F6E74726F6C3A206163636F756E7420000000000000000000 DUP2 MSTORE PUSH1 0x0 DUP4 MLOAD PUSH2 0x36BB DUP2 PUSH1 0x17 DUP6 ADD PUSH1 0x20 DUP9 ADD PUSH2 0x365F JUMP JUMPDEST PUSH32 0x206973206D697373696E6720726F6C6520000000000000000000000000000000 PUSH1 0x17 SWAP2 DUP5 ADD SWAP2 DUP3 ADD MSTORE DUP4 MLOAD PUSH2 0x36F8 DUP2 PUSH1 0x28 DUP5 ADD PUSH1 0x20 DUP9 ADD PUSH2 0x365F JUMP JUMPDEST ADD PUSH1 0x28 ADD SWAP5 SWAP4 POP POP POP POP JUMP JUMPDEST PUSH1 0x20 DUP2 MSTORE PUSH1 0x0 DUP3 MLOAD DUP1 PUSH1 0x20 DUP5 ADD MSTORE PUSH2 0x3723 DUP2 PUSH1 0x40 DUP6 ADD PUSH1 0x20 DUP8 ADD PUSH2 0x365F JUMP JUMPDEST PUSH1 0x1F ADD PUSH1 0x1F NOT AND SWAP2 SWAP1 SWAP2 ADD PUSH1 0x40 ADD SWAP3 SWAP2 POP POP JUMP JUMPDEST DUP1 DUP3 MUL DUP2 ISZERO DUP3 DUP3 DIV DUP5 EQ OR PUSH2 0x9FF JUMPI PUSH2 0x9FF PUSH2 0x3606 JUMP JUMPDEST PUSH1 0x0 DUP3 PUSH2 0x376B JUMPI PUSH4 0x4E487B71 PUSH1 0xE0 SHL PUSH1 0x0 MSTORE PUSH1 0x12 PUSH1 0x4 MSTORE PUSH1 0x24 PUSH1 0x0 REVERT JUMPDEST POP DIV SWAP1 JUMP JUMPDEST PUSH1 0x0 DUP2 PUSH2 0x377F JUMPI PUSH2 0x377F PUSH2 0x3606 JUMP JUMPDEST POP PUSH32 0xFFFFFFFFFFFFFFFFFFFFFFFFFFFFFFFFFFFFFFFFFFFFFFFFFFFFFFFFFFFFFFFF ADD SWAP1 JUMP JUMPDEST PUSH1 0x0 DUP3 MLOAD PUSH2 0x37B7 DUP2 DUP5 PUSH1 0x20 DUP8 ADD PUSH2 0x365F JUMP JUMPDEST SWAP2 SWAP1 SWAP2 ADD SWAP3 SWAP2 POP POP JUMP INVALID COINBASE PUSH5 0x6472657373 GASPRICE KECCAK256 PUSH13 0x6F772D6C6576656C2064656C65 PUSH8 0x6174652063616C6C KECCAK256 PUSH7 0x61696C6564A264 PUSH10 0x706673582212206EB16E PUSH27 0x1ED4785AF6218859A5FE0E86C6819D9FEFC08B7A60FD3C1C3B3C37 ADDMOD PUSH5 0x736F6C6343 STOP ADDMOD XOR STOP CALLER "},"methodIdentifiers":{"BANNER_ROLE()":"f690d973","CANCELER_ROLE()":"02d2ff66","DEFAULT_ADMIN_ROLE()":"a217fddf","DESIGNER_ROLE()":"df064ad8","PAUSER_ROLE()":"e63ab1e9","UPGRADER_ROLE()":"f72c0d8b","WITHDRAWER_ROLE()":"85f438c1","addToBacklist(address[])":"5ec9a943","bcoinContract()":"0b9a743a","buy(uint256,uint256)":"d6febde8","cancelOrder(uint256)":"514fcac7","cancelOrderWhenPaused(uint256)":"cc3e0df6","changeSettings(uint256,uint256)":"36d02c94","cooldownBeforeCancel()":"a459f3ae","cooldownByBlockNumber()":"1ab0d567","createOrder(uint256,uint256,address)":"23b70d76","getBalance()":"12065fe0","getOrder(uint256)":"d09ef241","getOrderV2(uint256)":"50281736","getRoleAdmin(bytes32)":"248a9ca3","getTokenPayList(uint256[])":"e1ae214b","grantRole(bytes32,address)":"2f2ff15d","hasRole(bytes32,address)":"91d14854","initialize(address,address)":"485cc955","isBlacklist(address)":"333e99db","isSellable(uint256,uint256)":"9ed36d68","myVersion()":"2822dc73","nftContract()":"d56d229d","pause()":"8456cb59","paused()":"5c975abb","proxiableUUID()":"52d1902d","removeFromBacklist(address[])":"2da7ea75","renounceRole(bytes32,address)":"36568abe","revokeRole(bytes32,address)":"d547741f","sellableByRarity(uint256)":"4f1b1086","setCooldownByBlockNumber(uint256)":"73958428","setSellableRule(uint256,bool,uint256)":"4665a43f","setTokenWhitelist(address[])":"03a5b1ed","supportsInterface(bytes4)":"01ffc9a7","taxRate()":"771a3a1d","tokenWhitelist(address)":"753d7563","unpause()":"3f4ba83a","upgradeTo(address)":"3659cfe6","upgradeToAndCall(address,bytes)":"4f1ef286","withdraw()":"3ccfd60b","withdrawV2(address)":"08b57f31"}},"storageLayout":{"storage":[{"astId":6380,"contract":"contracts/BHeroMarket.sol:BHeroMarket","label":"taxRate","offset":0,"slot":"0","type":"t_uint256"},{"astId":6382,"contract":"contracts/BHeroMarket.sol:BHeroMarket","label":"cooldownBeforeCancel","offset":0,"slot":"1","type":"t_uint256"},{"astId":6384,"contract":"contracts/BHeroMarket.sol:BHeroMarket","label":"cooldownByBlockNumber","offset":0,"slot":"2","type":"t_uint256"},{"astId":6394,"contract":"contracts/BHeroMarket.sol:BHeroMarket","label":"sellableByRarity","offset":0,"slot":"3","type":"t_mapping(t_uint256,t_struct(RarityRule)6389_storage)"},{"astId":6398,"contract":"contracts/BHeroMarket.sol:BHeroMarket","label":"blacklist","offset":0,"slot":"4","type":"t_mapping(t_address,t_bool)"},{"astId":6412,"contract":"contracts/BHeroMarket.sol:BHeroMarket","label":"bcoinContract","offset":0,"slot":"5","type":"t_contract(IERC20)3347"},{"astId":6415,"contract":"contracts/BHeroMarket.sol:BHeroMarket","label":"nftContract","offset":0,"slot":"6","type":"t_contract(IERC721)6370"},{"astId":6420,"contract":"contracts/BHeroMarket.sol:BHeroMarket","label":"tokenIdToOrder","offset":0,"slot":"7","type":"t_mapping(t_uint256,t_struct(Order)6409_storage)"},{"astId":782,"contract":"contracts/BHeroMarket.sol:BHeroMarket","label":"_initialized","offset":0,"slot":"8","type":"t_uint8"},{"astId":785,"contract":"contracts/BHeroMarket.sol:BHeroMarket","label":"_initializing","offset":1,"slot":"8","type":"t_bool"},{"astId":1589,"contract":"contracts/BHeroMarket.sol:BHeroMarket","label":"__gap","offset":0,"slot":"9","type":"t_array(t_uint256)50_storage"},{"astId":1973,"contract":"contracts/BHeroMarket.sol:BHeroMarket","label":"__gap","offset":0,"slot":"59","type":"t_array(t_uint256)50_storage"},{"astId":28,"contract":"contracts/BHeroMarket.sol:BHeroMarket","label":"_roles","offset":0,"slot":"109","type":"t_mapping(t_bytes32,t_struct(RoleData)23_storage)"},{"astId":335,"contract":"contracts/BHeroMarket.sol:BHeroMarket","label":"__gap","offset":0,"slot":"110","type":"t_array(t_uint256)49_storage"},{"astId":1103,"contract":"contracts/BHeroMarket.sol:BHeroMarket","label":"_paused","offset":0,"slot":"159","type":"t_bool"},{"astId":1208,"contract":"contracts/BHeroMarket.sol:BHeroMarket","label":"__gap","offset":0,"slot":"160","type":"t_array(t_uint256)49_storage"},{"astId":764,"contract":"contracts/BHeroMarket.sol:BHeroMarket","label":"__gap","offset":0,"slot":"209","type":"t_array(t_uint256)50_storage"},{"astId":1080,"contract":"contracts/BHeroMarket.sol:BHeroMarket","label":"__gap","offset":0,"slot":"259","type":"t_array(t_uint256)50_storage"},{"astId":4320,"contract":"contracts/BHeroMarket.sol:BHeroMarket","label":"tokenPay","offset":0,"slot":"309","type":"t_mapping(t_uint256,t_address)"},{"astId":4324,"contract":"contracts/BHeroMarket.sol:BHeroMarket","label":"tokenWhitelist","offset":0,"slot":"310","type":"t_mapping(t_address,t_bool)"}],"types":{"t_address":{"encoding":"inplace","label":"address","numberOfBytes":"20"},"t_array(t_uint256)49_storage":{"base":"t_uint256","encoding":"inplace","label":"uint256[49]","numberOfBytes":"1568"},"t_array(t_uint256)50_storage":{"base":"t_uint256","encoding":"inplace","label":"uint256[50]","numberOfBytes":"1600"},"t_bool":{"encoding":"inplace","label":"bool","numberOfBytes":"1"},"t_bytes32":{"encoding":"inplace","label":"bytes32","numberOfBytes":"32"},"t_contract(IERC20)3347":{"encoding":"inplace","label":"contract IERC20","numberOfBytes":"20"},"t_contract(IERC721)6370":{"encoding":"inplace","label":"contract IERC721","numberOfBytes":"20"},"t_mapping(t_address,t_bool)":{"encoding":"mapping","key":"t_address","label":"mapping(address => bool)","numberOfBytes":"32","value":"t_bool"},"t_mapping(t_bytes32,t_struct(RoleData)23_storage)":{"encoding":"mapping","key":"t_bytes32","label":"mapping(bytes32 => struct AccessControlUpgradeable.RoleData)","numberOfBytes":"32","value":"t_struct(RoleData)23_storage"},"t_mapping(t_uint256,t_address)":{"encoding":"mapping","key":"t_uint256","label":"mapping(uint256 => address)","numberOfBytes":"32","value":"t_address"},"t_mapping(t_uint256,t_struct(Order)6409_storage)":{"encoding":"mapping","key":"t_uint256","label":"mapping(uint256 => struct MarketCore.Order)","numberOfBytes":"32","value":"t_struct(Order)6409_storage"},"t_mapping(t_uint256,t_struct(RarityRule)6389_storage)":{"encoding":"mapping","key":"t_uint256","label":"mapping(uint256 => struct MarketCore.RarityRule)","numberOfBytes":"32","value":"t_struct(RarityRule)6389_storage"},"t_struct(Order)6409_storage":{"encoding":"inplace","label":"struct MarketCore.Order","members":[{"astId":6400,"contract":"contracts/BHeroMarket.sol:BHeroMarket","label":"tokenId","offset":0,"slot":"0","type":"t_uint256"},{"astId":6402,"contract":"contracts/BHeroMarket.sol:BHeroMarket","label":"seller","offset":0,"slot":"1","type":"t_address"},{"astId":6404,"contract":"contracts/BHeroMarket.sol:BHeroMarket","label":"price","offset":0,"slot":"2","type":"t_uint256"},{"astId":6406,"contract":"contracts/BHeroMarket.sol:BHeroMarket","label":"tokenDetail","offset":0,"slot":"3","type":"t_uint256"},{"astId":6408,"contract":"contracts/BHeroMarket.sol:BHeroMarket","label":"startedAt","offset":0,"slot":"4","type":"t_uint256"}],"numberOfBytes":"160"},"t_struct(RarityRule)6389_storage":{"encoding":"inplace","label":"struct MarketCore.RarityRule","members":[{"astId":6386,"contract":"contracts/BHeroMarket.sol:BHeroMarket","label":"isSellable","offset":0,"slot":"0","type":"t_bool"},{"astId":6388,"contract":"contracts/BHeroMarket.sol:BHeroMarket","label":"minPrice","offset":0,"slot":"1","type":"t_uint256"}],"numberOfBytes":"64"},"t_struct(RoleData)23_storage":{"encoding":"inplace","label":"struct AccessControlUpgradeable.RoleData","members":[{"astId":20,"contract":"contracts/BHeroMarket.sol:BHeroMarket","label":"members","offset":0,"slot":"0","type":"t_mapping(t_address,t_bool)"},{"astId":22,"contract":"contracts/BHeroMarket.sol:BHeroMarket","label":"adminRole","offset":0,"slot":"1","type":"t_bytes32"}],"numberOfBytes":"64"},"t_uint256":{"encoding":"inplace","label":"uint256","numberOfBytes":"32"},"t_uint8":{"encoding":"inplace","label":"uint8","numberOfBytes":"1"}}}}}}