{"contracts/My404.sol":{"My404":{"abi":[{"inputs":[{"internalType":"address","name":"_owner","type":"address"}],"stateMutability":"nonpayable","type":"constructor"},{"inputs":[],"name":"AlreadyExists","type":"error"},{"inputs":[],"name":"InvalidOwner","type":"error"},{"inputs":[],"name":"InvalidRecipient","type":"error"},{"inputs":[],"name":"InvalidSender","type":"error"},{"inputs":[],"name":"NotFound","type":"error"},{"inputs":[],"name":"Unauthorized","type":"error"},{"inputs":[],"name":"UnsafeRecipient","type":"error"},{"anonymous":false,"inputs":[{"indexed":true,"internalType":"address","name":"owner","type":"address"},{"indexed":true,"internalType":"address","name":"spender","type":"address"},{"indexed":false,"internalType":"uint256","name":"amount","type":"uint256"}],"name":"Approval","type":"event"},{"anonymous":false,"inputs":[{"indexed":true,"internalType":"address","name":"owner","type":"address"},{"indexed":true,"internalType":"address","name":"operator","type":"address"},{"indexed":false,"internalType":"bool","name":"approved","type":"bool"}],"name":"ApprovalForAll","type":"event"},{"anonymous":false,"inputs":[{"indexed":true,"internalType":"address","name":"from","type":"address"},{"indexed":true,"internalType":"address","name":"to","type":"address"},{"indexed":false,"internalType":"uint256","name":"amount","type":"uint256"}],"name":"ERC20Transfer","type":"event"},{"anonymous":false,"inputs":[{"indexed":true,"internalType":"address","name":"owner","type":"address"},{"indexed":true,"internalType":"address","name":"spender","type":"address"},{"indexed":true,"internalType":"uint256","name":"id","type":"uint256"}],"name":"ERC721Approval","type":"event"},{"anonymous":false,"inputs":[{"indexed":true,"internalType":"address","name":"user","type":"address"},{"indexed":true,"internalType":"address","name":"newOwner","type":"address"}],"name":"OwnershipTransferred","type":"event"},{"anonymous":false,"inputs":[{"indexed":true,"internalType":"address","name":"from","type":"address"},{"indexed":true,"internalType":"address","name":"to","type":"address"},{"indexed":true,"internalType":"uint256","name":"id","type":"uint256"}],"name":"Transfer","type":"event"},{"inputs":[{"internalType":"address","name":"","type":"address"},{"internalType":"address","name":"","type":"address"}],"name":"allowance","outputs":[{"internalType":"uint256","name":"","type":"uint256"}],"stateMutability":"view","type":"function"},{"inputs":[{"internalType":"address","name":"spender","type":"address"},{"internalType":"uint256","name":"amountOrId","type":"uint256"}],"name":"approve","outputs":[{"internalType":"bool","name":"","type":"bool"}],"stateMutability":"nonpayable","type":"function"},{"inputs":[{"internalType":"address","name":"","type":"address"}],"name":"balanceOf","outputs":[{"internalType":"uint256","name":"","type":"uint256"}],"stateMutability":"view","type":"function"},{"inputs":[],"name":"baseTokenURI","outputs":[{"internalType":"string","name":"","type":"string"}],"stateMutability":"view","type":"function"},{"inputs":[],"name":"dataURI","outputs":[{"internalType":"string","name":"","type":"string"}],"stateMutability":"view","type":"function"},{"inputs":[],"name":"decimals","outputs":[{"internalType":"uint8","name":"","type":"uint8"}],"stateMutability":"view","type":"function"},{"inputs":[{"internalType":"uint256","name":"","type":"uint256"}],"name":"getApproved","outputs":[{"internalType":"address","name":"","type":"address"}],"stateMutability":"view","type":"function"},{"inputs":[{"internalType":"address","name":"","type":"address"},{"internalType":"address","name":"","type":"address"}],"name":"isApprovedForAll","outputs":[{"internalType":"bool","name":"","type":"bool"}],"stateMutability":"view","type":"function"},{"inputs":[],"name":"minted","outputs":[{"internalType":"uint256","name":"","type":"uint256"}],"stateMutability":"view","type":"function"},{"inputs":[],"name":"name","outputs":[{"internalType":"string","name":"","type":"string"}],"stateMutability":"view","type":"function"},{"inputs":[],"name":"owner","outputs":[{"internalType":"address","name":"","type":"address"}],"stateMutability":"view","type":"function"},{"inputs":[{"internalType":"uint256","name":"id","type":"uint256"}],"name":"ownerOf","outputs":[{"internalType":"address","name":"owner","type":"address"}],"stateMutability":"view","type":"function"},{"inputs":[],"name":"revokeOwnership","outputs":[],"stateMutability":"nonpayable","type":"function"},{"inputs":[{"internalType":"address","name":"from","type":"address"},{"internalType":"address","name":"to","type":"address"},{"internalType":"uint256","name":"id","type":"uint256"}],"name":"safeTransferFrom","outputs":[],"stateMutability":"nonpayable","type":"function"},{"inputs":[{"internalType":"address","name":"from","type":"address"},{"internalType":"address","name":"to","type":"address"},{"internalType":"uint256","name":"id","type":"uint256"},{"internalType":"bytes","name":"data","type":"bytes"}],"name":"safeTransferFrom","outputs":[],"stateMutability":"nonpayable","type":"function"},{"inputs":[{"internalType":"address","name":"operator","type":"address"},{"internalType":"bool","name":"approved","type":"bool"}],"name":"setApprovalForAll","outputs":[],"stateMutability":"nonpayable","type":"function"},{"inputs":[{"internalType":"string","name":"_dataURI","type":"string"}],"name":"setDataURI","outputs":[],"stateMutability":"nonpayable","type":"function"},{"inputs":[{"internalType":"string","name":"_name","type":"string"},{"internalType":"string","name":"_symbol","type":"string"}],"name":"setNameSymbol","outputs":[],"stateMutability":"nonpayable","type":"function"},{"inputs":[{"internalType":"string","name":"_tokenURI","type":"string"}],"name":"setTokenURI","outputs":[],"stateMutability":"nonpayable","type":"function"},{"inputs":[{"internalType":"address","name":"target","type":"address"},{"internalType":"bool","name":"state","type":"bool"}],"name":"setWhitelist","outputs":[],"stateMutability":"nonpayable","type":"function"},{"inputs":[],"name":"symbol","outputs":[{"internalType":"string","name":"","type":"string"}],"stateMutability":"view","type":"function"},{"inputs":[{"internalType":"uint256","name":"id","type":"uint256"}],"name":"tokenURI","outputs":[{"internalType":"string","name":"","type":"string"}],"stateMutability":"view","type":"function"},{"inputs":[],"name":"totalSupply","outputs":[{"internalType":"uint256","name":"","type":"uint256"}],"stateMutability":"view","type":"function"},{"inputs":[{"internalType":"address","name":"to","type":"address"},{"internalType":"uint256","name":"amount","type":"uint256"}],"name":"transfer","outputs":[{"internalType":"bool","name":"","type":"bool"}],"stateMutability":"nonpayable","type":"function"},{"inputs":[{"internalType":"address","name":"from","type":"address"},{"internalType":"address","name":"to","type":"address"},{"internalType":"uint256","name":"amountOrId","type":"uint256"}],"name":"transferFrom","outputs":[],"stateMutability":"nonpayable","type":"function"},{"inputs":[{"internalType":"address","name":"_owner","type":"address"}],"name":"transferOwnership","outputs":[],"stateMutability":"nonpayable","type":"function"},{"inputs":[{"internalType":"address","name":"","type":"address"}],"name":"whitelist","outputs":[{"internalType":"bool","name":"","type":"bool"}],"stateMutability":"view","type":"function"}],"evm":{"bytecode":{"linkReferences":{},"object":"60c06040523480156200001157600080fd5b5060405162001fe338038062001fe3833981016040819052620000349162000169565b60405180604001604052806005815260200164135e4d0c0d60da1b8152506040518060400160405280600581526020016413564d0c0d60da1b8152506012612710848060006001600160a01b0316816001600160a01b031603620000ab576040516349e27cff60e01b815260040160405180910390fd5b600080546001600160a01b0319166001600160a01b03831690811782556040519091907f8be0079c531659141344cd1fd0a4f28419497f9722a3daafe3b4186f6b6457e0908290a350600162000102868262000242565b50600262000111858262000242565b5060ff831660808190526200012890600a62000423565b62000134908362000434565b60a0525050506001600160a01b03909216600090815260046020526040902069021e19e0c9bab24000009055506200044e9050565b6000602082840312156200017c57600080fd5b81516001600160a01b03811681146200019457600080fd5b9392505050565b634e487b7160e01b600052604160045260246000fd5b600181811c90821680620001c657607f821691505b602082108103620001e757634e487b7160e01b600052602260045260246000fd5b50919050565b601f8211156200023d576000816000526020600020601f850160051c81016020861015620002185750805b601f850160051c820191505b81811015620002395782815560010162000224565b5050505b505050565b81516001600160401b038111156200025e576200025e6200019b565b62000276816200026f8454620001b1565b84620001ed565b602080601f831160018114620002ae5760008415620002955750858301515b600019600386901b1c1916600185901b17855562000239565b600085815260208120601f198616915b82811015620002df57888601518255948401946001909101908401620002be565b5085821015620002fe5787850151600019600388901b60f8161c191681555b5050505050600190811b01905550565b634e487b7160e01b600052601160045260246000fd5b600181815b80851115620003655781600019048211156200034957620003496200030e565b808516156200035757918102915b93841c939080029062000329565b509250929050565b6000826200037e575060016200041d565b816200038d575060006200041d565b8160018114620003a65760028114620003b157620003d1565b60019150506200041d565b60ff841115620003c557620003c56200030e565b50506001821b6200041d565b5060208310610133831016604e8410600b8410161715620003f6575081810a6200041d565b62000402838362000324565b80600019048211156200041957620004196200030e565b0290505b92915050565b60006200019460ff8416836200036d565b80820281158282048414176200041d576200041d6200030e565b60805160a051611b686200047b60003960006102450152600081816102aa01526110100152611b686000f3fe608060405234801561001057600080fd5b50600436106101b95760003560e01c806370a08231116100f9578063c87b56dd11610097578063e0df5b6f11610071578063e0df5b6f14610410578063e985e9c514610423578063f28ca1dd14610451578063f2fde38b1461045957600080fd5b8063c87b56dd146103ca578063d547cfb7146103dd578063dd62ed3e146103e557600080fd5b80639b19251a116100d35780639b19251a1461036e578063a22cb46514610391578063a9059cbb146103a4578063b88d4fde146103b757600080fd5b806370a08231146103335780638da5cb5b1461035357806395d89b411461036657600080fd5b80632b968958116101665780634f02c420116101405780634f02c420146102f1578063504334c2146102fa57806353d6fd591461030d5780636352211e1461032057600080fd5b80632b9689581461029d578063313ce567146102a557806342842e0e146102de57600080fd5b806318160ddd1161019757806318160ddd1461024057806318d217c31461027557806323b872dd1461028a57600080fd5b806306fdde03146101be578063081812fc146101dc578063095ea7b31461021d575b600080fd5b6101c661046c565b6040516101d3919061149a565b60405180910390f35b6102056101ea3660046114e9565b6006602052600090815260409020546001600160a01b031681565b6040516001600160a01b0390911681526020016101d3565b61023061022b366004611519565b6104fa565b60405190151581526020016101d3565b6102677f000000000000000000000000000000000000000000000000000000000000000081565b6040519081526020016101d3565b6102886102833660046115e6565b610658565b005b610288610298366004611623565b610692565b610288610a5a565b6102cc7f000000000000000000000000000000000000000000000000000000000000000081565b60405160ff90911681526020016101d3565b6102886102ec366004611623565b610acd565b61026760035481565b61028861030836600461165f565b610bec565b61028861031b3660046116c3565b610c20565b61020561032e3660046114e9565b610c75565b6102676103413660046116ff565b60046020526000908152604090205481565b600054610205906001600160a01b031681565b6101c6610cc9565b61023061037c3660046116ff565b600b6020526000908152604090205460ff1681565b61028861039f3660046116c3565b610cd6565b6102306103b2366004611519565b610d42565b6102886103c536600461171a565b610d56565b6101c66103d83660046114e9565b610e63565b6101c6610ef7565b6102676103f33660046117b5565b600560209081526000928352604080842090915290825290205481565b61028861041e3660046115e6565b610f04565b6102306104313660046117b5565b600760209081526000928352604080842090915290825290205460ff1681565b6101c6610f3a565b6102886104673660046116ff565b610f47565b60018054610479906117e8565b80601f01602080910402602001604051908101604052809291908181526020018280546104a5906117e8565b80156104f25780601f106104c7576101008083540402835291602001916104f2565b820191906000526020600020905b8154815290600101906020018083116104d557829003601f168201915b505050505081565b6000600354821115801561050e5750600082115b156105f2576000828152600860205260409020546001600160a01b031633811480159061055f57506001600160a01b038116600090815260076020908152604080832033845290915290205460ff16155b1561057c576040516282b42960e81b815260040160405180910390fd5b600083815260066020908152604091829020805473ffffffffffffffffffffffffffffffffffffffff19166001600160a01b038881169182179092559251868152908416917f8c5be1e5ebec7d5bd14f71427d1e84f3dd0314c0f7b2291e5b200ac8c7c3b925910160405180910390a35061064e565b3360008181526005602090815260408083206001600160a01b03881680855290835292819020869055518581529192917f8c5be1e5ebec7d5bd14f71427d1e84f3dd0314c0f7b2291e5b200ac8c7c3b925910160405180910390a35b5060015b92915050565b6000546001600160a01b03163314610682576040516282b42960e81b815260040160405180910390fd5b600c61068e8282611872565b5050565b60035481116109eb576000818152600860205260409020546001600160a01b038481169116146106ee576040517fddb5de5e00000000000000000000000000000000000000000000000000000000815260040160405180910390fd5b6001600160a01b03821661072e576040517f9c8d2cd200000000000000000000000000000000000000000000000000000000815260040160405180910390fd5b336001600160a01b0384161480159061076b57506001600160a01b038316600090815260076020908152604080832033845290915290205460ff16155b801561078e57506000818152600660205260409020546001600160a01b03163314155b156107ab576040516282b42960e81b815260040160405180910390fd5b6107b3611009565b6001600160a01b038416600090815260046020526040812080549091906107db908490611948565b909155506107e99050611009565b6001600160a01b038084166000818152600460209081526040808320805490960190955585825260088152848220805473ffffffffffffffffffffffffffffffffffffffff199081169094179055600681528482208054909316909255918616825260099052908120805461086090600190611948565b815481106108705761087061195b565b60009182526020808320909101546001600160a01b0387168352600982526040808420868552600a909352909220548154929350839281106108b4576108b461195b565b60009182526020808320909101929092556001600160a01b03861681526009909152604090208054806108e9576108e9611971565b600082815260208082208301600019908101839055909201909255838252600a8152604080832054848452818420556001600160a01b03861680845260098352908320805460018181018355828652938520018690559252905461094d9190611948565b6000838152600a602052604080822092909255905183916001600160a01b0380871692908816917fddf252ad1be2c89b69c2b068fc378daa952ba7f163c4a11628f55a4df523b3ef91a4826001600160a01b0316846001600160a01b03167fe59fdd36d0d223c0c7d996db7ad796880f45e1936cb0bb7ac102e7082e0314876109d4611009565b60405190815260200160405180910390a350505050565b6001600160a01b03831660009081526005602090815260408083203384529091529020546000198114610a4757610a228282611948565b6001600160a01b03851660009081526005602090815260408083203384529091529020555b610a5284848461103b565b50505b505050565b6000546001600160a01b03163314610a84576040516282b42960e81b815260040160405180910390fd5b6000805473ffffffffffffffffffffffffffffffffffffffff1916815560405133907f8be0079c531659141344cd1fd0a4f28419497f9722a3daafe3b4186f6b6457e0908390a3565b610ad8838383610692565b6001600160a01b0382163b15801590610bb557506040517f150b7a02000000000000000000000000000000000000000000000000000000008082523360048301526001600160a01b03858116602484015260448301849052608060648401526000608484015290919084169063150b7a029060a4016020604051808303816000875af1158015610b6c573d6000803e3d6000fd5b505050506040513d601f19601f82011682018060405250810190610b909190611987565b7fffffffff000000000000000000000000000000000000000000000000000000001614155b15610a55576040517f3da6393100000000000000000000000000000000000000000000000000000000815260040160405180910390fd5b6000546001600160a01b03163314610c16576040516282b42960e81b815260040160405180910390fd5b61068e82826111e9565b6000546001600160a01b03163314610c4a576040516282b42960e81b815260040160405180910390fd5b6001600160a01b03919091166000908152600b60205260409020805460ff1916911515919091179055565b6000818152600860205260409020546001600160a01b031680610cc4576040517fc5723b5100000000000000000000000000000000000000000000000000000000815260040160405180910390fd5b919050565b60028054610479906117e8565b3360008181526007602090815260408083206001600160a01b03871680855290835292819020805460ff191686151590811790915590519081529192917f17307eab39ab6107e8899845ad3d59bd9653f200f220920489ca2b5937696c31910160405180910390a35050565b6000610d4f33848461103b565b9392505050565b610d61858585610692565b6001600160a01b0384163b15801590610e2c57506040517f150b7a0200000000000000000000000000000000000000000000000000000000808252906001600160a01b0386169063150b7a0290610dc49033908a908990899089906004016119c9565b6020604051808303816000875af1158015610de3573d6000803e3d6000fd5b505050506040513d601f19601f82011682018060405250810190610e079190611987565b7fffffffff000000000000000000000000000000000000000000000000000000001614155b15610a52576040517f3da6393100000000000000000000000000000000000000000000000000000000815260040160405180910390fd5b6060600d8054610e72906117e8565b80601f0160208091040260200160405190810160405280929190818152602001828054610e9e906117e8565b8015610eeb5780601f10610ec057610100808354040283529160200191610eeb565b820191906000526020600020905b815481529060010190602001808311610ece57829003601f168201915b50505050509050919050565b600d8054610479906117e8565b6000546001600160a01b03163314610f2e576040516282b42960e81b815260040160405180910390fd5b600d61068e8282611872565b600c8054610479906117e8565b6000546001600160a01b03163314610f71576040516282b42960e81b815260040160405180910390fd5b6001600160a01b038116610fb1576040517f49e27cff00000000000000000000000000000000000000000000000000000000815260040160405180910390fd5b6000805473ffffffffffffffffffffffffffffffffffffffff19166001600160a01b0383169081178255604051909133917f8be0079c531659141344cd1fd0a4f28419497f9722a3daafe3b4186f6b6457e09190a350565b60006110367f0000000000000000000000000000000000000000000000000000000000000000600a611b01565b905090565b600080611046611009565b6001600160a01b038087166000818152600460205260408082208054948a16835290822054928252939450919290918691906110828386611948565b90915550506001600160a01b03808716600090815260046020908152604080832080548a019055928a168252600b9052205460ff16611114576001600160a01b0387166000908152600460205260408120546110df908590611b10565b6110e98585611b10565b6110f39190611948565b905060005b818110156111115761110989611202565b6001016110f8565b50505b6001600160a01b0386166000908152600b602052604090205460ff1661118f5760006111408483611b10565b6001600160a01b038816600090815260046020526040902054611164908690611b10565b61116e9190611948565b905060005b8181101561118c5761118488611350565b600101611173565b50505b856001600160a01b0316876001600160a01b03167fe59fdd36d0d223c0c7d996db7ad796880f45e1936cb0bb7ac102e7082e031487876040516111d491815260200190565b60405180910390a35060019695505050505050565b60016111f58382611872565b506002610a558282611872565b6001600160a01b038116611242576040517fddb5de5e00000000000000000000000000000000000000000000000000000000815260040160405180910390fd5b6001600160a01b0381166000908152600960205260408120805461126890600190611948565b815481106112785761127861195b565b9060005260206000200154905060096000836001600160a01b03166001600160a01b031681526020019081526020016000208054806112b9576112b9611971565b600082815260208082208301600019908101839055909201909255828252600a8152604080832083905560088252808320805473ffffffffffffffffffffffffffffffffffffffff1990811690915560069092528083208054909216909155518291906001600160a01b038516907fddf252ad1be2c89b69c2b068fc378daa952ba7f163c4a11628f55a4df523b3ef908390a45050565b6001600160a01b038116611390576040517f9c8d2cd200000000000000000000000000000000000000000000000000000000815260040160405180910390fd5b60038054600101908190556000818152600860205260409020546001600160a01b0316156113ea576040517f23369fa600000000000000000000000000000000000000000000000000000000815260040160405180910390fd5b6000818152600860209081526040808320805473ffffffffffffffffffffffffffffffffffffffff19166001600160a01b03871690811790915580845260098352908320805460018181018355828652938520018590559252905461144f9190611948565b6000828152600a602052604080822092909255905182916001600160a01b038516917fddf252ad1be2c89b69c2b068fc378daa952ba7f163c4a11628f55a4df523b3ef908290a45050565b60006020808352835180602085015260005b818110156114c8578581018301518582016040015282016114ac565b506000604082860101526040601f19601f8301168501019250505092915050565b6000602082840312156114fb57600080fd5b5035919050565b80356001600160a01b0381168114610cc457600080fd5b6000806040838503121561152c57600080fd5b61153583611502565b946020939093013593505050565b634e487b7160e01b600052604160045260246000fd5b600082601f83011261156a57600080fd5b813567ffffffffffffffff8082111561158557611585611543565b604051601f8301601f19908116603f011681019082821181831017156115ad576115ad611543565b816040528381528660208588010111156115c657600080fd5b836020870160208301376000602085830101528094505050505092915050565b6000602082840312156115f857600080fd5b813567ffffffffffffffff81111561160f57600080fd5b61161b84828501611559565b949350505050565b60008060006060848603121561163857600080fd5b61164184611502565b925061164f60208501611502565b9150604084013590509250925092565b6000806040838503121561167257600080fd5b823567ffffffffffffffff8082111561168a57600080fd5b61169686838701611559565b935060208501359150808211156116ac57600080fd5b506116b985828601611559565b9150509250929050565b600080604083850312156116d657600080fd5b6116df83611502565b9150602083013580151581146116f457600080fd5b809150509250929050565b60006020828403121561171157600080fd5b610d4f82611502565b60008060008060006080868803121561173257600080fd5b61173b86611502565b945061174960208701611502565b935060408601359250606086013567ffffffffffffffff8082111561176d57600080fd5b818801915088601f83011261178157600080fd5b81358181111561179057600080fd5b8960208285010111156117a257600080fd5b9699959850939650602001949392505050565b600080604083850312156117c857600080fd5b6117d183611502565b91506117df60208401611502565b90509250929050565b600181811c908216806117fc57607f821691505b60208210810361181c57634e487b7160e01b600052602260045260246000fd5b50919050565b601f821115610a55576000816000526020600020601f850160051c8101602086101561184b5750805b601f850160051c820191505b8181101561186a57828155600101611857565b505050505050565b815167ffffffffffffffff81111561188c5761188c611543565b6118a08161189a84546117e8565b84611822565b602080601f8311600181146118d557600084156118bd5750858301515b600019600386901b1c1916600185901b17855561186a565b600085815260208120601f198616915b82811015611904578886015182559484019460019091019084016118e5565b50858210156119225787850151600019600388901b60f8161c191681555b5050505050600190811b01905550565b634e487b7160e01b600052601160045260246000fd5b8181038181111561065257610652611932565b634e487b7160e01b600052603260045260246000fd5b634e487b7160e01b600052603160045260246000fd5b60006020828403121561199957600080fd5b81517fffffffff0000000000000000000000000000000000000000000000000000000081168114610d4f57600080fd5b60006001600160a01b03808816835280871660208401525084604083015260806060830152826080830152828460a0840137600060a0848401015260a0601f19601f85011683010190509695505050505050565b600181815b80851115611a58578160001904821115611a3e57611a3e611932565b80851615611a4b57918102915b93841c9390800290611a22565b509250929050565b600082611a6f57506001610652565b81611a7c57506000610652565b8160018114611a925760028114611a9c57611ab8565b6001915050610652565b60ff841115611aad57611aad611932565b50506001821b610652565b5060208310610133831016604e8410600b8410161715611adb575081810a610652565b611ae58383611a1d565b8060001904821115611af957611af9611932565b029392505050565b6000610d4f60ff841683611a60565b600082611b2d57634e487b7160e01b600052601260045260246000fd5b50049056fea264697066735822122037245f0429c6914d96fa66c03afca096a4431cedba2807eb75b42e0fda76083164736f6c63430008180033","opcodes":"PUSH1 0xC0 PUSH1 0x40 MSTORE CALLVALUE DUP1 ISZERO PUSH3 0x11 JUMPI PUSH1 0x0 DUP1 REVERT JUMPDEST POP PUSH1 0x40 MLOAD PUSH3 0x1FE3 CODESIZE SUB DUP1 PUSH3 0x1FE3 DUP4 CODECOPY DUP2 ADD PUSH1 0x40 DUP2 SWAP1 MSTORE PUSH3 0x34 SWAP2 PUSH3 0x169 JUMP JUMPDEST PUSH1 0x40 MLOAD DUP1 PUSH1 0x40 ADD PUSH1 0x40 MSTORE DUP1 PUSH1 0x5 DUP2 MSTORE PUSH1 0x20 ADD PUSH5 0x135E4D0C0D PUSH1 0xDA SHL DUP2 MSTORE POP PUSH1 0x40 MLOAD DUP1 PUSH1 0x40 ADD PUSH1 0x40 MSTORE DUP1 PUSH1 0x5 DUP2 MSTORE PUSH1 0x20 ADD PUSH5 0x13564D0C0D PUSH1 0xDA SHL DUP2 MSTORE POP PUSH1 0x12 PUSH2 0x2710 DUP5 DUP1 PUSH1 0x0 PUSH1 0x1 PUSH1 0x1 PUSH1 0xA0 SHL SUB AND DUP2 PUSH1 0x1 PUSH1 0x1 PUSH1 0xA0 SHL SUB AND SUB PUSH3 0xAB JUMPI PUSH1 0x40 MLOAD PUSH4 0x49E27CFF PUSH1 0xE0 SHL DUP2 MSTORE PUSH1 0x4 ADD PUSH1 0x40 MLOAD DUP1 SWAP2 SUB SWAP1 REVERT JUMPDEST PUSH1 0x0 DUP1 SLOAD PUSH1 0x1 PUSH1 0x1 PUSH1 0xA0 SHL SUB NOT AND PUSH1 0x1 PUSH1 0x1 PUSH1 0xA0 SHL SUB DUP4 AND SWAP1 DUP2 OR DUP3 SSTORE PUSH1 0x40 MLOAD SWAP1 SWAP2 SWAP1 PUSH32 0x8BE0079C531659141344CD1FD0A4F28419497F9722A3DAAFE3B4186F6B6457E0 SWAP1 DUP3 SWAP1 LOG3 POP PUSH1 0x1 PUSH3 0x102 DUP7 DUP3 PUSH3 0x242 JUMP JUMPDEST POP PUSH1 0x2 PUSH3 0x111 DUP6 DUP3 PUSH3 0x242 JUMP JUMPDEST POP PUSH1 0xFF DUP4 AND PUSH1 0x80 DUP2 SWAP1 MSTORE PUSH3 0x128 SWAP1 PUSH1 0xA PUSH3 0x423 JUMP JUMPDEST PUSH3 0x134 SWAP1 DUP4 PUSH3 0x434 JUMP JUMPDEST PUSH1 0xA0 MSTORE POP POP POP PUSH1 0x1 PUSH1 0x1 PUSH1 0xA0 SHL SUB SWAP1 SWAP3 AND PUSH1 0x0 SWAP1 DUP2 MSTORE PUSH1 0x4 PUSH1 0x20 MSTORE PUSH1 0x40 SWAP1 KECCAK256 PUSH10 0x21E19E0C9BAB2400000 SWAP1 SSTORE POP PUSH3 0x44E SWAP1 POP JUMP JUMPDEST PUSH1 0x0 PUSH1 0x20 DUP3 DUP5 SUB SLT ISZERO PUSH3 0x17C JUMPI PUSH1 0x0 DUP1 REVERT JUMPDEST DUP2 MLOAD PUSH1 0x1 PUSH1 0x1 PUSH1 0xA0 SHL SUB DUP2 AND DUP2 EQ PUSH3 0x194 JUMPI PUSH1 0x0 DUP1 REVERT JUMPDEST SWAP4 SWAP3 POP POP POP JUMP JUMPDEST PUSH4 0x4E487B71 PUSH1 0xE0 SHL PUSH1 0x0 MSTORE PUSH1 0x41 PUSH1 0x4 MSTORE PUSH1 0x24 PUSH1 0x0 REVERT JUMPDEST PUSH1 0x1 DUP2 DUP2 SHR SWAP1 DUP3 AND DUP1 PUSH3 0x1C6 JUMPI PUSH1 0x7F DUP3 AND SWAP2 POP JUMPDEST PUSH1 0x20 DUP3 LT DUP2 SUB PUSH3 0x1E7 JUMPI PUSH4 0x4E487B71 PUSH1 0xE0 SHL PUSH1 0x0 MSTORE PUSH1 0x22 PUSH1 0x4 MSTORE PUSH1 0x24 PUSH1 0x0 REVERT JUMPDEST POP SWAP2 SWAP1 POP JUMP JUMPDEST PUSH1 0x1F DUP3 GT ISZERO PUSH3 0x23D JUMPI PUSH1 0x0 DUP2 PUSH1 0x0 MSTORE PUSH1 0x20 PUSH1 0x0 KECCAK256 PUSH1 0x1F DUP6 ADD PUSH1 0x5 SHR DUP2 ADD PUSH1 0x20 DUP7 LT ISZERO PUSH3 0x218 JUMPI POP DUP1 JUMPDEST PUSH1 0x1F DUP6 ADD PUSH1 0x5 SHR DUP3 ADD SWAP2 POP JUMPDEST DUP2 DUP2 LT ISZERO PUSH3 0x239 JUMPI DUP3 DUP2 SSTORE PUSH1 0x1 ADD PUSH3 0x224 JUMP JUMPDEST POP POP POP JUMPDEST POP POP POP JUMP JUMPDEST DUP2 MLOAD PUSH1 0x1 PUSH1 0x1 PUSH1 0x40 SHL SUB DUP2 GT ISZERO PUSH3 0x25E JUMPI PUSH3 0x25E PUSH3 0x19B JUMP JUMPDEST PUSH3 0x276 DUP2 PUSH3 0x26F DUP5 SLOAD PUSH3 0x1B1 JUMP JUMPDEST DUP5 PUSH3 0x1ED JUMP JUMPDEST PUSH1 0x20 DUP1 PUSH1 0x1F DUP4 GT PUSH1 0x1 DUP2 EQ PUSH3 0x2AE JUMPI PUSH1 0x0 DUP5 ISZERO PUSH3 0x295 JUMPI POP DUP6 DUP4 ADD MLOAD JUMPDEST PUSH1 0x0 NOT PUSH1 0x3 DUP7 SWAP1 SHL SHR NOT AND PUSH1 0x1 DUP6 SWAP1 SHL OR DUP6 SSTORE PUSH3 0x239 JUMP JUMPDEST PUSH1 0x0 DUP6 DUP2 MSTORE PUSH1 0x20 DUP2 KECCAK256 PUSH1 0x1F NOT DUP7 AND SWAP2 JUMPDEST DUP3 DUP2 LT ISZERO PUSH3 0x2DF JUMPI DUP9 DUP7 ADD MLOAD DUP3 SSTORE SWAP5 DUP5 ADD SWAP5 PUSH1 0x1 SWAP1 SWAP2 ADD SWAP1 DUP5 ADD PUSH3 0x2BE JUMP JUMPDEST POP DUP6 DUP3 LT ISZERO PUSH3 0x2FE JUMPI DUP8 DUP6 ADD MLOAD PUSH1 0x0 NOT PUSH1 0x3 DUP9 SWAP1 SHL PUSH1 0xF8 AND SHR NOT AND DUP2 SSTORE JUMPDEST POP POP POP POP POP PUSH1 0x1 SWAP1 DUP2 SHL ADD SWAP1 SSTORE POP JUMP JUMPDEST PUSH4 0x4E487B71 PUSH1 0xE0 SHL PUSH1 0x0 MSTORE PUSH1 0x11 PUSH1 0x4 MSTORE PUSH1 0x24 PUSH1 0x0 REVERT JUMPDEST PUSH1 0x1 DUP2 DUP2 JUMPDEST DUP1 DUP6 GT ISZERO PUSH3 0x365 JUMPI DUP2 PUSH1 0x0 NOT DIV DUP3 GT ISZERO PUSH3 0x349 JUMPI PUSH3 0x349 PUSH3 0x30E JUMP JUMPDEST DUP1 DUP6 AND ISZERO PUSH3 0x357 JUMPI SWAP2 DUP2 MUL SWAP2 JUMPDEST SWAP4 DUP5 SHR SWAP4 SWAP1 DUP1 MUL SWAP1 PUSH3 0x329 JUMP JUMPDEST POP SWAP3 POP SWAP3 SWAP1 POP JUMP JUMPDEST PUSH1 0x0 DUP3 PUSH3 0x37E JUMPI POP PUSH1 0x1 PUSH3 0x41D JUMP JUMPDEST DUP2 PUSH3 0x38D JUMPI POP PUSH1 0x0 PUSH3 0x41D JUMP JUMPDEST DUP2 PUSH1 0x1 DUP2 EQ PUSH3 0x3A6 JUMPI PUSH1 0x2 DUP2 EQ PUSH3 0x3B1 JUMPI PUSH3 0x3D1 JUMP JUMPDEST PUSH1 0x1 SWAP2 POP POP PUSH3 0x41D JUMP JUMPDEST PUSH1 0xFF DUP5 GT ISZERO PUSH3 0x3C5 JUMPI PUSH3 0x3C5 PUSH3 0x30E JUMP JUMPDEST POP POP PUSH1 0x1 DUP3 SHL PUSH3 0x41D JUMP JUMPDEST POP PUSH1 0x20 DUP4 LT PUSH2 0x133 DUP4 LT AND PUSH1 0x4E DUP5 LT PUSH1 0xB DUP5 LT AND OR ISZERO PUSH3 0x3F6 JUMPI POP DUP2 DUP2 EXP PUSH3 0x41D JUMP JUMPDEST PUSH3 0x402 DUP4 DUP4 PUSH3 0x324 JUMP JUMPDEST DUP1 PUSH1 0x0 NOT DIV DUP3 GT ISZERO PUSH3 0x419 JUMPI PUSH3 0x419 PUSH3 0x30E JUMP JUMPDEST MUL SWAP1 POP JUMPDEST SWAP3 SWAP2 POP POP JUMP JUMPDEST PUSH1 0x0 PUSH3 0x194 PUSH1 0xFF DUP5 AND DUP4 PUSH3 0x36D JUMP JUMPDEST DUP1 DUP3 MUL DUP2 ISZERO DUP3 DUP3 DIV DUP5 EQ OR PUSH3 0x41D JUMPI PUSH3 0x41D PUSH3 0x30E JUMP JUMPDEST PUSH1 0x80 MLOAD PUSH1 0xA0 MLOAD PUSH2 0x1B68 PUSH3 0x47B PUSH1 0x0 CODECOPY PUSH1 0x0 PUSH2 0x245 ADD MSTORE PUSH1 0x0 DUP2 DUP2 PUSH2 0x2AA ADD MSTORE PUSH2 0x1010 ADD MSTORE PUSH2 0x1B68 PUSH1 0x0 RETURN INVALID PUSH1 0x80 PUSH1 0x40 MSTORE CALLVALUE DUP1 ISZERO PUSH2 0x10 JUMPI PUSH1 0x0 DUP1 REVERT JUMPDEST POP PUSH1 0x4 CALLDATASIZE LT PUSH2 0x1B9 JUMPI PUSH1 0x0 CALLDATALOAD PUSH1 0xE0 SHR DUP1 PUSH4 0x70A08231 GT PUSH2 0xF9 JUMPI DUP1 PUSH4 0xC87B56DD GT PUSH2 0x97 JUMPI DUP1 PUSH4 0xE0DF5B6F GT PUSH2 0x71 JUMPI DUP1 PUSH4 0xE0DF5B6F EQ PUSH2 0x410 JUMPI DUP1 PUSH4 0xE985E9C5 EQ PUSH2 0x423 JUMPI DUP1 PUSH4 0xF28CA1DD EQ PUSH2 0x451 JUMPI DUP1 PUSH4 0xF2FDE38B EQ PUSH2 0x459 JUMPI PUSH1 0x0 DUP1 REVERT JUMPDEST DUP1 PUSH4 0xC87B56DD EQ PUSH2 0x3CA JUMPI DUP1 PUSH4 0xD547CFB7 EQ PUSH2 0x3DD JUMPI DUP1 PUSH4 0xDD62ED3E EQ PUSH2 0x3E5 JUMPI PUSH1 0x0 DUP1 REVERT JUMPDEST DUP1 PUSH4 0x9B19251A GT PUSH2 0xD3 JUMPI DUP1 PUSH4 0x9B19251A EQ PUSH2 0x36E JUMPI DUP1 PUSH4 0xA22CB465 EQ PUSH2 0x391 JUMPI DUP1 PUSH4 0xA9059CBB EQ PUSH2 0x3A4 JUMPI DUP1 PUSH4 0xB88D4FDE EQ PUSH2 0x3B7 JUMPI PUSH1 0x0 DUP1 REVERT JUMPDEST DUP1 PUSH4 0x70A08231 EQ PUSH2 0x333 JUMPI DUP1 PUSH4 0x8DA5CB5B EQ PUSH2 0x353 JUMPI DUP1 PUSH4 0x95D89B41 EQ PUSH2 0x366 JUMPI PUSH1 0x0 DUP1 REVERT JUMPDEST DUP1 PUSH4 0x2B968958 GT PUSH2 0x166 JUMPI DUP1 PUSH4 0x4F02C420 GT PUSH2 0x140 JUMPI DUP1 PUSH4 0x4F02C420 EQ PUSH2 0x2F1 JUMPI DUP1 PUSH4 0x504334C2 EQ PUSH2 0x2FA JUMPI DUP1 PUSH4 0x53D6FD59 EQ PUSH2 0x30D JUMPI DUP1 PUSH4 0x6352211E EQ PUSH2 0x320 JUMPI PUSH1 0x0 DUP1 REVERT JUMPDEST DUP1 PUSH4 0x2B968958 EQ PUSH2 0x29D JUMPI DUP1 PUSH4 0x313CE567 EQ PUSH2 0x2A5 JUMPI DUP1 PUSH4 0x42842E0E EQ PUSH2 0x2DE JUMPI PUSH1 0x0 DUP1 REVERT JUMPDEST DUP1 PUSH4 0x18160DDD GT PUSH2 0x197 JUMPI DUP1 PUSH4 0x18160DDD EQ PUSH2 0x240 JUMPI DUP1 PUSH4 0x18D217C3 EQ PUSH2 0x275 JUMPI DUP1 PUSH4 0x23B872DD EQ PUSH2 0x28A JUMPI PUSH1 0x0 DUP1 REVERT JUMPDEST DUP1 PUSH4 0x6FDDE03 EQ PUSH2 0x1BE JUMPI DUP1 PUSH4 0x81812FC EQ PUSH2 0x1DC JUMPI DUP1 PUSH4 0x95EA7B3 EQ PUSH2 0x21D JUMPI JUMPDEST PUSH1 0x0 DUP1 REVERT JUMPDEST PUSH2 0x1C6 PUSH2 0x46C JUMP JUMPDEST PUSH1 0x40 MLOAD PUSH2 0x1D3 SWAP2 SWAP1 PUSH2 0x149A JUMP JUMPDEST PUSH1 0x40 MLOAD DUP1 SWAP2 SUB SWAP1 RETURN JUMPDEST PUSH2 0x205 PUSH2 0x1EA CALLDATASIZE PUSH1 0x4 PUSH2 0x14E9 JUMP JUMPDEST PUSH1 0x6 PUSH1 0x20 MSTORE PUSH1 0x0 SWAP1 DUP2 MSTORE PUSH1 0x40 SWAP1 KECCAK256 SLOAD PUSH1 0x1 PUSH1 0x1 PUSH1 0xA0 SHL SUB AND DUP2 JUMP JUMPDEST PUSH1 0x40 MLOAD PUSH1 0x1 PUSH1 0x1 PUSH1 0xA0 SHL SUB SWAP1 SWAP2 AND DUP2 MSTORE PUSH1 0x20 ADD PUSH2 0x1D3 JUMP JUMPDEST PUSH2 0x230 PUSH2 0x22B CALLDATASIZE PUSH1 0x4 PUSH2 0x1519 JUMP JUMPDEST PUSH2 0x4FA JUMP JUMPDEST PUSH1 0x40 MLOAD SWAP1 ISZERO ISZERO DUP2 MSTORE PUSH1 0x20 ADD PUSH2 0x1D3 JUMP JUMPDEST PUSH2 0x267 PUSH32 0x0 DUP2 JUMP JUMPDEST PUSH1 0x40 MLOAD SWAP1 DUP2 MSTORE PUSH1 0x20 ADD PUSH2 0x1D3 JUMP JUMPDEST PUSH2 0x288 PUSH2 0x283 CALLDATASIZE PUSH1 0x4 PUSH2 0x15E6 JUMP JUMPDEST PUSH2 0x658 JUMP JUMPDEST STOP JUMPDEST PUSH2 0x288 PUSH2 0x298 CALLDATASIZE PUSH1 0x4 PUSH2 0x1623 JUMP JUMPDEST PUSH2 0x692 JUMP JUMPDEST PUSH2 0x288 PUSH2 0xA5A JUMP JUMPDEST PUSH2 0x2CC PUSH32 0x0 DUP2 JUMP JUMPDEST PUSH1 0x40 MLOAD PUSH1 0xFF SWAP1 SWAP2 AND DUP2 MSTORE PUSH1 0x20 ADD PUSH2 0x1D3 JUMP JUMPDEST PUSH2 0x288 PUSH2 0x2EC CALLDATASIZE PUSH1 0x4 PUSH2 0x1623 JUMP JUMPDEST PUSH2 0xACD JUMP JUMPDEST PUSH2 0x267 PUSH1 0x3 SLOAD DUP2 JUMP JUMPDEST PUSH2 0x288 PUSH2 0x308 CALLDATASIZE PUSH1 0x4 PUSH2 0x165F JUMP JUMPDEST PUSH2 0xBEC JUMP JUMPDEST PUSH2 0x288 PUSH2 0x31B CALLDATASIZE PUSH1 0x4 PUSH2 0x16C3 JUMP JUMPDEST PUSH2 0xC20 JUMP JUMPDEST PUSH2 0x205 PUSH2 0x32E CALLDATASIZE PUSH1 0x4 PUSH2 0x14E9 JUMP JUMPDEST PUSH2 0xC75 JUMP JUMPDEST PUSH2 0x267 PUSH2 0x341 CALLDATASIZE PUSH1 0x4 PUSH2 0x16FF JUMP JUMPDEST PUSH1 0x4 PUSH1 0x20 MSTORE PUSH1 0x0 SWAP1 DUP2 MSTORE PUSH1 0x40 SWAP1 KECCAK256 SLOAD DUP2 JUMP JUMPDEST PUSH1 0x0 SLOAD PUSH2 0x205 SWAP1 PUSH1 0x1 PUSH1 0x1 PUSH1 0xA0 SHL SUB AND DUP2 JUMP JUMPDEST PUSH2 0x1C6 PUSH2 0xCC9 JUMP JUMPDEST PUSH2 0x230 PUSH2 0x37C CALLDATASIZE PUSH1 0x4 PUSH2 0x16FF JUMP JUMPDEST PUSH1 0xB PUSH1 0x20 MSTORE PUSH1 0x0 SWAP1 DUP2 MSTORE PUSH1 0x40 SWAP1 KECCAK256 SLOAD PUSH1 0xFF AND DUP2 JUMP JUMPDEST PUSH2 0x288 PUSH2 0x39F CALLDATASIZE PUSH1 0x4 PUSH2 0x16C3 JUMP JUMPDEST PUSH2 0xCD6 JUMP JUMPDEST PUSH2 0x230 PUSH2 0x3B2 CALLDATASIZE PUSH1 0x4 PUSH2 0x1519 JUMP JUMPDEST PUSH2 0xD42 JUMP JUMPDEST PUSH2 0x288 PUSH2 0x3C5 CALLDATASIZE PUSH1 0x4 PUSH2 0x171A JUMP JUMPDEST PUSH2 0xD56 JUMP JUMPDEST PUSH2 0x1C6 PUSH2 0x3D8 CALLDATASIZE PUSH1 0x4 PUSH2 0x14E9 JUMP JUMPDEST PUSH2 0xE63 JUMP JUMPDEST PUSH2 0x1C6 PUSH2 0xEF7 JUMP JUMPDEST PUSH2 0x267 PUSH2 0x3F3 CALLDATASIZE PUSH1 0x4 PUSH2 0x17B5 JUMP JUMPDEST PUSH1 0x5 PUSH1 0x20 SWAP1 DUP2 MSTORE PUSH1 0x0 SWAP3 DUP4 MSTORE PUSH1 0x40 DUP1 DUP5 KECCAK256 SWAP1 SWAP2 MSTORE SWAP1 DUP3 MSTORE SWAP1 KECCAK256 SLOAD DUP2 JUMP JUMPDEST PUSH2 0x288 PUSH2 0x41E CALLDATASIZE PUSH1 0x4 PUSH2 0x15E6 JUMP JUMPDEST PUSH2 0xF04 JUMP JUMPDEST PUSH2 0x230 PUSH2 0x431 CALLDATASIZE PUSH1 0x4 PUSH2 0x17B5 JUMP JUMPDEST PUSH1 0x7 PUSH1 0x20 SWAP1 DUP2 MSTORE PUSH1 0x0 SWAP3 DUP4 MSTORE PUSH1 0x40 DUP1 DUP5 KECCAK256 SWAP1 SWAP2 MSTORE SWAP1 DUP3 MSTORE SWAP1 KECCAK256 SLOAD PUSH1 0xFF AND DUP2 JUMP JUMPDEST PUSH2 0x1C6 PUSH2 0xF3A JUMP JUMPDEST PUSH2 0x288 PUSH2 0x467 CALLDATASIZE PUSH1 0x4 PUSH2 0x16FF JUMP JUMPDEST PUSH2 0xF47 JUMP JUMPDEST PUSH1 0x1 DUP1 SLOAD PUSH2 0x479 SWAP1 PUSH2 0x17E8 JUMP JUMPDEST DUP1 PUSH1 0x1F ADD PUSH1 0x20 DUP1 SWAP2 DIV MUL PUSH1 0x20 ADD PUSH1 0x40 MLOAD SWAP1 DUP2 ADD PUSH1 0x40 MSTORE DUP1 SWAP3 SWAP2 SWAP1 DUP2 DUP2 MSTORE PUSH1 0x20 ADD DUP3 DUP1 SLOAD PUSH2 0x4A5 SWAP1 PUSH2 0x17E8 JUMP JUMPDEST DUP1 ISZERO PUSH2 0x4F2 JUMPI DUP1 PUSH1 0x1F LT PUSH2 0x4C7 JUMPI PUSH2 0x100 DUP1 DUP4 SLOAD DIV MUL DUP4 MSTORE SWAP2 PUSH1 0x20 ADD SWAP2 PUSH2 0x4F2 JUMP JUMPDEST DUP3 ADD SWAP2 SWAP1 PUSH1 0x0 MSTORE PUSH1 0x20 PUSH1 0x0 KECCAK256 SWAP1 JUMPDEST DUP2 SLOAD DUP2 MSTORE SWAP1 PUSH1 0x1 ADD SWAP1 PUSH1 0x20 ADD DUP1 DUP4 GT PUSH2 0x4D5 JUMPI DUP3 SWAP1 SUB PUSH1 0x1F AND DUP3 ADD SWAP2 JUMPDEST POP POP POP POP POP DUP2 JUMP JUMPDEST PUSH1 0x0 PUSH1 0x3 SLOAD DUP3 GT ISZERO DUP1 ISZERO PUSH2 0x50E JUMPI POP PUSH1 0x0 DUP3 GT JUMPDEST ISZERO PUSH2 0x5F2 JUMPI PUSH1 0x0 DUP3 DUP2 MSTORE PUSH1 0x8 PUSH1 0x20 MSTORE PUSH1 0x40 SWAP1 KECCAK256 SLOAD PUSH1 0x1 PUSH1 0x1 PUSH1 0xA0 SHL SUB AND CALLER DUP2 EQ DUP1 ISZERO SWAP1 PUSH2 0x55F JUMPI POP PUSH1 0x1 PUSH1 0x1 PUSH1 0xA0 SHL SUB DUP2 AND PUSH1 0x0 SWAP1 DUP2 MSTORE PUSH1 0x7 PUSH1 0x20 SWAP1 DUP2 MSTORE PUSH1 0x40 DUP1 DUP4 KECCAK256 CALLER DUP5 MSTORE SWAP1 SWAP2 MSTORE SWAP1 KECCAK256 SLOAD PUSH1 0xFF AND ISZERO JUMPDEST ISZERO PUSH2 0x57C JUMPI PUSH1 0x40 MLOAD PUSH3 0x82B429 PUSH1 0xE8 SHL DUP2 MSTORE PUSH1 0x4 ADD PUSH1 0x40 MLOAD DUP1 SWAP2 SUB SWAP1 REVERT JUMPDEST PUSH1 0x0 DUP4 DUP2 MSTORE PUSH1 0x6 PUSH1 0x20 SWAP1 DUP2 MSTORE PUSH1 0x40 SWAP2 DUP3 SWAP1 KECCAK256 DUP1 SLOAD PUSH20 0xFFFFFFFFFFFFFFFFFFFFFFFFFFFFFFFFFFFFFFFF NOT AND PUSH1 0x1 PUSH1 0x1 PUSH1 0xA0 SHL SUB DUP9 DUP2 AND SWAP2 DUP3 OR SWAP1 SWAP3 SSTORE SWAP3 MLOAD DUP7 DUP2 MSTORE SWAP1 DUP5 AND SWAP2 PUSH32 0x8C5BE1E5EBEC7D5BD14F71427D1E84F3DD0314C0F7B2291E5B200AC8C7C3B925 SWAP2 ADD PUSH1 0x40 MLOAD DUP1 SWAP2 SUB SWAP1 LOG3 POP PUSH2 0x64E JUMP JUMPDEST CALLER PUSH1 0x0 DUP2 DUP2 MSTORE PUSH1 0x5 PUSH1 0x20 SWAP1 DUP2 MSTORE PUSH1 0x40 DUP1 DUP4 KECCAK256 PUSH1 0x1 PUSH1 0x1 PUSH1 0xA0 SHL SUB DUP9 AND DUP1 DUP6 MSTORE SWAP1 DUP4 MSTORE SWAP3 DUP2 SWAP1 KECCAK256 DUP7 SWAP1 SSTORE MLOAD DUP6 DUP2 MSTORE SWAP2 SWAP3 SWAP2 PUSH32 0x8C5BE1E5EBEC7D5BD14F71427D1E84F3DD0314C0F7B2291E5B200AC8C7C3B925 SWAP2 ADD PUSH1 0x40 MLOAD DUP1 SWAP2 SUB SWAP1 LOG3 JUMPDEST POP PUSH1 0x1 JUMPDEST SWAP3 SWAP2 POP POP JUMP JUMPDEST PUSH1 0x0 SLOAD PUSH1 0x1 PUSH1 0x1 PUSH1 0xA0 SHL SUB AND CALLER EQ PUSH2 0x682 JUMPI PUSH1 0x40 MLOAD PUSH3 0x82B429 PUSH1 0xE8 SHL DUP2 MSTORE PUSH1 0x4 ADD PUSH1 0x40 MLOAD DUP1 SWAP2 SUB SWAP1 REVERT JUMPDEST PUSH1 0xC PUSH2 0x68E DUP3 DUP3 PUSH2 0x1872 JUMP JUMPDEST POP POP JUMP JUMPDEST PUSH1 0x3 SLOAD DUP2 GT PUSH2 0x9EB JUMPI PUSH1 0x0 DUP2 DUP2 MSTORE PUSH1 0x8 PUSH1 0x20 MSTORE PUSH1 0x40 SWAP1 KECCAK256 SLOAD PUSH1 0x1 PUSH1 0x1 PUSH1 0xA0 SHL SUB DUP5 DUP2 AND SWAP2 AND EQ PUSH2 0x6EE JUMPI PUSH1 0x40 MLOAD PUSH32 0xDDB5DE5E00000000000000000000000000000000000000000000000000000000 DUP2 MSTORE PUSH1 0x4 ADD PUSH1 0x40 MLOAD DUP1 SWAP2 SUB SWAP1 REVERT JUMPDEST PUSH1 0x1 PUSH1 0x1 PUSH1 0xA0 SHL SUB DUP3 AND PUSH2 0x72E JUMPI PUSH1 0x40 MLOAD PUSH32 0x9C8D2CD200000000000000000000000000000000000000000000000000000000 DUP2 MSTORE PUSH1 0x4 ADD PUSH1 0x40 MLOAD DUP1 SWAP2 SUB SWAP1 REVERT JUMPDEST CALLER PUSH1 0x1 PUSH1 0x1 PUSH1 0xA0 SHL SUB DUP5 AND EQ DUP1 ISZERO SWAP1 PUSH2 0x76B JUMPI POP PUSH1 0x1 PUSH1 0x1 PUSH1 0xA0 SHL SUB DUP4 AND PUSH1 0x0 SWAP1 DUP2 MSTORE PUSH1 0x7 PUSH1 0x20 SWAP1 DUP2 MSTORE PUSH1 0x40 DUP1 DUP4 KECCAK256 CALLER DUP5 MSTORE SWAP1 SWAP2 MSTORE SWAP1 KECCAK256 SLOAD PUSH1 0xFF AND ISZERO JUMPDEST DUP1 ISZERO PUSH2 0x78E JUMPI POP PUSH1 0x0 DUP2 DUP2 MSTORE PUSH1 0x6 PUSH1 0x20 MSTORE PUSH1 0x40 SWAP1 KECCAK256 SLOAD PUSH1 0x1 PUSH1 0x1 PUSH1 0xA0 SHL SUB AND CALLER EQ ISZERO JUMPDEST ISZERO PUSH2 0x7AB JUMPI PUSH1 0x40 MLOAD PUSH3 0x82B429 PUSH1 0xE8 SHL DUP2 MSTORE PUSH1 0x4 ADD PUSH1 0x40 MLOAD DUP1 SWAP2 SUB SWAP1 REVERT JUMPDEST PUSH2 0x7B3 PUSH2 0x1009 JUMP JUMPDEST PUSH1 0x1 PUSH1 0x1 PUSH1 0xA0 SHL SUB DUP5 AND PUSH1 0x0 SWAP1 DUP2 MSTORE PUSH1 0x4 PUSH1 0x20 MSTORE PUSH1 0x40 DUP2 KECCAK256 DUP1 SLOAD SWAP1 SWAP2 SWAP1 PUSH2 0x7DB SWAP1 DUP5 SWAP1 PUSH2 0x1948 JUMP JUMPDEST SWAP1 SWAP2 SSTORE POP PUSH2 0x7E9 SWAP1 POP PUSH2 0x1009 JUMP JUMPDEST PUSH1 0x1 PUSH1 0x1 PUSH1 0xA0 SHL SUB DUP1 DUP5 AND PUSH1 0x0 DUP2 DUP2 MSTORE PUSH1 0x4 PUSH1 0x20 SWAP1 DUP2 MSTORE PUSH1 0x40 DUP1 DUP4 KECCAK256 DUP1 SLOAD SWAP1 SWAP7 ADD SWAP1 SWAP6 SSTORE DUP6 DUP3 MSTORE PUSH1 0x8 DUP2 MSTORE DUP5 DUP3 KECCAK256 DUP1 SLOAD PUSH20 0xFFFFFFFFFFFFFFFFFFFFFFFFFFFFFFFFFFFFFFFF NOT SWAP1 DUP2 AND SWAP1 SWAP5 OR SWAP1 SSTORE PUSH1 0x6 DUP2 MSTORE DUP5 DUP3 KECCAK256 DUP1 SLOAD SWAP1 SWAP4 AND SWAP1 SWAP3 SSTORE SWAP2 DUP7 AND DUP3 MSTORE PUSH1 0x9 SWAP1 MSTORE SWAP1 DUP2 KECCAK256 DUP1 SLOAD PUSH2 0x860 SWAP1 PUSH1 0x1 SWAP1 PUSH2 0x1948 JUMP JUMPDEST DUP2 SLOAD DUP2 LT PUSH2 0x870 JUMPI PUSH2 0x870 PUSH2 0x195B JUMP JUMPDEST PUSH1 0x0 SWAP2 DUP3 MSTORE PUSH1 0x20 DUP1 DUP4 KECCAK256 SWAP1 SWAP2 ADD SLOAD PUSH1 0x1 PUSH1 0x1 PUSH1 0xA0 SHL SUB DUP8 AND DUP4 MSTORE PUSH1 0x9 DUP3 MSTORE PUSH1 0x40 DUP1 DUP5 KECCAK256 DUP7 DUP6 MSTORE PUSH1 0xA SWAP1 SWAP4 MSTORE SWAP1 SWAP3 KECCAK256 SLOAD DUP2 SLOAD SWAP3 SWAP4 POP DUP4 SWAP3 DUP2 LT PUSH2 0x8B4 JUMPI PUSH2 0x8B4 PUSH2 0x195B JUMP JUMPDEST PUSH1 0x0 SWAP2 DUP3 MSTORE PUSH1 0x20 DUP1 DUP4 KECCAK256 SWAP1 SWAP2 ADD SWAP3 SWAP1 SWAP3 SSTORE PUSH1 0x1 PUSH1 0x1 PUSH1 0xA0 SHL SUB DUP7 AND DUP2 MSTORE PUSH1 0x9 SWAP1 SWAP2 MSTORE PUSH1 0x40 SWAP1 KECCAK256 DUP1 SLOAD DUP1 PUSH2 0x8E9 JUMPI PUSH2 0x8E9 PUSH2 0x1971 JUMP JUMPDEST PUSH1 0x0 DUP3 DUP2 MSTORE PUSH1 0x20 DUP1 DUP3 KECCAK256 DUP4 ADD PUSH1 0x0 NOT SWAP1 DUP2 ADD DUP4 SWAP1 SSTORE SWAP1 SWAP3 ADD SWAP1 SWAP3 SSTORE DUP4 DUP3 MSTORE PUSH1 0xA DUP2 MSTORE PUSH1 0x40 DUP1 DUP4 KECCAK256 SLOAD DUP5 DUP5 MSTORE DUP2 DUP5 KECCAK256 SSTORE PUSH1 0x1 PUSH1 0x1 PUSH1 0xA0 SHL SUB DUP7 AND DUP1 DUP5 MSTORE PUSH1 0x9 DUP4 MSTORE SWAP1 DUP4 KECCAK256 DUP1 SLOAD PUSH1 0x1 DUP2 DUP2 ADD DUP4 SSTORE DUP3 DUP7 MSTORE SWAP4 DUP6 KECCAK256 ADD DUP7 SWAP1 SSTORE SWAP3 MSTORE SWAP1 SLOAD PUSH2 0x94D SWAP2 SWAP1 PUSH2 0x1948 JUMP JUMPDEST PUSH1 0x0 DUP4 DUP2 MSTORE PUSH1 0xA PUSH1 0x20 MSTORE PUSH1 0x40 DUP1 DUP3 KECCAK256 SWAP3 SWAP1 SWAP3 SSTORE SWAP1 MLOAD DUP4 SWAP2 PUSH1 0x1 PUSH1 0x1 PUSH1 0xA0 SHL SUB DUP1 DUP8 AND SWAP3 SWAP1 DUP9 AND SWAP2 PUSH32 0xDDF252AD1BE2C89B69C2B068FC378DAA952BA7F163C4A11628F55A4DF523B3EF SWAP2 LOG4 DUP3 PUSH1 0x1 PUSH1 0x1 PUSH1 0xA0 SHL SUB AND DUP5 PUSH1 0x1 PUSH1 0x1 PUSH1 0xA0 SHL SUB AND PUSH32 0xE59FDD36D0D223C0C7D996DB7AD796880F45E1936CB0BB7AC102E7082E031487 PUSH2 0x9D4 PUSH2 0x1009 JUMP JUMPDEST PUSH1 0x40 MLOAD SWAP1 DUP2 MSTORE PUSH1 0x20 ADD PUSH1 0x40 MLOAD DUP1 SWAP2 SUB SWAP1 LOG3 POP POP POP POP JUMP JUMPDEST PUSH1 0x1 PUSH1 0x1 PUSH1 0xA0 SHL SUB DUP4 AND PUSH1 0x0 SWAP1 DUP2 MSTORE PUSH1 0x5 PUSH1 0x20 SWAP1 DUP2 MSTORE PUSH1 0x40 DUP1 DUP4 KECCAK256 CALLER DUP5 MSTORE SWAP1 SWAP2 MSTORE SWAP1 KECCAK256 SLOAD PUSH1 0x0 NOT DUP2 EQ PUSH2 0xA47 JUMPI PUSH2 0xA22 DUP3 DUP3 PUSH2 0x1948 JUMP JUMPDEST PUSH1 0x1 PUSH1 0x1 PUSH1 0xA0 SHL SUB DUP6 AND PUSH1 0x0 SWAP1 DUP2 MSTORE PUSH1 0x5 PUSH1 0x20 SWAP1 DUP2 MSTORE PUSH1 0x40 DUP1 DUP4 KECCAK256 CALLER DUP5 MSTORE SWAP1 SWAP2 MSTORE SWAP1 KECCAK256 SSTORE JUMPDEST PUSH2 0xA52 DUP5 DUP5 DUP5 PUSH2 0x103B JUMP JUMPDEST POP POP JUMPDEST POP POP POP JUMP JUMPDEST PUSH1 0x0 SLOAD PUSH1 0x1 PUSH1 0x1 PUSH1 0xA0 SHL SUB AND CALLER EQ PUSH2 0xA84 JUMPI PUSH1 0x40 MLOAD PUSH3 0x82B429 PUSH1 0xE8 SHL DUP2 MSTORE PUSH1 0x4 ADD PUSH1 0x40 MLOAD DUP1 SWAP2 SUB SWAP1 REVERT JUMPDEST PUSH1 0x0 DUP1 SLOAD PUSH20 0xFFFFFFFFFFFFFFFFFFFFFFFFFFFFFFFFFFFFFFFF NOT AND DUP2 SSTORE PUSH1 0x40 MLOAD CALLER SWAP1 PUSH32 0x8BE0079C531659141344CD1FD0A4F28419497F9722A3DAAFE3B4186F6B6457E0 SWAP1 DUP4 SWAP1 LOG3 JUMP JUMPDEST PUSH2 0xAD8 DUP4 DUP4 DUP4 PUSH2 0x692 JUMP JUMPDEST PUSH1 0x1 PUSH1 0x1 PUSH1 0xA0 SHL SUB DUP3 AND EXTCODESIZE ISZERO DUP1 ISZERO SWAP1 PUSH2 0xBB5 JUMPI POP PUSH1 0x40 MLOAD PUSH32 0x150B7A0200000000000000000000000000000000000000000000000000000000 DUP1 DUP3 MSTORE CALLER PUSH1 0x4 DUP4 ADD MSTORE PUSH1 0x1 PUSH1 0x1 PUSH1 0xA0 SHL SUB DUP6 DUP2 AND PUSH1 0x24 DUP5 ADD MSTORE PUSH1 0x44 DUP4 ADD DUP5 SWAP1 MSTORE PUSH1 0x80 PUSH1 0x64 DUP5 ADD MSTORE PUSH1 0x0 PUSH1 0x84 DUP5 ADD MSTORE SWAP1 SWAP2 SWAP1 DUP5 AND SWAP1 PUSH4 0x150B7A02 SWAP1 PUSH1 0xA4 ADD PUSH1 0x20 PUSH1 0x40 MLOAD DUP1 DUP4 SUB DUP2 PUSH1 0x0 DUP8 GAS CALL ISZERO DUP1 ISZERO PUSH2 0xB6C JUMPI RETURNDATASIZE PUSH1 0x0 DUP1 RETURNDATACOPY RETURNDATASIZE PUSH1 0x0 REVERT JUMPDEST POP POP POP POP PUSH1 0x40 MLOAD RETURNDATASIZE PUSH1 0x1F NOT PUSH1 0x1F DUP3 ADD AND DUP3 ADD DUP1 PUSH1 0x40 MSTORE POP DUP2 ADD SWAP1 PUSH2 0xB90 SWAP2 SWAP1 PUSH2 0x1987 JUMP JUMPDEST PUSH32 0xFFFFFFFF00000000000000000000000000000000000000000000000000000000 AND EQ ISZERO JUMPDEST ISZERO PUSH2 0xA55 JUMPI PUSH1 0x40 MLOAD PUSH32 0x3DA6393100000000000000000000000000000000000000000000000000000000 DUP2 MSTORE PUSH1 0x4 ADD PUSH1 0x40 MLOAD DUP1 SWAP2 SUB SWAP1 REVERT JUMPDEST PUSH1 0x0 SLOAD PUSH1 0x1 PUSH1 0x1 PUSH1 0xA0 SHL SUB AND CALLER EQ PUSH2 0xC16 JUMPI PUSH1 0x40 MLOAD PUSH3 0x82B429 PUSH1 0xE8 SHL DUP2 MSTORE PUSH1 0x4 ADD PUSH1 0x40 MLOAD DUP1 SWAP2 SUB SWAP1 REVERT JUMPDEST PUSH2 0x68E DUP3 DUP3 PUSH2 0x11E9 JUMP JUMPDEST PUSH1 0x0 SLOAD PUSH1 0x1 PUSH1 0x1 PUSH1 0xA0 SHL SUB AND CALLER EQ PUSH2 0xC4A JUMPI PUSH1 0x40 MLOAD PUSH3 0x82B429 PUSH1 0xE8 SHL DUP2 MSTORE PUSH1 0x4 ADD PUSH1 0x40 MLOAD DUP1 SWAP2 SUB SWAP1 REVERT JUMPDEST PUSH1 0x1 PUSH1 0x1 PUSH1 0xA0 SHL SUB SWAP2 SWAP1 SWAP2 AND PUSH1 0x0 SWAP1 DUP2 MSTORE PUSH1 0xB PUSH1 0x20 MSTORE PUSH1 0x40 SWAP1 KECCAK256 DUP1 SLOAD PUSH1 0xFF NOT AND SWAP2 ISZERO ISZERO SWAP2 SWAP1 SWAP2 OR SWAP1 SSTORE JUMP JUMPDEST PUSH1 0x0 DUP2 DUP2 MSTORE PUSH1 0x8 PUSH1 0x20 MSTORE PUSH1 0x40 SWAP1 KECCAK256 SLOAD PUSH1 0x1 PUSH1 0x1 PUSH1 0xA0 SHL SUB AND DUP1 PUSH2 0xCC4 JUMPI PUSH1 0x40 MLOAD PUSH32 0xC5723B5100000000000000000000000000000000000000000000000000000000 DUP2 MSTORE PUSH1 0x4 ADD PUSH1 0x40 MLOAD DUP1 SWAP2 SUB SWAP1 REVERT JUMPDEST SWAP2 SWAP1 POP JUMP JUMPDEST PUSH1 0x2 DUP1 SLOAD PUSH2 0x479 SWAP1 PUSH2 0x17E8 JUMP JUMPDEST CALLER PUSH1 0x0 DUP2 DUP2 MSTORE PUSH1 0x7 PUSH1 0x20 SWAP1 DUP2 MSTORE PUSH1 0x40 DUP1 DUP4 KECCAK256 PUSH1 0x1 PUSH1 0x1 PUSH1 0xA0 SHL SUB DUP8 AND DUP1 DUP6 MSTORE SWAP1 DUP4 MSTORE SWAP3 DUP2 SWAP1 KECCAK256 DUP1 SLOAD PUSH1 0xFF NOT AND DUP7 ISZERO ISZERO SWAP1 DUP2 OR SWAP1 SWAP2 SSTORE SWAP1 MLOAD SWAP1 DUP2 MSTORE SWAP2 SWAP3 SWAP2 PUSH32 0x17307EAB39AB6107E8899845AD3D59BD9653F200F220920489CA2B5937696C31 SWAP2 ADD PUSH1 0x40 MLOAD DUP1 SWAP2 SUB SWAP1 LOG3 POP POP JUMP JUMPDEST PUSH1 0x0 PUSH2 0xD4F CALLER DUP5 DUP5 PUSH2 0x103B JUMP JUMPDEST SWAP4 SWAP3 POP POP POP JUMP JUMPDEST PUSH2 0xD61 DUP6 DUP6 DUP6 PUSH2 0x692 JUMP JUMPDEST PUSH1 0x1 PUSH1 0x1 PUSH1 0xA0 SHL SUB DUP5 AND EXTCODESIZE ISZERO DUP1 ISZERO SWAP1 PUSH2 0xE2C JUMPI POP PUSH1 0x40 MLOAD PUSH32 0x150B7A0200000000000000000000000000000000000000000000000000000000 DUP1 DUP3 MSTORE SWAP1 PUSH1 0x1 PUSH1 0x1 PUSH1 0xA0 SHL SUB DUP7 AND SWAP1 PUSH4 0x150B7A02 SWAP1 PUSH2 0xDC4 SWAP1 CALLER SWAP1 DUP11 SWAP1 DUP10 SWAP1 DUP10 SWAP1 DUP10 SWAP1 PUSH1 0x4 ADD PUSH2 0x19C9 JUMP JUMPDEST PUSH1 0x20 PUSH1 0x40 MLOAD DUP1 DUP4 SUB DUP2 PUSH1 0x0 DUP8 GAS CALL ISZERO DUP1 ISZERO PUSH2 0xDE3 JUMPI RETURNDATASIZE PUSH1 0x0 DUP1 RETURNDATACOPY RETURNDATASIZE PUSH1 0x0 REVERT JUMPDEST POP POP POP POP PUSH1 0x40 MLOAD RETURNDATASIZE PUSH1 0x1F NOT PUSH1 0x1F DUP3 ADD AND DUP3 ADD DUP1 PUSH1 0x40 MSTORE POP DUP2 ADD SWAP1 PUSH2 0xE07 SWAP2 SWAP1 PUSH2 0x1987 JUMP JUMPDEST PUSH32 0xFFFFFFFF00000000000000000000000000000000000000000000000000000000 AND EQ ISZERO JUMPDEST ISZERO PUSH2 0xA52 JUMPI PUSH1 0x40 MLOAD PUSH32 0x3DA6393100000000000000000000000000000000000000000000000000000000 DUP2 MSTORE PUSH1 0x4 ADD PUSH1 0x40 MLOAD DUP1 SWAP2 SUB SWAP1 REVERT JUMPDEST PUSH1 0x60 PUSH1 0xD DUP1 SLOAD PUSH2 0xE72 SWAP1 PUSH2 0x17E8 JUMP JUMPDEST DUP1 PUSH1 0x1F ADD PUSH1 0x20 DUP1 SWAP2 DIV MUL PUSH1 0x20 ADD PUSH1 0x40 MLOAD SWAP1 DUP2 ADD PUSH1 0x40 MSTORE DUP1 SWAP3 SWAP2 SWAP1 DUP2 DUP2 MSTORE PUSH1 0x20 ADD DUP3 DUP1 SLOAD PUSH2 0xE9E SWAP1 PUSH2 0x17E8 JUMP JUMPDEST DUP1 ISZERO PUSH2 0xEEB JUMPI DUP1 PUSH1 0x1F LT PUSH2 0xEC0 JUMPI PUSH2 0x100 DUP1 DUP4 SLOAD DIV MUL DUP4 MSTORE SWAP2 PUSH1 0x20 ADD SWAP2 PUSH2 0xEEB JUMP JUMPDEST DUP3 ADD SWAP2 SWAP1 PUSH1 0x0 MSTORE PUSH1 0x20 PUSH1 0x0 KECCAK256 SWAP1 JUMPDEST DUP2 SLOAD DUP2 MSTORE SWAP1 PUSH1 0x1 ADD SWAP1 PUSH1 0x20 ADD DUP1 DUP4 GT PUSH2 0xECE JUMPI DUP3 SWAP1 SUB PUSH1 0x1F AND DUP3 ADD SWAP2 JUMPDEST POP POP POP POP POP SWAP1 POP SWAP2 SWAP1 POP JUMP JUMPDEST PUSH1 0xD DUP1 SLOAD PUSH2 0x479 SWAP1 PUSH2 0x17E8 JUMP JUMPDEST PUSH1 0x0 SLOAD PUSH1 0x1 PUSH1 0x1 PUSH1 0xA0 SHL SUB AND CALLER EQ PUSH2 0xF2E JUMPI PUSH1 0x40 MLOAD PUSH3 0x82B429 PUSH1 0xE8 SHL DUP2 MSTORE PUSH1 0x4 ADD PUSH1 0x40 MLOAD DUP1 SWAP2 SUB SWAP1 REVERT JUMPDEST PUSH1 0xD PUSH2 0x68E DUP3 DUP3 PUSH2 0x1872 JUMP JUMPDEST PUSH1 0xC DUP1 SLOAD PUSH2 0x479 SWAP1 PUSH2 0x17E8 JUMP JUMPDEST PUSH1 0x0 SLOAD PUSH1 0x1 PUSH1 0x1 PUSH1 0xA0 SHL SUB AND CALLER EQ PUSH2 0xF71 JUMPI PUSH1 0x40 MLOAD PUSH3 0x82B429 PUSH1 0xE8 SHL DUP2 MSTORE PUSH1 0x4 ADD PUSH1 0x40 MLOAD DUP1 SWAP2 SUB SWAP1 REVERT JUMPDEST PUSH1 0x1 PUSH1 0x1 PUSH1 0xA0 SHL SUB DUP2 AND PUSH2 0xFB1 JUMPI PUSH1 0x40 MLOAD PUSH32 0x49E27CFF00000000000000000000000000000000000000000000000000000000 DUP2 MSTORE PUSH1 0x4 ADD PUSH1 0x40 MLOAD DUP1 SWAP2 SUB SWAP1 REVERT JUMPDEST PUSH1 0x0 DUP1 SLOAD PUSH20 0xFFFFFFFFFFFFFFFFFFFFFFFFFFFFFFFFFFFFFFFF NOT AND PUSH1 0x1 PUSH1 0x1 PUSH1 0xA0 SHL SUB DUP4 AND SWAP1 DUP2 OR DUP3 SSTORE PUSH1 0x40 MLOAD SWAP1 SWAP2 CALLER SWAP2 PUSH32 0x8BE0079C531659141344CD1FD0A4F28419497F9722A3DAAFE3B4186F6B6457E0 SWAP2 SWAP1 LOG3 POP JUMP JUMPDEST PUSH1 0x0 PUSH2 0x1036 PUSH32 0x0 PUSH1 0xA PUSH2 0x1B01 JUMP JUMPDEST SWAP1 POP SWAP1 JUMP JUMPDEST PUSH1 0x0 DUP1 PUSH2 0x1046 PUSH2 0x1009 JUMP JUMPDEST PUSH1 0x1 PUSH1 0x1 PUSH1 0xA0 SHL SUB DUP1 DUP8 AND PUSH1 0x0 DUP2 DUP2 MSTORE PUSH1 0x4 PUSH1 0x20 MSTORE PUSH1 0x40 DUP1 DUP3 KECCAK256 DUP1 SLOAD SWAP5 DUP11 AND DUP4 MSTORE SWAP1 DUP3 KECCAK256 SLOAD SWAP3 DUP3 MSTORE SWAP4 SWAP5 POP SWAP2 SWAP3 SWAP1 SWAP2 DUP7 SWAP2 SWAP1 PUSH2 0x1082 DUP4 DUP7 PUSH2 0x1948 JUMP JUMPDEST SWAP1 SWAP2 SSTORE POP POP PUSH1 0x1 PUSH1 0x1 PUSH1 0xA0 SHL SUB DUP1 DUP8 AND PUSH1 0x0 SWAP1 DUP2 MSTORE PUSH1 0x4 PUSH1 0x20 SWAP1 DUP2 MSTORE PUSH1 0x40 DUP1 DUP4 KECCAK256 DUP1 SLOAD DUP11 ADD SWAP1 SSTORE SWAP3 DUP11 AND DUP3 MSTORE PUSH1 0xB SWAP1 MSTORE KECCAK256 SLOAD PUSH1 0xFF AND PUSH2 0x1114 JUMPI PUSH1 0x1 PUSH1 0x1 PUSH1 0xA0 SHL SUB DUP8 AND PUSH1 0x0 SWAP1 DUP2 MSTORE PUSH1 0x4 PUSH1 0x20 MSTORE PUSH1 0x40 DUP2 KECCAK256 SLOAD PUSH2 0x10DF SWAP1 DUP6 SWAP1 PUSH2 0x1B10 JUMP JUMPDEST PUSH2 0x10E9 DUP6 DUP6 PUSH2 0x1B10 JUMP JUMPDEST PUSH2 0x10F3 SWAP2 SWAP1 PUSH2 0x1948 JUMP JUMPDEST SWAP1 POP PUSH1 0x0 JUMPDEST DUP2 DUP2 LT ISZERO PUSH2 0x1111 JUMPI PUSH2 0x1109 DUP10 PUSH2 0x1202 JUMP JUMPDEST PUSH1 0x1 ADD PUSH2 0x10F8 JUMP JUMPDEST POP POP JUMPDEST PUSH1 0x1 PUSH1 0x1 PUSH1 0xA0 SHL SUB DUP7 AND PUSH1 0x0 SWAP1 DUP2 MSTORE PUSH1 0xB PUSH1 0x20 MSTORE PUSH1 0x40 SWAP1 KECCAK256 SLOAD PUSH1 0xFF AND PUSH2 0x118F JUMPI PUSH1 0x0 PUSH2 0x1140 DUP5 DUP4 PUSH2 0x1B10 JUMP JUMPDEST PUSH1 0x1 PUSH1 0x1 PUSH1 0xA0 SHL SUB DUP9 AND PUSH1 0x0 SWAP1 DUP2 MSTORE PUSH1 0x4 PUSH1 0x20 MSTORE PUSH1 0x40 SWAP1 KECCAK256 SLOAD PUSH2 0x1164 SWAP1 DUP7 SWAP1 PUSH2 0x1B10 JUMP JUMPDEST PUSH2 0x116E SWAP2 SWAP1 PUSH2 0x1948 JUMP JUMPDEST SWAP1 POP PUSH1 0x0 JUMPDEST DUP2 DUP2 LT ISZERO PUSH2 0x118C JUMPI PUSH2 0x1184 DUP9 PUSH2 0x1350 JUMP JUMPDEST PUSH1 0x1 ADD PUSH2 0x1173 JUMP JUMPDEST POP POP JUMPDEST DUP6 PUSH1 0x1 PUSH1 0x1 PUSH1 0xA0 SHL SUB AND DUP8 PUSH1 0x1 PUSH1 0x1 PUSH1 0xA0 SHL SUB AND PUSH32 0xE59FDD36D0D223C0C7D996DB7AD796880F45E1936CB0BB7AC102E7082E031487 DUP8 PUSH1 0x40 MLOAD PUSH2 0x11D4 SWAP2 DUP2 MSTORE PUSH1 0x20 ADD SWAP1 JUMP JUMPDEST PUSH1 0x40 MLOAD DUP1 SWAP2 SUB SWAP1 LOG3 POP PUSH1 0x1 SWAP7 SWAP6 POP POP POP POP POP POP JUMP JUMPDEST PUSH1 0x1 PUSH2 0x11F5 DUP4 DUP3 PUSH2 0x1872 JUMP JUMPDEST POP PUSH1 0x2 PUSH2 0xA55 DUP3 DUP3 PUSH2 0x1872 JUMP JUMPDEST PUSH1 0x1 PUSH1 0x1 PUSH1 0xA0 SHL SUB DUP2 AND PUSH2 0x1242 JUMPI PUSH1 0x40 MLOAD PUSH32 0xDDB5DE5E00000000000000000000000000000000000000000000000000000000 DUP2 MSTORE PUSH1 0x4 ADD PUSH1 0x40 MLOAD DUP1 SWAP2 SUB SWAP1 REVERT JUMPDEST PUSH1 0x1 PUSH1 0x1 PUSH1 0xA0 SHL SUB DUP2 AND PUSH1 0x0 SWAP1 DUP2 MSTORE PUSH1 0x9 PUSH1 0x20 MSTORE PUSH1 0x40 DUP2 KECCAK256 DUP1 SLOAD PUSH2 0x1268 SWAP1 PUSH1 0x1 SWAP1 PUSH2 0x1948 JUMP JUMPDEST DUP2 SLOAD DUP2 LT PUSH2 0x1278 JUMPI PUSH2 0x1278 PUSH2 0x195B JUMP JUMPDEST SWAP1 PUSH1 0x0 MSTORE PUSH1 0x20 PUSH1 0x0 KECCAK256 ADD SLOAD SWAP1 POP PUSH1 0x9 PUSH1 0x0 DUP4 PUSH1 0x1 PUSH1 0x1 PUSH1 0xA0 SHL SUB AND PUSH1 0x1 PUSH1 0x1 PUSH1 0xA0 SHL SUB AND DUP2 MSTORE PUSH1 0x20 ADD SWAP1 DUP2 MSTORE PUSH1 0x20 ADD PUSH1 0x0 KECCAK256 DUP1 SLOAD DUP1 PUSH2 0x12B9 JUMPI PUSH2 0x12B9 PUSH2 0x1971 JUMP JUMPDEST PUSH1 0x0 DUP3 DUP2 MSTORE PUSH1 0x20 DUP1 DUP3 KECCAK256 DUP4 ADD PUSH1 0x0 NOT SWAP1 DUP2 ADD DUP4 SWAP1 SSTORE SWAP1 SWAP3 ADD SWAP1 SWAP3 SSTORE DUP3 DUP3 MSTORE PUSH1 0xA DUP2 MSTORE PUSH1 0x40 DUP1 DUP4 KECCAK256 DUP4 SWAP1 SSTORE PUSH1 0x8 DUP3 MSTORE DUP1 DUP4 KECCAK256 DUP1 SLOAD PUSH20 0xFFFFFFFFFFFFFFFFFFFFFFFFFFFFFFFFFFFFFFFF NOT SWAP1 DUP2 AND SWAP1 SWAP2 SSTORE PUSH1 0x6 SWAP1 SWAP3 MSTORE DUP1 DUP4 KECCAK256 DUP1 SLOAD SWAP1 SWAP3 AND SWAP1 SWAP2 SSTORE MLOAD DUP3 SWAP2 SWAP1 PUSH1 0x1 PUSH1 0x1 PUSH1 0xA0 SHL SUB DUP6 AND SWAP1 PUSH32 0xDDF252AD1BE2C89B69C2B068FC378DAA952BA7F163C4A11628F55A4DF523B3EF SWAP1 DUP4 SWAP1 LOG4 POP POP JUMP JUMPDEST PUSH1 0x1 PUSH1 0x1 PUSH1 0xA0 SHL SUB DUP2 AND PUSH2 0x1390 JUMPI PUSH1 0x40 MLOAD PUSH32 0x9C8D2CD200000000000000000000000000000000000000000000000000000000 DUP2 MSTORE PUSH1 0x4 ADD PUSH1 0x40 MLOAD DUP1 SWAP2 SUB SWAP1 REVERT JUMPDEST PUSH1 0x3 DUP1 SLOAD PUSH1 0x1 ADD SWAP1 DUP2 SWAP1 SSTORE PUSH1 0x0 DUP2 DUP2 MSTORE PUSH1 0x8 PUSH1 0x20 MSTORE PUSH1 0x40 SWAP1 KECCAK256 SLOAD PUSH1 0x1 PUSH1 0x1 PUSH1 0xA0 SHL SUB AND ISZERO PUSH2 0x13EA JUMPI PUSH1 0x40 MLOAD PUSH32 0x23369FA600000000000000000000000000000000000000000000000000000000 DUP2 MSTORE PUSH1 0x4 ADD PUSH1 0x40 MLOAD DUP1 SWAP2 SUB SWAP1 REVERT JUMPDEST PUSH1 0x0 DUP2 DUP2 MSTORE PUSH1 0x8 PUSH1 0x20 SWAP1 DUP2 MSTORE PUSH1 0x40 DUP1 DUP4 KECCAK256 DUP1 SLOAD PUSH20 0xFFFFFFFFFFFFFFFFFFFFFFFFFFFFFFFFFFFFFFFF NOT AND PUSH1 0x1 PUSH1 0x1 PUSH1 0xA0 SHL SUB DUP8 AND SWAP1 DUP2 OR SWAP1 SWAP2 SSTORE DUP1 DUP5 MSTORE PUSH1 0x9 DUP4 MSTORE SWAP1 DUP4 KECCAK256 DUP1 SLOAD PUSH1 0x1 DUP2 DUP2 ADD DUP4 SSTORE DUP3 DUP7 MSTORE SWAP4 DUP6 KECCAK256 ADD DUP6 SWAP1 SSTORE SWAP3 MSTORE SWAP1 SLOAD PUSH2 0x144F SWAP2 SWAP1 PUSH2 0x1948 JUMP JUMPDEST PUSH1 0x0 DUP3 DUP2 MSTORE PUSH1 0xA PUSH1 0x20 MSTORE PUSH1 0x40 DUP1 DUP3 KECCAK256 SWAP3 SWAP1 SWAP3 SSTORE SWAP1 MLOAD DUP3 SWAP2 PUSH1 0x1 PUSH1 0x1 PUSH1 0xA0 SHL SUB DUP6 AND SWAP2 PUSH32 0xDDF252AD1BE2C89B69C2B068FC378DAA952BA7F163C4A11628F55A4DF523B3EF SWAP1 DUP3 SWAP1 LOG4 POP POP JUMP JUMPDEST PUSH1 0x0 PUSH1 0x20 DUP1 DUP4 MSTORE DUP4 MLOAD DUP1 PUSH1 0x20 DUP6 ADD MSTORE PUSH1 0x0 JUMPDEST DUP2 DUP2 LT ISZERO PUSH2 0x14C8 JUMPI DUP6 DUP2 ADD DUP4 ADD MLOAD DUP6 DUP3 ADD PUSH1 0x40 ADD MSTORE DUP3 ADD PUSH2 0x14AC JUMP JUMPDEST POP PUSH1 0x0 PUSH1 0x40 DUP3 DUP7 ADD ADD MSTORE PUSH1 0x40 PUSH1 0x1F NOT PUSH1 0x1F DUP4 ADD AND DUP6 ADD ADD SWAP3 POP POP POP SWAP3 SWAP2 POP POP JUMP JUMPDEST PUSH1 0x0 PUSH1 0x20 DUP3 DUP5 SUB SLT ISZERO PUSH2 0x14FB JUMPI PUSH1 0x0 DUP1 REVERT JUMPDEST POP CALLDATALOAD SWAP2 SWAP1 POP JUMP JUMPDEST DUP1 CALLDATALOAD PUSH1 0x1 PUSH1 0x1 PUSH1 0xA0 SHL SUB DUP2 AND DUP2 EQ PUSH2 0xCC4 JUMPI PUSH1 0x0 DUP1 REVERT JUMPDEST PUSH1 0x0 DUP1 PUSH1 0x40 DUP4 DUP6 SUB SLT ISZERO PUSH2 0x152C JUMPI PUSH1 0x0 DUP1 REVERT JUMPDEST PUSH2 0x1535 DUP4 PUSH2 0x1502 JUMP JUMPDEST SWAP5 PUSH1 0x20 SWAP4 SWAP1 SWAP4 ADD CALLDATALOAD SWAP4 POP POP POP JUMP JUMPDEST PUSH4 0x4E487B71 PUSH1 0xE0 SHL PUSH1 0x0 MSTORE PUSH1 0x41 PUSH1 0x4 MSTORE PUSH1 0x24 PUSH1 0x0 REVERT JUMPDEST PUSH1 0x0 DUP3 PUSH1 0x1F DUP4 ADD SLT PUSH2 0x156A JUMPI PUSH1 0x0 DUP1 REVERT JUMPDEST DUP2 CALLDATALOAD PUSH8 0xFFFFFFFFFFFFFFFF DUP1 DUP3 GT ISZERO PUSH2 0x1585 JUMPI PUSH2 0x1585 PUSH2 0x1543 JUMP JUMPDEST PUSH1 0x40 MLOAD PUSH1 0x1F DUP4 ADD PUSH1 0x1F NOT SWAP1 DUP2 AND PUSH1 0x3F ADD AND DUP2 ADD SWAP1 DUP3 DUP3 GT DUP2 DUP4 LT OR ISZERO PUSH2 0x15AD JUMPI PUSH2 0x15AD PUSH2 0x1543 JUMP JUMPDEST DUP2 PUSH1 0x40 MSTORE DUP4 DUP2 MSTORE DUP7 PUSH1 0x20 DUP6 DUP9 ADD ADD GT ISZERO PUSH2 0x15C6 JUMPI PUSH1 0x0 DUP1 REVERT JUMPDEST DUP4 PUSH1 0x20 DUP8 ADD PUSH1 0x20 DUP4 ADD CALLDATACOPY PUSH1 0x0 PUSH1 0x20 DUP6 DUP4 ADD ADD MSTORE DUP1 SWAP5 POP POP POP POP POP SWAP3 SWAP2 POP POP JUMP JUMPDEST PUSH1 0x0 PUSH1 0x20 DUP3 DUP5 SUB SLT ISZERO PUSH2 0x15F8 JUMPI PUSH1 0x0 DUP1 REVERT JUMPDEST DUP2 CALLDATALOAD PUSH8 0xFFFFFFFFFFFFFFFF DUP2 GT ISZERO PUSH2 0x160F JUMPI PUSH1 0x0 DUP1 REVERT JUMPDEST PUSH2 0x161B DUP5 DUP3 DUP6 ADD PUSH2 0x1559 JUMP JUMPDEST SWAP5 SWAP4 POP POP POP POP JUMP JUMPDEST PUSH1 0x0 DUP1 PUSH1 0x0 PUSH1 0x60 DUP5 DUP7 SUB SLT ISZERO PUSH2 0x1638 JUMPI PUSH1 0x0 DUP1 REVERT JUMPDEST PUSH2 0x1641 DUP5 PUSH2 0x1502 JUMP JUMPDEST SWAP3 POP PUSH2 0x164F PUSH1 0x20 DUP6 ADD PUSH2 0x1502 JUMP JUMPDEST SWAP2 POP PUSH1 0x40 DUP5 ADD CALLDATALOAD SWAP1 POP SWAP3 POP SWAP3 POP SWAP3 JUMP JUMPDEST PUSH1 0x0 DUP1 PUSH1 0x40 DUP4 DUP6 SUB SLT ISZERO PUSH2 0x1672 JUMPI PUSH1 0x0 DUP1 REVERT JUMPDEST DUP3 CALLDATALOAD PUSH8 0xFFFFFFFFFFFFFFFF DUP1 DUP3 GT ISZERO PUSH2 0x168A JUMPI PUSH1 0x0 DUP1 REVERT JUMPDEST PUSH2 0x1696 DUP7 DUP4 DUP8 ADD PUSH2 0x1559 JUMP JUMPDEST SWAP4 POP PUSH1 0x20 DUP6 ADD CALLDATALOAD SWAP2 POP DUP1 DUP3 GT ISZERO PUSH2 0x16AC JUMPI PUSH1 0x0 DUP1 REVERT JUMPDEST POP PUSH2 0x16B9 DUP6 DUP3 DUP7 ADD PUSH2 0x1559 JUMP JUMPDEST SWAP2 POP POP SWAP3 POP SWAP3 SWAP1 POP JUMP JUMPDEST PUSH1 0x0 DUP1 PUSH1 0x40 DUP4 DUP6 SUB SLT ISZERO PUSH2 0x16D6 JUMPI PUSH1 0x0 DUP1 REVERT JUMPDEST PUSH2 0x16DF DUP4 PUSH2 0x1502 JUMP JUMPDEST SWAP2 POP PUSH1 0x20 DUP4 ADD CALLDATALOAD DUP1 ISZERO ISZERO DUP2 EQ PUSH2 0x16F4 JUMPI PUSH1 0x0 DUP1 REVERT JUMPDEST DUP1 SWAP2 POP POP SWAP3 POP SWAP3 SWAP1 POP JUMP JUMPDEST PUSH1 0x0 PUSH1 0x20 DUP3 DUP5 SUB SLT ISZERO PUSH2 0x1711 JUMPI PUSH1 0x0 DUP1 REVERT JUMPDEST PUSH2 0xD4F DUP3 PUSH2 0x1502 JUMP JUMPDEST PUSH1 0x0 DUP1 PUSH1 0x0 DUP1 PUSH1 0x0 PUSH1 0x80 DUP7 DUP9 SUB SLT ISZERO PUSH2 0x1732 JUMPI PUSH1 0x0 DUP1 REVERT JUMPDEST PUSH2 0x173B DUP7 PUSH2 0x1502 JUMP JUMPDEST SWAP5 POP PUSH2 0x1749 PUSH1 0x20 DUP8 ADD PUSH2 0x1502 JUMP JUMPDEST SWAP4 POP PUSH1 0x40 DUP7 ADD CALLDATALOAD SWAP3 POP PUSH1 0x60 DUP7 ADD CALLDATALOAD PUSH8 0xFFFFFFFFFFFFFFFF DUP1 DUP3 GT ISZERO PUSH2 0x176D JUMPI PUSH1 0x0 DUP1 REVERT JUMPDEST DUP2 DUP9 ADD SWAP2 POP DUP9 PUSH1 0x1F DUP4 ADD SLT PUSH2 0x1781 JUMPI PUSH1 0x0 DUP1 REVERT JUMPDEST DUP2 CALLDATALOAD DUP2 DUP2 GT ISZERO PUSH2 0x1790 JUMPI PUSH1 0x0 DUP1 REVERT JUMPDEST DUP10 PUSH1 0x20 DUP3 DUP6 ADD ADD GT ISZERO PUSH2 0x17A2 JUMPI PUSH1 0x0 DUP1 REVERT JUMPDEST SWAP7 SWAP10 SWAP6 SWAP9 POP SWAP4 SWAP7 POP PUSH1 0x20 ADD SWAP5 SWAP4 SWAP3 POP POP POP JUMP JUMPDEST PUSH1 0x0 DUP1 PUSH1 0x40 DUP4 DUP6 SUB SLT ISZERO PUSH2 0x17C8 JUMPI PUSH1 0x0 DUP1 REVERT JUMPDEST PUSH2 0x17D1 DUP4 PUSH2 0x1502 JUMP JUMPDEST SWAP2 POP PUSH2 0x17DF PUSH1 0x20 DUP5 ADD PUSH2 0x1502 JUMP JUMPDEST SWAP1 POP SWAP3 POP SWAP3 SWAP1 POP JUMP JUMPDEST PUSH1 0x1 DUP2 DUP2 SHR SWAP1 DUP3 AND DUP1 PUSH2 0x17FC JUMPI PUSH1 0x7F DUP3 AND SWAP2 POP JUMPDEST PUSH1 0x20 DUP3 LT DUP2 SUB PUSH2 0x181C JUMPI PUSH4 0x4E487B71 PUSH1 0xE0 SHL PUSH1 0x0 MSTORE PUSH1 0x22 PUSH1 0x4 MSTORE PUSH1 0x24 PUSH1 0x0 REVERT JUMPDEST POP SWAP2 SWAP1 POP JUMP JUMPDEST PUSH1 0x1F DUP3 GT ISZERO PUSH2 0xA55 JUMPI PUSH1 0x0 DUP2 PUSH1 0x0 MSTORE PUSH1 0x20 PUSH1 0x0 KECCAK256 PUSH1 0x1F DUP6 ADD PUSH1 0x5 SHR DUP2 ADD PUSH1 0x20 DUP7 LT ISZERO PUSH2 0x184B JUMPI POP DUP1 JUMPDEST PUSH1 0x1F DUP6 ADD PUSH1 0x5 SHR DUP3 ADD SWAP2 POP JUMPDEST DUP2 DUP2 LT ISZERO PUSH2 0x186A JUMPI DUP3 DUP2 SSTORE PUSH1 0x1 ADD PUSH2 0x1857 JUMP JUMPDEST POP POP POP POP POP POP JUMP JUMPDEST DUP2 MLOAD PUSH8 0xFFFFFFFFFFFFFFFF DUP2 GT ISZERO PUSH2 0x188C JUMPI PUSH2 0x188C PUSH2 0x1543 JUMP JUMPDEST PUSH2 0x18A0 DUP2 PUSH2 0x189A DUP5 SLOAD PUSH2 0x17E8 JUMP JUMPDEST DUP5 PUSH2 0x1822 JUMP JUMPDEST PUSH1 0x20 DUP1 PUSH1 0x1F DUP4 GT PUSH1 0x1 DUP2 EQ PUSH2 0x18D5 JUMPI PUSH1 0x0 DUP5 ISZERO PUSH2 0x18BD JUMPI POP DUP6 DUP4 ADD MLOAD JUMPDEST PUSH1 0x0 NOT PUSH1 0x3 DUP7 SWAP1 SHL SHR NOT AND PUSH1 0x1 DUP6 SWAP1 SHL OR DUP6 SSTORE PUSH2 0x186A JUMP JUMPDEST PUSH1 0x0 DUP6 DUP2 MSTORE PUSH1 0x20 DUP2 KECCAK256 PUSH1 0x1F NOT DUP7 AND SWAP2 JUMPDEST DUP3 DUP2 LT ISZERO PUSH2 0x1904 JUMPI DUP9 DUP7 ADD MLOAD DUP3 SSTORE SWAP5 DUP5 ADD SWAP5 PUSH1 0x1 SWAP1 SWAP2 ADD SWAP1 DUP5 ADD PUSH2 0x18E5 JUMP JUMPDEST POP DUP6 DUP3 LT ISZERO PUSH2 0x1922 JUMPI DUP8 DUP6 ADD MLOAD PUSH1 0x0 NOT PUSH1 0x3 DUP9 SWAP1 SHL PUSH1 0xF8 AND SHR NOT AND DUP2 SSTORE JUMPDEST POP POP POP POP POP PUSH1 0x1 SWAP1 DUP2 SHL ADD SWAP1 SSTORE POP JUMP JUMPDEST PUSH4 0x4E487B71 PUSH1 0xE0 SHL PUSH1 0x0 MSTORE PUSH1 0x11 PUSH1 0x4 MSTORE PUSH1 0x24 PUSH1 0x0 REVERT JUMPDEST DUP2 DUP2 SUB DUP2 DUP2 GT ISZERO PUSH2 0x652 JUMPI PUSH2 0x652 PUSH2 0x1932 JUMP JUMPDEST PUSH4 0x4E487B71 PUSH1 0xE0 SHL PUSH1 0x0 MSTORE PUSH1 0x32 PUSH1 0x4 MSTORE PUSH1 0x24 PUSH1 0x0 REVERT JUMPDEST PUSH4 0x4E487B71 PUSH1 0xE0 SHL PUSH1 0x0 MSTORE PUSH1 0x31 PUSH1 0x4 MSTORE PUSH1 0x24 PUSH1 0x0 REVERT JUMPDEST PUSH1 0x0 PUSH1 0x20 DUP3 DUP5 SUB SLT ISZERO PUSH2 0x1999 JUMPI PUSH1 0x0 DUP1 REVERT JUMPDEST DUP2 MLOAD PUSH32 0xFFFFFFFF00000000000000000000000000000000000000000000000000000000 DUP2 AND DUP2 EQ PUSH2 0xD4F JUMPI PUSH1 0x0 DUP1 REVERT JUMPDEST PUSH1 0x0 PUSH1 0x1 PUSH1 0x1 PUSH1 0xA0 SHL SUB DUP1 DUP9 AND DUP4 MSTORE DUP1 DUP8 AND PUSH1 0x20 DUP5 ADD MSTORE POP DUP5 PUSH1 0x40 DUP4 ADD MSTORE PUSH1 0x80 PUSH1 0x60 DUP4 ADD MSTORE DUP3 PUSH1 0x80 DUP4 ADD MSTORE DUP3 DUP5 PUSH1 0xA0 DUP5 ADD CALLDATACOPY PUSH1 0x0 PUSH1 0xA0 DUP5 DUP5 ADD ADD MSTORE PUSH1 0xA0 PUSH1 0x1F NOT PUSH1 0x1F DUP6 ADD AND DUP4 ADD ADD SWAP1 POP SWAP7 SWAP6 POP POP POP POP POP POP JUMP JUMPDEST PUSH1 0x1 DUP2 DUP2 JUMPDEST DUP1 DUP6 GT ISZERO PUSH2 0x1A58 JUMPI DUP2 PUSH1 0x0 NOT DIV DUP3 GT ISZERO PUSH2 0x1A3E JUMPI PUSH2 0x1A3E PUSH2 0x1932 JUMP JUMPDEST DUP1 DUP6 AND ISZERO PUSH2 0x1A4B JUMPI SWAP2 DUP2 MUL SWAP2 JUMPDEST SWAP4 DUP5 SHR SWAP4 SWAP1 DUP1 MUL SWAP1 PUSH2 0x1A22 JUMP JUMPDEST POP SWAP3 POP SWAP3 SWAP1 POP JUMP JUMPDEST PUSH1 0x0 DUP3 PUSH2 0x1A6F JUMPI POP PUSH1 0x1 PUSH2 0x652 JUMP JUMPDEST DUP2 PUSH2 0x1A7C JUMPI POP PUSH1 0x0 PUSH2 0x652 JUMP JUMPDEST DUP2 PUSH1 0x1 DUP2 EQ PUSH2 0x1A92 JUMPI PUSH1 0x2 DUP2 EQ PUSH2 0x1A9C JUMPI PUSH2 0x1AB8 JUMP JUMPDEST PUSH1 0x1 SWAP2 POP POP PUSH2 0x652 JUMP JUMPDEST PUSH1 0xFF DUP5 GT ISZERO PUSH2 0x1AAD JUMPI PUSH2 0x1AAD PUSH2 0x1932 JUMP JUMPDEST POP POP PUSH1 0x1 DUP3 SHL PUSH2 0x652 JUMP JUMPDEST POP PUSH1 0x20 DUP4 LT PUSH2 0x133 DUP4 LT AND PUSH1 0x4E DUP5 LT PUSH1 0xB DUP5 LT AND OR ISZERO PUSH2 0x1ADB JUMPI POP DUP2 DUP2 EXP PUSH2 0x652 JUMP JUMPDEST PUSH2 0x1AE5 DUP4 DUP4 PUSH2 0x1A1D JUMP JUMPDEST DUP1 PUSH1 0x0 NOT DIV DUP3 GT ISZERO PUSH2 0x1AF9 JUMPI PUSH2 0x1AF9 PUSH2 0x1932 JUMP JUMPDEST MUL SWAP4 SWAP3 POP POP POP JUMP JUMPDEST PUSH1 0x0 PUSH2 0xD4F PUSH1 0xFF DUP5 AND DUP4 PUSH2 0x1A60 JUMP JUMPDEST PUSH1 0x0 DUP3 PUSH2 0x1B2D JUMPI PUSH4 0x4E487B71 PUSH1 0xE0 SHL PUSH1 0x0 MSTORE PUSH1 0x12 PUSH1 0x4 MSTORE PUSH1 0x24 PUSH1 0x0 REVERT JUMPDEST POP DIV SWAP1 JUMP INVALID LOG2 PUSH5 0x6970667358 0x22 SLT KECCAK256 CALLDATACOPY 0x24 PUSH0 DIV 0x29 0xC6 SWAP2 0x4D SWAP7 STATICCALL PUSH7 0xC03AFCA096A443 SHR 0xED 0xBA 0x28 SMOD 0xEB PUSH22 0xB42E0FDA76083164736F6C6343000818003300000000 "},"methodIdentifiers":{"allowance(address,address)":"dd62ed3e","approve(address,uint256)":"095ea7b3","balanceOf(address)":"70a08231","baseTokenURI()":"d547cfb7","dataURI()":"f28ca1dd","decimals()":"313ce567","getApproved(uint256)":"081812fc","isApprovedForAll(address,address)":"e985e9c5","minted()":"4f02c420","name()":"06fdde03","owner()":"8da5cb5b","ownerOf(uint256)":"6352211e","revokeOwnership()":"2b968958","safeTransferFrom(address,address,uint256)":"42842e0e","safeTransferFrom(address,address,uint256,bytes)":"b88d4fde","setApprovalForAll(address,bool)":"a22cb465","setDataURI(string)":"18d217c3","setNameSymbol(string,string)":"504334c2","setTokenURI(string)":"e0df5b6f","setWhitelist(address,bool)":"53d6fd59","symbol()":"95d89b41","tokenURI(uint256)":"c87b56dd","totalSupply()":"18160ddd","transfer(address,uint256)":"a9059cbb","transferFrom(address,address,uint256)":"23b872dd","transferOwnership(address)":"f2fde38b","whitelist(address)":"9b19251a"}},"storageLayout":{"storage":[{"astId":1427,"contract":"contracts/My404.sol:My404","label":"owner","offset":0,"slot":"0","type":"t_address"},{"astId":1593,"contract":"contracts/My404.sol:My404","label":"name","offset":0,"slot":"1","type":"t_string_storage"},{"astId":1596,"contract":"contracts/My404.sol:My404","label":"symbol","offset":0,"slot":"2","type":"t_string_storage"},{"astId":1605,"contract":"contracts/My404.sol:My404","label":"minted","offset":0,"slot":"3","type":"t_uint256"},{"astId":1610,"contract":"contracts/My404.sol:My404","label":"balanceOf","offset":0,"slot":"4","type":"t_mapping(t_address,t_uint256)"},{"astId":1617,"contract":"contracts/My404.sol:My404","label":"allowance","offset":0,"slot":"5","type":"t_mapping(t_address,t_mapping(t_address,t_uint256))"},{"astId":1622,"contract":"contracts/My404.sol:My404","label":"getApproved","offset":0,"slot":"6","type":"t_mapping(t_uint256,t_address)"},{"astId":1629,"contract":"contracts/My404.sol:My404","label":"isApprovedForAll","offset":0,"slot":"7","type":"t_mapping(t_address,t_mapping(t_address,t_bool))"},{"astId":1634,"contract":"contracts/My404.sol:My404","label":"_ownerOf","offset":0,"slot":"8","type":"t_mapping(t_uint256,t_address)"},{"astId":1640,"contract":"contracts/My404.sol:My404","label":"_owned","offset":0,"slot":"9","type":"t_mapping(t_address,t_array(t_uint256)dyn_storage)"},{"astId":1645,"contract":"contracts/My404.sol:My404","label":"_ownedIndex","offset":0,"slot":"10","type":"t_mapping(t_uint256,t_uint256)"},{"astId":1650,"contract":"contracts/My404.sol:My404","label":"whitelist","offset":0,"slot":"11","type":"t_mapping(t_address,t_bool)"},{"astId":2421,"contract":"contracts/My404.sol:My404","label":"dataURI","offset":0,"slot":"12","type":"t_string_storage"},{"astId":2423,"contract":"contracts/My404.sol:My404","label":"baseTokenURI","offset":0,"slot":"13","type":"t_string_storage"}],"types":{"t_address":{"encoding":"inplace","label":"address","numberOfBytes":"20"},"t_array(t_uint256)dyn_storage":{"base":"t_uint256","encoding":"dynamic_array","label":"uint256[]","numberOfBytes":"32"},"t_bool":{"encoding":"inplace","label":"bool","numberOfBytes":"1"},"t_mapping(t_address,t_array(t_uint256)dyn_storage)":{"encoding":"mapping","key":"t_address","label":"mapping(address => uint256[])","numberOfBytes":"32","value":"t_array(t_uint256)dyn_storage"},"t_mapping(t_address,t_bool)":{"encoding":"mapping","key":"t_address","label":"mapping(address => bool)","numberOfBytes":"32","value":"t_bool"},"t_mapping(t_address,t_mapping(t_address,t_bool))":{"encoding":"mapping","key":"t_address","label":"mapping(address => mapping(address => bool))","numberOfBytes":"32","value":"t_mapping(t_address,t_bool)"},"t_mapping(t_address,t_mapping(t_address,t_uint256))":{"encoding":"mapping","key":"t_address","label":"mapping(address => mapping(address => uint256))","numberOfBytes":"32","value":"t_mapping(t_address,t_uint256)"},"t_mapping(t_address,t_uint256)":{"encoding":"mapping","key":"t_address","label":"mapping(address => uint256)","numberOfBytes":"32","value":"t_uint256"},"t_mapping(t_uint256,t_address)":{"encoding":"mapping","key":"t_uint256","label":"mapping(uint256 => address)","numberOfBytes":"32","value":"t_address"},"t_mapping(t_uint256,t_uint256)":{"encoding":"mapping","key":"t_uint256","label":"mapping(uint256 => uint256)","numberOfBytes":"32","value":"t_uint256"},"t_string_storage":{"encoding":"bytes","label":"string","numberOfBytes":"32"},"t_uint256":{"encoding":"inplace","label":"uint256","numberOfBytes":"32"}}}}}}