{
  "_format": "hh-sol-artifact-1",
  "contractName": "BHouseMarket",
  "sourceName": "contracts/BHouseMarket.sol",
  "abi": [
    {
      "anonymous": false,
      "inputs": [
        {
          "indexed": false,
          "internalType": "address",
          "name": "previousAdmin",
          "type": "address"
        },
        {
          "indexed": false,
          "internalType": "address",
          "name": "newAdmin",
          "type": "address"
        }
      ],
      "name": "AdminChanged",
      "type": "event"
    },
    {
      "anonymous": false,
      "inputs": [
        {
          "indexed": true,
          "internalType": "address",
          "name": "beacon",
          "type": "address"
        }
      ],
      "name": "BeaconUpgraded",
      "type": "event"
    },
    {
      "anonymous": false,
      "inputs": [
        {
          "indexed": false,
          "internalType": "uint256",
          "name": "tokenId",
          "type": "uint256"
        }
      ],
      "name": "CancelOrder",
      "type": "event"
    },
    {
      "anonymous": false,
      "inputs": [
        {
          "indexed": false,
          "internalType": "uint256",
          "name": "tokenId",
          "type": "uint256"
        },
        {
          "indexed": false,
          "internalType": "uint256",
          "name": "price",
          "type": "uint256"
        },
        {
          "indexed": false,
          "internalType": "uint256",
          "name": "tokenDetail",
          "type": "uint256"
        },
        {
          "indexed": false,
          "internalType": "address",
          "name": "seller",
          "type": "address"
        }
      ],
      "name": "CreateOrder",
      "type": "event"
    },
    {
      "anonymous": false,
      "inputs": [
        {
          "indexed": false,
          "internalType": "uint8",
          "name": "version",
          "type": "uint8"
        }
      ],
      "name": "Initialized",
      "type": "event"
    },
    {
      "anonymous": false,
      "inputs": [
        {
          "indexed": false,
          "internalType": "address",
          "name": "account",
          "type": "address"
        }
      ],
      "name": "Paused",
      "type": "event"
    },
    {
      "anonymous": false,
      "inputs": [
        {
          "indexed": true,
          "internalType": "bytes32",
          "name": "role",
          "type": "bytes32"
        },
        {
          "indexed": true,
          "internalType": "bytes32",
          "name": "previousAdminRole",
          "type": "bytes32"
        },
        {
          "indexed": true,
          "internalType": "bytes32",
          "name": "newAdminRole",
          "type": "bytes32"
        }
      ],
      "name": "RoleAdminChanged",
      "type": "event"
    },
    {
      "anonymous": false,
      "inputs": [
        {
          "indexed": true,
          "internalType": "bytes32",
          "name": "role",
          "type": "bytes32"
        },
        {
          "indexed": true,
          "internalType": "address",
          "name": "account",
          "type": "address"
        },
        {
          "indexed": true,
          "internalType": "address",
          "name": "sender",
          "type": "address"
        }
      ],
      "name": "RoleGranted",
      "type": "event"
    },
    {
      "anonymous": false,
      "inputs": [
        {
          "indexed": true,
          "internalType": "bytes32",
          "name": "role",
          "type": "bytes32"
        },
        {
          "indexed": true,
          "internalType": "address",
          "name": "account",
          "type": "address"
        },
        {
          "indexed": true,
          "internalType": "address",
          "name": "sender",
          "type": "address"
        }
      ],
      "name": "RoleRevoked",
      "type": "event"
    },
    {
      "anonymous": false,
      "inputs": [
        {
          "indexed": false,
          "internalType": "uint256",
          "name": "tokenId",
          "type": "uint256"
        },
        {
          "indexed": false,
          "internalType": "uint256",
          "name": "price",
          "type": "uint256"
        },
        {
          "indexed": false,
          "internalType": "uint256",
          "name": "tokenDetail",
          "type": "uint256"
        },
        {
          "indexed": false,
          "internalType": "address",
          "name": "seller",
          "type": "address"
        },
        {
          "indexed": false,
          "internalType": "address",
          "name": "buyer",
          "type": "address"
        }
      ],
      "name": "Sold",
      "type": "event"
    },
    {
      "anonymous": false,
      "inputs": [
        {
          "indexed": false,
          "internalType": "address",
          "name": "account",
          "type": "address"
        }
      ],
      "name": "Unpaused",
      "type": "event"
    },
    {
      "anonymous": false,
      "inputs": [
        {
          "indexed": true,
          "internalType": "address",
          "name": "implementation",
          "type": "address"
        }
      ],
      "name": "Upgraded",
      "type": "event"
    },
    {
      "inputs": [],
      "name": "BANNER_ROLE",
      "outputs": [
        {
          "internalType": "bytes32",
          "name": "",
          "type": "bytes32"
        }
      ],
      "stateMutability": "view",
      "type": "function"
    },
    {
      "inputs": [],
      "name": "CANCELER_ROLE",
      "outputs": [
        {
          "internalType": "bytes32",
          "name": "",
          "type": "bytes32"
        }
      ],
      "stateMutability": "view",
      "type": "function"
    },
    {
      "inputs": [],
      "name": "DEFAULT_ADMIN_ROLE",
      "outputs": [
        {
          "internalType": "bytes32",
          "name": "",
          "type": "bytes32"
        }
      ],
      "stateMutability": "view",
      "type": "function"
    },
    {
      "inputs": [],
      "name": "DESIGNER_ROLE",
      "outputs": [
        {
          "internalType": "bytes32",
          "name": "",
          "type": "bytes32"
        }
      ],
      "stateMutability": "view",
      "type": "function"
    },
    {
      "inputs": [],
      "name": "PAUSER_ROLE",
      "outputs": [
        {
          "internalType": "bytes32",
          "name": "",
          "type": "bytes32"
        }
      ],
      "stateMutability": "view",
      "type": "function"
    },
    {
      "inputs": [],
      "name": "UPGRADER_ROLE",
      "outputs": [
        {
          "internalType": "bytes32",
          "name": "",
          "type": "bytes32"
        }
      ],
      "stateMutability": "view",
      "type": "function"
    },
    {
      "inputs": [],
      "name": "WITHDRAWER_ROLE",
      "outputs": [
        {
          "internalType": "bytes32",
          "name": "",
          "type": "bytes32"
        }
      ],
      "stateMutability": "view",
      "type": "function"
    },
    {
      "inputs": [
        {
          "internalType": "address[]",
          "name": "_addresses",
          "type": "address[]"
        }
      ],
      "name": "addToBacklist",
      "outputs": [],
      "stateMutability": "nonpayable",
      "type": "function"
    },
    {
      "inputs": [],
      "name": "bcoinContract",
      "outputs": [
        {
          "internalType": "contract IERC20",
          "name": "",
          "type": "address"
        }
      ],
      "stateMutability": "view",
      "type": "function"
    },
    {
      "inputs": [
        {
          "internalType": "uint256",
          "name": "_tokenId",
          "type": "uint256"
        },
        {
          "internalType": "uint256",
          "name": "_price",
          "type": "uint256"
        }
      ],
      "name": "buy",
      "outputs": [],
      "stateMutability": "nonpayable",
      "type": "function"
    },
    {
      "inputs": [
        {
          "internalType": "uint256",
          "name": "_tokenId",
          "type": "uint256"
        }
      ],
      "name": "cancelOrder",
      "outputs": [],
      "stateMutability": "nonpayable",
      "type": "function"
    },
    {
      "inputs": [
        {
          "internalType": "uint256",
          "name": "_tokenId",
          "type": "uint256"
        }
      ],
      "name": "cancelOrderWhenPaused",
      "outputs": [],
      "stateMutability": "nonpayable",
      "type": "function"
    },
    {
      "inputs": [
        {
          "internalType": "uint256",
          "name": "taxRate_",
          "type": "uint256"
        },
        {
          "internalType": "uint256",
          "name": "cooldownBeforeCancel_",
          "type": "uint256"
        }
      ],
      "name": "changeSettings",
      "outputs": [],
      "stateMutability": "nonpayable",
      "type": "function"
    },
    {
      "inputs": [],
      "name": "cooldownBeforeCancel",
      "outputs": [
        {
          "internalType": "uint256",
          "name": "",
          "type": "uint256"
        }
      ],
      "stateMutability": "view",
      "type": "function"
    },
    {
      "inputs": [],
      "name": "cooldownByBlockNumber",
      "outputs": [
        {
          "internalType": "uint256",
          "name": "",
          "type": "uint256"
        }
      ],
      "stateMutability": "view",
      "type": "function"
    },
    {
      "inputs": [
        {
          "internalType": "uint256",
          "name": "_tokenId",
          "type": "uint256"
        },
        {
          "internalType": "uint256",
          "name": "_price",
          "type": "uint256"
        },
        {
          "internalType": "address",
          "name": "_tokenAddress",
          "type": "address"
        }
      ],
      "name": "createOrder",
      "outputs": [],
      "stateMutability": "nonpayable",
      "type": "function"
    },
    {
      "inputs": [],
      "name": "dummyDeploy",
      "outputs": [
        {
          "internalType": "uint256",
          "name": "",
          "type": "uint256"
        }
      ],
      "stateMutability": "view",
      "type": "function"
    },
    {
      "inputs": [],
      "name": "getBalance",
      "outputs": [
        {
          "internalType": "uint256",
          "name": "",
          "type": "uint256"
        }
      ],
      "stateMutability": "view",
      "type": "function"
    },
    {
      "inputs": [
        {
          "internalType": "uint256",
          "name": "_tokenId",
          "type": "uint256"
        }
      ],
      "name": "getOrder",
      "outputs": [
        {
          "internalType": "uint256",
          "name": "tokenDetail",
          "type": "uint256"
        },
        {
          "internalType": "address",
          "name": "seller",
          "type": "address"
        },
        {
          "internalType": "uint256",
          "name": "price",
          "type": "uint256"
        },
        {
          "internalType": "uint256",
          "name": "startedAt",
          "type": "uint256"
        }
      ],
      "stateMutability": "view",
      "type": "function"
    },
    {
      "inputs": [
        {
          "internalType": "uint256",
          "name": "_tokenId",
          "type": "uint256"
        }
      ],
      "name": "getOrderV2",
      "outputs": [
        {
          "internalType": "uint256",
          "name": "tokenDetail",
          "type": "uint256"
        },
        {
          "internalType": "address",
          "name": "seller",
          "type": "address"
        },
        {
          "internalType": "uint256",
          "name": "price",
          "type": "uint256"
        },
        {
          "internalType": "uint256",
          "name": "startedAt",
          "type": "uint256"
        },
        {
          "internalType": "address",
          "name": "tokenAddress",
          "type": "address"
        }
      ],
      "stateMutability": "view",
      "type": "function"
    },
    {
      "inputs": [
        {
          "internalType": "bytes32",
          "name": "role",
          "type": "bytes32"
        }
      ],
      "name": "getRoleAdmin",
      "outputs": [
        {
          "internalType": "bytes32",
          "name": "",
          "type": "bytes32"
        }
      ],
      "stateMutability": "view",
      "type": "function"
    },
    {
      "inputs": [
        {
          "internalType": "uint256[]",
          "name": "_tokenId",
          "type": "uint256[]"
        }
      ],
      "name": "getTokenPayList",
      "outputs": [
        {
          "internalType": "address[]",
          "name": "",
          "type": "address[]"
        }
      ],
      "stateMutability": "view",
      "type": "function"
    },
    {
      "inputs": [
        {
          "internalType": "bytes32",
          "name": "role",
          "type": "bytes32"
        },
        {
          "internalType": "address",
          "name": "account",
          "type": "address"
        }
      ],
      "name": "grantRole",
      "outputs": [],
      "stateMutability": "nonpayable",
      "type": "function"
    },
    {
      "inputs": [
        {
          "internalType": "bytes32",
          "name": "role",
          "type": "bytes32"
        },
        {
          "internalType": "address",
          "name": "account",
          "type": "address"
        }
      ],
      "name": "hasRole",
      "outputs": [
        {
          "internalType": "bool",
          "name": "",
          "type": "bool"
        }
      ],
      "stateMutability": "view",
      "type": "function"
    },
    {
      "inputs": [
        {
          "internalType": "address",
          "name": "bcoinCA_",
          "type": "address"
        },
        {
          "internalType": "address",
          "name": "nftCA_",
          "type": "address"
        }
      ],
      "name": "initialize",
      "outputs": [],
      "stateMutability": "nonpayable",
      "type": "function"
    },
    {
      "inputs": [
        {
          "internalType": "address",
          "name": "_address",
          "type": "address"
        }
      ],
      "name": "isBlacklist",
      "outputs": [
        {
          "internalType": "bool",
          "name": "",
          "type": "bool"
        }
      ],
      "stateMutability": "view",
      "type": "function"
    },
    {
      "inputs": [
        {
          "internalType": "uint256",
          "name": "_tokenDetails",
          "type": "uint256"
        },
        {
          "internalType": "uint256",
          "name": "_price",
          "type": "uint256"
        }
      ],
      "name": "isSellable",
      "outputs": [
        {
          "internalType": "bool",
          "name": "",
          "type": "bool"
        }
      ],
      "stateMutability": "view",
      "type": "function"
    },
    {
      "inputs": [],
      "name": "myVersion",
      "outputs": [
        {
          "internalType": "uint64",
          "name": "ver_",
          "type": "uint64"
        }
      ],
      "stateMutability": "pure",
      "type": "function"
    },
    {
      "inputs": [],
      "name": "nftContract",
      "outputs": [
        {
          "internalType": "contract IERC721",
          "name": "",
          "type": "address"
        }
      ],
      "stateMutability": "view",
      "type": "function"
    },
    {
      "inputs": [],
      "name": "pause",
      "outputs": [],
      "stateMutability": "nonpayable",
      "type": "function"
    },
    {
      "inputs": [],
      "name": "paused",
      "outputs": [
        {
          "internalType": "bool",
          "name": "",
          "type": "bool"
        }
      ],
      "stateMutability": "view",
      "type": "function"
    },
    {
      "inputs": [],
      "name": "proxiableUUID",
      "outputs": [
        {
          "internalType": "bytes32",
          "name": "",
          "type": "bytes32"
        }
      ],
      "stateMutability": "view",
      "type": "function"
    },
    {
      "inputs": [
        {
          "internalType": "address[]",
          "name": "_addresses",
          "type": "address[]"
        }
      ],
      "name": "removeFromBacklist",
      "outputs": [],
      "stateMutability": "nonpayable",
      "type": "function"
    },
    {
      "inputs": [
        {
          "internalType": "bytes32",
          "name": "role",
          "type": "bytes32"
        },
        {
          "internalType": "address",
          "name": "account",
          "type": "address"
        }
      ],
      "name": "renounceRole",
      "outputs": [],
      "stateMutability": "nonpayable",
      "type": "function"
    },
    {
      "inputs": [
        {
          "internalType": "bytes32",
          "name": "role",
          "type": "bytes32"
        },
        {
          "internalType": "address",
          "name": "account",
          "type": "address"
        }
      ],
      "name": "revokeRole",
      "outputs": [],
      "stateMutability": "nonpayable",
      "type": "function"
    },
    {
      "inputs": [
        {
          "internalType": "uint256",
          "name": "",
          "type": "uint256"
        }
      ],
      "name": "sellableByRarity",
      "outputs": [
        {
          "internalType": "bool",
          "name": "isSellable",
          "type": "bool"
        },
        {
          "internalType": "uint256",
          "name": "minPrice",
          "type": "uint256"
        }
      ],
      "stateMutability": "view",
      "type": "function"
    },
    {
      "inputs": [
        {
          "internalType": "uint256",
          "name": "_new",
          "type": "uint256"
        }
      ],
      "name": "setCooldownByBlockNumber",
      "outputs": [],
      "stateMutability": "nonpayable",
      "type": "function"
    },
    {
      "inputs": [
        {
          "internalType": "uint256",
          "name": "_rarity",
          "type": "uint256"
        },
        {
          "internalType": "bool",
          "name": "_isSellable",
          "type": "bool"
        },
        {
          "internalType": "uint256",
          "name": "_minPrice",
          "type": "uint256"
        }
      ],
      "name": "setSellableRule",
      "outputs": [],
      "stateMutability": "nonpayable",
      "type": "function"
    },
    {
      "inputs": [
        {
          "internalType": "address[]",
          "name": "value",
          "type": "address[]"
        }
      ],
      "name": "setTokenWhitelist",
      "outputs": [],
      "stateMutability": "nonpayable",
      "type": "function"
    },
    {
      "inputs": [
        {
          "internalType": "bytes4",
          "name": "interfaceId",
          "type": "bytes4"
        }
      ],
      "name": "supportsInterface",
      "outputs": [
        {
          "internalType": "bool",
          "name": "",
          "type": "bool"
        }
      ],
      "stateMutability": "view",
      "type": "function"
    },
    {
      "inputs": [],
      "name": "taxRate",
      "outputs": [
        {
          "internalType": "uint256",
          "name": "",
          "type": "uint256"
        }
      ],
      "stateMutability": "view",
      "type": "function"
    },
    {
      "inputs": [
        {
          "internalType": "address",
          "name": "",
          "type": "address"
        }
      ],
      "name": "tokenWhitelist",
      "outputs": [
        {
          "internalType": "bool",
          "name": "",
          "type": "bool"
        }
      ],
      "stateMutability": "view",
      "type": "function"
    },
    {
      "inputs": [],
      "name": "unpause",
      "outputs": [],
      "stateMutability": "nonpayable",
      "type": "function"
    },
    {
      "inputs": [
        {
          "internalType": "address",
          "name": "newImplementation",
          "type": "address"
        }
      ],
      "name": "upgradeTo",
      "outputs": [],
      "stateMutability": "nonpayable",
      "type": "function"
    },
    {
      "inputs": [
        {
          "internalType": "address",
          "name": "newImplementation",
          "type": "address"
        },
        {
          "internalType": "bytes",
          "name": "data",
          "type": "bytes"
        }
      ],
      "name": "upgradeToAndCall",
      "outputs": [],
      "stateMutability": "payable",
      "type": "function"
    },
    {
      "inputs": [],
      "name": "withdraw",
      "outputs": [],
      "stateMutability": "nonpayable",
      "type": "function"
    },
    {
      "inputs": [
        {
          "internalType": "address",
          "name": "tokenAddress",
          "type": "address"
        }
      ],
      "name": "withdrawV2",
      "outputs": [],
      "stateMutability": "nonpayable",
      "type": "function"
    }
  ],
  "bytecode": "0x60a06040523060805234801561001457600080fd5b506080516138f261004c6000396000818161110a015281816111a0015281816117750152818161180b0152611b6501526138f26000f3fe6080604052600436106103085760003560e01c8063514fcac71161019a578063a217fddf116100e1578063d6febde81161008a578063e63ab1e911610064578063e63ab1e914610977578063f690d973146109ab578063f72c0d8b146109df57600080fd5b8063d6febde8146108f6578063df064ad814610916578063e1ae214b1461094a57600080fd5b8063d09ef241116100bb578063d09ef2411461086e578063d547741f146108b6578063d56d229d146108d657600080fd5b8063a217fddf14610823578063a459f3ae14610838578063cc3e0df61461084e57600080fd5b8063757aa1811161014357806385f438c11161011d57806385f438c11461078957806391d14854146107bd5780639ed36d681461080357600080fd5b8063757aa1811461074a578063771a3a1d1461075e5780638456cb591461077457600080fd5b80635ec9a943116101745780635ec9a943146106d957806373958428146106f9578063753d75631461071957600080fd5b8063514fcac71461068c57806352d1902d146106ac5780635c975abb146106c157600080fd5b80632f2ff15d1161025e5780633f4ba83a116102075780634f1b1086116101e15780634f1b1086146105d85780634f1ef28614610629578063502817361461063c57600080fd5b80633f4ba83a146105835780634665a43f14610598578063485cc955146105b857600080fd5b80633659cfe6116102385780633659cfe61461052e57806336d02c941461054e5780633ccfd60b1461056e57600080fd5b80632f2ff15d146104b5578063333e99db146104d557806336568abe1461050e57600080fd5b806312065fe0116102c0578063248a9ca31161029a578063248a9ca3146104495780632822dc73146104795780632da7ea751461049557600080fd5b806312065fe0146103fe5780631ab0d5671461041357806323b70d761461042957600080fd5b806303a5b1ed116102f157806303a5b1ed1461038457806308b57f31146103a65780630b9a743a146103c657600080fd5b806301ffc9a71461030d57806302d2ff6614610342575b600080fd5b34801561031957600080fd5b5061032d610328366004613286565b610a13565b60405190151581526020015b60405180910390f35b34801561034e57600080fd5b506103767febfdca8e46c0b8dacf9989ee613e35727eadd20a1d5e5ad01a53968c7e5fe07a81565b604051908152602001610339565b34801561039057600080fd5b506103a461039f366004613314565b610a24565b005b3480156103b257600080fd5b506103a46103c136600461336b565b610abd565b3480156103d257600080fd5b506005546103e6906001600160a01b031681565b6040516001600160a01b039091168152602001610339565b34801561040a57600080fd5b50610376610be5565b34801561041f57600080fd5b5061037660025481565b34801561043557600080fd5b506103a4610444366004613388565b610c57565b34801561045557600080fd5b506103766104643660046133c1565b6000908152606d602052604090206001015490565b34801561048557600080fd5b5060405160028152602001610339565b3480156104a157600080fd5b506103a46104b0366004613421565b610fc7565b3480156104c157600080fd5b506103a46104d03660046134d3565b61104f565b3480156104e157600080fd5b5061032d6104f036600461336b565b6001600160a01b031660009081526004602052604090205460ff1690565b34801561051a57600080fd5b506103a46105293660046134d3565b611074565b34801561053a57600080fd5b506103a461054936600461336b565b611100565b34801561055a57600080fd5b506103a4610569366004613503565b61129d565b34801561057a57600080fd5b506103a4611325565b34801561058f57600080fd5b506103a461144c565b3480156105a457600080fd5b506103a46105b3366004613533565b61147e565b3480156105c457600080fd5b506103a46105d336600461356b565b6114e3565b3480156105e457600080fd5b506106126105f33660046133c1565b6003602052600090815260409020805460019091015460ff9091169082565b604080519215158352602083019190915201610339565b6103a4610637366004613599565b61176b565b34801561064857600080fd5b5061065c6106573660046133c1565b6118f5565b604080519586526001600160a01b039485166020870152850192909252606084015216608082015260a001610339565b34801561069857600080fd5b506103a46106a73660046133c1565b61199e565b3480156106b857600080fd5b50610376611b58565b3480156106cd57600080fd5b50609f5460ff1661032d565b3480156106e557600080fd5b506103a46106f4366004613421565b611c1d565b34801561070557600080fd5b506103a46107143660046133c1565b611ca5565b34801561072557600080fd5b5061032d61073436600461336b565b6101366020526000908152604090205460ff1681565b34801561075657600080fd5b506000610376565b34801561076a57600080fd5b5061037660005481565b34801561078057600080fd5b506103a4611cd5565b34801561079557600080fd5b506103767f10dac8c06a04bec0b551627dad28bc00d6516b0caacd1c7b345fcdb5211334e481565b3480156107c957600080fd5b5061032d6107d83660046134d3565b6000918252606d602090815260408084206001600160a01b0393909316845291905290205460ff1690565b34801561080f57600080fd5b5061032d61081e366004613503565b611d07565b34801561082f57600080fd5b50610376600081565b34801561084457600080fd5b5061037660015481565b34801561085a57600080fd5b506103a46108693660046133c1565b611d63565b34801561087a57600080fd5b5061088e6108893660046133c1565b611df4565b604080519485526001600160a01b039093166020850152918301526060820152608001610339565b3480156108c257600080fd5b506103a46108d13660046134d3565b611e8f565b3480156108e257600080fd5b506006546103e6906001600160a01b031681565b34801561090257600080fd5b506103a4610911366004613503565b611eb4565b34801561092257600080fd5b506103767f22c69ab406805e70d07fb1a6502af760601d3b977beadb295a9d76d5852e16a381565b34801561095657600080fd5b5061096a610965366004613314565b611ec6565b6040516103399190613641565b34801561098357600080fd5b506103767f65d7a28e3265b37a6474929f336521b332c1681b933f6cb9f3376673440d862a81565b3480156109b757600080fd5b506103767f8661ae67c9d50f67dbb173ad6369dd93ae94918083bd986295c3ac4e3822f0b881565b3480156109eb57600080fd5b506103767f189ab7a9244df0848122154315af71fe140f3db0fe014031783b0946b8c9d2e381565b6000610a1e82611f94565b92915050565b7f22c69ab406805e70d07fb1a6502af760601d3b977beadb295a9d76d5852e16a3610a4e8161202b565b60005b82811015610ab75760016101366000868685818110610a7257610a7261368e565b9050602002016020810190610a87919061336b565b6001600160a01b031681526020810191909152604001600020805460ff1916911515919091179055600101610a51565b50505050565b7f10dac8c06a04bec0b551627dad28bc00d6516b0caacd1c7b345fcdb5211334e4610ae78161202b565b6040516370a0823160e01b81523060048201526001600160a01b0383169063a9059cbb90339083906370a0823190602401602060405180830381865afa158015610b35573d6000803e3d6000fd5b505050506040513d601f19601f82011682018060405250810190610b5991906136a4565b6040517fffffffff0000000000000000000000000000000000000000000000000000000060e085901b1681526001600160a01b03909216600483015260248201526044016020604051808303816000875af1158015610bbc573d6000803e3d6000fd5b505050506040513d601f19601f82011682018060405250810190610be091906136bd565b505050565b6005546040516370a0823160e01b81523060048201526000916001600160a01b0316906370a0823190602401602060405180830381865afa158015610c2e573d6000803e3d6000fd5b505050506040513d601f19601f82011682018060405250810190610c5291906136a4565b905090565b610c5f612035565b816fffffffffffffffffffffffffffffffff168214610c7d57600080fd5b610c87338461208a565b610cd85760405162461bcd60e51b815260206004820152600d60248201527f4e6f74204e4654206f776e65720000000000000000000000000000000000000060448201526064015b60405180910390fd5b3360009081526004602052604090205460ff1615610d385760405162461bcd60e51b815260206004820152600960248201527f626c61636b6c69737400000000000000000000000000000000000000000000006044820152606401610ccf565b6001600160a01b0381166000908152610136602052604090205460ff16610da15760405162461bcd60e51b815260206004820152601e60248201527f546f6b656e2061646472657373206e6f7420696e2077686974656c69737400006044820152606401610ccf565b6006546040517ffc314e31000000000000000000000000000000000000000000000000000000008152600481018590526000916001600160a01b03169063fc314e3190602401602060405180830381865afa158015610e04573d6000803e3d6000fd5b505050506040513d601f19601f82011682018060405250810190610e2891906136a4565b9050610e348184611d07565b610e805760405162461bcd60e51b815260206004820152601660248201527f6e6f7420706173732073656c6c61626c652072756c65000000000000000000006044820152606401610ccf565b6006546040517fe985e9c50000000000000000000000000000000000000000000000000000000081523360048201523060248201526001600160a01b039091169063e985e9c590604401602060405180830381865afa158015610ee7573d6000803e3d6000fd5b505050506040513d601f19601f82011682018060405250810190610f0b91906136bd565b610f575760405162461bcd60e51b815260206004820152601560248201527f6e6f742079657420617070726f7665466f72416c6c00000000000000000000006044820152606401610ccf565b6040805160a0810182528581523360208083019190915281830186905260608201849052426080830152600087815261013590915291909120805473ffffffffffffffffffffffffffffffffffffffff19166001600160a01b038516179055610fc08582612127565b5050505050565b7f8661ae67c9d50f67dbb173ad6369dd93ae94918083bd986295c3ac4e3822f0b8610ff18161202b565b60005b8251811015610be0576000600460008584815181106110155761101561368e565b6020908102919091018101516001600160a01b03168252810191909152604001600020805460ff1916911515919091179055600101610ff4565b6000828152606d602052604090206001015461106a8161202b565b610be08383612234565b6001600160a01b03811633146110f25760405162461bcd60e51b815260206004820152602f60248201527f416363657373436f6e74726f6c3a2063616e206f6e6c792072656e6f756e636560448201527f20726f6c657320666f722073656c6600000000000000000000000000000000006064820152608401610ccf565b6110fc82826122d6565b5050565b6001600160a01b037f000000000000000000000000000000000000000000000000000000000000000016300361119e5760405162461bcd60e51b815260206004820152602c60248201527f46756e6374696f6e206d7573742062652063616c6c6564207468726f7567682060448201527f64656c656761746563616c6c00000000000000000000000000000000000000006064820152608401610ccf565b7f00000000000000000000000000000000000000000000000000000000000000006001600160a01b03166111f97f360894a13ba1a3210667c828492db98dca3e2076cc3735a920a3ca505d382bbc546001600160a01b031690565b6001600160a01b0316146112755760405162461bcd60e51b815260206004820152602c60248201527f46756e6374696f6e206d7573742062652063616c6c6564207468726f7567682060448201527f6163746976652070726f787900000000000000000000000000000000000000006064820152608401610ccf565b61127e81612359565b6040805160008082526020820190925261129a91839190612383565b50565b7f22c69ab406805e70d07fb1a6502af760601d3b977beadb295a9d76d5852e16a36112c78161202b565b6127108311156113195760405162461bcd60e51b815260206004820181905260248201527f74617852617465206d75737420626520696e2072616e676520302d31303030306044820152606401610ccf565b50600091909155600155565b7f10dac8c06a04bec0b551627dad28bc00d6516b0caacd1c7b345fcdb5211334e461134f8161202b565b6005546040516370a0823160e01b81523060048201526001600160a01b039091169063a9059cbb90339083906370a0823190602401602060405180830381865afa1580156113a1573d6000803e3d6000fd5b505050506040513d601f19601f820116820180604052508101906113c591906136a4565b6040517fffffffff0000000000000000000000000000000000000000000000000000000060e085901b1681526001600160a01b03909216600483015260248201526044016020604051808303816000875af1158015611428573d6000803e3d6000fd5b505050506040513d601f19601f820116820180604052508101906110fc91906136bd565b7f65d7a28e3265b37a6474929f336521b332c1681b933f6cb9f3376673440d862a6114768161202b565b61129a612523565b7f22c69ab406805e70d07fb1a6502af760601d3b977beadb295a9d76d5852e16a36114a88161202b565b50604080518082018252921515835260208084019283526000948552600390529092209051815460ff19169015151781559051600190910155565b600854610100900460ff16158080156115035750600854600160ff909116105b8061151d5750303b15801561151d575060085460ff166001145b61158f5760405162461bcd60e51b815260206004820152602e60248201527f496e697469616c697a61626c653a20636f6e747261637420697320616c72656160448201527f647920696e697469616c697a65640000000000000000000000000000000000006064820152608401610ccf565b6008805460ff1916600117905580156115b2576008805461ff0019166101001790555b6115ba612575565b6115c26125f2565b6115ca612575565b6115d5600033612677565b6115ff7f65d7a28e3265b37a6474929f336521b332c1681b933f6cb9f3376673440d862a33612677565b6116297f10dac8c06a04bec0b551627dad28bc00d6516b0caacd1c7b345fcdb5211334e433612677565b6116537f189ab7a9244df0848122154315af71fe140f3db0fe014031783b0946b8c9d2e333612677565b61167d7f22c69ab406805e70d07fb1a6502af760601d3b977beadb295a9d76d5852e16a333612677565b6116a77f8661ae67c9d50f67dbb173ad6369dd93ae94918083bd986295c3ac4e3822f0b833612677565b6116d17febfdca8e46c0b8dacf9989ee613e35727eadd20a1d5e5ad01a53968c7e5fe07a33612677565b600580546001600160a01b0380861673ffffffffffffffffffffffffffffffffffffffff199283161790925560068054928516929091169190911790556101f4600055600a600155620313806002558015610be0576008805461ff0019169055604051600181527f7f26b83ff96e1f2b6a682f133852f6798a09c465da95921460cefb3847402498906020015b60405180910390a1505050565b6001600160a01b037f00000000000000000000000000000000000000000000000000000000000000001630036118095760405162461bcd60e51b815260206004820152602c60248201527f46756e6374696f6e206d7573742062652063616c6c6564207468726f7567682060448201527f64656c656761746563616c6c00000000000000000000000000000000000000006064820152608401610ccf565b7f00000000000000000000000000000000000000000000000000000000000000006001600160a01b03166118647f360894a13ba1a3210667c828492db98dca3e2076cc3735a920a3ca505d382bbc546001600160a01b031690565b6001600160a01b0316146118e05760405162461bcd60e51b815260206004820152602c60248201527f46756e6374696f6e206d7573742062652063616c6c6564207468726f7567682060448201527f6163746976652070726f787900000000000000000000000000000000000000006064820152608401610ccf565b6118e982612359565b6110fc82826001612383565b60008181526007602052604081206004810154829182918291829161195c5760405162461bcd60e51b815260206004820152601160248201527f6f72646572206e6f7420657869737465640000000000000000000000000000006044820152606401610ccf565b6003810154600182015460028301546004909301546000998a5261013560205260409099205491996001600160a01b0391821699939850929650169350915050565b6119a6612035565b60008181526007602052604090206004810154611a055760405162461bcd60e51b815260206004820152601160248201527f6f72646572206e6f7420657869737465640000000000000000000000000000006044820152606401610ccf565b60018101546001600160a01b031633811480611a4f57503360009081527f53b80d278ab1f8da3f90a9ab59a48d16b0b672d0df1781096c72a6715d78d74a602052604090205460ff165b80611ae657506006546040517f6352211e0000000000000000000000000000000000000000000000000000000081526004810185905233916001600160a01b031690636352211e90602401602060405180830381865afa158015611ab7573d6000803e3d6000fd5b505050506040513d601f19601f82011682018060405250810190611adb91906136da565b6001600160a01b0316145b611aef57600080fd5b426001548360040154611b02919061370d565b10611b4f5760405162461bcd60e51b815260206004820152601d60248201527f636f6f6c646f776e3a206e6f742063616e63656c6c61626c65207965740000006044820152606401610ccf565b610be083612681565b6000306001600160a01b037f00000000000000000000000000000000000000000000000000000000000000001614611bf85760405162461bcd60e51b815260206004820152603860248201527f555550535570677261646561626c653a206d757374206e6f742062652063616c60448201527f6c6564207468726f7567682064656c656761746563616c6c00000000000000006064820152608401610ccf565b507f360894a13ba1a3210667c828492db98dca3e2076cc3735a920a3ca505d382bbc90565b7f8661ae67c9d50f67dbb173ad6369dd93ae94918083bd986295c3ac4e3822f0b8611c478161202b565b60005b8251811015610be057600160046000858481518110611c6b57611c6b61368e565b6020908102919091018101516001600160a01b03168252810191909152604001600020805460ff1916911515919091179055600101611c4a565b7f22c69ab406805e70d07fb1a6502af760601d3b977beadb295a9d76d5852e16a3611ccf8161202b565b50600255565b7f65d7a28e3265b37a6474929f336521b332c1681b933f6cb9f3376673440d862a611cff8161202b565b61129a6126f9565b601f602883901c16600081815260036020526040812090919082611d2a86612736565b825490915060ff168015611d42575081600101548510155b8015611d595750600254611d569043613720565b81105b9695505050505050565b611d6b61275a565b7febfdca8e46c0b8dacf9989ee613e35727eadd20a1d5e5ad01a53968c7e5fe07a611d958161202b565b60008281526007602052604090206004810154611b4f5760405162461bcd60e51b815260206004820152601160248201527f6f72646572206e6f7420657869737465640000000000000000000000000000006044820152606401610ccf565b6000818152600760205260408120819081908190611e158160040154151590565b611e615760405162461bcd60e51b815260206004820152601160248201527f6f72646572206e6f7420657869737465640000000000000000000000000000006044820152606401610ccf565b60038101546001820154600283015460049093015491986001600160a01b0390911697509195509350915050565b6000828152606d6020526040902060010154611eaa8161202b565b610be083836122d6565b611ebc612035565b6110fc82826127ac565b606060008267ffffffffffffffff811115611ee357611ee36133da565b604051908082528060200260200182016040528015611f0c578160200160208202803683370190505b50905060005b83811015611f8c576101356000868684818110611f3157611f3161368e565b90506020020135815260200190815260200160002060009054906101000a90046001600160a01b0316828281518110611f6c57611f6c61368e565b6001600160a01b0390921660209283029190910190910152600101611f12565b509392505050565b60007fffffffff0000000000000000000000000000000000000000000000000000000082167f7965db0b000000000000000000000000000000000000000000000000000000001480610a1e57507f01ffc9a7000000000000000000000000000000000000000000000000000000007fffffffff00000000000000000000000000000000000000000000000000000000831614610a1e565b61129a8133612c75565b609f5460ff16156120885760405162461bcd60e51b815260206004820152601060248201527f5061757361626c653a20706175736564000000000000000000000000000000006044820152606401610ccf565b565b6006546040517f6352211e000000000000000000000000000000000000000000000000000000008152600481018390526000916001600160a01b0385811692911690636352211e90602401602060405180830381865afa1580156120f2573d6000803e3d6000fd5b505050506040513d601f19601f8201168201806040525081019061211691906136da565b6001600160a01b0316149392505050565b60008281526007602052604090206004810154156121875760405162461bcd60e51b815260206004820152600d60248201527f6f726465722065786973746564000000000000000000000000000000000000006044820152606401610ccf565b600083815260076020908152604091829020845181558482015160018201805473ffffffffffffffffffffffffffffffffffffffff19166001600160a01b0390921691821790558584015160028301819055606080880151600385018190556080808a015160049096019590955586518a81529586019290925294840152928201929092527f6ee1eb8a5bd09a76dec365663730674d33e85e267c5f5acdaa8a086b3f089b87910161175e565b6000828152606d602090815260408083206001600160a01b038516845290915290205460ff166110fc576000828152606d602090815260408083206001600160a01b03851684529091529020805460ff191660011790556122923390565b6001600160a01b0316816001600160a01b0316837f2f8788117e7eff1d82e926ec794901d17c78024a50270940304540a733656f0d60405160405180910390a45050565b6000828152606d602090815260408083206001600160a01b038516845290915290205460ff16156110fc576000828152606d602090815260408083206001600160a01b0385168085529252808320805460ff1916905551339285917ff6391f5c32d9c69d2a47ea670b442974b53935d1edc7fd64eb21e047a839171b9190a45050565b7f189ab7a9244df0848122154315af71fe140f3db0fe014031783b0946b8c9d2e36110fc8161202b565b7f4910fdfa16fed3260ed0e7147f7cc6da11a60208b5b9406d12a635614ffd91435460ff16156123b657610be083612cea565b826001600160a01b03166352d1902d6040518163ffffffff1660e01b8152600401602060405180830381865afa925050508015612410575060408051601f3d908101601f1916820190925261240d918101906136a4565b60015b6124825760405162461bcd60e51b815260206004820152602e60248201527f45524331393637557067726164653a206e657720696d706c656d656e7461746960448201527f6f6e206973206e6f7420555550530000000000000000000000000000000000006064820152608401610ccf565b7f360894a13ba1a3210667c828492db98dca3e2076cc3735a920a3ca505d382bbc81146125175760405162461bcd60e51b815260206004820152602960248201527f45524331393637557067726164653a20756e737570706f727465642070726f7860448201527f6961626c655555494400000000000000000000000000000000000000000000006064820152608401610ccf565b50610be0838383612db5565b61252b61275a565b609f805460ff191690557f5db9ee0a495bf2e6ff9c91a7834c1ba4fdd244a5e8aa4e537bd38aeae4b073aa335b6040516001600160a01b03909116815260200160405180910390a1565b600854610100900460ff166120885760405162461bcd60e51b815260206004820152602b60248201527f496e697469616c697a61626c653a20636f6e7472616374206973206e6f74206960448201527f6e697469616c697a696e670000000000000000000000000000000000000000006064820152608401610ccf565b600854610100900460ff1661266f5760405162461bcd60e51b815260206004820152602b60248201527f496e697469616c697a61626c653a20636f6e7472616374206973206e6f74206960448201527f6e697469616c697a696e670000000000000000000000000000000000000000006064820152608401610ccf565b612088612dda565b6110fc8282612234565b600081815260076020526040812081815560018101805473ffffffffffffffffffffffffffffffffffffffff191690556002810182905560038101829055600401556040518181527f935c9ad2f1fda9d7eae0d2a512f1521cb7190ee06165414e722366a65975fb6b9060200160405180910390a150565b612701612035565b609f805460ff191660011790557f62e78cea01bee320cd4e420270b5ea74000d11b0c9f74754ebdbfc544b05a2586125583390565b6000633fffffff604183901c16806127515762e9d0ee612753565b805b9392505050565b609f5460ff166120885760405162461bcd60e51b815260206004820152601460248201527f5061757361626c653a206e6f74207061757365640000000000000000000000006044820152606401610ccf565b6000828152600760205260409020600481015461280b5760405162461bcd60e51b815260206004820152601160248201527f6f72646572206e6f7420657869737465640000000000000000000000000000006044820152606401610ccf565b8060020154821461285e5760405162461bcd60e51b815260206004820152601d60248201527f7072696365206973206e6f74206d617463682077697468206f726465720000006044820152606401610ccf565b600181015460038201546006546040517fe985e9c50000000000000000000000000000000000000000000000000000000081526001600160a01b0393841660048201819052306024830152939091169063e985e9c590604401602060405180830381865afa1580156128d4573d6000803e3d6000fd5b505050506040513d601f19601f820116820180604052508101906128f891906136bd565b6129445760405162461bcd60e51b815260206004820152601560248201527f6e6f742079657420617070726f7665466f72416c6c00000000000000000000006044820152606401610ccf565b600085815260076020526040812081815560018101805473ffffffffffffffffffffffffffffffffffffffff19169055600281018290556003810182905560040155600061299185612e63565b9050600061299f8683612e80565b905060006129ac88612e8c565b905060006001600160a01b0382166129cf576005546001600160a01b03166129d1565b815b6040517f23b872dd000000000000000000000000000000000000000000000000000000008152336004820152306024820152604481018690529091506001600160a01b038216906323b872dd906064016020604051808303816000875af1158015612a40573d6000803e3d6000fd5b505050506040513d601f19601f82011682018060405250810190612a6491906136bd565b612ab05760405162461bcd60e51b815260206004820181905260248201527f6661696c20746f207472616e736665722062636f696e20746f206d61726b65746044820152606401610ccf565b6040517f23b872dd0000000000000000000000000000000000000000000000000000000081523360048201526001600160a01b038781166024830152604482018590528216906323b872dd906064016020604051808303816000875af1158015612b1e573d6000803e3d6000fd5b505050506040513d601f19601f82011682018060405250810190612b4291906136bd565b612b8e5760405162461bcd60e51b815260206004820181905260248201527f6661696c20746f207472616e736665722062636f696e20746f2073656c6c65726044820152606401610ccf565b6006546040517f42842e0e0000000000000000000000000000000000000000000000000000000081526001600160a01b038881166004830152336024830152604482018c9052909116906342842e0e90606401600060405180830381600087803b158015612bfb57600080fd5b505af1158015612c0f573d6000803e3d6000fd5b5050604080518c8152602081018c90529081018890526001600160a01b03891660608201523360808201527f95c89a9d10e4c04e4a14d2a484dba4070c7246be033fdc7797f5eac556eeb469925060a001905060405180910390a1505050505050505050565b6000828152606d602090815260408083206001600160a01b038516845290915290205460ff166110fc57612ca881612ed7565b612cb3836020612ee9565b604051602001612cc4929190613757565b60408051601f198184030181529082905262461bcd60e51b8252610ccf916004016137d8565b6001600160a01b0381163b612d675760405162461bcd60e51b815260206004820152602d60248201527f455243313936373a206e657720696d706c656d656e746174696f6e206973206e60448201527f6f74206120636f6e7472616374000000000000000000000000000000000000006064820152608401610ccf565b7f360894a13ba1a3210667c828492db98dca3e2076cc3735a920a3ca505d382bbc805473ffffffffffffffffffffffffffffffffffffffff19166001600160a01b0392909216919091179055565b612dbe83613112565b600082511180612dcb5750805b15610be057610ab78383613152565b600854610100900460ff16612e575760405162461bcd60e51b815260206004820152602b60248201527f496e697469616c697a61626c653a20636f6e7472616374206973206e6f74206960448201527f6e697469616c697a696e670000000000000000000000000000000000000000006064820152608401610ccf565b609f805460ff19169055565b600061271060005483612e76919061380b565b610a1e9190613822565b60006127538284613720565b600081815261013560205260408120546001600160a01b0316612eba576005546001600160a01b0316610a1e565b50600090815261013560205260409020546001600160a01b031690565b6060610a1e6001600160a01b03831660145b60606000612ef883600261380b565b612f0390600261370d565b67ffffffffffffffff811115612f1b57612f1b6133da565b6040519080825280601f01601f191660200182016040528015612f45576020820181803683370190505b5090507f300000000000000000000000000000000000000000000000000000000000000081600081518110612f7c57612f7c61368e565b60200101907effffffffffffffffffffffffffffffffffffffffffffffffffffffffffffff1916908160001a9053507f780000000000000000000000000000000000000000000000000000000000000081600181518110612fdf57612fdf61368e565b60200101907effffffffffffffffffffffffffffffffffffffffffffffffffffffffffffff1916908160001a905350600061301b84600261380b565b61302690600161370d565b90505b60018111156130c3577f303132333435363738396162636465660000000000000000000000000000000085600f16601081106130675761306761368e565b1a60f81b82828151811061307d5761307d61368e565b60200101907effffffffffffffffffffffffffffffffffffffffffffffffffffffffffffff1916908160001a90535060049490941c936130bc81613844565b9050613029565b5083156127535760405162461bcd60e51b815260206004820181905260248201527f537472696e67733a20686578206c656e67746820696e73756666696369656e746044820152606401610ccf565b61311b81612cea565b6040516001600160a01b038216907fbc7cd75a20ee27fd9adebab32041f755214dbc6bffa90cc0225b39da2e5c2d3b90600090a250565b60606127538383604051806060016040528060278152602001613896602791396060600080856001600160a01b03168560405161318f9190613879565b600060405180830381855af49150503d80600081146131ca576040519150601f19603f3d011682016040523d82523d6000602084013e6131cf565b606091505b5091509150611d59868383876060831561324a578251600003613243576001600160a01b0385163b6132435760405162461bcd60e51b815260206004820152601d60248201527f416464726573733a2063616c6c20746f206e6f6e2d636f6e74726163740000006044820152606401610ccf565b5081613254565b613254838361325c565b949350505050565b81511561326c5781518083602001fd5b8060405162461bcd60e51b8152600401610ccf91906137d8565b60006020828403121561329857600080fd5b81357fffffffff000000000000000000000000000000000000000000000000000000008116811461275357600080fd5b60008083601f8401126132da57600080fd5b50813567ffffffffffffffff8111156132f257600080fd5b6020830191508360208260051b850101111561330d57600080fd5b9250929050565b6000806020838503121561332757600080fd5b823567ffffffffffffffff81111561333e57600080fd5b61334a858286016132c8565b90969095509350505050565b6001600160a01b038116811461129a57600080fd5b60006020828403121561337d57600080fd5b813561275381613356565b60008060006060848603121561339d57600080fd5b833592506020840135915060408401356133b681613356565b809150509250925092565b6000602082840312156133d357600080fd5b5035919050565b634e487b7160e01b600052604160045260246000fd5b604051601f8201601f1916810167ffffffffffffffff81118282101715613419576134196133da565b604052919050565b6000602080838503121561343457600080fd5b823567ffffffffffffffff8082111561344c57600080fd5b818501915085601f83011261346057600080fd5b813581811115613472576134726133da565b8060051b91506134838483016133f0565b818152918301840191848101908884111561349d57600080fd5b938501935b838510156134c757843592506134b783613356565b82825293850193908501906134a2565b98975050505050505050565b600080604083850312156134e657600080fd5b8235915060208301356134f881613356565b809150509250929050565b6000806040838503121561351657600080fd5b50508035926020909101359150565b801515811461129a57600080fd5b60008060006060848603121561354857600080fd5b83359250602084013561355a81613525565b929592945050506040919091013590565b6000806040838503121561357e57600080fd5b823561358981613356565b915060208301356134f881613356565b600080604083850312156135ac57600080fd5b82356135b781613356565b915060208381013567ffffffffffffffff808211156135d557600080fd5b818601915086601f8301126135e957600080fd5b8135818111156135fb576135fb6133da565b61360d84601f19601f840116016133f0565b9150808252878482850101111561362357600080fd5b80848401858401376000848284010152508093505050509250929050565b6020808252825182820181905260009190848201906040850190845b818110156136825783516001600160a01b03168352928401929184019160010161365d565b50909695505050505050565b634e487b7160e01b600052603260045260246000fd5b6000602082840312156136b657600080fd5b5051919050565b6000602082840312156136cf57600080fd5b815161275381613525565b6000602082840312156136ec57600080fd5b815161275381613356565b634e487b7160e01b600052601160045260246000fd5b80820180821115610a1e57610a1e6136f7565b81810381811115610a1e57610a1e6136f7565b60005b8381101561374e578181015183820152602001613736565b50506000910152565b7f416363657373436f6e74726f6c3a206163636f756e742000000000000000000081526000835161378f816017850160208801613733565b7f206973206d697373696e6720726f6c652000000000000000000000000000000060179184019182015283516137cc816028840160208801613733565b01602801949350505050565b60208152600082518060208401526137f7816040850160208701613733565b601f01601f19169190910160400192915050565b8082028115828204841417610a1e57610a1e6136f7565b60008261383f57634e487b7160e01b600052601260045260246000fd5b500490565b600081613853576138536136f7565b507fffffffffffffffffffffffffffffffffffffffffffffffffffffffffffffffff0190565b6000825161388b818460208701613733565b919091019291505056fe416464726573733a206c6f772d6c6576656c2064656c65676174652063616c6c206661696c6564a26469706673582212205bdec1e58722d2a87dc4f9f20ae2351d7cdb7b4770eb1ec5078e99ba8de55e8464736f6c63430008180033",
  "linkReferences": {},
  "deployedLinkReferences": {}
}