{
  "_format": "hh-sol-artifact-1",
  "contractName": "SenStake",
  "sourceName": "contracts/SenStake.sol",
  "abi": [
    {
      "anonymous": false,
      "inputs": [
        {
          "indexed": false,
          "internalType": "address",
          "name": "previousAdmin",
          "type": "address"
        },
        {
          "indexed": false,
          "internalType": "address",
          "name": "newAdmin",
          "type": "address"
        }
      ],
      "name": "AdminChanged",
      "type": "event"
    },
    {
      "anonymous": false,
      "inputs": [
        {
          "indexed": true,
          "internalType": "address",
          "name": "beacon",
          "type": "address"
        }
      ],
      "name": "BeaconUpgraded",
      "type": "event"
    },
    {
      "anonymous": false,
      "inputs": [
        {
          "indexed": true,
          "internalType": "address",
          "name": "user",
          "type": "address"
        },
        {
          "indexed": false,
          "internalType": "uint256",
          "name": "reward",
          "type": "uint256"
        }
      ],
      "name": "GetReward",
      "type": "event"
    },
    {
      "anonymous": false,
      "inputs": [
        {
          "indexed": false,
          "internalType": "uint8",
          "name": "version",
          "type": "uint8"
        }
      ],
      "name": "Initialized",
      "type": "event"
    },
    {
      "anonymous": false,
      "inputs": [
        {
          "indexed": true,
          "internalType": "address",
          "name": "user",
          "type": "address"
        },
        {
          "indexed": false,
          "internalType": "uint256",
          "name": "reward",
          "type": "uint256"
        }
      ],
      "name": "RestakeReward",
      "type": "event"
    },
    {
      "anonymous": false,
      "inputs": [
        {
          "indexed": true,
          "internalType": "bytes32",
          "name": "role",
          "type": "bytes32"
        },
        {
          "indexed": true,
          "internalType": "bytes32",
          "name": "previousAdminRole",
          "type": "bytes32"
        },
        {
          "indexed": true,
          "internalType": "bytes32",
          "name": "newAdminRole",
          "type": "bytes32"
        }
      ],
      "name": "RoleAdminChanged",
      "type": "event"
    },
    {
      "anonymous": false,
      "inputs": [
        {
          "indexed": true,
          "internalType": "bytes32",
          "name": "role",
          "type": "bytes32"
        },
        {
          "indexed": true,
          "internalType": "address",
          "name": "account",
          "type": "address"
        },
        {
          "indexed": true,
          "internalType": "address",
          "name": "sender",
          "type": "address"
        }
      ],
      "name": "RoleGranted",
      "type": "event"
    },
    {
      "anonymous": false,
      "inputs": [
        {
          "indexed": true,
          "internalType": "bytes32",
          "name": "role",
          "type": "bytes32"
        },
        {
          "indexed": true,
          "internalType": "address",
          "name": "account",
          "type": "address"
        },
        {
          "indexed": true,
          "internalType": "address",
          "name": "sender",
          "type": "address"
        }
      ],
      "name": "RoleRevoked",
      "type": "event"
    },
    {
      "anonymous": false,
      "inputs": [
        {
          "indexed": true,
          "internalType": "address",
          "name": "user",
          "type": "address"
        },
        {
          "indexed": false,
          "internalType": "uint256",
          "name": "amount",
          "type": "uint256"
        }
      ],
      "name": "Stake",
      "type": "event"
    },
    {
      "anonymous": false,
      "inputs": [
        {
          "indexed": true,
          "internalType": "address",
          "name": "user",
          "type": "address"
        },
        {
          "indexed": false,
          "internalType": "uint256",
          "name": "amount",
          "type": "uint256"
        }
      ],
      "name": "Unstake",
      "type": "event"
    },
    {
      "anonymous": false,
      "inputs": [
        {
          "indexed": true,
          "internalType": "address",
          "name": "implementation",
          "type": "address"
        }
      ],
      "name": "Upgraded",
      "type": "event"
    },
    {
      "anonymous": false,
      "inputs": [
        {
          "indexed": true,
          "internalType": "address",
          "name": "user",
          "type": "address"
        },
        {
          "indexed": false,
          "internalType": "uint256",
          "name": "amount",
          "type": "uint256"
        }
      ],
      "name": "Withdraw",
      "type": "event"
    },
    {
      "inputs": [],
      "name": "DEFAULT_ADMIN_ROLE",
      "outputs": [
        {
          "internalType": "bytes32",
          "name": "",
          "type": "bytes32"
        }
      ],
      "stateMutability": "view",
      "type": "function"
    },
    {
      "inputs": [],
      "name": "UPGRADER_ROLE",
      "outputs": [
        {
          "internalType": "bytes32",
          "name": "",
          "type": "bytes32"
        }
      ],
      "stateMutability": "view",
      "type": "function"
    },
    {
      "inputs": [
        {
          "internalType": "address",
          "name": "_account",
          "type": "address"
        }
      ],
      "name": "earned",
      "outputs": [
        {
          "internalType": "uint256",
          "name": "",
          "type": "uint256"
        }
      ],
      "stateMutability": "view",
      "type": "function"
    },
    {
      "inputs": [],
      "name": "getDailyRewards",
      "outputs": [
        {
          "internalType": "uint256",
          "name": "",
          "type": "uint256"
        }
      ],
      "stateMutability": "view",
      "type": "function"
    },
    {
      "inputs": [
        {
          "internalType": "address",
          "name": "_account",
          "type": "address"
        }
      ],
      "name": "getMyFee",
      "outputs": [
        {
          "internalType": "uint256",
          "name": "",
          "type": "uint256"
        }
      ],
      "stateMutability": "view",
      "type": "function"
    },
    {
      "inputs": [
        {
          "internalType": "address",
          "name": "_account",
          "type": "address"
        }
      ],
      "name": "getMyProfit",
      "outputs": [
        {
          "internalType": "uint256",
          "name": "",
          "type": "uint256"
        }
      ],
      "stateMutability": "view",
      "type": "function"
    },
    {
      "inputs": [
        {
          "internalType": "address",
          "name": "_account",
          "type": "address"
        }
      ],
      "name": "getMyStaked",
      "outputs": [
        {
          "internalType": "uint256",
          "name": "",
          "type": "uint256"
        }
      ],
      "stateMutability": "view",
      "type": "function"
    },
    {
      "inputs": [
        {
          "internalType": "address",
          "name": "_account",
          "type": "address"
        }
      ],
      "name": "getMyTimeStake",
      "outputs": [
        {
          "internalType": "uint256",
          "name": "",
          "type": "uint256"
        }
      ],
      "stateMutability": "view",
      "type": "function"
    },
    {
      "inputs": [],
      "name": "getPercentAPR",
      "outputs": [
        {
          "internalType": "uint256",
          "name": "",
          "type": "uint256"
        }
      ],
      "stateMutability": "view",
      "type": "function"
    },
    {
      "inputs": [],
      "name": "getReward",
      "outputs": [],
      "stateMutability": "nonpayable",
      "type": "function"
    },
    {
      "inputs": [
        {
          "internalType": "bytes32",
          "name": "role",
          "type": "bytes32"
        }
      ],
      "name": "getRoleAdmin",
      "outputs": [
        {
          "internalType": "bytes32",
          "name": "",
          "type": "bytes32"
        }
      ],
      "stateMutability": "view",
      "type": "function"
    },
    {
      "inputs": [],
      "name": "getTimeStart",
      "outputs": [
        {
          "internalType": "uint256",
          "name": "",
          "type": "uint256"
        }
      ],
      "stateMutability": "view",
      "type": "function"
    },
    {
      "inputs": [],
      "name": "getTokenUnlock",
      "outputs": [
        {
          "internalType": "uint256",
          "name": "",
          "type": "uint256"
        }
      ],
      "stateMutability": "view",
      "type": "function"
    },
    {
      "inputs": [],
      "name": "getTotalStaked",
      "outputs": [
        {
          "internalType": "uint256",
          "name": "",
          "type": "uint256"
        }
      ],
      "stateMutability": "view",
      "type": "function"
    },
    {
      "inputs": [
        {
          "internalType": "address",
          "name": "_account",
          "type": "address"
        }
      ],
      "name": "getWithdrawFeeByUser",
      "outputs": [
        {
          "internalType": "uint256",
          "name": "",
          "type": "uint256"
        }
      ],
      "stateMutability": "view",
      "type": "function"
    },
    {
      "inputs": [
        {
          "internalType": "bytes32",
          "name": "role",
          "type": "bytes32"
        },
        {
          "internalType": "address",
          "name": "account",
          "type": "address"
        }
      ],
      "name": "grantRole",
      "outputs": [],
      "stateMutability": "nonpayable",
      "type": "function"
    },
    {
      "inputs": [
        {
          "internalType": "bytes32",
          "name": "role",
          "type": "bytes32"
        },
        {
          "internalType": "address",
          "name": "account",
          "type": "address"
        }
      ],
      "name": "hasRole",
      "outputs": [
        {
          "internalType": "bool",
          "name": "",
          "type": "bool"
        }
      ],
      "stateMutability": "view",
      "type": "function"
    },
    {
      "inputs": [
        {
          "internalType": "contract IERC20Upgradeable",
          "name": "_stakingToken",
          "type": "address"
        },
        {
          "internalType": "contract IERC20Upgradeable",
          "name": "_rewardsToken",
          "type": "address"
        }
      ],
      "name": "initialize",
      "outputs": [],
      "stateMutability": "nonpayable",
      "type": "function"
    },
    {
      "inputs": [],
      "name": "lastUpdateTime",
      "outputs": [
        {
          "internalType": "uint256",
          "name": "",
          "type": "uint256"
        }
      ],
      "stateMutability": "view",
      "type": "function"
    },
    {
      "inputs": [],
      "name": "proxiableUUID",
      "outputs": [
        {
          "internalType": "bytes32",
          "name": "",
          "type": "bytes32"
        }
      ],
      "stateMutability": "view",
      "type": "function"
    },
    {
      "inputs": [
        {
          "internalType": "bytes32",
          "name": "role",
          "type": "bytes32"
        },
        {
          "internalType": "address",
          "name": "account",
          "type": "address"
        }
      ],
      "name": "renounceRole",
      "outputs": [],
      "stateMutability": "nonpayable",
      "type": "function"
    },
    {
      "inputs": [],
      "name": "restakeReward",
      "outputs": [],
      "stateMutability": "nonpayable",
      "type": "function"
    },
    {
      "inputs": [
        {
          "internalType": "bytes32",
          "name": "role",
          "type": "bytes32"
        },
        {
          "internalType": "address",
          "name": "account",
          "type": "address"
        }
      ],
      "name": "revokeRole",
      "outputs": [],
      "stateMutability": "nonpayable",
      "type": "function"
    },
    {
      "inputs": [],
      "name": "rewardPerToken",
      "outputs": [
        {
          "internalType": "uint256",
          "name": "",
          "type": "uint256"
        }
      ],
      "stateMutability": "view",
      "type": "function"
    },
    {
      "inputs": [],
      "name": "rewardPerTokenByDay",
      "outputs": [
        {
          "internalType": "uint256",
          "name": "",
          "type": "uint256"
        }
      ],
      "stateMutability": "view",
      "type": "function"
    },
    {
      "inputs": [],
      "name": "rewardPerTokenBySecond",
      "outputs": [
        {
          "internalType": "uint256",
          "name": "",
          "type": "uint256"
        }
      ],
      "stateMutability": "view",
      "type": "function"
    },
    {
      "inputs": [],
      "name": "rewardPerTokenStored",
      "outputs": [
        {
          "internalType": "uint256",
          "name": "",
          "type": "uint256"
        }
      ],
      "stateMutability": "view",
      "type": "function"
    },
    {
      "inputs": [],
      "name": "rewardsToken",
      "outputs": [
        {
          "internalType": "contract IERC20Upgradeable",
          "name": "",
          "type": "address"
        }
      ],
      "stateMutability": "view",
      "type": "function"
    },
    {
      "inputs": [
        {
          "internalType": "address[]",
          "name": "_stakeVsReward",
          "type": "address[]"
        }
      ],
      "name": "setTokenStaking",
      "outputs": [],
      "stateMutability": "nonpayable",
      "type": "function"
    },
    {
      "inputs": [
        {
          "internalType": "uint256",
          "name": "_amount",
          "type": "uint256"
        }
      ],
      "name": "stake",
      "outputs": [],
      "stateMutability": "nonpayable",
      "type": "function"
    },
    {
      "inputs": [],
      "name": "stakingToken",
      "outputs": [
        {
          "internalType": "contract IERC20Upgradeable",
          "name": "",
          "type": "address"
        }
      ],
      "stateMutability": "view",
      "type": "function"
    },
    {
      "inputs": [
        {
          "internalType": "bytes4",
          "name": "interfaceId",
          "type": "bytes4"
        }
      ],
      "name": "supportsInterface",
      "outputs": [
        {
          "internalType": "bool",
          "name": "",
          "type": "bool"
        }
      ],
      "stateMutability": "view",
      "type": "function"
    },
    {
      "inputs": [],
      "name": "unstake",
      "outputs": [],
      "stateMutability": "nonpayable",
      "type": "function"
    },
    {
      "inputs": [
        {
          "internalType": "uint256[]",
          "name": "_newTokenUnlock",
          "type": "uint256[]"
        }
      ],
      "name": "updateTokenUnlock",
      "outputs": [],
      "stateMutability": "nonpayable",
      "type": "function"
    },
    {
      "inputs": [
        {
          "internalType": "address",
          "name": "newImplementation",
          "type": "address"
        }
      ],
      "name": "upgradeTo",
      "outputs": [],
      "stateMutability": "nonpayable",
      "type": "function"
    },
    {
      "inputs": [
        {
          "internalType": "address",
          "name": "newImplementation",
          "type": "address"
        },
        {
          "internalType": "bytes",
          "name": "data",
          "type": "bytes"
        }
      ],
      "name": "upgradeToAndCall",
      "outputs": [],
      "stateMutability": "payable",
      "type": "function"
    },
    {
      "inputs": [
        {
          "internalType": "uint256",
          "name": "_amount",
          "type": "uint256"
        }
      ],
      "name": "withdraw",
      "outputs": [],
      "stateMutability": "nonpayable",
      "type": "function"
    },
    {
      "inputs": [],
      "name": "withdrawToken",
      "outputs": [],
      "stateMutability": "nonpayable",
      "type": "function"
    }
  ],
  "bytecode": "0x60a06040523060805234801561001457600080fd5b50608051612ece61004c60003960008181610d9901528181610e2f015281816112f60152818161138c01526114830152612ece6000f3fe6080604052600436106102845760003560e01c80638b915c2511610153578063b54e386c116100cb578063d547741f1161007f578063f72c0d8b11610064578063f72c0d8b146106bc578063fe45583e146106f0578063ff28b8271461072a57600080fd5b8063d547741f14610686578063df136d65146106a657600080fd5b8063ca628c78116100b0578063ca628c781461063c578063cd3daf9d14610651578063d1af0c7d1461066657600080fd5b8063b54e386c14610611578063c8f33c911461062657600080fd5b8063a217fddf11610122578063a694fc3a11610107578063a694fc3a146105bc578063b0a4aa5d146105dc578063b45a4269146105fc57600080fd5b8063a217fddf14610592578063a32f0dfa146105a757600080fd5b80638b915c25146104f657806391d148541461050c5780639f0441d514610552578063a2103bd01461057257600080fd5b806331fae269116102015780634f1ef286116101b5578063685270081161019a578063685270081461048957806372f702f31461049e57806378e88c3c146104d657600080fd5b80634f1ef2861461046157806352d1902d1461047457600080fd5b80633659cfe6116101e65780633659cfe61461040c5780633d18b9121461042c578063485cc9551461044157600080fd5b806331fae269146103b257806336568abe146103ec57600080fd5b8063248a9ca3116102585780632def66201161023d5780632def66201461035b5780632e1a7d4d146103725780632f2ff15d1461039257600080fd5b8063248a9ca3146103165780632abc51901461034657600080fd5b80628cc2621461028957806301ffc9a7146102bc5780630715a8b9146102ec5780630917e77614610301575b600080fd5b34801561029557600080fd5b506102a96102a436600461297f565b61074a565b6040519081526020015b60405180910390f35b3480156102c857600080fd5b506102dc6102d736600461299c565b6107c8565b60405190151581526020016102b3565b3480156102f857600080fd5b506102a961085f565b34801561030d57600080fd5b5060fd546102a9565b34801561032257600080fd5b506102a96103313660046129de565b60009081526065602052604090206001015490565b34801561035257600080fd5b506102a9610885565b34801561036757600080fd5b506103706108e3565b005b34801561037e57600080fd5b5061037061038d3660046129de565b610abd565b34801561039e57600080fd5b506103706103ad3660046129f7565b610cd9565b3480156103be57600080fd5b506102a96103cd36600461297f565b6001600160a01b03166000908152610100602052604090206002015490565b3480156103f857600080fd5b506103706104073660046129f7565b610d03565b34801561041857600080fd5b5061037061042736600461297f565b610d8f565b34801561043857600080fd5b50610370610f2c565b34801561044d57600080fd5b5061037061045c366004612a27565b610fdc565b61037061046f366004612a9c565b6112ec565b34801561048057600080fd5b506102a9611476565b34801561049557600080fd5b506102a961153b565b3480156104aa57600080fd5b5060fc546104be906001600160a01b031681565b6040516001600160a01b0390911681526020016102b3565b3480156104e257600080fd5b506102a96104f136600461297f565b61155b565b34801561050257600080fd5b50610101546102a9565b34801561051857600080fd5b506102dc6105273660046129f7565b60009182526065602090815260408084206001600160a01b0393909316845291905290205460ff1690565b34801561055e57600080fd5b5061037061056d366004612b68565b6115a8565b34801561057e57600080fd5b506102a961058d36600461297f565b6115c7565b34801561059e57600080fd5b506102a9600081565b3480156105b357600080fd5b506102a961160b565b3480156105c857600080fd5b506103706105d73660046129de565b61163c565b3480156105e857600080fd5b506103706105f7366004612bf3565b611943565b34801561060857600080fd5b506102a9611a25565b34801561061d57600080fd5b50610370611ab6565b34801561063257600080fd5b506102a960fe5481565b34801561064857600080fd5b50610370611b69565b34801561065d57600080fd5b506102a9611bf9565b34801561067257600080fd5b5060fb546104be906001600160a01b031681565b34801561069257600080fd5b506103706106a13660046129f7565b611c38565b3480156106b257600080fd5b506102a960ff5481565b3480156106c857600080fd5b506102a97f189ab7a9244df0848122154315af71fe140f3db0fe014031783b0946b8c9d2e381565b3480156106fc57600080fd5b506102a961070b36600461297f565b6001600160a01b03166000908152610100602052604090206001015490565b34801561073657600080fd5b506102a961074536600461297f565b611c5d565b6001600160a01b0381166000908152610100602052604081208054600390910154670de0b6b3a76400009061077d611bf9565b6107879190612c98565b6001600160a01b038516600090815261010060205260409020600101546107ae9190612cab565b6107b89190612cc2565b6107c29190612ce4565b92915050565b60007fffffffff0000000000000000000000000000000000000000000000000000000082167f7965db0b0000000000000000000000000000000000000000000000000000000014806107c257507f01ffc9a7000000000000000000000000000000000000000000000000000000007fffffffff000000000000000000000000000000000000000000000000000000008316146107c2565b600061086961160b565b6108759061016d612cab565b610880906064612cab565b905090565b600060fd546000036108975750600090565b610e106018601e60fd546108a9611a25565b6108bb90670de0b6b3a7640000612cab565b6108c59190612cc2565b6108cf9190612cc2565b6108d99190612cc2565b6108809190612cc2565b336108ec611bf9565b60ff554260fe556108fc8161074a565b6001600160a01b03821660009081526101006020526040812091825560ff5460039092019190915561092d3361155b565b336000908152610100602052604081208054600190910154929350918290610956908590612c98565b6109609190612ce4565b60fc546040516370a0823160e01b81523060048201529192506001600160a01b0316906370a0823190602401602060405180830381865afa1580156109a9573d6000803e3d6000fd5b505050506040513d601f19601f820116820180604052508101906109cd9190612cf7565b811115610a215760405162461bcd60e51b815260206004820181905260248201527f4e6f7420656e6f75676820746f6b656e7320696e20746865207265736572766560448201526064015b60405180910390fd5b336000908152610100602052604081206001015460fd805491929091610a48908490612c98565b909155505060fc54610a64906001600160a01b03163383611cfa565b336000818152610100602052604080822082815560010191909155517f85082129d87b2fe11527cb1b3b7a520aeb5aa6913f88a3d8757fe40d1db02fdd90610aaf9084815260200190565b60405180910390a250505050565b33610ac6611bf9565b60ff554260fe55610ad68161074a565b6001600160a01b0382166000908152610100602052604080822092835560ff546003909301929092553381522060010154821115610b565760405162461bcd60e51b815260206004820152601160248201527f416d6f756e74203c3d2062616c616e63650000000000000000000000000000006044820152606401610a18565b60fc546040516370a0823160e01b81523060048201526001600160a01b03909116906370a0823190602401602060405180830381865afa158015610b9e573d6000803e3d6000fd5b505050506040513d601f19601f82011682018060405250810190610bc29190612cf7565b821115610c115760405162461bcd60e51b815260206004820181905260248201527f4e6f7420656e6f75676820746f6b656e7320696e2074686520726573657276656044820152606401610a18565b6000610c1c33611c5d565b905060006064610c2c8386612cab565b610c369190612cc2565b90506000610c448286612c98565b60fc54909150610c5e906001600160a01b03163383611cfa565b8460fd6000828254610c709190612c98565b9091555050336000908152610100602052604081206001018054879290610c98908490612c98565b909155505060405185815233907f884edad9ce6fa2440d8a54cc123490eb96d2768479d49ff9c7366125a94243649060200160405180910390a25050505050565b600082815260656020526040902060010154610cf481611da3565b610cfe8383611dad565b505050565b6001600160a01b0381163314610d815760405162461bcd60e51b815260206004820152602f60248201527f416363657373436f6e74726f6c3a2063616e206f6e6c792072656e6f756e636560448201527f20726f6c657320666f722073656c6600000000000000000000000000000000006064820152608401610a18565b610d8b8282611e4f565b5050565b6001600160a01b037f0000000000000000000000000000000000000000000000000000000000000000163003610e2d5760405162461bcd60e51b815260206004820152602c60248201527f46756e6374696f6e206d7573742062652063616c6c6564207468726f7567682060448201527f64656c656761746563616c6c00000000000000000000000000000000000000006064820152608401610a18565b7f00000000000000000000000000000000000000000000000000000000000000006001600160a01b0316610e887f360894a13ba1a3210667c828492db98dca3e2076cc3735a920a3ca505d382bbc546001600160a01b031690565b6001600160a01b031614610f045760405162461bcd60e51b815260206004820152602c60248201527f46756e6374696f6e206d7573742062652063616c6c6564207468726f7567682060448201527f6163746976652070726f787900000000000000000000000000000000000000006064820152608401610a18565b610f0d81611ed2565b60408051600080825260208201909252610f2991839190611efc565b50565b33610f35611bf9565b60ff554260fe55610f458161074a565b6001600160a01b038083166000908152610100602052604080822093845560ff54600390940193909355338082529290205460fb549092610f8b92919091169083611cfa565b336000818152610100602052604080822091909155517f25c30c62c42b51e4f667b70ef60f1f683c376f6ace28312ed45a40665e01af3790610fd09084815260200190565b60405180910390a25050565b600054610100900460ff1615808015610ffc5750600054600160ff909116105b806110165750303b158015611016575060005460ff166001145b6110885760405162461bcd60e51b815260206004820152602e60248201527f496e697469616c697a61626c653a20636f6e747261637420697320616c72656160448201527f647920696e697469616c697a65640000000000000000000000000000000000006064820152608401610a18565b6000805460ff1916600117905580156110ab576000805461ff0019166101001790555b6110b361209c565b6110bb61209c565b6110c6600033611dad565b6110f07f189ab7a9244df0848122154315af71fe140f3db0fe014031783b0946b8c9d2e333611dad565b60fc80546001600160a01b038086167fffffffffffffffffffffffff00000000000000000000000000000000000000009283161790925560fb80549285169290911691909117905542610101556040805161030081018252620493e080825260208201819052918101829052606081018290526080810182905260a0810182905260c0810182905260e08101829052610100810182905261012081018290526101408101829052610160810182905261018081018290526101a081018290526101c081018290526101e08101829052610200810182905261022081018290526102408101829052610260810182905261028081018290526102a081018290526102c081018290526102e081019190915261120f90610102906018612888565b506040805161020081018252600f8152600e6020820152600d91810191909152600c6060820152600b6080820152600a60a0820152600960c0820152600860e08201526007610100820152600661012082015260056101408201526004610160820152600361018082015260026101a082015260016101c082015260006101e08201526112a1906101039060106128da565b508015610cfe576000805461ff0019169055604051600181527f7f26b83ff96e1f2b6a682f133852f6798a09c465da95921460cefb38474024989060200160405180910390a1505050565b6001600160a01b037f000000000000000000000000000000000000000000000000000000000000000016300361138a5760405162461bcd60e51b815260206004820152602c60248201527f46756e6374696f6e206d7573742062652063616c6c6564207468726f7567682060448201527f64656c656761746563616c6c00000000000000000000000000000000000000006064820152608401610a18565b7f00000000000000000000000000000000000000000000000000000000000000006001600160a01b03166113e57f360894a13ba1a3210667c828492db98dca3e2076cc3735a920a3ca505d382bbc546001600160a01b031690565b6001600160a01b0316146114615760405162461bcd60e51b815260206004820152602c60248201527f46756e6374696f6e206d7573742062652063616c6c6564207468726f7567682060448201527f6163746976652070726f787900000000000000000000000000000000000000006064820152608401610a18565b61146a82611ed2565b610d8b82826001611efc565b6000306001600160a01b037f000000000000000000000000000000000000000000000000000000000000000016146115165760405162461bcd60e51b815260206004820152603860248201527f555550535570677261646561626c653a206d757374206e6f742062652063616c60448201527f6c6564207468726f7567682064656c656761746563616c6c00000000000000006064820152608401610a18565b507f360894a13ba1a3210667c828492db98dca3e2076cc3735a920a3ca505d382bbc90565b6000670de0b6b3a764000060fd5461155161160b565b6108d99190612cab565b60008061156783611c5d565b6001600160a01b0384166000908152610100602052604081206001015491925090606490611596908490612cab565b6115a09190612cc2565b949350505050565b60006115b381611da3565b8151610cfe9061010290602085019061291a565b6000670de0b6b3a76400006115da61160b565b6001600160a01b038416600090815261010060205260409020600101546116019190612cab565b6107c29190612cc2565b600060fd5460000361161d5750600090565b601e60fd5461162a611a25565b6108cf90670de0b6b3a7640000612cab565b33611645611bf9565b60ff554260fe556116558161074a565b6001600160a01b0382166000908152610100602052604080822092835560ff546003909301929092553381529081206001015490036116e757680ad78ebc5ac62000008210156116e75760405162461bcd60e51b815260206004820152600c60248201527f416d6f756e74203c2032303000000000000000000000000000000000000000006044820152606401610a18565b60fc546040516370a0823160e01b81523360048201526001600160a01b03909116906370a0823190602401602060405180830381865afa15801561172f573d6000803e3d6000fd5b505050506040513d601f19601f820116820180604052508101906117539190612cf7565b8211156117a25760405162461bcd60e51b815260206004820152600e60248201527f496e76616c696420616d6f756e740000000000000000000000000000000000006044820152606401610a18565b60fc546040517fdd62ed3e0000000000000000000000000000000000000000000000000000000081523360048201523060248201526000916001600160a01b03169063dd62ed3e90604401602060405180830381865afa15801561180a573d6000803e3d6000fd5b505050506040513d601f19601f8201168201806040525081019061182e9190612cf7565b9050828110156118805760405162461bcd60e51b815260206004820152601960248201527f436865636b2074686520746f6b656e20616c6c6f77616e6365000000000000006044820152606401610a18565b336000908152610100602052604081206001015490036118b25733600090815261010060205260409020426002909101555b60fc546118ca906001600160a01b031633308661211b565b8260fd60008282546118dc9190612ce4565b9091555050336000908152610100602052604081206001018054859290611904908490612ce4565b909155505060405183815233907febedb8b3c678666e7f36970bc8f57abf6d8fa2e828c0da91ea5b75bf68ed101a9060200160405180910390a2505050565b600061194e81611da3565b815160021461199f5760405162461bcd60e51b815260206004820152601160248201527f5365742076616c756520696e76616c69640000000000000000000000000000006044820152606401610a18565b816000815181106119b2576119b2612d10565b602002602001015160fc60006101000a8154816001600160a01b0302191690836001600160a01b03160217905550816001815181106119f3576119f3612d10565b602002602001015160fb60006101000a8154816001600160a01b0302191690836001600160a01b031602179055505050565b60008042905060006018610e106101015484611a419190612c98565b611a4b9190612cc2565b611a559190612cc2565b90506000611a64601e83612cc2565b61010254909150811015611aac576101028181548110611a8657611a86612d10565b9060005260206000200154670de0b6b3a7640000611aa49190612cab565b935050505090565b6000935050505090565b33611abf611bf9565b60ff554260fe55611acf8161074a565b6001600160a01b0382166000908152610100602052604080822092835560ff5460039093019290925533815290812080548282556001909101805491928392611b19908490612ce4565b925050819055508060fd6000828254611b329190612ce4565b909155505060405181815233907f0579d728f0590feccc4760da42b3628fd0489e8dcb741007ec4d0b9bb427cf0990602001610fd0565b6000611b7481611da3565b60fc546040516370a0823160e01b8152306004820152610f299133916001600160a01b03909116906370a0823190602401602060405180830381865afa158015611bc2573d6000803e3d6000fd5b505050506040513d601f19601f82011682018060405250810190611be69190612cf7565b60fc546001600160a01b03169190611cfa565b600060fd54600003611c0c575060ff5490565b611c14610885565b60fe54611c219042612c98565b611c2b9190612cab565b60ff546108809190612ce4565b600082815260656020526040902060010154611c5381611da3565b610cfe8383611e4f565b6001600160a01b0381166000908152610100602052604081206002015442908290601890610e1090611c8f9085612c98565b611c999190612cc2565b611ca39190612cc2565b905060008115611cbb57611cb8600183612c98565b90505b61010354811015611cef576101038181548110611cda57611cda612d10565b90600052602060002001549350505050919050565b506000949350505050565b6040516001600160a01b038316602482015260448101829052610cfe9084907fa9059cbb00000000000000000000000000000000000000000000000000000000906064015b60408051601f198184030181529190526020810180517bffffffffffffffffffffffffffffffffffffffffffffffffffffffff167fffffffff0000000000000000000000000000000000000000000000000000000090931692909217909152612172565b610f29813361225a565b60008281526065602090815260408083206001600160a01b038516845290915290205460ff16610d8b5760008281526065602090815260408083206001600160a01b03851684529091529020805460ff19166001179055611e0b3390565b6001600160a01b0316816001600160a01b0316837f2f8788117e7eff1d82e926ec794901d17c78024a50270940304540a733656f0d60405160405180910390a45050565b60008281526065602090815260408083206001600160a01b038516845290915290205460ff1615610d8b5760008281526065602090815260408083206001600160a01b0385168085529252808320805460ff1916905551339285917ff6391f5c32d9c69d2a47ea670b442974b53935d1edc7fd64eb21e047a839171b9190a45050565b7f189ab7a9244df0848122154315af71fe140f3db0fe014031783b0946b8c9d2e3610d8b81611da3565b7f4910fdfa16fed3260ed0e7147f7cc6da11a60208b5b9406d12a635614ffd91435460ff1615611f2f57610cfe836122cf565b826001600160a01b03166352d1902d6040518163ffffffff1660e01b8152600401602060405180830381865afa925050508015611f89575060408051601f3d908101601f19168201909252611f8691810190612cf7565b60015b611ffb5760405162461bcd60e51b815260206004820152602e60248201527f45524331393637557067726164653a206e657720696d706c656d656e7461746960448201527f6f6e206973206e6f7420555550530000000000000000000000000000000000006064820152608401610a18565b7f360894a13ba1a3210667c828492db98dca3e2076cc3735a920a3ca505d382bbc81146120905760405162461bcd60e51b815260206004820152602960248201527f45524331393637557067726164653a20756e737570706f727465642070726f7860448201527f6961626c655555494400000000000000000000000000000000000000000000006064820152608401610a18565b50610cfe8383836123a5565b600054610100900460ff166121195760405162461bcd60e51b815260206004820152602b60248201527f496e697469616c697a61626c653a20636f6e7472616374206973206e6f74206960448201527f6e697469616c697a696e670000000000000000000000000000000000000000006064820152608401610a18565b565b6040516001600160a01b038085166024830152831660448201526064810182905261216c9085907f23b872dd0000000000000000000000000000000000000000000000000000000090608401611d3f565b50505050565b60006121c7826040518060400160405280602081526020017f5361666545524332303a206c6f772d6c6576656c2063616c6c206661696c6564815250856001600160a01b03166123ca9092919063ffffffff16565b90508051600014806121e85750808060200190518101906121e89190612d26565b610cfe5760405162461bcd60e51b815260206004820152602a60248201527f5361666545524332303a204552433230206f7065726174696f6e20646964206e60448201527f6f742073756363656564000000000000000000000000000000000000000000006064820152608401610a18565b60008281526065602090815260408083206001600160a01b038516845290915290205460ff16610d8b5761228d816123d9565b6122988360206123eb565b6040516020016122a9929190612d6c565b60408051601f198184030181529082905262461bcd60e51b8252610a1891600401612ded565b6001600160a01b0381163b61234c5760405162461bcd60e51b815260206004820152602d60248201527f455243313936373a206e657720696d706c656d656e746174696f6e206973206e60448201527f6f74206120636f6e7472616374000000000000000000000000000000000000006064820152608401610a18565b7f360894a13ba1a3210667c828492db98dca3e2076cc3735a920a3ca505d382bbc80547fffffffffffffffffffffffff0000000000000000000000000000000000000000166001600160a01b0392909216919091179055565b6123ae8361261b565b6000825111806123bb5750805b15610cfe5761216c838361265b565b60606115a08484600085612680565b60606107c26001600160a01b03831660145b606060006123fa836002612cab565b612405906002612ce4565b67ffffffffffffffff81111561241d5761241d612a55565b6040519080825280601f01601f191660200182016040528015612447576020820181803683370190505b5090507f30000000000000000000000000000000000000000000000000000000000000008160008151811061247e5761247e612d10565b60200101907effffffffffffffffffffffffffffffffffffffffffffffffffffffffffffff1916908160001a9053507f7800000000000000000000000000000000000000000000000000000000000000816001815181106124e1576124e1612d10565b60200101907effffffffffffffffffffffffffffffffffffffffffffffffffffffffffffff1916908160001a905350600061251d846002612cab565b612528906001612ce4565b90505b60018111156125c5577f303132333435363738396162636465660000000000000000000000000000000085600f166010811061256957612569612d10565b1a60f81b82828151811061257f5761257f612d10565b60200101907effffffffffffffffffffffffffffffffffffffffffffffffffffffffffffff1916908160001a90535060049490941c936125be81612e20565b905061252b565b5083156126145760405162461bcd60e51b815260206004820181905260248201527f537472696e67733a20686578206c656e67746820696e73756666696369656e746044820152606401610a18565b9392505050565b612624816122cf565b6040516001600160a01b038216907fbc7cd75a20ee27fd9adebab32041f755214dbc6bffa90cc0225b39da2e5c2d3b90600090a250565b60606126148383604051806060016040528060278152602001612e7260279139612772565b6060824710156126f85760405162461bcd60e51b815260206004820152602660248201527f416464726573733a20696e73756666696369656e742062616c616e636520666f60448201527f722063616c6c00000000000000000000000000000000000000000000000000006064820152608401610a18565b600080866001600160a01b031685876040516127149190612e55565b60006040518083038185875af1925050503d8060008114612751576040519150601f19603f3d011682016040523d82523d6000602084013e612756565b606091505b5091509150612767878383876127ea565b979650505050505050565b6060600080856001600160a01b03168560405161278f9190612e55565b600060405180830381855af49150503d80600081146127ca576040519150601f19603f3d011682016040523d82523d6000602084013e6127cf565b606091505b50915091506127e0868383876127ea565b9695505050505050565b60608315612859578251600003612852576001600160a01b0385163b6128525760405162461bcd60e51b815260206004820152601d60248201527f416464726573733a2063616c6c20746f206e6f6e2d636f6e74726163740000006044820152606401610a18565b50816115a0565b6115a0838381511561286e5781518083602001fd5b8060405162461bcd60e51b8152600401610a189190612ded565b8280548282559060005260206000209081019282156128ca579160200282015b828111156128ca578251829062ffffff169055916020019190600101906128a8565b506128d6929150612955565b5090565b8280548282559060005260206000209081019282156128ca579160200282015b828111156128ca578251829060ff169055916020019190600101906128fa565b8280548282559060005260206000209081019282156128ca579160200282015b828111156128ca57825182559160200191906001019061293a565b5b808211156128d65760008155600101612956565b6001600160a01b0381168114610f2957600080fd5b60006020828403121561299157600080fd5b81356126148161296a565b6000602082840312156129ae57600080fd5b81357fffffffff000000000000000000000000000000000000000000000000000000008116811461261457600080fd5b6000602082840312156129f057600080fd5b5035919050565b60008060408385031215612a0a57600080fd5b823591506020830135612a1c8161296a565b809150509250929050565b60008060408385031215612a3a57600080fd5b8235612a458161296a565b91506020830135612a1c8161296a565b634e487b7160e01b600052604160045260246000fd5b604051601f8201601f1916810167ffffffffffffffff81118282101715612a9457612a94612a55565b604052919050565b60008060408385031215612aaf57600080fd5b8235612aba8161296a565b915060208381013567ffffffffffffffff80821115612ad857600080fd5b818601915086601f830112612aec57600080fd5b813581811115612afe57612afe612a55565b612b1084601f19601f84011601612a6b565b91508082528784828501011115612b2657600080fd5b80848401858401376000848284010152508093505050509250929050565b600067ffffffffffffffff821115612b5e57612b5e612a55565b5060051b60200190565b60006020808385031215612b7b57600080fd5b823567ffffffffffffffff811115612b9257600080fd5b8301601f81018513612ba357600080fd5b8035612bb6612bb182612b44565b612a6b565b81815260059190911b82018301908381019087831115612bd557600080fd5b928401925b8284101561276757833582529284019290840190612bda565b60006020808385031215612c0657600080fd5b823567ffffffffffffffff811115612c1d57600080fd5b8301601f81018513612c2e57600080fd5b8035612c3c612bb182612b44565b81815260059190911b82018301908381019087831115612c5b57600080fd5b928401925b82841015612767578335612c738161296a565b82529284019290840190612c60565b634e487b7160e01b600052601160045260246000fd5b818103818111156107c2576107c2612c82565b80820281158282048414176107c2576107c2612c82565b600082612cdf57634e487b7160e01b600052601260045260246000fd5b500490565b808201808211156107c2576107c2612c82565b600060208284031215612d0957600080fd5b5051919050565b634e487b7160e01b600052603260045260246000fd5b600060208284031215612d3857600080fd5b8151801515811461261457600080fd5b60005b83811015612d63578181015183820152602001612d4b565b50506000910152565b7f416363657373436f6e74726f6c3a206163636f756e7420000000000000000000815260008351612da4816017850160208801612d48565b7f206973206d697373696e6720726f6c65200000000000000000000000000000006017918401918201528351612de1816028840160208801612d48565b01602801949350505050565b6020815260008251806020840152612e0c816040850160208701612d48565b601f01601f19169190910160400192915050565b600081612e2f57612e2f612c82565b507fffffffffffffffffffffffffffffffffffffffffffffffffffffffffffffffff0190565b60008251612e67818460208701612d48565b919091019291505056fe416464726573733a206c6f772d6c6576656c2064656c65676174652063616c6c206661696c6564a2646970667358221220dec5be07c1e57237b84bc4d40168c41f2100a263091aeedec78dcaa5b0277dac64736f6c63430008180033",
  "linkReferences": {},
  "deployedLinkReferences": {}
}