{
  "_format": "hh-sol-artifact-1",
  "contractName": "AdminTool",
  "sourceName": "contracts/AdminTool.sol",
  "abi": [
    {
      "anonymous": false,
      "inputs": [
        {
          "indexed": false,
          "internalType": "address",
          "name": "previousAdmin",
          "type": "address"
        },
        {
          "indexed": false,
          "internalType": "address",
          "name": "newAdmin",
          "type": "address"
        }
      ],
      "name": "AdminChanged",
      "type": "event"
    },
    {
      "anonymous": false,
      "inputs": [
        {
          "indexed": true,
          "internalType": "address",
          "name": "beacon",
          "type": "address"
        }
      ],
      "name": "BeaconUpgraded",
      "type": "event"
    },
    {
      "anonymous": false,
      "inputs": [
        {
          "indexed": false,
          "internalType": "uint8",
          "name": "version",
          "type": "uint8"
        }
      ],
      "name": "Initialized",
      "type": "event"
    },
    {
      "anonymous": false,
      "inputs": [
        {
          "indexed": true,
          "internalType": "bytes32",
          "name": "role",
          "type": "bytes32"
        },
        {
          "indexed": true,
          "internalType": "bytes32",
          "name": "previousAdminRole",
          "type": "bytes32"
        },
        {
          "indexed": true,
          "internalType": "bytes32",
          "name": "newAdminRole",
          "type": "bytes32"
        }
      ],
      "name": "RoleAdminChanged",
      "type": "event"
    },
    {
      "anonymous": false,
      "inputs": [
        {
          "indexed": true,
          "internalType": "bytes32",
          "name": "role",
          "type": "bytes32"
        },
        {
          "indexed": true,
          "internalType": "address",
          "name": "account",
          "type": "address"
        },
        {
          "indexed": true,
          "internalType": "address",
          "name": "sender",
          "type": "address"
        }
      ],
      "name": "RoleGranted",
      "type": "event"
    },
    {
      "anonymous": false,
      "inputs": [
        {
          "indexed": true,
          "internalType": "bytes32",
          "name": "role",
          "type": "bytes32"
        },
        {
          "indexed": true,
          "internalType": "address",
          "name": "account",
          "type": "address"
        },
        {
          "indexed": true,
          "internalType": "address",
          "name": "sender",
          "type": "address"
        }
      ],
      "name": "RoleRevoked",
      "type": "event"
    },
    {
      "anonymous": false,
      "inputs": [
        {
          "indexed": true,
          "internalType": "address",
          "name": "implementation",
          "type": "address"
        }
      ],
      "name": "Upgraded",
      "type": "event"
    },
    {
      "inputs": [],
      "name": "CLAIMER_ROLE",
      "outputs": [
        {
          "internalType": "bytes32",
          "name": "",
          "type": "bytes32"
        }
      ],
      "stateMutability": "view",
      "type": "function"
    },
    {
      "inputs": [],
      "name": "DEFAULT_ADMIN_ROLE",
      "outputs": [
        {
          "internalType": "bytes32",
          "name": "",
          "type": "bytes32"
        }
      ],
      "stateMutability": "view",
      "type": "function"
    },
    {
      "inputs": [],
      "name": "DESIGNER_ROLE",
      "outputs": [
        {
          "internalType": "bytes32",
          "name": "",
          "type": "bytes32"
        }
      ],
      "stateMutability": "view",
      "type": "function"
    },
    {
      "inputs": [],
      "name": "MINTER_ROLE",
      "outputs": [
        {
          "internalType": "bytes32",
          "name": "",
          "type": "bytes32"
        }
      ],
      "stateMutability": "view",
      "type": "function"
    },
    {
      "inputs": [],
      "name": "UPGRADER_ROLE",
      "outputs": [
        {
          "internalType": "bytes32",
          "name": "",
          "type": "bytes32"
        }
      ],
      "stateMutability": "view",
      "type": "function"
    },
    {
      "inputs": [],
      "name": "WITHDRAWER_ROLE",
      "outputs": [
        {
          "internalType": "bytes32",
          "name": "",
          "type": "bytes32"
        }
      ],
      "stateMutability": "view",
      "type": "function"
    },
    {
      "inputs": [],
      "name": "bcoinToken",
      "outputs": [
        {
          "internalType": "contract IERC20Upgradeable",
          "name": "",
          "type": "address"
        }
      ],
      "stateMutability": "view",
      "type": "function"
    },
    {
      "inputs": [
        {
          "internalType": "address",
          "name": "tokenAddress",
          "type": "address"
        },
        {
          "internalType": "uint256",
          "name": "id",
          "type": "uint256"
        },
        {
          "internalType": "uint256",
          "name": "category",
          "type": "uint256"
        },
        {
          "internalType": "uint256",
          "name": "isHeroS",
          "type": "uint256"
        },
        {
          "internalType": "uint256[]",
          "name": "dropRates",
          "type": "uint256[]"
        }
      ],
      "name": "changeHero",
      "outputs": [],
      "stateMutability": "nonpayable",
      "type": "function"
    },
    {
      "inputs": [
        {
          "internalType": "address",
          "name": "tokenAddress",
          "type": "address"
        },
        {
          "components": [
            {
              "internalType": "uint256",
              "name": "id",
              "type": "uint256"
            },
            {
              "internalType": "uint256",
              "name": "category",
              "type": "uint256"
            },
            {
              "internalType": "uint256",
              "name": "isHeroS",
              "type": "uint256"
            },
            {
              "internalType": "uint256[]",
              "name": "dropRates",
              "type": "uint256[]"
            }
          ],
          "internalType": "struct AdminTool.ChangeHeroRequest[]",
          "name": "requests",
          "type": "tuple[]"
        }
      ],
      "name": "changeMultipleHeroes",
      "outputs": [],
      "stateMutability": "nonpayable",
      "type": "function"
    },
    {
      "inputs": [
        {
          "internalType": "uint256",
          "name": "",
          "type": "uint256"
        }
      ],
      "name": "coinWallets",
      "outputs": [
        {
          "internalType": "address",
          "name": "",
          "type": "address"
        }
      ],
      "stateMutability": "view",
      "type": "function"
    },
    {
      "inputs": [],
      "name": "getCoinWallets",
      "outputs": [
        {
          "internalType": "address[]",
          "name": "",
          "type": "address[]"
        }
      ],
      "stateMutability": "view",
      "type": "function"
    },
    {
      "inputs": [
        {
          "internalType": "bytes32",
          "name": "role",
          "type": "bytes32"
        }
      ],
      "name": "getRoleAdmin",
      "outputs": [
        {
          "internalType": "bytes32",
          "name": "",
          "type": "bytes32"
        }
      ],
      "stateMutability": "view",
      "type": "function"
    },
    {
      "inputs": [
        {
          "internalType": "bytes32",
          "name": "role",
          "type": "bytes32"
        },
        {
          "internalType": "address",
          "name": "account",
          "type": "address"
        }
      ],
      "name": "grantRole",
      "outputs": [],
      "stateMutability": "nonpayable",
      "type": "function"
    },
    {
      "inputs": [
        {
          "internalType": "bytes32",
          "name": "role",
          "type": "bytes32"
        },
        {
          "internalType": "address",
          "name": "account",
          "type": "address"
        }
      ],
      "name": "hasRole",
      "outputs": [
        {
          "internalType": "bool",
          "name": "",
          "type": "bool"
        }
      ],
      "stateMutability": "view",
      "type": "function"
    },
    {
      "inputs": [
        {
          "internalType": "uint256",
          "name": "",
          "type": "uint256"
        }
      ],
      "name": "heroWallets",
      "outputs": [
        {
          "internalType": "address",
          "name": "",
          "type": "address"
        }
      ],
      "stateMutability": "view",
      "type": "function"
    },
    {
      "inputs": [
        {
          "internalType": "address",
          "name": "bcoinTokenAddress",
          "type": "address"
        },
        {
          "internalType": "address",
          "name": "senTokenAddress",
          "type": "address"
        }
      ],
      "name": "initialize",
      "outputs": [],
      "stateMutability": "nonpayable",
      "type": "function"
    },
    {
      "inputs": [],
      "name": "proxiableUUID",
      "outputs": [
        {
          "internalType": "bytes32",
          "name": "",
          "type": "bytes32"
        }
      ],
      "stateMutability": "view",
      "type": "function"
    },
    {
      "inputs": [
        {
          "internalType": "bytes32",
          "name": "role",
          "type": "bytes32"
        },
        {
          "internalType": "address",
          "name": "account",
          "type": "address"
        }
      ],
      "name": "renounceRole",
      "outputs": [],
      "stateMutability": "nonpayable",
      "type": "function"
    },
    {
      "inputs": [
        {
          "internalType": "bytes32",
          "name": "role",
          "type": "bytes32"
        },
        {
          "internalType": "address",
          "name": "account",
          "type": "address"
        }
      ],
      "name": "revokeRole",
      "outputs": [],
      "stateMutability": "nonpayable",
      "type": "function"
    },
    {
      "inputs": [],
      "name": "senToken",
      "outputs": [
        {
          "internalType": "contract IERC20Upgradeable",
          "name": "",
          "type": "address"
        }
      ],
      "stateMutability": "view",
      "type": "function"
    },
    {
      "inputs": [
        {
          "internalType": "address[]",
          "name": "value",
          "type": "address[]"
        }
      ],
      "name": "setCoinWallets",
      "outputs": [],
      "stateMutability": "nonpayable",
      "type": "function"
    },
    {
      "inputs": [
        {
          "internalType": "address",
          "name": "tokenAddress",
          "type": "address"
        },
        {
          "internalType": "uint256",
          "name": "id",
          "type": "uint256"
        },
        {
          "internalType": "bool",
          "name": "isHeroS",
          "type": "bool"
        }
      ],
      "name": "setHeroS",
      "outputs": [],
      "stateMutability": "nonpayable",
      "type": "function"
    },
    {
      "inputs": [
        {
          "internalType": "address",
          "name": "_address",
          "type": "address"
        },
        {
          "internalType": "uint256",
          "name": "tokenType",
          "type": "uint256"
        }
      ],
      "name": "setTokenAddress",
      "outputs": [],
      "stateMutability": "nonpayable",
      "type": "function"
    },
    {
      "inputs": [
        {
          "internalType": "address[]",
          "name": "addresses",
          "type": "address[]"
        }
      ],
      "name": "setWithdrawContracts",
      "outputs": [],
      "stateMutability": "nonpayable",
      "type": "function"
    },
    {
      "inputs": [
        {
          "internalType": "bytes4",
          "name": "interfaceId",
          "type": "bytes4"
        }
      ],
      "name": "supportsInterface",
      "outputs": [
        {
          "internalType": "bool",
          "name": "",
          "type": "bool"
        }
      ],
      "stateMutability": "view",
      "type": "function"
    },
    {
      "inputs": [
        {
          "internalType": "address",
          "name": "tokenAddress",
          "type": "address"
        },
        {
          "internalType": "address",
          "name": "to",
          "type": "address"
        },
        {
          "internalType": "uint256",
          "name": "amount",
          "type": "uint256"
        }
      ],
      "name": "transferSingleToken",
      "outputs": [],
      "stateMutability": "nonpayable",
      "type": "function"
    },
    {
      "inputs": [
        {
          "internalType": "address",
          "name": "tokenAddress",
          "type": "address"
        },
        {
          "components": [
            {
              "internalType": "address",
              "name": "to",
              "type": "address"
            },
            {
              "internalType": "uint256",
              "name": "amount",
              "type": "uint256"
            }
          ],
          "internalType": "struct Recipient[]",
          "name": "recipients",
          "type": "tuple[]"
        }
      ],
      "name": "transferToken",
      "outputs": [],
      "stateMutability": "nonpayable",
      "type": "function"
    },
    {
      "inputs": [
        {
          "internalType": "address",
          "name": "newImplementation",
          "type": "address"
        }
      ],
      "name": "upgradeTo",
      "outputs": [],
      "stateMutability": "nonpayable",
      "type": "function"
    },
    {
      "inputs": [
        {
          "internalType": "address",
          "name": "newImplementation",
          "type": "address"
        },
        {
          "internalType": "bytes",
          "name": "data",
          "type": "bytes"
        }
      ],
      "name": "upgradeToAndCall",
      "outputs": [],
      "stateMutability": "payable",
      "type": "function"
    },
    {
      "inputs": [],
      "name": "withdraw",
      "outputs": [],
      "stateMutability": "nonpayable",
      "type": "function"
    },
    {
      "inputs": [
        {
          "internalType": "uint256",
          "name": "",
          "type": "uint256"
        }
      ],
      "name": "withdrawContracts",
      "outputs": [
        {
          "internalType": "contract WithdrawContract",
          "name": "",
          "type": "address"
        }
      ],
      "stateMutability": "view",
      "type": "function"
    },
    {
      "inputs": [],
      "name": "withdrawFromContracts",
      "outputs": [],
      "stateMutability": "nonpayable",
      "type": "function"
    },
    {
      "inputs": [
        {
          "internalType": "address",
          "name": "tokenAddress",
          "type": "address"
        },
        {
          "internalType": "uint256",
          "name": "amount",
          "type": "uint256"
        }
      ],
      "name": "withdrawToken",
      "outputs": [],
      "stateMutability": "nonpayable",
      "type": "function"
    },
    {
      "stateMutability": "payable",
      "type": "receive"
    }
  ],
  "bytecode": "0x60a06040523060805234801561001457600080fd5b50608051612dfb61004c6000396000818161089001528181610926015281816111c201528181611258015261134f0152612dfb6000f3fe6080604052600436106102025760003560e01c806384a1cc291161011d578063a2d39dd2116100b0578063d547741f1161007f578063f72c0d8b11610064578063f72c0d8b14610646578063fc5f18d31461067a578063ff5ae462146106ae57600080fd5b8063d547741f146105f2578063df064ad81461061257600080fd5b8063a2d39dd21461055e578063a3c83c721461057e578063bc25c7171461059e578063d5391393146105be57600080fd5b80639438ac4a116100ec5780639438ac4a146104e95780639592d4fb146105095780639e281a9814610529578063a217fddf1461054957600080fd5b806384a1cc291461042f57806385f438c11461044f5780638a5db17d1461048357806391d14854146104a357600080fd5b806338ac548c1161019557806352d1902d1161016457806352d1902d146103c55780635fdeab18146103da578063660b8cfd146103ef57806382c1e2ab1461040f57600080fd5b806338ac548c1461035d5780633ccfd60b1461037d578063485cc955146103925780634f1ef286146103b257600080fd5b80632f2ff15d116101d15780632f2ff15d146102c55780633612cf5b146102e557806336568abe1461031d5780633659cfe61461033d57600080fd5b806301ffc9a71461020e5780631ab1d65514610243578063248a9ca314610265578063264320e3146102a357600080fd5b3661020957005b600080fd5b34801561021a57600080fd5b5061022e6102293660046124eb565b6106ce565b60405190151581526020015b60405180910390f35b34801561024f57600080fd5b5061026361025e366004612542565b6106df565b005b34801561027157600080fd5b5061029561028036600461256e565b60009081526065602052604090206001015490565b60405190815260200161023a565b3480156102af57600080fd5b506102b861076e565b60405161023a9190612587565b3480156102d157600080fd5b506102636102e03660046125d4565b6107d0565b3480156102f157600080fd5b5060fc54610305906001600160a01b031681565b6040516001600160a01b03909116815260200161023a565b34801561032957600080fd5b506102636103383660046125d4565b6107f5565b34801561034957600080fd5b50610263610358366004612604565b610886565b34801561036957600080fd5b50610263610378366004612724565b610a23565b34801561038957600080fd5b50610263610d1e565b34801561039e57600080fd5b506102636103ad366004612791565b610f75565b6102636103c03660046127bf565b6111b8565b3480156103d157600080fd5b50610295611342565b3480156103e657600080fd5b50610263611407565b3480156103fb57600080fd5b5061026361040a366004612867565b6114d5565b34801561041b57600080fd5b5061026361042a3660046128a8565b611596565b34801561043b57600080fd5b5061026361044a3660046129c1565b611616565b34801561045b57600080fd5b506102957f10dac8c06a04bec0b551627dad28bc00d6516b0caacd1c7b345fcdb5211334e481565b34801561048f57600080fd5b5060fb54610305906001600160a01b031681565b3480156104af57600080fd5b5061022e6104be3660046125d4565b60009182526065602090815260408084206001600160a01b0393909316845291905290205460ff1690565b3480156104f557600080fd5b5061030561050436600461256e565b611710565b34801561051557600080fd5b50610263610524366004612a5b565b61173a565b34801561053557600080fd5b50610263610544366004612542565b611840565b34801561055557600080fd5b50610295600081565b34801561056a57600080fd5b5061030561057936600461256e565b6118fd565b34801561058a57600080fd5b50610263610599366004612af1565b61190d565b3480156105aa57600080fd5b506103056105b936600461256e565b611aaf565b3480156105ca57600080fd5b506102957f9f2df0fed2c77648de5860a4cc508cd0818c85b8b8a1ab4ceeef8d981c8956a681565b3480156105fe57600080fd5b5061026361060d3660046125d4565b611abf565b34801561061e57600080fd5b506102957f22c69ab406805e70d07fb1a6502af760601d3b977beadb295a9d76d5852e16a381565b34801561065257600080fd5b506102957f189ab7a9244df0848122154315af71fe140f3db0fe014031783b0946b8c9d2e381565b34801561068657600080fd5b506102957f11a8cb5a02bd6c42679835e867ef2118ba78f088f8300511420c6603c21d9c7881565b3480156106ba57600080fd5b506102636106c93660046129c1565b611ae4565b60006106d982611b21565b92915050565b7f22c69ab406805e70d07fb1a6502af760601d3b977beadb295a9d76d5852e16a361070981611bb8565b816000036107405760fb80546001600160a01b03851673ffffffffffffffffffffffffffffffffffffffff19909116179055505050565b60fc805473ffffffffffffffffffffffffffffffffffffffff19166001600160a01b0385161790555b505050565b606060fd8054806020026020016040519081016040528092919081815260200182805480156107c657602002820191906000526020600020905b81546001600160a01b031681526001909101906020018083116107a8575b5050505050905090565b6000828152606560205260409020600101546107eb81611bb8565b6107698383611bc2565b6001600160a01b03811633146108785760405162461bcd60e51b815260206004820152602f60248201527f416363657373436f6e74726f6c3a2063616e206f6e6c792072656e6f756e636560448201527f20726f6c657320666f722073656c66000000000000000000000000000000000060648201526084015b60405180910390fd5b6108828282611c64565b5050565b6001600160a01b037f00000000000000000000000000000000000000000000000000000000000000001630036109245760405162461bcd60e51b815260206004820152602c60248201527f46756e6374696f6e206d7573742062652063616c6c6564207468726f7567682060448201527f64656c656761746563616c6c0000000000000000000000000000000000000000606482015260840161086f565b7f00000000000000000000000000000000000000000000000000000000000000006001600160a01b031661097f7f360894a13ba1a3210667c828492db98dca3e2076cc3735a920a3ca505d382bbc546001600160a01b031690565b6001600160a01b0316146109fb5760405162461bcd60e51b815260206004820152602c60248201527f46756e6374696f6e206d7573742062652063616c6c6564207468726f7567682060448201527f6163746976652070726f78790000000000000000000000000000000000000000606482015260840161086f565b610a0481611ce7565b60408051600080825260208201909252610a2091839190611d11565b50565b7f9f2df0fed2c77648de5860a4cc508cd0818c85b8b8a1ab4ceeef8d981c8956a6610a4d81611bb8565b60008690506000816001600160a01b03166393f502066040518163ffffffff1660e01b81526004016020604051808303816000875af1158015610a94573d6000803e3d6000fd5b505050506040513d601f19601f82011682018060405250810190610ab89190612b33565b6040517ffc314e31000000000000000000000000000000000000000000000000000000008152600481018990529091506000906001600160a01b0384169063fc314e31906024016020604051808303816000875af1158015610b1e573d6000803e3d6000fd5b505050506040513d601f19601f82011682018060405250810190610b429190612b50565b90506000610b51600143612b7f565b86519117601e89901b17602388901b1760289190911b1760005b8651811015610bb557610b7f81600f612b92565b610b8a90602d612ba9565b878281518110610b9c57610b9c612bbc565b6020026020010151901b82179150806001019050610b6b565b506040517f16b0f8e6000000000000000000000000000000000000000000000000000000008152600481018a905260016024820152604481018290526000906001600160a01b038516906316b0f8e690606401600060405180830381865afa158015610c25573d6000803e3d6000fd5b505050506040513d6000823e601f3d908101601f19168201604052610c4d9190810190612bd2565b600081518110610c5f57610c5f612bbc565b60209081029190910101516040517f7eec79b7000000000000000000000000000000000000000000000000000000008152600481018c90527fffffffffffffffffffffffffffffffffffffffffffffffffffffff0000000000821664ffffffffff86161760248201529091506001600160a01b03861690637eec79b790604401600060405180830381600087803b158015610cf957600080fd5b505af1158015610d0d573d6000803e3d6000fd5b505050505050505050505050505050565b7f10dac8c06a04bec0b551627dad28bc00d6516b0caacd1c7b345fcdb5211334e4610d4881611bb8565b60fb546040517f70a082310000000000000000000000000000000000000000000000000000000081523060048201526001600160a01b039091169063a9059cbb90339083906370a0823190602401602060405180830381865afa158015610db3573d6000803e3d6000fd5b505050506040513d601f19601f82011682018060405250810190610dd79190612b50565b6040517fffffffff0000000000000000000000000000000000000000000000000000000060e085901b1681526001600160a01b03909216600483015260248201526044016020604051808303816000875af1158015610e3a573d6000803e3d6000fd5b505050506040513d601f19601f82011682018060405250810190610e5e9190612c58565b5060fc546040517f70a082310000000000000000000000000000000000000000000000000000000081523060048201526001600160a01b039091169063a9059cbb90339083906370a0823190602401602060405180830381865afa158015610eca573d6000803e3d6000fd5b505050506040513d601f19601f82011682018060405250810190610eee9190612b50565b6040517fffffffff0000000000000000000000000000000000000000000000000000000060e085901b1681526001600160a01b03909216600483015260248201526044016020604051808303816000875af1158015610f51573d6000803e3d6000fd5b505050506040513d601f19601f820116820180604052508101906108829190612c58565b600054610100900460ff1615808015610f955750600054600160ff909116105b80610faf5750303b158015610faf575060005460ff166001145b6110215760405162461bcd60e51b815260206004820152602e60248201527f496e697469616c697a61626c653a20636f6e747261637420697320616c72656160448201527f647920696e697469616c697a6564000000000000000000000000000000000000606482015260840161086f565b6000805460ff191660011790558015611044576000805461ff0019166101001790555b61104c611eb1565b611054611eb1565b61105f600033611f30565b6110897f11a8cb5a02bd6c42679835e867ef2118ba78f088f8300511420c6603c21d9c7833611f30565b6110b37f22c69ab406805e70d07fb1a6502af760601d3b977beadb295a9d76d5852e16a333611f30565b6110dd7f9f2df0fed2c77648de5860a4cc508cd0818c85b8b8a1ab4ceeef8d981c8956a633611f30565b6111077f189ab7a9244df0848122154315af71fe140f3db0fe014031783b0946b8c9d2e333611f30565b6111317f10dac8c06a04bec0b551627dad28bc00d6516b0caacd1c7b345fcdb5211334e433611f30565b60fb80546001600160a01b0380861673ffffffffffffffffffffffffffffffffffffffff199283161790925560fc8054928516929091169190911790558015610769576000805461ff0019169055604051600181527f7f26b83ff96e1f2b6a682f133852f6798a09c465da95921460cefb38474024989060200160405180910390a1505050565b6001600160a01b037f00000000000000000000000000000000000000000000000000000000000000001630036112565760405162461bcd60e51b815260206004820152602c60248201527f46756e6374696f6e206d7573742062652063616c6c6564207468726f7567682060448201527f64656c656761746563616c6c0000000000000000000000000000000000000000606482015260840161086f565b7f00000000000000000000000000000000000000000000000000000000000000006001600160a01b03166112b17f360894a13ba1a3210667c828492db98dca3e2076cc3735a920a3ca505d382bbc546001600160a01b031690565b6001600160a01b03161461132d5760405162461bcd60e51b815260206004820152602c60248201527f46756e6374696f6e206d7573742062652063616c6c6564207468726f7567682060448201527f6163746976652070726f78790000000000000000000000000000000000000000606482015260840161086f565b61133682611ce7565b61088282826001611d11565b6000306001600160a01b037f000000000000000000000000000000000000000000000000000000000000000016146113e25760405162461bcd60e51b815260206004820152603860248201527f555550535570677261646561626c653a206d757374206e6f742062652063616c60448201527f6c6564207468726f7567682064656c656761746563616c6c0000000000000000606482015260840161086f565b507f360894a13ba1a3210667c828492db98dca3e2076cc3735a920a3ca505d382bbc90565b7f10dac8c06a04bec0b551627dad28bc00d6516b0caacd1c7b345fcdb5211334e461143181611bb8565b60005b60ff548110156108825760ff818154811061145157611451612bbc565b6000918252602082200154604080517f3ccfd60b00000000000000000000000000000000000000000000000000000000815290516001600160a01b0390921692633ccfd60b9260048084019382900301818387803b1580156114b257600080fd5b505af11580156114c6573d6000803e3d6000fd5b50505050806001019050611434565b7f11a8cb5a02bd6c42679835e867ef2118ba78f088f8300511420c6603c21d9c786114ff81611bb8565b6040517fa9059cbb0000000000000000000000000000000000000000000000000000000081526001600160a01b0384811660048301526024820184905285919082169063a9059cbb906044016020604051808303816000875af115801561156a573d6000803e3d6000fd5b505050506040513d601f19601f8201168201806040525081019061158e9190612c58565b505050505050565b7f9f2df0fed2c77648de5860a4cc508cd0818c85b8b8a1ab4ceeef8d981c8956a66115c081611bb8565b60005b82518110156116105760008382815181106115e0576115e0612bbc565b60200260200101519050611607858260000151836020015184604001518560600151610a23565b506001016115c3565b50505050565b7f22c69ab406805e70d07fb1a6502af760601d3b977beadb295a9d76d5852e16a361164081611bb8565b81518067ffffffffffffffff81111561165b5761165b612621565b604051908082528060200260200182016040528015611684578160200160208202803683370190505b5080516116999160ff91602090910190612464565b5060005b81811015611610578381815181106116b7576116b7612bbc565b602002602001015160ff82815481106116d2576116d2612bbc565b6000918252602090912001805473ffffffffffffffffffffffffffffffffffffffff19166001600160a01b039290921691909117905560010161169d565b60fe818154811061172057600080fd5b6000918252602090912001546001600160a01b0316905081565b7f11a8cb5a02bd6c42679835e867ef2118ba78f088f8300511420c6603c21d9c7861176481611bb8565b8360005b8381101561158e57816001600160a01b031663a9059cbb86868481811061179157611791612bbc565b6117a79260206040909202019081019150612604565b8787858181106117b9576117b9612bbc565b905060400201602001356040518363ffffffff1660e01b81526004016117f49291906001600160a01b03929092168252602082015260400190565b6020604051808303816000875af1158015611813573d6000803e3d6000fd5b505050506040513d601f19601f820116820180604052508101906118379190612c58565b50600101611768565b7f10dac8c06a04bec0b551627dad28bc00d6516b0caacd1c7b345fcdb5211334e461186a81611bb8565b6040517fa9059cbb0000000000000000000000000000000000000000000000000000000081523360048201526024810183905283906001600160a01b0382169063a9059cbb906044016020604051808303816000875af11580156118d2573d6000803e3d6000fd5b505050506040513d601f19601f820116820180604052508101906118f69190612c58565b5050505050565b60fd818154811061172057600080fd5b7f9f2df0fed2c77648de5860a4cc508cd0818c85b8b8a1ab4ceeef8d981c8956a661193781611bb8565b6040517ffc314e310000000000000000000000000000000000000000000000000000000081526004810184905284906000906001600160a01b0383169063fc314e31906024016020604051808303816000875af115801561199c573d6000803e3d6000fd5b505050506040513d601f19601f820116820180604052508101906119c09190612b50565b9050601f60b482901c16841515811515036119dd57505050611610565b8415611a05577702100000000000000000000000000000000000000000000090911790611a2c565b7ffffffffffffffffffe000000000000000000000000000000000000000000000091909116905b6040517f7eec79b700000000000000000000000000000000000000000000000000000000815260048101879052602481018390526001600160a01b03841690637eec79b790604401600060405180830381600087803b158015611a8e57600080fd5b505af1158015611aa2573d6000803e3d6000fd5b5050505050505050505050565b60ff818154811061172057600080fd5b600082815260656020526040902060010154611ada81611bb8565b6107698383611c64565b7f22c69ab406805e70d07fb1a6502af760601d3b977beadb295a9d76d5852e16a3611b0e81611bb8565b81516107699060fd906020850190612464565b60007fffffffff0000000000000000000000000000000000000000000000000000000082167f7965db0b0000000000000000000000000000000000000000000000000000000014806106d957507f01ffc9a7000000000000000000000000000000000000000000000000000000007fffffffff000000000000000000000000000000000000000000000000000000008316146106d9565b610a208133611f3a565b60008281526065602090815260408083206001600160a01b038516845290915290205460ff166108825760008281526065602090815260408083206001600160a01b03851684529091529020805460ff19166001179055611c203390565b6001600160a01b0316816001600160a01b0316837f2f8788117e7eff1d82e926ec794901d17c78024a50270940304540a733656f0d60405160405180910390a45050565b60008281526065602090815260408083206001600160a01b038516845290915290205460ff16156108825760008281526065602090815260408083206001600160a01b0385168085529252808320805460ff1916905551339285917ff6391f5c32d9c69d2a47ea670b442974b53935d1edc7fd64eb21e047a839171b9190a45050565b7f189ab7a9244df0848122154315af71fe140f3db0fe014031783b0946b8c9d2e361088281611bb8565b7f4910fdfa16fed3260ed0e7147f7cc6da11a60208b5b9406d12a635614ffd91435460ff1615611d445761076983611faf565b826001600160a01b03166352d1902d6040518163ffffffff1660e01b8152600401602060405180830381865afa925050508015611d9e575060408051601f3d908101601f19168201909252611d9b91810190612b50565b60015b611e105760405162461bcd60e51b815260206004820152602e60248201527f45524331393637557067726164653a206e657720696d706c656d656e7461746960448201527f6f6e206973206e6f742055555053000000000000000000000000000000000000606482015260840161086f565b7f360894a13ba1a3210667c828492db98dca3e2076cc3735a920a3ca505d382bbc8114611ea55760405162461bcd60e51b815260206004820152602960248201527f45524331393637557067726164653a20756e737570706f727465642070726f7860448201527f6961626c65555549440000000000000000000000000000000000000000000000606482015260840161086f565b5061076983838361207a565b600054610100900460ff16611f2e5760405162461bcd60e51b815260206004820152602b60248201527f496e697469616c697a61626c653a20636f6e7472616374206973206e6f74206960448201527f6e697469616c697a696e67000000000000000000000000000000000000000000606482015260840161086f565b565b6108828282611bc2565b60008281526065602090815260408083206001600160a01b038516845290915290205460ff1661088257611f6d8161209f565b611f788360206120b1565b604051602001611f89929190612c99565b60408051601f198184030181529082905262461bcd60e51b825261086f91600401612d1a565b6001600160a01b0381163b61202c5760405162461bcd60e51b815260206004820152602d60248201527f455243313936373a206e657720696d706c656d656e746174696f6e206973206e60448201527f6f74206120636f6e747261637400000000000000000000000000000000000000606482015260840161086f565b7f360894a13ba1a3210667c828492db98dca3e2076cc3735a920a3ca505d382bbc805473ffffffffffffffffffffffffffffffffffffffff19166001600160a01b0392909216919091179055565b612083836122e1565b6000825111806120905750805b15610769576116108383612321565b60606106d96001600160a01b03831660145b606060006120c0836002612b92565b6120cb906002612ba9565b67ffffffffffffffff8111156120e3576120e3612621565b6040519080825280601f01601f19166020018201604052801561210d576020820181803683370190505b5090507f30000000000000000000000000000000000000000000000000000000000000008160008151811061214457612144612bbc565b60200101907effffffffffffffffffffffffffffffffffffffffffffffffffffffffffffff1916908160001a9053507f7800000000000000000000000000000000000000000000000000000000000000816001815181106121a7576121a7612bbc565b60200101907effffffffffffffffffffffffffffffffffffffffffffffffffffffffffffff1916908160001a90535060006121e3846002612b92565b6121ee906001612ba9565b90505b600181111561228b577f303132333435363738396162636465660000000000000000000000000000000085600f166010811061222f5761222f612bbc565b1a60f81b82828151811061224557612245612bbc565b60200101907effffffffffffffffffffffffffffffffffffffffffffffffffffffffffffff1916908160001a90535060049490941c9361228481612d4d565b90506121f1565b5083156122da5760405162461bcd60e51b815260206004820181905260248201527f537472696e67733a20686578206c656e67746820696e73756666696369656e74604482015260640161086f565b9392505050565b6122ea81611faf565b6040516001600160a01b038216907fbc7cd75a20ee27fd9adebab32041f755214dbc6bffa90cc0225b39da2e5c2d3b90600090a250565b60606122da8383604051806060016040528060278152602001612d9f602791396060600080856001600160a01b03168560405161235e9190612d82565b600060405180830381855af49150503d8060008114612399576040519150601f19603f3d011682016040523d82523d6000602084013e61239e565b606091505b50915091506123af868383876123b9565b9695505050505050565b60608315612428578251600003612421576001600160a01b0385163b6124215760405162461bcd60e51b815260206004820152601d60248201527f416464726573733a2063616c6c20746f206e6f6e2d636f6e7472616374000000604482015260640161086f565b5081612432565b612432838361243a565b949350505050565b81511561244a5781518083602001fd5b8060405162461bcd60e51b815260040161086f9190612d1a565b8280548282559060005260206000209081019282156124c6579160200282015b828111156124c6578251825473ffffffffffffffffffffffffffffffffffffffff19166001600160a01b03909116178255602090920191600190910190612484565b506124d29291506124d6565b5090565b5b808211156124d257600081556001016124d7565b6000602082840312156124fd57600080fd5b81357fffffffff00000000000000000000000000000000000000000000000000000000811681146122da57600080fd5b6001600160a01b0381168114610a2057600080fd5b6000806040838503121561255557600080fd5b82356125608161252d565b946020939093013593505050565b60006020828403121561258057600080fd5b5035919050565b6020808252825182820181905260009190848201906040850190845b818110156125c85783516001600160a01b0316835292840192918401916001016125a3565b50909695505050505050565b600080604083850312156125e757600080fd5b8235915060208301356125f98161252d565b809150509250929050565b60006020828403121561261657600080fd5b81356122da8161252d565b634e487b7160e01b600052604160045260246000fd5b6040516080810167ffffffffffffffff8111828210171561265a5761265a612621565b60405290565b604051601f8201601f1916810167ffffffffffffffff8111828210171561268957612689612621565b604052919050565b600067ffffffffffffffff8211156126ab576126ab612621565b5060051b60200190565b600082601f8301126126c657600080fd5b813560206126db6126d683612691565b612660565b8083825260208201915060208460051b8701019350868411156126fd57600080fd5b602086015b848110156127195780358352918301918301612702565b509695505050505050565b600080600080600060a0868803121561273c57600080fd5b85356127478161252d565b9450602086013593506040860135925060608601359150608086013567ffffffffffffffff81111561277857600080fd5b612784888289016126b5565b9150509295509295909350565b600080604083850312156127a457600080fd5b82356127af8161252d565b915060208301356125f98161252d565b600080604083850312156127d257600080fd5b82356127dd8161252d565b915060208381013567ffffffffffffffff808211156127fb57600080fd5b818601915086601f83011261280f57600080fd5b81358181111561282157612821612621565b61283384601f19601f84011601612660565b9150808252878482850101111561284957600080fd5b80848401858401376000848284010152508093505050509250929050565b60008060006060848603121561287c57600080fd5b83356128878161252d565b925060208401356128978161252d565b929592945050506040919091013590565b600080604083850312156128bb57600080fd5b82356128c68161252d565b915060208381013567ffffffffffffffff808211156128e457600080fd5b818601915086601f8301126128f857600080fd5b81356129066126d682612691565b81815260059190911b8301840190848101908983111561292557600080fd5b8585015b838110156129b0578035858111156129415760008081fd5b86016080818d03601f19018113156129595760008081fd5b612961612637565b89830135815260408301358a82015260608084013560408301528284013592508883111561298f5760008081fd5b61299d8f8c858701016126b5565b9082015285525050918601918601612929565b508096505050505050509250929050565b600060208083850312156129d457600080fd5b823567ffffffffffffffff8111156129eb57600080fd5b8301601f810185136129fc57600080fd5b8035612a0a6126d682612691565b81815260059190911b82018301908381019087831115612a2957600080fd5b928401925b82841015612a50578335612a418161252d565b82529284019290840190612a2e565b979650505050505050565b600080600060408486031215612a7057600080fd5b8335612a7b8161252d565b9250602084013567ffffffffffffffff80821115612a9857600080fd5b818601915086601f830112612aac57600080fd5b813581811115612abb57600080fd5b8760208260061b8501011115612ad057600080fd5b6020830194508093505050509250925092565b8015158114610a2057600080fd5b600080600060608486031215612b0657600080fd5b8335612b118161252d565b9250602084013591506040840135612b2881612ae3565b809150509250925092565b600060208284031215612b4557600080fd5b81516122da8161252d565b600060208284031215612b6257600080fd5b5051919050565b634e487b7160e01b600052601160045260246000fd5b818103818111156106d9576106d9612b69565b80820281158282048414176106d9576106d9612b69565b808201808211156106d9576106d9612b69565b634e487b7160e01b600052603260045260246000fd5b60006020808385031215612be557600080fd5b825167ffffffffffffffff811115612bfc57600080fd5b8301601f81018513612c0d57600080fd5b8051612c1b6126d682612691565b81815260059190911b82018301908381019087831115612c3a57600080fd5b928401925b82841015612a5057835182529284019290840190612c3f565b600060208284031215612c6a57600080fd5b81516122da81612ae3565b60005b83811015612c90578181015183820152602001612c78565b50506000910152565b7f416363657373436f6e74726f6c3a206163636f756e7420000000000000000000815260008351612cd1816017850160208801612c75565b7f206973206d697373696e6720726f6c65200000000000000000000000000000006017918401918201528351612d0e816028840160208801612c75565b01602801949350505050565b6020815260008251806020840152612d39816040850160208701612c75565b601f01601f19169190910160400192915050565b600081612d5c57612d5c612b69565b507fffffffffffffffffffffffffffffffffffffffffffffffffffffffffffffffff0190565b60008251612d94818460208701612c75565b919091019291505056fe416464726573733a206c6f772d6c6576656c2064656c65676174652063616c6c206661696c6564a2646970667358221220bdfe838e9769e64b70b1627b34b378d20af323edcb3a667adc6e68e689a41c5164736f6c63430008180033",
  "linkReferences": {},
  "deployedLinkReferences": {}
}