{
  "_format": "hh-sol-artifact-1",
  "contractName": "BHeroDesign",
  "sourceName": "contracts/BHeroDesign.sol",
  "abi": [
    {
      "anonymous": false,
      "inputs": [
        {
          "indexed": false,
          "internalType": "address",
          "name": "previousAdmin",
          "type": "address"
        },
        {
          "indexed": false,
          "internalType": "address",
          "name": "newAdmin",
          "type": "address"
        }
      ],
      "name": "AdminChanged",
      "type": "event"
    },
    {
      "anonymous": false,
      "inputs": [
        {
          "indexed": true,
          "internalType": "address",
          "name": "beacon",
          "type": "address"
        }
      ],
      "name": "BeaconUpgraded",
      "type": "event"
    },
    {
      "anonymous": false,
      "inputs": [
        {
          "indexed": false,
          "internalType": "uint8",
          "name": "version",
          "type": "uint8"
        }
      ],
      "name": "Initialized",
      "type": "event"
    },
    {
      "anonymous": false,
      "inputs": [
        {
          "indexed": true,
          "internalType": "bytes32",
          "name": "role",
          "type": "bytes32"
        },
        {
          "indexed": true,
          "internalType": "bytes32",
          "name": "previousAdminRole",
          "type": "bytes32"
        },
        {
          "indexed": true,
          "internalType": "bytes32",
          "name": "newAdminRole",
          "type": "bytes32"
        }
      ],
      "name": "RoleAdminChanged",
      "type": "event"
    },
    {
      "anonymous": false,
      "inputs": [
        {
          "indexed": true,
          "internalType": "bytes32",
          "name": "role",
          "type": "bytes32"
        },
        {
          "indexed": true,
          "internalType": "address",
          "name": "account",
          "type": "address"
        },
        {
          "indexed": true,
          "internalType": "address",
          "name": "sender",
          "type": "address"
        }
      ],
      "name": "RoleGranted",
      "type": "event"
    },
    {
      "anonymous": false,
      "inputs": [
        {
          "indexed": true,
          "internalType": "bytes32",
          "name": "role",
          "type": "bytes32"
        },
        {
          "indexed": true,
          "internalType": "address",
          "name": "account",
          "type": "address"
        },
        {
          "indexed": true,
          "internalType": "address",
          "name": "sender",
          "type": "address"
        }
      ],
      "name": "RoleRevoked",
      "type": "event"
    },
    {
      "anonymous": false,
      "inputs": [
        {
          "indexed": true,
          "internalType": "address",
          "name": "implementation",
          "type": "address"
        }
      ],
      "name": "Upgraded",
      "type": "event"
    },
    {
      "inputs": [],
      "name": "DEFAULT_ADMIN_ROLE",
      "outputs": [
        {
          "internalType": "bytes32",
          "name": "",
          "type": "bytes32"
        }
      ],
      "stateMutability": "view",
      "type": "function"
    },
    {
      "inputs": [],
      "name": "DESIGNER_ROLE",
      "outputs": [
        {
          "internalType": "bytes32",
          "name": "",
          "type": "bytes32"
        }
      ],
      "stateMutability": "view",
      "type": "function"
    },
    {
      "inputs": [],
      "name": "UPGRADER_ROLE",
      "outputs": [
        {
          "internalType": "bytes32",
          "name": "",
          "type": "bytes32"
        }
      ],
      "stateMutability": "view",
      "type": "function"
    },
    {
      "inputs": [
        {
          "internalType": "uint256",
          "name": "tokenId",
          "type": "uint256"
        },
        {
          "internalType": "uint256",
          "name": "count",
          "type": "uint256"
        },
        {
          "internalType": "uint256",
          "name": "details",
          "type": "uint256"
        }
      ],
      "name": "createTokens",
      "outputs": [
        {
          "internalType": "uint256[]",
          "name": "tokenDetails",
          "type": "uint256[]"
        }
      ],
      "stateMutability": "view",
      "type": "function"
    },
    {
      "inputs": [],
      "name": "dummyDeploy",
      "outputs": [
        {
          "internalType": "uint256",
          "name": "",
          "type": "uint256"
        }
      ],
      "stateMutability": "view",
      "type": "function"
    },
    {
      "inputs": [],
      "name": "getAbilityDesigns",
      "outputs": [
        {
          "components": [
            {
              "internalType": "uint256",
              "name": "minCost",
              "type": "uint256"
            },
            {
              "internalType": "uint256",
              "name": "maxCost",
              "type": "uint256"
            },
            {
              "internalType": "uint256",
              "name": "incrementalCost",
              "type": "uint256"
            }
          ],
          "internalType": "struct BHeroDesign.AbilityDesign[]",
          "name": "",
          "type": "tuple[]"
        }
      ],
      "stateMutability": "view",
      "type": "function"
    },
    {
      "inputs": [],
      "name": "getAbilityRate",
      "outputs": [
        {
          "internalType": "uint256[]",
          "name": "",
          "type": "uint256[]"
        }
      ],
      "stateMutability": "view",
      "type": "function"
    },
    {
      "inputs": [],
      "name": "getDropRate",
      "outputs": [
        {
          "internalType": "uint256[]",
          "name": "",
          "type": "uint256[]"
        }
      ],
      "stateMutability": "view",
      "type": "function"
    },
    {
      "inputs": [],
      "name": "getDropRateHeroS",
      "outputs": [
        {
          "internalType": "uint256[]",
          "name": "",
          "type": "uint256[]"
        }
      ],
      "stateMutability": "view",
      "type": "function"
    },
    {
      "inputs": [],
      "name": "getMaxLevel",
      "outputs": [
        {
          "internalType": "uint256",
          "name": "",
          "type": "uint256"
        }
      ],
      "stateMutability": "view",
      "type": "function"
    },
    {
      "inputs": [],
      "name": "getMintCost",
      "outputs": [
        {
          "internalType": "uint256",
          "name": "",
          "type": "uint256"
        }
      ],
      "stateMutability": "view",
      "type": "function"
    },
    {
      "inputs": [],
      "name": "getMintCostHeroS",
      "outputs": [
        {
          "internalType": "uint256",
          "name": "",
          "type": "uint256"
        }
      ],
      "stateMutability": "view",
      "type": "function"
    },
    {
      "inputs": [
        {
          "internalType": "uint256",
          "name": "rarity",
          "type": "uint256"
        },
        {
          "internalType": "uint256",
          "name": "times",
          "type": "uint256"
        }
      ],
      "name": "getRandomizeAbilityCost",
      "outputs": [
        {
          "internalType": "uint256",
          "name": "",
          "type": "uint256"
        }
      ],
      "stateMutability": "view",
      "type": "function"
    },
    {
      "inputs": [],
      "name": "getRarityStats",
      "outputs": [
        {
          "components": [
            {
              "components": [
                {
                  "internalType": "uint256",
                  "name": "min",
                  "type": "uint256"
                },
                {
                  "internalType": "uint256",
                  "name": "max",
                  "type": "uint256"
                }
              ],
              "internalType": "struct BHeroDesign.StatsRange",
              "name": "stamina",
              "type": "tuple"
            },
            {
              "components": [
                {
                  "internalType": "uint256",
                  "name": "min",
                  "type": "uint256"
                },
                {
                  "internalType": "uint256",
                  "name": "max",
                  "type": "uint256"
                }
              ],
              "internalType": "struct BHeroDesign.StatsRange",
              "name": "speed",
              "type": "tuple"
            },
            {
              "internalType": "uint256",
              "name": "bombCount",
              "type": "uint256"
            },
            {
              "components": [
                {
                  "internalType": "uint256",
                  "name": "min",
                  "type": "uint256"
                },
                {
                  "internalType": "uint256",
                  "name": "max",
                  "type": "uint256"
                }
              ],
              "internalType": "struct BHeroDesign.StatsRange",
              "name": "bombPower",
              "type": "tuple"
            },
            {
              "internalType": "uint256",
              "name": "bombRange",
              "type": "uint256"
            },
            {
              "internalType": "uint256",
              "name": "ability",
              "type": "uint256"
            }
          ],
          "internalType": "struct BHeroDesign.Stats[]",
          "name": "",
          "type": "tuple[]"
        }
      ],
      "stateMutability": "view",
      "type": "function"
    },
    {
      "inputs": [
        {
          "internalType": "uint256",
          "name": "rarity",
          "type": "uint256"
        },
        {
          "internalType": "uint256",
          "name": "level",
          "type": "uint256"
        }
      ],
      "name": "getRockUpgradeShieldLevel",
      "outputs": [
        {
          "internalType": "uint256",
          "name": "",
          "type": "uint256"
        }
      ],
      "stateMutability": "view",
      "type": "function"
    },
    {
      "inputs": [
        {
          "internalType": "bytes32",
          "name": "role",
          "type": "bytes32"
        }
      ],
      "name": "getRoleAdmin",
      "outputs": [
        {
          "internalType": "bytes32",
          "name": "",
          "type": "bytes32"
        }
      ],
      "stateMutability": "view",
      "type": "function"
    },
    {
      "inputs": [],
      "name": "getSenMintCost",
      "outputs": [
        {
          "internalType": "uint256",
          "name": "",
          "type": "uint256"
        }
      ],
      "stateMutability": "view",
      "type": "function"
    },
    {
      "inputs": [],
      "name": "getSenMintCostHeroS",
      "outputs": [
        {
          "internalType": "uint256",
          "name": "",
          "type": "uint256"
        }
      ],
      "stateMutability": "view",
      "type": "function"
    },
    {
      "inputs": [],
      "name": "getSuperBoxDropRate",
      "outputs": [
        {
          "internalType": "uint256[]",
          "name": "",
          "type": "uint256[]"
        }
      ],
      "stateMutability": "view",
      "type": "function"
    },
    {
      "inputs": [],
      "name": "getSuperBoxMintCost",
      "outputs": [
        {
          "internalType": "uint256",
          "name": "",
          "type": "uint256"
        }
      ],
      "stateMutability": "view",
      "type": "function"
    },
    {
      "inputs": [],
      "name": "getTokenLimit",
      "outputs": [
        {
          "internalType": "uint256",
          "name": "",
          "type": "uint256"
        }
      ],
      "stateMutability": "view",
      "type": "function"
    },
    {
      "inputs": [
        {
          "internalType": "uint256",
          "name": "rarity",
          "type": "uint256"
        },
        {
          "internalType": "uint256",
          "name": "level",
          "type": "uint256"
        }
      ],
      "name": "getUpgradeCost",
      "outputs": [
        {
          "internalType": "uint256",
          "name": "",
          "type": "uint256"
        }
      ],
      "stateMutability": "view",
      "type": "function"
    },
    {
      "inputs": [],
      "name": "getUpgradeCosts",
      "outputs": [
        {
          "internalType": "uint256[][]",
          "name": "",
          "type": "uint256[][]"
        }
      ],
      "stateMutability": "view",
      "type": "function"
    },
    {
      "inputs": [
        {
          "internalType": "bytes32",
          "name": "role",
          "type": "bytes32"
        },
        {
          "internalType": "address",
          "name": "account",
          "type": "address"
        }
      ],
      "name": "grantRole",
      "outputs": [],
      "stateMutability": "nonpayable",
      "type": "function"
    },
    {
      "inputs": [
        {
          "internalType": "bytes32",
          "name": "role",
          "type": "bytes32"
        },
        {
          "internalType": "address",
          "name": "account",
          "type": "address"
        }
      ],
      "name": "hasRole",
      "outputs": [
        {
          "internalType": "bool",
          "name": "",
          "type": "bool"
        }
      ],
      "stateMutability": "view",
      "type": "function"
    },
    {
      "inputs": [],
      "name": "initialize",
      "outputs": [],
      "stateMutability": "nonpayable",
      "type": "function"
    },
    {
      "inputs": [],
      "name": "proxiableUUID",
      "outputs": [
        {
          "internalType": "bytes32",
          "name": "",
          "type": "bytes32"
        }
      ],
      "stateMutability": "view",
      "type": "function"
    },
    {
      "inputs": [
        {
          "internalType": "uint256",
          "name": "seed",
          "type": "uint256"
        },
        {
          "internalType": "uint256",
          "name": "_details",
          "type": "uint256"
        }
      ],
      "name": "randomizeAbilities",
      "outputs": [
        {
          "internalType": "uint256",
          "name": "nextSeed",
          "type": "uint256"
        },
        {
          "internalType": "uint256",
          "name": "encodedDetails",
          "type": "uint256"
        }
      ],
      "stateMutability": "view",
      "type": "function"
    },
    {
      "inputs": [
        {
          "internalType": "bytes32",
          "name": "role",
          "type": "bytes32"
        },
        {
          "internalType": "address",
          "name": "account",
          "type": "address"
        }
      ],
      "name": "renounceRole",
      "outputs": [],
      "stateMutability": "nonpayable",
      "type": "function"
    },
    {
      "inputs": [
        {
          "internalType": "bytes32",
          "name": "role",
          "type": "bytes32"
        },
        {
          "internalType": "address",
          "name": "account",
          "type": "address"
        }
      ],
      "name": "revokeRole",
      "outputs": [],
      "stateMutability": "nonpayable",
      "type": "function"
    },
    {
      "inputs": [
        {
          "internalType": "uint256[]",
          "name": "value",
          "type": "uint256[]"
        }
      ],
      "name": "setAbilityRate",
      "outputs": [],
      "stateMutability": "nonpayable",
      "type": "function"
    },
    {
      "inputs": [
        {
          "internalType": "uint256[]",
          "name": "value",
          "type": "uint256[]"
        }
      ],
      "name": "setDropRate",
      "outputs": [],
      "stateMutability": "nonpayable",
      "type": "function"
    },
    {
      "inputs": [
        {
          "internalType": "uint256[]",
          "name": "value",
          "type": "uint256[]"
        }
      ],
      "name": "setDropRateHeroS",
      "outputs": [],
      "stateMutability": "nonpayable",
      "type": "function"
    },
    {
      "inputs": [
        {
          "internalType": "uint256",
          "name": "value",
          "type": "uint256"
        }
      ],
      "name": "setMaxLevel",
      "outputs": [],
      "stateMutability": "nonpayable",
      "type": "function"
    },
    {
      "inputs": [
        {
          "internalType": "uint256",
          "name": "value",
          "type": "uint256"
        }
      ],
      "name": "setMintCost",
      "outputs": [],
      "stateMutability": "nonpayable",
      "type": "function"
    },
    {
      "inputs": [
        {
          "internalType": "uint256",
          "name": "value",
          "type": "uint256"
        }
      ],
      "name": "setMintCostHeroS",
      "outputs": [],
      "stateMutability": "nonpayable",
      "type": "function"
    },
    {
      "inputs": [
        {
          "internalType": "uint256",
          "name": "level",
          "type": "uint256"
        },
        {
          "internalType": "uint256[6]",
          "name": "value",
          "type": "uint256[6]"
        }
      ],
      "name": "setNumRockUpgradeShieldLevel",
      "outputs": [],
      "stateMutability": "nonpayable",
      "type": "function"
    },
    {
      "inputs": [
        {
          "internalType": "uint256",
          "name": "rarity",
          "type": "uint256"
        },
        {
          "internalType": "uint256",
          "name": "minCost",
          "type": "uint256"
        },
        {
          "internalType": "uint256",
          "name": "maxCost",
          "type": "uint256"
        },
        {
          "internalType": "uint256",
          "name": "incrementalCost",
          "type": "uint256"
        }
      ],
      "name": "setRandomizeAbilityCost",
      "outputs": [],
      "stateMutability": "nonpayable",
      "type": "function"
    },
    {
      "inputs": [
        {
          "internalType": "uint256",
          "name": "rarity",
          "type": "uint256"
        },
        {
          "components": [
            {
              "components": [
                {
                  "internalType": "uint256",
                  "name": "min",
                  "type": "uint256"
                },
                {
                  "internalType": "uint256",
                  "name": "max",
                  "type": "uint256"
                }
              ],
              "internalType": "struct BHeroDesign.StatsRange",
              "name": "stamina",
              "type": "tuple"
            },
            {
              "components": [
                {
                  "internalType": "uint256",
                  "name": "min",
                  "type": "uint256"
                },
                {
                  "internalType": "uint256",
                  "name": "max",
                  "type": "uint256"
                }
              ],
              "internalType": "struct BHeroDesign.StatsRange",
              "name": "speed",
              "type": "tuple"
            },
            {
              "internalType": "uint256",
              "name": "bombCount",
              "type": "uint256"
            },
            {
              "components": [
                {
                  "internalType": "uint256",
                  "name": "min",
                  "type": "uint256"
                },
                {
                  "internalType": "uint256",
                  "name": "max",
                  "type": "uint256"
                }
              ],
              "internalType": "struct BHeroDesign.StatsRange",
              "name": "bombPower",
              "type": "tuple"
            },
            {
              "internalType": "uint256",
              "name": "bombRange",
              "type": "uint256"
            },
            {
              "internalType": "uint256",
              "name": "ability",
              "type": "uint256"
            }
          ],
          "internalType": "struct BHeroDesign.Stats",
          "name": "stats",
          "type": "tuple"
        }
      ],
      "name": "setRarityStats",
      "outputs": [],
      "stateMutability": "nonpayable",
      "type": "function"
    },
    {
      "inputs": [
        {
          "internalType": "uint256",
          "name": "value",
          "type": "uint256"
        }
      ],
      "name": "setSenMintCost",
      "outputs": [],
      "stateMutability": "nonpayable",
      "type": "function"
    },
    {
      "inputs": [
        {
          "internalType": "uint256",
          "name": "value",
          "type": "uint256"
        }
      ],
      "name": "setSenMintCostHeroS",
      "outputs": [],
      "stateMutability": "nonpayable",
      "type": "function"
    },
    {
      "inputs": [
        {
          "internalType": "uint256[]",
          "name": "value",
          "type": "uint256[]"
        }
      ],
      "name": "setSkinVal",
      "outputs": [],
      "stateMutability": "nonpayable",
      "type": "function"
    },
    {
      "inputs": [
        {
          "internalType": "uint256[]",
          "name": "value",
          "type": "uint256[]"
        }
      ],
      "name": "setSuperBoxDropRate",
      "outputs": [],
      "stateMutability": "nonpayable",
      "type": "function"
    },
    {
      "inputs": [
        {
          "internalType": "uint256",
          "name": "value",
          "type": "uint256"
        }
      ],
      "name": "setSuperBoxMintCost",
      "outputs": [],
      "stateMutability": "nonpayable",
      "type": "function"
    },
    {
      "inputs": [
        {
          "internalType": "uint256",
          "name": "value",
          "type": "uint256"
        }
      ],
      "name": "setTokenLimit",
      "outputs": [],
      "stateMutability": "nonpayable",
      "type": "function"
    },
    {
      "inputs": [
        {
          "internalType": "uint256[][]",
          "name": "value",
          "type": "uint256[][]"
        }
      ],
      "name": "setUpgradeCosts",
      "outputs": [],
      "stateMutability": "nonpayable",
      "type": "function"
    },
    {
      "inputs": [
        {
          "internalType": "bytes4",
          "name": "interfaceId",
          "type": "bytes4"
        }
      ],
      "name": "supportsInterface",
      "outputs": [
        {
          "internalType": "bool",
          "name": "",
          "type": "bool"
        }
      ],
      "stateMutability": "view",
      "type": "function"
    },
    {
      "inputs": [
        {
          "internalType": "address",
          "name": "newImplementation",
          "type": "address"
        }
      ],
      "name": "upgradeTo",
      "outputs": [],
      "stateMutability": "nonpayable",
      "type": "function"
    },
    {
      "inputs": [
        {
          "internalType": "address",
          "name": "newImplementation",
          "type": "address"
        },
        {
          "internalType": "bytes",
          "name": "data",
          "type": "bytes"
        }
      ],
      "name": "upgradeToAndCall",
      "outputs": [],
      "stateMutability": "payable",
      "type": "function"
    }
  ],
  "bytecode": "0x60a06040523060805234801561001457600080fd5b50608051614caa61004c60003960008181610e4601528181610edc01528181611064015281816110fa01526111f10152614caa6000f3fe60806040526004361061031d5760003560e01c8063757aa181116101a5578063c133cf54116100ec578063df064ad811610095578063f50576521161006f578063f5057652146108ca578063f72c0d8b146108e0578063f988c0d214610914578063fa3a515f1461092957600080fd5b8063df064ad814610856578063dfe3daa31461088a578063efb947f1146108aa57600080fd5b8063da1e6ba4116100c6578063da1e6ba4146107f6578063da6a074c14610816578063deed88971461083657600080fd5b8063c133cf5414610796578063d547741f146107b6578063d55921b8146107d657600080fd5b806391d148541161014e578063b05b7b5811610128578063b05b7b5814610736578063bc0dfa0914610756578063c0e68fec1461077657600080fd5b806391d14854146106a65780639a356327146106ec578063a217fddf1461072157600080fd5b80638859c89d1161017f5780638859c89d146106425780638b3c88b4146106625780639010200a1461068457600080fd5b8063757aa181146105f95780638129fc1c1461060d5780638545f4ea1461062257600080fd5b80633659cfe6116102695780635603b5191161021257806368cdbe36116101ec57806368cdbe36146105b95780636da46a67146105ce578063745f418f146105e357600080fd5b80635603b51914610563578063607b63fd14610583578063648abe57146105a357600080fd5b80634830dfa5116102435780634830dfa51461051b5780634f1ef2861461053b57806352d1902d1461054e57600080fd5b80633659cfe6146104c55780633798fe56146104e55780633ee4f036146104fb57600080fd5b8063294b3db5116102cb578063344f1ba5116102a5578063344f1ba51461046557806335a664841461048557806336568abe146104a557600080fd5b8063294b3db51461040e5780632f2ff15d1461042e57806331ad35791461045057600080fd5b806316b0f8e6116102fc57806316b0f8e61461039c578063248a9ca3146103c957806328485586146103f957600080fd5b8062736cf31461032257806301ffc9a71461034d57806313c738f01461037d575b600080fd5b34801561032e57600080fd5b5061033761093f565b6040516103449190614385565b60405180910390f35b34801561035957600080fd5b5061036d61036836600461442d565b6109d9565b6040519015158152602001610344565b34801561038957600080fd5b5060ff545b604051908152602001610344565b3480156103a857600080fd5b506103bc6103b736600461446f565b6109ea565b604051610344919061449b565b3480156103d557600080fd5b5061038e6103e43660046144df565b60009081526065602052604090206001015490565b34801561040557600080fd5b5060fd5461038e565b34801561041a57600080fd5b5061038e6104293660046144f8565b610c60565b34801561043a57600080fd5b5061044e610449366004614536565b610cbe565b005b34801561045c57600080fd5b506103bc610ce8565b34801561047157600080fd5b5061044e6104803660046144df565b610d41565b34801561049157600080fd5b5061044e6104a036600461465c565b610d72565b3480156104b157600080fd5b5061044e6104c0366004614536565b610db0565b3480156104d157600080fd5b5061044e6104e0366004614691565b610e3c565b3480156104f157600080fd5b506101005461038e565b34801561050757600080fd5b5061044e61051636600461465c565b610fd9565b34801561052757600080fd5b5061038e6105363660046144f8565b611016565b61044e6105493660046146ac565b61105a565b34801561055a57600080fd5b5061038e6111e4565b34801561056f57600080fd5b5061044e61057e3660046144df565b6112a9565b34801561058f57600080fd5b5061038e61059e3660046144f8565b6112da565b3480156105af57600080fd5b506101075461038e565b3480156105c557600080fd5b506103bc611302565b3480156105da57600080fd5b506103bc611359565b3480156105ef57600080fd5b506101095461038e565b34801561060557600080fd5b50600061038e565b34801561061957600080fd5b5061044e6113b0565b34801561062e57600080fd5b5061044e61063d3660046144df565b6124cf565b34801561064e57600080fd5b5061044e61065d36600461465c565b6124ff565b34801561066e57600080fd5b5061067761253d565b6040516103449190614752565b34801561069057600080fd5b5061069961265f565b6040516103449190614807565b3480156106b257600080fd5b5061036d6106c1366004614536565b60009182526065602090815260408084206001600160a01b0393909316845291905290205460ff1690565b3480156106f857600080fd5b5061070c6107073660046144f8565b6126d4565b60408051928352602083019190915201610344565b34801561072d57600080fd5b5061038e600081565b34801561074257600080fd5b5061044e610751366004614853565b612710565b34801561076257600080fd5b5061044e61077136600461465c565b61287f565b34801561078257600080fd5b5061044e6107913660046144df565b6128bd565b3480156107a257600080fd5b5061044e6107b13660046148d4565b6128ed565b3480156107c257600080fd5b5061044e6107d1366004614536565b61297d565b3480156107e257600080fd5b5061044e6107f1366004614963565b6129a2565b34801561080257600080fd5b5061044e6108113660046144df565b6129f5565b34801561082257600080fd5b5061044e6108313660046149cf565b612a26565b34801561084257600080fd5b5061044e6108513660046144df565b612a64565b34801561086257600080fd5b5061038e7f22c69ab406805e70d07fb1a6502af760601d3b977beadb295a9d76d5852e16a381565b34801561089657600080fd5b5061044e6108a536600461465c565b612a95565b3480156108b657600080fd5b5061044e6108c53660046144df565b612ad3565b3480156108d657600080fd5b506101085461038e565b3480156108ec57600080fd5b5061038e7f189ab7a9244df0848122154315af71fe140f3db0fe014031783b0946b8c9d2e381565b34801561092057600080fd5b506103bc612b04565b34801561093557600080fd5b506101065461038e565b6060610101805480602002602001604051908101604052809291908181526020016000905b828210156109d0576000848152602090819020830180546040805182850281018501909152818152928301828280156109bc57602002820191906000526020600020905b8154815260200190600101908083116109a8575b505050505081526020019060010190610964565b50505050905090565b60006109e482612b5a565b92915050565b60608267ffffffffffffffff811115610a0557610a05614559565b604051908082528060200260200182016040528015610a2e578160200160208202803683370190505b5090506000633fffffff8316601f602885901c16828167ffffffffffffffff811115610a5c57610a5c614559565b604051908082528060200260200182016040528015610a85578160200160208202803683370190505b50905060005b82811015610ad557610a9e81600f614a96565b610aa990602d614aad565b87901c617fff16828281518110610ac257610ac2614ac0565b6020908102919091010152600101610a8b565b50824311610b2a5760405162461bcd60e51b815260206004820152601860248201527f54617267657420626c6f636b206e6f742061727269766564000000000000000060448201526064015b60405180910390fd5b82406000819003610bbf5784610b92578215610b8d5760005b83811015610b87576000838281518110610b5f57610b5f614ac0565b60200260200101511115610b7f57610b78816001614aad565b9550610b87565b600101610b43565b50610b92565b600194505b610ba360ff85164360ff1916614aad565b9350438410610bbb57610bb861010085614ad6565b93505b5082405b60005b88811015610c53576000610bd6828c614aad565b905060008382604051602001610bf6929190918252602082015260400190565b6040516020818303038152906040528051906020012060001c90506000610c2082848b8e8a612bf1565b905080915050808a8581518110610c3957610c39614ac0565b602002602001018181525050505050806001019050610bc2565b5050505050509392505050565b6000806101038481548110610c7757610c77614ac0565b906000526020600020906003020190506000838260020154610c999190614a96565b8254610ca59190614aad565b9050610cb5818360010154612fb8565b95945050505050565b600082815260656020526040902060010154610cd981612fd0565b610ce38383612fda565b505050565b6060610102805480602002602001604051908101604052809291908181526020018280548015610d3757602002820191906000526020600020905b815481526020019060010190808311610d23575b5050505050905090565b7f22c69ab406805e70d07fb1a6502af760601d3b977beadb295a9d76d5852e16a3610d6b81612fd0565b5061010055565b7f22c69ab406805e70d07fb1a6502af760601d3b977beadb295a9d76d5852e16a3610d9c81612fd0565b8151610ce390610105906020850190614103565b6001600160a01b0381163314610e2e5760405162461bcd60e51b815260206004820152602f60248201527f416363657373436f6e74726f6c3a2063616e206f6e6c792072656e6f756e636560448201527f20726f6c657320666f722073656c6600000000000000000000000000000000006064820152608401610b21565b610e38828261307c565b5050565b6001600160a01b037f0000000000000000000000000000000000000000000000000000000000000000163003610eda5760405162461bcd60e51b815260206004820152602c60248201527f46756e6374696f6e206d7573742062652063616c6c6564207468726f7567682060448201527f64656c656761746563616c6c00000000000000000000000000000000000000006064820152608401610b21565b7f00000000000000000000000000000000000000000000000000000000000000006001600160a01b0316610f357f360894a13ba1a3210667c828492db98dca3e2076cc3735a920a3ca505d382bbc546001600160a01b031690565b6001600160a01b031614610fb15760405162461bcd60e51b815260206004820152602c60248201527f46756e6374696f6e206d7573742062652063616c6c6564207468726f7567682060448201527f6163746976652070726f787900000000000000000000000000000000000000006064820152608401610b21565b610fba816130ff565b60408051600080825260208201909252610fd691839190613129565b50565b7f22c69ab406805e70d07fb1a6502af760601d3b977beadb295a9d76d5852e16a361100381612fd0565b8151610ce39060fe906020850190614103565b6000610101838154811061102c5761102c614ac0565b90600052602060002001828154811061104757611047614ac0565b9060005260206000200154905092915050565b6001600160a01b037f00000000000000000000000000000000000000000000000000000000000000001630036110f85760405162461bcd60e51b815260206004820152602c60248201527f46756e6374696f6e206d7573742062652063616c6c6564207468726f7567682060448201527f64656c656761746563616c6c00000000000000000000000000000000000000006064820152608401610b21565b7f00000000000000000000000000000000000000000000000000000000000000006001600160a01b03166111537f360894a13ba1a3210667c828492db98dca3e2076cc3735a920a3ca505d382bbc546001600160a01b031690565b6001600160a01b0316146111cf5760405162461bcd60e51b815260206004820152602c60248201527f46756e6374696f6e206d7573742062652063616c6c6564207468726f7567682060448201527f6163746976652070726f787900000000000000000000000000000000000000006064820152608401610b21565b6111d8826130ff565b610e3882826001613129565b6000306001600160a01b037f000000000000000000000000000000000000000000000000000000000000000016146112845760405162461bcd60e51b815260206004820152603860248201527f555550535570677261646561626c653a206d757374206e6f742062652063616c60448201527f6c6564207468726f7567682064656c656761746563616c6c00000000000000006064820152608401610b21565b507f360894a13ba1a3210667c828492db98dca3e2076cc3735a920a3ca505d382bbc90565b7f22c69ab406805e70d07fb1a6502af760601d3b977beadb295a9d76d5852e16a36112d381612fd0565b5061010855565b600061010b82600681106112f0576112f0614ac0565b01838154811061104757611047614ac0565b606061010a805480602002602001604051908101604052809291908181526020018280548015610d375760200282019190600052602060002090815481526020019060010190808311610d23575050505050905090565b6060610105805480602002602001604051908101604052809291908181526020018280548015610d375760200282019190600052602060002090815481526020019060010190808311610d23575050505050905090565b600054610100900460ff16158080156113d05750600054600160ff909116105b806113ea5750303b1580156113ea575060005460ff166001145b61145c5760405162461bcd60e51b815260206004820152602e60248201527f496e697469616c697a61626c653a20636f6e747261637420697320616c72656160448201527f647920696e697469616c697a65640000000000000000000000000000000000006064820152608401610b21565b6000805460ff19166001179055801561147f576000805461ff0019166101001790555b6114876132c9565b61148f6132c9565b61149a600033613348565b6114c47f189ab7a9244df0848122154315af71fe140f3db0fe014031783b0946b8c9d2e333613348565b6114ee7f22c69ab406805e70d07fb1a6502af760601d3b977beadb295a9d76d5852e16a333613348565b6040518060c001604052806040518060400160405280600181526020016003815250815260200160405180604001604052806001815260200160038152508152602001600181526020016040518060400160405280600181526020016003815250815260200160018152602001600181525060fb6000808152602001908152602001600020600082015181600001600082015181600001556020820151816001015550506020820151816002016000820151816000015560208201518160010155505060408201518160040155606082015181600501600082015181600001556020820151816001015550506080820151816007015560a082015181600801559050506040518060c001604052806040518060400160405280600381526020016006815250815260200160405180604001604052806003815260200160068152508152602001600281526020016040518060400160405280600381526020016006815250815260200160028152602001600281525060fb600060018152602001908152602001600020600082015181600001600082015181600001556020820151816001015550506020820151816002016000820151816000015560208201518160010155505060408201518160040155606082015181600501600082015181600001556020820151816001015550506080820151816007015560a082015181600801559050506040518060c001604052806040518060400160405280600681526020016009815250815260200160405180604001604052806006815260200160098152508152602001600381526020016040518060400160405280600681526020016009815250815260200160038152602001600381525060fb600060028152602001908152602001600020600082015181600001600082015181600001556020820151816001015550506020820151816002016000820151816000015560208201518160010155505060408201518160040155606082015181600501600082015181600001556020820151816001015550506080820151816007015560a082015181600801559050506040518060c00160405280604051806040016040528060098152602001600c8152508152602001604051806040016040528060098152602001600c815250815260200160048152602001604051806040016040528060098152602001600c815250815260200160048152602001600481525060fb600060038152602001908152602001600020600082015181600001600082015181600001556020820151816001015550506020820151816002016000820151816000015560208201518160010155505060408201518160040155606082015181600501600082015181600001556020820151816001015550506080820151816007015560a082015181600801559050506040518060c001604052806040518060400160405280600c8152602001600f81525081526020016040518060400160405280600c8152602001600f8152508152602001600581526020016040518060400160405280600c8152602001600f815250815260200160058152602001600581525060fb600060048152602001908152602001600020600082015181600001600082015181600001556020820151816001015550506020820151816002016000820151816000015560208201518160010155505060408201518160040155606082015181600501600082015181600001556020820151816001015550506080820151816007015560a082015181600801559050506040518060c001604052806040518060400160405280600f8152602001601281525081526020016040518060400160405280600f815260200160128152508152602001600681526020016040518060400160405280600f81526020016012815250815260200160068152602001600681525060fb600060058152602001908152602001600020600082015181600001600082015181600001556020820151816001015550506020820151816002016000820151816000015560208201518160010155505060408201518160040155606082015181600501600082015181600001556020820151816001015550506080820151816007015560a082015181600801559050506040518060e00160405280600160ff168152602001600260ff168152602001600360ff168152602001600460ff168152602001600560ff168152602001600660ff168152602001600760ff1681525060fc906007611b6492919061414e565b506040805160e081018252600180825260026020830181905292820181905260608201819052608082015260a0810182905260c0810191909152611bad9061010290600761414e565b506101f460fd556040805160c08101825261205f815261040c6020820152610206918101919091526068606082015260346080820152600460a0820152611bf89060fe90600661418e565b50678ac7230489e8000060ff55674563918244f400006101075560056101005560408051608081018252670de0b6b3a76400008152671bc16d674ec800006020820152673782dace9d90000091810191909152676124fee993bc000060608201526101018054600181018255600091909152611c9a917f109ea3cebb188b9c1b9fc5bb3920be60dfdc8699098dff92f3d80daaca7476899091019060046141cf565b5060408051608081018252671bc16d674ec800008152673782dace9d9000006020820152674563918244f4000091810191909152677ce66c50e284000060608201526101018054600181018255600091909152611d1d917f109ea3cebb188b9c1b9fc5bb3920be60dfdc8699098dff92f3d80daaca7476899091019060046141cf565b5060408051608081018252671bc16d674ec800008152673782dace9d9000006020820152674563918244f4000091810191909152678ac7230489e8000060608201526101018054600181018255600091909152611da0917f109ea3cebb188b9c1b9fc5bb3920be60dfdc8699098dff92f3d80daaca7476899091019060046141cf565b50604080516080810182526729a2241af62c00008152676124fee993bc000060208201526798a7d9b8314c0000918101919091526801314fb3706298000060608201526101018054600181018255600091909152611e24917f109ea3cebb188b9c1b9fc5bb3920be60dfdc8699098dff92f3d80daaca747689909101906004614216565b5060408051608081018252676124fee993bc0000815267f9ccd8a1c5080000602082015268022b1c8c1227a00000918101919091526807ea2832757708000060608201526101018054600181018255600091909152611ea9917f109ea3cebb188b9c1b9fc5bb3920be60dfdc8699098dff92f3d80daaca747689909101906004614216565b5060408051608081018252677ce66c50e2840000815268015af1d78b58c40000602082015268030927f74c9de0000091810191909152680ac9ae05a71ebc000060608201526101018054600181018255600091909152611f2f917f109ea3cebb188b9c1b9fc5bb3920be60dfdc8699098dff92f3d80daaca747689909101906004614216565b506101036040518060600160405280671bc16d674ec800008152602001671bc16d674ec8000081526020016000815250908060018154018082558091505060019003906000526020600020906003020160009091909190915060008201518160000155602082015181600101556040820151816002015550506101036040518060600160405280674563918244f400008152602001678ac7230489e800008152602001670de0b6b3a7640000815250908060018154018082558091505060019003906000526020600020906003020160009091909190915060008201518160000155602082015181600101556040820151816002015550506101036040518060600160405280678ac7230489e8000081526020016801158e460913d000008152602001671bc16d674ec800008152509080600181540180825580915050600190039060005260206000209060030201600090919091909150600082015181600001556020820151816001015560408201518160020155505061010360405180606001604052806801158e460913d00000815260200168022b1c8c1227a000008152602001673782dace9d9000008152509080600181540180825580915050600190039060005260206000209060030201600090919091909150600082015181600001556020820151816001015560408201518160020155505061010360405180606001604052806801e5b8fa8fe2ac00008152602001680340aad21b3b7000008152602001674563918244f400008152509080600181540180825580915050600190039060005260206000209060030201600090919091909150600082015181600001556020820151816001015560408201518160020155505061010360405180606001604052806802b5e3af16b188000081526020016804563918244f40000081526020016753444835ec58000081525090806001815401808255809150506001900390600052602060002090600302016000909190919091506000820151816000015560208201518160010155604082015181600201555050600a610104819055506040518060c001604052806120e861ffff16815260200161040c61ffff1681526020016101a261ffff168152602001603361ffff168152602001601561ffff168152602001603261ffff1681525061010590600661229292919061418e565b506802b5e3af16b188000061010655680270801d946c94000061010855678ac7230489e80000610109556040805160c08101825261205f815261040c6020820152610206918101919091526068606082015260346080820152600460a08201526123019061010a90600661418e565b506040805160c081018252600080825260208201819052918101829052606081018290526080810182905260a08101919091526123439061010b90600661414e565b506040805160c081018252600181526002602082015260049181019190915260066060820181905260086080830152600a60a08301526123869161010c9161414e565b506040805160c081018252600181526002602082015260049181019190915260066060820181905260086080830152600a60a08301526123c99161010d9161414e565b506040805160c081018252600181526002602082015260049181019190915260066060820181905260086080830152600a60a083015261240c9161010e9161414e565b50604080516101a08101825260018152600260208201526003918101919091526004606082015260056080820152600660a0820152600760c0820152600860e08201526009610100820152600a610120820152600e610140820152600f61016082015260106101808201526124869061011190600d61414e565b508015610fd6576000805461ff0019169055604051600181527f7f26b83ff96e1f2b6a682f133852f6798a09c465da95921460cefb38474024989060200160405180910390a150565b7f22c69ab406805e70d07fb1a6502af760601d3b977beadb295a9d76d5852e16a36124f981612fd0565b5060ff55565b7f22c69ab406805e70d07fb1a6502af760601d3b977beadb295a9d76d5852e16a361252981612fd0565b8151610ce390610111906020850190614103565b60fe5460609060008167ffffffffffffffff81111561255e5761255e614559565b60405190808252806020026020018201604052801561259757816020015b61258461425e565b81526020019060019003908161257c5790505b50905060005b8281101561265857600081815260fb6020908152604091829020825161010081018452815460c08201908152600183015460e0830152815283518085018552600283015481526003830154818501528184015260048201548185015283518085019094526005820154845260068201549284019290925260608201929092526007820154608082015260089091015460a0820152825183908390811061264557612645614ac0565b602090810291909101015260010161259d565b5092915050565b6060610103805480602002602001604051908101604052809291908181526020016000905b828210156109d05783829060005260206000209060030201604051806060016040529081600082015481526020016001820154815260200160028201548152505081526020019060010190612684565b60008060006126e284613352565b90506126f285826040015161360f565b6101808301529450849250612706816136c3565b9150509250929050565b7f22c69ab406805e70d07fb1a6502af760601d3b977beadb295a9d76d5852e16a361273a81612fd0565b61010354851015612781576000610103868154811061275b5761275b614ac0565b600091825260209091206003909102018581556001810185905560020183905550612878565b6101035485146127d35760405162461bcd60e51b815260206004820152600e60248201527f496e76616c6964207261726974790000000000000000000000000000000000006044820152606401610b21565b6040805160608101825285815260208101858152918101848152610103805460018101825560009190915291517f02c297ab74aad0aede3a1895c857b1f2c71e6a203feb727bec95ac752998cb7860039093029283015591517f02c297ab74aad0aede3a1895c857b1f2c71e6a203feb727bec95ac752998cb7982015590517f02c297ab74aad0aede3a1895c857b1f2c71e6a203feb727bec95ac752998cb7a909101555b5050505050565b7f22c69ab406805e70d07fb1a6502af760601d3b977beadb295a9d76d5852e16a36128a981612fd0565b8151610ce39061010a906020850190614103565b7f22c69ab406805e70d07fb1a6502af760601d3b977beadb295a9d76d5852e16a36128e781612fd0565b5060fd55565b7f22c69ab406805e70d07fb1a6502af760601d3b977beadb295a9d76d5852e16a361291781612fd0565b50600091825260fb6020908152604092839020825180518255820151600182015581830151805160028301558201516003820155928201516004840155606082015180516005850155015160068301556080810151600783015560a00151600890910155565b60008281526065602052604090206001015461299881612fd0565b610ce3838361307c565b7f22c69ab406805e70d07fb1a6502af760601d3b977beadb295a9d76d5852e16a36129cc81612fd0565b8161010b84600681106129e1576129e1614ac0565b6129ef929101906006614103565b50505050565b7f22c69ab406805e70d07fb1a6502af760601d3b977beadb295a9d76d5852e16a3612a1f81612fd0565b5061010955565b7f22c69ab406805e70d07fb1a6502af760601d3b977beadb295a9d76d5852e16a3612a5081612fd0565b8151610ce3906101019060208501906142dc565b7f22c69ab406805e70d07fb1a6502af760601d3b977beadb295a9d76d5852e16a3612a8e81612fd0565b5061010755565b7f22c69ab406805e70d07fb1a6502af760601d3b977beadb295a9d76d5852e16a3612abf81612fd0565b8151610ce390610102906020850190614103565b7f22c69ab406805e70d07fb1a6502af760601d3b977beadb295a9d76d5852e16a3612afd81612fd0565b5061010655565b606060fe805480602002602001604051908101604052809291908181526020018280548015610d375760200282019190600052602060002090815481526020019060010190808311610d23575050505050905090565b60007fffffffff0000000000000000000000000000000000000000000000000000000082167f7965db0b0000000000000000000000000000000000000000000000000000000014806109e457507f01ffc9a7000000000000000000000000000000000000000000000000000000007fffffffff000000000000000000000000000000000000000000000000000000008316146109e4565b600080612c826040518061024001604052806000815260200160008152602001600081526020016000815260200160008152602001600081526020016000815260200160008152602001600081526020016000815260200160008152602001600081526020016060815260200160008152602001600081526020016060815260200160008152602001600081525090565b86815287601f601e87901c8116906001602389901c811681149160878a901c1690600384149084148315612cf95760408051600180825281830190925260009160208083019080368337019050509050600181600081518110612ce757612ce7614ac0565b60209081029190910101526101e08801525b8b612dcd57612dc18682612d6c5760008c5111612d665760fe805480602002602001604051908101604052809291908181526020018280548015612d5c57602002820191906000526020600020905b815481526020019060010190808311612d48575b505050505061388c565b8b61388c565b610105805480602002602001604051908101604052809291908181526020018280548015612d5c5760200282019190600052602060002090815481526020019060010190808311612d4857505050505061388c565b60408901529550612dde565b612dd860018d614ad6565b60408801525b8115612e605760008060005b8c51811015612e3c578c8181518110612e0557612e05614ac0565b6020026020010151821015612e34578c8181518110612e2657612e26614ac0565b602002602001015191508092505b600101612dea565b5088604001518214612e5d578760009a509a50505050505050505050612fae565b50505b600160608801819052604080890151600090815260fb6020522060048101546101208a015260078101546101608a015290612e9e9088906005613995565b60808a0152965083612f0457610111546000908190612ebf90600190614ad6565b905088612ece81600084613995565b809450819b5050506101118381548110612eea57612eea614ac0565b60009182526020909120015460a08c015250612f0c915050565b60a088018490525b80546001820154612f1e918991613995565b60c08a015260028201546003830154919850612f3c91899190613995565b60e08a01529650612f508760016014613995565b6101008a015260058201546006830154919850612f6f91899190613995565b6101408a01526040890151909750612f8890889061360f565b6101808a0152436101a08a01529950899650612fa3886136c3565b985050505050505050505b9550959350505050565b6000818310612fc75781612fc9565b825b9392505050565b610fd681336139b9565b60008281526065602090815260408083206001600160a01b038516845290915290205460ff16610e385760008281526065602090815260408083206001600160a01b03851684529091529020805460ff191660011790556130383390565b6001600160a01b0316816001600160a01b0316837f2f8788117e7eff1d82e926ec794901d17c78024a50270940304540a733656f0d60405160405180910390a45050565b60008281526065602090815260408083206001600160a01b038516845290915290205460ff1615610e385760008281526065602090815260408083206001600160a01b0385168085529252808320805460ff1916905551339285917ff6391f5c32d9c69d2a47ea670b442974b53935d1edc7fd64eb21e047a839171b9190a45050565b7f189ab7a9244df0848122154315af71fe140f3db0fe014031783b0946b8c9d2e3610e3881612fd0565b7f4910fdfa16fed3260ed0e7147f7cc6da11a60208b5b9406d12a635614ffd91435460ff161561315c57610ce383613a2e565b826001600160a01b03166352d1902d6040518163ffffffff1660e01b8152600401602060405180830381865afa9250505080156131b6575060408051601f3d908101601f191682019092526131b391810190614ae9565b60015b6132285760405162461bcd60e51b815260206004820152602e60248201527f45524331393637557067726164653a206e657720696d706c656d656e7461746960448201527f6f6e206973206e6f7420555550530000000000000000000000000000000000006064820152608401610b21565b7f360894a13ba1a3210667c828492db98dca3e2076cc3735a920a3ca505d382bbc81146132bd5760405162461bcd60e51b815260206004820152602960248201527f45524331393637557067726164653a20756e737570706f727465642070726f7860448201527f6961626c655555494400000000000000000000000000000000000000000000006064820152608401610b21565b50610ce3838383613b04565b600054610100900460ff166133465760405162461bcd60e51b815260206004820152602b60248201527f496e697469616c697a61626c653a20636f6e7472616374206973206e6f74206960448201527f6e697469616c697a696e670000000000000000000000000000000000000000006064820152608401610b21565b565b610e388282612fda565b6133e06040518061024001604052806000815260200160008152602001600081526020016000815260200160008152602001600081526020016000815260200160008152602001600081526020016000815260200160008152602001600081526020016060815260200160008152602001600081526020016060815260200160008152602001600081525090565b633fffffff82168152601e82901c6103ff166020820152602882901c601f166040820152602d82901c601f166060820152601f603283901c81811660808401526103e01660f584901c821690811760a0840152603c84901c821660c0840152604184901c821660e0840152604684901c8216610100840152604b84901c8216610120840152605084901c8216610140840152605584901c8216610160840152603784901c821691605a85901c168067ffffffffffffffff8111156134a6576134a6614559565b6040519080825280602002602001820160405280156134cf578160200160208202803683370190505b5061018085015260005b81811015613527576134ec816005614a96565b6134f790605f614aad565b86901c601f16856101800151828151811061351457613514614ac0565b60209081029190910101526001016134d9565b50609185901c633fffffff166101a085015260af85901c601f166101c0850152601f60b486901c168067ffffffffffffffff81111561356857613568614559565b604051908082528060200260200182016040528015613591578160200160208202803683370190505b506101e086015260005b818110156135e9576135ae816005614a96565b6135b99060b9614aad565b87901c601f16866101e0015182815181106135d6576135d6614ac0565b602090810291909101015260010161359b565b505050505060eb82901c601f1661022082015260f09190911c6103ff1661020082015290565b60006060600061010280548060200260200160405190810160405280929190818152602001828054801561366257602002820191906000526020600020905b81548152602001906001019080831161364e575b50505050509050836000036136935760008160028151811061368657613686614ac0565b6020026020010181815250505b600084815260fb6020526040902060088101546136b690879060fc908590613b29565b9097909650945050505050565b60a08101516000908190600581901c908290601f169050846000015183179250601e8560200151901b8317925060288560400151901b83179250602d8560600151901b8317925060328560800151901b83179250603781901b83179250603c8560c00151901b8317925060418560e00151901b831792506046856101000151901b83179250604b856101200151901b831792506050856101400151901b831792506055856101600151901b83179250605a85610180015151901b8317925060005b856101800151518110156137d85761379d816005614a96565b6137a890605f614aad565b86610180015182815181106137bf576137bf614ac0565b6020026020010151901b84179350806001019050613784565b506091856101a00151901b8317925060af856101c00151901b8317925060b4856101e0015151901b8317925060005b856101e001515181101561385b57613820816005614a96565b61382b9060b9614aad565b866101e00151828151811061384257613842614ac0565b6020026020010151901b84179350806001019050613807565b5060eb856102200151901b8317925060f0856102000151901b8317925060f582901b83179250829350505050919050565b60008060008351116138e05760405162461bcd60e51b815260206004820152601460248201527f4172726179206d757374206e6f7420656d7074790000000000000000000000006044820152606401610b21565b6000805b845181101561391c578481815181106138ff576138ff614ac0565b6020026020010151826139129190614aad565b91506001016138e4565b50600061392b86600084613c53565b90965090506000805b86518110156139825786818151811061394f5761394f614ac0565b6020026020010151826139629190614aad565b91508183101561397a57879550935061398e92505050565b600101613934565b50866000945094505050505b9250929050565b6000806139ad85856139a8866001614aad565b613c53565b91509150935093915050565b60008281526065602090815260408083206001600160a01b038516845290915290205460ff16610e38576139ec81613cd1565b6139f7836020613ce3565b604051602001613a08929190614b26565b60408051601f198184030181529082905262461bcd60e51b8252610b2191600401614ba7565b6001600160a01b0381163b613aab5760405162461bcd60e51b815260206004820152602d60248201527f455243313936373a206e657720696d706c656d656e746174696f6e206973206e60448201527f6f74206120636f6e7472616374000000000000000000000000000000000000006064820152608401610b21565b7f360894a13ba1a3210667c828492db98dca3e2076cc3735a920a3ca505d382bbc80547fffffffffffffffffffffffff0000000000000000000000000000000000000000166001600160a01b0392909216919091179055565b613b0d83613f0c565b600082511180613b1a5750805b15610ce3576129ef8383613f4c565b600060608285805490501015613b815760405162461bcd60e51b815260206004820152601560248201527f496e76616c69642073616d706c696e672073697a6500000000000000000000006044820152606401610b21565b8267ffffffffffffffff811115613b9a57613b9a614559565b604051908082528060200260200182016040528015613bc3578160200160208202803683370190505b5090506000805b84811015613c4657613bdc888761388c565b80935081995050506000868381518110613bf857613bf8614ac0565b602002602001018181525050868281548110613c1657613c16614ac0565b9060005260206000200154838281518110613c3357613c33614ac0565b6020908102919091010152600101613bca565b5095969095509350505050565b600080828410613ca55760405162461bcd60e51b815260206004820152601460248201527f496e76616c69642072616e646f6d2072616e67650000000000000000000000006044820152606401610b21565b613cb885613cb38686614ad6565b613f71565b9092509050613cc78482614aad565b9050935093915050565b60606109e46001600160a01b03831660145b60606000613cf2836002614a96565b613cfd906002614aad565b67ffffffffffffffff811115613d1557613d15614559565b6040519080825280601f01601f191660200182016040528015613d3f576020820181803683370190505b5090507f300000000000000000000000000000000000000000000000000000000000000081600081518110613d7657613d76614ac0565b60200101907effffffffffffffffffffffffffffffffffffffffffffffffffffffffffffff1916908160001a9053507f780000000000000000000000000000000000000000000000000000000000000081600181518110613dd957613dd9614ac0565b60200101907effffffffffffffffffffffffffffffffffffffffffffffffffffffffffffff1916908160001a9053506000613e15846002614a96565b613e20906001614aad565b90505b6001811115613ebd577f303132333435363738396162636465660000000000000000000000000000000085600f1660108110613e6157613e61614ac0565b1a60f81b828281518110613e7757613e77614ac0565b60200101907effffffffffffffffffffffffffffffffffffffffffffffffffffffffffffff1916908160001a90535060049490941c93613eb681614bda565b9050613e23565b508315612fc95760405162461bcd60e51b815260206004820181905260248201527f537472696e67733a20686578206c656e67746820696e73756666696369656e746044820152606401610b21565b613f1581613a2e565b6040516001600160a01b038216907fbc7cd75a20ee27fd9adebab32041f755214dbc6bffa90cc0225b39da2e5c2d3b90600090a250565b6060612fc98383604051806060016040528060278152602001614c4e60279139613f92565b600080613f7d8461400a565b9150613f898383614c0f565b90509250929050565b6060600080856001600160a01b031685604051613faf9190614c31565b600060405180830381855af49150503d8060008114613fea576040519150601f19603f3d011682016040523d82523d6000602084013e613fef565b606091505b509150915061400086838387614058565b9695505050505050565b600042614018600143614ad6565b6040805160208101939093529040908201524460608201526080810183905260a00160408051601f19818403018152919052805160209091012092915050565b606083156140c75782516000036140c0576001600160a01b0385163b6140c05760405162461bcd60e51b815260206004820152601d60248201527f416464726573733a2063616c6c20746f206e6f6e2d636f6e74726163740000006044820152606401610b21565b50816140d1565b6140d183836140d9565b949350505050565b8151156140e95781518083602001fd5b8060405162461bcd60e51b8152600401610b219190614ba7565b82805482825590600052602060002090810192821561413e579160200282015b8281111561413e578251825591602001919060010190614123565b5061414a929150614335565b5090565b82805482825590600052602060002090810192821561413e579160200282015b8281111561413e578251829060ff1690559160200191906001019061416e565b82805482825590600052602060002090810192821561413e579160200282015b8281111561413e578251829061ffff169055916020019190600101906141ae565b82805482825590600052602060002090810192821561413e579160200282015b8281111561413e578251829067ffffffffffffffff169055916020019190600101906141ef565b82805482825590600052602060002090810192821561413e579160200282015b8281111561413e578251829068ffffffffffffffffff16905591602001919060010190614236565b604080516101008101909152600060c0820181815260e08301919091528190815260200161429f604051806040016040528060008152602001600081525090565b8152602001600081526020016142c8604051806040016040528060008152602001600081525090565b815260200160008152602001600081525090565b828054828255906000526020600020908101928215614329579160200282015b828111156143295782518051614319918491602090910190614103565b50916020019190600101906142fc565b5061414a92915061434a565b5b8082111561414a5760008155600101614336565b8082111561414a57600061435e8282614367565b5060010161434a565b5080546000825590600052602060002090810190610fd69190614335565b6000602080830181845280855180835260408601915060408160051b87010192508387016000805b8381101561441f578886037fffffffffffffffffffffffffffffffffffffffffffffffffffffffffffffffc0018552825180518088529088019088880190845b818110156144095783518352928a0192918a01916001016143ed565b50909750505093860193918601916001016143ad565b509398975050505050505050565b60006020828403121561443f57600080fd5b81357fffffffff0000000000000000000000000000000000000000000000000000000081168114612fc957600080fd5b60008060006060848603121561448457600080fd5b505081359360208301359350604090920135919050565b6020808252825182820181905260009190848201906040850190845b818110156144d3578351835292840192918401916001016144b7565b50909695505050505050565b6000602082840312156144f157600080fd5b5035919050565b6000806040838503121561450b57600080fd5b50508035926020909101359150565b80356001600160a01b038116811461453157600080fd5b919050565b6000806040838503121561454957600080fd5b82359150613f896020840161451a565b634e487b7160e01b600052604160045260246000fd5b60405160c0810167ffffffffffffffff8111828210171561459257614592614559565b60405290565b604051601f8201601f1916810167ffffffffffffffff811182821017156145c1576145c1614559565b604052919050565b600067ffffffffffffffff8211156145e3576145e3614559565b5060051b60200190565b600082601f8301126145fe57600080fd5b8135602061461361460e836145c9565b614598565b8083825260208201915060208460051b87010193508684111561463557600080fd5b602086015b84811015614651578035835291830191830161463a565b509695505050505050565b60006020828403121561466e57600080fd5b813567ffffffffffffffff81111561468557600080fd5b6140d1848285016145ed565b6000602082840312156146a357600080fd5b612fc98261451a565b600080604083850312156146bf57600080fd5b6146c88361451a565b915060208084013567ffffffffffffffff808211156146e657600080fd5b818601915086601f8301126146fa57600080fd5b81358181111561470c5761470c614559565b61471e84601f19601f84011601614598565b9150808252878482850101111561473457600080fd5b80848401858401376000848284010152508093505050509250929050565b602080825282518282018190526000919060409081850190868401855b828110156147fa57815161478e85825180518252602090810151910152565b868101516147a88787018280518252602090810151910152565b5085810151608081818801526060830151915060a06147d38189018480518252602090810151910152565b9083015160e08801529091015161010086015250610120909301929085019060010161476f565b5091979650505050505050565b602080825282518282018190526000919060409081850190868401855b828110156147fa5781518051855286810151878601528501518585015260609093019290850190600101614824565b6000806000806080858703121561486957600080fd5b5050823594602084013594506040840135936060013592509050565b60006040828403121561489757600080fd5b6040516040810181811067ffffffffffffffff821117156148ba576148ba614559565b604052823581526020928301359281019290925250919050565b6000808284036101408112156148e957600080fd5b8335925061012080601f198301121561490157600080fd5b61490961456f565b91506149188660208701614885565b82526149278660608701614885565b602083015260a085013560408301526149438660c08701614885565b606083015261010085013560808301529093013560a08401525092909150565b60008060e0838503121561497657600080fd5b82359150602084603f85011261498b57600080fd5b61499361456f565b8060e08601878111156149a557600080fd5b602087015b818110156149c157803584529284019284016149aa565b509497909650945050505050565b600060208083850312156149e257600080fd5b823567ffffffffffffffff808211156149fa57600080fd5b818501915085601f830112614a0e57600080fd5b8135614a1c61460e826145c9565b81815260059190911b83018401908481019088831115614a3b57600080fd5b8585015b83811015614a7357803585811115614a575760008081fd5b614a658b89838a01016145ed565b845250918601918601614a3f565b5098975050505050505050565b634e487b7160e01b600052601160045260246000fd5b80820281158282048414176109e4576109e4614a80565b808201808211156109e4576109e4614a80565b634e487b7160e01b600052603260045260246000fd5b818103818111156109e4576109e4614a80565b600060208284031215614afb57600080fd5b5051919050565b60005b83811015614b1d578181015183820152602001614b05565b50506000910152565b7f416363657373436f6e74726f6c3a206163636f756e7420000000000000000000815260008351614b5e816017850160208801614b02565b7f206973206d697373696e6720726f6c65200000000000000000000000000000006017918401918201528351614b9b816028840160208801614b02565b01602801949350505050565b6020815260008251806020840152614bc6816040850160208701614b02565b601f01601f19169190910160400192915050565b600081614be957614be9614a80565b507fffffffffffffffffffffffffffffffffffffffffffffffffffffffffffffffff0190565b600082614c2c57634e487b7160e01b600052601260045260246000fd5b500690565b60008251614c43818460208701614b02565b919091019291505056fe416464726573733a206c6f772d6c6576656c2064656c65676174652063616c6c206661696c6564a2646970667358221220c800ea968d5e4bfe096a3f198b04b5dcc115f55165c68294269091cd7075284a64736f6c63430008180033",
  "linkReferences": {},
  "deployedLinkReferences": {}
}