{
  "_format": "hh-sol-artifact-1",
  "contractName": "MyNFT",
  "sourceName": "contracts/MyNFT.sol",
  "abi": [
    {
      "anonymous": false,
      "inputs": [
        {
          "indexed": true,
          "internalType": "address",
          "name": "owner",
          "type": "address"
        },
        {
          "indexed": true,
          "internalType": "address",
          "name": "approved",
          "type": "address"
        },
        {
          "indexed": true,
          "internalType": "uint256",
          "name": "tokenId",
          "type": "uint256"
        }
      ],
      "name": "Approval",
      "type": "event"
    },
    {
      "anonymous": false,
      "inputs": [
        {
          "indexed": true,
          "internalType": "address",
          "name": "owner",
          "type": "address"
        },
        {
          "indexed": true,
          "internalType": "address",
          "name": "operator",
          "type": "address"
        },
        {
          "indexed": false,
          "internalType": "bool",
          "name": "approved",
          "type": "bool"
        }
      ],
      "name": "ApprovalForAll",
      "type": "event"
    },
    {
      "anonymous": false,
      "inputs": [
        {
          "indexed": false,
          "internalType": "uint8",
          "name": "version",
          "type": "uint8"
        }
      ],
      "name": "Initialized",
      "type": "event"
    },
    {
      "anonymous": false,
      "inputs": [
        {
          "indexed": true,
          "internalType": "address",
          "name": "from",
          "type": "address"
        },
        {
          "indexed": true,
          "internalType": "address",
          "name": "to",
          "type": "address"
        },
        {
          "indexed": true,
          "internalType": "uint256",
          "name": "tokenId",
          "type": "uint256"
        }
      ],
      "name": "Transfer",
      "type": "event"
    },
    {
      "inputs": [
        {
          "internalType": "address",
          "name": "to",
          "type": "address"
        },
        {
          "internalType": "uint256",
          "name": "tokenId",
          "type": "uint256"
        }
      ],
      "name": "approve",
      "outputs": [],
      "stateMutability": "nonpayable",
      "type": "function"
    },
    {
      "inputs": [
        {
          "internalType": "address",
          "name": "owner",
          "type": "address"
        }
      ],
      "name": "balanceOf",
      "outputs": [
        {
          "internalType": "uint256",
          "name": "",
          "type": "uint256"
        }
      ],
      "stateMutability": "view",
      "type": "function"
    },
    {
      "inputs": [
        {
          "internalType": "uint256",
          "name": "tokenId",
          "type": "uint256"
        }
      ],
      "name": "getApproved",
      "outputs": [
        {
          "internalType": "address",
          "name": "",
          "type": "address"
        }
      ],
      "stateMutability": "view",
      "type": "function"
    },
    {
      "inputs": [],
      "name": "initialize",
      "outputs": [],
      "stateMutability": "nonpayable",
      "type": "function"
    },
    {
      "inputs": [
        {
          "internalType": "address",
          "name": "owner",
          "type": "address"
        },
        {
          "internalType": "address",
          "name": "operator",
          "type": "address"
        }
      ],
      "name": "isApprovedForAll",
      "outputs": [
        {
          "internalType": "bool",
          "name": "",
          "type": "bool"
        }
      ],
      "stateMutability": "view",
      "type": "function"
    },
    {
      "inputs": [
        {
          "internalType": "address",
          "name": "recipient",
          "type": "address"
        }
      ],
      "name": "mintNFT",
      "outputs": [
        {
          "internalType": "uint256",
          "name": "",
          "type": "uint256"
        }
      ],
      "stateMutability": "nonpayable",
      "type": "function"
    },
    {
      "inputs": [],
      "name": "name",
      "outputs": [
        {
          "internalType": "string",
          "name": "",
          "type": "string"
        }
      ],
      "stateMutability": "view",
      "type": "function"
    },
    {
      "inputs": [
        {
          "internalType": "uint256",
          "name": "tokenId",
          "type": "uint256"
        }
      ],
      "name": "ownerOf",
      "outputs": [
        {
          "internalType": "address",
          "name": "",
          "type": "address"
        }
      ],
      "stateMutability": "view",
      "type": "function"
    },
    {
      "inputs": [
        {
          "internalType": "address",
          "name": "from",
          "type": "address"
        },
        {
          "internalType": "address",
          "name": "to",
          "type": "address"
        },
        {
          "internalType": "uint256",
          "name": "tokenId",
          "type": "uint256"
        }
      ],
      "name": "safeTransferFrom",
      "outputs": [],
      "stateMutability": "nonpayable",
      "type": "function"
    },
    {
      "inputs": [
        {
          "internalType": "address",
          "name": "from",
          "type": "address"
        },
        {
          "internalType": "address",
          "name": "to",
          "type": "address"
        },
        {
          "internalType": "uint256",
          "name": "tokenId",
          "type": "uint256"
        },
        {
          "internalType": "bytes",
          "name": "data",
          "type": "bytes"
        }
      ],
      "name": "safeTransferFrom",
      "outputs": [],
      "stateMutability": "nonpayable",
      "type": "function"
    },
    {
      "inputs": [
        {
          "internalType": "address",
          "name": "operator",
          "type": "address"
        },
        {
          "internalType": "bool",
          "name": "approved",
          "type": "bool"
        }
      ],
      "name": "setApprovalForAll",
      "outputs": [],
      "stateMutability": "nonpayable",
      "type": "function"
    },
    {
      "inputs": [
        {
          "internalType": "bytes4",
          "name": "interfaceId",
          "type": "bytes4"
        }
      ],
      "name": "supportsInterface",
      "outputs": [
        {
          "internalType": "bool",
          "name": "",
          "type": "bool"
        }
      ],
      "stateMutability": "view",
      "type": "function"
    },
    {
      "inputs": [],
      "name": "symbol",
      "outputs": [
        {
          "internalType": "string",
          "name": "",
          "type": "string"
        }
      ],
      "stateMutability": "view",
      "type": "function"
    },
    {
      "inputs": [
        {
          "internalType": "uint256",
          "name": "tokenId",
          "type": "uint256"
        }
      ],
      "name": "tokenURI",
      "outputs": [
        {
          "internalType": "string",
          "name": "",
          "type": "string"
        }
      ],
      "stateMutability": "view",
      "type": "function"
    },
    {
      "inputs": [
        {
          "internalType": "address",
          "name": "from",
          "type": "address"
        },
        {
          "internalType": "address",
          "name": "to",
          "type": "address"
        },
        {
          "internalType": "uint256",
          "name": "tokenId",
          "type": "uint256"
        }
      ],
      "name": "transferFrom",
      "outputs": [],
      "stateMutability": "nonpayable",
      "type": "function"
    }
  ],
  "bytecode": "0x608060405234801561001057600080fd5b50611973806100206000396000f3fe608060405234801561001057600080fd5b50600436106100f55760003560e01c80636352211e11610097578063a22cb46511610066578063a22cb465146101f4578063b88d4fde14610207578063c87b56dd1461021a578063e985e9c51461022d57600080fd5b80636352211e146101be57806370a08231146101d15780638129fc1c146101e457806395d89b41146101ec57600080fd5b8063095ea7b3116100d3578063095ea7b31461016257806323b872dd1461017757806342842e0e1461018a57806354ba0f271461019d57600080fd5b806301ffc9a7146100fa57806306fdde0314610122578063081812fc14610137575b600080fd5b61010d6101083660046114a2565b610269565b60405190151581526020015b60405180910390f35b61012a61034e565b604051610119919061150f565b61014a610145366004611522565b6103e0565b6040516001600160a01b039091168152602001610119565b610175610170366004611557565b610407565b005b610175610185366004611581565b61053d565b610175610198366004611581565b6105c4565b6101b06101ab3660046115bd565b6105df565b604051908152602001610119565b61014a6101cc366004611522565b610606565b6101b06101df3660046115bd565b61066b565b610175610705565b61012a610891565b6101756102023660046115d8565b6108a0565b610175610215366004611643565b6108af565b61012a610228366004611522565b61093d565b61010d61023b36600461171f565b6001600160a01b039182166000908152606a6020908152604080832093909416825291909152205460ff1690565b60007fffffffff0000000000000000000000000000000000000000000000000000000082167f80ac58cd0000000000000000000000000000000000000000000000000000000014806102fc57507fffffffff0000000000000000000000000000000000000000000000000000000082167f5b5e139f00000000000000000000000000000000000000000000000000000000145b8061034857507f01ffc9a7000000000000000000000000000000000000000000000000000000007fffffffff000000000000000000000000000000000000000000000000000000008316145b92915050565b60606065805461035d90611752565b80601f016020809104026020016040519081016040528092919081815260200182805461038990611752565b80156103d65780601f106103ab576101008083540402835291602001916103d6565b820191906000526020600020905b8154815290600101906020018083116103b957829003601f168201915b5050505050905090565b60006103eb826109b1565b506000908152606960205260409020546001600160a01b031690565b600061041282610606565b9050806001600160a01b0316836001600160a01b0316036104a05760405162461bcd60e51b815260206004820152602160248201527f4552433732313a20617070726f76616c20746f2063757272656e74206f776e6560448201527f720000000000000000000000000000000000000000000000000000000000000060648201526084015b60405180910390fd5b336001600160a01b03821614806104bc57506104bc813361023b565b61052e5760405162461bcd60e51b815260206004820152603d60248201527f4552433732313a20617070726f76652063616c6c6572206973206e6f7420746f60448201527f6b656e206f776e6572206f7220617070726f76656420666f7220616c6c0000006064820152608401610497565b6105388383610a15565b505050565b6105473382610a90565b6105b95760405162461bcd60e51b815260206004820152602d60248201527f4552433732313a2063616c6c6572206973206e6f7420746f6b656e206f776e6560448201527f72206f7220617070726f766564000000000000000000000000000000000000006064820152608401610497565b610538838383610b0f565b610538838383604051806020016040528060008152506108af565b60006105ef609780546001019055565b60006105fa60975490565b90506103488382610d45565b6000818152606760205260408120546001600160a01b0316806103485760405162461bcd60e51b815260206004820152601860248201527f4552433732313a20696e76616c696420746f6b656e20494400000000000000006044820152606401610497565b60006001600160a01b0382166106e95760405162461bcd60e51b815260206004820152602960248201527f4552433732313a2061646472657373207a65726f206973206e6f74206120766160448201527f6c6964206f776e657200000000000000000000000000000000000000000000006064820152608401610497565b506001600160a01b031660009081526068602052604090205490565b600054610100900460ff16158080156107255750600054600160ff909116105b8061073f5750303b15801561073f575060005460ff166001145b6107b15760405162461bcd60e51b815260206004820152602e60248201527f496e697469616c697a61626c653a20636f6e747261637420697320616c72656160448201527f647920696e697469616c697a65640000000000000000000000000000000000006064820152608401610497565b6000805460ff1916600117905580156107d4576000805461ff0019166101001790555b6108486040518060400160405280600681526020017f4d79204e465400000000000000000000000000000000000000000000000000008152506040518060400160405280600481526020017f4d4e465400000000000000000000000000000000000000000000000000000000815250610edd565b801561088e576000805461ff0019169055604051600181527f7f26b83ff96e1f2b6a682f133852f6798a09c465da95921460cefb38474024989060200160405180910390a15b50565b60606066805461035d90611752565b6108ab338383610f64565b5050565b6108b93383610a90565b61092b5760405162461bcd60e51b815260206004820152602d60248201527f4552433732313a2063616c6c6572206973206e6f7420746f6b656e206f776e6560448201527f72206f7220617070726f766564000000000000000000000000000000000000006064820152608401610497565b61093784848484611032565b50505050565b6060610948826109b1565b600061095f60408051602081019091526000815290565b9050600081511161097f57604051806020016040528060008152506109aa565b80610989846110bb565b60405160200161099a9291906117a5565b6040516020818303038152906040525b9392505050565b6000818152606760205260409020546001600160a01b031661088e5760405162461bcd60e51b815260206004820152601860248201527f4552433732313a20696e76616c696420746f6b656e20494400000000000000006044820152606401610497565b6000818152606960205260409020805473ffffffffffffffffffffffffffffffffffffffff19166001600160a01b0384169081179091558190610a5782610606565b6001600160a01b03167f8c5be1e5ebec7d5bd14f71427d1e84f3dd0314c0f7b2291e5b200ac8c7c3b92560405160405180910390a45050565b600080610a9c83610606565b9050806001600160a01b0316846001600160a01b03161480610ae357506001600160a01b038082166000908152606a602090815260408083209388168352929052205460ff165b80610b075750836001600160a01b0316610afc846103e0565b6001600160a01b0316145b949350505050565b826001600160a01b0316610b2282610606565b6001600160a01b031614610b9e5760405162461bcd60e51b815260206004820152602560248201527f4552433732313a207472616e736665722066726f6d20696e636f72726563742060448201527f6f776e65720000000000000000000000000000000000000000000000000000006064820152608401610497565b6001600160a01b038216610c195760405162461bcd60e51b8152602060048201526024808201527f4552433732313a207472616e7366657220746f20746865207a65726f2061646460448201527f72657373000000000000000000000000000000000000000000000000000000006064820152608401610497565b826001600160a01b0316610c2c82610606565b6001600160a01b031614610ca85760405162461bcd60e51b815260206004820152602560248201527f4552433732313a207472616e736665722066726f6d20696e636f72726563742060448201527f6f776e65720000000000000000000000000000000000000000000000000000006064820152608401610497565b6000818152606960209081526040808320805473ffffffffffffffffffffffffffffffffffffffff199081169091556001600160a01b0387811680865260688552838620805460001901905590871680865283862080546001019055868652606790945282852080549092168417909155905184937fddf252ad1be2c89b69c2b068fc378daa952ba7f163c4a11628f55a4df523b3ef91a4505050565b6001600160a01b038216610d9b5760405162461bcd60e51b815260206004820181905260248201527f4552433732313a206d696e7420746f20746865207a65726f20616464726573736044820152606401610497565b6000818152606760205260409020546001600160a01b031615610e005760405162461bcd60e51b815260206004820152601c60248201527f4552433732313a20746f6b656e20616c7265616479206d696e746564000000006044820152606401610497565b6000818152606760205260409020546001600160a01b031615610e655760405162461bcd60e51b815260206004820152601c60248201527f4552433732313a20746f6b656e20616c7265616479206d696e746564000000006044820152606401610497565b6001600160a01b0382166000818152606860209081526040808320805460010190558483526067909152808220805473ffffffffffffffffffffffffffffffffffffffff19168417905551839291907fddf252ad1be2c89b69c2b068fc378daa952ba7f163c4a11628f55a4df523b3ef908290a45050565b600054610100900460ff16610f5a5760405162461bcd60e51b815260206004820152602b60248201527f496e697469616c697a61626c653a20636f6e7472616374206973206e6f74206960448201527f6e697469616c697a696e670000000000000000000000000000000000000000006064820152608401610497565b6108ab828261115b565b816001600160a01b0316836001600160a01b031603610fc55760405162461bcd60e51b815260206004820152601960248201527f4552433732313a20617070726f766520746f2063616c6c6572000000000000006044820152606401610497565b6001600160a01b038381166000818152606a6020908152604080832094871680845294825291829020805460ff191686151590811790915591519182527f17307eab39ab6107e8899845ad3d59bd9653f200f220920489ca2b5937696c31910160405180910390a3505050565b61103d848484610b0f565b611049848484846111f1565b6109375760405162461bcd60e51b815260206004820152603260248201527f4552433732313a207472616e7366657220746f206e6f6e20455243373231526560448201527f63656976657220696d706c656d656e74657200000000000000000000000000006064820152608401610497565b606060006110c883611392565b600101905060008167ffffffffffffffff8111156110e8576110e8611614565b6040519080825280601f01601f191660200182016040528015611112576020820181803683370190505b5090508181016020015b600019017f3031323334353637383961626364656600000000000000000000000000000000600a86061a8153600a850494508461111c57509392505050565b600054610100900460ff166111d85760405162461bcd60e51b815260206004820152602b60248201527f496e697469616c697a61626c653a20636f6e7472616374206973206e6f74206960448201527f6e697469616c697a696e670000000000000000000000000000000000000000006064820152608401610497565b60656111e48382611824565b5060666105388282611824565b60006001600160a01b0384163b15611387576040517f150b7a020000000000000000000000000000000000000000000000000000000081526001600160a01b0385169063150b7a029061124e9033908990889088906004016118e4565b6020604051808303816000875af1925050508015611289575060408051601f3d908101601f1916820190925261128691810190611920565b60015b61133c573d8080156112b7576040519150601f19603f3d011682016040523d82523d6000602084013e6112bc565b606091505b5080516000036113345760405162461bcd60e51b815260206004820152603260248201527f4552433732313a207472616e7366657220746f206e6f6e20455243373231526560448201527f63656976657220696d706c656d656e74657200000000000000000000000000006064820152608401610497565b805181602001fd5b7fffffffff00000000000000000000000000000000000000000000000000000000167f150b7a0200000000000000000000000000000000000000000000000000000000149050610b07565b506001949350505050565b6000807a184f03e93ff9f4daa797ed6e38ed64bf6a1f01000000000000000083106113db577a184f03e93ff9f4daa797ed6e38ed64bf6a1f010000000000000000830492506040015b6d04ee2d6d415b85acef81000000008310611407576d04ee2d6d415b85acef8100000000830492506020015b662386f26fc10000831061142557662386f26fc10000830492506010015b6305f5e100831061143d576305f5e100830492506008015b612710831061145157612710830492506004015b60648310611463576064830492506002015b600a83106103485760010192915050565b7fffffffff000000000000000000000000000000000000000000000000000000008116811461088e57600080fd5b6000602082840312156114b457600080fd5b81356109aa81611474565b60005b838110156114da5781810151838201526020016114c2565b50506000910152565b600081518084526114fb8160208601602086016114bf565b601f01601f19169290920160200192915050565b6020815260006109aa60208301846114e3565b60006020828403121561153457600080fd5b5035919050565b80356001600160a01b038116811461155257600080fd5b919050565b6000806040838503121561156a57600080fd5b6115738361153b565b946020939093013593505050565b60008060006060848603121561159657600080fd5b61159f8461153b565b92506115ad6020850161153b565b9150604084013590509250925092565b6000602082840312156115cf57600080fd5b6109aa8261153b565b600080604083850312156115eb57600080fd5b6115f48361153b565b91506020830135801515811461160957600080fd5b809150509250929050565b7f4e487b7100000000000000000000000000000000000000000000000000000000600052604160045260246000fd5b6000806000806080858703121561165957600080fd5b6116628561153b565b93506116706020860161153b565b925060408501359150606085013567ffffffffffffffff8082111561169457600080fd5b818701915087601f8301126116a857600080fd5b8135818111156116ba576116ba611614565b604051601f8201601f19908116603f011681019083821181831017156116e2576116e2611614565b816040528281528a60208487010111156116fb57600080fd5b82602086016020830137600060208483010152809550505050505092959194509250565b6000806040838503121561173257600080fd5b61173b8361153b565b91506117496020840161153b565b90509250929050565b600181811c9082168061176657607f821691505b60208210810361179f577f4e487b7100000000000000000000000000000000000000000000000000000000600052602260045260246000fd5b50919050565b600083516117b78184602088016114bf565b8351908301906117cb8183602088016114bf565b01949350505050565b601f821115610538576000816000526020600020601f850160051c810160208610156117fd5750805b601f850160051c820191505b8181101561181c57828155600101611809565b505050505050565b815167ffffffffffffffff81111561183e5761183e611614565b6118528161184c8454611752565b846117d4565b602080601f831160018114611887576000841561186f5750858301515b600019600386901b1c1916600185901b17855561181c565b600085815260208120601f198616915b828110156118b657888601518255948401946001909101908401611897565b50858210156118d45787850151600019600388901b60f8161c191681555b5050505050600190811b01905550565b60006001600160a01b0380871683528086166020840152508360408301526080606083015261191660808301846114e3565b9695505050505050565b60006020828403121561193257600080fd5b81516109aa8161147456fea26469706673582212208a412b7ad8d9c0eda497c1e6371c445c9af465d9fb5ae630efc6e1a51f2f60af64736f6c63430008180033",
  "linkReferences": {},
  "deployedLinkReferences": {}
}