{
  "_format": "hh-sol-artifact-1",
  "contractName": "BHeroBody",
  "sourceName": "contracts/BHeroBody.sol",
  "abi": [
    {
      "anonymous": false,
      "inputs": [
        {
          "indexed": false,
          "internalType": "address",
          "name": "previousAdmin",
          "type": "address"
        },
        {
          "indexed": false,
          "internalType": "address",
          "name": "newAdmin",
          "type": "address"
        }
      ],
      "name": "AdminChanged",
      "type": "event"
    },
    {
      "anonymous": false,
      "inputs": [
        {
          "indexed": true,
          "internalType": "address",
          "name": "beacon",
          "type": "address"
        }
      ],
      "name": "BeaconUpgraded",
      "type": "event"
    },
    {
      "anonymous": false,
      "inputs": [
        {
          "indexed": false,
          "internalType": "uint8",
          "name": "version",
          "type": "uint8"
        }
      ],
      "name": "Initialized",
      "type": "event"
    },
    {
      "anonymous": false,
      "inputs": [
        {
          "indexed": true,
          "internalType": "bytes32",
          "name": "role",
          "type": "bytes32"
        },
        {
          "indexed": true,
          "internalType": "bytes32",
          "name": "previousAdminRole",
          "type": "bytes32"
        },
        {
          "indexed": true,
          "internalType": "bytes32",
          "name": "newAdminRole",
          "type": "bytes32"
        }
      ],
      "name": "RoleAdminChanged",
      "type": "event"
    },
    {
      "anonymous": false,
      "inputs": [
        {
          "indexed": true,
          "internalType": "bytes32",
          "name": "role",
          "type": "bytes32"
        },
        {
          "indexed": true,
          "internalType": "address",
          "name": "account",
          "type": "address"
        },
        {
          "indexed": true,
          "internalType": "address",
          "name": "sender",
          "type": "address"
        }
      ],
      "name": "RoleGranted",
      "type": "event"
    },
    {
      "anonymous": false,
      "inputs": [
        {
          "indexed": true,
          "internalType": "bytes32",
          "name": "role",
          "type": "bytes32"
        },
        {
          "indexed": true,
          "internalType": "address",
          "name": "account",
          "type": "address"
        },
        {
          "indexed": true,
          "internalType": "address",
          "name": "sender",
          "type": "address"
        }
      ],
      "name": "RoleRevoked",
      "type": "event"
    },
    {
      "anonymous": false,
      "inputs": [
        {
          "indexed": true,
          "internalType": "address",
          "name": "implementation",
          "type": "address"
        }
      ],
      "name": "Upgraded",
      "type": "event"
    },
    {
      "inputs": [],
      "name": "DEFAULT_ADMIN_ROLE",
      "outputs": [
        {
          "internalType": "bytes32",
          "name": "",
          "type": "bytes32"
        }
      ],
      "stateMutability": "view",
      "type": "function"
    },
    {
      "inputs": [],
      "name": "DESIGNER_ROLE",
      "outputs": [
        {
          "internalType": "bytes32",
          "name": "",
          "type": "bytes32"
        }
      ],
      "stateMutability": "view",
      "type": "function"
    },
    {
      "inputs": [],
      "name": "UPGRADER_ROLE",
      "outputs": [
        {
          "internalType": "bytes32",
          "name": "",
          "type": "bytes32"
        }
      ],
      "stateMutability": "view",
      "type": "function"
    },
    {
      "inputs": [],
      "name": "WITHDRAWER_ROLE",
      "outputs": [
        {
          "internalType": "bytes32",
          "name": "",
          "type": "bytes32"
        }
      ],
      "stateMutability": "view",
      "type": "function"
    },
    {
      "inputs": [],
      "name": "bcoinToken",
      "outputs": [
        {
          "internalType": "contract IERC20",
          "name": "",
          "type": "address"
        }
      ],
      "stateMutability": "view",
      "type": "function"
    },
    {
      "inputs": [
        {
          "internalType": "bytes32",
          "name": "role",
          "type": "bytes32"
        }
      ],
      "name": "getRoleAdmin",
      "outputs": [
        {
          "internalType": "bytes32",
          "name": "",
          "type": "bytes32"
        }
      ],
      "stateMutability": "view",
      "type": "function"
    },
    {
      "inputs": [
        {
          "internalType": "bytes32",
          "name": "role",
          "type": "bytes32"
        },
        {
          "internalType": "address",
          "name": "account",
          "type": "address"
        }
      ],
      "name": "grantRole",
      "outputs": [],
      "stateMutability": "nonpayable",
      "type": "function"
    },
    {
      "inputs": [
        {
          "internalType": "bytes32",
          "name": "role",
          "type": "bytes32"
        },
        {
          "internalType": "address",
          "name": "account",
          "type": "address"
        }
      ],
      "name": "hasRole",
      "outputs": [
        {
          "internalType": "bool",
          "name": "",
          "type": "bool"
        }
      ],
      "stateMutability": "view",
      "type": "function"
    },
    {
      "inputs": [
        {
          "internalType": "contract IERC20",
          "name": "bcoinToken_",
          "type": "address"
        },
        {
          "internalType": "contract IERC20",
          "name": "senToken_",
          "type": "address"
        },
        {
          "internalType": "contract ERC721Upgradeable",
          "name": "nftToken_",
          "type": "address"
        }
      ],
      "name": "initialize",
      "outputs": [],
      "stateMutability": "nonpayable",
      "type": "function"
    },
    {
      "inputs": [],
      "name": "nftToken",
      "outputs": [
        {
          "internalType": "contract ERC721Upgradeable",
          "name": "",
          "type": "address"
        }
      ],
      "stateMutability": "view",
      "type": "function"
    },
    {
      "inputs": [],
      "name": "proxiableUUID",
      "outputs": [
        {
          "internalType": "bytes32",
          "name": "",
          "type": "bytes32"
        }
      ],
      "stateMutability": "view",
      "type": "function"
    },
    {
      "inputs": [
        {
          "internalType": "bytes32",
          "name": "role",
          "type": "bytes32"
        },
        {
          "internalType": "address",
          "name": "account",
          "type": "address"
        }
      ],
      "name": "renounceRole",
      "outputs": [],
      "stateMutability": "nonpayable",
      "type": "function"
    },
    {
      "inputs": [
        {
          "internalType": "bytes32",
          "name": "role",
          "type": "bytes32"
        },
        {
          "internalType": "address",
          "name": "account",
          "type": "address"
        }
      ],
      "name": "revokeRole",
      "outputs": [],
      "stateMutability": "nonpayable",
      "type": "function"
    },
    {
      "inputs": [],
      "name": "senToken",
      "outputs": [
        {
          "internalType": "contract IERC20",
          "name": "",
          "type": "address"
        }
      ],
      "stateMutability": "view",
      "type": "function"
    },
    {
      "inputs": [
        {
          "internalType": "address",
          "name": "value",
          "type": "address"
        }
      ],
      "name": "setBcoinToken",
      "outputs": [],
      "stateMutability": "nonpayable",
      "type": "function"
    },
    {
      "inputs": [
        {
          "internalType": "address",
          "name": "value",
          "type": "address"
        }
      ],
      "name": "setNFTToken",
      "outputs": [],
      "stateMutability": "nonpayable",
      "type": "function"
    },
    {
      "inputs": [
        {
          "internalType": "address",
          "name": "value",
          "type": "address"
        }
      ],
      "name": "setSenToken",
      "outputs": [],
      "stateMutability": "nonpayable",
      "type": "function"
    },
    {
      "inputs": [
        {
          "internalType": "bytes4",
          "name": "interfaceId",
          "type": "bytes4"
        }
      ],
      "name": "supportsInterface",
      "outputs": [
        {
          "internalType": "bool",
          "name": "",
          "type": "bool"
        }
      ],
      "stateMutability": "view",
      "type": "function"
    },
    {
      "inputs": [
        {
          "internalType": "address",
          "name": "newImplementation",
          "type": "address"
        }
      ],
      "name": "upgradeTo",
      "outputs": [],
      "stateMutability": "nonpayable",
      "type": "function"
    },
    {
      "inputs": [
        {
          "internalType": "address",
          "name": "newImplementation",
          "type": "address"
        },
        {
          "internalType": "bytes",
          "name": "data",
          "type": "bytes"
        }
      ],
      "name": "upgradeToAndCall",
      "outputs": [],
      "stateMutability": "payable",
      "type": "function"
    }
  ],
  "bytecode": "0x60a06040523060805234801561001457600080fd5b5060805161197361004c600039600081816105fa01528181610690015281816107970152818161082d015261092401526119736000f3fe60806040526004361061015f5760003560e01c806385f438c1116100c0578063d06fcba811610074578063df064ad811610059578063df064ad8146103e8578063f72c0d8b1461041c578063fb10f6bd1461045057600080fd5b8063d06fcba8146103a8578063d547741f146103c857600080fd5b806391d14854116100a557806391d148541461032d578063a217fddf14610373578063c0c53b8b1461038857600080fd5b806385f438c1146102d95780638a5db17d1461030d57600080fd5b80633612cf5b116101175780633659cfe6116100fc5780633659cfe6146102915780634f1ef286146102b157806352d1902d146102c457600080fd5b80633612cf5b1461023957806336568abe1461027157600080fd5b8063248a9ca311610148578063248a9ca3146101bb5780632f2ff15d146101f9578063349b92291461021957600080fd5b806301ffc9a71461016457806310e71a0214610199575b600080fd5b34801561017057600080fd5b5061018461017f36600461159c565b610470565b60405190151581526020015b60405180910390f35b3480156101a557600080fd5b506101b96101b43660046115f3565b610481565b005b3480156101c757600080fd5b506101eb6101d6366004611610565b60009081526065602052604090206001015490565b604051908152602001610190565b34801561020557600080fd5b506101b9610214366004611629565b6104db565b34801561022557600080fd5b506101b96102343660046115f3565b610505565b34801561024557600080fd5b5060fc54610259906001600160a01b031681565b6040516001600160a01b039091168152602001610190565b34801561027d57600080fd5b506101b961028c366004611629565b61055f565b34801561029d57600080fd5b506101b96102ac3660046115f3565b6105f0565b6101b96102bf36600461166f565b61078d565b3480156102d057600080fd5b506101eb610917565b3480156102e557600080fd5b506101eb7f10dac8c06a04bec0b551627dad28bc00d6516b0caacd1c7b345fcdb5211334e481565b34801561031957600080fd5b5060fb54610259906001600160a01b031681565b34801561033957600080fd5b50610184610348366004611629565b60009182526065602090815260408084206001600160a01b0393909316845291905290205460ff1690565b34801561037f57600080fd5b506101eb600081565b34801561039457600080fd5b506101b96103a3366004611733565b6109dc565b3480156103b457600080fd5b5060fd54610259906001600160a01b031681565b3480156103d457600080fd5b506101b96103e3366004611629565b610bda565b3480156103f457600080fd5b506101eb7f22c69ab406805e70d07fb1a6502af760601d3b977beadb295a9d76d5852e16a381565b34801561042857600080fd5b506101eb7f189ab7a9244df0848122154315af71fe140f3db0fe014031783b0946b8c9d2e381565b34801561045c57600080fd5b506101b961046b3660046115f3565b610bff565b600061047b82610c59565b92915050565b7f22c69ab406805e70d07fb1a6502af760601d3b977beadb295a9d76d5852e16a36104ab81610cf0565b5060fd805473ffffffffffffffffffffffffffffffffffffffff19166001600160a01b0392909216919091179055565b6000828152606560205260409020600101546104f681610cf0565b6105008383610cfa565b505050565b7f22c69ab406805e70d07fb1a6502af760601d3b977beadb295a9d76d5852e16a361052f81610cf0565b5060fb805473ffffffffffffffffffffffffffffffffffffffff19166001600160a01b0392909216919091179055565b6001600160a01b03811633146105e25760405162461bcd60e51b815260206004820152602f60248201527f416363657373436f6e74726f6c3a2063616e206f6e6c792072656e6f756e636560448201527f20726f6c657320666f722073656c66000000000000000000000000000000000060648201526084015b60405180910390fd5b6105ec8282610d9c565b5050565b6001600160a01b037f000000000000000000000000000000000000000000000000000000000000000016300361068e5760405162461bcd60e51b815260206004820152602c60248201527f46756e6374696f6e206d7573742062652063616c6c6564207468726f7567682060448201527f64656c656761746563616c6c000000000000000000000000000000000000000060648201526084016105d9565b7f00000000000000000000000000000000000000000000000000000000000000006001600160a01b03166106e97f360894a13ba1a3210667c828492db98dca3e2076cc3735a920a3ca505d382bbc546001600160a01b031690565b6001600160a01b0316146107655760405162461bcd60e51b815260206004820152602c60248201527f46756e6374696f6e206d7573742062652063616c6c6564207468726f7567682060448201527f6163746976652070726f7879000000000000000000000000000000000000000060648201526084016105d9565b61076e81610e1f565b6040805160008082526020820190925261078a91839190610e49565b50565b6001600160a01b037f000000000000000000000000000000000000000000000000000000000000000016300361082b5760405162461bcd60e51b815260206004820152602c60248201527f46756e6374696f6e206d7573742062652063616c6c6564207468726f7567682060448201527f64656c656761746563616c6c000000000000000000000000000000000000000060648201526084016105d9565b7f00000000000000000000000000000000000000000000000000000000000000006001600160a01b03166108867f360894a13ba1a3210667c828492db98dca3e2076cc3735a920a3ca505d382bbc546001600160a01b031690565b6001600160a01b0316146109025760405162461bcd60e51b815260206004820152602c60248201527f46756e6374696f6e206d7573742062652063616c6c6564207468726f7567682060448201527f6163746976652070726f7879000000000000000000000000000000000000000060648201526084016105d9565b61090b82610e1f565b6105ec82826001610e49565b6000306001600160a01b037f000000000000000000000000000000000000000000000000000000000000000016146109b75760405162461bcd60e51b815260206004820152603860248201527f555550535570677261646561626c653a206d757374206e6f742062652063616c60448201527f6c6564207468726f7567682064656c656761746563616c6c000000000000000060648201526084016105d9565b507f360894a13ba1a3210667c828492db98dca3e2076cc3735a920a3ca505d382bbc90565b600054610100900460ff16158080156109fc5750600054600160ff909116105b80610a165750303b158015610a16575060005460ff166001145b610a885760405162461bcd60e51b815260206004820152602e60248201527f496e697469616c697a61626c653a20636f6e747261637420697320616c72656160448201527f647920696e697469616c697a656400000000000000000000000000000000000060648201526084016105d9565b6000805460ff191660011790558015610aab576000805461ff0019166101001790555b610ab3610fe9565b610abb610fe9565b60fb80546001600160a01b0380871673ffffffffffffffffffffffffffffffffffffffff199283161790925560fc805486841690831617905560fd805492851692909116919091179055610b10600033611068565b610b3a7f189ab7a9244df0848122154315af71fe140f3db0fe014031783b0946b8c9d2e333611068565b610b647f22c69ab406805e70d07fb1a6502af760601d3b977beadb295a9d76d5852e16a333611068565b610b8e7f10dac8c06a04bec0b551627dad28bc00d6516b0caacd1c7b345fcdb5211334e433611068565b8015610bd4576000805461ff0019169055604051600181527f7f26b83ff96e1f2b6a682f133852f6798a09c465da95921460cefb38474024989060200160405180910390a15b50505050565b600082815260656020526040902060010154610bf581610cf0565b6105008383610d9c565b7f22c69ab406805e70d07fb1a6502af760601d3b977beadb295a9d76d5852e16a3610c2981610cf0565b5060fc805473ffffffffffffffffffffffffffffffffffffffff19166001600160a01b0392909216919091179055565b60007fffffffff0000000000000000000000000000000000000000000000000000000082167f7965db0b00000000000000000000000000000000000000000000000000000000148061047b57507f01ffc9a7000000000000000000000000000000000000000000000000000000007fffffffff0000000000000000000000000000000000000000000000000000000083161461047b565b61078a8133611072565b60008281526065602090815260408083206001600160a01b038516845290915290205460ff166105ec5760008281526065602090815260408083206001600160a01b03851684529091529020805460ff19166001179055610d583390565b6001600160a01b0316816001600160a01b0316837f2f8788117e7eff1d82e926ec794901d17c78024a50270940304540a733656f0d60405160405180910390a45050565b60008281526065602090815260408083206001600160a01b038516845290915290205460ff16156105ec5760008281526065602090815260408083206001600160a01b0385168085529252808320805460ff1916905551339285917ff6391f5c32d9c69d2a47ea670b442974b53935d1edc7fd64eb21e047a839171b9190a45050565b7f189ab7a9244df0848122154315af71fe140f3db0fe014031783b0946b8c9d2e36105ec81610cf0565b7f4910fdfa16fed3260ed0e7147f7cc6da11a60208b5b9406d12a635614ffd91435460ff1615610e7c57610500836110e7565b826001600160a01b03166352d1902d6040518163ffffffff1660e01b8152600401602060405180830381865afa925050508015610ed6575060408051601f3d908101601f19168201909252610ed39181019061177e565b60015b610f485760405162461bcd60e51b815260206004820152602e60248201527f45524331393637557067726164653a206e657720696d706c656d656e7461746960448201527f6f6e206973206e6f74205555505300000000000000000000000000000000000060648201526084016105d9565b7f360894a13ba1a3210667c828492db98dca3e2076cc3735a920a3ca505d382bbc8114610fdd5760405162461bcd60e51b815260206004820152602960248201527f45524331393637557067726164653a20756e737570706f727465642070726f7860448201527f6961626c6555554944000000000000000000000000000000000000000000000060648201526084016105d9565b506105008383836111b2565b600054610100900460ff166110665760405162461bcd60e51b815260206004820152602b60248201527f496e697469616c697a61626c653a20636f6e7472616374206973206e6f74206960448201527f6e697469616c697a696e6700000000000000000000000000000000000000000060648201526084016105d9565b565b6105ec8282610cfa565b60008281526065602090815260408083206001600160a01b038516845290915290205460ff166105ec576110a5816111d7565b6110b08360206111e9565b6040516020016110c19291906117bb565b60408051601f198184030181529082905262461bcd60e51b82526105d99160040161183c565b6001600160a01b0381163b6111645760405162461bcd60e51b815260206004820152602d60248201527f455243313936373a206e657720696d706c656d656e746174696f6e206973206e60448201527f6f74206120636f6e74726163740000000000000000000000000000000000000060648201526084016105d9565b7f360894a13ba1a3210667c828492db98dca3e2076cc3735a920a3ca505d382bbc805473ffffffffffffffffffffffffffffffffffffffff19166001600160a01b0392909216919091179055565b6111bb83611419565b6000825111806111c85750805b1561050057610bd48383611459565b606061047b6001600160a01b03831660145b606060006111f8836002611885565b61120390600261189c565b67ffffffffffffffff81111561121b5761121b611659565b6040519080825280601f01601f191660200182016040528015611245576020820181803683370190505b5090507f30000000000000000000000000000000000000000000000000000000000000008160008151811061127c5761127c6118af565b60200101907effffffffffffffffffffffffffffffffffffffffffffffffffffffffffffff1916908160001a9053507f7800000000000000000000000000000000000000000000000000000000000000816001815181106112df576112df6118af565b60200101907effffffffffffffffffffffffffffffffffffffffffffffffffffffffffffff1916908160001a905350600061131b846002611885565b61132690600161189c565b90505b60018111156113c3577f303132333435363738396162636465660000000000000000000000000000000085600f1660108110611367576113676118af565b1a60f81b82828151811061137d5761137d6118af565b60200101907effffffffffffffffffffffffffffffffffffffffffffffffffffffffffffff1916908160001a90535060049490941c936113bc816118c5565b9050611329565b5083156114125760405162461bcd60e51b815260206004820181905260248201527f537472696e67733a20686578206c656e67746820696e73756666696369656e7460448201526064016105d9565b9392505050565b611422816110e7565b6040516001600160a01b038216907fbc7cd75a20ee27fd9adebab32041f755214dbc6bffa90cc0225b39da2e5c2d3b90600090a250565b60606114128383604051806060016040528060278152602001611917602791396060600080856001600160a01b03168560405161149691906118fa565b600060405180830381855af49150503d80600081146114d1576040519150601f19603f3d011682016040523d82523d6000602084013e6114d6565b606091505b50915091506114e7868383876114f1565b9695505050505050565b60608315611560578251600003611559576001600160a01b0385163b6115595760405162461bcd60e51b815260206004820152601d60248201527f416464726573733a2063616c6c20746f206e6f6e2d636f6e747261637400000060448201526064016105d9565b508161156a565b61156a8383611572565b949350505050565b8151156115825781518083602001fd5b8060405162461bcd60e51b81526004016105d9919061183c565b6000602082840312156115ae57600080fd5b81357fffffffff000000000000000000000000000000000000000000000000000000008116811461141257600080fd5b6001600160a01b038116811461078a57600080fd5b60006020828403121561160557600080fd5b8135611412816115de565b60006020828403121561162257600080fd5b5035919050565b6000806040838503121561163c57600080fd5b82359150602083013561164e816115de565b809150509250929050565b634e487b7160e01b600052604160045260246000fd5b6000806040838503121561168257600080fd5b823561168d816115de565b9150602083013567ffffffffffffffff808211156116aa57600080fd5b818501915085601f8301126116be57600080fd5b8135818111156116d0576116d0611659565b604051601f8201601f19908116603f011681019083821181831017156116f8576116f8611659565b8160405282815288602084870101111561171157600080fd5b8260208601602083013760006020848301015280955050505050509250929050565b60008060006060848603121561174857600080fd5b8335611753816115de565b92506020840135611763816115de565b91506040840135611773816115de565b809150509250925092565b60006020828403121561179057600080fd5b5051919050565b60005b838110156117b257818101518382015260200161179a565b50506000910152565b7f416363657373436f6e74726f6c3a206163636f756e74200000000000000000008152600083516117f3816017850160208801611797565b7f206973206d697373696e6720726f6c65200000000000000000000000000000006017918401918201528351611830816028840160208801611797565b01602801949350505050565b602081526000825180602084015261185b816040850160208701611797565b601f01601f19169190910160400192915050565b634e487b7160e01b600052601160045260246000fd5b808202811582820484141761047b5761047b61186f565b8082018082111561047b5761047b61186f565b634e487b7160e01b600052603260045260246000fd5b6000816118d4576118d461186f565b507fffffffffffffffffffffffffffffffffffffffffffffffffffffffffffffffff0190565b6000825161190c818460208701611797565b919091019291505056fe416464726573733a206c6f772d6c6576656c2064656c65676174652063616c6c206661696c6564a26469706673582212203f149d1a791ff75e52d316087ea3f5f14e7bb385349f68137440aea9c87529ac64736f6c63430008180033",
  "linkReferences": {},
  "deployedLinkReferences": {}
}