{
  "_format": "hh-sol-artifact-1",
  "contractName": "BatchTransfer",
  "sourceName": "contracts/BatchTransfer.sol",
  "abi": [
    {
      "anonymous": false,
      "inputs": [
        {
          "indexed": false,
          "internalType": "address",
          "name": "previousAdmin",
          "type": "address"
        },
        {
          "indexed": false,
          "internalType": "address",
          "name": "newAdmin",
          "type": "address"
        }
      ],
      "name": "AdminChanged",
      "type": "event"
    },
    {
      "anonymous": false,
      "inputs": [
        {
          "indexed": true,
          "internalType": "address",
          "name": "beacon",
          "type": "address"
        }
      ],
      "name": "BeaconUpgraded",
      "type": "event"
    },
    {
      "anonymous": false,
      "inputs": [
        {
          "indexed": false,
          "internalType": "uint8",
          "name": "version",
          "type": "uint8"
        }
      ],
      "name": "Initialized",
      "type": "event"
    },
    {
      "anonymous": false,
      "inputs": [
        {
          "indexed": true,
          "internalType": "bytes32",
          "name": "role",
          "type": "bytes32"
        },
        {
          "indexed": true,
          "internalType": "bytes32",
          "name": "previousAdminRole",
          "type": "bytes32"
        },
        {
          "indexed": true,
          "internalType": "bytes32",
          "name": "newAdminRole",
          "type": "bytes32"
        }
      ],
      "name": "RoleAdminChanged",
      "type": "event"
    },
    {
      "anonymous": false,
      "inputs": [
        {
          "indexed": true,
          "internalType": "bytes32",
          "name": "role",
          "type": "bytes32"
        },
        {
          "indexed": true,
          "internalType": "address",
          "name": "account",
          "type": "address"
        },
        {
          "indexed": true,
          "internalType": "address",
          "name": "sender",
          "type": "address"
        }
      ],
      "name": "RoleGranted",
      "type": "event"
    },
    {
      "anonymous": false,
      "inputs": [
        {
          "indexed": true,
          "internalType": "bytes32",
          "name": "role",
          "type": "bytes32"
        },
        {
          "indexed": true,
          "internalType": "address",
          "name": "account",
          "type": "address"
        },
        {
          "indexed": true,
          "internalType": "address",
          "name": "sender",
          "type": "address"
        }
      ],
      "name": "RoleRevoked",
      "type": "event"
    },
    {
      "anonymous": false,
      "inputs": [
        {
          "indexed": true,
          "internalType": "address",
          "name": "implementation",
          "type": "address"
        }
      ],
      "name": "Upgraded",
      "type": "event"
    },
    {
      "inputs": [],
      "name": "DEFAULT_ADMIN_ROLE",
      "outputs": [
        {
          "internalType": "bytes32",
          "name": "",
          "type": "bytes32"
        }
      ],
      "stateMutability": "view",
      "type": "function"
    },
    {
      "inputs": [],
      "name": "UPGRADER_ROLE",
      "outputs": [
        {
          "internalType": "bytes32",
          "name": "",
          "type": "bytes32"
        }
      ],
      "stateMutability": "view",
      "type": "function"
    },
    {
      "inputs": [
        {
          "internalType": "bytes32",
          "name": "role",
          "type": "bytes32"
        }
      ],
      "name": "getRoleAdmin",
      "outputs": [
        {
          "internalType": "bytes32",
          "name": "",
          "type": "bytes32"
        }
      ],
      "stateMutability": "view",
      "type": "function"
    },
    {
      "inputs": [
        {
          "internalType": "bytes32",
          "name": "role",
          "type": "bytes32"
        },
        {
          "internalType": "address",
          "name": "account",
          "type": "address"
        }
      ],
      "name": "grantRole",
      "outputs": [],
      "stateMutability": "nonpayable",
      "type": "function"
    },
    {
      "inputs": [
        {
          "internalType": "bytes32",
          "name": "role",
          "type": "bytes32"
        },
        {
          "internalType": "address",
          "name": "account",
          "type": "address"
        }
      ],
      "name": "hasRole",
      "outputs": [
        {
          "internalType": "bool",
          "name": "",
          "type": "bool"
        }
      ],
      "stateMutability": "view",
      "type": "function"
    },
    {
      "inputs": [],
      "name": "initialize",
      "outputs": [],
      "stateMutability": "nonpayable",
      "type": "function"
    },
    {
      "inputs": [],
      "name": "proxiableUUID",
      "outputs": [
        {
          "internalType": "bytes32",
          "name": "",
          "type": "bytes32"
        }
      ],
      "stateMutability": "view",
      "type": "function"
    },
    {
      "inputs": [
        {
          "internalType": "bytes32",
          "name": "role",
          "type": "bytes32"
        },
        {
          "internalType": "address",
          "name": "account",
          "type": "address"
        }
      ],
      "name": "renounceRole",
      "outputs": [],
      "stateMutability": "nonpayable",
      "type": "function"
    },
    {
      "inputs": [
        {
          "internalType": "bytes32",
          "name": "role",
          "type": "bytes32"
        },
        {
          "internalType": "address",
          "name": "account",
          "type": "address"
        }
      ],
      "name": "revokeRole",
      "outputs": [],
      "stateMutability": "nonpayable",
      "type": "function"
    },
    {
      "inputs": [
        {
          "internalType": "bytes4",
          "name": "interfaceId",
          "type": "bytes4"
        }
      ],
      "name": "supportsInterface",
      "outputs": [
        {
          "internalType": "bool",
          "name": "",
          "type": "bool"
        }
      ],
      "stateMutability": "view",
      "type": "function"
    },
    {
      "inputs": [
        {
          "internalType": "address",
          "name": "tokenAddress",
          "type": "address"
        },
        {
          "components": [
            {
              "internalType": "address",
              "name": "to",
              "type": "address"
            },
            {
              "internalType": "uint256",
              "name": "amount",
              "type": "uint256"
            }
          ],
          "internalType": "struct Recipient[]",
          "name": "recipients",
          "type": "tuple[]"
        }
      ],
      "name": "transferToken",
      "outputs": [],
      "stateMutability": "nonpayable",
      "type": "function"
    },
    {
      "inputs": [
        {
          "internalType": "address",
          "name": "newImplementation",
          "type": "address"
        }
      ],
      "name": "upgradeTo",
      "outputs": [],
      "stateMutability": "nonpayable",
      "type": "function"
    },
    {
      "inputs": [
        {
          "internalType": "address",
          "name": "newImplementation",
          "type": "address"
        },
        {
          "internalType": "bytes",
          "name": "data",
          "type": "bytes"
        }
      ],
      "name": "upgradeToAndCall",
      "outputs": [],
      "stateMutability": "payable",
      "type": "function"
    }
  ],
  "bytecode": "0x60a06040523060805234801561001457600080fd5b5060805161182b61004c6000396000818161038e015281816104240152818161052b015281816105c101526106b8015261182b6000f3fe6080604052600436106100d25760003560e01c806352d1902d1161007f5780639592d4fb116100595780639592d4fb1461022f578063a217fddf1461024f578063d547741f14610264578063f72c0d8b1461028457600080fd5b806352d1902d146101bf5780638129fc1c146101d457806391d14854146101e957600080fd5b806336568abe116100b057806336568abe1461016c5780633659cfe61461018c5780634f1ef286146101ac57600080fd5b806301ffc9a7146100d7578063248a9ca31461010c5780632f2ff15d1461014a575b600080fd5b3480156100e357600080fd5b506100f76100f23660046113f8565b6102b8565b60405190151581526020015b60405180910390f35b34801561011857600080fd5b5061013c61012736600461143a565b60009081526065602052604090206001015490565b604051908152602001610103565b34801561015657600080fd5b5061016a61016536600461146f565b6102c9565b005b34801561017857600080fd5b5061016a61018736600461146f565b6102f3565b34801561019857600080fd5b5061016a6101a736600461149b565b610384565b61016a6101ba3660046114cc565b610521565b3480156101cb57600080fd5b5061013c6106ab565b3480156101e057600080fd5b5061016a610770565b3480156101f557600080fd5b506100f761020436600461146f565b60009182526065602090815260408084206001600160a01b0393909316845291905290205460ff1690565b34801561023b57600080fd5b5061016a61024a36600461158e565b6108cc565b34801561025b57600080fd5b5061013c600081565b34801561027057600080fd5b5061016a61027f36600461146f565b610a7f565b34801561029057600080fd5b5061013c7f189ab7a9244df0848122154315af71fe140f3db0fe014031783b0946b8c9d2e381565b60006102c382610aa4565b92915050565b6000828152606560205260409020600101546102e481610b3b565b6102ee8383610b45565b505050565b6001600160a01b03811633146103765760405162461bcd60e51b815260206004820152602f60248201527f416363657373436f6e74726f6c3a2063616e206f6e6c792072656e6f756e636560448201527f20726f6c657320666f722073656c66000000000000000000000000000000000060648201526084015b60405180910390fd5b6103808282610be7565b5050565b6001600160a01b037f00000000000000000000000000000000000000000000000000000000000000001630036104225760405162461bcd60e51b815260206004820152602c60248201527f46756e6374696f6e206d7573742062652063616c6c6564207468726f7567682060448201527f64656c656761746563616c6c0000000000000000000000000000000000000000606482015260840161036d565b7f00000000000000000000000000000000000000000000000000000000000000006001600160a01b031661047d7f360894a13ba1a3210667c828492db98dca3e2076cc3735a920a3ca505d382bbc546001600160a01b031690565b6001600160a01b0316146104f95760405162461bcd60e51b815260206004820152602c60248201527f46756e6374696f6e206d7573742062652063616c6c6564207468726f7567682060448201527f6163746976652070726f78790000000000000000000000000000000000000000606482015260840161036d565b61050281610c6a565b6040805160008082526020820190925261051e91839190610c94565b50565b6001600160a01b037f00000000000000000000000000000000000000000000000000000000000000001630036105bf5760405162461bcd60e51b815260206004820152602c60248201527f46756e6374696f6e206d7573742062652063616c6c6564207468726f7567682060448201527f64656c656761746563616c6c0000000000000000000000000000000000000000606482015260840161036d565b7f00000000000000000000000000000000000000000000000000000000000000006001600160a01b031661061a7f360894a13ba1a3210667c828492db98dca3e2076cc3735a920a3ca505d382bbc546001600160a01b031690565b6001600160a01b0316146106965760405162461bcd60e51b815260206004820152602c60248201527f46756e6374696f6e206d7573742062652063616c6c6564207468726f7567682060448201527f6163746976652070726f78790000000000000000000000000000000000000000606482015260840161036d565b61069f82610c6a565b61038082826001610c94565b6000306001600160a01b037f0000000000000000000000000000000000000000000000000000000000000000161461074b5760405162461bcd60e51b815260206004820152603860248201527f555550535570677261646561626c653a206d757374206e6f742062652063616c60448201527f6c6564207468726f7567682064656c656761746563616c6c0000000000000000606482015260840161036d565b507f360894a13ba1a3210667c828492db98dca3e2076cc3735a920a3ca505d382bbc90565b600054610100900460ff16158080156107905750600054600160ff909116105b806107aa5750303b1580156107aa575060005460ff166001145b61081c5760405162461bcd60e51b815260206004820152602e60248201527f496e697469616c697a61626c653a20636f6e747261637420697320616c72656160448201527f647920696e697469616c697a6564000000000000000000000000000000000000606482015260840161036d565b6000805460ff19166001179055801561083f576000805461ff0019166101001790555b610847610e34565b61084f610e34565b61085a600033610eb3565b6108847f189ab7a9244df0848122154315af71fe140f3db0fe014031783b0946b8c9d2e333610eb3565b801561051e576000805461ff0019169055604051600181527f7f26b83ff96e1f2b6a682f133852f6798a09c465da95921460cefb38474024989060200160405180910390a150565b826000805b8381101561090a578484828181106108eb576108eb611614565b90506040020160200135826109009190611640565b91506001016108d1565b506040517f23b872dd000000000000000000000000000000000000000000000000000000008152336004820152306024820152604481018290526001600160a01b038316906323b872dd906064016020604051808303816000875af1158015610977573d6000803e3d6000fd5b505050506040513d601f19601f8201168201806040525081019061099b9190611653565b5060005b83811015610a7757826001600160a01b031663a9059cbb8686848181106109c8576109c8611614565b6109de926020604090920201908101915061149b565b8787858181106109f0576109f0611614565b905060400201602001356040518363ffffffff1660e01b8152600401610a2b9291906001600160a01b03929092168252602082015260400190565b6020604051808303816000875af1158015610a4a573d6000803e3d6000fd5b505050506040513d601f19601f82011682018060405250810190610a6e9190611653565b5060010161099f565b505050505050565b600082815260656020526040902060010154610a9a81610b3b565b6102ee8383610be7565b60007fffffffff0000000000000000000000000000000000000000000000000000000082167f7965db0b0000000000000000000000000000000000000000000000000000000014806102c357507f01ffc9a7000000000000000000000000000000000000000000000000000000007fffffffff000000000000000000000000000000000000000000000000000000008316146102c3565b61051e8133610ebd565b60008281526065602090815260408083206001600160a01b038516845290915290205460ff166103805760008281526065602090815260408083206001600160a01b03851684529091529020805460ff19166001179055610ba33390565b6001600160a01b0316816001600160a01b0316837f2f8788117e7eff1d82e926ec794901d17c78024a50270940304540a733656f0d60405160405180910390a45050565b60008281526065602090815260408083206001600160a01b038516845290915290205460ff16156103805760008281526065602090815260408083206001600160a01b0385168085529252808320805460ff1916905551339285917ff6391f5c32d9c69d2a47ea670b442974b53935d1edc7fd64eb21e047a839171b9190a45050565b7f189ab7a9244df0848122154315af71fe140f3db0fe014031783b0946b8c9d2e361038081610b3b565b7f4910fdfa16fed3260ed0e7147f7cc6da11a60208b5b9406d12a635614ffd91435460ff1615610cc7576102ee83610f32565b826001600160a01b03166352d1902d6040518163ffffffff1660e01b8152600401602060405180830381865afa925050508015610d21575060408051601f3d908101601f19168201909252610d1e91810190611675565b60015b610d935760405162461bcd60e51b815260206004820152602e60248201527f45524331393637557067726164653a206e657720696d706c656d656e7461746960448201527f6f6e206973206e6f742055555053000000000000000000000000000000000000606482015260840161036d565b7f360894a13ba1a3210667c828492db98dca3e2076cc3735a920a3ca505d382bbc8114610e285760405162461bcd60e51b815260206004820152602960248201527f45524331393637557067726164653a20756e737570706f727465642070726f7860448201527f6961626c65555549440000000000000000000000000000000000000000000000606482015260840161036d565b506102ee838383611008565b600054610100900460ff16610eb15760405162461bcd60e51b815260206004820152602b60248201527f496e697469616c697a61626c653a20636f6e7472616374206973206e6f74206960448201527f6e697469616c697a696e67000000000000000000000000000000000000000000606482015260840161036d565b565b6103808282610b45565b60008281526065602090815260408083206001600160a01b038516845290915290205460ff1661038057610ef081611033565b610efb836020611045565b604051602001610f0c9291906116b2565b60408051601f198184030181529082905262461bcd60e51b825261036d91600401611733565b6001600160a01b0381163b610faf5760405162461bcd60e51b815260206004820152602d60248201527f455243313936373a206e657720696d706c656d656e746174696f6e206973206e60448201527f6f74206120636f6e747261637400000000000000000000000000000000000000606482015260840161036d565b7f360894a13ba1a3210667c828492db98dca3e2076cc3735a920a3ca505d382bbc80547fffffffffffffffffffffffff0000000000000000000000000000000000000000166001600160a01b0392909216919091179055565b61101183611275565b60008251118061101e5750805b156102ee5761102d83836112b5565b50505050565b60606102c36001600160a01b03831660145b60606000611054836002611766565b61105f906002611640565b67ffffffffffffffff811115611077576110776114b6565b6040519080825280601f01601f1916602001820160405280156110a1576020820181803683370190505b5090507f3000000000000000000000000000000000000000000000000000000000000000816000815181106110d8576110d8611614565b60200101907effffffffffffffffffffffffffffffffffffffffffffffffffffffffffffff1916908160001a9053507f78000000000000000000000000000000000000000000000000000000000000008160018151811061113b5761113b611614565b60200101907effffffffffffffffffffffffffffffffffffffffffffffffffffffffffffff1916908160001a9053506000611177846002611766565b611182906001611640565b90505b600181111561121f577f303132333435363738396162636465660000000000000000000000000000000085600f16601081106111c3576111c3611614565b1a60f81b8282815181106111d9576111d9611614565b60200101907effffffffffffffffffffffffffffffffffffffffffffffffffffffffffffff1916908160001a90535060049490941c936112188161177d565b9050611185565b50831561126e5760405162461bcd60e51b815260206004820181905260248201527f537472696e67733a20686578206c656e67746820696e73756666696369656e74604482015260640161036d565b9392505050565b61127e81610f32565b6040516001600160a01b038216907fbc7cd75a20ee27fd9adebab32041f755214dbc6bffa90cc0225b39da2e5c2d3b90600090a250565b606061126e83836040518060600160405280602781526020016117cf602791396060600080856001600160a01b0316856040516112f291906117b2565b600060405180830381855af49150503d806000811461132d576040519150601f19603f3d011682016040523d82523d6000602084013e611332565b606091505b50915091506113438683838761134d565b9695505050505050565b606083156113bc5782516000036113b5576001600160a01b0385163b6113b55760405162461bcd60e51b815260206004820152601d60248201527f416464726573733a2063616c6c20746f206e6f6e2d636f6e7472616374000000604482015260640161036d565b50816113c6565b6113c683836113ce565b949350505050565b8151156113de5781518083602001fd5b8060405162461bcd60e51b815260040161036d9190611733565b60006020828403121561140a57600080fd5b81357fffffffff000000000000000000000000000000000000000000000000000000008116811461126e57600080fd5b60006020828403121561144c57600080fd5b5035919050565b80356001600160a01b038116811461146a57600080fd5b919050565b6000806040838503121561148257600080fd5b8235915061149260208401611453565b90509250929050565b6000602082840312156114ad57600080fd5b61126e82611453565b634e487b7160e01b600052604160045260246000fd5b600080604083850312156114df57600080fd5b6114e883611453565b9150602083013567ffffffffffffffff8082111561150557600080fd5b818501915085601f83011261151957600080fd5b81358181111561152b5761152b6114b6565b604051601f8201601f19908116603f01168101908382118183101715611553576115536114b6565b8160405282815288602084870101111561156c57600080fd5b8260208601602083013760006020848301015280955050505050509250929050565b6000806000604084860312156115a357600080fd5b6115ac84611453565b9250602084013567ffffffffffffffff808211156115c957600080fd5b818601915086601f8301126115dd57600080fd5b8135818111156115ec57600080fd5b8760208260061b850101111561160157600080fd5b6020830194508093505050509250925092565b634e487b7160e01b600052603260045260246000fd5b634e487b7160e01b600052601160045260246000fd5b808201808211156102c3576102c361162a565b60006020828403121561166557600080fd5b8151801515811461126e57600080fd5b60006020828403121561168757600080fd5b5051919050565b60005b838110156116a9578181015183820152602001611691565b50506000910152565b7f416363657373436f6e74726f6c3a206163636f756e74200000000000000000008152600083516116ea81601785016020880161168e565b7f206973206d697373696e6720726f6c6520000000000000000000000000000000601791840191820152835161172781602884016020880161168e565b01602801949350505050565b602081526000825180602084015261175281604085016020870161168e565b601f01601f19169190910160400192915050565b80820281158282048414176102c3576102c361162a565b60008161178c5761178c61162a565b507fffffffffffffffffffffffffffffffffffffffffffffffffffffffffffffffff0190565b600082516117c481846020870161168e565b919091019291505056fe416464726573733a206c6f772d6c6576656c2064656c65676174652063616c6c206661696c6564a2646970667358221220b455093b7ecc05dc33452d5b8353b63d9129a2c67d40693cfe1aeb6c666cbfa264736f6c63430008180033",
  "linkReferences": {},
  "deployedLinkReferences": {}
}