{
  "_format": "hh-sol-artifact-1",
  "contractName": "MasterRewardPool",
  "sourceName": "contracts/MasterRewardPool.sol",
  "abi": [
    {
      "anonymous": false,
      "inputs": [
        {
          "indexed": false,
          "internalType": "address",
          "name": "previousAdmin",
          "type": "address"
        },
        {
          "indexed": false,
          "internalType": "address",
          "name": "newAdmin",
          "type": "address"
        }
      ],
      "name": "AdminChanged",
      "type": "event"
    },
    {
      "anonymous": false,
      "inputs": [
        {
          "indexed": true,
          "internalType": "address",
          "name": "beacon",
          "type": "address"
        }
      ],
      "name": "BeaconUpgraded",
      "type": "event"
    },
    {
      "anonymous": false,
      "inputs": [
        {
          "indexed": false,
          "internalType": "uint8",
          "name": "version",
          "type": "uint8"
        }
      ],
      "name": "Initialized",
      "type": "event"
    },
    {
      "anonymous": false,
      "inputs": [
        {
          "indexed": true,
          "internalType": "bytes32",
          "name": "role",
          "type": "bytes32"
        },
        {
          "indexed": true,
          "internalType": "bytes32",
          "name": "previousAdminRole",
          "type": "bytes32"
        },
        {
          "indexed": true,
          "internalType": "bytes32",
          "name": "newAdminRole",
          "type": "bytes32"
        }
      ],
      "name": "RoleAdminChanged",
      "type": "event"
    },
    {
      "anonymous": false,
      "inputs": [
        {
          "indexed": true,
          "internalType": "bytes32",
          "name": "role",
          "type": "bytes32"
        },
        {
          "indexed": true,
          "internalType": "address",
          "name": "account",
          "type": "address"
        },
        {
          "indexed": true,
          "internalType": "address",
          "name": "sender",
          "type": "address"
        }
      ],
      "name": "RoleGranted",
      "type": "event"
    },
    {
      "anonymous": false,
      "inputs": [
        {
          "indexed": true,
          "internalType": "bytes32",
          "name": "role",
          "type": "bytes32"
        },
        {
          "indexed": true,
          "internalType": "address",
          "name": "account",
          "type": "address"
        },
        {
          "indexed": true,
          "internalType": "address",
          "name": "sender",
          "type": "address"
        }
      ],
      "name": "RoleRevoked",
      "type": "event"
    },
    {
      "anonymous": false,
      "inputs": [
        {
          "indexed": true,
          "internalType": "address",
          "name": "implementation",
          "type": "address"
        }
      ],
      "name": "Upgraded",
      "type": "event"
    },
    {
      "inputs": [],
      "name": "DEFAULT_ADMIN_ROLE",
      "outputs": [
        {
          "internalType": "bytes32",
          "name": "",
          "type": "bytes32"
        }
      ],
      "stateMutability": "view",
      "type": "function"
    },
    {
      "inputs": [],
      "name": "DESIGNER_ROLE",
      "outputs": [
        {
          "internalType": "bytes32",
          "name": "",
          "type": "bytes32"
        }
      ],
      "stateMutability": "view",
      "type": "function"
    },
    {
      "inputs": [],
      "name": "TRANSFERER_ROLE",
      "outputs": [
        {
          "internalType": "bytes32",
          "name": "",
          "type": "bytes32"
        }
      ],
      "stateMutability": "view",
      "type": "function"
    },
    {
      "inputs": [],
      "name": "UPGRADER_ROLE",
      "outputs": [
        {
          "internalType": "bytes32",
          "name": "",
          "type": "bytes32"
        }
      ],
      "stateMutability": "view",
      "type": "function"
    },
    {
      "inputs": [],
      "name": "WITHDRAWER_ROLE",
      "outputs": [
        {
          "internalType": "bytes32",
          "name": "",
          "type": "bytes32"
        }
      ],
      "stateMutability": "view",
      "type": "function"
    },
    {
      "inputs": [
        {
          "internalType": "address",
          "name": "receiver",
          "type": "address"
        },
        {
          "internalType": "address",
          "name": "token",
          "type": "address"
        },
        {
          "internalType": "uint256",
          "name": "amount",
          "type": "uint256"
        }
      ],
      "name": "adminWithdraw",
      "outputs": [],
      "stateMutability": "nonpayable",
      "type": "function"
    },
    {
      "inputs": [],
      "name": "childPool",
      "outputs": [
        {
          "internalType": "address",
          "name": "",
          "type": "address"
        }
      ],
      "stateMutability": "view",
      "type": "function"
    },
    {
      "inputs": [
        {
          "internalType": "bytes32",
          "name": "role",
          "type": "bytes32"
        }
      ],
      "name": "getRoleAdmin",
      "outputs": [
        {
          "internalType": "bytes32",
          "name": "",
          "type": "bytes32"
        }
      ],
      "stateMutability": "view",
      "type": "function"
    },
    {
      "inputs": [
        {
          "internalType": "bytes32",
          "name": "role",
          "type": "bytes32"
        },
        {
          "internalType": "address",
          "name": "account",
          "type": "address"
        }
      ],
      "name": "grantRole",
      "outputs": [],
      "stateMutability": "nonpayable",
      "type": "function"
    },
    {
      "inputs": [
        {
          "internalType": "bytes32",
          "name": "role",
          "type": "bytes32"
        },
        {
          "internalType": "address",
          "name": "account",
          "type": "address"
        }
      ],
      "name": "hasRole",
      "outputs": [
        {
          "internalType": "bool",
          "name": "",
          "type": "bool"
        }
      ],
      "stateMutability": "view",
      "type": "function"
    },
    {
      "inputs": [],
      "name": "initialize",
      "outputs": [],
      "stateMutability": "nonpayable",
      "type": "function"
    },
    {
      "inputs": [],
      "name": "proxiableUUID",
      "outputs": [
        {
          "internalType": "bytes32",
          "name": "",
          "type": "bytes32"
        }
      ],
      "stateMutability": "view",
      "type": "function"
    },
    {
      "inputs": [
        {
          "internalType": "bytes32",
          "name": "role",
          "type": "bytes32"
        },
        {
          "internalType": "address",
          "name": "account",
          "type": "address"
        }
      ],
      "name": "renounceRole",
      "outputs": [],
      "stateMutability": "nonpayable",
      "type": "function"
    },
    {
      "inputs": [
        {
          "internalType": "bytes32",
          "name": "role",
          "type": "bytes32"
        },
        {
          "internalType": "address",
          "name": "account",
          "type": "address"
        }
      ],
      "name": "revokeRole",
      "outputs": [],
      "stateMutability": "nonpayable",
      "type": "function"
    },
    {
      "inputs": [
        {
          "internalType": "address",
          "name": "_addr",
          "type": "address"
        }
      ],
      "name": "setChildPool",
      "outputs": [],
      "stateMutability": "nonpayable",
      "type": "function"
    },
    {
      "inputs": [
        {
          "internalType": "address",
          "name": "token",
          "type": "address"
        },
        {
          "internalType": "uint256",
          "name": "limit",
          "type": "uint256"
        }
      ],
      "name": "setTokenTransferLimit",
      "outputs": [],
      "stateMutability": "nonpayable",
      "type": "function"
    },
    {
      "inputs": [
        {
          "internalType": "bytes4",
          "name": "interfaceId",
          "type": "bytes4"
        }
      ],
      "name": "supportsInterface",
      "outputs": [
        {
          "internalType": "bool",
          "name": "",
          "type": "bool"
        }
      ],
      "stateMutability": "view",
      "type": "function"
    },
    {
      "inputs": [
        {
          "internalType": "address",
          "name": "",
          "type": "address"
        }
      ],
      "name": "tokenLimits",
      "outputs": [
        {
          "internalType": "uint256",
          "name": "",
          "type": "uint256"
        }
      ],
      "stateMutability": "view",
      "type": "function"
    },
    {
      "inputs": [
        {
          "internalType": "address",
          "name": "token",
          "type": "address"
        }
      ],
      "name": "transferToChildPool",
      "outputs": [],
      "stateMutability": "nonpayable",
      "type": "function"
    },
    {
      "inputs": [
        {
          "internalType": "address",
          "name": "newImplementation",
          "type": "address"
        }
      ],
      "name": "upgradeTo",
      "outputs": [],
      "stateMutability": "nonpayable",
      "type": "function"
    },
    {
      "inputs": [
        {
          "internalType": "address",
          "name": "newImplementation",
          "type": "address"
        },
        {
          "internalType": "bytes",
          "name": "data",
          "type": "bytes"
        }
      ],
      "name": "upgradeToAndCall",
      "outputs": [],
      "stateMutability": "payable",
      "type": "function"
    }
  ],
  "bytecode": "0x60a06040523060805234801561001457600080fd5b50608051611b9f61004c6000396000818161071c015281816107b2015281816108b90152818161094f0152610a460152611b9f6000f3fe60806040526004361061016a5760003560e01c80638129fc1c116100cb578063a404f1f11161007f578063df064ad811610059578063df064ad814610429578063f72c0d8b1461045d578063fe5dd9d21461049157600080fd5b8063a404f1f1146103c9578063ab71b9e7146103e9578063d547741f1461040957600080fd5b80639036d979116100b05780639036d9791461033657806391d148541461036e578063a217fddf146103b457600080fd5b80638129fc1c146102ed57806385f438c11461030257600080fd5b806336568abe11610122578063417a069811610107578063417a0698146102985780634f1ef286146102c557806352d1902d146102d857600080fd5b806336568abe146102585780633659cfe61461027857600080fd5b80631f9119b0116101535780631f9119b0146101e6578063248a9ca3146102085780632f2ff15d1461023857600080fd5b806301ffc9a71461016f5780630ade7dc1146101a4575b600080fd5b34801561017b57600080fd5b5061018f61018a36600461178c565b6104b1565b60405190151581526020015b60405180910390f35b3480156101b057600080fd5b506101d87f4f95d38bdf1c10f97389d9165d78fbae18ad4454e53a8ce330a76ca571454f8581565b60405190815260200161019b565b3480156101f257600080fd5b506102066102013660046117ea565b61054a565b005b34801561021457600080fd5b506101d8610223366004611826565b60009081526065602052604090206001015490565b34801561024457600080fd5b5061020661025336600461183f565b61065c565b34801561026457600080fd5b5061020661027336600461183f565b610686565b34801561028457600080fd5b5061020661029336600461186b565b610712565b3480156102a457600080fd5b506101d86102b336600461186b565b60fc6020526000908152604090205481565b6102066102d336600461189c565b6108af565b3480156102e457600080fd5b506101d8610a39565b3480156102f957600080fd5b50610206610afe565b34801561030e57600080fd5b506101d87f10dac8c06a04bec0b551627dad28bc00d6516b0caacd1c7b345fcdb5211334e481565b34801561034257600080fd5b5060fb54610356906001600160a01b031681565b6040516001600160a01b03909116815260200161019b565b34801561037a57600080fd5b5061018f61038936600461183f565b60009182526065602090815260408084206001600160a01b0393909316845291905290205460ff1690565b3480156103c057600080fd5b506101d8600081565b3480156103d557600080fd5b506102066103e436600461195e565b610cd8565b3480156103f557600080fd5b5061020661040436600461186b565b610d1f565b34801561041557600080fd5b5061020661042436600461183f565b610d84565b34801561043557600080fd5b506101d87f22c69ab406805e70d07fb1a6502af760601d3b977beadb295a9d76d5852e16a381565b34801561046957600080fd5b506101d87f189ab7a9244df0848122154315af71fe140f3db0fe014031783b0946b8c9d2e381565b34801561049d57600080fd5b506102066104ac36600461186b565b610da9565b60007fffffffff0000000000000000000000000000000000000000000000000000000082167f7965db0b00000000000000000000000000000000000000000000000000000000148061054457507f01ffc9a7000000000000000000000000000000000000000000000000000000007fffffffff000000000000000000000000000000000000000000000000000000008316145b92915050565b7f10dac8c06a04bec0b551627dad28bc00d6516b0caacd1c7b345fcdb5211334e461057481610ed9565b600082116105c95760405162461bcd60e51b815260206004820152601d60248201527f416d6f756e74206d7573742062652067726561746572207468616e203000000060448201526064015b60405180910390fd5b6040517fa9059cbb0000000000000000000000000000000000000000000000000000000081526001600160a01b0385811660048301526024820184905284169063a9059cbb906044016020604051808303816000875af1158015610631573d6000803e3d6000fd5b505050506040513d601f19601f820116820180604052508101906106559190611988565b5050505050565b60008281526065602052604090206001015461067781610ed9565b6106818383610ee3565b505050565b6001600160a01b03811633146107045760405162461bcd60e51b815260206004820152602f60248201527f416363657373436f6e74726f6c3a2063616e206f6e6c792072656e6f756e636560448201527f20726f6c657320666f722073656c66000000000000000000000000000000000060648201526084016105c0565b61070e8282610f85565b5050565b6001600160a01b037f00000000000000000000000000000000000000000000000000000000000000001630036107b05760405162461bcd60e51b815260206004820152602c60248201527f46756e6374696f6e206d7573742062652063616c6c6564207468726f7567682060448201527f64656c656761746563616c6c000000000000000000000000000000000000000060648201526084016105c0565b7f00000000000000000000000000000000000000000000000000000000000000006001600160a01b031661080b7f360894a13ba1a3210667c828492db98dca3e2076cc3735a920a3ca505d382bbc546001600160a01b031690565b6001600160a01b0316146108875760405162461bcd60e51b815260206004820152602c60248201527f46756e6374696f6e206d7573742062652063616c6c6564207468726f7567682060448201527f6163746976652070726f7879000000000000000000000000000000000000000060648201526084016105c0565b61089081611008565b604080516000808252602082019092526108ac91839190611032565b50565b6001600160a01b037f000000000000000000000000000000000000000000000000000000000000000016300361094d5760405162461bcd60e51b815260206004820152602c60248201527f46756e6374696f6e206d7573742062652063616c6c6564207468726f7567682060448201527f64656c656761746563616c6c000000000000000000000000000000000000000060648201526084016105c0565b7f00000000000000000000000000000000000000000000000000000000000000006001600160a01b03166109a87f360894a13ba1a3210667c828492db98dca3e2076cc3735a920a3ca505d382bbc546001600160a01b031690565b6001600160a01b031614610a245760405162461bcd60e51b815260206004820152602c60248201527f46756e6374696f6e206d7573742062652063616c6c6564207468726f7567682060448201527f6163746976652070726f7879000000000000000000000000000000000000000060648201526084016105c0565b610a2d82611008565b61070e82826001611032565b6000306001600160a01b037f00000000000000000000000000000000000000000000000000000000000000001614610ad95760405162461bcd60e51b815260206004820152603860248201527f555550535570677261646561626c653a206d757374206e6f742062652063616c60448201527f6c6564207468726f7567682064656c656761746563616c6c000000000000000060648201526084016105c0565b507f360894a13ba1a3210667c828492db98dca3e2076cc3735a920a3ca505d382bbc90565b600054610100900460ff1615808015610b1e5750600054600160ff909116105b80610b385750303b158015610b38575060005460ff166001145b610baa5760405162461bcd60e51b815260206004820152602e60248201527f496e697469616c697a61626c653a20636f6e747261637420697320616c72656160448201527f647920696e697469616c697a656400000000000000000000000000000000000060648201526084016105c0565b6000805460ff191660011790558015610bcd576000805461ff0019166101001790555b610bd56111d2565b610bdd6111d2565b610be8600033610ee3565b610c127f189ab7a9244df0848122154315af71fe140f3db0fe014031783b0946b8c9d2e333610ee3565b610c3c7f22c69ab406805e70d07fb1a6502af760601d3b977beadb295a9d76d5852e16a333610ee3565b610c667f4f95d38bdf1c10f97389d9165d78fbae18ad4454e53a8ce330a76ca571454f8533610ee3565b610c907f10dac8c06a04bec0b551627dad28bc00d6516b0caacd1c7b345fcdb5211334e433610ee3565b80156108ac576000805461ff0019169055604051600181527f7f26b83ff96e1f2b6a682f133852f6798a09c465da95921460cefb38474024989060200160405180910390a150565b7f22c69ab406805e70d07fb1a6502af760601d3b977beadb295a9d76d5852e16a3610d0281610ed9565b506001600160a01b03909116600090815260fc6020526040902055565b7f22c69ab406805e70d07fb1a6502af760601d3b977beadb295a9d76d5852e16a3610d4981610ed9565b5060fb80547fffffffffffffffffffffffff0000000000000000000000000000000000000000166001600160a01b0392909216919091179055565b600082815260656020526040902060010154610d9f81610ed9565b6106818383610f85565b7f4f95d38bdf1c10f97389d9165d78fbae18ad4454e53a8ce330a76ca571454f85610dd381610ed9565b6001600160a01b038216600090815260fc6020526040902054610e385760405162461bcd60e51b815260206004820152600f60248201527f746f6b656e206c696d6974203e2030000000000000000000000000000000000060448201526064016105c0565b60fb546001600160a01b03838116600081815260fc6020526040908190205490517fa9059cbb000000000000000000000000000000000000000000000000000000008152929093166004830152602482019290925263a9059cbb906044016020604051808303816000875af1158015610eb5573d6000803e3d6000fd5b505050506040513d601f19601f820116820180604052508101906106819190611988565b6108ac8133611251565b60008281526065602090815260408083206001600160a01b038516845290915290205460ff1661070e5760008281526065602090815260408083206001600160a01b03851684529091529020805460ff19166001179055610f413390565b6001600160a01b0316816001600160a01b0316837f2f8788117e7eff1d82e926ec794901d17c78024a50270940304540a733656f0d60405160405180910390a45050565b60008281526065602090815260408083206001600160a01b038516845290915290205460ff161561070e5760008281526065602090815260408083206001600160a01b0385168085529252808320805460ff1916905551339285917ff6391f5c32d9c69d2a47ea670b442974b53935d1edc7fd64eb21e047a839171b9190a45050565b7f189ab7a9244df0848122154315af71fe140f3db0fe014031783b0946b8c9d2e361070e81610ed9565b7f4910fdfa16fed3260ed0e7147f7cc6da11a60208b5b9406d12a635614ffd91435460ff161561106557610681836112c6565b826001600160a01b03166352d1902d6040518163ffffffff1660e01b8152600401602060405180830381865afa9250505080156110bf575060408051601f3d908101601f191682019092526110bc918101906119aa565b60015b6111315760405162461bcd60e51b815260206004820152602e60248201527f45524331393637557067726164653a206e657720696d706c656d656e7461746960448201527f6f6e206973206e6f74205555505300000000000000000000000000000000000060648201526084016105c0565b7f360894a13ba1a3210667c828492db98dca3e2076cc3735a920a3ca505d382bbc81146111c65760405162461bcd60e51b815260206004820152602960248201527f45524331393637557067726164653a20756e737570706f727465642070726f7860448201527f6961626c6555554944000000000000000000000000000000000000000000000060648201526084016105c0565b5061068183838361139c565b600054610100900460ff1661124f5760405162461bcd60e51b815260206004820152602b60248201527f496e697469616c697a61626c653a20636f6e7472616374206973206e6f74206960448201527f6e697469616c697a696e6700000000000000000000000000000000000000000060648201526084016105c0565b565b60008281526065602090815260408083206001600160a01b038516845290915290205460ff1661070e57611284816113c7565b61128f8360206113d9565b6040516020016112a09291906119e7565b60408051601f198184030181529082905262461bcd60e51b82526105c091600401611a68565b6001600160a01b0381163b6113435760405162461bcd60e51b815260206004820152602d60248201527f455243313936373a206e657720696d706c656d656e746174696f6e206973206e60448201527f6f74206120636f6e74726163740000000000000000000000000000000000000060648201526084016105c0565b7f360894a13ba1a3210667c828492db98dca3e2076cc3735a920a3ca505d382bbc80547fffffffffffffffffffffffff0000000000000000000000000000000000000000166001600160a01b0392909216919091179055565b6113a583611609565b6000825111806113b25750805b15610681576113c18383611649565b50505050565b60606105446001600160a01b03831660145b606060006113e8836002611ab1565b6113f3906002611ac8565b67ffffffffffffffff81111561140b5761140b611886565b6040519080825280601f01601f191660200182016040528015611435576020820181803683370190505b5090507f30000000000000000000000000000000000000000000000000000000000000008160008151811061146c5761146c611adb565b60200101907effffffffffffffffffffffffffffffffffffffffffffffffffffffffffffff1916908160001a9053507f7800000000000000000000000000000000000000000000000000000000000000816001815181106114cf576114cf611adb565b60200101907effffffffffffffffffffffffffffffffffffffffffffffffffffffffffffff1916908160001a905350600061150b846002611ab1565b611516906001611ac8565b90505b60018111156115b3577f303132333435363738396162636465660000000000000000000000000000000085600f166010811061155757611557611adb565b1a60f81b82828151811061156d5761156d611adb565b60200101907effffffffffffffffffffffffffffffffffffffffffffffffffffffffffffff1916908160001a90535060049490941c936115ac81611af1565b9050611519565b5083156116025760405162461bcd60e51b815260206004820181905260248201527f537472696e67733a20686578206c656e67746820696e73756666696369656e7460448201526064016105c0565b9392505050565b611612816112c6565b6040516001600160a01b038216907fbc7cd75a20ee27fd9adebab32041f755214dbc6bffa90cc0225b39da2e5c2d3b90600090a250565b60606116028383604051806060016040528060278152602001611b43602791396060600080856001600160a01b0316856040516116869190611b26565b600060405180830381855af49150503d80600081146116c1576040519150601f19603f3d011682016040523d82523d6000602084013e6116c6565b606091505b50915091506116d7868383876116e1565b9695505050505050565b60608315611750578251600003611749576001600160a01b0385163b6117495760405162461bcd60e51b815260206004820152601d60248201527f416464726573733a2063616c6c20746f206e6f6e2d636f6e747261637400000060448201526064016105c0565b508161175a565b61175a8383611762565b949350505050565b8151156117725781518083602001fd5b8060405162461bcd60e51b81526004016105c09190611a68565b60006020828403121561179e57600080fd5b81357fffffffff000000000000000000000000000000000000000000000000000000008116811461160257600080fd5b80356001600160a01b03811681146117e557600080fd5b919050565b6000806000606084860312156117ff57600080fd5b611808846117ce565b9250611816602085016117ce565b9150604084013590509250925092565b60006020828403121561183857600080fd5b5035919050565b6000806040838503121561185257600080fd5b82359150611862602084016117ce565b90509250929050565b60006020828403121561187d57600080fd5b611602826117ce565b634e487b7160e01b600052604160045260246000fd5b600080604083850312156118af57600080fd5b6118b8836117ce565b9150602083013567ffffffffffffffff808211156118d557600080fd5b818501915085601f8301126118e957600080fd5b8135818111156118fb576118fb611886565b604051601f8201601f19908116603f0116810190838211818310171561192357611923611886565b8160405282815288602084870101111561193c57600080fd5b8260208601602083013760006020848301015280955050505050509250929050565b6000806040838503121561197157600080fd5b61197a836117ce565b946020939093013593505050565b60006020828403121561199a57600080fd5b8151801515811461160257600080fd5b6000602082840312156119bc57600080fd5b5051919050565b60005b838110156119de5781810151838201526020016119c6565b50506000910152565b7f416363657373436f6e74726f6c3a206163636f756e7420000000000000000000815260008351611a1f8160178501602088016119c3565b7f206973206d697373696e6720726f6c65200000000000000000000000000000006017918401918201528351611a5c8160288401602088016119c3565b01602801949350505050565b6020815260008251806020840152611a878160408501602087016119c3565b601f01601f19169190910160400192915050565b634e487b7160e01b600052601160045260246000fd5b808202811582820484141761054457610544611a9b565b8082018082111561054457610544611a9b565b634e487b7160e01b600052603260045260246000fd5b600081611b0057611b00611a9b565b507fffffffffffffffffffffffffffffffffffffffffffffffffffffffffffffffff0190565b60008251611b388184602087016119c3565b919091019291505056fe416464726573733a206c6f772d6c6576656c2064656c65676174652063616c6c206661696c6564a26469706673582212201d34f141302233a2b25c2120aea795dcb0861fb735a6e7f1bb9bb6098d22cb4464736f6c63430008180033",
  "linkReferences": {},
  "deployedLinkReferences": {}
}