{
  "_format": "hh-sol-artifact-1",
  "contractName": "BHouseDesign",
  "sourceName": "contracts/BHouseDesign.sol",
  "abi": [
    {
      "anonymous": false,
      "inputs": [
        {
          "indexed": false,
          "internalType": "address",
          "name": "previousAdmin",
          "type": "address"
        },
        {
          "indexed": false,
          "internalType": "address",
          "name": "newAdmin",
          "type": "address"
        }
      ],
      "name": "AdminChanged",
      "type": "event"
    },
    {
      "anonymous": false,
      "inputs": [
        {
          "indexed": true,
          "internalType": "address",
          "name": "beacon",
          "type": "address"
        }
      ],
      "name": "BeaconUpgraded",
      "type": "event"
    },
    {
      "anonymous": false,
      "inputs": [
        {
          "indexed": false,
          "internalType": "uint8",
          "name": "version",
          "type": "uint8"
        }
      ],
      "name": "Initialized",
      "type": "event"
    },
    {
      "anonymous": false,
      "inputs": [
        {
          "indexed": true,
          "internalType": "bytes32",
          "name": "role",
          "type": "bytes32"
        },
        {
          "indexed": true,
          "internalType": "bytes32",
          "name": "previousAdminRole",
          "type": "bytes32"
        },
        {
          "indexed": true,
          "internalType": "bytes32",
          "name": "newAdminRole",
          "type": "bytes32"
        }
      ],
      "name": "RoleAdminChanged",
      "type": "event"
    },
    {
      "anonymous": false,
      "inputs": [
        {
          "indexed": true,
          "internalType": "bytes32",
          "name": "role",
          "type": "bytes32"
        },
        {
          "indexed": true,
          "internalType": "address",
          "name": "account",
          "type": "address"
        },
        {
          "indexed": true,
          "internalType": "address",
          "name": "sender",
          "type": "address"
        }
      ],
      "name": "RoleGranted",
      "type": "event"
    },
    {
      "anonymous": false,
      "inputs": [
        {
          "indexed": true,
          "internalType": "bytes32",
          "name": "role",
          "type": "bytes32"
        },
        {
          "indexed": true,
          "internalType": "address",
          "name": "account",
          "type": "address"
        },
        {
          "indexed": true,
          "internalType": "address",
          "name": "sender",
          "type": "address"
        }
      ],
      "name": "RoleRevoked",
      "type": "event"
    },
    {
      "anonymous": false,
      "inputs": [
        {
          "indexed": true,
          "internalType": "address",
          "name": "implementation",
          "type": "address"
        }
      ],
      "name": "Upgraded",
      "type": "event"
    },
    {
      "inputs": [],
      "name": "DEFAULT_ADMIN_ROLE",
      "outputs": [
        {
          "internalType": "bytes32",
          "name": "",
          "type": "bytes32"
        }
      ],
      "stateMutability": "view",
      "type": "function"
    },
    {
      "inputs": [],
      "name": "DESIGNER_ROLE",
      "outputs": [
        {
          "internalType": "bytes32",
          "name": "",
          "type": "bytes32"
        }
      ],
      "stateMutability": "view",
      "type": "function"
    },
    {
      "inputs": [],
      "name": "UPGRADER_ROLE",
      "outputs": [
        {
          "internalType": "bytes32",
          "name": "",
          "type": "bytes32"
        }
      ],
      "stateMutability": "view",
      "type": "function"
    },
    {
      "inputs": [
        {
          "internalType": "uint256",
          "name": "id",
          "type": "uint256"
        },
        {
          "internalType": "uint256",
          "name": "rarity",
          "type": "uint256"
        }
      ],
      "name": "createToken",
      "outputs": [
        {
          "internalType": "uint256",
          "name": "encodedDetails",
          "type": "uint256"
        }
      ],
      "stateMutability": "view",
      "type": "function"
    },
    {
      "inputs": [
        {
          "internalType": "uint256",
          "name": "rarity",
          "type": "uint256"
        }
      ],
      "name": "getMintCost",
      "outputs": [
        {
          "internalType": "uint256",
          "name": "",
          "type": "uint256"
        }
      ],
      "stateMutability": "view",
      "type": "function"
    },
    {
      "inputs": [],
      "name": "getMintCosts",
      "outputs": [
        {
          "internalType": "uint256[]",
          "name": "",
          "type": "uint256[]"
        }
      ],
      "stateMutability": "view",
      "type": "function"
    },
    {
      "inputs": [],
      "name": "getMintLimits",
      "outputs": [
        {
          "internalType": "uint256[]",
          "name": "",
          "type": "uint256[]"
        }
      ],
      "stateMutability": "view",
      "type": "function"
    },
    {
      "inputs": [],
      "name": "getRarityStats",
      "outputs": [
        {
          "components": [
            {
              "internalType": "uint256",
              "name": "recovery",
              "type": "uint256"
            },
            {
              "internalType": "uint256",
              "name": "capacity",
              "type": "uint256"
            }
          ],
          "internalType": "struct BHouseDesign.Stats[]",
          "name": "",
          "type": "tuple[]"
        }
      ],
      "stateMutability": "view",
      "type": "function"
    },
    {
      "inputs": [
        {
          "internalType": "bytes32",
          "name": "role",
          "type": "bytes32"
        }
      ],
      "name": "getRoleAdmin",
      "outputs": [
        {
          "internalType": "bytes32",
          "name": "",
          "type": "bytes32"
        }
      ],
      "stateMutability": "view",
      "type": "function"
    },
    {
      "inputs": [],
      "name": "getTokenLimit",
      "outputs": [
        {
          "internalType": "uint256",
          "name": "",
          "type": "uint256"
        }
      ],
      "stateMutability": "view",
      "type": "function"
    },
    {
      "inputs": [
        {
          "internalType": "bytes32",
          "name": "role",
          "type": "bytes32"
        },
        {
          "internalType": "address",
          "name": "account",
          "type": "address"
        }
      ],
      "name": "grantRole",
      "outputs": [],
      "stateMutability": "nonpayable",
      "type": "function"
    },
    {
      "inputs": [
        {
          "internalType": "bytes32",
          "name": "role",
          "type": "bytes32"
        },
        {
          "internalType": "address",
          "name": "account",
          "type": "address"
        }
      ],
      "name": "hasRole",
      "outputs": [
        {
          "internalType": "bool",
          "name": "",
          "type": "bool"
        }
      ],
      "stateMutability": "view",
      "type": "function"
    },
    {
      "inputs": [],
      "name": "initialize",
      "outputs": [],
      "stateMutability": "nonpayable",
      "type": "function"
    },
    {
      "inputs": [],
      "name": "proxiableUUID",
      "outputs": [
        {
          "internalType": "bytes32",
          "name": "",
          "type": "bytes32"
        }
      ],
      "stateMutability": "view",
      "type": "function"
    },
    {
      "inputs": [
        {
          "internalType": "bytes32",
          "name": "role",
          "type": "bytes32"
        },
        {
          "internalType": "address",
          "name": "account",
          "type": "address"
        }
      ],
      "name": "renounceRole",
      "outputs": [],
      "stateMutability": "nonpayable",
      "type": "function"
    },
    {
      "inputs": [
        {
          "internalType": "bytes32",
          "name": "role",
          "type": "bytes32"
        },
        {
          "internalType": "address",
          "name": "account",
          "type": "address"
        }
      ],
      "name": "revokeRole",
      "outputs": [],
      "stateMutability": "nonpayable",
      "type": "function"
    },
    {
      "inputs": [
        {
          "internalType": "uint256[]",
          "name": "value",
          "type": "uint256[]"
        }
      ],
      "name": "setMintCosts",
      "outputs": [],
      "stateMutability": "nonpayable",
      "type": "function"
    },
    {
      "inputs": [
        {
          "internalType": "uint256[]",
          "name": "value",
          "type": "uint256[]"
        }
      ],
      "name": "setMintLimits",
      "outputs": [],
      "stateMutability": "nonpayable",
      "type": "function"
    },
    {
      "inputs": [
        {
          "internalType": "uint256",
          "name": "rarity",
          "type": "uint256"
        },
        {
          "components": [
            {
              "internalType": "uint256",
              "name": "recovery",
              "type": "uint256"
            },
            {
              "internalType": "uint256",
              "name": "capacity",
              "type": "uint256"
            }
          ],
          "internalType": "struct BHouseDesign.Stats",
          "name": "stats",
          "type": "tuple"
        }
      ],
      "name": "setRarityStats",
      "outputs": [],
      "stateMutability": "nonpayable",
      "type": "function"
    },
    {
      "inputs": [
        {
          "internalType": "uint256",
          "name": "value",
          "type": "uint256"
        }
      ],
      "name": "setTokenLimit",
      "outputs": [],
      "stateMutability": "nonpayable",
      "type": "function"
    },
    {
      "inputs": [
        {
          "internalType": "bytes4",
          "name": "interfaceId",
          "type": "bytes4"
        }
      ],
      "name": "supportsInterface",
      "outputs": [
        {
          "internalType": "bool",
          "name": "",
          "type": "bool"
        }
      ],
      "stateMutability": "view",
      "type": "function"
    },
    {
      "inputs": [
        {
          "internalType": "address",
          "name": "newImplementation",
          "type": "address"
        }
      ],
      "name": "upgradeTo",
      "outputs": [],
      "stateMutability": "nonpayable",
      "type": "function"
    },
    {
      "inputs": [
        {
          "internalType": "address",
          "name": "newImplementation",
          "type": "address"
        },
        {
          "internalType": "bytes",
          "name": "data",
          "type": "bytes"
        }
      ],
      "name": "upgradeToAndCall",
      "outputs": [],
      "stateMutability": "payable",
      "type": "function"
    }
  ],
  "bytecode": "0x60a06040523060805234801561001457600080fd5b5060805161217261004c6000396000818161061f015281816106b5015281816107bc0152818161085201526109a101526121726000f3fe6080604052600436106101805760003560e01c8063585f75d2116100d6578063c0e68fec1161007f578063df064ad811610059578063df064ad814610420578063e9cb7b5d14610454578063f72c0d8b1461047457600080fd5b8063c0e68fec146103cb578063cc86d971146103eb578063d547741f1461040057600080fd5b80638b3c88b4116100b05780638b3c88b41461034e57806391d1485414610370578063a217fddf146103b657600080fd5b8063585f75d2146102f95780636a24d8eb146103195780638129fc1c1461033957600080fd5b80632f2ff15d116101385780634f1ef286116101125780634f1ef286146102af578063502c9fdd146102c257806352d1902d146102e457600080fd5b80632f2ff15d1461024d57806336568abe1461026f5780633659cfe61461028f57600080fd5b8063248a9ca311610169578063248a9ca3146101e857806328485586146102185780632a8050691461022d57600080fd5b806301ffc9a7146101855780630c509436146101ba575b600080fd5b34801561019157600080fd5b506101a56101a0366004611c0b565b6104a8565b60405190151581526020015b60405180910390f35b3480156101c657600080fd5b506101da6101d5366004611c4d565b6104b9565b6040519081526020016101b1565b3480156101f457600080fd5b506101da610203366004611c4d565b60009081526065602052604090206001015490565b34801561022457600080fd5b5060fc546101da565b34801561023957600080fd5b506101da610248366004611c66565b6104e0565b34801561025957600080fd5b5061026d610268366004611ca4565b61055a565b005b34801561027b57600080fd5b5061026d61028a366004611ca4565b610584565b34801561029b57600080fd5b5061026d6102aa366004611cd0565b610615565b61026d6102bd366004611d32565b6107b2565b3480156102ce57600080fd5b506102d761093c565b6040516101b19190611dd8565b3480156102f057600080fd5b506101da610994565b34801561030557600080fd5b5061026d610314366004611e1c565b610a59565b34801561032557600080fd5b5061026d610334366004611e1c565b610a96565b34801561034557600080fd5b5061026d610ad3565b34801561035a57600080fd5b50610363610f6e565b6040516101b19190611ec2565b34801561037c57600080fd5b506101a561038b366004611ca4565b60009182526065602090815260408084206001600160a01b0393909316845291905290205460ff1690565b3480156103c257600080fd5b506101da600081565b3480156103d757600080fd5b5061026d6103e6366004611c4d565b611036565b3480156103f757600080fd5b506102d7611066565b34801561040c57600080fd5b5061026d61041b366004611ca4565b6110bc565b34801561042c57600080fd5b506101da7f22c69ab406805e70d07fb1a6502af760601d3b977beadb295a9d76d5852e16a381565b34801561046057600080fd5b5061026d61046f366004611f11565b6110e1565b34801561048057600080fd5b506101da7f189ab7a9244df0848122154315af71fe140f3db0fe014031783b0946b8c9d2e381565b60006104b38261112c565b92915050565b600060fe82815481106104ce576104ce611f7d565b90600052602060002001549050919050565b600061051b6040518060c001604052806000815260200160008152602001600081526020016000815260200160008152602001600081525090565b8381526040808201849052600084815260fb6020522080546060830152600181015460808301524360a0830152610551826111c3565b95945050505050565b60008281526065602052604090206001015461057581611264565b61057f838361126e565b505050565b6001600160a01b03811633146106075760405162461bcd60e51b815260206004820152602f60248201527f416363657373436f6e74726f6c3a2063616e206f6e6c792072656e6f756e636560448201527f20726f6c657320666f722073656c66000000000000000000000000000000000060648201526084015b60405180910390fd5b6106118282611310565b5050565b6001600160a01b037f00000000000000000000000000000000000000000000000000000000000000001630036106b35760405162461bcd60e51b815260206004820152602c60248201527f46756e6374696f6e206d7573742062652063616c6c6564207468726f7567682060448201527f64656c656761746563616c6c000000000000000000000000000000000000000060648201526084016105fe565b7f00000000000000000000000000000000000000000000000000000000000000006001600160a01b031661070e7f360894a13ba1a3210667c828492db98dca3e2076cc3735a920a3ca505d382bbc546001600160a01b031690565b6001600160a01b03161461078a5760405162461bcd60e51b815260206004820152602c60248201527f46756e6374696f6e206d7573742062652063616c6c6564207468726f7567682060448201527f6163746976652070726f7879000000000000000000000000000000000000000060648201526084016105fe565b61079381611393565b604080516000808252602082019092526107af918391906113bd565b50565b6001600160a01b037f00000000000000000000000000000000000000000000000000000000000000001630036108505760405162461bcd60e51b815260206004820152602c60248201527f46756e6374696f6e206d7573742062652063616c6c6564207468726f7567682060448201527f64656c656761746563616c6c000000000000000000000000000000000000000060648201526084016105fe565b7f00000000000000000000000000000000000000000000000000000000000000006001600160a01b03166108ab7f360894a13ba1a3210667c828492db98dca3e2076cc3735a920a3ca505d382bbc546001600160a01b031690565b6001600160a01b0316146109275760405162461bcd60e51b815260206004820152602c60248201527f46756e6374696f6e206d7573742062652063616c6c6564207468726f7567682060448201527f6163746976652070726f7879000000000000000000000000000000000000000060648201526084016105fe565b61093082611393565b610611828260016113bd565b606060fd80548060200260200160405190810160405280929190818152602001828054801561098a57602002820191906000526020600020905b815481526020019060010190808311610976575b5050505050905090565b6000306001600160a01b037f00000000000000000000000000000000000000000000000000000000000000001614610a345760405162461bcd60e51b815260206004820152603860248201527f555550535570677261646561626c653a206d757374206e6f742062652063616c60448201527f6c6564207468726f7567682064656c656761746563616c6c000000000000000060648201526084016105fe565b507f360894a13ba1a3210667c828492db98dca3e2076cc3735a920a3ca505d382bbc90565b7f22c69ab406805e70d07fb1a6502af760601d3b977beadb295a9d76d5852e16a3610a8381611264565b815161057f9060fd906020850190611b21565b7f22c69ab406805e70d07fb1a6502af760601d3b977beadb295a9d76d5852e16a3610ac081611264565b815161057f9060fe906020850190611b21565b600054610100900460ff1615808015610af35750600054600160ff909116105b80610b0d5750303b158015610b0d575060005460ff166001145b610b7f5760405162461bcd60e51b815260206004820152602e60248201527f496e697469616c697a61626c653a20636f6e747261637420697320616c72656160448201527f647920696e697469616c697a656400000000000000000000000000000000000060648201526084016105fe565b6000805460ff191660011790558015610ba2576000805461ff0019166101001790555b610baa61155d565b610bb261155d565b610bbd6000336115dc565b610be77f189ab7a9244df0848122154315af71fe140f3db0fe014031783b0946b8c9d2e3336115dc565b610c117f22c69ab406805e70d07fb1a6502af760601d3b977beadb295a9d76d5852e16a3336115dc565b6040805180820182526078815260046020808301828152600080805260fb80845294517fc88390e7e62175be0932452175b6a7222b6b094ab0ef984a5153c620345d89755590517fc88390e7e62175be0932452175b6a7222b6b094ab0ef984a5153c620345d8976558451808601865261012c815260068184018181526001845286855291517f2a7275fe4c26d2da08bf6ce7e19018758b6f6535090ef85c03b22de5f1b744875590517f2a7275fe4c26d2da08bf6ce7e19018758b6f6535090ef85c03b22de5f1b7448855855180870187526101e0815260088185019081526002845286855290517ff81cabfff9f7b48ed1d9e4787242b8dcf6088d5fe17bc1a09b1385cf00cba50f55517ff81cabfff9f7b48ed1d9e4787242b8dcf6088d5fe17bc1a09b1385cf00cba51055855180870187526102948152600a8185019081526003845286855290517fd5794055c470ad127734c045432fb8c430fbaf9f3de6f6682396d2fc04f0463f55517fd5794055c470ad127734c045432fb8c430fbaf9f3de6f6682396d2fc04f0464055855180870187526103488152600c818501908152948352858452517ff49019f5a48c470afefbd41013398e85892e4f3acb0a23703a70c9e3cc57d9785592517ff49019f5a48c470afefbd41013398e85892e4f3acb0a23703a70c9e3cc57d97955845180860186526103fc8152600e818401908152600592839052948352517fadfa49152ffb606d84941234cd111b41478472721b34f47118de4c0c4a58a0985592517fadfa49152ffb606d84941234cd111b41478472721b34f47118de4c0c4a58a0995560fc92909255825160c0810184526109c481526104e2928101929092526102ee9282019290925260fa606082015260c86080820152603260a0820152610eaf9160fd9190611b6c565b506040805160c08101825268270801d946c9400000815268821ab0d441498000006020820152690124bc0ddd92e5600000918101919091526902086ac3510526000000606082015269032d26d12e980b6000006080820152690492f037764b9580000060a0820152610f259060fe906006611bad565b5080156107af576000805461ff0019169055604051600181527f7f26b83ff96e1f2b6a682f133852f6798a09c465da95921460cefb38474024989060200160405180910390a150565b60fd5460609060008167ffffffffffffffff811115610f8f57610f8f611ceb565b604051908082528060200260200182016040528015610fd457816020015b6040805180820190915260008082526020820152815260200190600190039081610fad5790505b50905060005b8281101561102f57600081815260fb60209081526040918290208251808401909352805483526001015490820152825183908390811061101c5761101c611f7d565b6020908102919091010152600101610fda565b5092915050565b7f22c69ab406805e70d07fb1a6502af760601d3b977beadb295a9d76d5852e16a361106081611264565b5060fc55565b606060fe80548060200260200160405190810160405280929190818152602001828054801561098a5760200282019190600052602060002090815481526020019060010190808311610976575050505050905090565b6000828152606560205260409020600101546110d781611264565b61057f8383611310565b7f22c69ab406805e70d07fb1a6502af760601d3b977beadb295a9d76d5852e16a361110b81611264565b50600091825260fb6020908152604090922081518155910151600190910155565b60007fffffffff0000000000000000000000000000000000000000000000000000000082167f7965db0b0000000000000000000000000000000000000000000000000000000014806104b357507f01ffc9a7000000000000000000000000000000000000000000000000000000007fffffffff000000000000000000000000000000000000000000000000000000008316146104b3565b600063400000008260000151106111d957600080fd5b6104008260200151106111eb57600080fd5b60208260400151106111fc57600080fd5b61800082606001511061120e57600080fd5b602082608001511061121f57600080fd5b508051602082015160408301516060840151608085015160a09095015160411b603c9590951b602d9190911b60289290921b601e9390931b9093179190911717171790565b6107af81336115e6565b60008281526065602090815260408083206001600160a01b038516845290915290205460ff166106115760008281526065602090815260408083206001600160a01b03851684529091529020805460ff191660011790556112cc3390565b6001600160a01b0316816001600160a01b0316837f2f8788117e7eff1d82e926ec794901d17c78024a50270940304540a733656f0d60405160405180910390a45050565b60008281526065602090815260408083206001600160a01b038516845290915290205460ff16156106115760008281526065602090815260408083206001600160a01b0385168085529252808320805460ff1916905551339285917ff6391f5c32d9c69d2a47ea670b442974b53935d1edc7fd64eb21e047a839171b9190a45050565b7f189ab7a9244df0848122154315af71fe140f3db0fe014031783b0946b8c9d2e361061181611264565b7f4910fdfa16fed3260ed0e7147f7cc6da11a60208b5b9406d12a635614ffd91435460ff16156113f05761057f8361165b565b826001600160a01b03166352d1902d6040518163ffffffff1660e01b8152600401602060405180830381865afa92505050801561144a575060408051601f3d908101601f1916820190925261144791810190611f93565b60015b6114bc5760405162461bcd60e51b815260206004820152602e60248201527f45524331393637557067726164653a206e657720696d706c656d656e7461746960448201527f6f6e206973206e6f74205555505300000000000000000000000000000000000060648201526084016105fe565b7f360894a13ba1a3210667c828492db98dca3e2076cc3735a920a3ca505d382bbc81146115515760405162461bcd60e51b815260206004820152602960248201527f45524331393637557067726164653a20756e737570706f727465642070726f7860448201527f6961626c6555554944000000000000000000000000000000000000000000000060648201526084016105fe565b5061057f838383611731565b600054610100900460ff166115da5760405162461bcd60e51b815260206004820152602b60248201527f496e697469616c697a61626c653a20636f6e7472616374206973206e6f74206960448201527f6e697469616c697a696e6700000000000000000000000000000000000000000060648201526084016105fe565b565b610611828261126e565b60008281526065602090815260408083206001600160a01b038516845290915290205460ff16610611576116198161175c565b61162483602061176e565b604051602001611635929190611fd0565b60408051601f198184030181529082905262461bcd60e51b82526105fe91600401612051565b6001600160a01b0381163b6116d85760405162461bcd60e51b815260206004820152602d60248201527f455243313936373a206e657720696d706c656d656e746174696f6e206973206e60448201527f6f74206120636f6e74726163740000000000000000000000000000000000000060648201526084016105fe565b7f360894a13ba1a3210667c828492db98dca3e2076cc3735a920a3ca505d382bbc80547fffffffffffffffffffffffff0000000000000000000000000000000000000000166001600160a01b0392909216919091179055565b61173a8361199e565b6000825111806117475750805b1561057f5761175683836119de565b50505050565b60606104b36001600160a01b03831660145b6060600061177d83600261209a565b6117889060026120b1565b67ffffffffffffffff8111156117a0576117a0611ceb565b6040519080825280601f01601f1916602001820160405280156117ca576020820181803683370190505b5090507f30000000000000000000000000000000000000000000000000000000000000008160008151811061180157611801611f7d565b60200101907effffffffffffffffffffffffffffffffffffffffffffffffffffffffffffff1916908160001a9053507f78000000000000000000000000000000000000000000000000000000000000008160018151811061186457611864611f7d565b60200101907effffffffffffffffffffffffffffffffffffffffffffffffffffffffffffff1916908160001a90535060006118a084600261209a565b6118ab9060016120b1565b90505b6001811115611948577f303132333435363738396162636465660000000000000000000000000000000085600f16601081106118ec576118ec611f7d565b1a60f81b82828151811061190257611902611f7d565b60200101907effffffffffffffffffffffffffffffffffffffffffffffffffffffffffffff1916908160001a90535060049490941c93611941816120c4565b90506118ae565b5083156119975760405162461bcd60e51b815260206004820181905260248201527f537472696e67733a20686578206c656e67746820696e73756666696369656e7460448201526064016105fe565b9392505050565b6119a78161165b565b6040516001600160a01b038216907fbc7cd75a20ee27fd9adebab32041f755214dbc6bffa90cc0225b39da2e5c2d3b90600090a250565b60606119978383604051806060016040528060278152602001612116602791396060600080856001600160a01b031685604051611a1b91906120f9565b600060405180830381855af49150503d8060008114611a56576040519150601f19603f3d011682016040523d82523d6000602084013e611a5b565b606091505b5091509150611a6c86838387611a76565b9695505050505050565b60608315611ae5578251600003611ade576001600160a01b0385163b611ade5760405162461bcd60e51b815260206004820152601d60248201527f416464726573733a2063616c6c20746f206e6f6e2d636f6e747261637400000060448201526064016105fe565b5081611aef565b611aef8383611af7565b949350505050565b815115611b075781518083602001fd5b8060405162461bcd60e51b81526004016105fe9190612051565b828054828255906000526020600020908101928215611b5c579160200282015b82811115611b5c578251825591602001919060010190611b41565b50611b68929150611bf6565b5090565b828054828255906000526020600020908101928215611b5c579160200282015b82811115611b5c578251829061ffff16905591602001919060010190611b8c565b828054828255906000526020600020908101928215611b5c579160200282015b82811115611b5c578251829069ffffffffffffffffffff16905591602001919060010190611bcd565b5b80821115611b685760008155600101611bf7565b600060208284031215611c1d57600080fd5b81357fffffffff000000000000000000000000000000000000000000000000000000008116811461199757600080fd5b600060208284031215611c5f57600080fd5b5035919050565b60008060408385031215611c7957600080fd5b50508035926020909101359150565b80356001600160a01b0381168114611c9f57600080fd5b919050565b60008060408385031215611cb757600080fd5b82359150611cc760208401611c88565b90509250929050565b600060208284031215611ce257600080fd5b61199782611c88565b634e487b7160e01b600052604160045260246000fd5b604051601f8201601f1916810167ffffffffffffffff81118282101715611d2a57611d2a611ceb565b604052919050565b60008060408385031215611d4557600080fd5b611d4e83611c88565b915060208084013567ffffffffffffffff80821115611d6c57600080fd5b818601915086601f830112611d8057600080fd5b813581811115611d9257611d92611ceb565b611da484601f19601f84011601611d01565b91508082528784828501011115611dba57600080fd5b80848401858401376000848284010152508093505050509250929050565b6020808252825182820181905260009190848201906040850190845b81811015611e1057835183529284019291840191600101611df4565b50909695505050505050565b60006020808385031215611e2f57600080fd5b823567ffffffffffffffff80821115611e4757600080fd5b818501915085601f830112611e5b57600080fd5b813581811115611e6d57611e6d611ceb565b8060051b9150611e7e848301611d01565b8181529183018401918481019088841115611e9857600080fd5b938501935b83851015611eb657843582529385019390850190611e9d565b98975050505050505050565b602080825282518282018190526000919060409081850190868401855b82811015611f0457815180518552860151868501529284019290850190600101611edf565b5091979650505050505050565b6000808284036060811215611f2557600080fd5b833592506040601f1982011215611f3b57600080fd5b506040516040810181811067ffffffffffffffff82111715611f5f57611f5f611ceb565b60409081526020858101358352940135938101939093525092909150565b634e487b7160e01b600052603260045260246000fd5b600060208284031215611fa557600080fd5b5051919050565b60005b83811015611fc7578181015183820152602001611faf565b50506000910152565b7f416363657373436f6e74726f6c3a206163636f756e7420000000000000000000815260008351612008816017850160208801611fac565b7f206973206d697373696e6720726f6c65200000000000000000000000000000006017918401918201528351612045816028840160208801611fac565b01602801949350505050565b6020815260008251806020840152612070816040850160208701611fac565b601f01601f19169190910160400192915050565b634e487b7160e01b600052601160045260246000fd5b80820281158282048414176104b3576104b3612084565b808201808211156104b3576104b3612084565b6000816120d3576120d3612084565b507fffffffffffffffffffffffffffffffffffffffffffffffffffffffffffffffff0190565b6000825161210b818460208701611fac565b919091019291505056fe416464726573733a206c6f772d6c6576656c2064656c65676174652063616c6c206661696c6564a26469706673582212200aaed48c411b31113fd95ee556ea8e529a1c16e190be5a19e7c0d669d02b1ac864736f6c63430008180033",
  "linkReferences": {},
  "deployedLinkReferences": {}
}