{
  "_format": "hh-sol-artifact-1",
  "contractName": "SensparkPolygon",
  "sourceName": "contracts/SensparkPolygon.sol",
  "abi": [
    {
      "inputs": [],
      "stateMutability": "nonpayable",
      "type": "constructor"
    },
    {
      "inputs": [
        {
          "internalType": "address",
          "name": "spender",
          "type": "address"
        },
        {
          "internalType": "uint256",
          "name": "allowance",
          "type": "uint256"
        },
        {
          "internalType": "uint256",
          "name": "needed",
          "type": "uint256"
        }
      ],
      "name": "ERC20InsufficientAllowance",
      "type": "error"
    },
    {
      "inputs": [
        {
          "internalType": "address",
          "name": "sender",
          "type": "address"
        },
        {
          "internalType": "uint256",
          "name": "balance",
          "type": "uint256"
        },
        {
          "internalType": "uint256",
          "name": "needed",
          "type": "uint256"
        }
      ],
      "name": "ERC20InsufficientBalance",
      "type": "error"
    },
    {
      "inputs": [
        {
          "internalType": "address",
          "name": "approver",
          "type": "address"
        }
      ],
      "name": "ERC20InvalidApprover",
      "type": "error"
    },
    {
      "inputs": [
        {
          "internalType": "address",
          "name": "receiver",
          "type": "address"
        }
      ],
      "name": "ERC20InvalidReceiver",
      "type": "error"
    },
    {
      "inputs": [
        {
          "internalType": "address",
          "name": "sender",
          "type": "address"
        }
      ],
      "name": "ERC20InvalidSender",
      "type": "error"
    },
    {
      "inputs": [
        {
          "internalType": "address",
          "name": "spender",
          "type": "address"
        }
      ],
      "name": "ERC20InvalidSpender",
      "type": "error"
    },
    {
      "anonymous": false,
      "inputs": [
        {
          "indexed": true,
          "internalType": "address",
          "name": "owner",
          "type": "address"
        },
        {
          "indexed": true,
          "internalType": "address",
          "name": "spender",
          "type": "address"
        },
        {
          "indexed": false,
          "internalType": "uint256",
          "name": "value",
          "type": "uint256"
        }
      ],
      "name": "Approval",
      "type": "event"
    },
    {
      "anonymous": false,
      "inputs": [
        {
          "indexed": true,
          "internalType": "address",
          "name": "from",
          "type": "address"
        },
        {
          "indexed": true,
          "internalType": "address",
          "name": "to",
          "type": "address"
        },
        {
          "indexed": false,
          "internalType": "uint256",
          "name": "value",
          "type": "uint256"
        }
      ],
      "name": "Transfer",
      "type": "event"
    },
    {
      "inputs": [
        {
          "internalType": "address",
          "name": "owner",
          "type": "address"
        },
        {
          "internalType": "address",
          "name": "spender",
          "type": "address"
        }
      ],
      "name": "allowance",
      "outputs": [
        {
          "internalType": "uint256",
          "name": "",
          "type": "uint256"
        }
      ],
      "stateMutability": "view",
      "type": "function"
    },
    {
      "inputs": [
        {
          "internalType": "address",
          "name": "spender",
          "type": "address"
        },
        {
          "internalType": "uint256",
          "name": "value",
          "type": "uint256"
        }
      ],
      "name": "approve",
      "outputs": [
        {
          "internalType": "bool",
          "name": "",
          "type": "bool"
        }
      ],
      "stateMutability": "nonpayable",
      "type": "function"
    },
    {
      "inputs": [
        {
          "internalType": "address",
          "name": "account",
          "type": "address"
        }
      ],
      "name": "balanceOf",
      "outputs": [
        {
          "internalType": "uint256",
          "name": "",
          "type": "uint256"
        }
      ],
      "stateMutability": "view",
      "type": "function"
    },
    {
      "inputs": [
        {
          "internalType": "uint256",
          "name": "amount",
          "type": "uint256"
        }
      ],
      "name": "burn",
      "outputs": [],
      "stateMutability": "nonpayable",
      "type": "function"
    },
    {
      "inputs": [],
      "name": "decimals",
      "outputs": [
        {
          "internalType": "uint8",
          "name": "",
          "type": "uint8"
        }
      ],
      "stateMutability": "view",
      "type": "function"
    },
    {
      "inputs": [],
      "name": "name",
      "outputs": [
        {
          "internalType": "string",
          "name": "",
          "type": "string"
        }
      ],
      "stateMutability": "view",
      "type": "function"
    },
    {
      "inputs": [],
      "name": "symbol",
      "outputs": [
        {
          "internalType": "string",
          "name": "",
          "type": "string"
        }
      ],
      "stateMutability": "view",
      "type": "function"
    },
    {
      "inputs": [],
      "name": "totalSupply",
      "outputs": [
        {
          "internalType": "uint256",
          "name": "",
          "type": "uint256"
        }
      ],
      "stateMutability": "view",
      "type": "function"
    },
    {
      "inputs": [
        {
          "internalType": "address",
          "name": "to",
          "type": "address"
        },
        {
          "internalType": "uint256",
          "name": "value",
          "type": "uint256"
        }
      ],
      "name": "transfer",
      "outputs": [
        {
          "internalType": "bool",
          "name": "",
          "type": "bool"
        }
      ],
      "stateMutability": "nonpayable",
      "type": "function"
    },
    {
      "inputs": [
        {
          "internalType": "address",
          "name": "from",
          "type": "address"
        },
        {
          "internalType": "address",
          "name": "to",
          "type": "address"
        },
        {
          "internalType": "uint256",
          "name": "value",
          "type": "uint256"
        }
      ],
      "name": "transferFrom",
      "outputs": [
        {
          "internalType": "bool",
          "name": "",
          "type": "bool"
        }
      ],
      "stateMutability": "nonpayable",
      "type": "function"
    }
  ],
  "bytecode": "0x60806040523480156200001157600080fd5b506040518060400160405280600881526020016753656e737061726b60c01b8152506040518060400160405280600381526020016229a2a760e91b8152508160039081620000609190620002d5565b5060046200006f8282620002d5565b505050620000ae3362000087620000b460201b60201c565b620000979060ff16600a620004b6565b620000a8906402540be400620004cb565b620000b9565b620004fb565b601290565b6001600160a01b038216620000e95760405163ec442f0560e01b8152600060048201526024015b60405180910390fd5b620000f760008383620000fb565b5050565b6001600160a01b0383166200012a5780600260008282546200011e9190620004e5565b909155506200019e9050565b6001600160a01b038316600090815260208190526040902054818110156200017f5760405163391434e360e21b81526001600160a01b03851660048201526024810182905260448101839052606401620000e0565b6001600160a01b03841660009081526020819052604090209082900390555b6001600160a01b038216620001bc57600280548290039055620001db565b6001600160a01b03821660009081526020819052604090208054820190555b816001600160a01b0316836001600160a01b03167fddf252ad1be2c89b69c2b068fc378daa952ba7f163c4a11628f55a4df523b3ef836040516200022191815260200190565b60405180910390a3505050565b634e487b7160e01b600052604160045260246000fd5b600181811c908216806200025957607f821691505b6020821081036200027a57634e487b7160e01b600052602260045260246000fd5b50919050565b601f821115620002d0576000816000526020600020601f850160051c81016020861015620002ab5750805b601f850160051c820191505b81811015620002cc57828155600101620002b7565b5050505b505050565b81516001600160401b03811115620002f157620002f16200022e565b620003098162000302845462000244565b8462000280565b602080601f831160018114620003415760008415620003285750858301515b600019600386901b1c1916600185901b178555620002cc565b600085815260208120601f198616915b82811015620003725788860151825594840194600190910190840162000351565b5085821015620003915787850151600019600388901b60f8161c191681555b5050505050600190811b01905550565b634e487b7160e01b600052601160045260246000fd5b600181815b80851115620003f8578160001904821115620003dc57620003dc620003a1565b80851615620003ea57918102915b93841c9390800290620003bc565b509250929050565b6000826200041157506001620004b0565b816200042057506000620004b0565b8160018114620004395760028114620004445762000464565b6001915050620004b0565b60ff841115620004585762000458620003a1565b50506001821b620004b0565b5060208310610133831016604e8410600b841016171562000489575081810a620004b0565b620004958383620003b7565b8060001904821115620004ac57620004ac620003a1565b0290505b92915050565b6000620004c4838362000400565b9392505050565b8082028115828204841417620004b057620004b0620003a1565b80820180821115620004b057620004b0620003a1565b6108de806200050b6000396000f3fe608060405234801561001057600080fd5b50600436106100be5760003560e01c806342966c681161007657806395d89b411161005b57806395d89b4114610176578063a9059cbb1461017e578063dd62ed3e1461019157600080fd5b806342966c681461013857806370a082311461014d57600080fd5b806318160ddd116100a757806318160ddd1461010457806323b872dd14610116578063313ce5671461012957600080fd5b806306fdde03146100c3578063095ea7b3146100e1575b600080fd5b6100cb6101ca565b6040516100d891906106be565b60405180910390f35b6100f46100ef366004610747565b61025c565b60405190151581526020016100d8565b6002545b6040519081526020016100d8565b6100f4610124366004610771565b610276565b604051601281526020016100d8565b61014b6101463660046107ad565b61029a565b005b61010861015b3660046107c6565b6001600160a01b031660009081526020819052604090205490565b6100cb6102a7565b6100f461018c366004610747565b6102b6565b61010861019f3660046107e8565b6001600160a01b03918216600090815260016020908152604080832093909416825291909152205490565b6060600380546101d99061081b565b80601f01602080910402602001604051908101604052809291908181526020018280546102059061081b565b80156102525780601f1061022757610100808354040283529160200191610252565b820191906000526020600020905b81548152906001019060200180831161023557829003601f168201915b5050505050905090565b60003361026a8185856102c4565b60019150505b92915050565b6000336102848582856102d6565b61028f858585610390565b506001949350505050565b6102a43382610421565b50565b6060600480546101d99061081b565b60003361026a818585610390565b6102d18383836001610474565b505050565b6001600160a01b038381166000908152600160209081526040808320938616835292905220547fffffffffffffffffffffffffffffffffffffffffffffffffffffffffffffffff811461038a578181101561037b576040517ffb8f41b20000000000000000000000000000000000000000000000000000000081526001600160a01b038416600482015260248101829052604481018390526064015b60405180910390fd5b61038a84848484036000610474565b50505050565b6001600160a01b0383166103d3576040517f96c6fd1e00000000000000000000000000000000000000000000000000000000815260006004820152602401610372565b6001600160a01b038216610416576040517fec442f0500000000000000000000000000000000000000000000000000000000815260006004820152602401610372565b6102d183838361057b565b6001600160a01b038216610464576040517f96c6fd1e00000000000000000000000000000000000000000000000000000000815260006004820152602401610372565b6104708260008361057b565b5050565b6001600160a01b0384166104b7576040517fe602df0500000000000000000000000000000000000000000000000000000000815260006004820152602401610372565b6001600160a01b0383166104fa576040517f94280d6200000000000000000000000000000000000000000000000000000000815260006004820152602401610372565b6001600160a01b038085166000908152600160209081526040808320938716835292905220829055801561038a57826001600160a01b0316846001600160a01b03167f8c5be1e5ebec7d5bd14f71427d1e84f3dd0314c0f7b2291e5b200ac8c7c3b9258460405161056d91815260200190565b60405180910390a350505050565b6001600160a01b0383166105a657806002600082825461059b919061086e565b909155506106319050565b6001600160a01b03831660009081526020819052604090205481811015610612576040517fe450d38c0000000000000000000000000000000000000000000000000000000081526001600160a01b03851660048201526024810182905260448101839052606401610372565b6001600160a01b03841660009081526020819052604090209082900390555b6001600160a01b03821661064d5760028054829003905561066c565b6001600160a01b03821660009081526020819052604090208054820190555b816001600160a01b0316836001600160a01b03167fddf252ad1be2c89b69c2b068fc378daa952ba7f163c4a11628f55a4df523b3ef836040516106b191815260200190565b60405180910390a3505050565b60006020808352835180602085015260005b818110156106ec578581018301518582016040015282016106d0565b5060006040828601015260407fffffffffffffffffffffffffffffffffffffffffffffffffffffffffffffffe0601f8301168501019250505092915050565b80356001600160a01b038116811461074257600080fd5b919050565b6000806040838503121561075a57600080fd5b6107638361072b565b946020939093013593505050565b60008060006060848603121561078657600080fd5b61078f8461072b565b925061079d6020850161072b565b9150604084013590509250925092565b6000602082840312156107bf57600080fd5b5035919050565b6000602082840312156107d857600080fd5b6107e18261072b565b9392505050565b600080604083850312156107fb57600080fd5b6108048361072b565b91506108126020840161072b565b90509250929050565b600181811c9082168061082f57607f821691505b602082108103610868577f4e487b7100000000000000000000000000000000000000000000000000000000600052602260045260246000fd5b50919050565b80820180821115610270577f4e487b7100000000000000000000000000000000000000000000000000000000600052601160045260246000fdfea26469706673582212200ea2f2422e44ea0aeb8100b3017f6c612de2255a1a6970d219e64326e73e3cf364736f6c63430008180033",
  "linkReferences": {},
  "deployedLinkReferences": {}
}