{
  "_format": "hh-sol-artifact-1",
  "contractName": "My404",
  "sourceName": "contracts/My404.sol",
  "abi": [
    {
      "inputs": [
        {
          "internalType": "address",
          "name": "_owner",
          "type": "address"
        }
      ],
      "stateMutability": "nonpayable",
      "type": "constructor"
    },
    {
      "inputs": [],
      "name": "AlreadyExists",
      "type": "error"
    },
    {
      "inputs": [],
      "name": "InvalidOwner",
      "type": "error"
    },
    {
      "inputs": [],
      "name": "InvalidRecipient",
      "type": "error"
    },
    {
      "inputs": [],
      "name": "InvalidSender",
      "type": "error"
    },
    {
      "inputs": [],
      "name": "NotFound",
      "type": "error"
    },
    {
      "inputs": [],
      "name": "Unauthorized",
      "type": "error"
    },
    {
      "inputs": [],
      "name": "UnsafeRecipient",
      "type": "error"
    },
    {
      "anonymous": false,
      "inputs": [
        {
          "indexed": true,
          "internalType": "address",
          "name": "owner",
          "type": "address"
        },
        {
          "indexed": true,
          "internalType": "address",
          "name": "spender",
          "type": "address"
        },
        {
          "indexed": false,
          "internalType": "uint256",
          "name": "amount",
          "type": "uint256"
        }
      ],
      "name": "Approval",
      "type": "event"
    },
    {
      "anonymous": false,
      "inputs": [
        {
          "indexed": true,
          "internalType": "address",
          "name": "owner",
          "type": "address"
        },
        {
          "indexed": true,
          "internalType": "address",
          "name": "operator",
          "type": "address"
        },
        {
          "indexed": false,
          "internalType": "bool",
          "name": "approved",
          "type": "bool"
        }
      ],
      "name": "ApprovalForAll",
      "type": "event"
    },
    {
      "anonymous": false,
      "inputs": [
        {
          "indexed": true,
          "internalType": "address",
          "name": "from",
          "type": "address"
        },
        {
          "indexed": true,
          "internalType": "address",
          "name": "to",
          "type": "address"
        },
        {
          "indexed": false,
          "internalType": "uint256",
          "name": "amount",
          "type": "uint256"
        }
      ],
      "name": "ERC20Transfer",
      "type": "event"
    },
    {
      "anonymous": false,
      "inputs": [
        {
          "indexed": true,
          "internalType": "address",
          "name": "owner",
          "type": "address"
        },
        {
          "indexed": true,
          "internalType": "address",
          "name": "spender",
          "type": "address"
        },
        {
          "indexed": true,
          "internalType": "uint256",
          "name": "id",
          "type": "uint256"
        }
      ],
      "name": "ERC721Approval",
      "type": "event"
    },
    {
      "anonymous": false,
      "inputs": [
        {
          "indexed": true,
          "internalType": "address",
          "name": "user",
          "type": "address"
        },
        {
          "indexed": true,
          "internalType": "address",
          "name": "newOwner",
          "type": "address"
        }
      ],
      "name": "OwnershipTransferred",
      "type": "event"
    },
    {
      "anonymous": false,
      "inputs": [
        {
          "indexed": true,
          "internalType": "address",
          "name": "from",
          "type": "address"
        },
        {
          "indexed": true,
          "internalType": "address",
          "name": "to",
          "type": "address"
        },
        {
          "indexed": true,
          "internalType": "uint256",
          "name": "id",
          "type": "uint256"
        }
      ],
      "name": "Transfer",
      "type": "event"
    },
    {
      "inputs": [
        {
          "internalType": "address",
          "name": "",
          "type": "address"
        },
        {
          "internalType": "address",
          "name": "",
          "type": "address"
        }
      ],
      "name": "allowance",
      "outputs": [
        {
          "internalType": "uint256",
          "name": "",
          "type": "uint256"
        }
      ],
      "stateMutability": "view",
      "type": "function"
    },
    {
      "inputs": [
        {
          "internalType": "address",
          "name": "spender",
          "type": "address"
        },
        {
          "internalType": "uint256",
          "name": "amountOrId",
          "type": "uint256"
        }
      ],
      "name": "approve",
      "outputs": [
        {
          "internalType": "bool",
          "name": "",
          "type": "bool"
        }
      ],
      "stateMutability": "nonpayable",
      "type": "function"
    },
    {
      "inputs": [
        {
          "internalType": "address",
          "name": "",
          "type": "address"
        }
      ],
      "name": "balanceOf",
      "outputs": [
        {
          "internalType": "uint256",
          "name": "",
          "type": "uint256"
        }
      ],
      "stateMutability": "view",
      "type": "function"
    },
    {
      "inputs": [],
      "name": "baseTokenURI",
      "outputs": [
        {
          "internalType": "string",
          "name": "",
          "type": "string"
        }
      ],
      "stateMutability": "view",
      "type": "function"
    },
    {
      "inputs": [],
      "name": "dataURI",
      "outputs": [
        {
          "internalType": "string",
          "name": "",
          "type": "string"
        }
      ],
      "stateMutability": "view",
      "type": "function"
    },
    {
      "inputs": [],
      "name": "decimals",
      "outputs": [
        {
          "internalType": "uint8",
          "name": "",
          "type": "uint8"
        }
      ],
      "stateMutability": "view",
      "type": "function"
    },
    {
      "inputs": [
        {
          "internalType": "uint256",
          "name": "",
          "type": "uint256"
        }
      ],
      "name": "getApproved",
      "outputs": [
        {
          "internalType": "address",
          "name": "",
          "type": "address"
        }
      ],
      "stateMutability": "view",
      "type": "function"
    },
    {
      "inputs": [
        {
          "internalType": "address",
          "name": "",
          "type": "address"
        },
        {
          "internalType": "address",
          "name": "",
          "type": "address"
        }
      ],
      "name": "isApprovedForAll",
      "outputs": [
        {
          "internalType": "bool",
          "name": "",
          "type": "bool"
        }
      ],
      "stateMutability": "view",
      "type": "function"
    },
    {
      "inputs": [],
      "name": "minted",
      "outputs": [
        {
          "internalType": "uint256",
          "name": "",
          "type": "uint256"
        }
      ],
      "stateMutability": "view",
      "type": "function"
    },
    {
      "inputs": [],
      "name": "name",
      "outputs": [
        {
          "internalType": "string",
          "name": "",
          "type": "string"
        }
      ],
      "stateMutability": "view",
      "type": "function"
    },
    {
      "inputs": [],
      "name": "owner",
      "outputs": [
        {
          "internalType": "address",
          "name": "",
          "type": "address"
        }
      ],
      "stateMutability": "view",
      "type": "function"
    },
    {
      "inputs": [
        {
          "internalType": "uint256",
          "name": "id",
          "type": "uint256"
        }
      ],
      "name": "ownerOf",
      "outputs": [
        {
          "internalType": "address",
          "name": "owner",
          "type": "address"
        }
      ],
      "stateMutability": "view",
      "type": "function"
    },
    {
      "inputs": [],
      "name": "revokeOwnership",
      "outputs": [],
      "stateMutability": "nonpayable",
      "type": "function"
    },
    {
      "inputs": [
        {
          "internalType": "address",
          "name": "from",
          "type": "address"
        },
        {
          "internalType": "address",
          "name": "to",
          "type": "address"
        },
        {
          "internalType": "uint256",
          "name": "id",
          "type": "uint256"
        }
      ],
      "name": "safeTransferFrom",
      "outputs": [],
      "stateMutability": "nonpayable",
      "type": "function"
    },
    {
      "inputs": [
        {
          "internalType": "address",
          "name": "from",
          "type": "address"
        },
        {
          "internalType": "address",
          "name": "to",
          "type": "address"
        },
        {
          "internalType": "uint256",
          "name": "id",
          "type": "uint256"
        },
        {
          "internalType": "bytes",
          "name": "data",
          "type": "bytes"
        }
      ],
      "name": "safeTransferFrom",
      "outputs": [],
      "stateMutability": "nonpayable",
      "type": "function"
    },
    {
      "inputs": [
        {
          "internalType": "address",
          "name": "operator",
          "type": "address"
        },
        {
          "internalType": "bool",
          "name": "approved",
          "type": "bool"
        }
      ],
      "name": "setApprovalForAll",
      "outputs": [],
      "stateMutability": "nonpayable",
      "type": "function"
    },
    {
      "inputs": [
        {
          "internalType": "string",
          "name": "_dataURI",
          "type": "string"
        }
      ],
      "name": "setDataURI",
      "outputs": [],
      "stateMutability": "nonpayable",
      "type": "function"
    },
    {
      "inputs": [
        {
          "internalType": "string",
          "name": "_name",
          "type": "string"
        },
        {
          "internalType": "string",
          "name": "_symbol",
          "type": "string"
        }
      ],
      "name": "setNameSymbol",
      "outputs": [],
      "stateMutability": "nonpayable",
      "type": "function"
    },
    {
      "inputs": [
        {
          "internalType": "string",
          "name": "_tokenURI",
          "type": "string"
        }
      ],
      "name": "setTokenURI",
      "outputs": [],
      "stateMutability": "nonpayable",
      "type": "function"
    },
    {
      "inputs": [
        {
          "internalType": "address",
          "name": "target",
          "type": "address"
        },
        {
          "internalType": "bool",
          "name": "state",
          "type": "bool"
        }
      ],
      "name": "setWhitelist",
      "outputs": [],
      "stateMutability": "nonpayable",
      "type": "function"
    },
    {
      "inputs": [],
      "name": "symbol",
      "outputs": [
        {
          "internalType": "string",
          "name": "",
          "type": "string"
        }
      ],
      "stateMutability": "view",
      "type": "function"
    },
    {
      "inputs": [
        {
          "internalType": "uint256",
          "name": "id",
          "type": "uint256"
        }
      ],
      "name": "tokenURI",
      "outputs": [
        {
          "internalType": "string",
          "name": "",
          "type": "string"
        }
      ],
      "stateMutability": "view",
      "type": "function"
    },
    {
      "inputs": [],
      "name": "totalSupply",
      "outputs": [
        {
          "internalType": "uint256",
          "name": "",
          "type": "uint256"
        }
      ],
      "stateMutability": "view",
      "type": "function"
    },
    {
      "inputs": [
        {
          "internalType": "address",
          "name": "to",
          "type": "address"
        },
        {
          "internalType": "uint256",
          "name": "amount",
          "type": "uint256"
        }
      ],
      "name": "transfer",
      "outputs": [
        {
          "internalType": "bool",
          "name": "",
          "type": "bool"
        }
      ],
      "stateMutability": "nonpayable",
      "type": "function"
    },
    {
      "inputs": [
        {
          "internalType": "address",
          "name": "from",
          "type": "address"
        },
        {
          "internalType": "address",
          "name": "to",
          "type": "address"
        },
        {
          "internalType": "uint256",
          "name": "amountOrId",
          "type": "uint256"
        }
      ],
      "name": "transferFrom",
      "outputs": [],
      "stateMutability": "nonpayable",
      "type": "function"
    },
    {
      "inputs": [
        {
          "internalType": "address",
          "name": "_owner",
          "type": "address"
        }
      ],
      "name": "transferOwnership",
      "outputs": [],
      "stateMutability": "nonpayable",
      "type": "function"
    },
    {
      "inputs": [
        {
          "internalType": "address",
          "name": "",
          "type": "address"
        }
      ],
      "name": "whitelist",
      "outputs": [
        {
          "internalType": "bool",
          "name": "",
          "type": "bool"
        }
      ],
      "stateMutability": "view",
      "type": "function"
    }
  ],
  "bytecode": "0x60c06040523480156200001157600080fd5b5060405162001fe338038062001fe3833981016040819052620000349162000169565b60405180604001604052806005815260200164135e4d0c0d60da1b8152506040518060400160405280600581526020016413564d0c0d60da1b8152506012612710848060006001600160a01b0316816001600160a01b031603620000ab576040516349e27cff60e01b815260040160405180910390fd5b600080546001600160a01b0319166001600160a01b03831690811782556040519091907f8be0079c531659141344cd1fd0a4f28419497f9722a3daafe3b4186f6b6457e0908290a350600162000102868262000242565b50600262000111858262000242565b5060ff831660808190526200012890600a62000423565b62000134908362000434565b60a0525050506001600160a01b03909216600090815260046020526040902069021e19e0c9bab24000009055506200044e9050565b6000602082840312156200017c57600080fd5b81516001600160a01b03811681146200019457600080fd5b9392505050565b634e487b7160e01b600052604160045260246000fd5b600181811c90821680620001c657607f821691505b602082108103620001e757634e487b7160e01b600052602260045260246000fd5b50919050565b601f8211156200023d576000816000526020600020601f850160051c81016020861015620002185750805b601f850160051c820191505b81811015620002395782815560010162000224565b5050505b505050565b81516001600160401b038111156200025e576200025e6200019b565b62000276816200026f8454620001b1565b84620001ed565b602080601f831160018114620002ae5760008415620002955750858301515b600019600386901b1c1916600185901b17855562000239565b600085815260208120601f198616915b82811015620002df57888601518255948401946001909101908401620002be565b5085821015620002fe5787850151600019600388901b60f8161c191681555b5050505050600190811b01905550565b634e487b7160e01b600052601160045260246000fd5b600181815b80851115620003655781600019048211156200034957620003496200030e565b808516156200035757918102915b93841c939080029062000329565b509250929050565b6000826200037e575060016200041d565b816200038d575060006200041d565b8160018114620003a65760028114620003b157620003d1565b60019150506200041d565b60ff841115620003c557620003c56200030e565b50506001821b6200041d565b5060208310610133831016604e8410600b8410161715620003f6575081810a6200041d565b62000402838362000324565b80600019048211156200041957620004196200030e565b0290505b92915050565b60006200019460ff8416836200036d565b80820281158282048414176200041d576200041d6200030e565b60805160a051611b686200047b60003960006102450152600081816102aa01526110100152611b686000f3fe608060405234801561001057600080fd5b50600436106101b95760003560e01c806370a08231116100f9578063c87b56dd11610097578063e0df5b6f11610071578063e0df5b6f14610410578063e985e9c514610423578063f28ca1dd14610451578063f2fde38b1461045957600080fd5b8063c87b56dd146103ca578063d547cfb7146103dd578063dd62ed3e146103e557600080fd5b80639b19251a116100d35780639b19251a1461036e578063a22cb46514610391578063a9059cbb146103a4578063b88d4fde146103b757600080fd5b806370a08231146103335780638da5cb5b1461035357806395d89b411461036657600080fd5b80632b968958116101665780634f02c420116101405780634f02c420146102f1578063504334c2146102fa57806353d6fd591461030d5780636352211e1461032057600080fd5b80632b9689581461029d578063313ce567146102a557806342842e0e146102de57600080fd5b806318160ddd1161019757806318160ddd1461024057806318d217c31461027557806323b872dd1461028a57600080fd5b806306fdde03146101be578063081812fc146101dc578063095ea7b31461021d575b600080fd5b6101c661046c565b6040516101d3919061149a565b60405180910390f35b6102056101ea3660046114e9565b6006602052600090815260409020546001600160a01b031681565b6040516001600160a01b0390911681526020016101d3565b61023061022b366004611519565b6104fa565b60405190151581526020016101d3565b6102677f000000000000000000000000000000000000000000000000000000000000000081565b6040519081526020016101d3565b6102886102833660046115e6565b610658565b005b610288610298366004611623565b610692565b610288610a5a565b6102cc7f000000000000000000000000000000000000000000000000000000000000000081565b60405160ff90911681526020016101d3565b6102886102ec366004611623565b610acd565b61026760035481565b61028861030836600461165f565b610bec565b61028861031b3660046116c3565b610c20565b61020561032e3660046114e9565b610c75565b6102676103413660046116ff565b60046020526000908152604090205481565b600054610205906001600160a01b031681565b6101c6610cc9565b61023061037c3660046116ff565b600b6020526000908152604090205460ff1681565b61028861039f3660046116c3565b610cd6565b6102306103b2366004611519565b610d42565b6102886103c536600461171a565b610d56565b6101c66103d83660046114e9565b610e63565b6101c6610ef7565b6102676103f33660046117b5565b600560209081526000928352604080842090915290825290205481565b61028861041e3660046115e6565b610f04565b6102306104313660046117b5565b600760209081526000928352604080842090915290825290205460ff1681565b6101c6610f3a565b6102886104673660046116ff565b610f47565b60018054610479906117e8565b80601f01602080910402602001604051908101604052809291908181526020018280546104a5906117e8565b80156104f25780601f106104c7576101008083540402835291602001916104f2565b820191906000526020600020905b8154815290600101906020018083116104d557829003601f168201915b505050505081565b6000600354821115801561050e5750600082115b156105f2576000828152600860205260409020546001600160a01b031633811480159061055f57506001600160a01b038116600090815260076020908152604080832033845290915290205460ff16155b1561057c576040516282b42960e81b815260040160405180910390fd5b600083815260066020908152604091829020805473ffffffffffffffffffffffffffffffffffffffff19166001600160a01b038881169182179092559251868152908416917f8c5be1e5ebec7d5bd14f71427d1e84f3dd0314c0f7b2291e5b200ac8c7c3b925910160405180910390a35061064e565b3360008181526005602090815260408083206001600160a01b03881680855290835292819020869055518581529192917f8c5be1e5ebec7d5bd14f71427d1e84f3dd0314c0f7b2291e5b200ac8c7c3b925910160405180910390a35b5060015b92915050565b6000546001600160a01b03163314610682576040516282b42960e81b815260040160405180910390fd5b600c61068e8282611872565b5050565b60035481116109eb576000818152600860205260409020546001600160a01b038481169116146106ee576040517fddb5de5e00000000000000000000000000000000000000000000000000000000815260040160405180910390fd5b6001600160a01b03821661072e576040517f9c8d2cd200000000000000000000000000000000000000000000000000000000815260040160405180910390fd5b336001600160a01b0384161480159061076b57506001600160a01b038316600090815260076020908152604080832033845290915290205460ff16155b801561078e57506000818152600660205260409020546001600160a01b03163314155b156107ab576040516282b42960e81b815260040160405180910390fd5b6107b3611009565b6001600160a01b038416600090815260046020526040812080549091906107db908490611948565b909155506107e99050611009565b6001600160a01b038084166000818152600460209081526040808320805490960190955585825260088152848220805473ffffffffffffffffffffffffffffffffffffffff199081169094179055600681528482208054909316909255918616825260099052908120805461086090600190611948565b815481106108705761087061195b565b60009182526020808320909101546001600160a01b0387168352600982526040808420868552600a909352909220548154929350839281106108b4576108b461195b565b60009182526020808320909101929092556001600160a01b03861681526009909152604090208054806108e9576108e9611971565b600082815260208082208301600019908101839055909201909255838252600a8152604080832054848452818420556001600160a01b03861680845260098352908320805460018181018355828652938520018690559252905461094d9190611948565b6000838152600a602052604080822092909255905183916001600160a01b0380871692908816917fddf252ad1be2c89b69c2b068fc378daa952ba7f163c4a11628f55a4df523b3ef91a4826001600160a01b0316846001600160a01b03167fe59fdd36d0d223c0c7d996db7ad796880f45e1936cb0bb7ac102e7082e0314876109d4611009565b60405190815260200160405180910390a350505050565b6001600160a01b03831660009081526005602090815260408083203384529091529020546000198114610a4757610a228282611948565b6001600160a01b03851660009081526005602090815260408083203384529091529020555b610a5284848461103b565b50505b505050565b6000546001600160a01b03163314610a84576040516282b42960e81b815260040160405180910390fd5b6000805473ffffffffffffffffffffffffffffffffffffffff1916815560405133907f8be0079c531659141344cd1fd0a4f28419497f9722a3daafe3b4186f6b6457e0908390a3565b610ad8838383610692565b6001600160a01b0382163b15801590610bb557506040517f150b7a02000000000000000000000000000000000000000000000000000000008082523360048301526001600160a01b03858116602484015260448301849052608060648401526000608484015290919084169063150b7a029060a4016020604051808303816000875af1158015610b6c573d6000803e3d6000fd5b505050506040513d601f19601f82011682018060405250810190610b909190611987565b7fffffffff000000000000000000000000000000000000000000000000000000001614155b15610a55576040517f3da6393100000000000000000000000000000000000000000000000000000000815260040160405180910390fd5b6000546001600160a01b03163314610c16576040516282b42960e81b815260040160405180910390fd5b61068e82826111e9565b6000546001600160a01b03163314610c4a576040516282b42960e81b815260040160405180910390fd5b6001600160a01b03919091166000908152600b60205260409020805460ff1916911515919091179055565b6000818152600860205260409020546001600160a01b031680610cc4576040517fc5723b5100000000000000000000000000000000000000000000000000000000815260040160405180910390fd5b919050565b60028054610479906117e8565b3360008181526007602090815260408083206001600160a01b03871680855290835292819020805460ff191686151590811790915590519081529192917f17307eab39ab6107e8899845ad3d59bd9653f200f220920489ca2b5937696c31910160405180910390a35050565b6000610d4f33848461103b565b9392505050565b610d61858585610692565b6001600160a01b0384163b15801590610e2c57506040517f150b7a0200000000000000000000000000000000000000000000000000000000808252906001600160a01b0386169063150b7a0290610dc49033908a908990899089906004016119c9565b6020604051808303816000875af1158015610de3573d6000803e3d6000fd5b505050506040513d601f19601f82011682018060405250810190610e079190611987565b7fffffffff000000000000000000000000000000000000000000000000000000001614155b15610a52576040517f3da6393100000000000000000000000000000000000000000000000000000000815260040160405180910390fd5b6060600d8054610e72906117e8565b80601f0160208091040260200160405190810160405280929190818152602001828054610e9e906117e8565b8015610eeb5780601f10610ec057610100808354040283529160200191610eeb565b820191906000526020600020905b815481529060010190602001808311610ece57829003601f168201915b50505050509050919050565b600d8054610479906117e8565b6000546001600160a01b03163314610f2e576040516282b42960e81b815260040160405180910390fd5b600d61068e8282611872565b600c8054610479906117e8565b6000546001600160a01b03163314610f71576040516282b42960e81b815260040160405180910390fd5b6001600160a01b038116610fb1576040517f49e27cff00000000000000000000000000000000000000000000000000000000815260040160405180910390fd5b6000805473ffffffffffffffffffffffffffffffffffffffff19166001600160a01b0383169081178255604051909133917f8be0079c531659141344cd1fd0a4f28419497f9722a3daafe3b4186f6b6457e09190a350565b60006110367f0000000000000000000000000000000000000000000000000000000000000000600a611b01565b905090565b600080611046611009565b6001600160a01b038087166000818152600460205260408082208054948a16835290822054928252939450919290918691906110828386611948565b90915550506001600160a01b03808716600090815260046020908152604080832080548a019055928a168252600b9052205460ff16611114576001600160a01b0387166000908152600460205260408120546110df908590611b10565b6110e98585611b10565b6110f39190611948565b905060005b818110156111115761110989611202565b6001016110f8565b50505b6001600160a01b0386166000908152600b602052604090205460ff1661118f5760006111408483611b10565b6001600160a01b038816600090815260046020526040902054611164908690611b10565b61116e9190611948565b905060005b8181101561118c5761118488611350565b600101611173565b50505b856001600160a01b0316876001600160a01b03167fe59fdd36d0d223c0c7d996db7ad796880f45e1936cb0bb7ac102e7082e031487876040516111d491815260200190565b60405180910390a35060019695505050505050565b60016111f58382611872565b506002610a558282611872565b6001600160a01b038116611242576040517fddb5de5e00000000000000000000000000000000000000000000000000000000815260040160405180910390fd5b6001600160a01b0381166000908152600960205260408120805461126890600190611948565b815481106112785761127861195b565b9060005260206000200154905060096000836001600160a01b03166001600160a01b031681526020019081526020016000208054806112b9576112b9611971565b600082815260208082208301600019908101839055909201909255828252600a8152604080832083905560088252808320805473ffffffffffffffffffffffffffffffffffffffff1990811690915560069092528083208054909216909155518291906001600160a01b038516907fddf252ad1be2c89b69c2b068fc378daa952ba7f163c4a11628f55a4df523b3ef908390a45050565b6001600160a01b038116611390576040517f9c8d2cd200000000000000000000000000000000000000000000000000000000815260040160405180910390fd5b60038054600101908190556000818152600860205260409020546001600160a01b0316156113ea576040517f23369fa600000000000000000000000000000000000000000000000000000000815260040160405180910390fd5b6000818152600860209081526040808320805473ffffffffffffffffffffffffffffffffffffffff19166001600160a01b03871690811790915580845260098352908320805460018181018355828652938520018590559252905461144f9190611948565b6000828152600a602052604080822092909255905182916001600160a01b038516917fddf252ad1be2c89b69c2b068fc378daa952ba7f163c4a11628f55a4df523b3ef908290a45050565b60006020808352835180602085015260005b818110156114c8578581018301518582016040015282016114ac565b506000604082860101526040601f19601f8301168501019250505092915050565b6000602082840312156114fb57600080fd5b5035919050565b80356001600160a01b0381168114610cc457600080fd5b6000806040838503121561152c57600080fd5b61153583611502565b946020939093013593505050565b634e487b7160e01b600052604160045260246000fd5b600082601f83011261156a57600080fd5b813567ffffffffffffffff8082111561158557611585611543565b604051601f8301601f19908116603f011681019082821181831017156115ad576115ad611543565b816040528381528660208588010111156115c657600080fd5b836020870160208301376000602085830101528094505050505092915050565b6000602082840312156115f857600080fd5b813567ffffffffffffffff81111561160f57600080fd5b61161b84828501611559565b949350505050565b60008060006060848603121561163857600080fd5b61164184611502565b925061164f60208501611502565b9150604084013590509250925092565b6000806040838503121561167257600080fd5b823567ffffffffffffffff8082111561168a57600080fd5b61169686838701611559565b935060208501359150808211156116ac57600080fd5b506116b985828601611559565b9150509250929050565b600080604083850312156116d657600080fd5b6116df83611502565b9150602083013580151581146116f457600080fd5b809150509250929050565b60006020828403121561171157600080fd5b610d4f82611502565b60008060008060006080868803121561173257600080fd5b61173b86611502565b945061174960208701611502565b935060408601359250606086013567ffffffffffffffff8082111561176d57600080fd5b818801915088601f83011261178157600080fd5b81358181111561179057600080fd5b8960208285010111156117a257600080fd5b9699959850939650602001949392505050565b600080604083850312156117c857600080fd5b6117d183611502565b91506117df60208401611502565b90509250929050565b600181811c908216806117fc57607f821691505b60208210810361181c57634e487b7160e01b600052602260045260246000fd5b50919050565b601f821115610a55576000816000526020600020601f850160051c8101602086101561184b5750805b601f850160051c820191505b8181101561186a57828155600101611857565b505050505050565b815167ffffffffffffffff81111561188c5761188c611543565b6118a08161189a84546117e8565b84611822565b602080601f8311600181146118d557600084156118bd5750858301515b600019600386901b1c1916600185901b17855561186a565b600085815260208120601f198616915b82811015611904578886015182559484019460019091019084016118e5565b50858210156119225787850151600019600388901b60f8161c191681555b5050505050600190811b01905550565b634e487b7160e01b600052601160045260246000fd5b8181038181111561065257610652611932565b634e487b7160e01b600052603260045260246000fd5b634e487b7160e01b600052603160045260246000fd5b60006020828403121561199957600080fd5b81517fffffffff0000000000000000000000000000000000000000000000000000000081168114610d4f57600080fd5b60006001600160a01b03808816835280871660208401525084604083015260806060830152826080830152828460a0840137600060a0848401015260a0601f19601f85011683010190509695505050505050565b600181815b80851115611a58578160001904821115611a3e57611a3e611932565b80851615611a4b57918102915b93841c9390800290611a22565b509250929050565b600082611a6f57506001610652565b81611a7c57506000610652565b8160018114611a925760028114611a9c57611ab8565b6001915050610652565b60ff841115611aad57611aad611932565b50506001821b610652565b5060208310610133831016604e8410600b8410161715611adb575081810a610652565b611ae58383611a1d565b8060001904821115611af957611af9611932565b029392505050565b6000610d4f60ff841683611a60565b600082611b2d57634e487b7160e01b600052601260045260246000fd5b50049056fea264697066735822122037245f0429c6914d96fa66c03afca096a4431cedba2807eb75b42e0fda76083164736f6c63430008180033",
  "linkReferences": {},
  "deployedLinkReferences": {}
}