{
  "_format": "hh-sol-artifact-1",
  "contractName": "BCoinToken",
  "sourceName": "contracts/BCoinToken.sol",
  "abi": [
    {
      "inputs": [],
      "stateMutability": "nonpayable",
      "type": "constructor"
    },
    {
      "anonymous": false,
      "inputs": [
        {
          "indexed": true,
          "internalType": "address",
          "name": "owner",
          "type": "address"
        },
        {
          "indexed": true,
          "internalType": "address",
          "name": "spender",
          "type": "address"
        },
        {
          "indexed": false,
          "internalType": "uint256",
          "name": "value",
          "type": "uint256"
        }
      ],
      "name": "Approval",
      "type": "event"
    },
    {
      "anonymous": false,
      "inputs": [
        {
          "indexed": true,
          "internalType": "address",
          "name": "previousOwner",
          "type": "address"
        },
        {
          "indexed": true,
          "internalType": "address",
          "name": "newOwner",
          "type": "address"
        }
      ],
      "name": "OwnershipTransferred",
      "type": "event"
    },
    {
      "anonymous": false,
      "inputs": [],
      "name": "Pause",
      "type": "event"
    },
    {
      "anonymous": false,
      "inputs": [
        {
          "indexed": true,
          "internalType": "address",
          "name": "from",
          "type": "address"
        },
        {
          "indexed": true,
          "internalType": "address",
          "name": "to",
          "type": "address"
        },
        {
          "indexed": false,
          "internalType": "uint256",
          "name": "value",
          "type": "uint256"
        }
      ],
      "name": "Transfer",
      "type": "event"
    },
    {
      "anonymous": false,
      "inputs": [],
      "name": "Unpause",
      "type": "event"
    },
    {
      "inputs": [
        {
          "internalType": "address",
          "name": "owner",
          "type": "address"
        },
        {
          "internalType": "address",
          "name": "spender",
          "type": "address"
        }
      ],
      "name": "allowance",
      "outputs": [
        {
          "internalType": "uint256",
          "name": "",
          "type": "uint256"
        }
      ],
      "stateMutability": "view",
      "type": "function"
    },
    {
      "inputs": [
        {
          "internalType": "address",
          "name": "spender",
          "type": "address"
        },
        {
          "internalType": "uint256",
          "name": "amount",
          "type": "uint256"
        }
      ],
      "name": "approve",
      "outputs": [
        {
          "internalType": "bool",
          "name": "",
          "type": "bool"
        }
      ],
      "stateMutability": "nonpayable",
      "type": "function"
    },
    {
      "inputs": [
        {
          "internalType": "address",
          "name": "account",
          "type": "address"
        }
      ],
      "name": "balanceOf",
      "outputs": [
        {
          "internalType": "uint256",
          "name": "",
          "type": "uint256"
        }
      ],
      "stateMutability": "view",
      "type": "function"
    },
    {
      "inputs": [
        {
          "internalType": "uint256",
          "name": "amount",
          "type": "uint256"
        }
      ],
      "name": "burn",
      "outputs": [],
      "stateMutability": "nonpayable",
      "type": "function"
    },
    {
      "inputs": [],
      "name": "decimals",
      "outputs": [
        {
          "internalType": "uint8",
          "name": "",
          "type": "uint8"
        }
      ],
      "stateMutability": "view",
      "type": "function"
    },
    {
      "inputs": [
        {
          "internalType": "address",
          "name": "spender",
          "type": "address"
        },
        {
          "internalType": "uint256",
          "name": "subtractedValue",
          "type": "uint256"
        }
      ],
      "name": "decreaseAllowance",
      "outputs": [
        {
          "internalType": "bool",
          "name": "",
          "type": "bool"
        }
      ],
      "stateMutability": "nonpayable",
      "type": "function"
    },
    {
      "inputs": [
        {
          "internalType": "address",
          "name": "spender",
          "type": "address"
        },
        {
          "internalType": "uint256",
          "name": "addedValue",
          "type": "uint256"
        }
      ],
      "name": "increaseAllowance",
      "outputs": [
        {
          "internalType": "bool",
          "name": "",
          "type": "bool"
        }
      ],
      "stateMutability": "nonpayable",
      "type": "function"
    },
    {
      "inputs": [],
      "name": "isOwner",
      "outputs": [
        {
          "internalType": "bool",
          "name": "",
          "type": "bool"
        }
      ],
      "stateMutability": "view",
      "type": "function"
    },
    {
      "inputs": [],
      "name": "name",
      "outputs": [
        {
          "internalType": "string",
          "name": "",
          "type": "string"
        }
      ],
      "stateMutability": "view",
      "type": "function"
    },
    {
      "inputs": [],
      "name": "owner",
      "outputs": [
        {
          "internalType": "address",
          "name": "",
          "type": "address"
        }
      ],
      "stateMutability": "view",
      "type": "function"
    },
    {
      "inputs": [],
      "name": "pause",
      "outputs": [
        {
          "internalType": "bool",
          "name": "",
          "type": "bool"
        }
      ],
      "stateMutability": "nonpayable",
      "type": "function"
    },
    {
      "inputs": [],
      "name": "paused",
      "outputs": [
        {
          "internalType": "bool",
          "name": "",
          "type": "bool"
        }
      ],
      "stateMutability": "view",
      "type": "function"
    },
    {
      "inputs": [],
      "name": "renounceOwnership",
      "outputs": [],
      "stateMutability": "nonpayable",
      "type": "function"
    },
    {
      "inputs": [],
      "name": "symbol",
      "outputs": [
        {
          "internalType": "string",
          "name": "",
          "type": "string"
        }
      ],
      "stateMutability": "view",
      "type": "function"
    },
    {
      "inputs": [],
      "name": "totalSupply",
      "outputs": [
        {
          "internalType": "uint256",
          "name": "",
          "type": "uint256"
        }
      ],
      "stateMutability": "view",
      "type": "function"
    },
    {
      "inputs": [
        {
          "internalType": "address",
          "name": "recipient",
          "type": "address"
        },
        {
          "internalType": "uint256",
          "name": "amount",
          "type": "uint256"
        }
      ],
      "name": "transfer",
      "outputs": [
        {
          "internalType": "bool",
          "name": "",
          "type": "bool"
        }
      ],
      "stateMutability": "nonpayable",
      "type": "function"
    },
    {
      "inputs": [
        {
          "internalType": "address",
          "name": "sender",
          "type": "address"
        },
        {
          "internalType": "address",
          "name": "recipient",
          "type": "address"
        },
        {
          "internalType": "uint256",
          "name": "amount",
          "type": "uint256"
        }
      ],
      "name": "transferFrom",
      "outputs": [
        {
          "internalType": "bool",
          "name": "",
          "type": "bool"
        }
      ],
      "stateMutability": "nonpayable",
      "type": "function"
    },
    {
      "inputs": [
        {
          "internalType": "address",
          "name": "newOwner",
          "type": "address"
        }
      ],
      "name": "transferOwnership",
      "outputs": [],
      "stateMutability": "nonpayable",
      "type": "function"
    },
    {
      "inputs": [],
      "name": "unpause",
      "outputs": [
        {
          "internalType": "bool",
          "name": "",
          "type": "bool"
        }
      ],
      "stateMutability": "nonpayable",
      "type": "function"
    }
  ],
  "bytecode": "0x60806040526002805460ff60a81b191690553480156200001e57600080fd5b506040518060400160405280600b81526020016a426f6d622043727970746f60a81b815250604051806040016040528060058152602001642121a7a4a760d91b8152506012826000908162000074919062000343565b50600162000083838262000343565b506002805460ff191660ff929092169190911790555060009050620000a53390565b60028054610100600160a81b0319166101006001600160a01b03841690810291909117909155604051919250906000907f8be0079c531659141344cd1fd0a4f28419497f9722a3daafe3b4186f6b6457e0908290a35060006200010a60025460ff1690565b6200011a9060ff16600a62000522565b6200012a906305f5e10062000537565b90506200013833826200013f565b5062000567565b6001600160a01b0382166200019b5760405162461bcd60e51b815260206004820152601f60248201527f42455032303a206d696e7420746f20746865207a65726f20616464726573730060448201526064015b60405180910390fd5b600554620001aa908262000230565b6005556001600160a01b038216600090815260036020526040902054620001d2908262000230565b6001600160a01b0383166000818152600360205260408082209390935591519091907fddf252ad1be2c89b69c2b068fc378daa952ba7f163c4a11628f55a4df523b3ef90620002249085815260200190565b60405180910390a35050565b6000806200023f838562000551565b905083811015620002935760405162461bcd60e51b815260206004820152601b60248201527f536166654d6174683a206164646974696f6e206f766572666c6f770000000000604482015260640162000192565b90505b92915050565b634e487b7160e01b600052604160045260246000fd5b600181811c90821680620002c757607f821691505b602082108103620002e857634e487b7160e01b600052602260045260246000fd5b50919050565b601f8211156200033e576000816000526020600020601f850160051c81016020861015620003195750805b601f850160051c820191505b818110156200033a5782815560010162000325565b5050505b505050565b81516001600160401b038111156200035f576200035f6200029c565b6200037781620003708454620002b2565b84620002ee565b602080601f831160018114620003af5760008415620003965750858301515b600019600386901b1c1916600185901b1785556200033a565b600085815260208120601f198616915b82811015620003e057888601518255948401946001909101908401620003bf565b5085821015620003ff5787850151600019600388901b60f8161c191681555b5050505050600190811b01905550565b634e487b7160e01b600052601160045260246000fd5b600181815b80851115620004665781600019048211156200044a576200044a6200040f565b808516156200045857918102915b93841c93908002906200042a565b509250929050565b6000826200047f5750600162000296565b816200048e5750600062000296565b8160018114620004a75760028114620004b257620004d2565b600191505062000296565b60ff841115620004c657620004c66200040f565b50506001821b62000296565b5060208310610133831016604e8410600b8410161715620004f7575081810a62000296565b62000503838362000425565b80600019048211156200051a576200051a6200040f565b029392505050565b60006200053083836200046e565b9392505050565b80820281158282048414176200029657620002966200040f565b808201808211156200029657620002966200040f565b6110f780620005776000396000f3fe608060405234801561001057600080fd5b50600436106101515760003560e01c806370a08231116100cd57806395d89b4111610081578063a9059cbb11610066578063a9059cbb146102aa578063dd62ed3e146102bd578063f2fde38b146102f657600080fd5b806395d89b411461028f578063a457c2d71461029757600080fd5b80638456cb59116100b25780638456cb59146102465780638da5cb5b1461024e5780638f32d59b1461027757600080fd5b806370a0823114610215578063715018a61461023e57600080fd5b8063313ce567116101245780633f4ba83a116101095780633f4ba83a146101e457806342966c68146101ec5780635c975abb1461020157600080fd5b8063313ce567146101bc57806339509351146101d157600080fd5b806306fdde0314610156578063095ea7b31461017457806318160ddd1461019757806323b872dd146101a9575b600080fd5b61015e610309565b60405161016b9190610e2e565b60405180910390f35b610187610182366004610eb7565b61039b565b604051901515815260200161016b565b6005545b60405190815260200161016b565b6101876101b7366004610ee1565b6103ca565b60025460405160ff909116815260200161016b565b6101876101df366004610eb7565b61044b565b61018761049a565b6101ff6101fa366004610f1d565b61056e565b005b60025461018790600160a81b900460ff1681565b61019b610223366004610f36565b6001600160a01b031660009081526003602052604090205490565b6101ff61057b565b610187610641565b60025461010090046001600160a01b03166040516001600160a01b03909116815260200161016b565b60025461010090046001600160a01b03163314610187565b61015e610717565b6101876102a5366004610eb7565b610726565b6101876102b8366004610eb7565b61078d565b61019b6102cb366004610f51565b6001600160a01b03918216600090815260046020908152604080832093909416825291909152205490565b6101ff610304366004610f36565b6107b2565b60606000805461031890610f84565b80601f016020809104026020016040519081016040528092919081815260200182805461034490610f84565b80156103915780601f1061036657610100808354040283529160200191610391565b820191906000526020600020905b81548152906001019060200180831161037457829003601f168201915b5050505050905090565b600254600090600160a81b900460ff16156103b557600080fd5b6103c033848461081a565b5060015b92915050565b600254600090600160a81b900460ff16156103e457600080fd5b6103ef848484610973565b610441843361043c8560405180606001604052806028815260200161102d602891396001600160a01b038a1660009081526004602090815260408083203384529091529020549190610b2b565b61081a565b5060019392505050565b600254600090600160a81b900460ff161561046557600080fd5b3360008181526004602090815260408083206001600160a01b03881684529091529020546103c09190859061043c9086610b65565b60025460009061010090046001600160a01b031633146105015760405162461bcd60e51b815260206004820181905260248201527f4f776e61626c653a2063616c6c6572206973206e6f7420746865206f776e657260448201526064015b60405180910390fd5b600254600160a81b900460ff1661051757600080fd5b600280547fffffffffffffffffffff00ffffffffffffffffffffffffffffffffffffffffff1690556040517f7805862f689e2f13df9f062ff482ad3ad112aca9e0847911ed832e158c525b3390600090a150600190565b6105783382610bcb565b50565b60025461010090046001600160a01b031633146105da5760405162461bcd60e51b815260206004820181905260248201527f4f776e61626c653a2063616c6c6572206973206e6f7420746865206f776e657260448201526064016104f8565b60025460405160009161010090046001600160a01b0316907f8be0079c531659141344cd1fd0a4f28419497f9722a3daafe3b4186f6b6457e0908390a3600280547fffffffffffffffffffffff0000000000000000000000000000000000000000ff169055565b60025460009061010090046001600160a01b031633146106a35760405162461bcd60e51b815260206004820181905260248201527f4f776e61626c653a2063616c6c6572206973206e6f7420746865206f776e657260448201526064016104f8565b600254600160a81b900460ff16156106ba57600080fd5b600280547fffffffffffffffffffff00ffffffffffffffffffffffffffffffffffffffffff16600160a81b1790556040517f6985a02210a168e66602d3235cb6db0e70f92b3ba4d376a33c0f3d9434bff62590600090a150600190565b60606001805461031890610f84565b600254600090600160a81b900460ff161561074057600080fd5b6103c0338461043c8560405180606001604052806025815260200161107b602591393360009081526004602090815260408083206001600160a01b038d1684529091529020549190610b2b565b600254600090600160a81b900460ff16156107a757600080fd5b6103c0338484610973565b60025461010090046001600160a01b031633146108115760405162461bcd60e51b815260206004820181905260248201527f4f776e61626c653a2063616c6c6572206973206e6f7420746865206f776e657260448201526064016104f8565b61057881610cf2565b6001600160a01b0383166108955760405162461bcd60e51b8152602060048201526024808201527f42455032303a20617070726f76652066726f6d20746865207a65726f2061646460448201527f726573730000000000000000000000000000000000000000000000000000000060648201526084016104f8565b6001600160a01b0382166109115760405162461bcd60e51b815260206004820152602260248201527f42455032303a20617070726f766520746f20746865207a65726f20616464726560448201527f737300000000000000000000000000000000000000000000000000000000000060648201526084016104f8565b6001600160a01b0383811660008181526004602090815260408083209487168084529482529182902085905590518481527f8c5be1e5ebec7d5bd14f71427d1e84f3dd0314c0f7b2291e5b200ac8c7c3b92591015b60405180910390a3505050565b6001600160a01b0383166109ef5760405162461bcd60e51b815260206004820152602560248201527f42455032303a207472616e736665722066726f6d20746865207a65726f20616460448201527f647265737300000000000000000000000000000000000000000000000000000060648201526084016104f8565b6001600160a01b038216610a6b5760405162461bcd60e51b815260206004820152602360248201527f42455032303a207472616e7366657220746f20746865207a65726f206164647260448201527f657373000000000000000000000000000000000000000000000000000000000060648201526084016104f8565b610aa881604051806060016040528060268152602001611055602691396001600160a01b0386166000908152600360205260409020549190610b2b565b6001600160a01b038085166000908152600360205260408082209390935590841681522054610ad79082610b65565b6001600160a01b0380841660008181526003602052604090819020939093559151908516907fddf252ad1be2c89b69c2b068fc378daa952ba7f163c4a11628f55a4df523b3ef906109669085815260200190565b60008184841115610b4f5760405162461bcd60e51b81526004016104f89190610e2e565b506000610b5c8486611006565b95945050505050565b600080610b728385611019565b905083811015610bc45760405162461bcd60e51b815260206004820152601b60248201527f536166654d6174683a206164646974696f6e206f766572666c6f77000000000060448201526064016104f8565b9392505050565b6001600160a01b038216610c475760405162461bcd60e51b815260206004820152602160248201527f42455032303a206275726e2066726f6d20746865207a65726f2061646472657360448201527f730000000000000000000000000000000000000000000000000000000000000060648201526084016104f8565b610c84816040518060600160405280602281526020016110a0602291396001600160a01b0385166000908152600360205260409020549190610b2b565b6001600160a01b038316600090815260036020526040902055600554610caa9082610dec565b6005556040518181526000906001600160a01b038416907fddf252ad1be2c89b69c2b068fc378daa952ba7f163c4a11628f55a4df523b3ef9060200160405180910390a35050565b6001600160a01b038116610d6e5760405162461bcd60e51b815260206004820152602660248201527f4f776e61626c653a206e6577206f776e657220697320746865207a65726f206160448201527f646472657373000000000000000000000000000000000000000000000000000060648201526084016104f8565b6002546040516001600160a01b0380841692610100900416907f8be0079c531659141344cd1fd0a4f28419497f9722a3daafe3b4186f6b6457e090600090a3600280546001600160a01b03909216610100027fffffffffffffffffffffff0000000000000000000000000000000000000000ff909216919091179055565b6000610bc483836040518060400160405280601e81526020017f536166654d6174683a207375627472616374696f6e206f766572666c6f770000815250610b2b565b60006020808352835180602085015260005b81811015610e5c57858101830151858201604001528201610e40565b5060006040828601015260407fffffffffffffffffffffffffffffffffffffffffffffffffffffffffffffffe0601f8301168501019250505092915050565b80356001600160a01b0381168114610eb257600080fd5b919050565b60008060408385031215610eca57600080fd5b610ed383610e9b565b946020939093013593505050565b600080600060608486031215610ef657600080fd5b610eff84610e9b565b9250610f0d60208501610e9b565b9150604084013590509250925092565b600060208284031215610f2f57600080fd5b5035919050565b600060208284031215610f4857600080fd5b610bc482610e9b565b60008060408385031215610f6457600080fd5b610f6d83610e9b565b9150610f7b60208401610e9b565b90509250929050565b600181811c90821680610f9857607f821691505b602082108103610fd1577f4e487b7100000000000000000000000000000000000000000000000000000000600052602260045260246000fd5b50919050565b7f4e487b7100000000000000000000000000000000000000000000000000000000600052601160045260246000fd5b818103818111156103c4576103c4610fd7565b808201808211156103c4576103c4610fd756fe42455032303a207472616e7366657220616d6f756e74206578636565647320616c6c6f77616e636542455032303a207472616e7366657220616d6f756e7420657863656564732062616c616e636542455032303a2064656372656173656420616c6c6f77616e63652062656c6f77207a65726f42455032303a206275726e20616d6f756e7420657863656564732062616c616e6365a2646970667358221220f7e7358a4955618044c3a4b4eecc8cdf823a62bdc7cf53d35a24051356e6db9c64736f6c63430008180033",
  "linkReferences": {},
  "deployedLinkReferences": {}
}